{
	"contracts/KlineIntervalData.sol": {
		"KlineIntervalData": {
			"abi": [
				{
					"inputs": [
						{
							"internalType": "string",
							"name": "_symbol",
							"type": "string"
						},
						{
							"internalType": "enum KlineDataLib.Interval",
							"name": "_intervalType",
							"type": "uint8"
						},
						{
							"internalType": "uint256",
							"name": "_maxHistory",
							"type": "uint256"
						},
						{
							"internalType": "address",
							"name": "_factoryAddress",
							"type": "address"
						},
						{
							"internalType": "address",
							"name": "_initialOracleAddress",
							"type": "address"
						},
						{
							"internalType": "uint256",
							"name": "_version",
							"type": "uint256"
						}
					],
					"stateMutability": "nonpayable",
					"type": "constructor"
				},
				{
					"anonymous": false,
					"inputs": [
						{
							"indexed": true,
							"internalType": "enum KlineDataLib.Interval",
							"name": "interval",
							"type": "uint8"
						},
						{
							"indexed": true,
							"internalType": "uint256",
							"name": "version",
							"type": "uint256"
						},
						{
							"indexed": true,
							"internalType": "string",
							"name": "symbol",
							"type": "string"
						},
						{
							"indexed": false,
							"internalType": "uint64",
							"name": "startTime",
							"type": "uint64"
						},
						{
							"indexed": false,
							"internalType": "bool",
							"name": "isUpdate",
							"type": "bool"
						}
					],
					"name": "KlineAddedToIntervalData",
					"type": "event"
				},
				{
					"anonymous": false,
					"inputs": [
						{
							"indexed": true,
							"internalType": "address",
							"name": "newOracleAddress",
							"type": "address"
						}
					],
					"name": "OracleAddressUpdated",
					"type": "event"
				},
				{
					"inputs": [],
					"name": "MAX_KLINE_HISTORY",
					"outputs": [
						{
							"internalType": "uint256",
							"name": "",
							"type": "uint256"
						}
					],
					"stateMutability": "view",
					"type": "function"
				},
				{
					"inputs": [
						{
							"internalType": "uint64",
							"name": "_startTime",
							"type": "uint64"
						},
						{
							"internalType": "uint64",
							"name": "_closeTime",
							"type": "uint64"
						},
						{
							"internalType": "uint256",
							"name": "_openPriceScaled",
							"type": "uint256"
						},
						{
							"internalType": "uint256",
							"name": "_highPriceScaled",
							"type": "uint256"
						},
						{
							"internalType": "uint256",
							"name": "_lowPriceScaled",
							"type": "uint256"
						},
						{
							"internalType": "uint256",
							"name": "_closePriceScaled",
							"type": "uint256"
						},
						{
							"internalType": "uint256",
							"name": "_volumeScaled",
							"type": "uint256"
						},
						{
							"internalType": "bool",
							"name": "_isClosed",
							"type": "bool"
						}
					],
					"name": "addOrUpdateKline",
					"outputs": [],
					"stateMutability": "nonpayable",
					"type": "function"
				},
				{
					"inputs": [],
					"name": "factoryAddress",
					"outputs": [
						{
							"internalType": "address",
							"name": "",
							"type": "address"
						}
					],
					"stateMutability": "view",
					"type": "function"
				},
				{
					"inputs": [],
					"name": "getAllKlinesInThisVersion",
					"outputs": [
						{
							"components": [
								{
									"internalType": "uint64",
									"name": "startTime",
									"type": "uint64"
								},
								{
									"internalType": "uint64",
									"name": "closeTime",
									"type": "uint64"
								},
								{
									"internalType": "uint256",
									"name": "openPrice",
									"type": "uint256"
								},
								{
									"internalType": "uint256",
									"name": "highPrice",
									"type": "uint256"
								},
								{
									"internalType": "uint256",
									"name": "lowPrice",
									"type": "uint256"
								},
								{
									"internalType": "uint256",
									"name": "closePrice",
									"type": "uint256"
								},
								{
									"internalType": "uint256",
									"name": "volume",
									"type": "uint256"
								},
								{
									"internalType": "bool",
									"name": "isClosed",
									"type": "bool"
								}
							],
							"internalType": "struct KlineDataLib.CompactCandle[]",
							"name": "",
							"type": "tuple[]"
						}
					],
					"stateMutability": "view",
					"type": "function"
				},
				{
					"inputs": [],
					"name": "getInfo",
					"outputs": [
						{
							"internalType": "string",
							"name": "workerSymbol",
							"type": "string"
						},
						{
							"internalType": "enum KlineDataLib.Interval",
							"name": "workerInterval",
							"type": "uint8"
						},
						{
							"internalType": "uint256",
							"name": "workerVersion",
							"type": "uint256"
						},
						{
							"internalType": "uint256",
							"name": "workerKlineCount",
							"type": "uint256"
						},
						{
							"internalType": "uint256",
							"name": "workerMaxKlines",
							"type": "uint256"
						}
					],
					"stateMutability": "view",
					"type": "function"
				},
				{
					"inputs": [
						{
							"internalType": "uint256",
							"name": "_count",
							"type": "uint256"
						}
					],
					"name": "getKlines",
					"outputs": [
						{
							"components": [
								{
									"internalType": "uint64",
									"name": "startTime",
									"type": "uint64"
								},
								{
									"internalType": "uint64",
									"name": "closeTime",
									"type": "uint64"
								},
								{
									"internalType": "uint256",
									"name": "openPrice",
									"type": "uint256"
								},
								{
									"internalType": "uint256",
									"name": "highPrice",
									"type": "uint256"
								},
								{
									"internalType": "uint256",
									"name": "lowPrice",
									"type": "uint256"
								},
								{
									"internalType": "uint256",
									"name": "closePrice",
									"type": "uint256"
								},
								{
									"internalType": "uint256",
									"name": "volume",
									"type": "uint256"
								},
								{
									"internalType": "bool",
									"name": "isClosed",
									"type": "bool"
								}
							],
							"internalType": "struct KlineDataLib.CompactCandle[]",
							"name": "",
							"type": "tuple[]"
						}
					],
					"stateMutability": "view",
					"type": "function"
				},
				{
					"inputs": [],
					"name": "intervalType",
					"outputs": [
						{
							"internalType": "enum KlineDataLib.Interval",
							"name": "",
							"type": "uint8"
						}
					],
					"stateMutability": "view",
					"type": "function"
				},
				{
					"inputs": [],
					"name": "klineCount",
					"outputs": [
						{
							"internalType": "uint256",
							"name": "",
							"type": "uint256"
						}
					],
					"stateMutability": "view",
					"type": "function"
				},
				{
					"inputs": [
						{
							"internalType": "uint256",
							"name": "",
							"type": "uint256"
						}
					],
					"name": "klines",
					"outputs": [
						{
							"internalType": "uint64",
							"name": "startTime",
							"type": "uint64"
						},
						{
							"internalType": "uint64",
							"name": "closeTime",
							"type": "uint64"
						},
						{
							"internalType": "uint256",
							"name": "openPrice",
							"type": "uint256"
						},
						{
							"internalType": "uint256",
							"name": "highPrice",
							"type": "uint256"
						},
						{
							"internalType": "uint256",
							"name": "lowPrice",
							"type": "uint256"
						},
						{
							"internalType": "uint256",
							"name": "closePrice",
							"type": "uint256"
						},
						{
							"internalType": "uint256",
							"name": "volume",
							"type": "uint256"
						},
						{
							"internalType": "bool",
							"name": "isClosed",
							"type": "bool"
						}
					],
					"stateMutability": "view",
					"type": "function"
				},
				{
					"inputs": [],
					"name": "nextKlineIndex",
					"outputs": [
						{
							"internalType": "uint256",
							"name": "",
							"type": "uint256"
						}
					],
					"stateMutability": "view",
					"type": "function"
				},
				{
					"inputs": [],
					"name": "oracleAddress",
					"outputs": [
						{
							"internalType": "address",
							"name": "",
							"type": "address"
						}
					],
					"stateMutability": "view",
					"type": "function"
				},
				{
					"inputs": [
						{
							"internalType": "address",
							"name": "_newOracleAddress",
							"type": "address"
						}
					],
					"name": "setOracle",
					"outputs": [],
					"stateMutability": "nonpayable",
					"type": "function"
				},
				{
					"inputs": [],
					"name": "symbol",
					"outputs": [
						{
							"internalType": "string",
							"name": "",
							"type": "string"
						}
					],
					"stateMutability": "view",
					"type": "function"
				},
				{
					"inputs": [],
					"name": "version",
					"outputs": [
						{
							"internalType": "uint256",
							"name": "",
							"type": "uint256"
						}
					],
					"stateMutability": "view",
					"type": "function"
				}
			],
			"devdoc": {
				"kind": "dev",
				"methods": {},
				"version": 1
			},
			"evm": {
				"assembly": "    /* \"contracts/KlineIntervalData.sol\":154:5757  contract KlineIntervalData {... */\n  mstore(0x40, 0x0100)\n    /* \"contracts/KlineIntervalData.sol\":1143:1653  constructor(... */\n  callvalue\n  dup1\n  iszero\n  tag_1\n  jumpi\n  revert(0x00, 0x00)\ntag_1:\n  pop\n  mload(0x40)\n  sub(codesize, bytecodeSize)\n  dup1\n  bytecodeSize\n  dup4\n  codecopy\n  dup2\n  add\n  0x40\n  dup2\n  swap1\n  mstore\n  tag_2\n  swap2\n  tag_3\n  jump\t// in\ntag_2:\n    /* \"contracts/KlineIntervalData.sol\":1413:1419  symbol */\n  0x00\n    /* \"contracts/KlineIntervalData.sol\":1413:1429  symbol = _symbol */\n  tag_6\n    /* \"contracts/KlineIntervalData.sol\":1422:1429  _symbol */\n  dup8\n    /* \"contracts/KlineIntervalData.sol\":1413:1419  symbol */\n  dup3\n    /* \"contracts/KlineIntervalData.sol\":1413:1429  symbol = _symbol */\n  tag_7\n  jump\t// in\ntag_6:\n  pop\n    /* \"contracts/KlineIntervalData.sol\":1470:1483  _intervalType */\n  dup5\n    /* \"contracts/KlineIntervalData.sol\":1455:1483  intervalType = _intervalType */\n  0x0f\n  dup2\n  gt\n  iszero\n  tag_9\n  jumpi\n  tag_9\n  tag_10\n  jump\t// in\ntag_9:\n  0xa0\n  dup2\n  0x0f\n  dup2\n  gt\n  iszero\n  tag_12\n  jumpi\n  tag_12\n  tag_10\n  jump\t// in\ntag_12:\n  swap1\n  mstore\n  pop\n    /* \"contracts/KlineIntervalData.sol\":1494:1525  MAX_KLINE_HISTORY = _maxHistory */\n  0x80\n  swap4\n  swap1\n  swap4\n  mstore\n  sub(shl(0xa0, 0x01), 0x01)\n    /* \"contracts/KlineIntervalData.sol\":1536:1568  factoryAddress = _factoryAddress */\n  swap2\n  dup3\n  and\n  0xc0\n  mstore\n    /* \"contracts/KlineIntervalData.sol\":1579:1592  oracleAddress */\n  0x04\n    /* \"contracts/KlineIntervalData.sol\":1579:1616  oracleAddress = _initialOracleAddress */\n  dup1\n  sload\n  not(sub(shl(0xa0, 0x01), 0x01))\n  and\n  swap2\n  swap1\n  swap3\n  and\n  or\n  swap1\n  sstore\n    /* \"contracts/KlineIntervalData.sol\":1627:1645  version = _version */\n  0xe0\n  mstore\n  pop\n    /* \"contracts/KlineIntervalData.sol\":154:5757  contract KlineIntervalData {... */\n  tag_21\n  swap1\n  pop\n  jump\n    /* \"#utility.yul\":14:141   */\ntag_14:\n    /* \"#utility.yul\":75:85   */\n  0x4e487b71\n    /* \"#utility.yul\":70:73   */\n  0xe0\n    /* \"#utility.yul\":66:86   */\n  shl\n    /* \"#utility.yul\":63:64   */\n  0x00\n    /* \"#utility.yul\":56:87   */\n  mstore\n    /* \"#utility.yul\":106:110   */\n  0x41\n    /* \"#utility.yul\":103:104   */\n  0x04\n    /* \"#utility.yul\":96:111   */\n  mstore\n    /* \"#utility.yul\":130:134   */\n  0x24\n    /* \"#utility.yul\":127:128   */\n  0x00\n    /* \"#utility.yul\":120:135   */\n  revert\n    /* \"#utility.yul\":146:300   */\ntag_15:\n    /* \"#utility.yul\":231:244   */\n  dup1\n  mload\n    /* \"#utility.yul\":273:275   */\n  0x10\n    /* \"#utility.yul\":263:276   */\n  dup2\n  lt\n    /* \"#utility.yul\":253:294   */\n  tag_24\n  jumpi\n    /* \"#utility.yul\":290:291   */\n  0x00\n    /* \"#utility.yul\":287:288   */\n  0x00\n    /* \"#utility.yul\":280:292   */\n  revert\n    /* \"#utility.yul\":253:294   */\ntag_24:\n    /* \"#utility.yul\":146:300   */\n  swap2\n  swap1\n  pop\n  jump\t// out\n    /* \"#utility.yul\":305:482   */\ntag_16:\n    /* \"#utility.yul\":384:397   */\n  dup1\n  mload\n  sub(shl(0xa0, 0x01), 0x01)\n    /* \"#utility.yul\":426:457   */\n  dup2\n  and\n    /* \"#utility.yul\":416:458   */\n  dup2\n  eq\n    /* \"#utility.yul\":406:476   */\n  tag_24\n  jumpi\n    /* \"#utility.yul\":472:473   */\n  0x00\n    /* \"#utility.yul\":469:470   */\n  0x00\n    /* \"#utility.yul\":462:474   */\n  revert\n    /* \"#utility.yul\":487:1928   */\ntag_3:\n    /* \"#utility.yul\":624:630   */\n  0x00\n    /* \"#utility.yul\":632:638   */\n  0x00\n    /* \"#utility.yul\":640:646   */\n  0x00\n    /* \"#utility.yul\":648:654   */\n  0x00\n    /* \"#utility.yul\":656:662   */\n  0x00\n    /* \"#utility.yul\":664:670   */\n  0x00\n    /* \"#utility.yul\":717:720   */\n  0xc0\n    /* \"#utility.yul\":705:714   */\n  dup8\n    /* \"#utility.yul\":696:703   */\n  dup10\n    /* \"#utility.yul\":692:715   */\n  sub\n    /* \"#utility.yul\":688:721   */\n  slt\n    /* \"#utility.yul\":685:738   */\n  iszero\n  tag_28\n  jumpi\n    /* \"#utility.yul\":734:735   */\n  0x00\n    /* \"#utility.yul\":731:732   */\n  0x00\n    /* \"#utility.yul\":724:736   */\n  revert\n    /* \"#utility.yul\":685:738   */\ntag_28:\n    /* \"#utility.yul\":761:777   */\n  dup7\n  mload\n  sub(shl(0x40, 0x01), 0x01)\n    /* \"#utility.yul\":789:819   */\n  dup2\n  gt\n    /* \"#utility.yul\":786:836   */\n  iszero\n  tag_29\n  jumpi\n    /* \"#utility.yul\":832:833   */\n  0x00\n    /* \"#utility.yul\":829:830   */\n  0x00\n    /* \"#utility.yul\":822:834   */\n  revert\n    /* \"#utility.yul\":786:836   */\ntag_29:\n    /* \"#utility.yul\":855:877   */\n  dup8\n  add\n    /* \"#utility.yul\":908:912   */\n  0x1f\n    /* \"#utility.yul\":900:913   */\n  dup2\n  add\n    /* \"#utility.yul\":896:923   */\n  dup10\n  sgt\n    /* \"#utility.yul\":886:941   */\n  tag_30\n  jumpi\n    /* \"#utility.yul\":937:938   */\n  0x00\n    /* \"#utility.yul\":934:935   */\n  0x00\n    /* \"#utility.yul\":927:939   */\n  revert\n    /* \"#utility.yul\":886:941   */\ntag_30:\n    /* \"#utility.yul\":964:973   */\n  dup1\n  mload\n  sub(shl(0x40, 0x01), 0x01)\n    /* \"#utility.yul\":985:1015   */\n  dup2\n  gt\n    /* \"#utility.yul\":982:1038   */\n  iszero\n  tag_32\n  jumpi\n    /* \"#utility.yul\":1018:1036   */\n  tag_32\n  tag_14\n  jump\t// in\ntag_32:\n    /* \"#utility.yul\":1067:1069   */\n  0x40\n    /* \"#utility.yul\":1061:1070   */\n  mload\n    /* \"#utility.yul\":1159:1161   */\n  0x1f\n    /* \"#utility.yul\":1121:1138   */\n  dup3\n  add\n  not(0x1f)\n    /* \"#utility.yul\":1117:1148   */\n  swap1\n  dup2\n  and\n    /* \"#utility.yul\":1150:1152   */\n  0x3f\n    /* \"#utility.yul\":1113:1153   */\n  add\n    /* \"#utility.yul\":1109:1163   */\n  and\n    /* \"#utility.yul\":1097:1164   */\n  dup2\n  add\n  sub(shl(0x40, 0x01), 0x01)\n    /* \"#utility.yul\":1179:1213   */\n  dup2\n  gt\n    /* \"#utility.yul\":1215:1237   */\n  dup3\n  dup3\n  lt\n    /* \"#utility.yul\":1176:1238   */\n  or\n    /* \"#utility.yul\":1173:1261   */\n  iszero\n  tag_34\n  jumpi\n    /* \"#utility.yul\":1241:1259   */\n  tag_34\n  tag_14\n  jump\t// in\ntag_34:\n    /* \"#utility.yul\":1277:1279   */\n  0x40\n    /* \"#utility.yul\":1270:1292   */\n  mstore\n    /* \"#utility.yul\":1301:1323   */\n  dup2\n  dup2\n  mstore\n    /* \"#utility.yul\":1342:1357   */\n  dup3\n  dup3\n  add\n    /* \"#utility.yul\":1359:1363   */\n  0x20\n    /* \"#utility.yul\":1338:1364   */\n  add\n    /* \"#utility.yul\":1335:1374   */\n  dup12\n  lt\n    /* \"#utility.yul\":1332:1391   */\n  iszero\n  tag_35\n  jumpi\n    /* \"#utility.yul\":1387:1388   */\n  0x00\n    /* \"#utility.yul\":1384:1385   */\n  0x00\n    /* \"#utility.yul\":1377:1389   */\n  revert\n    /* \"#utility.yul\":1332:1391   */\ntag_35:\n    /* \"#utility.yul\":1440:1446   */\n  dup2\n    /* \"#utility.yul\":1433:1437   */\n  0x20\n    /* \"#utility.yul\":1429:1431   */\n  dup5\n    /* \"#utility.yul\":1425:1438   */\n  add\n    /* \"#utility.yul\":1418:1422   */\n  0x20\n    /* \"#utility.yul\":1410:1416   */\n  dup4\n    /* \"#utility.yul\":1406:1423   */\n  add\n    /* \"#utility.yul\":1400:1447   */\n  mcopy\n    /* \"#utility.yul\":1495:1496   */\n  0x00\n    /* \"#utility.yul\":1488:1492   */\n  0x20\n    /* \"#utility.yul\":1479:1485   */\n  dup4\n    /* \"#utility.yul\":1471:1477   */\n  dup4\n    /* \"#utility.yul\":1467:1486   */\n  add\n    /* \"#utility.yul\":1463:1493   */\n  add\n    /* \"#utility.yul\":1456:1497   */\n  mstore\n    /* \"#utility.yul\":1516:1522   */\n  dup1\n    /* \"#utility.yul\":1506:1522   */\n  swap9\n  pop\n  pop\n  pop\n  pop\n    /* \"#utility.yul\":1541:1598   */\n  tag_36\n    /* \"#utility.yul\":1592:1596   */\n  0x20\n    /* \"#utility.yul\":1581:1590   */\n  dup9\n    /* \"#utility.yul\":1577:1597   */\n  add\n    /* \"#utility.yul\":1541:1598   */\n  tag_15\n  jump\t// in\ntag_36:\n    /* \"#utility.yul\":1660:1662   */\n  0x40\n    /* \"#utility.yul\":1645:1663   */\n  dup9\n  add\n    /* \"#utility.yul\":1639:1664   */\n  mload\n    /* \"#utility.yul\":1531:1598   */\n  swap1\n  swap6\n  pop\n    /* \"#utility.yul\":1639:1664   */\n  swap4\n  pop\n    /* \"#utility.yul\":1707:1756   */\n  tag_37\n    /* \"#utility.yul\":1752:1754   */\n  0x60\n    /* \"#utility.yul\":1737:1755   */\n  dup9\n  add\n    /* \"#utility.yul\":1707:1756   */\n  tag_16\n  jump\t// in\ntag_37:\n    /* \"#utility.yul\":1697:1756   */\n  swap3\n  pop\n    /* \"#utility.yul\":1775:1825   */\n  tag_38\n    /* \"#utility.yul\":1820:1823   */\n  0x80\n    /* \"#utility.yul\":1809:1818   */\n  dup9\n    /* \"#utility.yul\":1805:1824   */\n  add\n    /* \"#utility.yul\":1775:1825   */\n  tag_16\n  jump\t// in\ntag_38:\n    /* \"#utility.yul\":1765:1825   */\n  swap2\n  pop\n    /* \"#utility.yul\":1849:1850   */\n  0x00\n    /* \"#utility.yul\":1891:1894   */\n  0xa0\n    /* \"#utility.yul\":1880:1889   */\n  dup9\n    /* \"#utility.yul\":1876:1895   */\n  add\n    /* \"#utility.yul\":1870:1896   */\n  mload\n    /* \"#utility.yul\":1859:1896   */\n  swap1\n  pop\n    /* \"#utility.yul\":1915:1922   */\n  dup1\n    /* \"#utility.yul\":1905:1922   */\n  swap2\n  pop\n  pop\n    /* \"#utility.yul\":487:1928   */\n  swap3\n  swap6\n  pop\n  swap3\n  swap6\n  pop\n  swap3\n  swap6\n  jump\t// out\n    /* \"#utility.yul\":1933:2313   */\ntag_17:\n    /* \"#utility.yul\":2012:2013   */\n  0x01\n    /* \"#utility.yul\":2008:2020   */\n  dup2\n  dup2\n  shr\n  swap1\n    /* \"#utility.yul\":2055:2067   */\n  dup3\n  and\n  dup1\n    /* \"#utility.yul\":2076:2137   */\n  tag_40\n  jumpi\n    /* \"#utility.yul\":2130:2134   */\n  0x7f\n    /* \"#utility.yul\":2122:2128   */\n  dup3\n    /* \"#utility.yul\":2118:2135   */\n  and\n    /* \"#utility.yul\":2108:2135   */\n  swap2\n  pop\n    /* \"#utility.yul\":2076:2137   */\ntag_40:\n    /* \"#utility.yul\":2183:2185   */\n  0x20\n    /* \"#utility.yul\":2175:2181   */\n  dup3\n    /* \"#utility.yul\":2172:2186   */\n  lt\n    /* \"#utility.yul\":2152:2170   */\n  dup2\n    /* \"#utility.yul\":2149:2187   */\n  sub\n    /* \"#utility.yul\":2146:2307   */\n  tag_41\n  jumpi\n    /* \"#utility.yul\":2229:2239   */\n  0x4e487b71\n    /* \"#utility.yul\":2224:2227   */\n  0xe0\n    /* \"#utility.yul\":2220:2240   */\n  shl\n    /* \"#utility.yul\":2217:2218   */\n  0x00\n    /* \"#utility.yul\":2210:2241   */\n  mstore\n    /* \"#utility.yul\":2264:2268   */\n  0x22\n    /* \"#utility.yul\":2261:2262   */\n  0x04\n    /* \"#utility.yul\":2254:2269   */\n  mstore\n    /* \"#utility.yul\":2292:2296   */\n  0x24\n    /* \"#utility.yul\":2289:2290   */\n  0x00\n    /* \"#utility.yul\":2282:2297   */\n  revert\n    /* \"#utility.yul\":2146:2307   */\ntag_41:\n  pop\n    /* \"#utility.yul\":1933:2313   */\n  swap2\n  swap1\n  pop\n  jump\t// out\n    /* \"#utility.yul\":2444:2962   */\ntag_19:\n    /* \"#utility.yul\":2546:2548   */\n  0x1f\n    /* \"#utility.yul\":2541:2544   */\n  dup3\n    /* \"#utility.yul\":2538:2549   */\n  gt\n    /* \"#utility.yul\":2535:2956   */\n  iszero\n  tag_44\n  jumpi\n    /* \"#utility.yul\":2582:2587   */\n  dup1\n    /* \"#utility.yul\":2579:2580   */\n  0x00\n    /* \"#utility.yul\":2572:2588   */\n  mstore\n    /* \"#utility.yul\":2626:2630   */\n  0x20\n    /* \"#utility.yul\":2623:2624   */\n  0x00\n    /* \"#utility.yul\":2613:2631   */\n  keccak256\n    /* \"#utility.yul\":2696:2698   */\n  0x1f\n    /* \"#utility.yul\":2684:2694   */\n  dup5\n    /* \"#utility.yul\":2680:2699   */\n  add\n    /* \"#utility.yul\":2677:2678   */\n  0x05\n    /* \"#utility.yul\":2673:2700   */\n  shr\n    /* \"#utility.yul\":2667:2671   */\n  dup2\n    /* \"#utility.yul\":2663:2701   */\n  add\n    /* \"#utility.yul\":2732:2736   */\n  0x20\n    /* \"#utility.yul\":2720:2730   */\n  dup6\n    /* \"#utility.yul\":2717:2737   */\n  lt\n    /* \"#utility.yul\":2714:2761   */\n  iszero\n  tag_45\n  jumpi\n  pop\n    /* \"#utility.yul\":2755:2759   */\n  dup1\n    /* \"#utility.yul\":2714:2761   */\ntag_45:\n    /* \"#utility.yul\":2810:2812   */\n  0x1f\n    /* \"#utility.yul\":2805:2808   */\n  dup5\n    /* \"#utility.yul\":2801:2813   */\n  add\n    /* \"#utility.yul\":2798:2799   */\n  0x05\n    /* \"#utility.yul\":2794:2814   */\n  shr\n    /* \"#utility.yul\":2788:2792   */\n  dup3\n    /* \"#utility.yul\":2784:2815   */\n  add\n    /* \"#utility.yul\":2774:2815   */\n  swap2\n  pop\n    /* \"#utility.yul\":2865:2946   */\ntag_46:\n    /* \"#utility.yul\":2883:2885   */\n  dup2\n    /* \"#utility.yul\":2876:2881   */\n  dup2\n    /* \"#utility.yul\":2873:2886   */\n  lt\n    /* \"#utility.yul\":2865:2946   */\n  iszero\n  tag_48\n  jumpi\n    /* \"#utility.yul\":2942:2943   */\n  0x00\n    /* \"#utility.yul\":2928:2944   */\n  dup2\n  sstore\n    /* \"#utility.yul\":2909:2910   */\n  0x01\n    /* \"#utility.yul\":2898:2911   */\n  add\n    /* \"#utility.yul\":2865:2946   */\n  jump(tag_46)\ntag_48:\n    /* \"#utility.yul\":2869:2872   */\n  pop\n  pop\n    /* \"#utility.yul\":2535:2956   */\ntag_44:\n    /* \"#utility.yul\":2444:2962   */\n  pop\n  pop\n  pop\n  jump\t// out\n    /* \"#utility.yul\":3138:4437   */\ntag_7:\n    /* \"#utility.yul\":3258:3268   */\n  dup2\n  mload\n  sub(shl(0x40, 0x01), 0x01)\n    /* \"#utility.yul\":3280:3310   */\n  dup2\n  gt\n    /* \"#utility.yul\":3277:3333   */\n  iszero\n  tag_52\n  jumpi\n    /* \"#utility.yul\":3313:3331   */\n  tag_52\n  tag_14\n  jump\t// in\ntag_52:\n    /* \"#utility.yul\":3342:3439   */\n  tag_53\n    /* \"#utility.yul\":3432:3438   */\n  dup2\n    /* \"#utility.yul\":3392:3430   */\n  tag_54\n    /* \"#utility.yul\":3424:3428   */\n  dup5\n    /* \"#utility.yul\":3418:3429   */\n  sload\n    /* \"#utility.yul\":3392:3430   */\n  tag_17\n  jump\t// in\ntag_54:\n    /* \"#utility.yul\":3386:3390   */\n  dup5\n    /* \"#utility.yul\":3342:3439   */\n  tag_19\n  jump\t// in\ntag_53:\n    /* \"#utility.yul\":3488:3492   */\n  0x20\n    /* \"#utility.yul\":3519:3521   */\n  0x1f\n    /* \"#utility.yul\":3508:3522   */\n  dup3\n  gt\n    /* \"#utility.yul\":3536:3537   */\n  0x01\n    /* \"#utility.yul\":3531:4180   */\n  dup2\n  eq\n  tag_56\n  jumpi\n    /* \"#utility.yul\":4224:4225   */\n  0x00\n    /* \"#utility.yul\":4241:4247   */\n  dup4\n    /* \"#utility.yul\":4238:4327   */\n  iszero\n  tag_57\n  jumpi\n  pop\n    /* \"#utility.yul\":4293:4312   */\n  dup5\n  dup3\n  add\n    /* \"#utility.yul\":4287:4313   */\n  mload\n    /* \"#utility.yul\":4238:4327   */\ntag_57:\n  not(0x00)\n    /* \"#utility.yul\":3095:3096   */\n  0x03\n    /* \"#utility.yul\":3091:3102   */\n  dup6\n  swap1\n  shl\n    /* \"#utility.yul\":3087:3111   */\n  shr\n    /* \"#utility.yul\":3083:3112   */\n  not\n    /* \"#utility.yul\":3073:3113   */\n  and\n    /* \"#utility.yul\":3119:3120   */\n  0x01\n    /* \"#utility.yul\":3115:3126   */\n  dup5\n  swap1\n  shl\n    /* \"#utility.yul\":3070:3127   */\n  or\n    /* \"#utility.yul\":4340:4421   */\n  dup5\n  sstore\n    /* \"#utility.yul\":3501:4431   */\n  jump(tag_48)\n    /* \"#utility.yul\":3531:4180   */\ntag_56:\n    /* \"#utility.yul\":2391:2392   */\n  0x00\n    /* \"#utility.yul\":2384:2398   */\n  dup5\n  dup2\n  mstore\n    /* \"#utility.yul\":2428:2432   */\n  0x20\n    /* \"#utility.yul\":2415:2433   */\n  dup2\n  keccak256\n  not(0x1f)\n    /* \"#utility.yul\":3567:3587   */\n  dup6\n  and\n  swap2\n    /* \"#utility.yul\":3685:3907   */\ntag_60:\n    /* \"#utility.yul\":3699:3706   */\n  dup3\n    /* \"#utility.yul\":3696:3697   */\n  dup2\n    /* \"#utility.yul\":3693:3707   */\n  lt\n    /* \"#utility.yul\":3685:3907   */\n  iszero\n  tag_62\n  jumpi\n    /* \"#utility.yul\":3781:3800   */\n  dup8\n  dup6\n  add\n    /* \"#utility.yul\":3775:3801   */\n  mload\n    /* \"#utility.yul\":3760:3802   */\n  dup3\n  sstore\n    /* \"#utility.yul\":3888:3892   */\n  0x20\n    /* \"#utility.yul\":3873:3893   */\n  swap5\n  dup6\n  add\n  swap5\n    /* \"#utility.yul\":3841:3842   */\n  0x01\n    /* \"#utility.yul\":3829:3843   */\n  swap1\n  swap3\n  add\n  swap2\n    /* \"#utility.yul\":3715:3727   */\n  add\n    /* \"#utility.yul\":3685:3907   */\n  jump(tag_60)\ntag_62:\n    /* \"#utility.yul\":3689:3692   */\n  pop\n    /* \"#utility.yul\":3935:3941   */\n  dup5\n    /* \"#utility.yul\":3926:3933   */\n  dup3\n    /* \"#utility.yul\":3923:3942   */\n  lt\n    /* \"#utility.yul\":3920:4121   */\n  iszero\n  tag_63\n  jumpi\n    /* \"#utility.yul\":3996:4015   */\n  dup7\n  dup5\n  add\n    /* \"#utility.yul\":3990:4016   */\n  mload\n  not(0x00)\n    /* \"#utility.yul\":4079:4080   */\n  0x03\n    /* \"#utility.yul\":4075:4089   */\n  dup8\n  swap1\n  shl\n    /* \"#utility.yul\":4091:4094   */\n  0xf8\n    /* \"#utility.yul\":4071:4095   */\n  and\n    /* \"#utility.yul\":4067:4104   */\n  shr\n    /* \"#utility.yul\":4063:4105   */\n  not\n    /* \"#utility.yul\":4048:4106   */\n  and\n    /* \"#utility.yul\":4033:4107   */\n  dup2\n  sstore\n    /* \"#utility.yul\":3920:4121   */\ntag_63:\n  pop\n  pop\n  pop\n  pop\n    /* \"#utility.yul\":4167:4168   */\n  0x01\n    /* \"#utility.yul\":4151:4165   */\n  swap1\n  dup2\n  shl\n    /* \"#utility.yul\":4147:4169   */\n  add\n    /* \"#utility.yul\":4134:4170   */\n  swap1\n  sstore\n  pop\n    /* \"#utility.yul\":3138:4437   */\n  jump\t// out\n    /* \"#utility.yul\":4442:4569   */\ntag_10:\n    /* \"#utility.yul\":4503:4513   */\n  0x4e487b71\n    /* \"#utility.yul\":4498:4501   */\n  0xe0\n    /* \"#utility.yul\":4494:4514   */\n  shl\n    /* \"#utility.yul\":4491:4492   */\n  0x00\n    /* \"#utility.yul\":4484:4515   */\n  mstore\n    /* \"#utility.yul\":4534:4538   */\n  0x21\n    /* \"#utility.yul\":4531:4532   */\n  0x04\n    /* \"#utility.yul\":4524:4539   */\n  mstore\n    /* \"#utility.yul\":4558:4562   */\n  0x24\n    /* \"#utility.yul\":4555:4556   */\n  0x00\n    /* \"#utility.yul\":4548:4563   */\n  revert\n    /* \"#utility.yul\":4442:4569   */\ntag_21:\n    /* \"contracts/KlineIntervalData.sol\":154:5757  contract KlineIntervalData {... */\n  mload(0x80)\n  mload(0xa0)\n  mload(0xc0)\n  mload(0xe0)\n  codecopy(0x00, dataOffset(sub_0), dataSize(sub_0))\n  0x00\n  assignImmutable(\"0x8e8fab5f003314da8d1873ea7720e8d9f47650136d916064d1edb8a11d682624\")\n  0x00\n  assignImmutable(\"0x1d3be50b2bb17407dd170f1d5da128d1def30c6b1598d6a629e79b4775265526\")\n  0x00\n  assignImmutable(\"0x7880aec93413f117ef14bd4e6d130875ab2c7d7d55a064fac3c2f7bd51516380\")\n  0x00\n  assignImmutable(\"0xe4b1702d9298fee62dfeccc57d322a463ad55ca201256d01f62b45b2e1c21c10\")\n  return(0x00, dataSize(sub_0))\nstop\n\nsub_0: assembly {\n        /* \"contracts/KlineIntervalData.sol\":154:5757  contract KlineIntervalData {... */\n      mstore(0x40, 0x80)\n      callvalue\n      dup1\n      iszero\n      tag_1\n      jumpi\n      revert(0x00, 0x00)\n    tag_1:\n      pop\n      jumpi(tag_2, lt(calldatasize, 0x04))\n      shr(0xe0, calldataload(0x00))\n      dup1\n      0x7adbf973\n      gt\n      tag_17\n      jumpi\n      dup1\n      0xa89ae4ba\n      gt\n      tag_18\n      jumpi\n      dup1\n      0xa89ae4ba\n      eq\n      tag_13\n      jumpi\n      dup1\n      0xafb13053\n      eq\n      tag_14\n      jumpi\n      dup1\n      0xb121608c\n      eq\n      tag_15\n      jumpi\n      dup1\n      0xb1af9f4c\n      eq\n      tag_16\n      jumpi\n      revert(0x00, 0x00)\n    tag_18:\n      dup1\n      0x7adbf973\n      eq\n      tag_10\n      jumpi\n      dup1\n      0x95d89b41\n      eq\n      tag_11\n      jumpi\n      dup1\n      0x966dae0e\n      eq\n      tag_12\n      jumpi\n      revert(0x00, 0x00)\n    tag_17:\n      dup1\n      0x5a9b0b89\n      gt\n      tag_19\n      jumpi\n      dup1\n      0x5a9b0b89\n      eq\n      tag_6\n      jumpi\n      dup1\n      0x6297f23c\n      eq\n      tag_7\n      jumpi\n      dup1\n      0x6cfcdca7\n      eq\n      tag_8\n      jumpi\n      dup1\n      0x718715d9\n      eq\n      tag_9\n      jumpi\n      revert(0x00, 0x00)\n    tag_19:\n      dup1\n      0x1a3ca7aa\n      eq\n      tag_3\n      jumpi\n      dup1\n      0x3a499a53\n      eq\n      tag_4\n      jumpi\n      dup1\n      0x54fd4d50\n      eq\n      tag_5\n      jumpi\n    tag_2:\n      revert(0x00, 0x00)\n        /* \"contracts/KlineIntervalData.sol\":3824:4932  function getKlines(uint256 _count) external view returns (KlineDataLib.CompactCandle[] memory) {... */\n    tag_3:\n      tag_20\n      tag_21\n      calldatasize\n      0x04\n      tag_22\n      jump\t// in\n    tag_21:\n      tag_23\n      jump\t// in\n    tag_20:\n      mload(0x40)\n      tag_24\n      swap2\n      swap1\n      tag_25\n      jump\t// in\n    tag_24:\n      mload(0x40)\n      dup1\n      swap2\n      sub\n      swap1\n      return\n        /* \"contracts/KlineIntervalData.sol\":1881:3816  function addOrUpdateKline(... */\n    tag_4:\n      tag_26\n      tag_27\n      calldatasize\n      0x04\n      tag_28\n      jump\t// in\n    tag_27:\n      tag_29\n      jump\t// in\n    tag_26:\n      stop\n        /* \"contracts/KlineIntervalData.sol\":538:570  uint256 public immutable version */\n    tag_5:\n      tag_30\n      immutable(\"0x8e8fab5f003314da8d1873ea7720e8d9f47650136d916064d1edb8a11d682624\")\n      dup2\n      jump\n    tag_30:\n      mload(0x40)\n        /* \"#utility.yul\":2946:2971   */\n      swap1\n      dup2\n      mstore\n        /* \"#utility.yul\":2934:2936   */\n      0x20\n        /* \"#utility.yul\":2919:2937   */\n      add\n        /* \"contracts/KlineIntervalData.sol\":538:570  uint256 public immutable version */\n      tag_24\n        /* \"#utility.yul\":2800:2977   */\n      jump\n        /* \"contracts/KlineIntervalData.sol\":5484:5754  function getInfo() external view returns (string memory workerSymbol, KlineDataLib.Interval workerInterval, uint256 workerVersion, uint256 workerKlineCount, uint256 workerMaxKlines) {... */\n    tag_6:\n      tag_34\n      tag_35\n      jump\t// in\n    tag_34:\n      mload(0x40)\n      tag_24\n      swap6\n      swap5\n      swap4\n      swap3\n      swap2\n      swap1\n      tag_37\n      jump\t// in\n        /* \"contracts/KlineIntervalData.sol\":696:721  uint256 public klineCount */\n    tag_7:\n      tag_30\n      sload(0x03)\n      dup2\n      jump\n        /* \"contracts/KlineIntervalData.sol\":611:653  KlineDataLib.CompactCandle[] public klines */\n    tag_8:\n      tag_41\n      tag_42\n      calldatasize\n      0x04\n      tag_22\n      jump\t// in\n    tag_42:\n      tag_43\n      jump\t// in\n    tag_41:\n      0x40\n      dup1\n      mload\n      sub(shl(0x40, 0x01), 0x01)\n        /* \"#utility.yul\":4541:4572   */\n      swap10\n      dup11\n      and\n        /* \"#utility.yul\":4523:4573   */\n      dup2\n      mstore\n        /* \"#utility.yul\":4609:4640   */\n      swap9\n      swap1\n      swap8\n      and\n        /* \"#utility.yul\":4604:4606   */\n      0x20\n        /* \"#utility.yul\":4589:4607   */\n      dup10\n      add\n        /* \"#utility.yul\":4582:4641   */\n      mstore\n        /* \"#utility.yul\":4657:4675   */\n      swap6\n      dup8\n      add\n        /* \"#utility.yul\":4650:4684   */\n      swap5\n      swap1\n      swap5\n      mstore\n        /* \"#utility.yul\":4715:4717   */\n      0x60\n        /* \"#utility.yul\":4700:4718   */\n      dup7\n      add\n        /* \"#utility.yul\":4693:4727   */\n      swap3\n      swap1\n      swap3\n      mstore\n        /* \"#utility.yul\":4758:4761   */\n      0x80\n        /* \"#utility.yul\":4743:4762   */\n      dup6\n      add\n        /* \"#utility.yul\":4736:4771   */\n      mstore\n        /* \"#utility.yul\":4802:4805   */\n      0xa0\n        /* \"#utility.yul\":4787:4806   */\n      dup5\n      add\n        /* \"#utility.yul\":4780:4815   */\n      mstore\n        /* \"#utility.yul\":4846:4849   */\n      0xc0\n        /* \"#utility.yul\":4831:4850   */\n      dup4\n      add\n        /* \"#utility.yul\":4824:4859   */\n      mstore\n        /* \"#utility.yul\":4903:4917   */\n      iszero\n        /* \"#utility.yul\":4896:4918   */\n      iszero\n        /* \"#utility.yul\":4890:4893   */\n      0xe0\n        /* \"#utility.yul\":4875:4894   */\n      dup3\n      add\n        /* \"#utility.yul\":4868:4919   */\n      mstore\n        /* \"#utility.yul\":4510:4513   */\n      0x0100\n        /* \"#utility.yul\":4495:4514   */\n      add\n        /* \"contracts/KlineIntervalData.sol\":611:653  KlineDataLib.CompactCandle[] public klines */\n      tag_24\n        /* \"#utility.yul\":4190:4925   */\n      jump\n        /* \"contracts/KlineIntervalData.sol\":4940:5089  function getAllKlinesInThisVersion() external view returns (KlineDataLib.CompactCandle[] memory) {... */\n    tag_9:\n      tag_20\n      tag_47\n      jump\t// in\n        /* \"contracts/KlineIntervalData.sol\":5097:5425  function setOracle(address _newOracleAddress) external {... */\n    tag_10:\n      tag_26\n      tag_50\n      calldatasize\n      0x04\n      tag_51\n      jump\t// in\n    tag_50:\n      tag_52\n      jump\t// in\n        /* \"contracts/KlineIntervalData.sol\":412:432  string public symbol */\n    tag_11:\n      tag_53\n      tag_54\n      jump\t// in\n    tag_53:\n      mload(0x40)\n      tag_24\n      swap2\n      swap1\n      tag_56\n      jump\t// in\n        /* \"contracts/KlineIntervalData.sol\":492:531  address public immutable factoryAddress */\n    tag_12:\n      tag_57\n      immutable(\"0x1d3be50b2bb17407dd170f1d5da128d1def30c6b1598d6a629e79b4775265526\")\n      dup2\n      jump\n    tag_57:\n      mload(0x40)\n      sub(shl(0xa0, 0x01), 0x01)\n        /* \"#utility.yul\":5610:5642   */\n      swap1\n      swap2\n      and\n        /* \"#utility.yul\":5592:5643   */\n      dup2\n      mstore\n        /* \"#utility.yul\":5580:5582   */\n      0x20\n        /* \"#utility.yul\":5565:5583   */\n      add\n        /* \"contracts/KlineIntervalData.sol\":492:531  address public immutable factoryAddress */\n      tag_24\n        /* \"#utility.yul\":5446:5649   */\n      jump\n        /* \"contracts/KlineIntervalData.sol\":730:758  address public oracleAddress */\n    tag_13:\n      sload(0x04)\n      tag_57\n      swap1\n      sub(shl(0xa0, 0x01), 0x01)\n      and\n      dup2\n      jump\n        /* \"contracts/KlineIntervalData.sol\":354:405  KlineDataLib.Interval public immutable intervalType */\n    tag_14:\n      tag_64\n      immutable(\"0x7880aec93413f117ef14bd4e6d130875ab2c7d7d55a064fac3c2f7bd51516380\")\n      dup2\n      jump\n    tag_64:\n      mload(0x40)\n      tag_24\n      swap2\n      swap1\n      tag_67\n      jump\t// in\n        /* \"contracts/KlineIntervalData.sol\":660:689  uint256 public nextKlineIndex */\n    tag_15:\n      tag_30\n      sload(0x02)\n      dup2\n      jump\n        /* \"contracts/KlineIntervalData.sol\":305:347  uint256 public immutable MAX_KLINE_HISTORY */\n    tag_16:\n      tag_30\n      immutable(\"0xe4b1702d9298fee62dfeccc57d322a463ad55ca201256d01f62b45b2e1c21c10\")\n      dup2\n      jump\n        /* \"contracts/KlineIntervalData.sol\":3824:4932  function getKlines(uint256 _count) external view returns (KlineDataLib.CompactCandle[] memory) {... */\n    tag_23:\n        /* \"contracts/KlineIntervalData.sol\":3882:3917  KlineDataLib.CompactCandle[] memory */\n      0x60\n        /* \"contracts/KlineIntervalData.sol\":3934:3944  klineCount */\n      sload(0x03)\n        /* \"contracts/KlineIntervalData.sol\":3948:3949  0 */\n      0x00\n        /* \"contracts/KlineIntervalData.sol\":3934:3949  klineCount == 0 */\n      sub\n        /* \"contracts/KlineIntervalData.sol\":3930:4020  if (klineCount == 0) {... */\n      tag_75\n      jumpi\n        /* \"contracts/KlineIntervalData.sol\":3973:4008  new KlineDataLib.CompactCandle[](0) */\n      0x40\n      dup1\n      mload\n        /* \"contracts/KlineIntervalData.sol\":4006:4007  0 */\n      0x00\n        /* \"contracts/KlineIntervalData.sol\":3973:4008  new KlineDataLib.CompactCandle[](0) */\n      dup1\n      dup3\n      mstore\n      0x20\n      dup3\n      add\n      swap1\n      swap3\n      mstore\n      swap1\n      jump(tag_79)\n    tag_80:\n      tag_81\n      tag_82\n      jump\t// in\n    tag_81:\n      dup2\n      mstore\n      0x20\n      add\n      swap1\n      0x01\n      swap1\n      sub\n      swap1\n      dup2\n      tag_80\n      jumpi\n      swap1\n      pop\n    tag_79:\n      pop\n        /* \"contracts/KlineIntervalData.sol\":3966:4008  return new KlineDataLib.CompactCandle[](0) */\n      swap3\n        /* \"contracts/KlineIntervalData.sol\":3824:4932  function getKlines(uint256 _count) external view returns (KlineDataLib.CompactCandle[] memory) {... */\n      swap2\n      pop\n      pop\n      jump\t// out\n        /* \"contracts/KlineIntervalData.sol\":3930:4020  if (klineCount == 0) {... */\n    tag_75:\n        /* \"contracts/KlineIntervalData.sol\":4030:4049  uint256 numToReturn */\n      0x00\n        /* \"contracts/KlineIntervalData.sol\":4061:4071  klineCount */\n      sload(0x03)\n        /* \"contracts/KlineIntervalData.sol\":4052:4058  _count */\n      dup4\n        /* \"contracts/KlineIntervalData.sol\":4052:4071  _count > klineCount */\n      gt\n        /* \"contracts/KlineIntervalData.sol\":4052:4093  _count > klineCount ? klineCount : _count */\n      tag_83\n      jumpi\n        /* \"contracts/KlineIntervalData.sol\":4087:4093  _count */\n      dup3\n        /* \"contracts/KlineIntervalData.sol\":4052:4093  _count > klineCount ? klineCount : _count */\n      jump(tag_84)\n    tag_83:\n        /* \"contracts/KlineIntervalData.sol\":4074:4084  klineCount */\n      sload(0x03)\n        /* \"contracts/KlineIntervalData.sol\":4052:4093  _count > klineCount ? klineCount : _count */\n    tag_84:\n        /* \"contracts/KlineIntervalData.sol\":4030:4093  uint256 numToReturn = _count > klineCount ? klineCount : _count */\n      swap1\n      pop\n        /* \"contracts/KlineIntervalData.sol\":4104:4146  KlineDataLib.CompactCandle[] memory result */\n      0x00\n        /* \"contracts/KlineIntervalData.sol\":4182:4193  numToReturn */\n      dup2\n      sub(shl(0x40, 0x01), 0x01)\n        /* \"contracts/KlineIntervalData.sol\":4149:4194  new KlineDataLib.CompactCandle[](numToReturn) */\n      dup2\n      gt\n      iszero\n      tag_86\n      jumpi\n      tag_86\n      tag_78\n      jump\t// in\n    tag_86:\n      mload(0x40)\n      swap1\n      dup1\n      dup3\n      mstore\n      dup1\n      0x20\n      mul\n      0x20\n      add\n      dup3\n      add\n      0x40\n      mstore\n      dup1\n      iszero\n      tag_87\n      jumpi\n      dup2\n      0x20\n      add\n    tag_88:\n      tag_89\n      tag_82\n      jump\t// in\n    tag_89:\n      dup2\n      mstore\n      0x20\n      add\n      swap1\n      0x01\n      swap1\n      sub\n      swap1\n      dup2\n      tag_88\n      jumpi\n      swap1\n      pop\n    tag_87:\n      pop\n        /* \"contracts/KlineIntervalData.sol\":4104:4194  KlineDataLib.CompactCandle[] memory result = new KlineDataLib.CompactCandle[](numToReturn) */\n      swap1\n      pop\n        /* \"contracts/KlineIntervalData.sol\":4224:4241  MAX_KLINE_HISTORY */\n      immutable(\"0xe4b1702d9298fee62dfeccc57d322a463ad55ca201256d01f62b45b2e1c21c10\")\n        /* \"contracts/KlineIntervalData.sol\":4211:4221  klineCount */\n      sload(0x03)\n        /* \"contracts/KlineIntervalData.sol\":4211:4241  klineCount < MAX_KLINE_HISTORY */\n      lt\n        /* \"contracts/KlineIntervalData.sol\":4207:4901  if (klineCount < MAX_KLINE_HISTORY) { // Buffer chưa đầy... */\n      iszero\n      tag_90\n      jumpi\n        /* \"contracts/KlineIntervalData.sol\":4281:4303  uint256 readStartIndex */\n      0x00\n        /* \"contracts/KlineIntervalData.sol\":4320:4331  numToReturn */\n      dup3\n        /* \"contracts/KlineIntervalData.sol\":4307:4317  klineCount */\n      sload(0x03)\n        /* \"contracts/KlineIntervalData.sol\":4307:4331  klineCount > numToReturn */\n      gt\n        /* \"contracts/KlineIntervalData.sol\":4306:4365  (klineCount > numToReturn) ? (klineCount - numToReturn) : 0 */\n      tag_91\n      jumpi\n        /* \"contracts/KlineIntervalData.sol\":4364:4365  0 */\n      0x00\n        /* \"contracts/KlineIntervalData.sol\":4306:4365  (klineCount > numToReturn) ? (klineCount - numToReturn) : 0 */\n      jump(tag_93)\n    tag_91:\n        /* \"contracts/KlineIntervalData.sol\":4349:4360  numToReturn */\n      dup3\n        /* \"contracts/KlineIntervalData.sol\":4336:4346  klineCount */\n      sload(0x03)\n        /* \"contracts/KlineIntervalData.sol\":4336:4360  klineCount - numToReturn */\n      tag_93\n      swap2\n      swap1\n      tag_94\n      jump\t// in\n    tag_93:\n        /* \"contracts/KlineIntervalData.sol\":4281:4365  uint256 readStartIndex = (klineCount > numToReturn) ? (klineCount - numToReturn) : 0 */\n      swap1\n      pop\n        /* \"contracts/KlineIntervalData.sol\":4385:4391  uint i */\n      0x00\n        /* \"contracts/KlineIntervalData.sol\":4380:4492  for (uint i = 0; i < numToReturn; i++) {... */\n    tag_95:\n        /* \"contracts/KlineIntervalData.sol\":4401:4412  numToReturn */\n      dup4\n        /* \"contracts/KlineIntervalData.sol\":4397:4398  i */\n      dup2\n        /* \"contracts/KlineIntervalData.sol\":4397:4412  i < numToReturn */\n      lt\n        /* \"contracts/KlineIntervalData.sol\":4380:4492  for (uint i = 0; i < numToReturn; i++) {... */\n      iszero\n      tag_96\n      jumpi\n        /* \"contracts/KlineIntervalData.sol\":4450:4456  klines */\n      0x01\n        /* \"contracts/KlineIntervalData.sol\":4457:4475  readStartIndex + i */\n      tag_98\n        /* \"contracts/KlineIntervalData.sol\":4474:4475  i */\n      dup3\n        /* \"contracts/KlineIntervalData.sol\":4457:4471  readStartIndex */\n      dup5\n        /* \"contracts/KlineIntervalData.sol\":4457:4475  readStartIndex + i */\n      tag_99\n      jump\t// in\n    tag_98:\n        /* \"contracts/KlineIntervalData.sol\":4450:4476  klines[readStartIndex + i] */\n      dup2\n      sload\n      dup2\n      lt\n      tag_101\n      jumpi\n      tag_101\n      tag_102\n      jump\t// in\n    tag_101:\n      0x00\n      swap2\n      dup3\n      mstore\n      0x20\n      swap2\n      dup3\n      swap1\n      keccak256\n        /* \"contracts/KlineIntervalData.sol\":4438:4476  result[i] = klines[readStartIndex + i] */\n      0x40\n      dup1\n      mload\n      0x0100\n      dup2\n      add\n      dup3\n      mstore\n        /* \"contracts/KlineIntervalData.sol\":4450:4476  klines[readStartIndex + i] */\n      0x07\n      swap1\n      swap4\n      mul\n      swap1\n      swap2\n      add\n        /* \"contracts/KlineIntervalData.sol\":4438:4476  result[i] = klines[readStartIndex + i] */\n      dup1\n      sload\n      sub(shl(0x40, 0x01), 0x01)\n      dup1\n      dup3\n      and\n      dup6\n      mstore\n      shl(0x40, 0x01)\n      swap1\n      swap2\n      div\n      and\n      swap4\n      dup4\n      add\n      swap4\n      swap1\n      swap4\n      mstore\n      0x01\n      dup4\n      add\n      sload\n      swap1\n      dup3\n      add\n      mstore\n      0x02\n      dup3\n      add\n      sload\n      0x60\n      dup3\n      add\n      mstore\n      0x03\n      dup3\n      add\n      sload\n      0x80\n      dup3\n      add\n      mstore\n      0x04\n      dup3\n      add\n      sload\n      0xa0\n      dup3\n      add\n      mstore\n      0x05\n      dup3\n      add\n      sload\n      0xc0\n      dup3\n      add\n      mstore\n      0x06\n      swap1\n      swap2\n      add\n      sload\n      0xff\n      and\n      iszero\n      iszero\n      0xe0\n      dup3\n      add\n      mstore\n        /* \"contracts/KlineIntervalData.sol\":4438:4447  result[i] */\n      dup4\n      mload\n        /* \"contracts/KlineIntervalData.sol\":4438:4444  result */\n      dup5\n      swap1\n        /* \"contracts/KlineIntervalData.sol\":4445:4446  i */\n      dup4\n      swap1\n        /* \"contracts/KlineIntervalData.sol\":4438:4447  result[i] */\n      dup2\n      lt\n      tag_105\n      jumpi\n      tag_105\n      tag_102\n      jump\t// in\n    tag_105:\n      0x20\n      swap1\n      dup2\n      mul\n      swap2\n      swap1\n      swap2\n      add\n      add\n        /* \"contracts/KlineIntervalData.sol\":4438:4476  result[i] = klines[readStartIndex + i] */\n      mstore\n        /* \"contracts/KlineIntervalData.sol\":4414:4417  i++ */\n      0x01\n      add\n        /* \"contracts/KlineIntervalData.sol\":4380:4492  for (uint i = 0; i < numToReturn; i++) {... */\n      jump(tag_95)\n    tag_96:\n      pop\n        /* \"contracts/KlineIntervalData.sol\":4243:4503  { // Buffer chưa đầy... */\n      pop\n        /* \"contracts/KlineIntervalData.sol\":4207:4901  if (klineCount < MAX_KLINE_HISTORY) { // Buffer chưa đầy... */\n      jump(tag_106)\n    tag_90:\n        /* \"contracts/KlineIntervalData.sol\":4565:4579  nextKlineIndex */\n      sload(0x02)\n        /* \"contracts/KlineIntervalData.sol\":4612:4629  MAX_KLINE_HISTORY */\n      immutable(\"0xe4b1702d9298fee62dfeccc57d322a463ad55ca201256d01f62b45b2e1c21c10\")\n        /* \"contracts/KlineIntervalData.sol\":4598:4629  numToReturn < MAX_KLINE_HISTORY */\n      dup4\n      lt\n        /* \"contracts/KlineIntervalData.sol\":4594:4748  if (numToReturn < MAX_KLINE_HISTORY) {... */\n      iszero\n      tag_107\n      jumpi\n        /* \"contracts/KlineIntervalData.sol\":4715:4732  MAX_KLINE_HISTORY */\n      immutable(\"0xe4b1702d9298fee62dfeccc57d322a463ad55ca201256d01f62b45b2e1c21c10\")\n        /* \"contracts/KlineIntervalData.sol\":4700:4711  numToReturn */\n      dup4\n        /* \"contracts/KlineIntervalData.sol\":4680:4697  MAX_KLINE_HISTORY */\n      immutable(\"0xe4b1702d9298fee62dfeccc57d322a463ad55ca201256d01f62b45b2e1c21c10\")\n        /* \"contracts/KlineIntervalData.sol\":4663:4677  nextKlineIndex */\n      sload(0x02)\n        /* \"contracts/KlineIntervalData.sol\":4663:4697  nextKlineIndex + MAX_KLINE_HISTORY */\n      tag_108\n      swap2\n      swap1\n      tag_99\n      jump\t// in\n    tag_108:\n        /* \"contracts/KlineIntervalData.sol\":4663:4711  nextKlineIndex + MAX_KLINE_HISTORY - numToReturn */\n      tag_109\n      swap2\n      swap1\n      tag_94\n      jump\t// in\n    tag_109:\n        /* \"contracts/KlineIntervalData.sol\":4662:4732  (nextKlineIndex + MAX_KLINE_HISTORY - numToReturn) % MAX_KLINE_HISTORY */\n      tag_110\n      swap2\n      swap1\n      tag_111\n      jump\t// in\n    tag_110:\n        /* \"contracts/KlineIntervalData.sol\":4651:4732  startIdx = (nextKlineIndex + MAX_KLINE_HISTORY - numToReturn) % MAX_KLINE_HISTORY */\n      swap1\n      pop\n        /* \"contracts/KlineIntervalData.sol\":4594:4748  if (numToReturn < MAX_KLINE_HISTORY) {... */\n    tag_107:\n        /* \"contracts/KlineIntervalData.sol\":4767:4773  uint i */\n      0x00\n        /* \"contracts/KlineIntervalData.sol\":4762:4890  for (uint i = 0; i < numToReturn; i++) {... */\n    tag_112:\n        /* \"contracts/KlineIntervalData.sol\":4783:4794  numToReturn */\n      dup4\n        /* \"contracts/KlineIntervalData.sol\":4779:4780  i */\n      dup2\n        /* \"contracts/KlineIntervalData.sol\":4779:4794  i < numToReturn */\n      lt\n        /* \"contracts/KlineIntervalData.sol\":4762:4890  for (uint i = 0; i < numToReturn; i++) {... */\n      iszero\n      tag_113\n      jumpi\n        /* \"contracts/KlineIntervalData.sol\":4832:4838  klines */\n      0x01\n        /* \"contracts/KlineIntervalData.sol\":4856:4873  MAX_KLINE_HISTORY */\n      immutable(\"0xe4b1702d9298fee62dfeccc57d322a463ad55ca201256d01f62b45b2e1c21c10\")\n        /* \"contracts/KlineIntervalData.sol\":4840:4852  startIdx + i */\n      tag_115\n        /* \"contracts/KlineIntervalData.sol\":4851:4852  i */\n      dup4\n        /* \"contracts/KlineIntervalData.sol\":4840:4848  startIdx */\n      dup6\n        /* \"contracts/KlineIntervalData.sol\":4840:4852  startIdx + i */\n      tag_99\n      jump\t// in\n    tag_115:\n        /* \"contracts/KlineIntervalData.sol\":4839:4873  (startIdx + i) % MAX_KLINE_HISTORY */\n      tag_116\n      swap2\n      swap1\n      tag_111\n      jump\t// in\n    tag_116:\n        /* \"contracts/KlineIntervalData.sol\":4832:4874  klines[(startIdx + i) % MAX_KLINE_HISTORY] */\n      dup2\n      sload\n      dup2\n      lt\n      tag_118\n      jumpi\n      tag_118\n      tag_102\n      jump\t// in\n    tag_118:\n      0x00\n      swap2\n      dup3\n      mstore\n      0x20\n      swap2\n      dup3\n      swap1\n      keccak256\n        /* \"contracts/KlineIntervalData.sol\":4820:4874  result[i] = klines[(startIdx + i) % MAX_KLINE_HISTORY] */\n      0x40\n      dup1\n      mload\n      0x0100\n      dup2\n      add\n      dup3\n      mstore\n        /* \"contracts/KlineIntervalData.sol\":4832:4874  klines[(startIdx + i) % MAX_KLINE_HISTORY] */\n      0x07\n      swap1\n      swap4\n      mul\n      swap1\n      swap2\n      add\n        /* \"contracts/KlineIntervalData.sol\":4820:4874  result[i] = klines[(startIdx + i) % MAX_KLINE_HISTORY] */\n      dup1\n      sload\n      sub(shl(0x40, 0x01), 0x01)\n      dup1\n      dup3\n      and\n      dup6\n      mstore\n      shl(0x40, 0x01)\n      swap1\n      swap2\n      div\n      and\n      swap4\n      dup4\n      add\n      swap4\n      swap1\n      swap4\n      mstore\n      0x01\n      dup4\n      add\n      sload\n      swap1\n      dup3\n      add\n      mstore\n      0x02\n      dup3\n      add\n      sload\n      0x60\n      dup3\n      add\n      mstore\n      0x03\n      dup3\n      add\n      sload\n      0x80\n      dup3\n      add\n      mstore\n      0x04\n      dup3\n      add\n      sload\n      0xa0\n      dup3\n      add\n      mstore\n      0x05\n      dup3\n      add\n      sload\n      0xc0\n      dup3\n      add\n      mstore\n      0x06\n      swap1\n      swap2\n      add\n      sload\n      0xff\n      and\n      iszero\n      iszero\n      0xe0\n      dup3\n      add\n      mstore\n        /* \"contracts/KlineIntervalData.sol\":4820:4829  result[i] */\n      dup4\n      mload\n        /* \"contracts/KlineIntervalData.sol\":4820:4826  result */\n      dup5\n      swap1\n        /* \"contracts/KlineIntervalData.sol\":4827:4828  i */\n      dup4\n      swap1\n        /* \"contracts/KlineIntervalData.sol\":4820:4829  result[i] */\n      dup2\n      lt\n      tag_121\n      jumpi\n      tag_121\n      tag_102\n      jump\t// in\n    tag_121:\n      0x20\n      swap1\n      dup2\n      mul\n      swap2\n      swap1\n      swap2\n      add\n      add\n        /* \"contracts/KlineIntervalData.sol\":4820:4874  result[i] = klines[(startIdx + i) % MAX_KLINE_HISTORY] */\n      mstore\n        /* \"contracts/KlineIntervalData.sol\":4796:4799  i++ */\n      0x01\n      add\n        /* \"contracts/KlineIntervalData.sol\":4762:4890  for (uint i = 0; i < numToReturn; i++) {... */\n      jump(tag_112)\n    tag_113:\n      pop\n        /* \"contracts/KlineIntervalData.sol\":4509:4901  { // Buffer đã đầy... */\n      pop\n        /* \"contracts/KlineIntervalData.sol\":4207:4901  if (klineCount < MAX_KLINE_HISTORY) { // Buffer chưa đầy... */\n    tag_106:\n        /* \"contracts/KlineIntervalData.sol\":4918:4924  result */\n      swap4\n        /* \"contracts/KlineIntervalData.sol\":3824:4932  function getKlines(uint256 _count) external view returns (KlineDataLib.CompactCandle[] memory) {... */\n      swap3\n      pop\n      pop\n      pop\n      jump\t// out\n        /* \"contracts/KlineIntervalData.sol\":1881:3816  function addOrUpdateKline(... */\n    tag_29:\n        /* \"contracts/KlineIntervalData.sol\":1737:1747  msg.sender */\n      caller\n      sub(shl(0xa0, 0x01), 0x01)\n        /* \"contracts/KlineIntervalData.sol\":1751:1765  factoryAddress */\n      immutable(\"0x1d3be50b2bb17407dd170f1d5da128d1def30c6b1598d6a629e79b4775265526\")\n        /* \"contracts/KlineIntervalData.sol\":1737:1765  msg.sender == factoryAddress */\n      and\n      eq\n      dup1\n        /* \"contracts/KlineIntervalData.sol\":1737:1796  msg.sender == factoryAddress || msg.sender == oracleAddress */\n      tag_123\n      jumpi\n      pop\n        /* \"contracts/KlineIntervalData.sol\":1783:1796  oracleAddress */\n      and(sub(shl(0xa0, 0x01), 0x01), sload(0x04))\n        /* \"contracts/KlineIntervalData.sol\":1769:1779  msg.sender */\n      caller\n        /* \"contracts/KlineIntervalData.sol\":1769:1796  msg.sender == oracleAddress */\n      eq\n        /* \"contracts/KlineIntervalData.sol\":1737:1796  msg.sender == factoryAddress || msg.sender == oracleAddress */\n    tag_123:\n        /* \"contracts/KlineIntervalData.sol\":1729:1827  require(msg.sender == factoryAddress || msg.sender == oracleAddress, \"KID: Not factory or oracle\") */\n      tag_124\n      jumpi\n      mload(0x40)\n      shl(0xe5, 0x461bcd)\n      dup2\n      mstore\n        /* \"#utility.yul\":6939:6941   */\n      0x20\n        /* \"contracts/KlineIntervalData.sol\":1729:1827  require(msg.sender == factoryAddress || msg.sender == oracleAddress, \"KID: Not factory or oracle\") */\n      0x04\n      dup3\n      add\n        /* \"#utility.yul\":6921:6942   */\n      mstore\n        /* \"#utility.yul\":6978:6980   */\n      0x1a\n        /* \"#utility.yul\":6958:6976   */\n      0x24\n      dup3\n      add\n        /* \"#utility.yul\":6951:6981   */\n      mstore\n        /* \"#utility.yul\":7017:7045   */\n      0x4b49443a204e6f7420666163746f7279206f72206f7261636c65000000000000\n        /* \"#utility.yul\":6997:7015   */\n      0x44\n      dup3\n      add\n        /* \"#utility.yul\":6990:7046   */\n      mstore\n        /* \"#utility.yul\":7063:7081   */\n      0x64\n      add\n        /* \"contracts/KlineIntervalData.sol\":1729:1827  require(msg.sender == factoryAddress || msg.sender == oracleAddress, \"KID: Not factory or oracle\") */\n    tag_125:\n      mload(0x40)\n      dup1\n      swap2\n      sub\n      swap1\n      revert\n    tag_124:\n        /* \"contracts/KlineIntervalData.sol\":2252:2601  KlineDataLib.CompactCandle({... */\n      0x40\n      dup1\n      mload\n      0x0100\n      dup2\n      add\n      dup3\n      mstore\n      sub(shl(0x40, 0x01), 0x01)\n      dup1\n      dup12\n      and\n      dup3\n      mstore\n      dup10\n      and\n      0x20\n      dup3\n      add\n      mstore\n      swap1\n      dup2\n      add\n      dup8\n      swap1\n      mstore\n      0x60\n      dup2\n      add\n      dup7\n      swap1\n      mstore\n      0x80\n      dup2\n      add\n      dup6\n      swap1\n      mstore\n      0xa0\n      dup2\n      add\n      dup5\n      swap1\n      mstore\n      0xc0\n      dup2\n      add\n      dup4\n      swap1\n      mstore\n      dup2\n      iszero\n      iszero\n      0xe0\n      dup3\n      add\n      mstore\n        /* \"contracts/KlineIntervalData.sol\":2657:2667  klineCount */\n      sload(0x03)\n        /* \"contracts/KlineIntervalData.sol\":2207:2249  KlineDataLib.CompactCandle memory newKline */\n      0x00\n      swap1\n        /* \"contracts/KlineIntervalData.sol\":2657:2671  klineCount > 0 */\n      iszero\n        /* \"contracts/KlineIntervalData.sol\":2653:3182  if (klineCount > 0) {... */\n      tag_128\n      jumpi\n        /* \"contracts/KlineIntervalData.sol\":2688:2711  uint256 lastActualIndex */\n      0x00\n        /* \"contracts/KlineIntervalData.sol\":2730:2744  nextKlineIndex */\n      sload(0x02)\n        /* \"contracts/KlineIntervalData.sol\":2748:2749  0 */\n      0x00\n        /* \"contracts/KlineIntervalData.sol\":2730:2749  nextKlineIndex == 0 */\n      sub\n        /* \"contracts/KlineIntervalData.sol\":2726:2955  if (nextKlineIndex == 0) {... */\n      tag_129\n      jumpi\n        /* \"contracts/KlineIntervalData.sol\":2803:2820  MAX_KLINE_HISTORY */\n      immutable(\"0xe4b1702d9298fee62dfeccc57d322a463ad55ca201256d01f62b45b2e1c21c10\")\n        /* \"contracts/KlineIntervalData.sol\":2789:2799  klineCount */\n      sload(0x03)\n        /* \"contracts/KlineIntervalData.sol\":2789:2820  klineCount == MAX_KLINE_HISTORY */\n      eq\n        /* \"contracts/KlineIntervalData.sol\":2788:2862  (klineCount == MAX_KLINE_HISTORY) ? MAX_KLINE_HISTORY - 1 : klineCount - 1 */\n      tag_130\n      jumpi\n        /* \"contracts/KlineIntervalData.sol\":2861:2862  1 */\n      0x01\n        /* \"contracts/KlineIntervalData.sol\":2848:2858  klineCount */\n      sload(0x03)\n        /* \"contracts/KlineIntervalData.sol\":2848:2862  klineCount - 1 */\n      tag_131\n      swap2\n      swap1\n      tag_94\n      jump\t// in\n    tag_131:\n        /* \"contracts/KlineIntervalData.sol\":2788:2862  (klineCount == MAX_KLINE_HISTORY) ? MAX_KLINE_HISTORY - 1 : klineCount - 1 */\n      jump(tag_133)\n    tag_130:\n        /* \"contracts/KlineIntervalData.sol\":2824:2845  MAX_KLINE_HISTORY - 1 */\n      tag_133\n        /* \"contracts/KlineIntervalData.sol\":2844:2845  1 */\n      0x01\n        /* \"contracts/KlineIntervalData.sol\":2824:2841  MAX_KLINE_HISTORY */\n      immutable(\"0xe4b1702d9298fee62dfeccc57d322a463ad55ca201256d01f62b45b2e1c21c10\")\n        /* \"contracts/KlineIntervalData.sol\":2824:2845  MAX_KLINE_HISTORY - 1 */\n      tag_94\n      jump\t// in\n    tag_133:\n        /* \"contracts/KlineIntervalData.sol\":2770:2862  lastActualIndex = (klineCount == MAX_KLINE_HISTORY) ? MAX_KLINE_HISTORY - 1 : klineCount - 1 */\n      swap1\n      pop\n        /* \"contracts/KlineIntervalData.sol\":2726:2955  if (nextKlineIndex == 0) {... */\n      jump(tag_134)\n    tag_129:\n        /* \"contracts/KlineIntervalData.sol\":2938:2939  1 */\n      0x01\n        /* \"contracts/KlineIntervalData.sol\":2921:2935  nextKlineIndex */\n      sload(0x02)\n        /* \"contracts/KlineIntervalData.sol\":2921:2939  nextKlineIndex - 1 */\n      tag_135\n      swap2\n      swap1\n      tag_94\n      jump\t// in\n    tag_135:\n        /* \"contracts/KlineIntervalData.sol\":2903:2939  lastActualIndex = nextKlineIndex - 1 */\n      swap1\n      pop\n        /* \"contracts/KlineIntervalData.sol\":2726:2955  if (nextKlineIndex == 0) {... */\n    tag_134:\n        /* \"contracts/KlineIntervalData.sol\":3012:3022  _startTime */\n      dup11\n      sub(shl(0x40, 0x01), 0x01)\n        /* \"contracts/KlineIntervalData.sol\":2975:3022  klines[lastActualIndex].startTime == _startTime */\n      and\n        /* \"contracts/KlineIntervalData.sol\":2975:2981  klines */\n      0x01\n        /* \"contracts/KlineIntervalData.sol\":2982:2997  lastActualIndex */\n      dup3\n        /* \"contracts/KlineIntervalData.sol\":2975:2998  klines[lastActualIndex] */\n      dup2\n      sload\n      dup2\n      lt\n      tag_137\n      jumpi\n      tag_137\n      tag_102\n      jump\t// in\n    tag_137:\n      0x00\n      swap2\n      dup3\n      mstore\n      0x20\n      swap1\n      swap2\n      keccak256\n      0x07\n      swap1\n      swap2\n      mul\n      add\n        /* \"contracts/KlineIntervalData.sol\":2975:3008  klines[lastActualIndex].startTime */\n      sload\n      sub(shl(0x40, 0x01), 0x01)\n      and\n        /* \"contracts/KlineIntervalData.sol\":2975:3022  klines[lastActualIndex].startTime == _startTime */\n      eq\n        /* \"contracts/KlineIntervalData.sol\":2975:3059  klines[lastActualIndex].startTime == _startTime && !klines[lastActualIndex].isClosed */\n      dup1\n      iszero\n      tag_139\n      jumpi\n      pop\n        /* \"contracts/KlineIntervalData.sol\":3027:3033  klines */\n      0x01\n        /* \"contracts/KlineIntervalData.sol\":3034:3049  lastActualIndex */\n      dup2\n        /* \"contracts/KlineIntervalData.sol\":3027:3050  klines[lastActualIndex] */\n      dup2\n      sload\n      dup2\n      lt\n      tag_141\n      jumpi\n      tag_141\n      tag_102\n      jump\t// in\n    tag_141:\n      0x00\n      swap2\n      dup3\n      mstore\n      0x20\n      swap1\n      swap2\n      keccak256\n        /* \"contracts/KlineIntervalData.sol\":3027:3059  klines[lastActualIndex].isClosed */\n      0x06\n        /* \"contracts/KlineIntervalData.sol\":3027:3050  klines[lastActualIndex] */\n      0x07\n      swap1\n      swap3\n      mul\n      add\n        /* \"contracts/KlineIntervalData.sol\":3027:3059  klines[lastActualIndex].isClosed */\n      add\n      sload\n      0xff\n      and\n        /* \"contracts/KlineIntervalData.sol\":3026:3059  !klines[lastActualIndex].isClosed */\n      iszero\n        /* \"contracts/KlineIntervalData.sol\":2975:3059  klines[lastActualIndex].startTime == _startTime && !klines[lastActualIndex].isClosed */\n    tag_139:\n        /* \"contracts/KlineIntervalData.sol\":2971:3171  if (klines[lastActualIndex].startTime == _startTime && !klines[lastActualIndex].isClosed) {... */\n      iszero\n      tag_143\n      jumpi\n        /* \"contracts/KlineIntervalData.sol\":3106:3114  newKline */\n      dup3\n        /* \"contracts/KlineIntervalData.sol\":3080:3086  klines */\n      0x01\n        /* \"contracts/KlineIntervalData.sol\":3087:3102  lastActualIndex */\n      dup3\n        /* \"contracts/KlineIntervalData.sol\":3080:3103  klines[lastActualIndex] */\n      dup2\n      sload\n      dup2\n      lt\n      tag_145\n      jumpi\n      tag_145\n      tag_102\n      jump\t// in\n    tag_145:\n      0x00\n      swap2\n      dup3\n      mstore\n      0x20\n      swap2\n      dup3\n      swap1\n      keccak256\n        /* \"contracts/KlineIntervalData.sol\":3080:3114  klines[lastActualIndex] = newKline */\n      dup4\n      mload\n        /* \"contracts/KlineIntervalData.sol\":3080:3103  klines[lastActualIndex] */\n      0x07\n      swap1\n      swap3\n      mul\n      add\n        /* \"contracts/KlineIntervalData.sol\":3080:3114  klines[lastActualIndex] = newKline */\n      dup1\n      sload\n      swap3\n      dup5\n      add\n      mload\n      sub(shl(0x40, 0x01), 0x01)\n      swap1\n      dup2\n      and\n      shl(0x40, 0x01)\n      mul\n      not(sub(shl(0x80, 0x01), 0x01))\n      swap1\n      swap5\n      and\n      swap3\n      and\n      swap2\n      swap1\n      swap2\n      or\n      swap2\n      swap1\n      swap2\n      or\n      dup2\n      sstore\n      0x40\n      dup3\n      add\n      mload\n      0x01\n      dup1\n      dup4\n      add\n      swap2\n      swap1\n      swap2\n      sstore\n      0x60\n      dup4\n      add\n      mload\n      0x02\n      dup4\n      add\n      sstore\n      0x80\n      dup4\n      add\n      mload\n      0x03\n      dup4\n      add\n      sstore\n      0xa0\n      dup4\n      add\n      mload\n      0x04\n      dup4\n      add\n      sstore\n      0xc0\n      dup4\n      add\n      mload\n      0x05\n      dup4\n      add\n      sstore\n      0xe0\n      swap1\n      swap3\n      add\n      mload\n      0x06\n      swap1\n      swap2\n      add\n      dup1\n      sload\n      swap2\n      iszero\n      iszero\n      not(0xff)\n      swap1\n      swap3\n      and\n      swap2\n      swap1\n      swap2\n      or\n      swap1\n      sstore\n      swap2\n      pop\n        /* \"contracts/KlineIntervalData.sol\":2971:3171  if (klines[lastActualIndex].startTime == _startTime && !klines[lastActualIndex].isClosed) {... */\n    tag_143:\n        /* \"contracts/KlineIntervalData.sol\":2673:3182  {... */\n      pop\n        /* \"contracts/KlineIntervalData.sol\":2653:3182  if (klineCount > 0) {... */\n    tag_128:\n        /* \"contracts/KlineIntervalData.sol\":3199:3214  updatedExisting */\n      dup1\n        /* \"contracts/KlineIntervalData.sol\":3194:3709  if (!updatedExisting) {... */\n      tag_150\n      jumpi\n        /* \"contracts/KlineIntervalData.sol\":3235:3241  klines */\n      0x01\n        /* \"contracts/KlineIntervalData.sol\":3235:3248  klines.length */\n      sload\n        /* \"contracts/KlineIntervalData.sol\":3251:3268  MAX_KLINE_HISTORY */\n      immutable(\"0xe4b1702d9298fee62dfeccc57d322a463ad55ca201256d01f62b45b2e1c21c10\")\n      gt\n        /* \"contracts/KlineIntervalData.sol\":3231:3698  if (klines.length < MAX_KLINE_HISTORY) {... */\n      iszero\n      tag_148\n      jumpi\n        /* \"contracts/KlineIntervalData.sol\":3289:3295  klines */\n      0x01\n        /* \"contracts/KlineIntervalData.sol\":3289:3310  klines.push(newKline) */\n      dup1\n      sload\n      dup1\n      dup3\n      add\n      dup3\n      sstore\n      0x00\n      dup3\n      swap1\n      mstore\n      dup4\n      mload\n      0x07\n      swap1\n      swap2\n      mul\n      0xb10e2d527612073b26eecdfd717e6a320cf44b4afac2b0732d9fcbe2b7fa0cf6\n      dup2\n      add\n      dup1\n      sload\n      0x20\n      dup8\n      add\n      mload\n      sub(shl(0x40, 0x01), 0x01)\n      swap1\n      dup2\n      and\n      shl(0x40, 0x01)\n      mul\n      not(sub(shl(0x80, 0x01), 0x01))\n      swap1\n      swap3\n      and\n      swap5\n      and\n      swap4\n      swap1\n      swap4\n      or\n      swap3\n      swap1\n      swap3\n      or\n      swap1\n      swap2\n      sstore\n      0x40\n      dup5\n      add\n      mload\n      0xb10e2d527612073b26eecdfd717e6a320cf44b4afac2b0732d9fcbe2b7fa0cf7\n      dup3\n      add\n      sstore\n      0x60\n      dup5\n      add\n      mload\n      0xb10e2d527612073b26eecdfd717e6a320cf44b4afac2b0732d9fcbe2b7fa0cf8\n      dup3\n      add\n      sstore\n      0x80\n      dup5\n      add\n      mload\n      0xb10e2d527612073b26eecdfd717e6a320cf44b4afac2b0732d9fcbe2b7fa0cf9\n      dup3\n      add\n      sstore\n      0xa0\n      dup5\n      add\n      mload\n      0xb10e2d527612073b26eecdfd717e6a320cf44b4afac2b0732d9fcbe2b7fa0cfa\n      dup3\n      add\n      sstore\n      0xc0\n      dup5\n      add\n      mload\n      0xb10e2d527612073b26eecdfd717e6a320cf44b4afac2b0732d9fcbe2b7fa0cfb\n      dup3\n      add\n      sstore\n      0xe0\n      dup5\n      add\n      mload\n      0xb10e2d527612073b26eecdfd717e6a320cf44b4afac2b0732d9fcbe2b7fa0cfc\n      swap1\n      swap2\n      add\n      dup1\n      sload\n      swap2\n      iszero\n      iszero\n      not(0xff)\n      swap1\n      swap3\n      and\n      swap2\n      swap1\n      swap2\n      or\n      swap1\n      sstore\n        /* \"contracts/KlineIntervalData.sol\":3346:3359  klines.length */\n      sload\n        /* \"contracts/KlineIntervalData.sol\":3289:3310  klines.push(newKline) */\n      0x02\n        /* \"contracts/KlineIntervalData.sol\":3329:3359  nextKlineIndex = klines.length */\n      dup2\n      swap1\n      sstore\n        /* \"contracts/KlineIntervalData.sol\":3289:3310  klines.push(newKline) */\n      0x03\n        /* \"contracts/KlineIntervalData.sol\":3430:3456  klineCount = klines.length */\n      sstore\n        /* \"contracts/KlineIntervalData.sol\":3231:3698  if (klines.length < MAX_KLINE_HISTORY) {... */\n      jump(tag_150)\n    tag_148:\n        /* \"contracts/KlineIntervalData.sol\":3539:3547  newKline */\n      dup2\n        /* \"contracts/KlineIntervalData.sol\":3514:3520  klines */\n      0x01\n        /* \"contracts/KlineIntervalData.sol\":3521:3535  nextKlineIndex */\n      sload(0x02)\n        /* \"contracts/KlineIntervalData.sol\":3514:3536  klines[nextKlineIndex] */\n      dup2\n      sload\n      dup2\n      lt\n      tag_152\n      jumpi\n      tag_152\n      tag_102\n      jump\t// in\n    tag_152:\n      0x00\n      swap2\n      dup3\n      mstore\n      0x20\n      swap2\n      dup3\n      swap1\n      keccak256\n        /* \"contracts/KlineIntervalData.sol\":3514:3547  klines[nextKlineIndex] = newKline */\n      dup4\n      mload\n        /* \"contracts/KlineIntervalData.sol\":3514:3536  klines[nextKlineIndex] */\n      0x07\n      swap1\n      swap3\n      mul\n      add\n        /* \"contracts/KlineIntervalData.sol\":3514:3547  klines[nextKlineIndex] = newKline */\n      dup1\n      sload\n      swap3\n      dup5\n      add\n      mload\n      sub(shl(0x40, 0x01), 0x01)\n      swap1\n      dup2\n      and\n      shl(0x40, 0x01)\n      mul\n      not(sub(shl(0x80, 0x01), 0x01))\n      swap1\n      swap5\n      and\n      swap3\n      and\n      swap2\n      swap1\n      swap2\n      or\n      swap2\n      swap1\n      swap2\n      or\n      dup2\n      sstore\n      0x40\n      dup3\n      add\n      mload\n      0x01\n      dup1\n      dup4\n      add\n      swap2\n      swap1\n      swap2\n      sstore\n      0x60\n      dup4\n      add\n      mload\n      0x02\n      dup1\n      dup5\n      add\n      swap2\n      swap1\n      swap2\n      sstore\n      0x80\n      dup5\n      add\n      mload\n      0x03\n      dup5\n      add\n      sstore\n      0xa0\n      dup5\n      add\n      mload\n      0x04\n      dup5\n      add\n      sstore\n      0xc0\n      dup5\n      add\n      mload\n      0x05\n      dup5\n      add\n      sstore\n      0xe0\n      swap1\n      swap4\n      add\n      mload\n      0x06\n      swap1\n      swap3\n      add\n      dup1\n      sload\n      swap3\n      iszero\n      iszero\n      not(0xff)\n      swap1\n      swap4\n      and\n      swap3\n      swap1\n      swap3\n      or\n      swap1\n      swap2\n      sstore\n        /* \"contracts/KlineIntervalData.sol\":3584:3598  nextKlineIndex */\n      swap1\n      sload\n        /* \"contracts/KlineIntervalData.sol\":3606:3623  MAX_KLINE_HISTORY */\n      immutable(\"0xe4b1702d9298fee62dfeccc57d322a463ad55ca201256d01f62b45b2e1c21c10\")\n      swap2\n        /* \"contracts/KlineIntervalData.sol\":3584:3602  nextKlineIndex + 1 */\n      tag_154\n      swap2\n        /* \"contracts/KlineIntervalData.sol\":3584:3598  nextKlineIndex */\n      swap1\n        /* \"contracts/KlineIntervalData.sol\":3584:3602  nextKlineIndex + 1 */\n      tag_99\n      jump\t// in\n    tag_154:\n        /* \"contracts/KlineIntervalData.sol\":3583:3623  (nextKlineIndex + 1) % MAX_KLINE_HISTORY */\n      tag_155\n      swap2\n      swap1\n      tag_111\n      jump\t// in\n    tag_155:\n        /* \"contracts/KlineIntervalData.sol\":3566:3580  nextKlineIndex */\n      0x02\n        /* \"contracts/KlineIntervalData.sol\":3566:3623  nextKlineIndex = (nextKlineIndex + 1) % MAX_KLINE_HISTORY */\n      sstore\n        /* \"contracts/KlineIntervalData.sol\":3231:3698  if (klines.length < MAX_KLINE_HISTORY) {... */\n    tag_150:\n        /* \"contracts/KlineIntervalData.sol\":3772:3778  symbol */\n      0x00\n        /* \"contracts/KlineIntervalData.sol\":3724:3808  KlineAddedToIntervalData(intervalType, version, symbol, _startTime, updatedExisting) */\n      mload(0x40)\n      tag_156\n      swap2\n      swap1\n      tag_157\n      jump\t// in\n    tag_156:\n      mload(0x40)\n      dup1\n      swap2\n      sub\n      swap1\n      keccak256\n        /* \"contracts/KlineIntervalData.sol\":3763:3770  version */\n      immutable(\"0x8e8fab5f003314da8d1873ea7720e8d9f47650136d916064d1edb8a11d682624\")\n        /* \"contracts/KlineIntervalData.sol\":3749:3761  intervalType */\n      immutable(\"0x7880aec93413f117ef14bd4e6d130875ab2c7d7d55a064fac3c2f7bd51516380\")\n        /* \"contracts/KlineIntervalData.sol\":3724:3808  KlineAddedToIntervalData(intervalType, version, symbol, _startTime, updatedExisting) */\n      0x0f\n      dup2\n      gt\n      iszero\n      tag_159\n      jumpi\n      tag_159\n      tag_160\n      jump\t// in\n    tag_159:\n      0x40\n      dup1\n      mload\n      sub(shl(0x40, 0x01), 0x01)\n        /* \"#utility.yul\":8870:8901   */\n      dup16\n      and\n        /* \"#utility.yul\":8852:8902   */\n      dup2\n      mstore\n        /* \"#utility.yul\":8945:8959   */\n      dup6\n      iszero\n        /* \"#utility.yul\":8938:8960   */\n      iszero\n        /* \"#utility.yul\":8933:8935   */\n      0x20\n        /* \"#utility.yul\":8918:8936   */\n      dup3\n      add\n        /* \"#utility.yul\":8911:8961   */\n      mstore\n        /* \"contracts/KlineIntervalData.sol\":3724:3808  KlineAddedToIntervalData(intervalType, version, symbol, _startTime, updatedExisting) */\n      0x2938227ea55378ae62398d4f99af288fbab3774dab97fa96a060ea989cbc8001\n      swap2\n        /* \"#utility.yul\":8825:8843   */\n      add\n        /* \"contracts/KlineIntervalData.sol\":3724:3808  KlineAddedToIntervalData(intervalType, version, symbol, _startTime, updatedExisting) */\n      mload(0x40)\n      dup1\n      swap2\n      sub\n      swap1\n      log4\n        /* \"contracts/KlineIntervalData.sol\":2196:3816  {... */\n      pop\n      pop\n        /* \"contracts/KlineIntervalData.sol\":1881:3816  function addOrUpdateKline(... */\n      pop\n      pop\n      pop\n      pop\n      pop\n      pop\n      pop\n      pop\n      jump\t// out\n        /* \"contracts/KlineIntervalData.sol\":5484:5754  function getInfo() external view returns (string memory workerSymbol, KlineDataLib.Interval workerInterval, uint256 workerVersion, uint256 workerKlineCount, uint256 workerMaxKlines) {... */\n    tag_35:\n        /* \"contracts/KlineIntervalData.sol\":5526:5552  string memory workerSymbol */\n      0x60\n        /* \"contracts/KlineIntervalData.sol\":5554:5590  KlineDataLib.Interval workerInterval */\n      0x00\n        /* \"contracts/KlineIntervalData.sol\":5592:5613  uint256 workerVersion */\n      0x00\n        /* \"contracts/KlineIntervalData.sol\":5615:5639  uint256 workerKlineCount */\n      0x00\n        /* \"contracts/KlineIntervalData.sol\":5641:5664  uint256 workerMaxKlines */\n      0x00\n        /* \"contracts/KlineIntervalData.sol\":5685:5691  symbol */\n      0x00\n        /* \"contracts/KlineIntervalData.sol\":5693:5705  intervalType */\n      immutable(\"0x7880aec93413f117ef14bd4e6d130875ab2c7d7d55a064fac3c2f7bd51516380\")\n        /* \"contracts/KlineIntervalData.sol\":5707:5714  version */\n      immutable(\"0x8e8fab5f003314da8d1873ea7720e8d9f47650136d916064d1edb8a11d682624\")\n        /* \"contracts/KlineIntervalData.sol\":5716:5726  klineCount */\n      sload(0x03)\n        /* \"contracts/KlineIntervalData.sol\":5728:5745  MAX_KLINE_HISTORY */\n      immutable(\"0xe4b1702d9298fee62dfeccc57d322a463ad55ca201256d01f62b45b2e1c21c10\")\n        /* \"contracts/KlineIntervalData.sol\":5677:5746  return (symbol, intervalType, version, klineCount, MAX_KLINE_HISTORY) */\n      dup5\n      dup1\n      sload\n      tag_164\n      swap1\n      tag_165\n      jump\t// in\n    tag_164:\n      dup1\n      0x1f\n      add\n      0x20\n      dup1\n      swap2\n      div\n      mul\n      0x20\n      add\n      mload(0x40)\n      swap1\n      dup2\n      add\n      0x40\n      mstore\n      dup1\n      swap3\n      swap2\n      swap1\n      dup2\n      dup2\n      mstore\n      0x20\n      add\n      dup3\n      dup1\n      sload\n      tag_166\n      swap1\n      tag_165\n      jump\t// in\n    tag_166:\n      dup1\n      iszero\n      tag_167\n      jumpi\n      dup1\n      0x1f\n      lt\n      tag_168\n      jumpi\n      0x0100\n      dup1\n      dup4\n      sload\n      div\n      mul\n      dup4\n      mstore\n      swap2\n      0x20\n      add\n      swap2\n      jump(tag_167)\n    tag_168:\n      dup3\n      add\n      swap2\n      swap1\n      0x00\n      mstore\n      keccak256(0x00, 0x20)\n      swap1\n    tag_169:\n      dup2\n      sload\n      dup2\n      mstore\n      swap1\n      0x01\n      add\n      swap1\n      0x20\n      add\n      dup1\n      dup4\n      gt\n      tag_169\n      jumpi\n      dup3\n      swap1\n      sub\n      0x1f\n      and\n      dup3\n      add\n      swap2\n    tag_167:\n      pop\n      pop\n      pop\n      pop\n      pop\n      swap5\n      pop\n      swap5\n      pop\n      swap5\n      pop\n      swap5\n      pop\n      swap5\n      pop\n      swap5\n      pop\n        /* \"contracts/KlineIntervalData.sol\":5484:5754  function getInfo() external view returns (string memory workerSymbol, KlineDataLib.Interval workerInterval, uint256 workerVersion, uint256 workerKlineCount, uint256 workerMaxKlines) {... */\n      swap1\n      swap2\n      swap3\n      swap4\n      swap5\n      jump\t// out\n        /* \"contracts/KlineIntervalData.sol\":611:653  KlineDataLib.CompactCandle[] public klines */\n    tag_43:\n      0x01\n      dup2\n      dup2\n      sload\n      dup2\n      lt\n      tag_170\n      jumpi\n      0x00\n      dup1\n      revert\n    tag_170:\n      0x00\n      swap2\n      dup3\n      mstore\n      0x20\n      swap1\n      swap2\n      keccak256\n      0x07\n      swap1\n      swap2\n      mul\n      add\n      dup1\n      sload\n      0x01\n      dup3\n      add\n      sload\n      0x02\n      dup4\n      add\n      sload\n      0x03\n      dup5\n      add\n      sload\n      0x04\n      dup6\n      add\n      sload\n      0x05\n      dup7\n      add\n      sload\n      0x06\n      swap1\n      swap7\n      add\n      sload\n      sub(shl(0x40, 0x01), 0x01)\n      dup1\n      dup8\n      and\n      swap9\n      pop\n      shl(0x40, 0x01)\n      swap1\n      swap7\n      div\n      swap1\n      swap6\n      and\n      swap6\n      swap4\n      swap5\n      swap3\n      swap4\n      swap2\n      swap3\n      swap1\n      swap2\n      swap1\n      0xff\n      and\n      dup9\n      jump\t// out\n        /* \"contracts/KlineIntervalData.sol\":4940:5089  function getAllKlinesInThisVersion() external view returns (KlineDataLib.CompactCandle[] memory) {... */\n    tag_47:\n        /* \"contracts/KlineIntervalData.sol\":5070:5080  klineCount */\n      sload(0x03)\n        /* \"contracts/KlineIntervalData.sol\":5055:5081  this.getKlines(klineCount) */\n      mload(0x40)\n      shl(0xe1, 0x0d1e53d5)\n      dup2\n      mstore\n        /* \"contracts/KlineIntervalData.sol\":5000:5035  KlineDataLib.CompactCandle[] memory */\n      0x60\n      swap2\n        /* \"contracts/KlineIntervalData.sol\":5055:5059  this */\n      address\n      swap2\n        /* \"contracts/KlineIntervalData.sol\":5055:5069  this.getKlines */\n      0x1a3ca7aa\n      swap2\n        /* \"contracts/KlineIntervalData.sol\":5055:5081  this.getKlines(klineCount) */\n      tag_173\n      swap2\n      0x04\n      add\n        /* \"#utility.yul\":2946:2971   */\n      swap1\n      dup2\n      mstore\n        /* \"#utility.yul\":2934:2936   */\n      0x20\n        /* \"#utility.yul\":2919:2937   */\n      add\n      swap1\n        /* \"#utility.yul\":2800:2977   */\n      jump\n        /* \"contracts/KlineIntervalData.sol\":5055:5081  this.getKlines(klineCount) */\n    tag_173:\n      0x00\n      mload(0x40)\n      dup1\n      dup4\n      sub\n      dup2\n      dup7\n      gas\n      staticcall\n      iszero\n      dup1\n      iszero\n      tag_175\n      jumpi\n      returndatacopy(0x00, 0x00, returndatasize)\n      revert(0x00, returndatasize)\n    tag_175:\n      pop\n      pop\n      pop\n      pop\n      mload(0x40)\n      returndatasize\n      0x00\n      dup3\n      returndatacopy\n      0x1f\n      returndatasize\n      swap1\n      dup2\n      add\n      not(0x1f)\n      and\n      dup3\n      add\n      0x40\n      mstore\n      tag_176\n      swap2\n      swap1\n      dup2\n      add\n      swap1\n      tag_177\n      jump\t// in\n    tag_176:\n        /* \"contracts/KlineIntervalData.sol\":5048:5081  return this.getKlines(klineCount) */\n      swap1\n      pop\n        /* \"contracts/KlineIntervalData.sol\":4940:5089  function getAllKlinesInThisVersion() external view returns (KlineDataLib.CompactCandle[] memory) {... */\n      swap1\n      jump\t// out\n        /* \"contracts/KlineIntervalData.sol\":5097:5425  function setOracle(address _newOracleAddress) external {... */\n    tag_52:\n        /* \"contracts/KlineIntervalData.sol\":5171:5181  msg.sender */\n      caller\n      sub(shl(0xa0, 0x01), 0x01)\n        /* \"contracts/KlineIntervalData.sol\":5185:5199  factoryAddress */\n      immutable(\"0x1d3be50b2bb17407dd170f1d5da128d1def30c6b1598d6a629e79b4775265526\")\n        /* \"contracts/KlineIntervalData.sol\":5171:5199  msg.sender == factoryAddress */\n      and\n      eq\n        /* \"contracts/KlineIntervalData.sol\":5163:5236  require(msg.sender == factoryAddress, \"KID: Only factory can set oracle\") */\n      tag_179\n      jumpi\n      mload(0x40)\n      shl(0xe5, 0x461bcd)\n      dup2\n      mstore\n        /* \"#utility.yul\":11916:11918   */\n      0x20\n        /* \"contracts/KlineIntervalData.sol\":5163:5236  require(msg.sender == factoryAddress, \"KID: Only factory can set oracle\") */\n      0x04\n      dup3\n      add\n        /* \"#utility.yul\":11898:11919   */\n      dup2\n      swap1\n      mstore\n        /* \"#utility.yul\":11935:11953   */\n      0x24\n      dup3\n      add\n        /* \"#utility.yul\":11928:11958   */\n      mstore\n        /* \"#utility.yul\":11994:12028   */\n      0x4b49443a204f6e6c7920666163746f72792063616e20736574206f7261636c65\n        /* \"#utility.yul\":11974:11992   */\n      0x44\n      dup3\n      add\n        /* \"#utility.yul\":11967:12029   */\n      mstore\n        /* \"#utility.yul\":12046:12064   */\n      0x64\n      add\n        /* \"contracts/KlineIntervalData.sol\":5163:5236  require(msg.sender == factoryAddress, \"KID: Only factory can set oracle\") */\n      tag_125\n        /* \"#utility.yul\":11714:12070   */\n      jump\n        /* \"contracts/KlineIntervalData.sol\":5163:5236  require(msg.sender == factoryAddress, \"KID: Only factory can set oracle\") */\n    tag_179:\n      sub(shl(0xa0, 0x01), 0x01)\n        /* \"contracts/KlineIntervalData.sol\":5255:5286  _newOracleAddress != address(0) */\n      dup2\n      and\n        /* \"contracts/KlineIntervalData.sol\":5247:5318  require(_newOracleAddress != address(0), \"KID: Invalid oracle address\") */\n      tag_182\n      jumpi\n      mload(0x40)\n      shl(0xe5, 0x461bcd)\n      dup2\n      mstore\n        /* \"#utility.yul\":12277:12279   */\n      0x20\n        /* \"contracts/KlineIntervalData.sol\":5247:5318  require(_newOracleAddress != address(0), \"KID: Invalid oracle address\") */\n      0x04\n      dup3\n      add\n        /* \"#utility.yul\":12259:12280   */\n      mstore\n        /* \"#utility.yul\":12316:12318   */\n      0x1b\n        /* \"#utility.yul\":12296:12314   */\n      0x24\n      dup3\n      add\n        /* \"#utility.yul\":12289:12319   */\n      mstore\n        /* \"#utility.yul\":12355:12384   */\n      0x4b49443a20496e76616c6964206f7261636c6520616464726573730000000000\n        /* \"#utility.yul\":12335:12353   */\n      0x44\n      dup3\n      add\n        /* \"#utility.yul\":12328:12385   */\n      mstore\n        /* \"#utility.yul\":12402:12420   */\n      0x64\n      add\n        /* \"contracts/KlineIntervalData.sol\":5247:5318  require(_newOracleAddress != address(0), \"KID: Invalid oracle address\") */\n      tag_125\n        /* \"#utility.yul\":12075:12426   */\n      jump\n        /* \"contracts/KlineIntervalData.sol\":5247:5318  require(_newOracleAddress != address(0), \"KID: Invalid oracle address\") */\n    tag_182:\n        /* \"contracts/KlineIntervalData.sol\":5329:5342  oracleAddress */\n      0x04\n        /* \"contracts/KlineIntervalData.sol\":5329:5362  oracleAddress = _newOracleAddress */\n      dup1\n      sload\n      not(sub(shl(0xa0, 0x01), 0x01))\n      and\n      sub(shl(0xa0, 0x01), 0x01)\n      dup4\n      and\n      swap1\n      dup2\n      or\n      swap1\n      swap2\n      sstore\n        /* \"contracts/KlineIntervalData.sol\":5378:5417  OracleAddressUpdated(_newOracleAddress) */\n      mload(0x40)\n      0x107a9fafffb7ac890f780879e423760c9ffea8dcee8045681f40f542aede2cb8\n      swap1\n      0x00\n      swap1\n      log2\n        /* \"contracts/KlineIntervalData.sol\":5097:5425  function setOracle(address _newOracleAddress) external {... */\n      pop\n      jump\t// out\n        /* \"contracts/KlineIntervalData.sol\":412:432  string public symbol */\n    tag_54:\n      0x00\n      dup1\n      sload\n      tag_185\n      swap1\n      tag_165\n      jump\t// in\n    tag_185:\n      dup1\n      0x1f\n      add\n      0x20\n      dup1\n      swap2\n      div\n      mul\n      0x20\n      add\n      mload(0x40)\n      swap1\n      dup2\n      add\n      0x40\n      mstore\n      dup1\n      swap3\n      swap2\n      swap1\n      dup2\n      dup2\n      mstore\n      0x20\n      add\n      dup3\n      dup1\n      sload\n      tag_186\n      swap1\n      tag_165\n      jump\t// in\n    tag_186:\n      dup1\n      iszero\n      tag_187\n      jumpi\n      dup1\n      0x1f\n      lt\n      tag_188\n      jumpi\n      0x0100\n      dup1\n      dup4\n      sload\n      div\n      mul\n      dup4\n      mstore\n      swap2\n      0x20\n      add\n      swap2\n      jump(tag_187)\n    tag_188:\n      dup3\n      add\n      swap2\n      swap1\n      0x00\n      mstore\n      keccak256(0x00, 0x20)\n      swap1\n    tag_189:\n      dup2\n      sload\n      dup2\n      mstore\n      swap1\n      0x01\n      add\n      swap1\n      0x20\n      add\n      dup1\n      dup4\n      gt\n      tag_189\n      jumpi\n      dup3\n      swap1\n      sub\n      0x1f\n      and\n      dup3\n      add\n      swap2\n    tag_187:\n      pop\n      pop\n      pop\n      pop\n      pop\n      dup2\n      jump\t// out\n    tag_82:\n      mload(0x40)\n      dup1\n      0x0100\n      add\n      0x40\n      mstore\n      dup1\n      and(sub(shl(0x40, 0x01), 0x01), 0x00)\n      dup2\n      mstore\n      0x20\n      add\n      and(sub(shl(0x40, 0x01), 0x01), 0x00)\n      dup2\n      mstore\n      0x20\n      add\n      0x00\n      dup2\n      mstore\n      0x20\n      add\n      0x00\n      dup2\n      mstore\n      0x20\n      add\n      0x00\n      dup2\n      mstore\n      0x20\n      add\n      0x00\n      dup2\n      mstore\n      0x20\n      add\n      0x00\n      dup2\n      mstore\n      0x20\n      add\n      iszero(iszero(0x00))\n      dup2\n      mstore\n      pop\n      swap1\n      jump\t// out\n        /* \"#utility.yul\":14:240   */\n    tag_22:\n        /* \"#utility.yul\":73:79   */\n      0x00\n        /* \"#utility.yul\":126:128   */\n      0x20\n        /* \"#utility.yul\":114:123   */\n      dup3\n        /* \"#utility.yul\":105:112   */\n      dup5\n        /* \"#utility.yul\":101:124   */\n      sub\n        /* \"#utility.yul\":97:129   */\n      slt\n        /* \"#utility.yul\":94:146   */\n      iszero\n      tag_202\n      jumpi\n        /* \"#utility.yul\":142:143   */\n      0x00\n        /* \"#utility.yul\":139:140   */\n      0x00\n        /* \"#utility.yul\":132:144   */\n      revert\n        /* \"#utility.yul\":94:146   */\n    tag_202:\n      pop\n        /* \"#utility.yul\":187:210   */\n      calldataload\n      swap2\n        /* \"#utility.yul\":14:240   */\n      swap1\n      pop\n      jump\t// out\n        /* \"#utility.yul\":245:1409   */\n    tag_25:\n        /* \"#utility.yul\":495:497   */\n      0x20\n        /* \"#utility.yul\":507:528   */\n      dup1\n      dup3\n      mstore\n        /* \"#utility.yul\":577:590   */\n      dup3\n      mload\n        /* \"#utility.yul\":480:498   */\n      dup3\n      dup3\n      add\n        /* \"#utility.yul\":599:621   */\n      dup2\n      swap1\n      mstore\n        /* \"#utility.yul\":447:451   */\n      0x00\n      swap2\n        /* \"#utility.yul\":678:693   */\n      dup5\n      add\n      swap1\n        /* \"#utility.yul\":652:654   */\n      0x40\n        /* \"#utility.yul\":637:655   */\n      dup5\n      add\n      swap1\n        /* \"#utility.yul\":447:451   */\n      dup4\n        /* \"#utility.yul\":721:1383   */\n    tag_204:\n        /* \"#utility.yul\":735:741   */\n      dup2\n        /* \"#utility.yul\":732:733   */\n      dup2\n        /* \"#utility.yul\":729:742   */\n      lt\n        /* \"#utility.yul\":721:1383   */\n      iszero\n      tag_206\n      jumpi\n        /* \"#utility.yul\":800:806   */\n      dup4\n        /* \"#utility.yul\":794:807   */\n      mload\n      sub(shl(0x40, 0x01), 0x01)\n        /* \"#utility.yul\":842:844   */\n      dup2\n        /* \"#utility.yul\":836:845   */\n      mload\n        /* \"#utility.yul\":832:866   */\n      and\n        /* \"#utility.yul\":827:830   */\n      dup5\n        /* \"#utility.yul\":820:867   */\n      mstore\n      sub(shl(0x40, 0x01), 0x01)\n        /* \"#utility.yul\":919:921   */\n      0x20\n        /* \"#utility.yul\":915:917   */\n      dup3\n        /* \"#utility.yul\":911:922   */\n      add\n        /* \"#utility.yul\":905:923   */\n      mload\n        /* \"#utility.yul\":901:944   */\n      and\n        /* \"#utility.yul\":896:898   */\n      0x20\n        /* \"#utility.yul\":891:894   */\n      dup6\n        /* \"#utility.yul\":887:899   */\n      add\n        /* \"#utility.yul\":880:945   */\n      mstore\n        /* \"#utility.yul\":993:995   */\n      0x40\n        /* \"#utility.yul\":989:991   */\n      dup2\n        /* \"#utility.yul\":985:996   */\n      add\n        /* \"#utility.yul\":979:997   */\n      mload\n        /* \"#utility.yul\":974:976   */\n      0x40\n        /* \"#utility.yul\":969:972   */\n      dup6\n        /* \"#utility.yul\":965:977   */\n      add\n        /* \"#utility.yul\":958:998   */\n      mstore\n        /* \"#utility.yul\":1048:1052   */\n      0x60\n        /* \"#utility.yul\":1044:1046   */\n      dup2\n        /* \"#utility.yul\":1040:1053   */\n      add\n        /* \"#utility.yul\":1034:1054   */\n      mload\n        /* \"#utility.yul\":1027:1031   */\n      0x60\n        /* \"#utility.yul\":1022:1025   */\n      dup6\n        /* \"#utility.yul\":1018:1032   */\n      add\n        /* \"#utility.yul\":1011:1055   */\n      mstore\n        /* \"#utility.yul\":1105:1109   */\n      0x80\n        /* \"#utility.yul\":1101:1103   */\n      dup2\n        /* \"#utility.yul\":1097:1110   */\n      add\n        /* \"#utility.yul\":1091:1111   */\n      mload\n        /* \"#utility.yul\":1084:1088   */\n      0x80\n        /* \"#utility.yul\":1079:1082   */\n      dup6\n        /* \"#utility.yul\":1075:1089   */\n      add\n        /* \"#utility.yul\":1068:1112   */\n      mstore\n        /* \"#utility.yul\":1162:1166   */\n      0xa0\n        /* \"#utility.yul\":1158:1160   */\n      dup2\n        /* \"#utility.yul\":1154:1167   */\n      add\n        /* \"#utility.yul\":1148:1168   */\n      mload\n        /* \"#utility.yul\":1141:1145   */\n      0xa0\n        /* \"#utility.yul\":1136:1139   */\n      dup6\n        /* \"#utility.yul\":1132:1146   */\n      add\n        /* \"#utility.yul\":1125:1169   */\n      mstore\n        /* \"#utility.yul\":1219:1223   */\n      0xc0\n        /* \"#utility.yul\":1215:1217   */\n      dup2\n        /* \"#utility.yul\":1211:1224   */\n      add\n        /* \"#utility.yul\":1205:1225   */\n      mload\n        /* \"#utility.yul\":1198:1202   */\n      0xc0\n        /* \"#utility.yul\":1193:1196   */\n      dup6\n        /* \"#utility.yul\":1189:1203   */\n      add\n        /* \"#utility.yul\":1182:1226   */\n      mstore\n        /* \"#utility.yul\":1290:1294   */\n      0xe0\n        /* \"#utility.yul\":1286:1288   */\n      dup2\n        /* \"#utility.yul\":1282:1295   */\n      add\n        /* \"#utility.yul\":1276:1296   */\n      mload\n        /* \"#utility.yul\":1269:1297   */\n      iszero\n        /* \"#utility.yul\":1262:1298   */\n      iszero\n        /* \"#utility.yul\":1255:1259   */\n      0xe0\n        /* \"#utility.yul\":1250:1253   */\n      dup6\n        /* \"#utility.yul\":1246:1260   */\n      add\n        /* \"#utility.yul\":1239:1299   */\n      mstore\n      pop\n        /* \"#utility.yul\":1328:1334   */\n      0x0100\n        /* \"#utility.yul\":1323:1326   */\n      dup4\n        /* \"#utility.yul\":1319:1335   */\n      add\n        /* \"#utility.yul\":1312:1335   */\n      swap3\n      pop\n        /* \"#utility.yul\":1370:1372   */\n      0x20\n        /* \"#utility.yul\":1362:1368   */\n      dup5\n        /* \"#utility.yul\":1358:1373   */\n      add\n        /* \"#utility.yul\":1348:1373   */\n      swap4\n      pop\n        /* \"#utility.yul\":757:758   */\n      0x01\n        /* \"#utility.yul\":754:755   */\n      dup2\n        /* \"#utility.yul\":750:759   */\n      add\n        /* \"#utility.yul\":745:759   */\n      swap1\n      pop\n        /* \"#utility.yul\":721:1383   */\n      jump(tag_204)\n    tag_206:\n      pop\n        /* \"#utility.yul\":1400:1403   */\n      swap1\n      swap6\n        /* \"#utility.yul\":245:1409   */\n      swap5\n      pop\n      pop\n      pop\n      pop\n      pop\n      jump\t// out\n        /* \"#utility.yul\":1414:1543   */\n    tag_190:\n      sub(shl(0x40, 0x01), 0x01)\n        /* \"#utility.yul\":1492:1497   */\n      dup2\n        /* \"#utility.yul\":1488:1518   */\n      and\n        /* \"#utility.yul\":1481:1486   */\n      dup2\n        /* \"#utility.yul\":1478:1519   */\n      eq\n        /* \"#utility.yul\":1468:1537   */\n      tag_208\n      jumpi\n        /* \"#utility.yul\":1533:1534   */\n      0x00\n        /* \"#utility.yul\":1530:1531   */\n      0x00\n        /* \"#utility.yul\":1523:1535   */\n      revert\n        /* \"#utility.yul\":1468:1537   */\n    tag_208:\n        /* \"#utility.yul\":1414:1543   */\n      pop\n      jump\t// out\n        /* \"#utility.yul\":1548:1666   */\n    tag_191:\n        /* \"#utility.yul\":1634:1639   */\n      dup1\n        /* \"#utility.yul\":1627:1640   */\n      iszero\n        /* \"#utility.yul\":1620:1641   */\n      iszero\n        /* \"#utility.yul\":1613:1618   */\n      dup2\n        /* \"#utility.yul\":1610:1642   */\n      eq\n        /* \"#utility.yul\":1600:1660   */\n      tag_208\n      jumpi\n        /* \"#utility.yul\":1656:1657   */\n      0x00\n        /* \"#utility.yul\":1653:1654   */\n      0x00\n        /* \"#utility.yul\":1646:1658   */\n      revert\n        /* \"#utility.yul\":1671:2795   */\n    tag_28:\n        /* \"#utility.yul\":1788:1794   */\n      0x00\n        /* \"#utility.yul\":1796:1802   */\n      0x00\n        /* \"#utility.yul\":1804:1810   */\n      0x00\n        /* \"#utility.yul\":1812:1818   */\n      0x00\n        /* \"#utility.yul\":1820:1826   */\n      0x00\n        /* \"#utility.yul\":1828:1834   */\n      0x00\n        /* \"#utility.yul\":1836:1842   */\n      0x00\n        /* \"#utility.yul\":1844:1850   */\n      0x00\n        /* \"#utility.yul\":1897:1900   */\n      0x0100\n        /* \"#utility.yul\":1885:1894   */\n      dup10\n        /* \"#utility.yul\":1876:1883   */\n      dup12\n        /* \"#utility.yul\":1872:1895   */\n      sub\n        /* \"#utility.yul\":1868:1901   */\n      slt\n        /* \"#utility.yul\":1865:1918   */\n      iszero\n      tag_212\n      jumpi\n        /* \"#utility.yul\":1914:1915   */\n      0x00\n        /* \"#utility.yul\":1911:1912   */\n      0x00\n        /* \"#utility.yul\":1904:1916   */\n      revert\n        /* \"#utility.yul\":1865:1918   */\n    tag_212:\n        /* \"#utility.yul\":1953:1962   */\n      dup9\n        /* \"#utility.yul\":1940:1963   */\n      calldataload\n        /* \"#utility.yul\":1972:2002   */\n      tag_213\n        /* \"#utility.yul\":1996:2001   */\n      dup2\n        /* \"#utility.yul\":1972:2002   */\n      tag_190\n      jump\t// in\n    tag_213:\n        /* \"#utility.yul\":2021:2026   */\n      swap8\n      pop\n        /* \"#utility.yul\":2078:2080   */\n      0x20\n        /* \"#utility.yul\":2063:2081   */\n      dup10\n      add\n        /* \"#utility.yul\":2050:2082   */\n      calldataload\n        /* \"#utility.yul\":2091:2123   */\n      tag_214\n        /* \"#utility.yul\":2050:2082   */\n      dup2\n        /* \"#utility.yul\":2091:2123   */\n      tag_190\n      jump\t// in\n    tag_214:\n        /* \"#utility.yul\":2142:2149   */\n      swap7\n      pop\n        /* \"#utility.yul\":2222:2224   */\n      0x40\n        /* \"#utility.yul\":2207:2225   */\n      dup10\n      add\n        /* \"#utility.yul\":2194:2226   */\n      calldataload\n      swap6\n      pop\n        /* \"#utility.yul\":2325:2327   */\n      0x60\n        /* \"#utility.yul\":2310:2328   */\n      dup10\n      add\n        /* \"#utility.yul\":2297:2329   */\n      calldataload\n      swap5\n      pop\n        /* \"#utility.yul\":2428:2431   */\n      0x80\n        /* \"#utility.yul\":2413:2432   */\n      dup10\n      add\n        /* \"#utility.yul\":2400:2433   */\n      calldataload\n      swap4\n      pop\n        /* \"#utility.yul\":2532:2535   */\n      0xa0\n        /* \"#utility.yul\":2517:2536   */\n      dup10\n      add\n        /* \"#utility.yul\":2504:2537   */\n      calldataload\n      swap3\n      pop\n        /* \"#utility.yul\":2636:2639   */\n      0xc0\n        /* \"#utility.yul\":2621:2640   */\n      dup10\n      add\n        /* \"#utility.yul\":2608:2641   */\n      calldataload\n      swap2\n      pop\n        /* \"#utility.yul\":2719:2722   */\n      0xe0\n        /* \"#utility.yul\":2704:2723   */\n      dup10\n      add\n        /* \"#utility.yul\":2691:2724   */\n      calldataload\n        /* \"#utility.yul\":2733:2763   */\n      tag_215\n        /* \"#utility.yul\":2691:2724   */\n      dup2\n        /* \"#utility.yul\":2733:2763   */\n      tag_191\n      jump\t// in\n    tag_215:\n        /* \"#utility.yul\":2782:2789   */\n      dup1\n        /* \"#utility.yul\":2772:2789   */\n      swap2\n      pop\n      pop\n        /* \"#utility.yul\":1671:2795   */\n      swap3\n      swap6\n      swap9\n      pop\n      swap3\n      swap6\n      swap9\n      swap1\n      swap4\n      swap7\n      pop\n      jump\t// out\n        /* \"#utility.yul\":2982:3271   */\n    tag_192:\n        /* \"#utility.yul\":3024:3027   */\n      0x00\n        /* \"#utility.yul\":3062:3067   */\n      dup2\n        /* \"#utility.yul\":3056:3068   */\n      mload\n        /* \"#utility.yul\":3089:3095   */\n      dup1\n        /* \"#utility.yul\":3084:3087   */\n      dup5\n        /* \"#utility.yul\":3077:3096   */\n      mstore\n        /* \"#utility.yul\":3145:3151   */\n      dup1\n        /* \"#utility.yul\":3138:3142   */\n      0x20\n        /* \"#utility.yul\":3131:3136   */\n      dup5\n        /* \"#utility.yul\":3127:3143   */\n      add\n        /* \"#utility.yul\":3120:3124   */\n      0x20\n        /* \"#utility.yul\":3115:3118   */\n      dup7\n        /* \"#utility.yul\":3111:3125   */\n      add\n        /* \"#utility.yul\":3105:3152   */\n      mcopy\n        /* \"#utility.yul\":3197:3198   */\n      0x00\n        /* \"#utility.yul\":3190:3194   */\n      0x20\n        /* \"#utility.yul\":3181:3187   */\n      dup3\n        /* \"#utility.yul\":3176:3179   */\n      dup7\n        /* \"#utility.yul\":3172:3188   */\n      add\n        /* \"#utility.yul\":3168:3195   */\n      add\n        /* \"#utility.yul\":3161:3199   */\n      mstore\n        /* \"#utility.yul\":3260:3264   */\n      0x20\n        /* \"#utility.yul\":3253:3255   */\n      0x1f\n        /* \"#utility.yul\":3249:3256   */\n      not\n        /* \"#utility.yul\":3244:3246   */\n      0x1f\n        /* \"#utility.yul\":3236:3242   */\n      dup4\n        /* \"#utility.yul\":3232:3247   */\n      add\n        /* \"#utility.yul\":3228:3257   */\n      and\n        /* \"#utility.yul\":3223:3226   */\n      dup6\n        /* \"#utility.yul\":3219:3258   */\n      add\n        /* \"#utility.yul\":3215:3265   */\n      add\n        /* \"#utility.yul\":3208:3265   */\n      swap2\n      pop\n      pop\n        /* \"#utility.yul\":2982:3271   */\n      swap3\n      swap2\n      pop\n      pop\n      jump\t// out\n        /* \"#utility.yul\":3276:3403   */\n    tag_160:\n        /* \"#utility.yul\":3337:3347   */\n      0x4e487b71\n        /* \"#utility.yul\":3332:3335   */\n      0xe0\n        /* \"#utility.yul\":3328:3348   */\n      shl\n        /* \"#utility.yul\":3325:3326   */\n      0x00\n        /* \"#utility.yul\":3318:3349   */\n      mstore\n        /* \"#utility.yul\":3368:3372   */\n      0x21\n        /* \"#utility.yul\":3365:3366   */\n      0x04\n        /* \"#utility.yul\":3358:3373   */\n      mstore\n        /* \"#utility.yul\":3392:3396   */\n      0x24\n        /* \"#utility.yul\":3389:3390   */\n      0x00\n        /* \"#utility.yul\":3382:3397   */\n      revert\n        /* \"#utility.yul\":3408:3645   */\n    tag_193:\n        /* \"#utility.yul\":3488:3490   */\n      0x10\n        /* \"#utility.yul\":3481:3486   */\n      dup2\n        /* \"#utility.yul\":3478:3491   */\n      lt\n        /* \"#utility.yul\":3468:3612   */\n      tag_220\n      jumpi\n        /* \"#utility.yul\":3534:3544   */\n      0x4e487b71\n        /* \"#utility.yul\":3529:3532   */\n      0xe0\n        /* \"#utility.yul\":3525:3545   */\n      shl\n        /* \"#utility.yul\":3522:3523   */\n      0x00\n        /* \"#utility.yul\":3515:3546   */\n      mstore\n        /* \"#utility.yul\":3569:3573   */\n      0x21\n        /* \"#utility.yul\":3566:3567   */\n      0x04\n        /* \"#utility.yul\":3559:3574   */\n      mstore\n        /* \"#utility.yul\":3597:3601   */\n      0x24\n        /* \"#utility.yul\":3594:3595   */\n      0x00\n        /* \"#utility.yul\":3587:3602   */\n      revert\n        /* \"#utility.yul\":3468:3612   */\n    tag_220:\n        /* \"#utility.yul\":3621:3639   */\n      swap1\n      mstore\n        /* \"#utility.yul\":3408:3645   */\n      jump\t// out\n        /* \"#utility.yul\":3650:4185   */\n    tag_37:\n        /* \"#utility.yul\":3921:3924   */\n      0xa0\n        /* \"#utility.yul\":3910:3919   */\n      dup2\n        /* \"#utility.yul\":3903:3925   */\n      mstore\n        /* \"#utility.yul\":3884:3888   */\n      0x00\n        /* \"#utility.yul\":3942:3988   */\n      tag_222\n        /* \"#utility.yul\":3983:3986   */\n      0xa0\n        /* \"#utility.yul\":3972:3981   */\n      dup4\n        /* \"#utility.yul\":3968:3987   */\n      add\n        /* \"#utility.yul\":3960:3966   */\n      dup9\n        /* \"#utility.yul\":3942:3988   */\n      tag_192\n      jump\t// in\n    tag_222:\n        /* \"#utility.yul\":3934:3988   */\n      swap1\n      pop\n        /* \"#utility.yul\":3997:4049   */\n      tag_223\n        /* \"#utility.yul\":4045:4047   */\n      0x20\n        /* \"#utility.yul\":4034:4043   */\n      dup4\n        /* \"#utility.yul\":4030:4048   */\n      add\n        /* \"#utility.yul\":4022:4028   */\n      dup8\n        /* \"#utility.yul\":3997:4049   */\n      tag_193\n      jump\t// in\n    tag_223:\n        /* \"#utility.yul\":4085:4091   */\n      dup5\n        /* \"#utility.yul\":4080:4082   */\n      0x40\n        /* \"#utility.yul\":4069:4078   */\n      dup4\n        /* \"#utility.yul\":4065:4083   */\n      add\n        /* \"#utility.yul\":4058:4092   */\n      mstore\n        /* \"#utility.yul\":4128:4134   */\n      dup4\n        /* \"#utility.yul\":4123:4125   */\n      0x60\n        /* \"#utility.yul\":4112:4121   */\n      dup4\n        /* \"#utility.yul\":4108:4126   */\n      add\n        /* \"#utility.yul\":4101:4135   */\n      mstore\n        /* \"#utility.yul\":4172:4178   */\n      dup3\n        /* \"#utility.yul\":4166:4169   */\n      0x80\n        /* \"#utility.yul\":4155:4164   */\n      dup4\n        /* \"#utility.yul\":4151:4170   */\n      add\n        /* \"#utility.yul\":4144:4179   */\n      mstore\n        /* \"#utility.yul\":3650:4185   */\n      swap7\n      swap6\n      pop\n      pop\n      pop\n      pop\n      pop\n      pop\n      jump\t// out\n        /* \"#utility.yul\":4930:5216   */\n    tag_51:\n        /* \"#utility.yul\":4989:4995   */\n      0x00\n        /* \"#utility.yul\":5042:5044   */\n      0x20\n        /* \"#utility.yul\":5030:5039   */\n      dup3\n        /* \"#utility.yul\":5021:5028   */\n      dup5\n        /* \"#utility.yul\":5017:5040   */\n      sub\n        /* \"#utility.yul\":5013:5045   */\n      slt\n        /* \"#utility.yul\":5010:5062   */\n      iszero\n      tag_226\n      jumpi\n        /* \"#utility.yul\":5058:5059   */\n      0x00\n        /* \"#utility.yul\":5055:5056   */\n      0x00\n        /* \"#utility.yul\":5048:5060   */\n      revert\n        /* \"#utility.yul\":5010:5062   */\n    tag_226:\n        /* \"#utility.yul\":5084:5107   */\n      dup2\n      calldataload\n      sub(shl(0xa0, 0x01), 0x01)\n        /* \"#utility.yul\":5136:5167   */\n      dup2\n      and\n        /* \"#utility.yul\":5126:5168   */\n      dup2\n      eq\n        /* \"#utility.yul\":5116:5186   */\n      tag_106\n      jumpi\n        /* \"#utility.yul\":5182:5183   */\n      0x00\n        /* \"#utility.yul\":5179:5180   */\n      0x00\n        /* \"#utility.yul\":5172:5184   */\n      revert\n        /* \"#utility.yul\":5221:5441   */\n    tag_56:\n        /* \"#utility.yul\":5370:5372   */\n      0x20\n        /* \"#utility.yul\":5359:5368   */\n      dup2\n        /* \"#utility.yul\":5352:5373   */\n      mstore\n        /* \"#utility.yul\":5333:5337   */\n      0x00\n        /* \"#utility.yul\":5390:5435   */\n      tag_106\n        /* \"#utility.yul\":5431:5433   */\n      0x20\n        /* \"#utility.yul\":5420:5429   */\n      dup4\n        /* \"#utility.yul\":5416:5434   */\n      add\n        /* \"#utility.yul\":5408:5414   */\n      dup5\n        /* \"#utility.yul\":5390:5435   */\n      tag_192\n      jump\t// in\n        /* \"#utility.yul\":5654:5859   */\n    tag_67:\n        /* \"#utility.yul\":5798:5800   */\n      0x20\n        /* \"#utility.yul\":5783:5801   */\n      dup2\n      add\n        /* \"#utility.yul\":5810:5853   */\n      tag_232\n        /* \"#utility.yul\":5787:5796   */\n      dup3\n        /* \"#utility.yul\":5835:5841   */\n      dup5\n        /* \"#utility.yul\":5810:5853   */\n      tag_193\n      jump\t// in\n    tag_232:\n        /* \"#utility.yul\":5654:5859   */\n      swap3\n      swap2\n      pop\n      pop\n      jump\t// out\n        /* \"#utility.yul\":5864:5991   */\n    tag_78:\n        /* \"#utility.yul\":5925:5935   */\n      0x4e487b71\n        /* \"#utility.yul\":5920:5923   */\n      0xe0\n        /* \"#utility.yul\":5916:5936   */\n      shl\n        /* \"#utility.yul\":5913:5914   */\n      0x00\n        /* \"#utility.yul\":5906:5937   */\n      mstore\n        /* \"#utility.yul\":5956:5960   */\n      0x41\n        /* \"#utility.yul\":5953:5954   */\n      0x04\n        /* \"#utility.yul\":5946:5961   */\n      mstore\n        /* \"#utility.yul\":5980:5984   */\n      0x24\n        /* \"#utility.yul\":5977:5978   */\n      0x00\n        /* \"#utility.yul\":5970:5985   */\n      revert\n        /* \"#utility.yul\":5996:6123   */\n    tag_194:\n        /* \"#utility.yul\":6057:6067   */\n      0x4e487b71\n        /* \"#utility.yul\":6052:6055   */\n      0xe0\n        /* \"#utility.yul\":6048:6068   */\n      shl\n        /* \"#utility.yul\":6045:6046   */\n      0x00\n        /* \"#utility.yul\":6038:6069   */\n      mstore\n        /* \"#utility.yul\":6088:6092   */\n      0x11\n        /* \"#utility.yul\":6085:6086   */\n      0x04\n        /* \"#utility.yul\":6078:6093   */\n      mstore\n        /* \"#utility.yul\":6112:6116   */\n      0x24\n        /* \"#utility.yul\":6109:6110   */\n      0x00\n        /* \"#utility.yul\":6102:6117   */\n      revert\n        /* \"#utility.yul\":6128:6256   */\n    tag_94:\n        /* \"#utility.yul\":6195:6204   */\n      dup2\n      dup2\n      sub\n        /* \"#utility.yul\":6216:6227   */\n      dup2\n      dup2\n      gt\n        /* \"#utility.yul\":6213:6250   */\n      iszero\n      tag_232\n      jumpi\n        /* \"#utility.yul\":6230:6248   */\n      tag_232\n      tag_194\n      jump\t// in\n        /* \"#utility.yul\":6261:6386   */\n    tag_99:\n        /* \"#utility.yul\":6326:6335   */\n      dup1\n      dup3\n      add\n        /* \"#utility.yul\":6347:6357   */\n      dup1\n      dup3\n      gt\n        /* \"#utility.yul\":6344:6380   */\n      iszero\n      tag_232\n      jumpi\n        /* \"#utility.yul\":6360:6378   */\n      tag_232\n      tag_194\n      jump\t// in\n        /* \"#utility.yul\":6391:6518   */\n    tag_102:\n        /* \"#utility.yul\":6452:6462   */\n      0x4e487b71\n        /* \"#utility.yul\":6447:6450   */\n      0xe0\n        /* \"#utility.yul\":6443:6463   */\n      shl\n        /* \"#utility.yul\":6440:6441   */\n      0x00\n        /* \"#utility.yul\":6433:6464   */\n      mstore\n        /* \"#utility.yul\":6483:6487   */\n      0x32\n        /* \"#utility.yul\":6480:6481   */\n      0x04\n        /* \"#utility.yul\":6473:6488   */\n      mstore\n        /* \"#utility.yul\":6507:6511   */\n      0x24\n        /* \"#utility.yul\":6504:6505   */\n      0x00\n        /* \"#utility.yul\":6497:6512   */\n      revert\n        /* \"#utility.yul\":6523:6732   */\n    tag_111:\n        /* \"#utility.yul\":6555:6556   */\n      0x00\n        /* \"#utility.yul\":6581:6582   */\n      dup3\n        /* \"#utility.yul\":6571:6703   */\n      tag_243\n      jumpi\n        /* \"#utility.yul\":6625:6635   */\n      0x4e487b71\n        /* \"#utility.yul\":6620:6623   */\n      0xe0\n        /* \"#utility.yul\":6616:6636   */\n      shl\n        /* \"#utility.yul\":6613:6614   */\n      0x00\n        /* \"#utility.yul\":6606:6637   */\n      mstore\n        /* \"#utility.yul\":6660:6664   */\n      0x12\n        /* \"#utility.yul\":6657:6658   */\n      0x04\n        /* \"#utility.yul\":6650:6665   */\n      mstore\n        /* \"#utility.yul\":6688:6692   */\n      0x24\n        /* \"#utility.yul\":6685:6686   */\n      0x00\n        /* \"#utility.yul\":6678:6693   */\n      revert\n        /* \"#utility.yul\":6571:6703   */\n    tag_243:\n      pop\n        /* \"#utility.yul\":6717:6726   */\n      mod\n      swap1\n        /* \"#utility.yul\":6523:6732   */\n      jump\t// out\n        /* \"#utility.yul\":7092:7472   */\n    tag_165:\n        /* \"#utility.yul\":7171:7172   */\n      0x01\n        /* \"#utility.yul\":7167:7179   */\n      dup2\n      dup2\n      shr\n      swap1\n        /* \"#utility.yul\":7214:7226   */\n      dup3\n      and\n      dup1\n        /* \"#utility.yul\":7235:7296   */\n      tag_246\n      jumpi\n        /* \"#utility.yul\":7289:7293   */\n      0x7f\n        /* \"#utility.yul\":7281:7287   */\n      dup3\n        /* \"#utility.yul\":7277:7294   */\n      and\n        /* \"#utility.yul\":7267:7294   */\n      swap2\n      pop\n        /* \"#utility.yul\":7235:7296   */\n    tag_246:\n        /* \"#utility.yul\":7342:7344   */\n      0x20\n        /* \"#utility.yul\":7334:7340   */\n      dup3\n        /* \"#utility.yul\":7331:7345   */\n      lt\n        /* \"#utility.yul\":7311:7329   */\n      dup2\n        /* \"#utility.yul\":7308:7346   */\n      sub\n        /* \"#utility.yul\":7305:7466   */\n      tag_247\n      jumpi\n        /* \"#utility.yul\":7388:7398   */\n      0x4e487b71\n        /* \"#utility.yul\":7383:7386   */\n      0xe0\n        /* \"#utility.yul\":7379:7399   */\n      shl\n        /* \"#utility.yul\":7376:7377   */\n      0x00\n        /* \"#utility.yul\":7369:7400   */\n      mstore\n        /* \"#utility.yul\":7423:7427   */\n      0x22\n        /* \"#utility.yul\":7420:7421   */\n      0x04\n        /* \"#utility.yul\":7413:7428   */\n      mstore\n        /* \"#utility.yul\":7451:7455   */\n      0x24\n        /* \"#utility.yul\":7448:7449   */\n      0x00\n        /* \"#utility.yul\":7441:7456   */\n      revert\n        /* \"#utility.yul\":7305:7466   */\n    tag_247:\n      pop\n        /* \"#utility.yul\":7092:7472   */\n      swap2\n      swap1\n      pop\n      jump\t// out\n        /* \"#utility.yul\":7603:8681   */\n    tag_157:\n        /* \"#utility.yul\":7731:7734   */\n      0x00\n        /* \"#utility.yul\":7760:7761   */\n      0x00\n        /* \"#utility.yul\":7793:7799   */\n      dup4\n        /* \"#utility.yul\":7787:7800   */\n      sload\n        /* \"#utility.yul\":7823:7824   */\n      0x00\n        /* \"#utility.yul\":7850:7859   */\n      dup2\n        /* \"#utility.yul\":7847:7848   */\n      0x01\n        /* \"#utility.yul\":7843:7860   */\n      shr\n        /* \"#utility.yul\":7833:7860   */\n      swap1\n      pop\n        /* \"#utility.yul\":7910:7911   */\n      0x01\n        /* \"#utility.yul\":7899:7908   */\n      dup3\n        /* \"#utility.yul\":7895:7912   */\n      and\n        /* \"#utility.yul\":7931:7949   */\n      dup1\n        /* \"#utility.yul\":7921:7982   */\n      tag_250\n      jumpi\n        /* \"#utility.yul\":7975:7979   */\n      0x7f\n        /* \"#utility.yul\":7967:7973   */\n      dup3\n        /* \"#utility.yul\":7963:7980   */\n      and\n        /* \"#utility.yul\":7953:7980   */\n      swap2\n      pop\n        /* \"#utility.yul\":7921:7982   */\n    tag_250:\n        /* \"#utility.yul\":8028:8030   */\n      0x20\n        /* \"#utility.yul\":8020:8026   */\n      dup3\n        /* \"#utility.yul\":8017:8031   */\n      lt\n        /* \"#utility.yul\":7997:8015   */\n      dup2\n        /* \"#utility.yul\":7994:8032   */\n      sub\n        /* \"#utility.yul\":7991:8152   */\n      tag_251\n      jumpi\n        /* \"#utility.yul\":8074:8084   */\n      0x4e487b71\n        /* \"#utility.yul\":8069:8072   */\n      0xe0\n        /* \"#utility.yul\":8065:8085   */\n      shl\n        /* \"#utility.yul\":8062:8063   */\n      0x00\n        /* \"#utility.yul\":8055:8086   */\n      mstore\n        /* \"#utility.yul\":8109:8113   */\n      0x22\n        /* \"#utility.yul\":8106:8107   */\n      0x04\n        /* \"#utility.yul\":8099:8114   */\n      mstore\n        /* \"#utility.yul\":8137:8141   */\n      0x24\n        /* \"#utility.yul\":8134:8135   */\n      0x00\n        /* \"#utility.yul\":8127:8142   */\n      revert\n        /* \"#utility.yul\":7991:8152   */\n    tag_251:\n        /* \"#utility.yul\":8168:8186   */\n      dup1\n        /* \"#utility.yul\":8195:8328   */\n      dup1\n      iszero\n      tag_253\n      jumpi\n        /* \"#utility.yul\":8342:8343   */\n      0x01\n        /* \"#utility.yul\":8337:8656   */\n      dup2\n      eq\n      tag_254\n      jumpi\n        /* \"#utility.yul\":8161:8656   */\n      jump(tag_252)\n        /* \"#utility.yul\":8195:8328   */\n    tag_253:\n      not(0xff)\n        /* \"#utility.yul\":8228:8252   */\n      dup5\n      and\n        /* \"#utility.yul\":8216:8253   */\n      dup8\n      mstore\n        /* \"#utility.yul\":8301:8315   */\n      dup3\n      iszero\n        /* \"#utility.yul\":8294:8316   */\n      iszero\n        /* \"#utility.yul\":8282:8317   */\n      dup4\n      mul\n        /* \"#utility.yul\":8273:8318   */\n      dup8\n      add\n      swap5\n      pop\n        /* \"#utility.yul\":8195:8328   */\n      jump(tag_252)\n        /* \"#utility.yul\":8337:8656   */\n    tag_254:\n        /* \"#utility.yul\":7550:7551   */\n      0x00\n        /* \"#utility.yul\":7543:7557   */\n      dup9\n      dup2\n      mstore\n        /* \"#utility.yul\":7587:7591   */\n      0x20\n        /* \"#utility.yul\":7574:7592   */\n      swap1\n      keccak256\n        /* \"#utility.yul\":8432:8433   */\n      0x00\n        /* \"#utility.yul\":8446:8610   */\n    tag_256:\n        /* \"#utility.yul\":8460:8466   */\n      dup5\n        /* \"#utility.yul\":8457:8458   */\n      dup2\n        /* \"#utility.yul\":8454:8467   */\n      lt\n        /* \"#utility.yul\":8446:8610   */\n      iszero\n      tag_258\n      jumpi\n        /* \"#utility.yul\":8538:8552   */\n      dup2\n      sload\n        /* \"#utility.yul\":8525:8536   */\n      dup10\n      dup3\n      add\n        /* \"#utility.yul\":8518:8553   */\n      mstore\n        /* \"#utility.yul\":8594:8595   */\n      0x01\n        /* \"#utility.yul\":8581:8596   */\n      swap1\n      swap2\n      add\n      swap1\n        /* \"#utility.yul\":8482:8484   */\n      0x20\n        /* \"#utility.yul\":8475:8485   */\n      add\n        /* \"#utility.yul\":8446:8610   */\n      jump(tag_256)\n    tag_258:\n        /* \"#utility.yul\":8450:8453   */\n      pop\n      pop\n        /* \"#utility.yul\":8639:8645   */\n      dup3\n        /* \"#utility.yul\":8634:8637   */\n      dup8\n        /* \"#utility.yul\":8630:8646   */\n      add\n        /* \"#utility.yul\":8623:8646   */\n      swap5\n      pop\n        /* \"#utility.yul\":8161:8656   */\n    tag_252:\n      pop\n        /* \"#utility.yul\":8672:8675   */\n      swap3\n      swap7\n        /* \"#utility.yul\":7603:8681   */\n      swap6\n      pop\n      pop\n      pop\n      pop\n      pop\n      pop\n      jump\t// out\n        /* \"#utility.yul\":8972:9227   */\n    tag_196:\n        /* \"#utility.yul\":9044:9046   */\n      0x40\n        /* \"#utility.yul\":9038:9047   */\n      mload\n        /* \"#utility.yul\":9086:9092   */\n      0x0100\n        /* \"#utility.yul\":9074:9093   */\n      dup2\n      add\n      sub(shl(0x40, 0x01), 0x01)\n        /* \"#utility.yul\":9108:9142   */\n      dup2\n      gt\n        /* \"#utility.yul\":9144:9166   */\n      dup3\n      dup3\n      lt\n        /* \"#utility.yul\":9105:9167   */\n      or\n        /* \"#utility.yul\":9102:9190   */\n      iszero\n      tag_262\n      jumpi\n        /* \"#utility.yul\":9170:9188   */\n      tag_262\n      tag_78\n      jump\t// in\n    tag_262:\n        /* \"#utility.yul\":9206:9208   */\n      0x40\n        /* \"#utility.yul\":9199:9221   */\n      mstore\n        /* \"#utility.yul\":8972:9227   */\n      swap1\n      jump\t// out\n        /* \"#utility.yul\":9232:9507   */\n    tag_197:\n        /* \"#utility.yul\":9303:9305   */\n      0x40\n        /* \"#utility.yul\":9297:9306   */\n      mload\n        /* \"#utility.yul\":9368:9370   */\n      0x1f\n        /* \"#utility.yul\":9349:9362   */\n      dup3\n      add\n      not(0x1f)\n        /* \"#utility.yul\":9345:9372   */\n      and\n        /* \"#utility.yul\":9333:9373   */\n      dup2\n      add\n      sub(shl(0x40, 0x01), 0x01)\n        /* \"#utility.yul\":9388:9422   */\n      dup2\n      gt\n        /* \"#utility.yul\":9424:9446   */\n      dup3\n      dup3\n      lt\n        /* \"#utility.yul\":9385:9447   */\n      or\n        /* \"#utility.yul\":9382:9470   */\n      iszero\n      tag_265\n      jumpi\n        /* \"#utility.yul\":9450:9468   */\n      tag_265\n      tag_78\n      jump\t// in\n    tag_265:\n        /* \"#utility.yul\":9486:9488   */\n      0x40\n        /* \"#utility.yul\":9479:9501   */\n      mstore\n        /* \"#utility.yul\":9232:9507   */\n      swap2\n      swap1\n      pop\n      jump\t// out\n        /* \"#utility.yul\":9512:9648   */\n    tag_198:\n        /* \"#utility.yul\":9590:9603   */\n      dup1\n      mload\n        /* \"#utility.yul\":9612:9642   */\n      tag_267\n        /* \"#utility.yul\":9590:9603   */\n      dup2\n        /* \"#utility.yul\":9612:9642   */\n      tag_190\n      jump\t// in\n    tag_267:\n        /* \"#utility.yul\":9512:9648   */\n      swap2\n      swap1\n      pop\n      jump\t// out\n        /* \"#utility.yul\":9653:9785   */\n    tag_199:\n        /* \"#utility.yul\":9729:9742   */\n      dup1\n      mload\n        /* \"#utility.yul\":9751:9779   */\n      tag_267\n        /* \"#utility.yul\":9729:9742   */\n      dup2\n        /* \"#utility.yul\":9751:9779   */\n      tag_191\n      jump\t// in\n        /* \"#utility.yul\":9790:11709   */\n    tag_177:\n        /* \"#utility.yul\":9915:9921   */\n      0x00\n        /* \"#utility.yul\":9968:9970   */\n      0x20\n        /* \"#utility.yul\":9956:9965   */\n      dup3\n        /* \"#utility.yul\":9947:9954   */\n      dup5\n        /* \"#utility.yul\":9943:9966   */\n      sub\n        /* \"#utility.yul\":9939:9971   */\n      slt\n        /* \"#utility.yul\":9936:9988   */\n      iszero\n      tag_271\n      jumpi\n        /* \"#utility.yul\":9984:9985   */\n      0x00\n        /* \"#utility.yul\":9981:9982   */\n      0x00\n        /* \"#utility.yul\":9974:9986   */\n      revert\n        /* \"#utility.yul\":9936:9988   */\n    tag_271:\n        /* \"#utility.yul\":10017:10026   */\n      dup2\n        /* \"#utility.yul\":10011:10027   */\n      mload\n      sub(shl(0x40, 0x01), 0x01)\n        /* \"#utility.yul\":10042:10048   */\n      dup2\n        /* \"#utility.yul\":10039:10069   */\n      gt\n        /* \"#utility.yul\":10036:10086   */\n      iszero\n      tag_272\n      jumpi\n        /* \"#utility.yul\":10082:10083   */\n      0x00\n        /* \"#utility.yul\":10079:10080   */\n      0x00\n        /* \"#utility.yul\":10072:10084   */\n      revert\n        /* \"#utility.yul\":10036:10086   */\n    tag_272:\n        /* \"#utility.yul\":10105:10127   */\n      dup3\n      add\n        /* \"#utility.yul\":10158:10162   */\n      0x1f\n        /* \"#utility.yul\":10150:10163   */\n      dup2\n      add\n        /* \"#utility.yul\":10146:10173   */\n      dup5\n      sgt\n        /* \"#utility.yul\":10136:10191   */\n      tag_273\n      jumpi\n        /* \"#utility.yul\":10187:10188   */\n      0x00\n        /* \"#utility.yul\":10184:10185   */\n      0x00\n        /* \"#utility.yul\":10177:10189   */\n      revert\n        /* \"#utility.yul\":10136:10191   */\n    tag_273:\n        /* \"#utility.yul\":10220:10222   */\n      dup1\n        /* \"#utility.yul\":10214:10223   */\n      mload\n      sub(shl(0x40, 0x01), 0x01)\n        /* \"#utility.yul\":10238:10244   */\n      dup2\n        /* \"#utility.yul\":10235:10265   */\n      gt\n        /* \"#utility.yul\":10232:10288   */\n      iszero\n      tag_275\n      jumpi\n        /* \"#utility.yul\":10268:10286   */\n      tag_275\n      tag_78\n      jump\t// in\n    tag_275:\n        /* \"#utility.yul\":10308:10348   */\n      tag_276\n        /* \"#utility.yul\":10344:10346   */\n      0x20\n        /* \"#utility.yul\":10335:10341   */\n      dup3\n        /* \"#utility.yul\":10332:10333   */\n      0x05\n        /* \"#utility.yul\":10328:10342   */\n      shl\n        /* \"#utility.yul\":10324:10347   */\n      add\n        /* \"#utility.yul\":10308:10348   */\n      tag_197\n      jump\t// in\n    tag_276:\n        /* \"#utility.yul\":10370:10373   */\n      dup1\n        /* \"#utility.yul\":10394:10400   */\n      dup3\n        /* \"#utility.yul\":10389:10392   */\n      dup3\n        /* \"#utility.yul\":10382:10401   */\n      mstore\n        /* \"#utility.yul\":10426:10428   */\n      0x20\n        /* \"#utility.yul\":10421:10424   */\n      dup3\n        /* \"#utility.yul\":10417:10429   */\n      add\n        /* \"#utility.yul\":10410:10429   */\n      swap2\n      pop\n        /* \"#utility.yul\":10481:10483   */\n      0x20\n        /* \"#utility.yul\":10471:10477   */\n      dup4\n        /* \"#utility.yul\":10468:10469   */\n      0x08\n        /* \"#utility.yul\":10464:10478   */\n      shl\n        /* \"#utility.yul\":10460:10462   */\n      dup6\n        /* \"#utility.yul\":10456:10479   */\n      add\n        /* \"#utility.yul\":10452:10484   */\n      add\n        /* \"#utility.yul\":10438:10484   */\n      swap3\n      pop\n        /* \"#utility.yul\":10507:10514   */\n      dup7\n        /* \"#utility.yul\":10499:10505   */\n      dup4\n        /* \"#utility.yul\":10496:10515   */\n      gt\n        /* \"#utility.yul\":10493:10532   */\n      iszero\n      tag_277\n      jumpi\n        /* \"#utility.yul\":10528:10529   */\n      0x00\n        /* \"#utility.yul\":10525:10526   */\n      0x00\n        /* \"#utility.yul\":10518:10530   */\n      revert\n        /* \"#utility.yul\":10493:10532   */\n    tag_277:\n        /* \"#utility.yul\":10560:10562   */\n      0x20\n        /* \"#utility.yul\":10556:10558   */\n      dup5\n        /* \"#utility.yul\":10552:10563   */\n      add\n        /* \"#utility.yul\":10541:10563   */\n      swap4\n      pop\n        /* \"#utility.yul\":10572:11679   */\n    tag_278:\n        /* \"#utility.yul\":10588:10594   */\n      dup3\n        /* \"#utility.yul\":10583:10586   */\n      dup5\n        /* \"#utility.yul\":10580:10595   */\n      lt\n        /* \"#utility.yul\":10572:11679   */\n      iszero\n      tag_280\n      jumpi\n        /* \"#utility.yul\":10672:10678   */\n      0x0100\n        /* \"#utility.yul\":10666:10669   */\n      dup5\n        /* \"#utility.yul\":10657:10664   */\n      dup9\n        /* \"#utility.yul\":10653:10670   */\n      sub\n        /* \"#utility.yul\":10649:10679   */\n      slt\n        /* \"#utility.yul\":10646:10696   */\n      iszero\n      tag_281\n      jumpi\n        /* \"#utility.yul\":10692:10693   */\n      0x00\n        /* \"#utility.yul\":10689:10690   */\n      0x00\n        /* \"#utility.yul\":10682:10694   */\n      revert\n        /* \"#utility.yul\":10646:10696   */\n    tag_281:\n        /* \"#utility.yul\":10722:10744   */\n      tag_282\n      tag_196\n      jump\t// in\n    tag_282:\n        /* \"#utility.yul\":10778:10781   */\n      dup5\n        /* \"#utility.yul\":10772:10782   */\n      mload\n        /* \"#utility.yul\":10795:10827   */\n      tag_283\n        /* \"#utility.yul\":10819:10826   */\n      dup2\n        /* \"#utility.yul\":10795:10827   */\n      tag_190\n      jump\t// in\n    tag_283:\n        /* \"#utility.yul\":10840:10862   */\n      dup2\n      mstore\n        /* \"#utility.yul\":10898:10940   */\n      tag_284\n        /* \"#utility.yul\":10936:10938   */\n      0x20\n        /* \"#utility.yul\":10927:10939   */\n      dup7\n      add\n        /* \"#utility.yul\":10898:10940   */\n      tag_198\n      jump\t// in\n    tag_284:\n        /* \"#utility.yul\":10893:10895   */\n      0x20\n        /* \"#utility.yul\":10882:10896   */\n      dup3\n      add\n        /* \"#utility.yul\":10875:10941   */\n      mstore\n        /* \"#utility.yul\":11009:11011   */\n      0x40\n        /* \"#utility.yul\":11000:11012   */\n      dup6\n      dup2\n      add\n        /* \"#utility.yul\":10994:11013   */\n      mload\n        /* \"#utility.yul\":11033:11047   */\n      swap1\n      dup3\n      add\n        /* \"#utility.yul\":11026:11057   */\n      mstore\n        /* \"#utility.yul\":11125:11127   */\n      0x60\n        /* \"#utility.yul\":11116:11128   */\n      dup1\n      dup7\n      add\n        /* \"#utility.yul\":11110:11129   */\n      mload\n        /* \"#utility.yul\":11149:11163   */\n      swap1\n      dup3\n      add\n        /* \"#utility.yul\":11142:11173   */\n      mstore\n        /* \"#utility.yul\":11241:11244   */\n      0x80\n        /* \"#utility.yul\":11232:11245   */\n      dup1\n      dup7\n      add\n        /* \"#utility.yul\":11226:11246   */\n      mload\n        /* \"#utility.yul\":11266:11281   */\n      swap1\n      dup3\n      add\n        /* \"#utility.yul\":11259:11291   */\n      mstore\n        /* \"#utility.yul\":11359:11362   */\n      0xa0\n        /* \"#utility.yul\":11350:11363   */\n      dup1\n      dup7\n      add\n        /* \"#utility.yul\":11344:11364   */\n      mload\n        /* \"#utility.yul\":11384:11399   */\n      swap1\n      dup3\n      add\n        /* \"#utility.yul\":11377:11409   */\n      mstore\n        /* \"#utility.yul\":11477:11480   */\n      0xc0\n        /* \"#utility.yul\":11468:11481   */\n      dup1\n      dup7\n      add\n        /* \"#utility.yul\":11462:11482   */\n      mload\n        /* \"#utility.yul\":11502:11517   */\n      swap1\n      dup3\n      add\n        /* \"#utility.yul\":11495:11527   */\n      mstore\n        /* \"#utility.yul\":11564:11605   */\n      tag_285\n        /* \"#utility.yul\":11600:11603   */\n      0xe0\n        /* \"#utility.yul\":11591:11604   */\n      dup7\n      add\n        /* \"#utility.yul\":11564:11605   */\n      tag_199\n      jump\t// in\n    tag_285:\n        /* \"#utility.yul\":11558:11561   */\n      0xe0\n        /* \"#utility.yul\":11547:11562   */\n      dup3\n      add\n        /* \"#utility.yul\":11540:11606   */\n      mstore\n        /* \"#utility.yul\":11619:11637   */\n      dup3\n      mstore\n        /* \"#utility.yul\":10614:10620   */\n      0x0100\n        /* \"#utility.yul\":10605:10621   */\n      swap4\n      swap1\n      swap4\n      add\n      swap3\n        /* \"#utility.yul\":11666:11668   */\n      0x20\n        /* \"#utility.yul\":11657:11669   */\n      swap1\n      swap2\n      add\n      swap1\n        /* \"#utility.yul\":10572:11679   */\n      jump(tag_278)\n    tag_280:\n        /* \"#utility.yul\":11698:11703   */\n      swap7\n        /* \"#utility.yul\":9790:11709   */\n      swap6\n      pop\n      pop\n      pop\n      pop\n      pop\n      pop\n      jump\t// out\n\n    auxdata: 0xa2646970667358221220aabdc7245a3ce0cb07a9e069adb9a288f4b498c40c19d4450e3f18672ba804f264736f6c634300081e0033\n}\n",
				"bytecode": {
					"linkReferences": {},
					"object": "610100604052348015610010575f5ffd5b506040516118eb3803806118eb83398101604081905261002f916100d5565b5f61003a8782610251565b5084600f81111561004d5761004d61030b565b60a081600f8111156100615761006161030b565b9052506080939093526001600160a01b0391821660c052600480546001600160a01b0319169190921617905560e0525061031f9050565b634e487b7160e01b5f52604160045260245ffd5b8051601081106100ba575f5ffd5b919050565b80516001600160a01b03811681146100ba575f5ffd5b5f5f5f5f5f5f60c087890312156100ea575f5ffd5b86516001600160401b038111156100ff575f5ffd5b8701601f8101891361010f575f5ffd5b80516001600160401b0381111561012857610128610098565b604051601f8201601f19908116603f011681016001600160401b038111828210171561015657610156610098565b6040528181528282016020018b101561016d575f5ffd5b8160208401602083015e5f60208383010152809850505050610191602088016100ac565b604088015190955093506101a7606088016100bf565b92506101b5608088016100bf565b91505f60a08801519050809150509295509295509295565b600181811c908216806101e157607f821691505b6020821081036101ff57634e487b7160e01b5f52602260045260245ffd5b50919050565b601f82111561024c57805f5260205f20601f840160051c8101602085101561022a5750805b601f840160051c820191505b81811015610249575f8155600101610236565b50505b505050565b81516001600160401b0381111561026a5761026a610098565b61027e8161027884546101cd565b84610205565b6020601f8211600181146102b0575f83156102995750848201515b5f19600385901b1c1916600184901b178455610249565b5f84815260208120601f198516915b828110156102df57878501518255602094850194600190920191016102bf565b50848210156102fc57868401515f19600387901b60f8161c191681555b50505050600190811b01905550565b634e487b7160e01b5f52602160045260245ffd5b60805160a05160c05160e0516115296103c25f395f818161012c01528181610b500152610c1a01525f818161020e015281816106230152610ddb01525f818161026001528181610b710152610bf901525f818161029d0152818161036e0152818161048c015281816104b4015281816104d601528181610527015281816107090152818161074b015281816108ac01528181610b000152610c3e01526115295ff3fe608060405234801561000f575f5ffd5b50600436106100e5575f3560e01c80637adbf97311610088578063a89ae4ba11610063578063a89ae4ba14610248578063afb130531461025b578063b121608c1461028f578063b1af9f4c14610298575f5ffd5b80637adbf973146101e157806395d89b41146101f4578063966dae0e14610209575f5ffd5b80635a9b0b89116100c35780635a9b0b891461015c5780636297f23c146101755780636cfcdca71461017e578063718715d9146101d9575f5ffd5b80631a3ca7aa146100e95780633a499a531461011257806354fd4d5014610127575b5f5ffd5b6100fc6100f7366004610fc3565b6102bf565b6040516101099190610fda565b60405180910390f35b6101256101203660046110a3565b610618565b005b61014e7f000000000000000000000000000000000000000000000000000000000000000081565b604051908152602001610109565b610164610bf0565b60405161010995949392919061117c565b61014e60035481565b61019161018c366004610fc3565b610cf8565b604080516001600160401b03998a168152989097166020890152958701949094526060860192909252608085015260a084015260c0830152151560e082015261010001610109565b6100fc610d5f565b6101256101ef3660046111b9565b610dd0565b6101fc610ee7565b60405161010991906111df565b6102307f000000000000000000000000000000000000000000000000000000000000000081565b6040516001600160a01b039091168152602001610109565b600454610230906001600160a01b031681565b6102827f000000000000000000000000000000000000000000000000000000000000000081565b60405161010991906111f1565b61014e60025481565b61014e7f000000000000000000000000000000000000000000000000000000000000000081565b60606003545f0361030157604080515f80825260208201909252906102fa565b6102e7610f72565b8152602001906001900390816102df5790505b5092915050565b5f60035483116103115782610315565b6003545b90505f816001600160401b0381111561033057610330611205565b60405190808252806020026020018201604052801561036957816020015b610356610f72565b81526020019060019003908161034e5790505b5090507f00000000000000000000000000000000000000000000000000000000000000006003541015610487575f82600354116103a6575f6103b4565b826003546103b4919061122d565b90505f5b838110156104805760016103cc8284611240565b815481106103dc576103dc611253565b5f9182526020918290206040805161010081018252600790930290910180546001600160401b038082168552600160401b90910416938301939093526001830154908201526002820154606082015260038201546080820152600482015460a0820152600582015460c082015260069091015460ff16151560e0820152835184908390811061046d5761046d611253565b60209081029190910101526001016103b8565b5050610611565b6002547f0000000000000000000000000000000000000000000000000000000000000000831015610519577f0000000000000000000000000000000000000000000000000000000000000000837f00000000000000000000000000000000000000000000000000000000000000006002546105029190611240565b61050c919061122d565b6105169190611267565b90505b5f5b8381101561060e5760017f00000000000000000000000000000000000000000000000000000000000000006105508385611240565b61055a9190611267565b8154811061056a5761056a611253565b5f9182526020918290206040805161010081018252600790930290910180546001600160401b038082168552600160401b90910416938301939093526001830154908201526002820154606082015260038201546080820152600482015460a0820152600582015460c082015260069091015460ff16151560e082015283518490839081106105fb576105fb611253565b602090810291909101015260010161051b565b50505b9392505050565b336001600160a01b037f000000000000000000000000000000000000000000000000000000000000000016148061065957506004546001600160a01b031633145b6106aa5760405162461bcd60e51b815260206004820152601a60248201527f4b49443a204e6f7420666163746f7279206f72206f7261636c6500000000000060448201526064015b60405180910390fd5b60408051610100810182526001600160401b03808b16825289166020820152908101879052606081018690526080810185905260a0810184905260c0810183905281151560e08201526003545f90156108a2575f6002545f03610776577f00000000000000000000000000000000000000000000000000000000000000006003541461074457600160035461073f919061122d565b61076f565b61076f60017f000000000000000000000000000000000000000000000000000000000000000061122d565b9050610788565b6001600254610785919061122d565b90505b8a6001600160401b0316600182815481106107a5576107a5611253565b5f9182526020909120600790910201546001600160401b03161480156107f15750600181815481106107d9576107d9611253565b5f91825260209091206006600790920201015460ff16155b156108a057826001828154811061080a5761080a611253565b5f91825260209182902083516007909202018054928401516001600160401b03908116600160401b026001600160801b03199094169216919091179190911781556040820151600180830191909155606083015160028301556080830151600383015560a0830151600483015560c0830151600583015560e0909201516006909101805491151560ff1990921691909117905591505b505b80610b38576001547f00000000000000000000000000000000000000000000000000000000000000001115610a4e576001805480820182555f829052835160079091027fb10e2d527612073b26eecdfd717e6a320cf44b4afac2b0732d9fcbe2b7fa0cf68101805460208701516001600160401b03908116600160401b026001600160801b03199092169416939093179290921790915560408401517fb10e2d527612073b26eecdfd717e6a320cf44b4afac2b0732d9fcbe2b7fa0cf782015560608401517fb10e2d527612073b26eecdfd717e6a320cf44b4afac2b0732d9fcbe2b7fa0cf882015560808401517fb10e2d527612073b26eecdfd717e6a320cf44b4afac2b0732d9fcbe2b7fa0cf982015560a08401517fb10e2d527612073b26eecdfd717e6a320cf44b4afac2b0732d9fcbe2b7fa0cfa82015560c08401517fb10e2d527612073b26eecdfd717e6a320cf44b4afac2b0732d9fcbe2b7fa0cfb82015560e08401517fb10e2d527612073b26eecdfd717e6a320cf44b4afac2b0732d9fcbe2b7fa0cfc909101805491151560ff19909216919091179055546002819055600355610b38565b81600160025481548110610a6457610a64611253565b5f91825260209182902083516007909202018054928401516001600160401b03908116600160401b026001600160801b0319909416921691909117919091178155604082015160018083019190915560608301516002808401919091556080840151600384015560a0840151600484015560c0840151600584015560e0909301516006909201805492151560ff199093169290921790915590547f000000000000000000000000000000000000000000000000000000000000000091610b2a9190611240565b610b349190611267565b6002555b5f604051610b4691906112be565b60405180910390207f00000000000000000000000000000000000000000000000000000000000000007f0000000000000000000000000000000000000000000000000000000000000000600f811115610ba157610ba1611148565b604080516001600160401b038f16815285151560208201527f2938227ea55378ae62398d4f99af288fbab3774dab97fa96a060ea989cbc8001910160405180910390a450505050505050505050565b60605f5f5f5f5f7f00000000000000000000000000000000000000000000000000000000000000007f00000000000000000000000000000000000000000000000000000000000000006003547f0000000000000000000000000000000000000000000000000000000000000000848054610c6990611286565b80601f0160208091040260200160405190810160405280929190818152602001828054610c9590611286565b8015610ce05780601f10610cb757610100808354040283529160200191610ce0565b820191905f5260205f20905b815481529060010190602001808311610cc357829003601f168201915b50505050509450945094509450945094509091929394565b60018181548110610d07575f80fd5b5f91825260209091206007909102018054600182015460028301546003840154600485015460058601546006909601546001600160401b038087169850600160401b9096049095169593949293919290919060ff1688565b600354604051630d1e53d560e11b81526060913091631a3ca7aa91610d8a9160040190815260200190565b5f60405180830381865afa158015610da4573d5f5f3e3d5ffd5b505050506040513d5f823e601f3d908101601f19168201604052610dcb91908101906113ce565b905090565b336001600160a01b037f00000000000000000000000000000000000000000000000000000000000000001614610e485760405162461bcd60e51b815260206004820181905260248201527f4b49443a204f6e6c7920666163746f72792063616e20736574206f7261636c6560448201526064016106a1565b6001600160a01b038116610e9e5760405162461bcd60e51b815260206004820152601b60248201527f4b49443a20496e76616c6964206f7261636c652061646472657373000000000060448201526064016106a1565b600480546001600160a01b0319166001600160a01b0383169081179091556040517f107a9fafffb7ac890f780879e423760c9ffea8dcee8045681f40f542aede2cb8905f90a250565b5f8054610ef390611286565b80601f0160208091040260200160405190810160405280929190818152602001828054610f1f90611286565b8015610f6a5780601f10610f4157610100808354040283529160200191610f6a565b820191905f5260205f20905b815481529060010190602001808311610f4d57829003601f168201915b505050505081565b6040518061010001604052805f6001600160401b031681526020015f6001600160401b031681526020015f81526020015f81526020015f81526020015f81526020015f81526020015f151581525090565b5f60208284031215610fd3575f5ffd5b5035919050565b602080825282518282018190525f918401906040840190835b818110156110745783516001600160401b0381511684526001600160401b03602082015116602085015260408101516040850152606081015160608501526080810151608085015260a081015160a085015260c081015160c085015260e0810151151560e08501525061010083019250602084019350600181019050610ff3565b509095945050505050565b6001600160401b0381168114611093575f5ffd5b50565b8015158114611093575f5ffd5b5f5f5f5f5f5f5f5f610100898b0312156110bb575f5ffd5b88356110c68161107f565b975060208901356110d68161107f565b965060408901359550606089013594506080890135935060a0890135925060c0890135915060e089013561110981611096565b809150509295985092959890939650565b5f81518084528060208401602086015e5f602082860101526020601f19601f83011685010191505092915050565b634e487b7160e01b5f52602160045260245ffd5b6010811061117857634e487b7160e01b5f52602160045260245ffd5b9052565b60a081525f61118e60a083018861111a565b905061119d602083018761115c565b8460408301528360608301528260808301529695505050505050565b5f602082840312156111c9575f5ffd5b81356001600160a01b0381168114610611575f5ffd5b602081525f610611602083018461111a565b602081016111ff828461115c565b92915050565b634e487b7160e01b5f52604160045260245ffd5b634e487b7160e01b5f52601160045260245ffd5b818103818111156111ff576111ff611219565b808201808211156111ff576111ff611219565b634e487b7160e01b5f52603260045260245ffd5b5f8261128157634e487b7160e01b5f52601260045260245ffd5b500690565b600181811c9082168061129a57607f821691505b6020821081036112b857634e487b7160e01b5f52602260045260245ffd5b50919050565b5f5f83545f8160011c905060018216806112d957607f821691505b6020821081036112f757634e487b7160e01b5f52602260045260245ffd5b80801561130b57600181146113205761134e565b60ff198416875282151583028701945061134e565b5f888152602090205f5b848110156113465781548982015260019091019060200161132a565b505082870194505b50929695505050505050565b60405161010081016001600160401b038111828210171561137d5761137d611205565b60405290565b604051601f8201601f191681016001600160401b03811182821017156113ab576113ab611205565b604052919050565b80516113be8161107f565b919050565b80516113be81611096565b5f602082840312156113de575f5ffd5b81516001600160401b038111156113f3575f5ffd5b8201601f81018413611403575f5ffd5b80516001600160401b0381111561141c5761141c611205565b61142b60208260051b01611383565b8082825260208201915060208360081b85010192508683111561144c575f5ffd5b6020840193505b828410156114e957610100848803121561146b575f5ffd5b61147361135a565b845161147e8161107f565b815261148c602086016113b3565b602082015260408581015190820152606080860151908201526080808601519082015260a0808601519082015260c080860151908201526114cf60e086016113c3565b60e082015282526101009390930192602090910190611453565b969550505050505056fea2646970667358221220aabdc7245a3ce0cb07a9e069adb9a288f4b498c40c19d4450e3f18672ba804f264736f6c634300081e0033",
					"opcodes": "PUSH2 0x100 PUSH1 0x40 MSTORE CALLVALUE DUP1 ISZERO PUSH2 0x10 JUMPI PUSH0 PUSH0 REVERT JUMPDEST POP PUSH1 0x40 MLOAD PUSH2 0x18EB CODESIZE SUB DUP1 PUSH2 0x18EB DUP4 CODECOPY DUP2 ADD PUSH1 0x40 DUP2 SWAP1 MSTORE PUSH2 0x2F SWAP2 PUSH2 0xD5 JUMP JUMPDEST PUSH0 PUSH2 0x3A DUP8 DUP3 PUSH2 0x251 JUMP JUMPDEST POP DUP5 PUSH1 0xF DUP2 GT ISZERO PUSH2 0x4D JUMPI PUSH2 0x4D PUSH2 0x30B JUMP JUMPDEST PUSH1 0xA0 DUP2 PUSH1 0xF DUP2 GT ISZERO PUSH2 0x61 JUMPI PUSH2 0x61 PUSH2 0x30B JUMP JUMPDEST SWAP1 MSTORE POP PUSH1 0x80 SWAP4 SWAP1 SWAP4 MSTORE PUSH1 0x1 PUSH1 0x1 PUSH1 0xA0 SHL SUB SWAP2 DUP3 AND PUSH1 0xC0 MSTORE PUSH1 0x4 DUP1 SLOAD PUSH1 0x1 PUSH1 0x1 PUSH1 0xA0 SHL SUB NOT AND SWAP2 SWAP1 SWAP3 AND OR SWAP1 SSTORE PUSH1 0xE0 MSTORE POP PUSH2 0x31F SWAP1 POP JUMP JUMPDEST PUSH4 0x4E487B71 PUSH1 0xE0 SHL PUSH0 MSTORE PUSH1 0x41 PUSH1 0x4 MSTORE PUSH1 0x24 PUSH0 REVERT JUMPDEST DUP1 MLOAD PUSH1 0x10 DUP2 LT PUSH2 0xBA JUMPI PUSH0 PUSH0 REVERT JUMPDEST SWAP2 SWAP1 POP JUMP JUMPDEST DUP1 MLOAD PUSH1 0x1 PUSH1 0x1 PUSH1 0xA0 SHL SUB DUP2 AND DUP2 EQ PUSH2 0xBA JUMPI PUSH0 PUSH0 REVERT JUMPDEST PUSH0 PUSH0 PUSH0 PUSH0 PUSH0 PUSH0 PUSH1 0xC0 DUP8 DUP10 SUB SLT ISZERO PUSH2 0xEA JUMPI PUSH0 PUSH0 REVERT JUMPDEST DUP7 MLOAD PUSH1 0x1 PUSH1 0x1 PUSH1 0x40 SHL SUB DUP2 GT ISZERO PUSH2 0xFF JUMPI PUSH0 PUSH0 REVERT JUMPDEST DUP8 ADD PUSH1 0x1F DUP2 ADD DUP10 SGT PUSH2 0x10F JUMPI PUSH0 PUSH0 REVERT JUMPDEST DUP1 MLOAD PUSH1 0x1 PUSH1 0x1 PUSH1 0x40 SHL SUB DUP2 GT ISZERO PUSH2 0x128 JUMPI PUSH2 0x128 PUSH2 0x98 JUMP JUMPDEST PUSH1 0x40 MLOAD PUSH1 0x1F DUP3 ADD PUSH1 0x1F NOT SWAP1 DUP2 AND PUSH1 0x3F ADD AND DUP2 ADD PUSH1 0x1 PUSH1 0x1 PUSH1 0x40 SHL SUB DUP2 GT DUP3 DUP3 LT OR ISZERO PUSH2 0x156 JUMPI PUSH2 0x156 PUSH2 0x98 JUMP JUMPDEST PUSH1 0x40 MSTORE DUP2 DUP2 MSTORE DUP3 DUP3 ADD PUSH1 0x20 ADD DUP12 LT ISZERO PUSH2 0x16D JUMPI PUSH0 PUSH0 REVERT JUMPDEST DUP2 PUSH1 0x20 DUP5 ADD PUSH1 0x20 DUP4 ADD MCOPY PUSH0 PUSH1 0x20 DUP4 DUP4 ADD ADD MSTORE DUP1 SWAP9 POP POP POP POP PUSH2 0x191 PUSH1 0x20 DUP9 ADD PUSH2 0xAC JUMP JUMPDEST PUSH1 0x40 DUP9 ADD MLOAD SWAP1 SWAP6 POP SWAP4 POP PUSH2 0x1A7 PUSH1 0x60 DUP9 ADD PUSH2 0xBF JUMP JUMPDEST SWAP3 POP PUSH2 0x1B5 PUSH1 0x80 DUP9 ADD PUSH2 0xBF JUMP JUMPDEST SWAP2 POP PUSH0 PUSH1 0xA0 DUP9 ADD MLOAD SWAP1 POP DUP1 SWAP2 POP POP SWAP3 SWAP6 POP SWAP3 SWAP6 POP SWAP3 SWAP6 JUMP JUMPDEST PUSH1 0x1 DUP2 DUP2 SHR SWAP1 DUP3 AND DUP1 PUSH2 0x1E1 JUMPI PUSH1 0x7F DUP3 AND SWAP2 POP JUMPDEST PUSH1 0x20 DUP3 LT DUP2 SUB PUSH2 0x1FF JUMPI PUSH4 0x4E487B71 PUSH1 0xE0 SHL PUSH0 MSTORE PUSH1 0x22 PUSH1 0x4 MSTORE PUSH1 0x24 PUSH0 REVERT JUMPDEST POP SWAP2 SWAP1 POP JUMP JUMPDEST PUSH1 0x1F DUP3 GT ISZERO PUSH2 0x24C JUMPI DUP1 PUSH0 MSTORE PUSH1 0x20 PUSH0 KECCAK256 PUSH1 0x1F DUP5 ADD PUSH1 0x5 SHR DUP2 ADD PUSH1 0x20 DUP6 LT ISZERO PUSH2 0x22A JUMPI POP DUP1 JUMPDEST PUSH1 0x1F DUP5 ADD PUSH1 0x5 SHR DUP3 ADD SWAP2 POP JUMPDEST DUP2 DUP2 LT ISZERO PUSH2 0x249 JUMPI PUSH0 DUP2 SSTORE PUSH1 0x1 ADD PUSH2 0x236 JUMP JUMPDEST POP POP JUMPDEST POP POP POP JUMP JUMPDEST DUP2 MLOAD PUSH1 0x1 PUSH1 0x1 PUSH1 0x40 SHL SUB DUP2 GT ISZERO PUSH2 0x26A JUMPI PUSH2 0x26A PUSH2 0x98 JUMP JUMPDEST PUSH2 0x27E DUP2 PUSH2 0x278 DUP5 SLOAD PUSH2 0x1CD JUMP JUMPDEST DUP5 PUSH2 0x205 JUMP JUMPDEST PUSH1 0x20 PUSH1 0x1F DUP3 GT PUSH1 0x1 DUP2 EQ PUSH2 0x2B0 JUMPI PUSH0 DUP4 ISZERO PUSH2 0x299 JUMPI POP DUP5 DUP3 ADD MLOAD JUMPDEST PUSH0 NOT PUSH1 0x3 DUP6 SWAP1 SHL SHR NOT AND PUSH1 0x1 DUP5 SWAP1 SHL OR DUP5 SSTORE PUSH2 0x249 JUMP JUMPDEST PUSH0 DUP5 DUP2 MSTORE PUSH1 0x20 DUP2 KECCAK256 PUSH1 0x1F NOT DUP6 AND SWAP2 JUMPDEST DUP3 DUP2 LT ISZERO PUSH2 0x2DF JUMPI DUP8 DUP6 ADD MLOAD DUP3 SSTORE PUSH1 0x20 SWAP5 DUP6 ADD SWAP5 PUSH1 0x1 SWAP1 SWAP3 ADD SWAP2 ADD PUSH2 0x2BF JUMP JUMPDEST POP DUP5 DUP3 LT ISZERO PUSH2 0x2FC JUMPI DUP7 DUP5 ADD MLOAD PUSH0 NOT PUSH1 0x3 DUP8 SWAP1 SHL PUSH1 0xF8 AND SHR NOT AND DUP2 SSTORE JUMPDEST POP POP POP POP PUSH1 0x1 SWAP1 DUP2 SHL ADD SWAP1 SSTORE POP JUMP JUMPDEST PUSH4 0x4E487B71 PUSH1 0xE0 SHL PUSH0 MSTORE PUSH1 0x21 PUSH1 0x4 MSTORE PUSH1 0x24 PUSH0 REVERT JUMPDEST PUSH1 0x80 MLOAD PUSH1 0xA0 MLOAD PUSH1 0xC0 MLOAD PUSH1 0xE0 MLOAD PUSH2 0x1529 PUSH2 0x3C2 PUSH0 CODECOPY PUSH0 DUP2 DUP2 PUSH2 0x12C ADD MSTORE DUP2 DUP2 PUSH2 0xB50 ADD MSTORE PUSH2 0xC1A ADD MSTORE PUSH0 DUP2 DUP2 PUSH2 0x20E ADD MSTORE DUP2 DUP2 PUSH2 0x623 ADD MSTORE PUSH2 0xDDB ADD MSTORE PUSH0 DUP2 DUP2 PUSH2 0x260 ADD MSTORE DUP2 DUP2 PUSH2 0xB71 ADD MSTORE PUSH2 0xBF9 ADD MSTORE PUSH0 DUP2 DUP2 PUSH2 0x29D ADD MSTORE DUP2 DUP2 PUSH2 0x36E ADD MSTORE DUP2 DUP2 PUSH2 0x48C ADD MSTORE DUP2 DUP2 PUSH2 0x4B4 ADD MSTORE DUP2 DUP2 PUSH2 0x4D6 ADD MSTORE DUP2 DUP2 PUSH2 0x527 ADD MSTORE DUP2 DUP2 PUSH2 0x709 ADD MSTORE DUP2 DUP2 PUSH2 0x74B ADD MSTORE DUP2 DUP2 PUSH2 0x8AC ADD MSTORE DUP2 DUP2 PUSH2 0xB00 ADD MSTORE PUSH2 0xC3E ADD MSTORE PUSH2 0x1529 PUSH0 RETURN INVALID PUSH1 0x80 PUSH1 0x40 MSTORE CALLVALUE DUP1 ISZERO PUSH2 0xF JUMPI PUSH0 PUSH0 REVERT JUMPDEST POP PUSH1 0x4 CALLDATASIZE LT PUSH2 0xE5 JUMPI PUSH0 CALLDATALOAD PUSH1 0xE0 SHR DUP1 PUSH4 0x7ADBF973 GT PUSH2 0x88 JUMPI DUP1 PUSH4 0xA89AE4BA GT PUSH2 0x63 JUMPI DUP1 PUSH4 0xA89AE4BA EQ PUSH2 0x248 JUMPI DUP1 PUSH4 0xAFB13053 EQ PUSH2 0x25B JUMPI DUP1 PUSH4 0xB121608C EQ PUSH2 0x28F JUMPI DUP1 PUSH4 0xB1AF9F4C EQ PUSH2 0x298 JUMPI PUSH0 PUSH0 REVERT JUMPDEST DUP1 PUSH4 0x7ADBF973 EQ PUSH2 0x1E1 JUMPI DUP1 PUSH4 0x95D89B41 EQ PUSH2 0x1F4 JUMPI DUP1 PUSH4 0x966DAE0E EQ PUSH2 0x209 JUMPI PUSH0 PUSH0 REVERT JUMPDEST DUP1 PUSH4 0x5A9B0B89 GT PUSH2 0xC3 JUMPI DUP1 PUSH4 0x5A9B0B89 EQ PUSH2 0x15C JUMPI DUP1 PUSH4 0x6297F23C EQ PUSH2 0x175 JUMPI DUP1 PUSH4 0x6CFCDCA7 EQ PUSH2 0x17E JUMPI DUP1 PUSH4 0x718715D9 EQ PUSH2 0x1D9 JUMPI PUSH0 PUSH0 REVERT JUMPDEST DUP1 PUSH4 0x1A3CA7AA EQ PUSH2 0xE9 JUMPI DUP1 PUSH4 0x3A499A53 EQ PUSH2 0x112 JUMPI DUP1 PUSH4 0x54FD4D50 EQ PUSH2 0x127 JUMPI JUMPDEST PUSH0 PUSH0 REVERT JUMPDEST PUSH2 0xFC PUSH2 0xF7 CALLDATASIZE PUSH1 0x4 PUSH2 0xFC3 JUMP JUMPDEST PUSH2 0x2BF JUMP JUMPDEST PUSH1 0x40 MLOAD PUSH2 0x109 SWAP2 SWAP1 PUSH2 0xFDA JUMP JUMPDEST PUSH1 0x40 MLOAD DUP1 SWAP2 SUB SWAP1 RETURN JUMPDEST PUSH2 0x125 PUSH2 0x120 CALLDATASIZE PUSH1 0x4 PUSH2 0x10A3 JUMP JUMPDEST PUSH2 0x618 JUMP JUMPDEST STOP JUMPDEST PUSH2 0x14E PUSH32 0x0 DUP2 JUMP JUMPDEST PUSH1 0x40 MLOAD SWAP1 DUP2 MSTORE PUSH1 0x20 ADD PUSH2 0x109 JUMP JUMPDEST PUSH2 0x164 PUSH2 0xBF0 JUMP JUMPDEST PUSH1 0x40 MLOAD PUSH2 0x109 SWAP6 SWAP5 SWAP4 SWAP3 SWAP2 SWAP1 PUSH2 0x117C JUMP JUMPDEST PUSH2 0x14E PUSH1 0x3 SLOAD DUP2 JUMP JUMPDEST PUSH2 0x191 PUSH2 0x18C CALLDATASIZE PUSH1 0x4 PUSH2 0xFC3 JUMP JUMPDEST PUSH2 0xCF8 JUMP JUMPDEST PUSH1 0x40 DUP1 MLOAD PUSH1 0x1 PUSH1 0x1 PUSH1 0x40 SHL SUB SWAP10 DUP11 AND DUP2 MSTORE SWAP9 SWAP1 SWAP8 AND PUSH1 0x20 DUP10 ADD MSTORE SWAP6 DUP8 ADD SWAP5 SWAP1 SWAP5 MSTORE PUSH1 0x60 DUP7 ADD SWAP3 SWAP1 SWAP3 MSTORE PUSH1 0x80 DUP6 ADD MSTORE PUSH1 0xA0 DUP5 ADD MSTORE PUSH1 0xC0 DUP4 ADD MSTORE ISZERO ISZERO PUSH1 0xE0 DUP3 ADD MSTORE PUSH2 0x100 ADD PUSH2 0x109 JUMP JUMPDEST PUSH2 0xFC PUSH2 0xD5F JUMP JUMPDEST PUSH2 0x125 PUSH2 0x1EF CALLDATASIZE PUSH1 0x4 PUSH2 0x11B9 JUMP JUMPDEST PUSH2 0xDD0 JUMP JUMPDEST PUSH2 0x1FC PUSH2 0xEE7 JUMP JUMPDEST PUSH1 0x40 MLOAD PUSH2 0x109 SWAP2 SWAP1 PUSH2 0x11DF JUMP JUMPDEST PUSH2 0x230 PUSH32 0x0 DUP2 JUMP JUMPDEST PUSH1 0x40 MLOAD PUSH1 0x1 PUSH1 0x1 PUSH1 0xA0 SHL SUB SWAP1 SWAP2 AND DUP2 MSTORE PUSH1 0x20 ADD PUSH2 0x109 JUMP JUMPDEST PUSH1 0x4 SLOAD PUSH2 0x230 SWAP1 PUSH1 0x1 PUSH1 0x1 PUSH1 0xA0 SHL SUB AND DUP2 JUMP JUMPDEST PUSH2 0x282 PUSH32 0x0 DUP2 JUMP JUMPDEST PUSH1 0x40 MLOAD PUSH2 0x109 SWAP2 SWAP1 PUSH2 0x11F1 JUMP JUMPDEST PUSH2 0x14E PUSH1 0x2 SLOAD DUP2 JUMP JUMPDEST PUSH2 0x14E PUSH32 0x0 DUP2 JUMP JUMPDEST PUSH1 0x60 PUSH1 0x3 SLOAD PUSH0 SUB PUSH2 0x301 JUMPI PUSH1 0x40 DUP1 MLOAD PUSH0 DUP1 DUP3 MSTORE PUSH1 0x20 DUP3 ADD SWAP1 SWAP3 MSTORE SWAP1 PUSH2 0x2FA JUMP JUMPDEST PUSH2 0x2E7 PUSH2 0xF72 JUMP JUMPDEST DUP2 MSTORE PUSH1 0x20 ADD SWAP1 PUSH1 0x1 SWAP1 SUB SWAP1 DUP2 PUSH2 0x2DF JUMPI SWAP1 POP JUMPDEST POP SWAP3 SWAP2 POP POP JUMP JUMPDEST PUSH0 PUSH1 0x3 SLOAD DUP4 GT PUSH2 0x311 JUMPI DUP3 PUSH2 0x315 JUMP JUMPDEST PUSH1 0x3 SLOAD JUMPDEST SWAP1 POP PUSH0 DUP2 PUSH1 0x1 PUSH1 0x1 PUSH1 0x40 SHL SUB DUP2 GT ISZERO PUSH2 0x330 JUMPI PUSH2 0x330 PUSH2 0x1205 JUMP JUMPDEST PUSH1 0x40 MLOAD SWAP1 DUP1 DUP3 MSTORE DUP1 PUSH1 0x20 MUL PUSH1 0x20 ADD DUP3 ADD PUSH1 0x40 MSTORE DUP1 ISZERO PUSH2 0x369 JUMPI DUP2 PUSH1 0x20 ADD JUMPDEST PUSH2 0x356 PUSH2 0xF72 JUMP JUMPDEST DUP2 MSTORE PUSH1 0x20 ADD SWAP1 PUSH1 0x1 SWAP1 SUB SWAP1 DUP2 PUSH2 0x34E JUMPI SWAP1 POP JUMPDEST POP SWAP1 POP PUSH32 0x0 PUSH1 0x3 SLOAD LT ISZERO PUSH2 0x487 JUMPI PUSH0 DUP3 PUSH1 0x3 SLOAD GT PUSH2 0x3A6 JUMPI PUSH0 PUSH2 0x3B4 JUMP JUMPDEST DUP3 PUSH1 0x3 SLOAD PUSH2 0x3B4 SWAP2 SWAP1 PUSH2 0x122D JUMP JUMPDEST SWAP1 POP PUSH0 JUMPDEST DUP4 DUP2 LT ISZERO PUSH2 0x480 JUMPI PUSH1 0x1 PUSH2 0x3CC DUP3 DUP5 PUSH2 0x1240 JUMP JUMPDEST DUP2 SLOAD DUP2 LT PUSH2 0x3DC JUMPI PUSH2 0x3DC PUSH2 0x1253 JUMP JUMPDEST PUSH0 SWAP2 DUP3 MSTORE PUSH1 0x20 SWAP2 DUP3 SWAP1 KECCAK256 PUSH1 0x40 DUP1 MLOAD PUSH2 0x100 DUP2 ADD DUP3 MSTORE PUSH1 0x7 SWAP1 SWAP4 MUL SWAP1 SWAP2 ADD DUP1 SLOAD PUSH1 0x1 PUSH1 0x1 PUSH1 0x40 SHL SUB DUP1 DUP3 AND DUP6 MSTORE PUSH1 0x1 PUSH1 0x40 SHL SWAP1 SWAP2 DIV AND SWAP4 DUP4 ADD SWAP4 SWAP1 SWAP4 MSTORE PUSH1 0x1 DUP4 ADD SLOAD SWAP1 DUP3 ADD MSTORE PUSH1 0x2 DUP3 ADD SLOAD PUSH1 0x60 DUP3 ADD MSTORE PUSH1 0x3 DUP3 ADD SLOAD PUSH1 0x80 DUP3 ADD MSTORE PUSH1 0x4 DUP3 ADD SLOAD PUSH1 0xA0 DUP3 ADD MSTORE PUSH1 0x5 DUP3 ADD SLOAD PUSH1 0xC0 DUP3 ADD MSTORE PUSH1 0x6 SWAP1 SWAP2 ADD SLOAD PUSH1 0xFF AND ISZERO ISZERO PUSH1 0xE0 DUP3 ADD MSTORE DUP4 MLOAD DUP5 SWAP1 DUP4 SWAP1 DUP2 LT PUSH2 0x46D JUMPI PUSH2 0x46D PUSH2 0x1253 JUMP JUMPDEST PUSH1 0x20 SWAP1 DUP2 MUL SWAP2 SWAP1 SWAP2 ADD ADD MSTORE PUSH1 0x1 ADD PUSH2 0x3B8 JUMP JUMPDEST POP POP PUSH2 0x611 JUMP JUMPDEST PUSH1 0x2 SLOAD PUSH32 0x0 DUP4 LT ISZERO PUSH2 0x519 JUMPI PUSH32 0x0 DUP4 PUSH32 0x0 PUSH1 0x2 SLOAD PUSH2 0x502 SWAP2 SWAP1 PUSH2 0x1240 JUMP JUMPDEST PUSH2 0x50C SWAP2 SWAP1 PUSH2 0x122D JUMP JUMPDEST PUSH2 0x516 SWAP2 SWAP1 PUSH2 0x1267 JUMP JUMPDEST SWAP1 POP JUMPDEST PUSH0 JUMPDEST DUP4 DUP2 LT ISZERO PUSH2 0x60E JUMPI PUSH1 0x1 PUSH32 0x0 PUSH2 0x550 DUP4 DUP6 PUSH2 0x1240 JUMP JUMPDEST PUSH2 0x55A SWAP2 SWAP1 PUSH2 0x1267 JUMP JUMPDEST DUP2 SLOAD DUP2 LT PUSH2 0x56A JUMPI PUSH2 0x56A PUSH2 0x1253 JUMP JUMPDEST PUSH0 SWAP2 DUP3 MSTORE PUSH1 0x20 SWAP2 DUP3 SWAP1 KECCAK256 PUSH1 0x40 DUP1 MLOAD PUSH2 0x100 DUP2 ADD DUP3 MSTORE PUSH1 0x7 SWAP1 SWAP4 MUL SWAP1 SWAP2 ADD DUP1 SLOAD PUSH1 0x1 PUSH1 0x1 PUSH1 0x40 SHL SUB DUP1 DUP3 AND DUP6 MSTORE PUSH1 0x1 PUSH1 0x40 SHL SWAP1 SWAP2 DIV AND SWAP4 DUP4 ADD SWAP4 SWAP1 SWAP4 MSTORE PUSH1 0x1 DUP4 ADD SLOAD SWAP1 DUP3 ADD MSTORE PUSH1 0x2 DUP3 ADD SLOAD PUSH1 0x60 DUP3 ADD MSTORE PUSH1 0x3 DUP3 ADD SLOAD PUSH1 0x80 DUP3 ADD MSTORE PUSH1 0x4 DUP3 ADD SLOAD PUSH1 0xA0 DUP3 ADD MSTORE PUSH1 0x5 DUP3 ADD SLOAD PUSH1 0xC0 DUP3 ADD MSTORE PUSH1 0x6 SWAP1 SWAP2 ADD SLOAD PUSH1 0xFF AND ISZERO ISZERO PUSH1 0xE0 DUP3 ADD MSTORE DUP4 MLOAD DUP5 SWAP1 DUP4 SWAP1 DUP2 LT PUSH2 0x5FB JUMPI PUSH2 0x5FB PUSH2 0x1253 JUMP JUMPDEST PUSH1 0x20 SWAP1 DUP2 MUL SWAP2 SWAP1 SWAP2 ADD ADD MSTORE PUSH1 0x1 ADD PUSH2 0x51B JUMP JUMPDEST POP POP JUMPDEST SWAP4 SWAP3 POP POP POP JUMP JUMPDEST CALLER PUSH1 0x1 PUSH1 0x1 PUSH1 0xA0 SHL SUB PUSH32 0x0 AND EQ DUP1 PUSH2 0x659 JUMPI POP PUSH1 0x4 SLOAD PUSH1 0x1 PUSH1 0x1 PUSH1 0xA0 SHL SUB AND CALLER EQ JUMPDEST PUSH2 0x6AA JUMPI PUSH1 0x40 MLOAD PUSH3 0x461BCD PUSH1 0xE5 SHL DUP2 MSTORE PUSH1 0x20 PUSH1 0x4 DUP3 ADD MSTORE PUSH1 0x1A PUSH1 0x24 DUP3 ADD MSTORE PUSH32 0x4B49443A204E6F7420666163746F7279206F72206F7261636C65000000000000 PUSH1 0x44 DUP3 ADD MSTORE PUSH1 0x64 ADD JUMPDEST PUSH1 0x40 MLOAD DUP1 SWAP2 SUB SWAP1 REVERT JUMPDEST PUSH1 0x40 DUP1 MLOAD PUSH2 0x100 DUP2 ADD DUP3 MSTORE PUSH1 0x1 PUSH1 0x1 PUSH1 0x40 SHL SUB DUP1 DUP12 AND DUP3 MSTORE DUP10 AND PUSH1 0x20 DUP3 ADD MSTORE SWAP1 DUP2 ADD DUP8 SWAP1 MSTORE PUSH1 0x60 DUP2 ADD DUP7 SWAP1 MSTORE PUSH1 0x80 DUP2 ADD DUP6 SWAP1 MSTORE PUSH1 0xA0 DUP2 ADD DUP5 SWAP1 MSTORE PUSH1 0xC0 DUP2 ADD DUP4 SWAP1 MSTORE DUP2 ISZERO ISZERO PUSH1 0xE0 DUP3 ADD MSTORE PUSH1 0x3 SLOAD PUSH0 SWAP1 ISZERO PUSH2 0x8A2 JUMPI PUSH0 PUSH1 0x2 SLOAD PUSH0 SUB PUSH2 0x776 JUMPI PUSH32 0x0 PUSH1 0x3 SLOAD EQ PUSH2 0x744 JUMPI PUSH1 0x1 PUSH1 0x3 SLOAD PUSH2 0x73F SWAP2 SWAP1 PUSH2 0x122D JUMP JUMPDEST PUSH2 0x76F JUMP JUMPDEST PUSH2 0x76F PUSH1 0x1 PUSH32 0x0 PUSH2 0x122D JUMP JUMPDEST SWAP1 POP PUSH2 0x788 JUMP JUMPDEST PUSH1 0x1 PUSH1 0x2 SLOAD PUSH2 0x785 SWAP2 SWAP1 PUSH2 0x122D JUMP JUMPDEST SWAP1 POP JUMPDEST DUP11 PUSH1 0x1 PUSH1 0x1 PUSH1 0x40 SHL SUB AND PUSH1 0x1 DUP3 DUP2 SLOAD DUP2 LT PUSH2 0x7A5 JUMPI PUSH2 0x7A5 PUSH2 0x1253 JUMP JUMPDEST PUSH0 SWAP2 DUP3 MSTORE PUSH1 0x20 SWAP1 SWAP2 KECCAK256 PUSH1 0x7 SWAP1 SWAP2 MUL ADD SLOAD PUSH1 0x1 PUSH1 0x1 PUSH1 0x40 SHL SUB AND EQ DUP1 ISZERO PUSH2 0x7F1 JUMPI POP PUSH1 0x1 DUP2 DUP2 SLOAD DUP2 LT PUSH2 0x7D9 JUMPI PUSH2 0x7D9 PUSH2 0x1253 JUMP JUMPDEST PUSH0 SWAP2 DUP3 MSTORE PUSH1 0x20 SWAP1 SWAP2 KECCAK256 PUSH1 0x6 PUSH1 0x7 SWAP1 SWAP3 MUL ADD ADD SLOAD PUSH1 0xFF AND ISZERO JUMPDEST ISZERO PUSH2 0x8A0 JUMPI DUP3 PUSH1 0x1 DUP3 DUP2 SLOAD DUP2 LT PUSH2 0x80A JUMPI PUSH2 0x80A PUSH2 0x1253 JUMP JUMPDEST PUSH0 SWAP2 DUP3 MSTORE PUSH1 0x20 SWAP2 DUP3 SWAP1 KECCAK256 DUP4 MLOAD PUSH1 0x7 SWAP1 SWAP3 MUL ADD DUP1 SLOAD SWAP3 DUP5 ADD MLOAD PUSH1 0x1 PUSH1 0x1 PUSH1 0x40 SHL SUB SWAP1 DUP2 AND PUSH1 0x1 PUSH1 0x40 SHL MUL PUSH1 0x1 PUSH1 0x1 PUSH1 0x80 SHL SUB NOT SWAP1 SWAP5 AND SWAP3 AND SWAP2 SWAP1 SWAP2 OR SWAP2 SWAP1 SWAP2 OR DUP2 SSTORE PUSH1 0x40 DUP3 ADD MLOAD PUSH1 0x1 DUP1 DUP4 ADD SWAP2 SWAP1 SWAP2 SSTORE PUSH1 0x60 DUP4 ADD MLOAD PUSH1 0x2 DUP4 ADD SSTORE PUSH1 0x80 DUP4 ADD MLOAD PUSH1 0x3 DUP4 ADD SSTORE PUSH1 0xA0 DUP4 ADD MLOAD PUSH1 0x4 DUP4 ADD SSTORE PUSH1 0xC0 DUP4 ADD MLOAD PUSH1 0x5 DUP4 ADD SSTORE PUSH1 0xE0 SWAP1 SWAP3 ADD MLOAD PUSH1 0x6 SWAP1 SWAP2 ADD DUP1 SLOAD SWAP2 ISZERO ISZERO PUSH1 0xFF NOT SWAP1 SWAP3 AND SWAP2 SWAP1 SWAP2 OR SWAP1 SSTORE SWAP2 POP JUMPDEST POP JUMPDEST DUP1 PUSH2 0xB38 JUMPI PUSH1 0x1 SLOAD PUSH32 0x0 GT ISZERO PUSH2 0xA4E JUMPI PUSH1 0x1 DUP1 SLOAD DUP1 DUP3 ADD DUP3 SSTORE PUSH0 DUP3 SWAP1 MSTORE DUP4 MLOAD PUSH1 0x7 SWAP1 SWAP2 MUL PUSH32 0xB10E2D527612073B26EECDFD717E6A320CF44B4AFAC2B0732D9FCBE2B7FA0CF6 DUP2 ADD DUP1 SLOAD PUSH1 0x20 DUP8 ADD MLOAD PUSH1 0x1 PUSH1 0x1 PUSH1 0x40 SHL SUB SWAP1 DUP2 AND PUSH1 0x1 PUSH1 0x40 SHL MUL PUSH1 0x1 PUSH1 0x1 PUSH1 0x80 SHL SUB NOT SWAP1 SWAP3 AND SWAP5 AND SWAP4 SWAP1 SWAP4 OR SWAP3 SWAP1 SWAP3 OR SWAP1 SWAP2 SSTORE PUSH1 0x40 DUP5 ADD MLOAD PUSH32 0xB10E2D527612073B26EECDFD717E6A320CF44B4AFAC2B0732D9FCBE2B7FA0CF7 DUP3 ADD SSTORE PUSH1 0x60 DUP5 ADD MLOAD PUSH32 0xB10E2D527612073B26EECDFD717E6A320CF44B4AFAC2B0732D9FCBE2B7FA0CF8 DUP3 ADD SSTORE PUSH1 0x80 DUP5 ADD MLOAD PUSH32 0xB10E2D527612073B26EECDFD717E6A320CF44B4AFAC2B0732D9FCBE2B7FA0CF9 DUP3 ADD SSTORE PUSH1 0xA0 DUP5 ADD MLOAD PUSH32 0xB10E2D527612073B26EECDFD717E6A320CF44B4AFAC2B0732D9FCBE2B7FA0CFA DUP3 ADD SSTORE PUSH1 0xC0 DUP5 ADD MLOAD PUSH32 0xB10E2D527612073B26EECDFD717E6A320CF44B4AFAC2B0732D9FCBE2B7FA0CFB DUP3 ADD SSTORE PUSH1 0xE0 DUP5 ADD MLOAD PUSH32 0xB10E2D527612073B26EECDFD717E6A320CF44B4AFAC2B0732D9FCBE2B7FA0CFC SWAP1 SWAP2 ADD DUP1 SLOAD SWAP2 ISZERO ISZERO PUSH1 0xFF NOT SWAP1 SWAP3 AND SWAP2 SWAP1 SWAP2 OR SWAP1 SSTORE SLOAD PUSH1 0x2 DUP2 SWAP1 SSTORE PUSH1 0x3 SSTORE PUSH2 0xB38 JUMP JUMPDEST DUP2 PUSH1 0x1 PUSH1 0x2 SLOAD DUP2 SLOAD DUP2 LT PUSH2 0xA64 JUMPI PUSH2 0xA64 PUSH2 0x1253 JUMP JUMPDEST PUSH0 SWAP2 DUP3 MSTORE PUSH1 0x20 SWAP2 DUP3 SWAP1 KECCAK256 DUP4 MLOAD PUSH1 0x7 SWAP1 SWAP3 MUL ADD DUP1 SLOAD SWAP3 DUP5 ADD MLOAD PUSH1 0x1 PUSH1 0x1 PUSH1 0x40 SHL SUB SWAP1 DUP2 AND PUSH1 0x1 PUSH1 0x40 SHL MUL PUSH1 0x1 PUSH1 0x1 PUSH1 0x80 SHL SUB NOT SWAP1 SWAP5 AND SWAP3 AND SWAP2 SWAP1 SWAP2 OR SWAP2 SWAP1 SWAP2 OR DUP2 SSTORE PUSH1 0x40 DUP3 ADD MLOAD PUSH1 0x1 DUP1 DUP4 ADD SWAP2 SWAP1 SWAP2 SSTORE PUSH1 0x60 DUP4 ADD MLOAD PUSH1 0x2 DUP1 DUP5 ADD SWAP2 SWAP1 SWAP2 SSTORE PUSH1 0x80 DUP5 ADD MLOAD PUSH1 0x3 DUP5 ADD SSTORE PUSH1 0xA0 DUP5 ADD MLOAD PUSH1 0x4 DUP5 ADD SSTORE PUSH1 0xC0 DUP5 ADD MLOAD PUSH1 0x5 DUP5 ADD SSTORE PUSH1 0xE0 SWAP1 SWAP4 ADD MLOAD PUSH1 0x6 SWAP1 SWAP3 ADD DUP1 SLOAD SWAP3 ISZERO ISZERO PUSH1 0xFF NOT SWAP1 SWAP4 AND SWAP3 SWAP1 SWAP3 OR SWAP1 SWAP2 SSTORE SWAP1 SLOAD PUSH32 0x0 SWAP2 PUSH2 0xB2A SWAP2 SWAP1 PUSH2 0x1240 JUMP JUMPDEST PUSH2 0xB34 SWAP2 SWAP1 PUSH2 0x1267 JUMP JUMPDEST PUSH1 0x2 SSTORE JUMPDEST PUSH0 PUSH1 0x40 MLOAD PUSH2 0xB46 SWAP2 SWAP1 PUSH2 0x12BE JUMP JUMPDEST PUSH1 0x40 MLOAD DUP1 SWAP2 SUB SWAP1 KECCAK256 PUSH32 0x0 PUSH32 0x0 PUSH1 0xF DUP2 GT ISZERO PUSH2 0xBA1 JUMPI PUSH2 0xBA1 PUSH2 0x1148 JUMP JUMPDEST PUSH1 0x40 DUP1 MLOAD PUSH1 0x1 PUSH1 0x1 PUSH1 0x40 SHL SUB DUP16 AND DUP2 MSTORE DUP6 ISZERO ISZERO PUSH1 0x20 DUP3 ADD MSTORE PUSH32 0x2938227EA55378AE62398D4F99AF288FBAB3774DAB97FA96A060EA989CBC8001 SWAP2 ADD PUSH1 0x40 MLOAD DUP1 SWAP2 SUB SWAP1 LOG4 POP POP POP POP POP POP POP POP POP POP JUMP JUMPDEST PUSH1 0x60 PUSH0 PUSH0 PUSH0 PUSH0 PUSH0 PUSH32 0x0 PUSH32 0x0 PUSH1 0x3 SLOAD PUSH32 0x0 DUP5 DUP1 SLOAD PUSH2 0xC69 SWAP1 PUSH2 0x1286 JUMP JUMPDEST DUP1 PUSH1 0x1F ADD PUSH1 0x20 DUP1 SWAP2 DIV MUL PUSH1 0x20 ADD PUSH1 0x40 MLOAD SWAP1 DUP2 ADD PUSH1 0x40 MSTORE DUP1 SWAP3 SWAP2 SWAP1 DUP2 DUP2 MSTORE PUSH1 0x20 ADD DUP3 DUP1 SLOAD PUSH2 0xC95 SWAP1 PUSH2 0x1286 JUMP JUMPDEST DUP1 ISZERO PUSH2 0xCE0 JUMPI DUP1 PUSH1 0x1F LT PUSH2 0xCB7 JUMPI PUSH2 0x100 DUP1 DUP4 SLOAD DIV MUL DUP4 MSTORE SWAP2 PUSH1 0x20 ADD SWAP2 PUSH2 0xCE0 JUMP JUMPDEST DUP3 ADD SWAP2 SWAP1 PUSH0 MSTORE PUSH1 0x20 PUSH0 KECCAK256 SWAP1 JUMPDEST DUP2 SLOAD DUP2 MSTORE SWAP1 PUSH1 0x1 ADD SWAP1 PUSH1 0x20 ADD DUP1 DUP4 GT PUSH2 0xCC3 JUMPI DUP3 SWAP1 SUB PUSH1 0x1F AND DUP3 ADD SWAP2 JUMPDEST POP POP POP POP POP SWAP5 POP SWAP5 POP SWAP5 POP SWAP5 POP SWAP5 POP SWAP5 POP SWAP1 SWAP2 SWAP3 SWAP4 SWAP5 JUMP JUMPDEST PUSH1 0x1 DUP2 DUP2 SLOAD DUP2 LT PUSH2 0xD07 JUMPI PUSH0 DUP1 REVERT JUMPDEST PUSH0 SWAP2 DUP3 MSTORE PUSH1 0x20 SWAP1 SWAP2 KECCAK256 PUSH1 0x7 SWAP1 SWAP2 MUL ADD DUP1 SLOAD PUSH1 0x1 DUP3 ADD SLOAD PUSH1 0x2 DUP4 ADD SLOAD PUSH1 0x3 DUP5 ADD SLOAD PUSH1 0x4 DUP6 ADD SLOAD PUSH1 0x5 DUP7 ADD SLOAD PUSH1 0x6 SWAP1 SWAP7 ADD SLOAD PUSH1 0x1 PUSH1 0x1 PUSH1 0x40 SHL SUB DUP1 DUP8 AND SWAP9 POP PUSH1 0x1 PUSH1 0x40 SHL SWAP1 SWAP7 DIV SWAP1 SWAP6 AND SWAP6 SWAP4 SWAP5 SWAP3 SWAP4 SWAP2 SWAP3 SWAP1 SWAP2 SWAP1 PUSH1 0xFF AND DUP9 JUMP JUMPDEST PUSH1 0x3 SLOAD PUSH1 0x40 MLOAD PUSH4 0xD1E53D5 PUSH1 0xE1 SHL DUP2 MSTORE PUSH1 0x60 SWAP2 ADDRESS SWAP2 PUSH4 0x1A3CA7AA SWAP2 PUSH2 0xD8A SWAP2 PUSH1 0x4 ADD SWAP1 DUP2 MSTORE PUSH1 0x20 ADD SWAP1 JUMP JUMPDEST PUSH0 PUSH1 0x40 MLOAD DUP1 DUP4 SUB DUP2 DUP7 GAS STATICCALL ISZERO DUP1 ISZERO PUSH2 0xDA4 JUMPI RETURNDATASIZE PUSH0 PUSH0 RETURNDATACOPY RETURNDATASIZE PUSH0 REVERT JUMPDEST POP POP POP POP PUSH1 0x40 MLOAD RETURNDATASIZE PUSH0 DUP3 RETURNDATACOPY PUSH1 0x1F RETURNDATASIZE SWAP1 DUP2 ADD PUSH1 0x1F NOT AND DUP3 ADD PUSH1 0x40 MSTORE PUSH2 0xDCB SWAP2 SWAP1 DUP2 ADD SWAP1 PUSH2 0x13CE JUMP JUMPDEST SWAP1 POP SWAP1 JUMP JUMPDEST CALLER PUSH1 0x1 PUSH1 0x1 PUSH1 0xA0 SHL SUB PUSH32 0x0 AND EQ PUSH2 0xE48 JUMPI PUSH1 0x40 MLOAD PUSH3 0x461BCD PUSH1 0xE5 SHL DUP2 MSTORE PUSH1 0x20 PUSH1 0x4 DUP3 ADD DUP2 SWAP1 MSTORE PUSH1 0x24 DUP3 ADD MSTORE PUSH32 0x4B49443A204F6E6C7920666163746F72792063616E20736574206F7261636C65 PUSH1 0x44 DUP3 ADD MSTORE PUSH1 0x64 ADD PUSH2 0x6A1 JUMP JUMPDEST PUSH1 0x1 PUSH1 0x1 PUSH1 0xA0 SHL SUB DUP2 AND PUSH2 0xE9E JUMPI PUSH1 0x40 MLOAD PUSH3 0x461BCD PUSH1 0xE5 SHL DUP2 MSTORE PUSH1 0x20 PUSH1 0x4 DUP3 ADD MSTORE PUSH1 0x1B PUSH1 0x24 DUP3 ADD MSTORE PUSH32 0x4B49443A20496E76616C6964206F7261636C6520616464726573730000000000 PUSH1 0x44 DUP3 ADD MSTORE PUSH1 0x64 ADD PUSH2 0x6A1 JUMP JUMPDEST PUSH1 0x4 DUP1 SLOAD PUSH1 0x1 PUSH1 0x1 PUSH1 0xA0 SHL SUB NOT AND PUSH1 0x1 PUSH1 0x1 PUSH1 0xA0 SHL SUB DUP4 AND SWAP1 DUP2 OR SWAP1 SWAP2 SSTORE PUSH1 0x40 MLOAD PUSH32 0x107A9FAFFFB7AC890F780879E423760C9FFEA8DCEE8045681F40F542AEDE2CB8 SWAP1 PUSH0 SWAP1 LOG2 POP JUMP JUMPDEST PUSH0 DUP1 SLOAD PUSH2 0xEF3 SWAP1 PUSH2 0x1286 JUMP JUMPDEST DUP1 PUSH1 0x1F ADD PUSH1 0x20 DUP1 SWAP2 DIV MUL PUSH1 0x20 ADD PUSH1 0x40 MLOAD SWAP1 DUP2 ADD PUSH1 0x40 MSTORE DUP1 SWAP3 SWAP2 SWAP1 DUP2 DUP2 MSTORE PUSH1 0x20 ADD DUP3 DUP1 SLOAD PUSH2 0xF1F SWAP1 PUSH2 0x1286 JUMP JUMPDEST DUP1 ISZERO PUSH2 0xF6A JUMPI DUP1 PUSH1 0x1F LT PUSH2 0xF41 JUMPI PUSH2 0x100 DUP1 DUP4 SLOAD DIV MUL DUP4 MSTORE SWAP2 PUSH1 0x20 ADD SWAP2 PUSH2 0xF6A JUMP JUMPDEST DUP3 ADD SWAP2 SWAP1 PUSH0 MSTORE PUSH1 0x20 PUSH0 KECCAK256 SWAP1 JUMPDEST DUP2 SLOAD DUP2 MSTORE SWAP1 PUSH1 0x1 ADD SWAP1 PUSH1 0x20 ADD DUP1 DUP4 GT PUSH2 0xF4D JUMPI DUP3 SWAP1 SUB PUSH1 0x1F AND DUP3 ADD SWAP2 JUMPDEST POP POP POP POP POP DUP2 JUMP JUMPDEST PUSH1 0x40 MLOAD DUP1 PUSH2 0x100 ADD PUSH1 0x40 MSTORE DUP1 PUSH0 PUSH1 0x1 PUSH1 0x1 PUSH1 0x40 SHL SUB AND DUP2 MSTORE PUSH1 0x20 ADD PUSH0 PUSH1 0x1 PUSH1 0x1 PUSH1 0x40 SHL SUB AND DUP2 MSTORE PUSH1 0x20 ADD PUSH0 DUP2 MSTORE PUSH1 0x20 ADD PUSH0 DUP2 MSTORE PUSH1 0x20 ADD PUSH0 DUP2 MSTORE PUSH1 0x20 ADD PUSH0 DUP2 MSTORE PUSH1 0x20 ADD PUSH0 DUP2 MSTORE PUSH1 0x20 ADD PUSH0 ISZERO ISZERO DUP2 MSTORE POP SWAP1 JUMP JUMPDEST PUSH0 PUSH1 0x20 DUP3 DUP5 SUB SLT ISZERO PUSH2 0xFD3 JUMPI PUSH0 PUSH0 REVERT JUMPDEST POP CALLDATALOAD SWAP2 SWAP1 POP JUMP JUMPDEST PUSH1 0x20 DUP1 DUP3 MSTORE DUP3 MLOAD DUP3 DUP3 ADD DUP2 SWAP1 MSTORE PUSH0 SWAP2 DUP5 ADD SWAP1 PUSH1 0x40 DUP5 ADD SWAP1 DUP4 JUMPDEST DUP2 DUP2 LT ISZERO PUSH2 0x1074 JUMPI DUP4 MLOAD PUSH1 0x1 PUSH1 0x1 PUSH1 0x40 SHL SUB DUP2 MLOAD AND DUP5 MSTORE PUSH1 0x1 PUSH1 0x1 PUSH1 0x40 SHL SUB PUSH1 0x20 DUP3 ADD MLOAD AND PUSH1 0x20 DUP6 ADD MSTORE PUSH1 0x40 DUP2 ADD MLOAD PUSH1 0x40 DUP6 ADD MSTORE PUSH1 0x60 DUP2 ADD MLOAD PUSH1 0x60 DUP6 ADD MSTORE PUSH1 0x80 DUP2 ADD MLOAD PUSH1 0x80 DUP6 ADD MSTORE PUSH1 0xA0 DUP2 ADD MLOAD PUSH1 0xA0 DUP6 ADD MSTORE PUSH1 0xC0 DUP2 ADD MLOAD PUSH1 0xC0 DUP6 ADD MSTORE PUSH1 0xE0 DUP2 ADD MLOAD ISZERO ISZERO PUSH1 0xE0 DUP6 ADD MSTORE POP PUSH2 0x100 DUP4 ADD SWAP3 POP PUSH1 0x20 DUP5 ADD SWAP4 POP PUSH1 0x1 DUP2 ADD SWAP1 POP PUSH2 0xFF3 JUMP JUMPDEST POP SWAP1 SWAP6 SWAP5 POP POP POP POP POP JUMP JUMPDEST PUSH1 0x1 PUSH1 0x1 PUSH1 0x40 SHL SUB DUP2 AND DUP2 EQ PUSH2 0x1093 JUMPI PUSH0 PUSH0 REVERT JUMPDEST POP JUMP JUMPDEST DUP1 ISZERO ISZERO DUP2 EQ PUSH2 0x1093 JUMPI PUSH0 PUSH0 REVERT JUMPDEST PUSH0 PUSH0 PUSH0 PUSH0 PUSH0 PUSH0 PUSH0 PUSH0 PUSH2 0x100 DUP10 DUP12 SUB SLT ISZERO PUSH2 0x10BB JUMPI PUSH0 PUSH0 REVERT JUMPDEST DUP9 CALLDATALOAD PUSH2 0x10C6 DUP2 PUSH2 0x107F JUMP JUMPDEST SWAP8 POP PUSH1 0x20 DUP10 ADD CALLDATALOAD PUSH2 0x10D6 DUP2 PUSH2 0x107F JUMP JUMPDEST SWAP7 POP PUSH1 0x40 DUP10 ADD CALLDATALOAD SWAP6 POP PUSH1 0x60 DUP10 ADD CALLDATALOAD SWAP5 POP PUSH1 0x80 DUP10 ADD CALLDATALOAD SWAP4 POP PUSH1 0xA0 DUP10 ADD CALLDATALOAD SWAP3 POP PUSH1 0xC0 DUP10 ADD CALLDATALOAD SWAP2 POP PUSH1 0xE0 DUP10 ADD CALLDATALOAD PUSH2 0x1109 DUP2 PUSH2 0x1096 JUMP JUMPDEST DUP1 SWAP2 POP POP SWAP3 SWAP6 SWAP9 POP SWAP3 SWAP6 SWAP9 SWAP1 SWAP4 SWAP7 POP JUMP JUMPDEST PUSH0 DUP2 MLOAD DUP1 DUP5 MSTORE DUP1 PUSH1 0x20 DUP5 ADD PUSH1 0x20 DUP7 ADD MCOPY PUSH0 PUSH1 0x20 DUP3 DUP7 ADD ADD MSTORE PUSH1 0x20 PUSH1 0x1F NOT PUSH1 0x1F DUP4 ADD AND DUP6 ADD ADD SWAP2 POP POP SWAP3 SWAP2 POP POP JUMP JUMPDEST PUSH4 0x4E487B71 PUSH1 0xE0 SHL PUSH0 MSTORE PUSH1 0x21 PUSH1 0x4 MSTORE PUSH1 0x24 PUSH0 REVERT JUMPDEST PUSH1 0x10 DUP2 LT PUSH2 0x1178 JUMPI PUSH4 0x4E487B71 PUSH1 0xE0 SHL PUSH0 MSTORE PUSH1 0x21 PUSH1 0x4 MSTORE PUSH1 0x24 PUSH0 REVERT JUMPDEST SWAP1 MSTORE JUMP JUMPDEST PUSH1 0xA0 DUP2 MSTORE PUSH0 PUSH2 0x118E PUSH1 0xA0 DUP4 ADD DUP9 PUSH2 0x111A JUMP JUMPDEST SWAP1 POP PUSH2 0x119D PUSH1 0x20 DUP4 ADD DUP8 PUSH2 0x115C JUMP JUMPDEST DUP5 PUSH1 0x40 DUP4 ADD MSTORE DUP4 PUSH1 0x60 DUP4 ADD MSTORE DUP3 PUSH1 0x80 DUP4 ADD MSTORE SWAP7 SWAP6 POP POP POP POP POP POP JUMP JUMPDEST PUSH0 PUSH1 0x20 DUP3 DUP5 SUB SLT ISZERO PUSH2 0x11C9 JUMPI PUSH0 PUSH0 REVERT JUMPDEST DUP2 CALLDATALOAD PUSH1 0x1 PUSH1 0x1 PUSH1 0xA0 SHL SUB DUP2 AND DUP2 EQ PUSH2 0x611 JUMPI PUSH0 PUSH0 REVERT JUMPDEST PUSH1 0x20 DUP2 MSTORE PUSH0 PUSH2 0x611 PUSH1 0x20 DUP4 ADD DUP5 PUSH2 0x111A JUMP JUMPDEST PUSH1 0x20 DUP2 ADD PUSH2 0x11FF DUP3 DUP5 PUSH2 0x115C JUMP JUMPDEST SWAP3 SWAP2 POP POP JUMP JUMPDEST PUSH4 0x4E487B71 PUSH1 0xE0 SHL PUSH0 MSTORE PUSH1 0x41 PUSH1 0x4 MSTORE PUSH1 0x24 PUSH0 REVERT JUMPDEST PUSH4 0x4E487B71 PUSH1 0xE0 SHL PUSH0 MSTORE PUSH1 0x11 PUSH1 0x4 MSTORE PUSH1 0x24 PUSH0 REVERT JUMPDEST DUP2 DUP2 SUB DUP2 DUP2 GT ISZERO PUSH2 0x11FF JUMPI PUSH2 0x11FF PUSH2 0x1219 JUMP JUMPDEST DUP1 DUP3 ADD DUP1 DUP3 GT ISZERO PUSH2 0x11FF JUMPI PUSH2 0x11FF PUSH2 0x1219 JUMP JUMPDEST PUSH4 0x4E487B71 PUSH1 0xE0 SHL PUSH0 MSTORE PUSH1 0x32 PUSH1 0x4 MSTORE PUSH1 0x24 PUSH0 REVERT JUMPDEST PUSH0 DUP3 PUSH2 0x1281 JUMPI PUSH4 0x4E487B71 PUSH1 0xE0 SHL PUSH0 MSTORE PUSH1 0x12 PUSH1 0x4 MSTORE PUSH1 0x24 PUSH0 REVERT JUMPDEST POP MOD SWAP1 JUMP JUMPDEST PUSH1 0x1 DUP2 DUP2 SHR SWAP1 DUP3 AND DUP1 PUSH2 0x129A JUMPI PUSH1 0x7F DUP3 AND SWAP2 POP JUMPDEST PUSH1 0x20 DUP3 LT DUP2 SUB PUSH2 0x12B8 JUMPI PUSH4 0x4E487B71 PUSH1 0xE0 SHL PUSH0 MSTORE PUSH1 0x22 PUSH1 0x4 MSTORE PUSH1 0x24 PUSH0 REVERT JUMPDEST POP SWAP2 SWAP1 POP JUMP JUMPDEST PUSH0 PUSH0 DUP4 SLOAD PUSH0 DUP2 PUSH1 0x1 SHR SWAP1 POP PUSH1 0x1 DUP3 AND DUP1 PUSH2 0x12D9 JUMPI PUSH1 0x7F DUP3 AND SWAP2 POP JUMPDEST PUSH1 0x20 DUP3 LT DUP2 SUB PUSH2 0x12F7 JUMPI PUSH4 0x4E487B71 PUSH1 0xE0 SHL PUSH0 MSTORE PUSH1 0x22 PUSH1 0x4 MSTORE PUSH1 0x24 PUSH0 REVERT JUMPDEST DUP1 DUP1 ISZERO PUSH2 0x130B JUMPI PUSH1 0x1 DUP2 EQ PUSH2 0x1320 JUMPI PUSH2 0x134E JUMP JUMPDEST PUSH1 0xFF NOT DUP5 AND DUP8 MSTORE DUP3 ISZERO ISZERO DUP4 MUL DUP8 ADD SWAP5 POP PUSH2 0x134E JUMP JUMPDEST PUSH0 DUP9 DUP2 MSTORE PUSH1 0x20 SWAP1 KECCAK256 PUSH0 JUMPDEST DUP5 DUP2 LT ISZERO PUSH2 0x1346 JUMPI DUP2 SLOAD DUP10 DUP3 ADD MSTORE PUSH1 0x1 SWAP1 SWAP2 ADD SWAP1 PUSH1 0x20 ADD PUSH2 0x132A JUMP JUMPDEST POP POP DUP3 DUP8 ADD SWAP5 POP JUMPDEST POP SWAP3 SWAP7 SWAP6 POP POP POP POP POP POP JUMP JUMPDEST PUSH1 0x40 MLOAD PUSH2 0x100 DUP2 ADD PUSH1 0x1 PUSH1 0x1 PUSH1 0x40 SHL SUB DUP2 GT DUP3 DUP3 LT OR ISZERO PUSH2 0x137D JUMPI PUSH2 0x137D PUSH2 0x1205 JUMP JUMPDEST PUSH1 0x40 MSTORE SWAP1 JUMP JUMPDEST PUSH1 0x40 MLOAD PUSH1 0x1F DUP3 ADD PUSH1 0x1F NOT AND DUP2 ADD PUSH1 0x1 PUSH1 0x1 PUSH1 0x40 SHL SUB DUP2 GT DUP3 DUP3 LT OR ISZERO PUSH2 0x13AB JUMPI PUSH2 0x13AB PUSH2 0x1205 JUMP JUMPDEST PUSH1 0x40 MSTORE SWAP2 SWAP1 POP JUMP JUMPDEST DUP1 MLOAD PUSH2 0x13BE DUP2 PUSH2 0x107F JUMP JUMPDEST SWAP2 SWAP1 POP JUMP JUMPDEST DUP1 MLOAD PUSH2 0x13BE DUP2 PUSH2 0x1096 JUMP JUMPDEST PUSH0 PUSH1 0x20 DUP3 DUP5 SUB SLT ISZERO PUSH2 0x13DE JUMPI PUSH0 PUSH0 REVERT JUMPDEST DUP2 MLOAD PUSH1 0x1 PUSH1 0x1 PUSH1 0x40 SHL SUB DUP2 GT ISZERO PUSH2 0x13F3 JUMPI PUSH0 PUSH0 REVERT JUMPDEST DUP3 ADD PUSH1 0x1F DUP2 ADD DUP5 SGT PUSH2 0x1403 JUMPI PUSH0 PUSH0 REVERT JUMPDEST DUP1 MLOAD PUSH1 0x1 PUSH1 0x1 PUSH1 0x40 SHL SUB DUP2 GT ISZERO PUSH2 0x141C JUMPI PUSH2 0x141C PUSH2 0x1205 JUMP JUMPDEST PUSH2 0x142B PUSH1 0x20 DUP3 PUSH1 0x5 SHL ADD PUSH2 0x1383 JUMP JUMPDEST DUP1 DUP3 DUP3 MSTORE PUSH1 0x20 DUP3 ADD SWAP2 POP PUSH1 0x20 DUP4 PUSH1 0x8 SHL DUP6 ADD ADD SWAP3 POP DUP7 DUP4 GT ISZERO PUSH2 0x144C JUMPI PUSH0 PUSH0 REVERT JUMPDEST PUSH1 0x20 DUP5 ADD SWAP4 POP JUMPDEST DUP3 DUP5 LT ISZERO PUSH2 0x14E9 JUMPI PUSH2 0x100 DUP5 DUP9 SUB SLT ISZERO PUSH2 0x146B JUMPI PUSH0 PUSH0 REVERT JUMPDEST PUSH2 0x1473 PUSH2 0x135A JUMP JUMPDEST DUP5 MLOAD PUSH2 0x147E DUP2 PUSH2 0x107F JUMP JUMPDEST DUP2 MSTORE PUSH2 0x148C PUSH1 0x20 DUP7 ADD PUSH2 0x13B3 JUMP JUMPDEST PUSH1 0x20 DUP3 ADD MSTORE PUSH1 0x40 DUP6 DUP2 ADD MLOAD SWAP1 DUP3 ADD MSTORE PUSH1 0x60 DUP1 DUP7 ADD MLOAD SWAP1 DUP3 ADD MSTORE PUSH1 0x80 DUP1 DUP7 ADD MLOAD SWAP1 DUP3 ADD MSTORE PUSH1 0xA0 DUP1 DUP7 ADD MLOAD SWAP1 DUP3 ADD MSTORE PUSH1 0xC0 DUP1 DUP7 ADD MLOAD SWAP1 DUP3 ADD MSTORE PUSH2 0x14CF PUSH1 0xE0 DUP7 ADD PUSH2 0x13C3 JUMP JUMPDEST PUSH1 0xE0 DUP3 ADD MSTORE DUP3 MSTORE PUSH2 0x100 SWAP4 SWAP1 SWAP4 ADD SWAP3 PUSH1 0x20 SWAP1 SWAP2 ADD SWAP1 PUSH2 0x1453 JUMP JUMPDEST SWAP7 SWAP6 POP POP POP POP POP POP JUMP INVALID LOG2 PUSH5 0x6970667358 0x22 SLT KECCAK256 0xAA 0xBD 0xC7 0x24 GAS EXTCODECOPY RJUMP 0xCB07 0xA9 RJUMP 0x69AD 0xB9 LOG2 DUP9 DELEGATECALL 0xB4 SWAP9 0xC4 0xC NOT 0xD4 GASLIMIT 0xE EXTCODEHASH XOR PUSH8 0x2BA804F264736F6C PUSH4 0x4300081E STOP CALLER "
				},
				"gasEstimates": {
					"creation": {
						"codeDepositCost": "1083400",
						"executionCost": "infinite",
						"totalCost": "infinite"
					},
					"external": {
						"MAX_KLINE_HISTORY()": "infinite",
						"addOrUpdateKline(uint64,uint64,uint256,uint256,uint256,uint256,uint256,bool)": "infinite",
						"factoryAddress()": "infinite",
						"getAllKlinesInThisVersion()": "infinite",
						"getInfo()": "infinite",
						"getKlines(uint256)": "infinite",
						"intervalType()": "infinite",
						"klineCount()": "2339",
						"klines(uint256)": "17567",
						"nextKlineIndex()": "2360",
						"oracleAddress()": "2358",
						"setOracle(address)": "infinite",
						"symbol()": "infinite",
						"version()": "infinite"
					}
				},
				"methodIdentifiers": {
					"MAX_KLINE_HISTORY()": "b1af9f4c",
					"addOrUpdateKline(uint64,uint64,uint256,uint256,uint256,uint256,uint256,bool)": "3a499a53",
					"factoryAddress()": "966dae0e",
					"getAllKlinesInThisVersion()": "718715d9",
					"getInfo()": "5a9b0b89",
					"getKlines(uint256)": "1a3ca7aa",
					"intervalType()": "afb13053",
					"klineCount()": "6297f23c",
					"klines(uint256)": "6cfcdca7",
					"nextKlineIndex()": "b121608c",
					"oracleAddress()": "a89ae4ba",
					"setOracle(address)": "7adbf973",
					"symbol()": "95d89b41",
					"version()": "54fd4d50"
				}
			},
			"storageLayout": {
				"storage": [
					{
						"astId": 13,
						"contract": "contracts/KlineIntervalData.sol:KlineIntervalData",
						"label": "symbol",
						"offset": 0,
						"slot": "0",
						"type": "t_string_storage"
					},
					{
						"astId": 21,
						"contract": "contracts/KlineIntervalData.sol:KlineIntervalData",
						"label": "klines",
						"offset": 0,
						"slot": "1",
						"type": "t_array(t_struct(CompactCandle)472_storage)dyn_storage"
					},
					{
						"astId": 23,
						"contract": "contracts/KlineIntervalData.sol:KlineIntervalData",
						"label": "nextKlineIndex",
						"offset": 0,
						"slot": "2",
						"type": "t_uint256"
					},
					{
						"astId": 25,
						"contract": "contracts/KlineIntervalData.sol:KlineIntervalData",
						"label": "klineCount",
						"offset": 0,
						"slot": "3",
						"type": "t_uint256"
					},
					{
						"astId": 27,
						"contract": "contracts/KlineIntervalData.sol:KlineIntervalData",
						"label": "oracleAddress",
						"offset": 0,
						"slot": "4",
						"type": "t_address"
					}
				],
				"types": {
					"t_address": {
						"encoding": "inplace",
						"label": "address",
						"numberOfBytes": "20"
					},
					"t_array(t_struct(CompactCandle)472_storage)dyn_storage": {
						"base": "t_struct(CompactCandle)472_storage",
						"encoding": "dynamic_array",
						"label": "struct KlineDataLib.CompactCandle[]",
						"numberOfBytes": "32"
					},
					"t_bool": {
						"encoding": "inplace",
						"label": "bool",
						"numberOfBytes": "1"
					},
					"t_string_storage": {
						"encoding": "bytes",
						"label": "string",
						"numberOfBytes": "32"
					},
					"t_struct(CompactCandle)472_storage": {
						"encoding": "inplace",
						"label": "struct KlineDataLib.CompactCandle",
						"members": [
							{
								"astId": 457,
								"contract": "contracts/KlineIntervalData.sol:KlineIntervalData",
								"label": "startTime",
								"offset": 0,
								"slot": "0",
								"type": "t_uint64"
							},
							{
								"astId": 459,
								"contract": "contracts/KlineIntervalData.sol:KlineIntervalData",
								"label": "closeTime",
								"offset": 8,
								"slot": "0",
								"type": "t_uint64"
							},
							{
								"astId": 461,
								"contract": "contracts/KlineIntervalData.sol:KlineIntervalData",
								"label": "openPrice",
								"offset": 0,
								"slot": "1",
								"type": "t_uint256"
							},
							{
								"astId": 463,
								"contract": "contracts/KlineIntervalData.sol:KlineIntervalData",
								"label": "highPrice",
								"offset": 0,
								"slot": "2",
								"type": "t_uint256"
							},
							{
								"astId": 465,
								"contract": "contracts/KlineIntervalData.sol:KlineIntervalData",
								"label": "lowPrice",
								"offset": 0,
								"slot": "3",
								"type": "t_uint256"
							},
							{
								"astId": 467,
								"contract": "contracts/KlineIntervalData.sol:KlineIntervalData",
								"label": "closePrice",
								"offset": 0,
								"slot": "4",
								"type": "t_uint256"
							},
							{
								"astId": 469,
								"contract": "contracts/KlineIntervalData.sol:KlineIntervalData",
								"label": "volume",
								"offset": 0,
								"slot": "5",
								"type": "t_uint256"
							},
							{
								"astId": 471,
								"contract": "contracts/KlineIntervalData.sol:KlineIntervalData",
								"label": "isClosed",
								"offset": 0,
								"slot": "6",
								"type": "t_bool"
							}
						],
						"numberOfBytes": "224"
					},
					"t_uint256": {
						"encoding": "inplace",
						"label": "uint256",
						"numberOfBytes": "32"
					},
					"t_uint64": {
						"encoding": "inplace",
						"label": "uint64",
						"numberOfBytes": "8"
					}
				}
			},
			"userdoc": {
				"kind": "user",
				"methods": {},
				"version": 1
			}
		}
	}
}