{
	"contracts/FactoryContract.sol": {
		"FactoryContract": {
			"abi": [
				{
					"inputs": [
						{
							"internalType": "string[]",
							"name": "_intervals",
							"type": "string[]"
						}
					],
					"stateMutability": "nonpayable",
					"type": "constructor"
				},
				{
					"anonymous": false,
					"inputs": [
						{
							"indexed": false,
							"internalType": "string",
							"name": "interval",
							"type": "string"
						},
						{
							"indexed": false,
							"internalType": "address",
							"name": "contractAddress",
							"type": "address"
						}
					],
					"name": "NewIntervalContract",
					"type": "event"
				},
				{
					"inputs": [
						{
							"internalType": "string",
							"name": "_interval",
							"type": "string"
						},
						{
							"components": [
								{
									"internalType": "uint256",
									"name": "timestamp",
									"type": "uint256"
								},
								{
									"internalType": "uint256",
									"name": "endTimestamp",
									"type": "uint256"
								},
								{
									"internalType": "string",
									"name": "symbol",
									"type": "string"
								},
								{
									"internalType": "string",
									"name": "interval",
									"type": "string"
								},
								{
									"internalType": "uint256",
									"name": "firstTradeId",
									"type": "uint256"
								},
								{
									"internalType": "uint256",
									"name": "lastTradeId",
									"type": "uint256"
								},
								{
									"internalType": "uint256",
									"name": "open",
									"type": "uint256"
								},
								{
									"internalType": "uint256",
									"name": "high",
									"type": "uint256"
								},
								{
									"internalType": "uint256",
									"name": "low",
									"type": "uint256"
								},
								{
									"internalType": "uint256",
									"name": "close",
									"type": "uint256"
								},
								{
									"internalType": "uint256",
									"name": "volume",
									"type": "uint256"
								},
								{
									"internalType": "uint256",
									"name": "numberOfTrades",
									"type": "uint256"
								},
								{
									"internalType": "bool",
									"name": "isClosed",
									"type": "bool"
								},
								{
									"internalType": "uint256",
									"name": "quoteVolume",
									"type": "uint256"
								},
								{
									"internalType": "uint256",
									"name": "takerBuyVolume",
									"type": "uint256"
								},
								{
									"internalType": "uint256",
									"name": "takerBuyQuoteVolume",
									"type": "uint256"
								}
							],
							"internalType": "struct IntervalContract.KlineInput",
							"name": "input",
							"type": "tuple"
						}
					],
					"name": "addKline",
					"outputs": [],
					"stateMutability": "nonpayable",
					"type": "function"
				},
				{
					"inputs": [],
					"name": "getIntervals",
					"outputs": [
						{
							"internalType": "string[]",
							"name": "",
							"type": "string[]"
						}
					],
					"stateMutability": "view",
					"type": "function"
				},
				{
					"inputs": [
						{
							"internalType": "string",
							"name": "_interval",
							"type": "string"
						},
						{
							"internalType": "uint256",
							"name": "_startTime",
							"type": "uint256"
						},
						{
							"internalType": "uint256",
							"name": "_endTime",
							"type": "uint256"
						}
					],
					"name": "getKlineData",
					"outputs": [
						{
							"components": [
								{
									"internalType": "uint256",
									"name": "timestamp",
									"type": "uint256"
								},
								{
									"internalType": "uint256",
									"name": "endTimestamp",
									"type": "uint256"
								},
								{
									"internalType": "string",
									"name": "symbol",
									"type": "string"
								},
								{
									"internalType": "uint256",
									"name": "firstTradeId",
									"type": "uint256"
								},
								{
									"internalType": "uint256",
									"name": "lastTradeId",
									"type": "uint256"
								},
								{
									"internalType": "uint256",
									"name": "open",
									"type": "uint256"
								},
								{
									"internalType": "uint256",
									"name": "high",
									"type": "uint256"
								},
								{
									"internalType": "uint256",
									"name": "low",
									"type": "uint256"
								},
								{
									"internalType": "uint256",
									"name": "close",
									"type": "uint256"
								},
								{
									"internalType": "uint256",
									"name": "volume",
									"type": "uint256"
								},
								{
									"internalType": "uint256",
									"name": "numberOfTrades",
									"type": "uint256"
								},
								{
									"internalType": "bool",
									"name": "isClosed",
									"type": "bool"
								},
								{
									"internalType": "uint256",
									"name": "quoteVolume",
									"type": "uint256"
								},
								{
									"internalType": "uint256",
									"name": "takerBuyVolume",
									"type": "uint256"
								},
								{
									"internalType": "uint256",
									"name": "takerBuyQuoteVolume",
									"type": "uint256"
								}
							],
							"internalType": "struct IntervalContract.Kline[]",
							"name": "",
							"type": "tuple[]"
						}
					],
					"stateMutability": "view",
					"type": "function"
				},
				{
					"inputs": [
						{
							"internalType": "string",
							"name": "",
							"type": "string"
						},
						{
							"internalType": "uint256",
							"name": "",
							"type": "uint256"
						}
					],
					"name": "intervalContracts",
					"outputs": [
						{
							"internalType": "address",
							"name": "contractAddress",
							"type": "address"
						},
						{
							"internalType": "uint256",
							"name": "startTimestamp",
							"type": "uint256"
						},
						{
							"internalType": "uint256",
							"name": "endTimestamp",
							"type": "uint256"
						}
					],
					"stateMutability": "view",
					"type": "function"
				},
				{
					"inputs": [
						{
							"internalType": "uint256",
							"name": "",
							"type": "uint256"
						}
					],
					"name": "intervals",
					"outputs": [
						{
							"internalType": "string",
							"name": "",
							"type": "string"
						}
					],
					"stateMutability": "view",
					"type": "function"
				}
			],
			"devdoc": {
				"kind": "dev",
				"methods": {},
				"version": 1
			},
			"evm": {
				"assembly": "    /* \"contracts/FactoryContract.sol\":96:4462  contract FactoryContract {... */\n  mstore(0x40, 0x80)\n  jumpi(tag_72, callvalue)\n  bytecodeSize\n  dup1\n  codesize\n  sub\n  dup1\n  tag_6\n  dup2\n  tag_1\n  jump\t// in\ntag_6:\n  swap3\n  dup4\n  codecopy\n  dup2\n  add\n  swap1\n  0x20\n  dup2\n  dup4\n  sub\n  slt\n  tag_72\n  jumpi\n  dup1\n  mload\n  swap1\n  sub(shl(0x40, 0x01), 0x01)\n  dup3\n  gt\n  tag_72\n  jumpi\n  add\n  swap1\n  dup1\n  0x1f\n  dup4\n  add\n  slt\n  iszero\n  tag_72\n  jumpi\n  dup2\n  mload\n  swap2\n  sub(shl(0x40, 0x01), 0x01)\n  dup4\n  gt\n  tag_50\n  jumpi\n  dup3\n  0x05\n  shl\n  0x20\n  dup1\n  tag_15\n  dup2\n  dup5\n  add\n  tag_1\n  jump\t// in\ntag_15:\n  dup1\n  swap7\n  dup2\n  mstore\n  add\n  swap2\n  dup4\n  add\n  add\n  swap2\n  dup4\n  dup4\n  gt\n  tag_72\n  jumpi\n  0x20\n  dup2\n  add\n  swap2\ntag_18:\n  dup4\n  dup4\n  lt\n  tag_19\n  jumpi\n    /* \"contracts/FactoryContract.sol\":776:807  new IntervalContract(_interval) */\n  dataOffset(sub_1)\n    /* \"contracts/FactoryContract.sol\":493:506  uint256 i = 0 */\n  dup7\n    /* \"contracts/FactoryContract.sol\":776:807  new IntervalContract(_interval) */\n  dataSize(sub_1)\n  0x00\n    /* \"contracts/FactoryContract.sol\":531:534  i++ */\ntag_21:\n    /* \"contracts/FactoryContract.sol\":96:4462  contract FactoryContract {... */\n  dup3\n  mload\n    /* \"contracts/FactoryContract.sol\":508:529  i < _intervals.length */\n  dup2\n  lt\n  iszero\n  tag_22\n  jumpi\n    /* \"contracts/FactoryContract.sol\":566:579  _intervals[i] */\n  tag_24\n  dup2\n  dup5\n  tag_2\n  jump\t// in\ntag_24:\n  mload\n    /* \"contracts/FactoryContract.sol\":551:560  intervals */\n  0x01\n    /* \"contracts/FactoryContract.sol\":96:4462  contract FactoryContract {... */\n  sload\n  0x010000000000000000\n  dup2\n  lt\n  iszero\n  tag_50\n  jumpi\n    /* \"contracts/FactoryContract.sol\":551:560  intervals */\n  0x01\n    /* \"contracts/FactoryContract.sol\":96:4462  contract FactoryContract {... */\n  dup2\n  add\n  dup1\n    /* \"contracts/FactoryContract.sol\":551:560  intervals */\n  0x01\n    /* \"contracts/FactoryContract.sol\":96:4462  contract FactoryContract {... */\n  sstore\n  dup2\n  lt\n  iszero\n  tag_52\n  jumpi\n    /* \"contracts/FactoryContract.sol\":551:560  intervals */\n  0x01\n  0x00\n    /* \"contracts/FactoryContract.sol\":96:4462  contract FactoryContract {... */\n  mstore\n  dup2\n  mload\n  0xb10e2d527612073b26eecdfd717e6a320cf44b4afac2b0732d9fcbe2b7fa0cf6\n  swap2\n  swap1\n  swap2\n  add\n  swap2\n  sub(shl(0x40, 0x01), 0x01)\n  dup3\n  gt\n  tag_50\n  jumpi\n  dup3\n  sload\n  swap1\n    /* \"contracts/FactoryContract.sol\":551:560  intervals */\n  0x01\n    /* \"contracts/FactoryContract.sol\":96:4462  contract FactoryContract {... */\n  dup3\n  dup2\n  shr\n  swap3\n  and\n  dup1\n  iszero\n  tag_31\n  jumpi\n    /* \"contracts/FactoryContract.sol\":531:534  i++ */\ntag_32:\n    /* \"contracts/FactoryContract.sol\":96:4462  contract FactoryContract {... */\n  0x20\n  dup4\n  lt\n  eq\n  tag_33\n  jumpi\n  dup2\n  0x1f\n  dup5\n  swap4\n  gt\n  tag_35\n  jumpi\n    /* \"contracts/FactoryContract.sol\":531:534  i++ */\ntag_36:\n    /* \"contracts/FactoryContract.sol\":96:4462  contract FactoryContract {... */\n  pop\n  0x20\n  swap1\n  0x1f\n  dup4\n  gt\n  0x01\n  eq\n  tag_37\n  jumpi\n  0x00\n  swap3\n  tag_39\n  jumpi\ntag_40:\n  pop\n  pop\n  dup2\n    /* \"contracts/FactoryContract.sol\":551:560  intervals */\n  0x01\n    /* \"contracts/FactoryContract.sol\":96:4462  contract FactoryContract {... */\n  shl\n  swap2\n  not(0x00)\n  swap1\n  0x03\n  shl\n  shr\n  not\n  and\n  or\n  swap1\n  sstore\ntag_41:\n    /* \"contracts/FactoryContract.sol\":614:627  _intervals[i] */\n  tag_42\n  dup2\n  dup5\n  tag_2\n  jump\t// in\ntag_42:\n  mload\n    /* \"contracts/FactoryContract.sol\":96:4462  contract FactoryContract {... */\n  mload(0x40)\n    /* \"contracts/FactoryContract.sol\":614:627  _intervals[i] */\n  swap1\n  swap2\n    /* \"contracts/FactoryContract.sol\":96:4462  contract FactoryContract {... */\n  swap1\n    /* \"contracts/FactoryContract.sol\":776:807  new IntervalContract(_interval) */\n  dup4\n  dup2\n  add\n  sub(shl(0x40, 0x01), 0x01)\n  dup2\n  gt\n  dup3\n  dup3\n  lt\n  or\n  tag_50\n  jumpi\n    /* \"contracts/FactoryContract.sol\":96:4462  contract FactoryContract {... */\n  tag_45\n  0x20\n    /* \"contracts/FactoryContract.sol\":776:807  new IntervalContract(_interval) */\n  dup4\n  swap3\n  dup8\n  dup11\n  dup6\n  codecopy\n    /* \"contracts/FactoryContract.sol\":96:4462  contract FactoryContract {... */\n  dup2\n  dup2\n  mstore\n  add\n  dup6\n  tag_3\n  jump\t// in\ntag_45:\n    /* \"contracts/FactoryContract.sol\":776:807  new IntervalContract(_interval) */\n  sub\n  swap1\n  0x00\n  create\n  dup1\n  iszero\n  tag_46\n  jumpi\n    /* \"contracts/FactoryContract.sol\":96:4462  contract FactoryContract {... */\n  mload(0x40)\n  0x20\n  dup2\n  dup6\n  mload\n  dup1\n  dup4\n  dup9\n  add\n  dup4\n  mcopy\n  0x00\n  swap1\n  dup3\n  add\n  swap1\n  dup2\n  mstore\n  sub\n  add\n  swap1\n  keccak256\n  mload(0x40)\n  swap4\n  sub(shl(0xa0, 0x01), 0x01)\n  swap1\n  swap3\n  and\n  swap2\n  0x60\n  dup6\n  add\n  sub(shl(0x40, 0x01), 0x01)\n  dup2\n  gt\n  dup7\n  dup3\n  lt\n  or\n  tag_50\n  jumpi\n  0x40\n  mstore\n  dup3\n  dup6\n  mstore\n  0x20\n    /* \"contracts/FactoryContract.sol\":866:1035  ContractInfo({... */\n  dup6\n  add\n    /* \"contracts/FactoryContract.sol\":970:985  block.timestamp */\n  swap3\n  timestamp\n    /* \"contracts/FactoryContract.sol\":96:4462  contract FactoryContract {... */\n  dup5\n  mstore\n  0x40\n    /* \"contracts/FactoryContract.sol\":866:1035  ContractInfo({... */\n  dup7\n  add\n    /* \"contracts/FactoryContract.sol\":96:4462  contract FactoryContract {... */\n  swap6\n  0x00\n  dup8\n  mstore\n  dup4\n  sload\n  swap4\n  0x010000000000000000\n  dup6\n  lt\n  iszero\n  tag_50\n  jumpi\n    /* \"contracts/FactoryContract.sol\":551:560  intervals */\n  0x01\n    /* \"contracts/FactoryContract.sol\":96:4462  contract FactoryContract {... */\n  dup6\n  add\n  dup1\n  dup3\n  sstore\n  dup6\n  lt\n  iszero\n  tag_52\n  jumpi\n    /* \"contracts/FactoryContract.sol\":551:560  intervals */\n  0x01\n    /* \"contracts/FactoryContract.sol\":96:4462  contract FactoryContract {... */\n  swap8\n    /* \"contracts/FactoryContract.sol\":1062:1114  NewIntervalContract(_interval, address(newContract)) */\n  0xf8fc7b546285327f0096673f943d0b65dc7436f2818b7daa763c532348a73dea\n    /* \"contracts/FactoryContract.sol\":96:4462  contract FactoryContract {... */\n  swap7\n  tag_54\n  swap7\n  0x02\n  swap4\n  0x00\n  mstore\n  0x03\n  keccak256(0x00, 0x20)\n  swap2\n  mul\n  add\n  swap4\n  dup11\n  dup1\n  0xa0\n  shl\n  sub\n  swap1\n  mload\n  and\n  dup11\n  dup1\n  0xa0\n  shl\n  sub\n  not\n  dup6\n  sload\n  and\n  or\n  dup5\n  sstore\n  mload\n  dup10\n  dup5\n  add\n  sstore\n  mload\n  swap2\n  add\n  sstore\n  mload(0x40)\n  swap3\n  dup4\n  swap3\n  0x40\n  dup5\n  mstore\n  0x40\n  dup5\n  add\n  swap1\n  tag_3\n  jump\t// in\ntag_54:\n  swap1\n  0x20\n  dup4\n  add\n  mstore\n    /* \"contracts/FactoryContract.sol\":1062:1114  NewIntervalContract(_interval, address(newContract)) */\n  sub\n  swap1\n  log1\n    /* \"contracts/FactoryContract.sol\":96:4462  contract FactoryContract {... */\n  add\n    /* \"contracts/FactoryContract.sol\":493:506  uint256 i = 0 */\n  jump(tag_21)\n    /* \"contracts/FactoryContract.sol\":96:4462  contract FactoryContract {... */\ntag_52:\n  mstore(0x00, shl(0xe0, 0x4e487b71))\n  mstore(0x04, 0x32)\n  revert(0x00, 0x24)\ntag_50:\n  mstore(0x00, shl(0xe0, 0x4e487b71))\n  mstore(0x04, 0x41)\n  revert(0x00, 0x24)\n    /* \"contracts/FactoryContract.sol\":776:807  new IntervalContract(_interval) */\ntag_46:\n    /* \"contracts/FactoryContract.sol\":96:4462  contract FactoryContract {... */\n  mload(0x40)\n  returndatasize\n  0x00\n  dup3\n  returndatacopy\n  returndatasize\n  swap1\n  revert\ntag_39:\n  add\n  mload\n  swap1\n  pop\n  dup8\n  dup1\n  jump(tag_40)\ntag_37:\n  0x00\n  dup6\n  dup2\n  mstore\n  dup3\n  dup2\n  keccak256\n  swap4\n  pop\n  not(0x1f)\n  dup6\n  and\n  swap1\ntag_55:\n  dup2\n  dup2\n  lt\n  tag_56\n  jumpi\n  pop\n  swap1\n  dup5\n    /* \"contracts/FactoryContract.sol\":551:560  intervals */\n  0x01\n    /* \"contracts/FactoryContract.sol\":96:4462  contract FactoryContract {... */\n  swap6\n  swap5\n  swap4\n  swap3\n  lt\n  tag_58\n  jumpi\ntag_59:\n  pop\n  pop\n  pop\n  dup2\n  shl\n  add\n  swap1\n  sstore\n  jump(tag_41)\ntag_58:\n  add\n  mload\n  not(0x00)\n  0xf8\n  dup5\n  0x03\n  shl\n  and\n  shr\n  not\n  and\n  swap1\n  sstore\n  dup8\n  dup1\n  dup1\n  jump(tag_59)\ntag_56:\n  dup3\n  dup5\n  add\n  mload\n  dup6\n  sstore\n    /* \"contracts/FactoryContract.sol\":551:560  intervals */\n  0x01\n    /* \"contracts/FactoryContract.sol\":96:4462  contract FactoryContract {... */\n  swap1\n  swap5\n  add\n  swap4\n  0x20\n  swap4\n  dup5\n  add\n  swap4\n  add\n  jump(tag_55)\ntag_35:\n  swap1\n  swap2\n  pop\n  dup4\n  0x00\n  mstore\n  keccak256(0x00, 0x20)\n  0x1f\n  dup5\n  add\n  0x05\n  shr\n  dup2\n  add\n  swap2\n  0x20\n  dup6\n  lt\n  tag_60\n  jumpi\ntag_61:\n  0x1f\n  add\n  0x05\n  shr\n  add\n  swap1\ntag_62:\n  dup2\n  dup2\n  lt\n  tag_63\n  jumpi\n  dup4\n  swap3\n  swap2\n  pop\n  jump(tag_36)\ntag_63:\n  0x00\n  dup2\n  sstore\n    /* \"contracts/FactoryContract.sol\":551:560  intervals */\n  0x01\n    /* \"contracts/FactoryContract.sol\":96:4462  contract FactoryContract {... */\n  add\n  jump(tag_62)\ntag_60:\n  swap1\n  swap2\n  pop\n  dup2\n  swap1\n  jump(tag_61)\ntag_33:\n  mstore(0x00, shl(0xe0, 0x4e487b71))\n  mstore(0x04, 0x22)\n  revert(0x00, 0x24)\ntag_31:\n  swap2\n  0x7f\n  and\n  swap2\n  jump(tag_32)\n    /* \"contracts/FactoryContract.sol\":508:529  i < _intervals.length */\ntag_22:\n    /* \"contracts/FactoryContract.sol\":96:4462  contract FactoryContract {... */\n  mload(0x40)\n  dataSize(sub_0)\n  swap1\n  dup2\n  dataOffset(sub_0)\n  dup3\n  codecopy\n  return\ntag_19:\n  dup3\n  mload\n  sub(shl(0x40, 0x01), 0x01)\n  dup2\n  gt\n  tag_72\n  jumpi\n  dup3\n  add\n  dup6\n  0x3f\n  dup3\n  add\n  slt\n  iszero\n  tag_72\n  jumpi\n  0x20\n  dup2\n  add\n  mload\n  swap2\n  sub(shl(0x40, 0x01), 0x01)\n  dup4\n  gt\n  tag_50\n  jumpi\n  tag_71\n  0x1f\n  dup5\n  add\n  not(0x1f)\n  and\n  0x20\n  add\n  tag_1\n  jump\t// in\ntag_71:\n  dup4\n  dup2\n  mstore\n  0x40\n  dup4\n  dup6\n  add\n  add\n  dup9\n  lt\n  tag_72\n  jumpi\n  0x00\n  0x20\n  dup6\n  dup2\n  swap7\n  0x40\n  dup4\n  swap8\n  add\n  dup4\n  dup7\n  add\n  mcopy\n  dup4\n  add\n  add\n  mstore\n  dup2\n  mstore\n  add\n  swap3\n  add\n  swap2\n  jump(tag_18)\ntag_72:\n  0x00\n  dup1\n  revert\ntag_1:\n  mload(0x40)\n  swap2\n  swap1\n  0x1f\n  add\n  not(0x1f)\n  and\n  dup3\n  add\n  sub(shl(0x40, 0x01), 0x01)\n  dup2\n  gt\n  dup4\n  dup3\n  lt\n  or\n  tag_50\n  jumpi\n  0x40\n  mstore\n  jump\t// out\ntag_2:\n  dup1\n  mload\n  dup3\n  lt\n  iszero\n  tag_52\n  jumpi\n  0x20\n  swap2\n  0x05\n  shl\n  add\n  add\n  swap1\n  jump\t// out\ntag_3:\n  dup1\n  mload\n  dup1\n  dup4\n  mstore\n  0x20\n  swap3\n  swap2\n  dup2\n  swap1\n  dup5\n  add\n  dup5\n  dup5\n  add\n  mcopy\n  0x00\n  dup3\n  dup3\n  add\n  dup5\n  add\n  mstore\n  0x1f\n  add\n  not(0x1f)\n  and\n  add\n  add\n  swap1\n  jump\t// out\nstop\n\nsub_0: assembly {\n        /* \"contracts/FactoryContract.sol\":96:4462  contract FactoryContract {... */\n      mstore(0x40, 0x80)\n      jumpi(tag_18, iszero(lt(calldatasize, 0x04)))\n      0x00\n      dup1\n      revert\n    tag_18:\n      shr(0xe0, calldataload(0x00))\n      dup1\n      0x328ffd11\n      eq\n      tag_20\n      jumpi\n      dup1\n      0x492bd276\n      eq\n      tag_22\n      jumpi\n      dup1\n      0x4bbc3aeb\n      eq\n      tag_24\n      jumpi\n      dup1\n      0xbe21e6c3\n      eq\n      tag_26\n      jumpi\n      0xf9a284eb\n      eq\n      tag_28\n      jumpi\n      0x00\n      dup1\n      revert\n    tag_28:\n      jumpi(tag_62, callvalue)\n      jumpi(tag_62, slt(add(not(0x03), calldatasize), 0x60))\n      calldataload(0x04)\n      sub(shl(0x40, 0x01), 0x01)\n      dup2\n      gt\n      tag_62\n      jumpi\n      tag_36\n      swap1\n      calldatasize\n      swap1\n      0x04\n      add\n      tag_8\n      jump\t// in\n    tag_36:\n      calldataload(0x24)\n      swap1\n      0x20\n      dup1\n      calldataload(0x44)\n      swap3\n      mload(0x40)\n      swap3\n      dup2\n      dup5\n      swap3\n      mload\n      swap2\n      dup3\n      swap2\n      add\n      dup4\n      mcopy\n      dup2\n      add\n      0x00\n      dup2\n      mstore\n      sub\n      add\n      swap1\n      keccak256\n      dup1\n      sload\n      tag_37\n      dup2\n      tag_10\n      jump\t// in\n    tag_37:\n      swap2\n      tag_38\n      mload(0x40)\n      swap4\n      dup5\n      tag_3\n      jump\t// in\n    tag_38:\n      dup2\n      dup4\n      mstore\n      0x20\n      dup4\n      add\n      swap1\n      0x00\n      mstore\n      keccak256(0x00, 0x20)\n      0x00\n      swap2\n    tag_39:\n      dup4\n      dup4\n      lt\n      tag_40\n      jumpi\n      pop\n      pop\n      pop\n      pop\n        /* \"contracts/FactoryContract.sol\":2282:2337  require(contracts.length > 0, \"Interval not supported\") */\n      tag_42\n        /* \"contracts/FactoryContract.sol\":96:4462  contract FactoryContract {... */\n      dup2\n      mload\n        /* \"contracts/FactoryContract.sol\":2290:2310  contracts.length > 0 */\n      iszero\n      iszero\n        /* \"contracts/FactoryContract.sol\":2282:2337  require(contracts.length > 0, \"Interval not supported\") */\n      tag_11\n      jump\t// in\n    tag_42:\n        /* \"contracts/FactoryContract.sol\":2455:2469  _startTime > 0 */\n      dup3\n      iszero\n      iszero\n        /* \"contracts/FactoryContract.sol\":2455:2495  _startTime > 0 && _endTime >= _startTime */\n      swap2\n      dup3\n      tag_43\n      jumpi\n        /* \"contracts/FactoryContract.sol\":96:4462  contract FactoryContract {... */\n    tag_44:\n      0x00\n        /* \"contracts/FactoryContract.sol\":2547:2560  uint256 i = 0 */\n      swap4\n        /* \"contracts/FactoryContract.sol\":96:4462  contract FactoryContract {... */\n      0x00\n        /* \"contracts/FactoryContract.sol\":2584:2587  i++ */\n    tag_45:\n        /* \"contracts/FactoryContract.sol\":96:4462  contract FactoryContract {... */\n      dup4\n      mload\n        /* \"contracts/FactoryContract.sol\":2562:2582  i < contracts.length */\n      dup2\n      lt\n      iszero\n      tag_46\n      jumpi\n        /* \"contracts/FactoryContract.sol\":2608:2622  !useTimeFilter */\n      dup5\n      iszero\n        /* \"contracts/FactoryContract.sol\":96:4462  contract FactoryContract {... */\n      dup1\n      iszero\n        /* \"contracts/FactoryContract.sol\":2608:2795  !useTimeFilter || (... */\n      tag_48\n      jumpi\n        /* \"contracts/FactoryContract.sol\":2584:2587  i++ */\n    tag_49:\n        /* \"contracts/FactoryContract.sol\":2604:2980  if (!useTimeFilter || (... */\n      tag_50\n      jumpi\n        /* \"contracts/FactoryContract.sol\":2584:2587  i++ */\n    tag_51:\n        /* \"contracts/FactoryContract.sol\":96:4462  contract FactoryContract {... */\n      0x01\n      add\n        /* \"contracts/FactoryContract.sol\":2547:2560  uint256 i = 0 */\n      jump(tag_45)\n        /* \"contracts/FactoryContract.sol\":2604:2980  if (!useTimeFilter || (... */\n    tag_50:\n        /* \"contracts/FactoryContract.sol\":96:4462  contract FactoryContract {... */\n      swap5\n      0x04\n      0x20\n      sub(shl(0xa0, 0x01), 0x01)\n        /* \"contracts/FactoryContract.sol\":2869:2881  contracts[i] */\n      tag_52\n        /* \"contracts/FactoryContract.sol\":96:4462  contract FactoryContract {... */\n      dup10\n        /* \"contracts/FactoryContract.sol\":2869:2881  contracts[i] */\n      dup9\n      tag_16\n      jump\t// in\n    tag_52:\n      mload\n        /* \"contracts/FactoryContract.sol\":96:4462  contract FactoryContract {... */\n      mload\n      and\n      mload(0x40)\n      swap3\n      dup4\n      dup1\n      swap3\n      shl(0xe1, 0x245d72c9)\n        /* \"contracts/FactoryContract.sol\":2932:2964  intervalContract.getKlineCount() */\n      dup3\n      mstore\n      gas\n      staticcall\n      swap1\n      dup2\n      iszero\n      tag_53\n      jumpi\n        /* \"contracts/FactoryContract.sol\":96:4462  contract FactoryContract {... */\n      0x00\n        /* \"contracts/FactoryContract.sol\":2932:2964  intervalContract.getKlineCount() */\n      swap2\n      tag_55\n      jumpi\n        /* \"contracts/FactoryContract.sol\":2604:2980  if (!useTimeFilter || (... */\n    tag_56:\n        /* \"contracts/FactoryContract.sol\":96:4462  contract FactoryContract {... */\n      pop\n      dup2\n      add\n      dup1\n      swap2\n      gt\n      tag_57\n      jumpi\n        /* \"contracts/FactoryContract.sol\":2917:2964  totalKlines += intervalContract.getKlineCount() */\n      swap5\n        /* \"contracts/FactoryContract.sol\":2604:2980  if (!useTimeFilter || (... */\n      jump(tag_51)\n        /* \"contracts/FactoryContract.sol\":96:4462  contract FactoryContract {... */\n    tag_57:\n      mstore(0x00, shl(0xe0, 0x4e487b71))\n      mstore(0x04, 0x11)\n      revert(0x00, 0x24)\n        /* \"contracts/FactoryContract.sol\":2932:2964  intervalContract.getKlineCount() */\n    tag_55:\n      swap1\n      pop\n        /* \"contracts/FactoryContract.sol\":96:4462  contract FactoryContract {... */\n      0x20\n        /* \"contracts/FactoryContract.sol\":2932:2964  intervalContract.getKlineCount() */\n      dup2\n      returndatasize\n      dup3\n      gt\n      tag_59\n      jumpi\n    tag_60:\n      dup2\n      tag_61\n        /* \"contracts/FactoryContract.sol\":96:4462  contract FactoryContract {... */\n      0x20\n        /* \"contracts/FactoryContract.sol\":2932:2964  intervalContract.getKlineCount() */\n      swap4\n      dup4\n      tag_3\n      jump\t// in\n    tag_61:\n      dup2\n      add\n        /* \"contracts/FactoryContract.sol\":96:4462  contract FactoryContract {... */\n      sub\n      slt\n      tag_62\n      jumpi\n      mload\n        /* \"contracts/FactoryContract.sol\":2932:2964  intervalContract.getKlineCount() */\n      0x00\n      jump(tag_56)\n        /* \"contracts/FactoryContract.sol\":96:4462  contract FactoryContract {... */\n    tag_62:\n      0x00\n      dup1\n      revert\n        /* \"contracts/FactoryContract.sol\":2932:2964  intervalContract.getKlineCount() */\n    tag_59:\n      returndatasize\n      swap2\n      pop\n      jump(tag_60)\n    tag_53:\n        /* \"contracts/FactoryContract.sol\":96:4462  contract FactoryContract {... */\n      mload(0x40)\n      returndatasize\n      0x00\n      dup3\n      returndatacopy\n      returndatasize\n      swap1\n      revert\n        /* \"contracts/FactoryContract.sol\":2608:2795  !useTimeFilter || (... */\n    tag_48:\n        /* \"contracts/FactoryContract.sol\":2646:2658  contracts[i] */\n      pop\n        /* \"contracts/FactoryContract.sol\":96:4462  contract FactoryContract {... */\n      0x40\n        /* \"contracts/FactoryContract.sol\":2646:2658  contracts[i] */\n      tag_64\n      dup3\n      dup7\n      tag_16\n      jump\t// in\n    tag_64:\n      mload\n        /* \"contracts/FactoryContract.sol\":2646:2671  contracts[i].endTimestamp */\n      add\n        /* \"contracts/FactoryContract.sol\":96:4462  contract FactoryContract {... */\n      mload\n        /* \"contracts/FactoryContract.sol\":2646:2676  contracts[i].endTimestamp == 0 */\n      iszero\n        /* \"contracts/FactoryContract.sol\":2646:2719  contracts[i].endTimestamp == 0 || contracts[i].endTimestamp >= _startTime */\n      dup1\n      iszero\n      tag_65\n      jumpi\n        /* \"contracts/FactoryContract.sol\":2608:2795  !useTimeFilter || (... */\n    tag_66:\n        /* \"contracts/FactoryContract.sol\":2645:2780  (contracts[i].endTimestamp == 0 || contracts[i].endTimestamp >= _startTime) &&... */\n      dup1\n      iszero\n        /* \"contracts/FactoryContract.sol\":2608:2795  !useTimeFilter || (... */\n      tag_49\n        /* \"contracts/FactoryContract.sol\":2645:2780  (contracts[i].endTimestamp == 0 || contracts[i].endTimestamp >= _startTime) &&... */\n      jumpi\n        /* \"contracts/FactoryContract.sol\":2741:2753  contracts[i] */\n      pop\n      dup3\n        /* \"contracts/FactoryContract.sol\":96:4462  contract FactoryContract {... */\n      0x20\n        /* \"contracts/FactoryContract.sol\":2741:2753  contracts[i] */\n      tag_69\n      dup4\n      dup8\n      tag_16\n      jump\t// in\n    tag_69:\n      mload\n        /* \"contracts/FactoryContract.sol\":2741:2768  contracts[i].startTimestamp */\n      add\n        /* \"contracts/FactoryContract.sol\":96:4462  contract FactoryContract {... */\n      mload\n        /* \"contracts/FactoryContract.sol\":2741:2780  contracts[i].startTimestamp <= _endTime */\n      gt\n      iszero\n        /* \"contracts/FactoryContract.sol\":2608:2795  !useTimeFilter || (... */\n      jump(tag_49)\n        /* \"contracts/FactoryContract.sol\":2646:2719  contracts[i].endTimestamp == 0 || contracts[i].endTimestamp >= _startTime */\n    tag_65:\n        /* \"contracts/FactoryContract.sol\":2680:2692  contracts[i] */\n      pop\n      dup2\n        /* \"contracts/FactoryContract.sol\":96:4462  contract FactoryContract {... */\n      0x40\n        /* \"contracts/FactoryContract.sol\":2680:2692  contracts[i] */\n      tag_70\n      dup4\n      dup8\n      tag_16\n      jump\t// in\n    tag_70:\n      mload\n        /* \"contracts/FactoryContract.sol\":2680:2705  contracts[i].endTimestamp */\n      add\n        /* \"contracts/FactoryContract.sol\":96:4462  contract FactoryContract {... */\n      mload\n        /* \"contracts/FactoryContract.sol\":2680:2719  contracts[i].endTimestamp >= _startTime */\n      lt\n      iszero\n        /* \"contracts/FactoryContract.sol\":2646:2719  contracts[i].endTimestamp == 0 || contracts[i].endTimestamp >= _startTime */\n      jump(tag_66)\n        /* \"contracts/FactoryContract.sol\":2562:2582  i < contracts.length */\n    tag_46:\n      pop\n      swap1\n      swap4\n        /* \"contracts/FactoryContract.sol\":3044:3085  new IntervalContract.Kline[](totalKlines) */\n      tag_71\n        /* \"contracts/FactoryContract.sol\":2562:2582  i < contracts.length */\n      swap1\n        /* \"contracts/FactoryContract.sol\":3044:3085  new IntervalContract.Kline[](totalKlines) */\n      tag_17\n      jump\t// in\n    tag_71:\n        /* \"contracts/FactoryContract.sol\":3096:3120  uint256 currentIndex = 0 */\n      swap2\n        /* \"contracts/FactoryContract.sol\":96:4462  contract FactoryContract {... */\n      0x00\n        /* \"contracts/FactoryContract.sol\":3138:3151  uint256 i = 0 */\n      swap5\n        /* \"contracts/FactoryContract.sol\":96:4462  contract FactoryContract {... */\n      0x00\n        /* \"contracts/FactoryContract.sol\":3175:3178  i++ */\n    tag_72:\n        /* \"contracts/FactoryContract.sol\":96:4462  contract FactoryContract {... */\n      dup3\n      mload\n        /* \"contracts/FactoryContract.sol\":3153:3173  i < contracts.length */\n      dup2\n      lt\n      iszero\n      tag_73\n      jumpi\n        /* \"contracts/FactoryContract.sol\":3199:3213  !useTimeFilter */\n      dup6\n      iszero\n        /* \"contracts/FactoryContract.sol\":96:4462  contract FactoryContract {... */\n      dup1\n      iszero\n        /* \"contracts/FactoryContract.sol\":3199:3213  !useTimeFilter */\n      dup2\n        /* \"contracts/FactoryContract.sol\":96:4462  contract FactoryContract {... */\n      dup2\n        /* \"contracts/FactoryContract.sol\":3199:3386  !useTimeFilter || (... */\n      tag_75\n      jumpi\n        /* \"contracts/FactoryContract.sol\":3175:3178  i++ */\n    tag_76:\n        /* \"contracts/FactoryContract.sol\":3195:4090  if (!useTimeFilter || (... */\n      tag_77\n      jumpi\n        /* \"contracts/FactoryContract.sol\":3175:3178  i++ */\n    tag_78:\n      pop\n      pop\n        /* \"contracts/FactoryContract.sol\":96:4462  contract FactoryContract {... */\n      0x01\n      add\n        /* \"contracts/FactoryContract.sol\":3138:3151  uint256 i = 0 */\n      jump(tag_72)\n        /* \"contracts/FactoryContract.sol\":3195:4090  if (!useTimeFilter || (... */\n    tag_77:\n      sub(shl(0xa0, 0x01), 0x01)\n        /* \"contracts/FactoryContract.sol\":3460:3472  contracts[i] */\n      tag_79\n      dup5\n      dup8\n      tag_16\n      jump\t// in\n    tag_79:\n      mload\n        /* \"contracts/FactoryContract.sol\":96:4462  contract FactoryContract {... */\n      mload\n      and\n      swap2\n      mload(0x40)\n      shl(0xe1, 0x245d72c9)\n        /* \"contracts/FactoryContract.sol\":3529:3561  intervalContract.getKlineCount() */\n      dup2\n      mstore\n        /* \"contracts/FactoryContract.sol\":96:4462  contract FactoryContract {... */\n      0x20\n        /* \"contracts/FactoryContract.sol\":3529:3561  intervalContract.getKlineCount() */\n      dup2\n        /* \"contracts/FactoryContract.sol\":96:4462  contract FactoryContract {... */\n      0x04\n        /* \"contracts/FactoryContract.sol\":3529:3561  intervalContract.getKlineCount() */\n      dup2\n      dup8\n      gas\n      staticcall\n      swap1\n      dup2\n      iszero\n      tag_53\n      jumpi\n        /* \"contracts/FactoryContract.sol\":96:4462  contract FactoryContract {... */\n      0x00\n        /* \"contracts/FactoryContract.sol\":3529:3561  intervalContract.getKlineCount() */\n      swap2\n      tag_82\n      jumpi\n        /* \"contracts/FactoryContract.sol\":3195:4090  if (!useTimeFilter || (... */\n    tag_83:\n        /* \"contracts/FactoryContract.sol\":3584:3598  klineCount > 0 */\n      pop\n      dup1\n        /* \"contracts/FactoryContract.sol\":3580:4075  if (klineCount > 0) {... */\n      tag_84\n      jumpi\n        /* \"contracts/FactoryContract.sol\":3195:4090  if (!useTimeFilter || (... */\n    tag_85:\n      pop\n      pop\n      jump(tag_78)\n        /* \"contracts/FactoryContract.sol\":3580:4075  if (klineCount > 0) {... */\n    tag_84:\n        /* \"contracts/FactoryContract.sol\":96:4462  contract FactoryContract {... */\n      0x00\n      swap10\n      swap2\n      swap4\n      swap8\n      swap5\n      swap10\n      swap7\n      swap3\n      swap7\n      not\n      dup2\n      add\n      swap1\n      dup2\n      gt\n      tag_57\n      jumpi\n      0x00\n      swap1\n      0x44\n      mload(0x40)\n      dup1\n      swap11\n      dup2\n      swap4\n      shl(0xe2, 0x3eeb4577)\n        /* \"contracts/FactoryContract.sol\":3664:3709  intervalContract.getKlines(0, klineCount - 1) */\n      dup4\n      mstore\n      dup6\n        /* \"contracts/FactoryContract.sol\":96:4462  contract FactoryContract {... */\n      0x04\n        /* \"contracts/FactoryContract.sol\":3664:3709  intervalContract.getKlines(0, klineCount - 1) */\n      dup5\n      add\n        /* \"contracts/FactoryContract.sol\":96:4462  contract FactoryContract {... */\n      mstore\n      0x24\n      dup4\n      add\n      mstore\n        /* \"contracts/FactoryContract.sol\":3664:3709  intervalContract.getKlines(0, klineCount - 1) */\n      gas\n      staticcall\n      swap7\n      dup8\n      iszero\n      tag_53\n      jumpi\n        /* \"contracts/FactoryContract.sol\":96:4462  contract FactoryContract {... */\n      0x00\n        /* \"contracts/FactoryContract.sol\":3664:3709  intervalContract.getKlines(0, klineCount - 1) */\n      swap8\n      tag_90\n      jumpi\n        /* \"contracts/FactoryContract.sol\":3580:4075  if (klineCount > 0) {... */\n    tag_91:\n        /* \"contracts/FactoryContract.sol\":3737:3750  uint256 j = 0 */\n      pop\n        /* \"contracts/FactoryContract.sol\":96:4462  contract FactoryContract {... */\n      0x00\n        /* \"contracts/FactoryContract.sol\":3771:3774  j++ */\n    tag_92:\n        /* \"contracts/FactoryContract.sol\":96:4462  contract FactoryContract {... */\n      dup8\n      mload\n        /* \"contracts/FactoryContract.sol\":3752:3769  j < klines.length */\n      dup2\n      lt\n      iszero\n      tag_93\n      jumpi\n        /* \"contracts/FactoryContract.sol\":3807:3895  !useTimeFilter || (klines[j].timestamp >= _startTime && klines[j].timestamp <= _endTime) */\n      dup4\n      dup8\n      tag_95\n      jumpi\n        /* \"contracts/FactoryContract.sol\":3771:3774  j++ */\n    tag_96:\n        /* \"contracts/FactoryContract.sol\":3803:4033  if (!useTimeFilter || (klines[j].timestamp >= _startTime && klines[j].timestamp <= _endTime)) {... */\n      tag_97\n      jumpi\n        /* \"contracts/FactoryContract.sol\":3771:3774  j++ */\n    tag_98:\n        /* \"contracts/FactoryContract.sol\":96:4462  contract FactoryContract {... */\n      0x01\n      add\n        /* \"contracts/FactoryContract.sol\":3737:3750  uint256 j = 0 */\n      jump(tag_92)\n        /* \"contracts/FactoryContract.sol\":3803:4033  if (!useTimeFilter || (klines[j].timestamp >= _startTime && klines[j].timestamp <= _endTime)) {... */\n    tag_97:\n        /* \"contracts/FactoryContract.sol\":3951:3960  klines[j] */\n      swap10\n      tag_99\n      dup12\n      dup10\n      tag_16\n      jump\t// in\n    tag_99:\n      mload\n        /* \"contracts/FactoryContract.sol\":3928:3960  result[currentIndex] = klines[j] */\n      tag_100\n      dup3\n      dup12\n      tag_16\n      jump\t// in\n    tag_100:\n      mstore\n      tag_101\n      dup2\n      dup11\n      tag_16\n      jump\t// in\n    tag_101:\n      pop\n      not(0x00)\n        /* \"contracts/FactoryContract.sol\":96:4462  contract FactoryContract {... */\n      dup2\n      eq\n      tag_57\n      jumpi\n      0x01\n      add\n      swap10\n        /* \"contracts/FactoryContract.sol\":3803:4033  if (!useTimeFilter || (klines[j].timestamp >= _startTime && klines[j].timestamp <= _endTime)) {... */\n      jump(tag_98)\n        /* \"contracts/FactoryContract.sol\":3807:3895  !useTimeFilter || (klines[j].timestamp >= _startTime && klines[j].timestamp <= _endTime) */\n    tag_95:\n        /* \"contracts/FactoryContract.sol\":3826:3835  klines[j] */\n      pop\n      dup5\n      tag_104\n      dup3\n      dup11\n      tag_16\n      jump\t// in\n    tag_104:\n      mload\n        /* \"contracts/FactoryContract.sol\":96:4462  contract FactoryContract {... */\n      mload\n        /* \"contracts/FactoryContract.sol\":3826:3859  klines[j].timestamp >= _startTime */\n      lt\n      iszero\n        /* \"contracts/FactoryContract.sol\":3826:3894  klines[j].timestamp >= _startTime && klines[j].timestamp <= _endTime */\n      dup1\n      iszero\n        /* \"contracts/FactoryContract.sol\":3807:3895  !useTimeFilter || (klines[j].timestamp >= _startTime && klines[j].timestamp <= _endTime) */\n      tag_96\n        /* \"contracts/FactoryContract.sol\":3826:3894  klines[j].timestamp >= _startTime && klines[j].timestamp <= _endTime */\n      jumpi\n        /* \"contracts/FactoryContract.sol\":3863:3872  klines[j] */\n      pop\n      dup6\n      tag_107\n      dup3\n      dup11\n      tag_16\n      jump\t// in\n    tag_107:\n      mload\n        /* \"contracts/FactoryContract.sol\":96:4462  contract FactoryContract {... */\n      mload\n        /* \"contracts/FactoryContract.sol\":3863:3894  klines[j].timestamp <= _endTime */\n      gt\n      iszero\n        /* \"contracts/FactoryContract.sol\":3807:3895  !useTimeFilter || (klines[j].timestamp >= _startTime && klines[j].timestamp <= _endTime) */\n      jump(tag_96)\n        /* \"contracts/FactoryContract.sol\":3752:3769  j < klines.length */\n    tag_93:\n      pop\n      swap8\n      swap3\n      swap6\n      pop\n      swap4\n      pop\n        /* \"contracts/FactoryContract.sol\":96:4462  contract FactoryContract {... */\n      0x01\n      swap1\n      pop\n        /* \"contracts/FactoryContract.sol\":3580:4075  if (klineCount > 0) {... */\n      0x00\n      dup1\n      dup1\n      jump(tag_85)\n        /* \"contracts/FactoryContract.sol\":3664:3709  intervalContract.getKlines(0, klineCount - 1) */\n    tag_90:\n      swap1\n      swap7\n      pop\n      returndatasize\n      dup1\n        /* \"contracts/FactoryContract.sol\":96:4462  contract FactoryContract {... */\n      0x00\n        /* \"contracts/FactoryContract.sol\":3664:3709  intervalContract.getKlines(0, klineCount - 1) */\n      dup4\n      returndatacopy\n      tag_108\n      dup2\n      dup4\n      tag_3\n      jump\t// in\n    tag_108:\n      dup2\n      add\n        /* \"contracts/FactoryContract.sol\":96:4462  contract FactoryContract {... */\n      swap1\n      0x20\n      dup2\n      dup4\n      sub\n      slt\n      tag_62\n      jumpi\n      dup1\n      mload\n      swap1\n      sub(shl(0x40, 0x01), 0x01)\n      dup3\n      gt\n      tag_62\n      jumpi\n      add\n      swap1\n      dup1\n      0x1f\n      dup4\n      add\n      slt\n      iszero\n      tag_62\n      jumpi\n      dup2\n      mload\n      swap2\n      tag_115\n      dup4\n      tag_10\n      jump\t// in\n    tag_115:\n      swap3\n      tag_116\n      mload(0x40)\n      swap5\n      dup6\n      tag_3\n      jump\t// in\n    tag_116:\n      dup1\n      dup5\n      mstore\n      0x20\n      dup1\n      dup6\n      add\n      swap2\n      0x05\n      shl\n      dup4\n      add\n      add\n      swap2\n      dup4\n      dup4\n      gt\n      tag_62\n      jumpi\n      0x20\n      dup2\n      add\n      swap2\n    tag_119:\n      dup4\n      dup4\n      lt\n      tag_120\n      jumpi\n        /* \"contracts/FactoryContract.sol\":3664:3709  intervalContract.getKlines(0, klineCount - 1) */\n      pop\n      pop\n      pop\n      pop\n      pop\n      swap6\n      0x00\n      jump(tag_91)\n        /* \"contracts/FactoryContract.sol\":96:4462  contract FactoryContract {... */\n    tag_120:\n      dup3\n      mload\n      sub(shl(0x40, 0x01), 0x01)\n      dup2\n      gt\n      tag_62\n      jumpi\n      dup3\n      add\n      swap1\n      0x01e0\n      dup3\n      dup8\n      sub\n      not(0x1f)\n      add\n      slt\n      tag_62\n      jumpi\n      mload(0x40)\n      swap1\n      tag_126\n      dup3\n      tag_2\n      jump\t// in\n    tag_126:\n      0x20\n      dup4\n      add\n      mload\n      dup3\n      mstore\n      0x40\n      dup4\n      add\n      mload\n      0x20\n      dup4\n      add\n      mstore\n      0x60\n      dup4\n      add\n      mload\n      sub(shl(0x40, 0x01), 0x01)\n      dup2\n      gt\n      tag_62\n      jumpi\n      0x20\n      swap1\n      dup5\n      add\n      add\n      swap2\n      dup8\n      0x1f\n      dup5\n      add\n      slt\n      iszero\n      tag_62\n      jumpi\n      dup3\n      mload\n      swap3\n      tag_131\n      dup5\n      tag_6\n      jump\t// in\n    tag_131:\n      swap5\n      tag_132\n      mload(0x40)\n      swap7\n      dup8\n      tag_3\n      jump\t// in\n    tag_132:\n      dup5\n      dup7\n      mstore\n      dup10\n      0x20\n      dup7\n      dup5\n      add\n      add\n      gt\n      tag_62\n      jumpi\n      0x20\n      swap6\n      0x00\n      dup8\n      dup8\n      dup2\n      swap9\n      dup3\n      0x01e0\n      swap8\n      add\n      dup4\n      dup7\n      add\n      mcopy\n      dup4\n      add\n      add\n      mstore\n      0x40\n      dup5\n      add\n      mstore\n      0x80\n      dup2\n      add\n      mload\n      0x60\n      dup5\n      add\n      mstore\n      0xa0\n      dup2\n      add\n      mload\n      0x80\n      dup5\n      add\n      mstore\n      0xc0\n      dup2\n      add\n      mload\n      0xa0\n      dup5\n      add\n      mstore\n      0xe0\n      dup2\n      add\n      mload\n      0xc0\n      dup5\n      add\n      mstore\n      0x0100\n      dup2\n      add\n      mload\n      0xe0\n      dup5\n      add\n      mstore\n      0x0120\n      dup2\n      add\n      mload\n      0x0100\n      dup5\n      add\n      mstore\n      0x0140\n      dup2\n      add\n      mload\n      0x0120\n      dup5\n      add\n      mstore\n      0x0160\n      dup2\n      add\n      mload\n      0x0140\n      dup5\n      add\n      mstore\n      tag_135\n      0x0180\n      dup3\n      add\n      tag_12\n      jump\t// in\n    tag_135:\n      0x0160\n      dup5\n      add\n      mstore\n      0x01a0\n      dup2\n      add\n      mload\n      0x0180\n      dup5\n      add\n      mstore\n      0x01c0\n      dup2\n      add\n      mload\n      0x01a0\n      dup5\n      add\n      mstore\n      add\n      mload\n      0x01c0\n      dup3\n      add\n      mstore\n      dup2\n      mstore\n      add\n      swap3\n      add\n      swap2\n      jump(tag_119)\n        /* \"contracts/FactoryContract.sol\":3529:3561  intervalContract.getKlineCount() */\n    tag_82:\n      swap1\n      pop\n        /* \"contracts/FactoryContract.sol\":96:4462  contract FactoryContract {... */\n      0x20\n        /* \"contracts/FactoryContract.sol\":3529:3561  intervalContract.getKlineCount() */\n      dup2\n      returndatasize\n      dup3\n      gt\n      tag_136\n      jumpi\n    tag_137:\n      dup2\n      tag_138\n        /* \"contracts/FactoryContract.sol\":96:4462  contract FactoryContract {... */\n      0x20\n        /* \"contracts/FactoryContract.sol\":3529:3561  intervalContract.getKlineCount() */\n      swap4\n      dup4\n      tag_3\n      jump\t// in\n    tag_138:\n      dup2\n      add\n        /* \"contracts/FactoryContract.sol\":96:4462  contract FactoryContract {... */\n      sub\n      slt\n      tag_62\n      jumpi\n      mload\n        /* \"contracts/FactoryContract.sol\":3529:3561  intervalContract.getKlineCount() */\n      0x00\n      jump(tag_83)\n    tag_136:\n      returndatasize\n      swap2\n      pop\n      jump(tag_137)\n        /* \"contracts/FactoryContract.sol\":3199:3386  !useTimeFilter || (... */\n    tag_75:\n        /* \"contracts/FactoryContract.sol\":3237:3249  contracts[i] */\n      pop\n        /* \"contracts/FactoryContract.sol\":96:4462  contract FactoryContract {... */\n      0x40\n        /* \"contracts/FactoryContract.sol\":3237:3249  contracts[i] */\n      tag_141\n      dup5\n      dup8\n      tag_16\n      jump\t// in\n    tag_141:\n      mload\n        /* \"contracts/FactoryContract.sol\":3237:3262  contracts[i].endTimestamp */\n      add\n        /* \"contracts/FactoryContract.sol\":96:4462  contract FactoryContract {... */\n      mload\n        /* \"contracts/FactoryContract.sol\":3237:3267  contracts[i].endTimestamp == 0 */\n      iszero\n        /* \"contracts/FactoryContract.sol\":3237:3310  contracts[i].endTimestamp == 0 || contracts[i].endTimestamp >= _startTime */\n      dup1\n      iszero\n      tag_142\n      jumpi\n        /* \"contracts/FactoryContract.sol\":3199:3386  !useTimeFilter || (... */\n    tag_143:\n        /* \"contracts/FactoryContract.sol\":3236:3371  (contracts[i].endTimestamp == 0 || contracts[i].endTimestamp >= _startTime) &&... */\n      dup1\n      iszero\n        /* \"contracts/FactoryContract.sol\":3199:3386  !useTimeFilter || (... */\n      tag_76\n        /* \"contracts/FactoryContract.sol\":3236:3371  (contracts[i].endTimestamp == 0 || contracts[i].endTimestamp >= _startTime) &&... */\n      jumpi\n        /* \"contracts/FactoryContract.sol\":3332:3344  contracts[i] */\n      pop\n      dup4\n        /* \"contracts/FactoryContract.sol\":96:4462  contract FactoryContract {... */\n      0x20\n        /* \"contracts/FactoryContract.sol\":3332:3344  contracts[i] */\n      tag_146\n      dup6\n      dup9\n      tag_16\n      jump\t// in\n    tag_146:\n      mload\n        /* \"contracts/FactoryContract.sol\":3332:3359  contracts[i].startTimestamp */\n      add\n        /* \"contracts/FactoryContract.sol\":96:4462  contract FactoryContract {... */\n      mload\n        /* \"contracts/FactoryContract.sol\":3332:3371  contracts[i].startTimestamp <= _endTime */\n      gt\n      iszero\n        /* \"contracts/FactoryContract.sol\":3199:3386  !useTimeFilter || (... */\n      jump(tag_76)\n        /* \"contracts/FactoryContract.sol\":3237:3310  contracts[i].endTimestamp == 0 || contracts[i].endTimestamp >= _startTime */\n    tag_142:\n        /* \"contracts/FactoryContract.sol\":3271:3283  contracts[i] */\n      pop\n      dup6\n        /* \"contracts/FactoryContract.sol\":96:4462  contract FactoryContract {... */\n      0x40\n        /* \"contracts/FactoryContract.sol\":3271:3283  contracts[i] */\n      tag_147\n      dup6\n      dup9\n      tag_16\n      jump\t// in\n    tag_147:\n      mload\n        /* \"contracts/FactoryContract.sol\":3271:3296  contracts[i].endTimestamp */\n      add\n        /* \"contracts/FactoryContract.sol\":96:4462  contract FactoryContract {... */\n      mload\n        /* \"contracts/FactoryContract.sol\":3271:3310  contracts[i].endTimestamp >= _startTime */\n      lt\n      iszero\n        /* \"contracts/FactoryContract.sol\":3237:3310  contracts[i].endTimestamp == 0 || contracts[i].endTimestamp >= _startTime */\n      jump(tag_143)\n        /* \"contracts/FactoryContract.sol\":3153:3173  i < contracts.length */\n    tag_73:\n      dup5\n      dup8\n        /* \"contracts/FactoryContract.sol\":4161:4203  new IntervalContract.Kline[](currentIndex) */\n      tag_148\n      dup2\n      tag_17\n      jump\t// in\n    tag_148:\n        /* \"contracts/FactoryContract.sol\":4219:4232  uint256 i = 0 */\n      swap2\n        /* \"contracts/FactoryContract.sol\":96:4462  contract FactoryContract {... */\n      0x00\n        /* \"contracts/FactoryContract.sol\":4234:4250  i < currentIndex */\n    tag_149:\n      dup3\n      dup2\n      lt\n      tag_150\n      jumpi\n        /* \"contracts/FactoryContract.sol\":96:4462  contract FactoryContract {... */\n      dup4\n      mload(0x40)\n      dup1\n      swap2\n      0x20\n      dup3\n      add\n      0x20\n      dup4\n      mstore\n      dup2\n      mload\n      dup1\n      swap2\n      mstore\n      0x40\n      dup4\n      add\n      swap1\n      0x20\n      0x40\n      dup3\n      0x05\n      shl\n      dup7\n      add\n      add\n      swap4\n      add\n      swap2\n      0x00\n      swap1\n    tag_152:\n      dup3\n      dup3\n      lt\n      tag_153\n      jumpi\n      pop\n      pop\n      pop\n      pop\n      sub\n      swap1\n      return\n    tag_153:\n      swap2\n      swap4\n      0x01\n      swap2\n      swap4\n      swap6\n      pop\n      0x20\n      dup1\n      swap2\n      not(0x3f)\n      dup10\n      dup3\n      sub\n      add\n      dup6\n      mstore\n      dup8\n      mload\n      swap1\n      dup2\n      mload\n      dup2\n      mstore\n      dup3\n      dup3\n      add\n      mload\n      dup4\n      dup3\n      add\n      mstore\n      0x01c0\n      dup1\n      tag_155\n      0x40\n      dup6\n      add\n      mload\n      0x01e0\n      0x40\n      dup7\n      add\n      mstore\n      0x01e0\n      dup6\n      add\n      swap1\n      tag_5\n      jump\t// in\n    tag_155:\n      swap4\n      0x60\n      dup2\n      add\n      mload\n      0x60\n      dup6\n      add\n      mstore\n      0x80\n      dup2\n      add\n      mload\n      0x80\n      dup6\n      add\n      mstore\n      0xa0\n      dup2\n      add\n      mload\n      0xa0\n      dup6\n      add\n      mstore\n      0xc0\n      dup2\n      add\n      mload\n      0xc0\n      dup6\n      add\n      mstore\n      0xe0\n      dup2\n      add\n      mload\n      0xe0\n      dup6\n      add\n      mstore\n      0x0100\n      dup2\n      add\n      mload\n      0x0100\n      dup6\n      add\n      mstore\n      0x0120\n      dup2\n      add\n      mload\n      0x0120\n      dup6\n      add\n      mstore\n      0x0140\n      dup2\n      add\n      mload\n      0x0140\n      dup6\n      add\n      mstore\n      0x0160\n      dup2\n      add\n      mload\n      iszero\n      iszero\n      0x0160\n      dup6\n      add\n      mstore\n      0x0180\n      dup2\n      add\n      mload\n      0x0180\n      dup6\n      add\n      mstore\n      0x01a0\n      dup2\n      add\n      mload\n      0x01a0\n      dup6\n      add\n      mstore\n      add\n      mload\n      swap2\n      add\n      mstore\n      swap7\n      add\n      swap3\n      add\n      swap3\n      add\n      dup6\n      swap5\n      swap4\n      swap2\n      swap3\n      jump(tag_152)\n        /* \"contracts/FactoryContract.sol\":4252:4255  i++ */\n    tag_150:\n        /* \"contracts/FactoryContract.sol\":4291:4300  result[i] */\n      dup1\n      tag_156\n        /* \"contracts/FactoryContract.sol\":96:4462  contract FactoryContract {... */\n      0x01\n        /* \"contracts/FactoryContract.sol\":4291:4300  result[i] */\n      swap3\n      dup5\n      tag_16\n      jump\t// in\n    tag_156:\n      mload\n        /* \"contracts/FactoryContract.sol\":4272:4300  trimmedResult[i] = result[i] */\n      tag_157\n      dup3\n      dup8\n      tag_16\n      jump\t// in\n    tag_157:\n      mstore\n      tag_158\n      dup2\n      dup7\n      tag_16\n      jump\t// in\n    tag_158:\n      pop\n        /* \"contracts/FactoryContract.sol\":96:4462  contract FactoryContract {... */\n      add\n        /* \"contracts/FactoryContract.sol\":4219:4232  uint256 i = 0 */\n      jump(tag_149)\n        /* \"contracts/FactoryContract.sol\":2455:2495  _startTime > 0 && _endTime >= _startTime */\n    tag_43:\n        /* \"contracts/FactoryContract.sol\":2473:2495  _endTime >= _startTime */\n      dup4\n      dup2\n      lt\n      iszero\n      swap3\n      pop\n        /* \"contracts/FactoryContract.sol\":2455:2495  _startTime > 0 && _endTime >= _startTime */\n      jump(tag_44)\n        /* \"contracts/FactoryContract.sol\":96:4462  contract FactoryContract {... */\n    tag_40:\n      0x03\n      0x20\n      0x01\n      swap3\n      mload(0x40)\n      tag_159\n      dup2\n      tag_1\n      jump\t// in\n    tag_159:\n      dup5\n      dup1\n      0xa0\n      shl\n      sub\n      dup7\n      sload\n      and\n      dup2\n      mstore\n      dup5\n      dup7\n      add\n      sload\n      dup4\n      dup3\n      add\n      mstore\n      0x02\n      dup7\n      add\n      sload\n      0x40\n      dup3\n      add\n      mstore\n      dup2\n      mstore\n      add\n      swap3\n      add\n      swap3\n      add\n      swap2\n      swap1\n      jump(tag_39)\n    tag_26:\n      jumpi(tag_62, callvalue)\n      jumpi(tag_62, slt(add(not(0x03), calldatasize), 0x40))\n      calldataload(0x04)\n      sub(shl(0x40, 0x01), 0x01)\n      dup2\n      gt\n      tag_62\n      jumpi\n      tag_166\n      swap1\n      calldatasize\n      swap1\n      0x04\n      add\n      tag_8\n      jump\t// in\n    tag_166:\n      calldataload(0x24)\n      sub(shl(0x40, 0x01), 0x01)\n      dup2\n      gt\n      tag_62\n      jumpi\n      dup1\n      0x04\n      add\n      dup2\n      calldatasize\n      sub\n      0x0200\n      not(0x03)\n      dup3\n      add\n      slt\n      tag_62\n      jumpi\n      mload(0x40)\n      swap3\n      dup5\n      mload\n      swap4\n      0x20\n      dup2\n      dup2\n      dup9\n      add\n      swap7\n      dup1\n      dup9\n      dup4\n      mcopy\n      dup2\n      add\n      0x00\n      dup2\n      mstore\n      sub\n      add\n      swap1\n      keccak256\n      swap2\n      dup3\n      sload\n        /* \"contracts/FactoryContract.sol\":1357:1377  contracts.length > 0 */\n      swap2\n        /* \"contracts/FactoryContract.sol\":1349:1404  require(contracts.length > 0, \"Interval not supported\") */\n      tag_171\n        /* \"contracts/FactoryContract.sol\":1357:1377  contracts.length > 0 */\n      dup4\n      iszero\n      iszero\n        /* \"contracts/FactoryContract.sol\":1349:1404  require(contracts.length > 0, \"Interval not supported\") */\n      tag_11\n      jump\t// in\n    tag_171:\n        /* \"contracts/FactoryContract.sol\":1449:1463  input.interval */\n      0x64\n      dup2\n      add\n        /* \"contracts/FactoryContract.sol\":96:4462  contract FactoryContract {... */\n      calldataload\n      swap2\n      not(0x22)\n      add\n      dup3\n      slt\n      iszero\n      tag_62\n      jumpi\n      add\n      0x04\n      dup2\n      add\n      calldataload\n      swap1\n      sub(shl(0x40, 0x01), 0x01)\n      dup3\n      gt\n      tag_62\n      jumpi\n      0x24\n      add\n      dup2\n      calldatasize\n      sub\n      dup2\n      sgt\n      tag_62\n      jumpi\n      tag_178\n      swap2\n      calldatasize\n      swap2\n      tag_7\n      jump\t// in\n    tag_178:\n      0x20\n      dup2\n      mload\n      swap2\n      add\n        /* \"contracts/FactoryContract.sol\":1433:1465  keccak256(bytes(input.interval)) */\n      keccak256\n        /* \"contracts/FactoryContract.sol\":96:4462  contract FactoryContract {... */\n      dup6\n      mload\n        /* \"contracts/FactoryContract.sol\":1469:1496  keccak256(bytes(_interval)) */\n      dup6\n      keccak256\n        /* \"contracts/FactoryContract.sol\":1433:1496  keccak256(bytes(input.interval)) == keccak256(bytes(_interval)) */\n      sub\n        /* \"contracts/FactoryContract.sol\":96:4462  contract FactoryContract {... */\n      tag_179\n      jumpi\n      not(0x00)\n      dup2\n      add\n      swap1\n      dup2\n      gt\n      tag_57\n      jumpi\n        /* \"contracts/FactoryContract.sol\":1591:1622  contracts[contracts.length - 1] */\n      tag_183\n      swap2\n      tag_9\n      jump\t// in\n    tag_183:\n      pop\n        /* \"contracts/FactoryContract.sol\":96:4462  contract FactoryContract {... */\n      dup1\n      sload\n      mload(0x40)\n      shl(0xe0, 0xc3e3bfe5)\n        /* \"contracts/FactoryContract.sol\":1745:1777  intervalContract.addKline(input) */\n      dup2\n      mstore\n        /* \"contracts/FactoryContract.sol\":96:4462  contract FactoryContract {... */\n      swap1\n      0x20\n      swap1\n      dup3\n      swap1\n      sub(shl(0xa0, 0x01), 0x01)\n      and\n      dup2\n      0x00\n      dup2\n        /* \"contracts/FactoryContract.sol\":1745:1777  intervalContract.addKline(input) */\n      tag_184\n      dup10\n        /* \"contracts/FactoryContract.sol\":96:4462  contract FactoryContract {... */\n      0x04\n        /* \"contracts/FactoryContract.sol\":1745:1777  intervalContract.addKline(input) */\n      dup4\n      add\n      tag_15\n      jump\t// in\n    tag_184:\n      sub\n      swap3\n      gas\n      call\n      swap1\n      dup2\n      iszero\n      tag_53\n      jumpi\n        /* \"contracts/FactoryContract.sol\":96:4462  contract FactoryContract {... */\n      0x00\n        /* \"contracts/FactoryContract.sol\":1745:1777  intervalContract.addKline(input) */\n      swap2\n      tag_187\n      jumpi\n        /* \"contracts/FactoryContract.sol\":96:4462  contract FactoryContract {... */\n    tag_188:\n        /* \"contracts/FactoryContract.sol\":1792:1800  !success */\n      pop\n      iszero\n        /* \"contracts/FactoryContract.sol\":1788:2008  if (!success) {... */\n      tag_189\n      jumpi\n        /* \"contracts/FactoryContract.sol\":96:4462  contract FactoryContract {... */\n      stop\n        /* \"contracts/FactoryContract.sol\":1788:2008  if (!success) {... */\n    tag_189:\n        /* \"contracts/FactoryContract.sol\":1817:1844  latestContract.endTimestamp */\n      0x02\n        /* \"contracts/FactoryContract.sol\":1847:1862  block.timestamp */\n      timestamp\n        /* \"contracts/FactoryContract.sol\":1817:1844  latestContract.endTimestamp */\n      swap2\n      add\n        /* \"contracts/FactoryContract.sol\":96:4462  contract FactoryContract {... */\n      sstore\n      mload(0x40)\n        /* \"contracts/FactoryContract.sol\":776:807  new IntervalContract(_interval) */\n      dataSize(sub_0)\n      dup1\n      dup3\n      add\n      dup3\n      dup2\n      lt\n      sub(shl(0x40, 0x01), 0x01)\n      dup3\n      gt\n      or\n      tag_197\n      jumpi\n        /* \"contracts/FactoryContract.sol\":96:4462  contract FactoryContract {... */\n      0x20\n      tag_193\n        /* \"contracts/FactoryContract.sol\":776:807  new IntervalContract(_interval) */\n      swap2\n      dup5\n      swap4\n      dataOffset(sub_0)\n      dup6\n      codecopy\n        /* \"contracts/FactoryContract.sol\":96:4462  contract FactoryContract {... */\n      dup2\n      dup2\n      mstore\n      add\n      dup7\n      tag_5\n      jump\t// in\n    tag_193:\n        /* \"contracts/FactoryContract.sol\":776:807  new IntervalContract(_interval) */\n      sub\n      swap1\n        /* \"contracts/FactoryContract.sol\":96:4462  contract FactoryContract {... */\n      0x00\n        /* \"contracts/FactoryContract.sol\":776:807  new IntervalContract(_interval) */\n      create\n      swap2\n      dup3\n      iszero\n      tag_53\n      jumpi\n        /* \"contracts/FactoryContract.sol\":96:4462  contract FactoryContract {... */\n      0x20\n      mload(0x40)\n      dup1\n      swap3\n      dup7\n      mload\n      dup1\n      swap2\n      dup4\n      mcopy\n      dup2\n      add\n      0x00\n      dup2\n      mstore\n      sub\n      add\n      swap1\n      keccak256\n      swap2\n      0x01\n      dup1\n      0xa0\n      shl\n      sub\n      and\n      mload(0x40)\n      swap2\n      tag_196\n      dup4\n      tag_1\n      jump\t// in\n    tag_196:\n      dup2\n      dup4\n      mstore\n      0x20\n        /* \"contracts/FactoryContract.sol\":866:1035  ContractInfo({... */\n      dup4\n      add\n        /* \"contracts/FactoryContract.sol\":1847:1862  block.timestamp */\n      swap4\n      timestamp\n        /* \"contracts/FactoryContract.sol\":96:4462  contract FactoryContract {... */\n      dup6\n      mstore\n      0x40\n        /* \"contracts/FactoryContract.sol\":866:1035  ContractInfo({... */\n      dup5\n      add\n        /* \"contracts/FactoryContract.sol\":96:4462  contract FactoryContract {... */\n      swap1\n      0x00\n      dup3\n      mstore\n      dup1\n      sload\n      0x010000000000000000\n      dup2\n      lt\n      iszero\n      tag_197\n      jumpi\n      tag_199\n      swap2\n        /* \"contracts/FactoryContract.sol\":1620:1621  1 */\n      0x01\n        /* \"contracts/FactoryContract.sol\":96:4462  contract FactoryContract {... */\n      dup3\n      add\n      dup2\n      sstore\n      tag_9\n      jump\t// in\n    tag_199:\n      swap6\n      swap1\n      swap6\n      tag_200\n      jumpi\n      0x00\n      swap7\n      0x20\n      swap7\n        /* \"contracts/FactoryContract.sol\":1817:1844  latestContract.endTimestamp */\n      0x02\n        /* \"contracts/FactoryContract.sol\":1062:1114  NewIntervalContract(_interval, address(newContract)) */\n      0xf8fc7b546285327f0096673f943d0b65dc7436f2818b7daa763c532348a73dea\n        /* \"contracts/FactoryContract.sol\":96:4462  contract FactoryContract {... */\n      swap5\n      tag_202\n      swap5\n        /* \"contracts/FactoryContract.sol\":1947:1996  IntervalContract(newContractAddr).addKline(input) */\n      tag_203\n        /* \"contracts/FactoryContract.sol\":96:4462  contract FactoryContract {... */\n      swap10\n      0x01\n      dup1\n      0xa0\n      shl\n      sub\n      swap1\n      mload\n      and\n      shl(0xa0, 0xffffffffffffffffffffffff)\n      dup6\n      sload\n      and\n      or\n      dup5\n      sstore\n      mload\n        /* \"contracts/FactoryContract.sol\":1620:1621  1 */\n      0x01\n        /* \"contracts/FactoryContract.sol\":96:4462  contract FactoryContract {... */\n      dup5\n      add\n      sstore\n      mload\n      swap2\n      add\n      sstore\n      mload(0x40)\n      swap2\n      dup3\n      swap2\n      0x40\n      dup4\n      mstore\n      0x40\n      dup4\n      add\n      swap1\n      tag_5\n      jump\t// in\n    tag_202:\n      dup6\n      dup9\n      dup4\n      add\n      mstore\n        /* \"contracts/FactoryContract.sol\":1062:1114  NewIntervalContract(_interval, address(newContract)) */\n      sub\n      swap1\n      log1\n        /* \"contracts/FactoryContract.sol\":96:4462  contract FactoryContract {... */\n      mload(0x40)\n      swap5\n      dup6\n      dup1\n      swap5\n      dup2\n      swap4\n      shl(0xe0, 0xc3e3bfe5)\n        /* \"contracts/FactoryContract.sol\":1947:1996  IntervalContract(newContractAddr).addKline(input) */\n      dup4\n      mstore\n        /* \"contracts/FactoryContract.sol\":96:4462  contract FactoryContract {... */\n      0x04\n        /* \"contracts/FactoryContract.sol\":1947:1996  IntervalContract(newContractAddr).addKline(input) */\n      dup4\n      add\n      tag_15\n      jump\t// in\n    tag_203:\n      sub\n      swap3\n      gas\n      call\n      dup1\n      iszero\n      tag_53\n      jumpi\n      tag_206\n      jumpi\n        /* \"contracts/FactoryContract.sol\":96:4462  contract FactoryContract {... */\n      stop\n        /* \"contracts/FactoryContract.sol\":1947:1996  IntervalContract(newContractAddr).addKline(input) */\n    tag_206:\n        /* \"contracts/FactoryContract.sol\":96:4462  contract FactoryContract {... */\n      0x20\n        /* \"contracts/FactoryContract.sol\":1947:1996  IntervalContract(newContractAddr).addKline(input) */\n      dup2\n      returndatasize\n        /* \"contracts/FactoryContract.sol\":96:4462  contract FactoryContract {... */\n      0x20\n        /* \"contracts/FactoryContract.sol\":1947:1996  IntervalContract(newContractAddr).addKline(input) */\n      gt\n      tag_208\n      jumpi\n    tag_209:\n      dup2\n      tag_210\n        /* \"contracts/FactoryContract.sol\":96:4462  contract FactoryContract {... */\n      0x20\n        /* \"contracts/FactoryContract.sol\":1947:1996  IntervalContract(newContractAddr).addKline(input) */\n      swap4\n      dup4\n      tag_3\n      jump\t// in\n    tag_210:\n      dup2\n      add\n        /* \"contracts/FactoryContract.sol\":96:4462  contract FactoryContract {... */\n      sub\n      slt\n      tag_62\n      jumpi\n      tag_213\n      swap1\n      tag_12\n      jump\t// in\n    tag_213:\n      stop\n        /* \"contracts/FactoryContract.sol\":1947:1996  IntervalContract(newContractAddr).addKline(input) */\n    tag_208:\n      returndatasize\n      swap2\n      pop\n      jump(tag_209)\n        /* \"contracts/FactoryContract.sol\":96:4462  contract FactoryContract {... */\n    tag_200:\n      mstore(0x00, shl(0xe0, 0x4e487b71))\n      mstore(0x04, 0x00)\n      revert(0x00, 0x24)\n    tag_197:\n      mstore(0x00, shl(0xe0, 0x4e487b71))\n      mstore(0x04, 0x41)\n      revert(0x00, 0x24)\n        /* \"contracts/FactoryContract.sol\":1745:1777  intervalContract.addKline(input) */\n    tag_187:\n      swap1\n      pop\n        /* \"contracts/FactoryContract.sol\":96:4462  contract FactoryContract {... */\n      0x20\n        /* \"contracts/FactoryContract.sol\":1745:1777  intervalContract.addKline(input) */\n      dup2\n      returndatasize\n        /* \"contracts/FactoryContract.sol\":96:4462  contract FactoryContract {... */\n      0x20\n        /* \"contracts/FactoryContract.sol\":1745:1777  intervalContract.addKline(input) */\n      gt\n      tag_214\n      jumpi\n    tag_215:\n      dup2\n      tag_216\n        /* \"contracts/FactoryContract.sol\":96:4462  contract FactoryContract {... */\n      0x20\n        /* \"contracts/FactoryContract.sol\":1745:1777  intervalContract.addKline(input) */\n      swap4\n      dup4\n      tag_3\n      jump\t// in\n    tag_216:\n      dup2\n      add\n        /* \"contracts/FactoryContract.sol\":96:4462  contract FactoryContract {... */\n      sub\n      slt\n      tag_62\n      jumpi\n      tag_219\n      swap1\n      tag_12\n      jump\t// in\n    tag_219:\n        /* \"contracts/FactoryContract.sol\":1745:1777  intervalContract.addKline(input) */\n      dup6\n      jump(tag_188)\n    tag_214:\n      returndatasize\n      swap2\n      pop\n      jump(tag_215)\n        /* \"contracts/FactoryContract.sol\":96:4462  contract FactoryContract {... */\n    tag_179:\n      mload(0x40)\n      shl(0xe5, 0x461bcd)\n      dup2\n      mstore\n      0x20\n      0x04\n      dup3\n      add\n      mstore\n      0x1d\n      0x24\n      dup3\n      add\n      mstore\n      0x4b6c696e6520696e74657276616c20646f6573206e6f74206d61746368000000\n      0x44\n      dup3\n      add\n      mstore\n        /* \"contracts/FactoryContract.sol\":1449:1463  input.interval */\n      0x64\n      swap1\n        /* \"contracts/FactoryContract.sol\":96:4462  contract FactoryContract {... */\n      revert\n    tag_24:\n      jumpi(tag_62, callvalue)\n      jumpi(tag_62, slt(add(not(0x03), calldatasize), 0x40))\n      calldataload(0x04)\n      sub(shl(0x40, 0x01), 0x01)\n      dup2\n      gt\n      tag_62\n      jumpi\n      tag_226\n      swap1\n      calldatasize\n      swap1\n      0x04\n      add\n      tag_8\n      jump\t// in\n    tag_226:\n      mload(0x40)\n      dup2\n      mload\n      calldataload(0x24)\n      swap3\n      0x20\n      swap2\n      dup4\n      swap2\n      dup2\n      swap1\n      dup5\n      add\n      dup4\n      mcopy\n      dup2\n      add\n      0x00\n      dup2\n      mstore\n      sub\n      add\n      swap1\n      keccak256\n      dup1\n      sload\n        /* \"contracts/FactoryContract.sol\":262:320  mapping(string => ContractInfo[]) public intervalContracts */\n      dup3\n      lt\n      iszero\n      tag_62\n      jumpi\n        /* \"contracts/FactoryContract.sol\":96:4462  contract FactoryContract {... */\n      0x60\n        /* \"contracts/FactoryContract.sol\":262:320  mapping(string => ContractInfo[]) public intervalContracts */\n      swap2\n      tag_229\n      swap2\n      tag_9\n      jump\t// in\n    tag_229:\n        /* \"contracts/FactoryContract.sol\":96:4462  contract FactoryContract {... */\n      pop\n      0x01\n      dup1\n      0xa0\n      shl\n      sub\n      dup2\n      sload\n      and\n        /* \"contracts/FactoryContract.sol\":262:320  mapping(string => ContractInfo[]) public intervalContracts */\n      swap1\n      0x02\n        /* \"contracts/FactoryContract.sol\":96:4462  contract FactoryContract {... */\n      0x01\n        /* \"contracts/FactoryContract.sol\":262:320  mapping(string => ContractInfo[]) public intervalContracts */\n      dup3\n      add\n        /* \"contracts/FactoryContract.sol\":96:4462  contract FactoryContract {... */\n      sload\n        /* \"contracts/FactoryContract.sol\":262:320  mapping(string => ContractInfo[]) public intervalContracts */\n      swap2\n      add\n        /* \"contracts/FactoryContract.sol\":96:4462  contract FactoryContract {... */\n      sload\n      swap1\n      mload(0x40)\n      swap3\n      dup4\n      mstore\n      0x20\n      dup4\n      add\n      mstore\n      0x40\n      dup3\n      add\n      mstore\n      return\n    tag_22:\n      jumpi(tag_62, callvalue)\n      jumpi(tag_62, slt(add(not(0x03), calldatasize), 0x00))\n        /* \"contracts/FactoryContract.sol\":4442:4451  intervals */\n      0x01\n        /* \"contracts/FactoryContract.sol\":96:4462  contract FactoryContract {... */\n      sload\n      tag_234\n      dup2\n      tag_10\n      jump\t// in\n    tag_234:\n      swap1\n      tag_235\n      mload(0x40)\n      swap3\n      dup4\n      tag_3\n      jump\t// in\n    tag_235:\n      dup1\n      dup3\n      mstore\n      0x20\n      dup3\n      add\n      swap1\n      dup2\n        /* \"contracts/FactoryContract.sol\":4442:4451  intervals */\n      0x01\n        /* \"contracts/FactoryContract.sol\":96:4462  contract FactoryContract {... */\n      0x00\n      mstore\n      0xb10e2d527612073b26eecdfd717e6a320cf44b4afac2b0732d9fcbe2b7fa0cf6\n      0x00\n      swap2\n    tag_236:\n      dup4\n      dup4\n      lt\n      tag_237\n      jumpi\n      dup5\n      dup7\n      mload(0x40)\n      swap2\n      dup3\n      swap2\n      0x20\n      dup4\n      add\n      swap1\n      0x20\n      dup5\n      mstore\n      mload\n      dup1\n      swap2\n      mstore\n      0x40\n      dup4\n      add\n      swap1\n      0x40\n      dup2\n      0x05\n      shl\n      dup6\n      add\n      add\n      swap3\n      swap2\n      0x00\n      swap1\n    tag_239:\n      dup3\n      dup3\n      lt\n      tag_240\n      jumpi\n      pop\n      pop\n      pop\n      pop\n      sub\n      swap1\n      return\n    tag_240:\n      swap2\n      swap4\n        /* \"contracts/FactoryContract.sol\":4442:4451  intervals */\n      0x01\n        /* \"contracts/FactoryContract.sol\":96:4462  contract FactoryContract {... */\n      swap2\n      swap4\n      swap6\n      pop\n      0x20\n      tag_242\n      dup2\n      swap3\n      not(0x3f)\n      dup11\n      dup3\n      sub\n      add\n      dup7\n      mstore\n      dup9\n      mload\n      tag_5\n      jump\t// in\n    tag_242:\n      swap7\n      add\n      swap3\n      add\n      swap3\n      add\n      dup6\n      swap5\n      swap4\n      swap2\n      swap3\n      jump(tag_239)\n    tag_237:\n        /* \"contracts/FactoryContract.sol\":4442:4451  intervals */\n      0x01\n        /* \"contracts/FactoryContract.sol\":96:4462  contract FactoryContract {... */\n      0x20\n      dup2\n      swap3\n      tag_243\n      dup6\n      tag_4\n      jump\t// in\n    tag_243:\n      dup2\n      mstore\n      add\n      swap3\n      add\n      swap3\n      add\n      swap2\n      swap1\n      jump(tag_236)\n    tag_20:\n      jumpi(tag_62, callvalue)\n      jumpi(tag_62, slt(add(not(0x03), calldatasize), 0x20))\n      calldataload(0x04)\n      sload(0x01)\n        /* \"contracts/FactoryContract.sol\":327:352  string[] public intervals */\n      dup2\n      lt\n      iszero\n      tag_62\n      jumpi\n        /* \"contracts/FactoryContract.sol\":96:4462  contract FactoryContract {... */\n      tag_250\n      tag_251\n      swap2\n      mstore(0x00, 0x01)\n      0xb10e2d527612073b26eecdfd717e6a320cf44b4afac2b0732d9fcbe2b7fa0cf6\n      add\n      tag_4\n      jump\t// in\n    tag_250:\n      mload(0x40)\n      swap2\n      dup3\n      swap2\n      0x20\n      dup4\n      mstore\n      0x20\n      dup4\n      add\n      swap1\n      tag_5\n      jump\t// in\n    tag_251:\n      sub\n      swap1\n      return\n    tag_1:\n        /* \"contracts/FactoryContract.sol\":1449:1463  input.interval */\n      0x60\n        /* \"contracts/FactoryContract.sol\":96:4462  contract FactoryContract {... */\n      dup2\n      add\n      swap1\n      dup2\n      lt\n      sub(shl(0x40, 0x01), 0x01)\n      dup3\n      gt\n      or\n      tag_197\n      jumpi\n      0x40\n      mstore\n      jump\t// out\n    tag_2:\n      0x01e0\n      dup2\n      add\n      swap1\n      dup2\n      lt\n      sub(shl(0x40, 0x01), 0x01)\n      dup3\n      gt\n      or\n      tag_197\n      jumpi\n      0x40\n      mstore\n      jump\t// out\n    tag_3:\n      swap1\n      0x1f\n      dup1\n      not\n      swap2\n      add\n      and\n      dup2\n      add\n      swap1\n      dup2\n      lt\n      sub(shl(0x40, 0x01), 0x01)\n      dup3\n      gt\n      or\n      tag_197\n      jumpi\n      0x40\n      mstore\n      jump\t// out\n    tag_4:\n      swap1\n      mload(0x40)\n      swap2\n      0x00\n      dup2\n      sload\n      swap1\n      dup2\n      0x01\n      shr\n      swap3\n      0x01\n      dup4\n      and\n      swap3\n      dup4\n      iszero\n      tag_258\n      jumpi\n    tag_259:\n      0x20\n      dup6\n      lt\n      dup5\n      eq\n      tag_260\n      jumpi\n      dup5\n      dup8\n      mstore\n      dup7\n      swap4\n      swap1\n      dup2\n      iszero\n      tag_262\n      jumpi\n      pop\n      0x01\n      eq\n      tag_264\n      jumpi\n    tag_265:\n      pop\n      tag_266\n      swap3\n      pop\n      sub\n      dup4\n      tag_3\n      jump\t// in\n    tag_266:\n      jump\t// out\n    tag_264:\n      swap1\n      pop\n      0x00\n      swap3\n      swap2\n      swap3\n      mstore\n      keccak256(0x00, 0x20)\n      swap1\n      0x00\n      swap2\n    tag_267:\n      dup2\n      dup4\n      lt\n      tag_268\n      jumpi\n      pop\n      pop\n      swap1\n      0x20\n      tag_266\n      swap3\n      dup3\n      add\n      add\n      0x00\n      jump(tag_265)\n    tag_268:\n      0x20\n      swap2\n      swap4\n      pop\n      dup1\n      0x01\n      swap2\n      sload\n      dup4\n      dup6\n      dup10\n      add\n      add\n      mstore\n      add\n      swap2\n      add\n      swap1\n      swap2\n      dup5\n      swap3\n      jump(tag_267)\n    tag_262:\n      swap1\n      pop\n      0x20\n      swap3\n      pop\n      tag_266\n      swap5\n      swap2\n      pop\n      not(0xff)\n      and\n      dup3\n      dup5\n      add\n      mstore\n      iszero\n      iszero\n      0x05\n      shl\n      dup3\n      add\n      add\n      0x00\n      jump(tag_265)\n    tag_260:\n      mstore(0x00, shl(0xe0, 0x4e487b71))\n      mstore(0x04, 0x22)\n      revert(0x00, 0x24)\n    tag_258:\n      swap4\n      0x7f\n      and\n      swap4\n      jump(tag_259)\n    tag_5:\n      dup1\n      mload\n      dup1\n      dup4\n      mstore\n      0x20\n      swap3\n      swap2\n      dup2\n      swap1\n      dup5\n      add\n      dup5\n      dup5\n      add\n      mcopy\n      0x00\n      dup3\n      dup3\n      add\n      dup5\n      add\n      mstore\n      0x1f\n      add\n      not(0x1f)\n      and\n      add\n      add\n      swap1\n      jump\t// out\n    tag_6:\n      sub(shl(0x40, 0x01), 0x01)\n      dup2\n      gt\n      tag_197\n      jumpi\n      0x1f\n      add\n      not(0x1f)\n      and\n      0x20\n      add\n      swap1\n      jump\t// out\n    tag_7:\n      swap3\n      swap2\n      swap3\n      tag_272\n      dup3\n      tag_6\n      jump\t// in\n    tag_272:\n      swap2\n      tag_273\n      mload(0x40)\n      swap4\n      dup5\n      tag_3\n      jump\t// in\n    tag_273:\n      dup3\n      swap5\n      dup2\n      dup5\n      mstore\n      dup2\n      dup4\n      add\n      gt\n      tag_62\n      jumpi\n      dup3\n      dup2\n      0x20\n      swap4\n      dup5\n      0x00\n      swap7\n      add\n      calldatacopy\n      add\n      add\n      mstore\n      jump\t// out\n    tag_8:\n      swap1\n      dup1\n      0x1f\n      dup4\n      add\n      slt\n      iszero\n      tag_62\n      jumpi\n      dup2\n      0x20\n      tag_278\n      swap4\n      calldataload\n      swap2\n      add\n      tag_7\n      jump\t// in\n    tag_278:\n      swap1\n      jump\t// out\n    tag_9:\n      dup1\n      sload\n      dup3\n      lt\n      iszero\n      tag_279\n      jumpi\n      0x00\n      mstore\n      0x03\n      keccak256(0x00, 0x20)\n      swap2\n      mul\n      add\n      swap1\n      0x00\n      swap1\n      jump\t// out\n    tag_279:\n      mstore(0x00, shl(0xe0, 0x4e487b71))\n      mstore(0x04, 0x32)\n      revert(0x00, 0x24)\n    tag_10:\n      sub(shl(0x40, 0x01), 0x01)\n      dup2\n      gt\n      tag_197\n      jumpi\n      0x05\n      shl\n      0x20\n      add\n      swap1\n      jump\t// out\n    tag_11:\n      iszero\n      tag_283\n      jumpi\n      jump\t// out\n    tag_283:\n      mload(0x40)\n      shl(0xe5, 0x461bcd)\n      dup2\n      mstore\n      0x20\n      0x04\n      dup3\n      add\n      mstore\n      0x16\n      0x24\n      dup3\n      add\n      mstore\n      shl(0x52, 0x125b9d195c9d985b081b9bdd081cdd5c1c1bdc9d1959)\n      0x44\n      dup3\n      add\n      mstore\n      0x64\n      swap1\n      revert\n    tag_12:\n      mload\n      swap1\n      dup2\n      iszero\n      iszero\n      dup3\n      sub\n      tag_62\n      jumpi\n      jump\t// out\n    tag_13:\n      swap1\n      calldataload\n      not(0x1e)\n      dup3\n      calldatasize\n      sub\n      add\n      dup2\n      slt\n      iszero\n      tag_62\n      jumpi\n      add\n      0x20\n      dup2\n      calldataload\n      swap2\n      add\n      swap2\n      sub(shl(0x40, 0x01), 0x01)\n      dup3\n      gt\n      tag_62\n      jumpi\n      dup2\n      calldatasize\n      sub\n      dup4\n      sgt\n      tag_62\n      jumpi\n      jump\t// out\n    tag_14:\n      swap1\n      dup1\n      0x20\n      swap4\n      swap3\n      dup2\n      dup5\n      mstore\n      dup5\n      dup5\n      add\n      calldatacopy\n      0x00\n      dup3\n      dup3\n      add\n      dup5\n      add\n      mstore\n      0x1f\n      add\n      not(0x1f)\n      and\n      add\n      add\n      swap1\n      jump\t// out\n    tag_15:\n      0x20\n      dup2\n      mstore\n      dup2\n      calldataload\n      0x20\n      dup3\n      add\n      mstore\n      0x20\n      dup3\n      add\n      calldataload\n      0x40\n      dup3\n      add\n      mstore\n      tag_293\n      tag_294\n      tag_295\n      0x40\n      dup6\n      add\n      dup6\n      tag_13\n      jump\t// in\n    tag_295:\n      0x0200\n      0x60\n      dup7\n      add\n      mstore\n      0x0220\n      dup6\n      add\n      swap2\n      tag_14\n      jump\t// in\n    tag_294:\n      tag_296\n      0x60\n      dup6\n      add\n      dup6\n      tag_13\n      jump\t// in\n    tag_296:\n      dup5\n      dup4\n      sub\n      not(0x1f)\n      add\n      0x80\n      dup7\n      add\n      mstore\n      swap1\n      tag_14\n      jump\t// in\n    tag_293:\n      swap2\n      0x80\n      dup2\n      add\n      calldataload\n      0xa0\n      dup4\n      add\n      mstore\n      0xa0\n      dup2\n      add\n      calldataload\n      0xc0\n      dup4\n      add\n      mstore\n      0xc0\n      dup2\n      add\n      calldataload\n      0xe0\n      dup4\n      add\n      mstore\n      0xe0\n      dup2\n      add\n      calldataload\n      0x0100\n      dup4\n      add\n      mstore\n      0x0100\n      dup2\n      add\n      calldataload\n      0x0120\n      dup4\n      add\n      mstore\n      0x0120\n      dup2\n      add\n      calldataload\n      0x0140\n      dup4\n      add\n      mstore\n      0x0140\n      dup2\n      add\n      calldataload\n      0x0160\n      dup4\n      add\n      mstore\n      0x0160\n      dup2\n      add\n      calldataload\n      0x0180\n      dup4\n      add\n      mstore\n      0x0180\n      dup2\n      add\n      calldataload\n      dup1\n      iszero\n      iszero\n      dup1\n      swap2\n      sub\n      tag_62\n      jumpi\n      0x0200\n      swap2\n      0x01e0\n      swap2\n      0x01a0\n      dup6\n      add\n      mstore\n      0x01a0\n      dup2\n      add\n      calldataload\n      0x01c0\n      dup6\n      add\n      mstore\n      0x01c0\n      dup2\n      add\n      calldataload\n      dup3\n      dup6\n      add\n      mstore\n      add\n      calldataload\n      swap2\n      add\n      mstore\n      swap1\n      jump\t// out\n    tag_16:\n      dup1\n      mload\n      dup3\n      lt\n      iszero\n      tag_279\n      jumpi\n      0x20\n      swap2\n      0x05\n      shl\n      add\n      add\n      swap1\n      jump\t// out\n    tag_17:\n      swap1\n      tag_301\n      dup3\n      tag_10\n      jump\t// in\n    tag_301:\n      tag_302\n      mload(0x40)\n      swap2\n      dup3\n      tag_3\n      jump\t// in\n    tag_302:\n      dup3\n      dup2\n      mstore\n      dup1\n      swap3\n      tag_303\n      not(0x1f)\n      swap2\n      tag_10\n      jump\t// in\n    tag_303:\n      add\n      swap1\n      0x00\n    tag_304:\n      dup3\n      dup2\n      lt\n      tag_305\n      jumpi\n      pop\n      pop\n      pop\n      jump\t// out\n    tag_305:\n      0x20\n      swap1\n      mload(0x40)\n      tag_307\n      dup2\n      tag_2\n      jump\t// in\n    tag_307:\n      0x00\n      dup2\n      mstore\n      0x00\n      dup4\n      dup3\n      add\n      mstore\n      0x60\n      0x40\n      dup3\n      add\n      mstore\n      0x00\n      0x60\n      dup3\n      add\n      mstore\n      0x00\n      0x80\n      dup3\n      add\n      mstore\n      0x00\n      0xa0\n      dup3\n      add\n      mstore\n      0x00\n      0xc0\n      dup3\n      add\n      mstore\n      0x00\n      0xe0\n      dup3\n      add\n      mstore\n      0x00\n      0x0100\n      dup3\n      add\n      mstore\n      0x00\n      0x0120\n      dup3\n      add\n      mstore\n      0x00\n      0x0140\n      dup3\n      add\n      mstore\n      0x00\n      0x0160\n      dup3\n      add\n      mstore\n      0x00\n      0x0180\n      dup3\n      add\n      mstore\n      0x00\n      0x01a0\n      dup3\n      add\n      mstore\n      0x00\n      0x01c0\n      dup3\n      add\n      mstore\n      dup3\n      dup3\n      dup6\n      add\n      add\n      mstore\n      add\n      jump(tag_304)\n    stop\n\n    sub_0: assembly {\n            /* \"contracts/IntervalContract.sol\":60:3831  contract IntervalContract {... */\n          mstore(0x40, 0x80)\n          jumpi(tag_14, callvalue)\n          bytecodeSize\n          dup1\n          codesize\n          sub\n          dup1\n          tag_4\n          dup2\n          tag_1\n          jump\t// in\n        tag_4:\n          swap3\n          dup4\n          codecopy\n          dup2\n          add\n          swap1\n          0x20\n          dup2\n          dup4\n          sub\n          slt\n          tag_14\n          jumpi\n          dup1\n          mload\n          swap1\n          sub(shl(0x40, 0x01), 0x01)\n          dup3\n          gt\n          tag_14\n          jumpi\n          add\n          dup2\n          0x1f\n          dup3\n          add\n          slt\n          iszero\n          tag_14\n          jumpi\n          dup1\n          mload\n          swap1\n          sub(shl(0x40, 0x01), 0x01)\n          dup3\n          gt\n          tag_16\n          jumpi\n          tag_13\n          0x1f\n          dup4\n          add\n          not(0x1f)\n          and\n          0x20\n          add\n          tag_1\n          jump\t// in\n        tag_13:\n          swap3\n          dup3\n          dup5\n          mstore\n          0x20\n          dup4\n          dup4\n          add\n          add\n          gt\n          tag_14\n          jumpi\n          dup2\n          0x00\n          swap3\n          0x20\n          dup1\n          swap4\n          add\n          dup4\n          dup7\n          add\n          mcopy\n          dup4\n          add\n          add\n          mstore\n          0x01\n          dup1\n          sload\n          not(sub(shl(0xa0, 0x01), 0x01))\n          and\n            /* \"contracts/IntervalContract.sol\":1861:1871  msg.sender */\n          caller\n            /* \"contracts/IntervalContract.sol\":60:3831  contract IntervalContract {... */\n          or\n          swap1\n          sstore\n          dup1\n          mload\n          sub(shl(0x40, 0x01), 0x01)\n          dup2\n          gt\n          tag_16\n          jumpi\n            /* \"contracts/IntervalContract.sol\":1882:1902  interval = _interval */\n          0x02\n            /* \"contracts/IntervalContract.sol\":60:3831  contract IntervalContract {... */\n          sload\n            /* \"contracts/IntervalContract.sol\":1851:1871  factory = msg.sender */\n          0x01\n            /* \"contracts/IntervalContract.sol\":60:3831  contract IntervalContract {... */\n          dup2\n          dup2\n          shr\n          swap2\n          and\n          dup1\n          iszero\n          tag_18\n          jumpi\n        tag_19:\n          0x20\n          dup3\n          lt\n          eq\n          tag_20\n          jumpi\n          0x1f\n          dup2\n          gt\n          tag_22\n          jumpi\n        tag_23:\n          pop\n          0x20\n          swap2\n          0x1f\n          dup3\n          gt\n          0x01\n          eq\n          tag_24\n          jumpi\n          swap2\n          dup2\n          swap3\n          0x00\n          swap3\n          tag_26\n          jumpi\n        tag_27:\n          pop\n          pop\n          dup2\n            /* \"contracts/IntervalContract.sol\":1851:1871  factory = msg.sender */\n          0x01\n            /* \"contracts/IntervalContract.sol\":60:3831  contract IntervalContract {... */\n          shl\n          swap2\n          not(0x00)\n          swap1\n          0x03\n          shl\n          shr\n          not\n          and\n          or\n            /* \"contracts/IntervalContract.sol\":1882:1902  interval = _interval */\n          0x02\n            /* \"contracts/IntervalContract.sol\":60:3831  contract IntervalContract {... */\n          sstore\n        tag_28:\n          mload(0x40)\n          dataSize(sub_0)\n          swap1\n          dup2\n          dataOffset(sub_0)\n          dup3\n          codecopy\n          return\n        tag_26:\n          add\n          mload\n          swap1\n          pop\n          0x00\n          dup1\n          jump(tag_27)\n        tag_24:\n          not(0x1f)\n          dup3\n          and\n          swap3\n            /* \"contracts/IntervalContract.sol\":1882:1902  interval = _interval */\n          0x02\n          0x00\n            /* \"contracts/IntervalContract.sol\":60:3831  contract IntervalContract {... */\n          mstore\n          dup1\n          0x00\n          keccak256\n          swap2\n          0x00\n        tag_29:\n          dup6\n          dup2\n          lt\n          tag_30\n          jumpi\n          pop\n          dup4\n            /* \"contracts/IntervalContract.sol\":1851:1871  factory = msg.sender */\n          0x01\n            /* \"contracts/IntervalContract.sol\":60:3831  contract IntervalContract {... */\n          swap6\n          lt\n          tag_32\n          jumpi\n        tag_33:\n          pop\n          pop\n          pop\n          dup2\n          shl\n          add\n            /* \"contracts/IntervalContract.sol\":1882:1902  interval = _interval */\n          0x02\n            /* \"contracts/IntervalContract.sol\":60:3831  contract IntervalContract {... */\n          sstore\n          jump(tag_28)\n        tag_32:\n          add\n          mload\n          not(0x00)\n          0xf8\n          dup5\n          0x03\n          shl\n          and\n          shr\n          not\n          and\n          swap1\n          sstore\n          0x00\n          dup1\n          dup1\n          jump(tag_33)\n        tag_30:\n          swap2\n          swap3\n          0x20\n            /* \"contracts/IntervalContract.sol\":1851:1871  factory = msg.sender */\n          0x01\n            /* \"contracts/IntervalContract.sol\":60:3831  contract IntervalContract {... */\n          dup2\n          swap3\n          dup7\n          dup6\n          add\n          mload\n          dup2\n          sstore\n          add\n          swap5\n          add\n          swap3\n          add\n          jump(tag_29)\n        tag_22:\n            /* \"contracts/IntervalContract.sol\":1882:1902  interval = _interval */\n          0x02\n          0x00\n            /* \"contracts/IntervalContract.sol\":60:3831  contract IntervalContract {... */\n          mstore\n          0x405787fa12a823e0f2b7631cc41b3ba8828b3321ca811111fa75cd3aa3bb5ace\n          0x1f\n          dup4\n          add\n          0x05\n          shr\n          dup2\n          add\n          swap2\n          0x20\n          dup5\n          lt\n          tag_34\n          jumpi\n        tag_35:\n          0x1f\n          add\n          0x05\n          shr\n          add\n          swap1\n        tag_36:\n          dup2\n          dup2\n          lt\n          tag_37\n          jumpi\n          pop\n          jump(tag_23)\n        tag_37:\n          0x00\n          dup2\n          sstore\n            /* \"contracts/IntervalContract.sol\":1851:1871  factory = msg.sender */\n          0x01\n            /* \"contracts/IntervalContract.sol\":60:3831  contract IntervalContract {... */\n          add\n          jump(tag_36)\n        tag_34:\n          swap1\n          swap2\n          pop\n          dup2\n          swap1\n          jump(tag_35)\n        tag_20:\n          mstore(0x00, shl(0xe0, 0x4e487b71))\n          mstore(0x04, 0x22)\n          revert(0x00, 0x24)\n        tag_18:\n          swap1\n          0x7f\n          and\n          swap1\n          jump(tag_19)\n        tag_16:\n          mstore(0x00, shl(0xe0, 0x4e487b71))\n          mstore(0x04, 0x41)\n          revert(0x00, 0x24)\n        tag_14:\n          0x00\n          dup1\n          revert\n        tag_1:\n          mload(0x40)\n          swap2\n          swap1\n          0x1f\n          add\n          not(0x1f)\n          and\n          dup3\n          add\n          sub(shl(0x40, 0x01), 0x01)\n          dup2\n          gt\n          dup4\n          dup3\n          lt\n          or\n          tag_16\n          jumpi\n          0x40\n          mstore\n          jump\t// out\n        stop\n\n        sub_0: assembly {\n                /* \"contracts/IntervalContract.sol\":60:3831  contract IntervalContract {... */\n              0x80\n              dup1\n              0x40\n              mstore\n              jumpi(tag_12, iszero(lt(calldatasize, 0x04)))\n              0x00\n              dup1\n              revert\n            tag_12:\n              shr(0xe0, calldataload(0x00))\n              swap1\n              dup2\n              0x36b275e9\n              eq\n              tag_14\n              jumpi\n              pop\n              dup1\n              0x48bae592\n              eq\n              tag_16\n              jumpi\n              dup1\n              0x6cfcdca7\n              eq\n              tag_18\n              jumpi\n              dup1\n              0x947a36fb\n              eq\n              tag_20\n              jumpi\n              dup1\n              0xc3e3bfe5\n              eq\n              tag_22\n              jumpi\n              dup1\n              0xc45a0155\n              eq\n              tag_24\n              jumpi\n              0xfbad15dc\n              eq\n              tag_26\n              jumpi\n              0x00\n              dup1\n              revert\n            tag_26:\n              jumpi(tag_30, callvalue)\n              jumpi(tag_30, slt(add(not(0x03), calldatasize), 0x40))\n              calldataload(0x04)\n              calldataload(0x24)\n              swap1\n              sload(0x00)\n                /* \"contracts/IntervalContract.sol\":3334:3360  startIndex < klines.length */\n              dup1\n              dup3\n              lt\n                /* \"contracts/IntervalContract.sol\":60:3831  contract IntervalContract {... */\n              iszero\n              tag_32\n              jumpi\n                /* \"contracts/IntervalContract.sol\":3403:3425  endIndex >= startIndex */\n              dup2\n              dup4\n              lt\n              iszero\n                /* \"contracts/IntervalContract.sol\":3403:3453  endIndex >= startIndex && endIndex < klines.length */\n              swap1\n              dup2\n              tag_34\n              jumpi\n                /* \"contracts/IntervalContract.sol\":60:3831  contract IntervalContract {... */\n            tag_35:\n              pop\n              iszero\n              tag_36\n              jumpi\n              dup1\n              dup3\n              sub\n              swap2\n              dup3\n              gt\n              tag_55\n              jumpi\n              0x01\n              dup3\n              add\n              dup1\n              swap3\n              gt\n              tag_55\n              jumpi\n              tag_42\n              dup3\n              tag_10\n              jump\t// in\n            tag_42:\n              swap2\n              tag_43\n              mload(0x40)\n              swap4\n              dup5\n              tag_4\n              jump\t// in\n            tag_43:\n              dup1\n              dup4\n              mstore\n              not(0x1f)\n              tag_44\n              dup3\n              tag_10\n              jump\t// in\n            tag_44:\n              add\n              0x00\n            tag_45:\n              dup2\n              dup2\n              lt\n              tag_46\n              jumpi\n                /* \"contracts/IntervalContract.sol\":3600:3613  uint256 i = 0 */\n              pop\n              pop\n                /* \"contracts/IntervalContract.sol\":60:3831  contract IntervalContract {... */\n              0x00\n                /* \"contracts/IntervalContract.sol\":3615:3625  i < length */\n            tag_48:\n              dup2\n              dup2\n              lt\n              tag_49\n              jumpi\n                /* \"contracts/IntervalContract.sol\":60:3831  contract IntervalContract {... */\n              dup4\n              mload(0x40)\n              dup1\n              swap2\n              0x20\n              dup3\n              add\n              0x20\n              dup4\n              mstore\n              dup2\n              mload\n              dup1\n              swap2\n              mstore\n              0x40\n              dup4\n              add\n              swap1\n              0x20\n              0x40\n              dup3\n              0x05\n              shl\n              dup7\n              add\n              add\n              swap4\n              add\n              swap2\n              0x00\n              swap1\n            tag_51:\n              dup3\n              dup3\n              lt\n              tag_52\n              jumpi\n              pop\n              pop\n              pop\n              pop\n              sub\n              swap1\n              return\n            tag_52:\n              swap2\n              swap4\n              0x01\n              swap2\n              swap4\n              swap6\n              pop\n              0x20\n              dup1\n              swap2\n              not(0x3f)\n              dup10\n              dup3\n              sub\n              add\n              dup6\n              mstore\n              dup8\n              mload\n              swap1\n              dup2\n              mload\n              dup2\n              mstore\n              dup3\n              dup3\n              add\n              mload\n              dup4\n              dup3\n              add\n              mstore\n              0x01c0\n              dup1\n              tag_54\n              0x40\n              dup6\n              add\n              mload\n              0x01e0\n              0x40\n              dup7\n              add\n              mstore\n              0x01e0\n              dup6\n              add\n              swap1\n              tag_6\n              jump\t// in\n            tag_54:\n              swap4\n              0x60\n              dup2\n              add\n              mload\n              0x60\n              dup6\n              add\n              mstore\n              0x80\n              dup2\n              add\n              mload\n              0x80\n              dup6\n              add\n              mstore\n              0xa0\n              dup2\n              add\n              mload\n              0xa0\n              dup6\n              add\n              mstore\n              0xc0\n              dup2\n              add\n              mload\n              0xc0\n              dup6\n              add\n              mstore\n              0xe0\n              dup2\n              add\n              mload\n              0xe0\n              dup6\n              add\n              mstore\n              0x0100\n              dup2\n              add\n              mload\n              0x0100\n              dup6\n              add\n              mstore\n              0x0120\n              dup2\n              add\n              mload\n              0x0120\n              dup6\n              add\n              mstore\n              0x0140\n              dup2\n              add\n              mload\n              0x0140\n              dup6\n              add\n              mstore\n              0x0160\n              dup2\n              add\n              mload\n              iszero\n              iszero\n              0x0160\n              dup6\n              add\n              mstore\n              0x0180\n              dup2\n              add\n              mload\n              0x0180\n              dup6\n              add\n              mstore\n              0x01a0\n              dup2\n              add\n              mload\n              0x01a0\n              dup6\n              add\n              mstore\n              add\n              mload\n              swap2\n              add\n              mstore\n              swap7\n              add\n              swap3\n              add\n              swap3\n              add\n              dup6\n              swap5\n              swap4\n              swap2\n              swap3\n              jump(tag_51)\n                /* \"contracts/IntervalContract.sol\":3627:3630  i++ */\n            tag_49:\n                /* \"contracts/IntervalContract.sol\":60:3831  contract IntervalContract {... */\n              dup1\n              dup4\n              add\n              swap1\n              dup2\n              dup5\n              gt\n              tag_55\n              jumpi\n                /* \"contracts/IntervalContract.sol\":3659:3681  klines[startIndex + i] */\n              tag_57\n                /* \"contracts/IntervalContract.sol\":60:3831  contract IntervalContract {... */\n              0x01\n                /* \"contracts/IntervalContract.sol\":3659:3681  klines[startIndex + i] */\n              swap3\n              tag_1\n              jump\t// in\n            tag_57:\n                /* \"contracts/IntervalContract.sol\":60:3831  contract IntervalContract {... */\n              pop\n              0x0e\n              mload(0x40)\n              swap2\n              tag_58\n              dup4\n              tag_3\n              jump\t// in\n            tag_58:\n              dup1\n              sload\n              dup4\n              mstore\n              dup5\n              dup2\n              add\n              sload\n              0x20\n              dup5\n              add\n              mstore\n              tag_59\n              0x02\n              dup3\n              add\n              tag_5\n              jump\t// in\n            tag_59:\n              0x40\n              dup5\n              add\n              mstore\n              0x03\n              dup2\n              add\n              sload\n              0x60\n              dup5\n              add\n              mstore\n              0x04\n              dup2\n              add\n              sload\n              0x80\n              dup5\n              add\n              mstore\n              0x05\n              dup2\n              add\n              sload\n              0xa0\n              dup5\n              add\n              mstore\n              0x06\n              dup2\n              add\n              sload\n              0xc0\n              dup5\n              add\n              mstore\n              0x07\n              dup2\n              add\n              sload\n              0xe0\n              dup5\n              add\n              mstore\n              0x08\n              dup2\n              add\n              sload\n              0x0100\n              dup5\n              add\n              mstore\n              0x09\n              dup2\n              add\n              sload\n              0x0120\n              dup5\n              add\n              mstore\n              0x0a\n              dup2\n              add\n              sload\n              0x0140\n              dup5\n              add\n              mstore\n              0xff\n              0x0b\n              dup3\n              add\n              sload\n              and\n              iszero\n              iszero\n              0x0160\n              dup5\n              add\n              mstore\n              0x0c\n              dup2\n              add\n              sload\n              0x0180\n              dup5\n              add\n              mstore\n              0x0d\n              dup2\n              add\n              sload\n              0x01a0\n              dup5\n              add\n              mstore\n              add\n              sload\n              0x01c0\n              dup3\n              add\n              mstore\n                /* \"contracts/IntervalContract.sol\":3647:3681  result[i] = klines[startIndex + i] */\n              tag_60\n              dup3\n              dup8\n              tag_11\n              jump\t// in\n            tag_60:\n              mstore\n              tag_61\n              dup2\n              dup7\n              tag_11\n              jump\t// in\n            tag_61:\n              pop\n                /* \"contracts/IntervalContract.sol\":60:3831  contract IntervalContract {... */\n              add\n                /* \"contracts/IntervalContract.sol\":3600:3613  uint256 i = 0 */\n              jump(tag_48)\n                /* \"contracts/IntervalContract.sol\":60:3831  contract IntervalContract {... */\n            tag_55:\n              mstore(0x00, shl(0xe0, 0x4e487b71))\n              mstore(0x04, 0x11)\n              revert(0x00, 0x24)\n            tag_46:\n              0x20\n              swap1\n              mload(0x40)\n              tag_62\n              dup2\n              tag_3\n              jump\t// in\n            tag_62:\n              0x00\n              dup2\n              mstore\n              0x00\n              dup4\n              dup3\n              add\n              mstore\n              0x60\n              0x40\n              dup3\n              add\n              mstore\n              0x00\n              0x60\n              dup3\n              add\n              mstore\n              0x00\n              0x80\n              dup3\n              add\n              mstore\n              0x00\n              0xa0\n              dup3\n              add\n              mstore\n              0x00\n              0xc0\n              dup3\n              add\n              mstore\n              0x00\n              0xe0\n              dup3\n              add\n              mstore\n              0x00\n              0x0100\n              dup3\n              add\n              mstore\n              0x00\n              0x0120\n              dup3\n              add\n              mstore\n              0x00\n              0x0140\n              dup3\n              add\n              mstore\n              0x00\n              0x0160\n              dup3\n              add\n              mstore\n              0x00\n              0x0180\n              dup3\n              add\n              mstore\n              0x00\n              0x01a0\n              dup3\n              add\n              mstore\n              0x00\n              0x01c0\n              dup3\n              add\n              mstore\n              dup3\n              dup3\n              dup9\n              add\n              add\n              mstore\n              add\n              jump(tag_45)\n            tag_36:\n              mload(0x40)\n              shl(0xe5, 0x461bcd)\n              dup2\n              mstore\n              0x20\n              0x04\n              dup3\n              add\n              mstore\n              0x11\n              0x24\n              dup3\n              add\n              mstore\n              shl(0x7b, 0x092dcecc2d8d2c840cadcc840d2dcc8caf)\n              0x44\n              dup3\n              add\n              mstore\n              0x64\n              swap1\n              revert\n                /* \"contracts/IntervalContract.sol\":3403:3453  endIndex >= startIndex && endIndex < klines.length */\n            tag_34:\n                /* \"contracts/IntervalContract.sol\":3429:3453  endIndex < klines.length */\n              swap1\n              pop\n              dup3\n              lt\n                /* \"contracts/IntervalContract.sol\":3403:3453  endIndex >= startIndex && endIndex < klines.length */\n              0x00\n              jump(tag_35)\n                /* \"contracts/IntervalContract.sol\":60:3831  contract IntervalContract {... */\n            tag_32:\n              mload(0x40)\n              shl(0xe5, 0x461bcd)\n              dup2\n              mstore\n              0x20\n              0x04\n              dup3\n              add\n              mstore\n              0x13\n              0x24\n              dup3\n              add\n              mstore\n              shl(0x6b, 0x092dcecc2d8d2c840e6e8c2e4e840d2dcc8caf)\n              0x44\n              dup3\n              add\n              mstore\n              0x64\n              swap1\n              revert\n            tag_30:\n              0x00\n              dup1\n              revert\n            tag_24:\n              jumpi(tag_30, callvalue)\n              jumpi(tag_30, slt(add(not(0x03), calldatasize), 0x00))\n              sload(0x01)\n              mload(0x40)\n              sub(shl(0xa0, 0x01), 0x01)\n              swap1\n              swap2\n              and\n              dup2\n              mstore\n              0x20\n              swap1\n              return\n            tag_22:\n              jumpi(tag_30, callvalue)\n              jumpi(tag_30, slt(add(not(0x03), calldatasize), 0x20))\n              calldataload(0x04)\n              0xffffffffffffffff\n              dup2\n              gt\n              tag_30\n              jumpi\n              0x0200\n              not(0x03)\n              dup3\n              calldatasize\n              sub\n              add\n              slt\n              tag_30\n              jumpi\n              and(sub(shl(0xa0, 0x01), 0x01), sload(0x01))\n                /* \"contracts/IntervalContract.sol\":1960:1970  msg.sender */\n              caller\n                /* \"contracts/IntervalContract.sol\":1960:1981  msg.sender == factory */\n              sub\n                /* \"contracts/IntervalContract.sol\":60:3831  contract IntervalContract {... */\n              tag_75\n              jumpi\n                /* \"contracts/IntervalContract.sol\":2049:3175  function addKline(KlineInput calldata input) external onlyFactory returns (bool) {... */\n              tag_77\n                /* \"contracts/IntervalContract.sol\":60:3831  contract IntervalContract {... */\n              0x20\n              swap2\n              0x04\n              add\n                /* \"contracts/IntervalContract.sol\":2049:3175  function addKline(KlineInput calldata input) external onlyFactory returns (bool) {... */\n              tag_9\n              jump\t// in\n            tag_77:\n                /* \"contracts/IntervalContract.sol\":60:3831  contract IntervalContract {... */\n              mload(0x40)\n              swap1\n              iszero\n              iszero\n              dup2\n              mstore\n              return\n            tag_75:\n              mload(0x40)\n              shl(0xe5, 0x461bcd)\n              dup2\n              mstore\n              0x20\n              0x04\n              dup3\n              add\n              mstore\n              0x23\n              0x24\n              dup3\n              add\n              mstore\n              0x4f6e6c7920466163746f72792063616e2063616c6c20746869732066756e6374\n              0x44\n              dup3\n              add\n              mstore\n              shl(0xe9, 0x34b7b7)\n              0x64\n              dup3\n              add\n              mstore\n              0x84\n              swap1\n              revert\n            tag_20:\n              jumpi(tag_30, callvalue)\n              jumpi(tag_30, slt(add(not(0x03), calldatasize), 0x00))\n              mload(0x40)\n              0x00\n                /* \"contracts/IntervalContract.sol\":1772:1794  string public interval */\n              0x02\n                /* \"contracts/IntervalContract.sol\":60:3831  contract IntervalContract {... */\n              sload\n              tag_82\n              dup2\n              tag_2\n              jump\t// in\n            tag_82:\n              dup1\n              dup5\n              mstore\n              swap1\n              0x01\n              dup2\n              and\n              swap1\n              dup2\n              iszero\n              tag_83\n              jumpi\n              pop\n              0x01\n              eq\n              tag_85\n              jumpi\n            tag_86:\n              tag_87\n              dup4\n              tag_88\n              dup2\n              dup6\n              sub\n              dup3\n              tag_4\n              jump\t// in\n            tag_88:\n              mload(0x40)\n              swap2\n              dup3\n              swap2\n              0x20\n              dup4\n              mstore\n              0x20\n              dup4\n              add\n              swap1\n              tag_6\n              jump\t// in\n            tag_87:\n              sub\n              swap1\n              return\n            tag_85:\n                /* \"contracts/IntervalContract.sol\":1772:1794  string public interval */\n              0x02\n                /* \"contracts/IntervalContract.sol\":60:3831  contract IntervalContract {... */\n              0x00\n              swap1\n              dup2\n              mstore\n              0x405787fa12a823e0f2b7631cc41b3ba8828b3321ca811111fa75cd3aa3bb5ace\n              swap4\n              swap3\n              pop\n              swap1\n            tag_89:\n              dup1\n              dup3\n              lt\n              tag_90\n              jumpi\n              pop\n              swap1\n              swap2\n              pop\n              dup2\n              add\n              0x20\n              add\n              tag_88\n              jump(tag_86)\n            tag_90:\n              swap2\n              swap3\n              0x01\n              dup2\n              0x20\n              swap3\n              sload\n              dup4\n              dup6\n              dup9\n              add\n              add\n              mstore\n              add\n              swap2\n              add\n              swap1\n              swap3\n              swap2\n              jump(tag_89)\n            tag_83:\n              not(0xff)\n              and\n              0x20\n              dup1\n              dup7\n              add\n              swap2\n              swap1\n              swap2\n              mstore\n              swap2\n              iszero\n              iszero\n              0x05\n              shl\n              dup5\n              add\n              swap1\n              swap2\n              add\n              swap2\n              pop\n              tag_88\n              swap1\n              pop\n              jump(tag_86)\n            tag_18:\n              jumpi(tag_30, callvalue)\n              jumpi(tag_30, slt(add(not(0x03), calldatasize), 0x20))\n              calldataload(0x04)\n              sload(0x00)\n                /* \"contracts/IntervalContract.sol\":1625:1646  Kline[] public klines */\n              dup2\n              lt\n              iszero\n              tag_30\n              jumpi\n              tag_98\n              swap1\n              tag_1\n              jump\t// in\n            tag_98:\n              pop\n                /* \"contracts/IntervalContract.sol\":60:3831  contract IntervalContract {... */\n              dup1\n              sload\n              0x01\n                /* \"contracts/IntervalContract.sol\":1625:1646  Kline[] public klines */\n              dup3\n              add\n                /* \"contracts/IntervalContract.sol\":60:3831  contract IntervalContract {... */\n              sload\n              swap1\n                /* \"contracts/IntervalContract.sol\":1625:1646  Kline[] public klines */\n              tag_99\n              0x02\n              dup5\n              add\n              tag_5\n              jump\t// in\n            tag_99:\n              swap3\n              0x03\n              dup2\n              add\n                /* \"contracts/IntervalContract.sol\":60:3831  contract IntervalContract {... */\n              sload\n                /* \"contracts/IntervalContract.sol\":1625:1646  Kline[] public klines */\n              swap1\n                /* \"contracts/IntervalContract.sol\":60:3831  contract IntervalContract {... */\n              0x04\n                /* \"contracts/IntervalContract.sol\":1625:1646  Kline[] public klines */\n              dup2\n              add\n                /* \"contracts/IntervalContract.sol\":60:3831  contract IntervalContract {... */\n              sload\n                /* \"contracts/IntervalContract.sol\":1625:1646  Kline[] public klines */\n              0x05\n              dup3\n              add\n                /* \"contracts/IntervalContract.sol\":60:3831  contract IntervalContract {... */\n              sload\n                /* \"contracts/IntervalContract.sol\":1625:1646  Kline[] public klines */\n              0x06\n              dup4\n              add\n                /* \"contracts/IntervalContract.sol\":60:3831  contract IntervalContract {... */\n              sload\n                /* \"contracts/IntervalContract.sol\":1625:1646  Kline[] public klines */\n              0x07\n              dup5\n              add\n                /* \"contracts/IntervalContract.sol\":60:3831  contract IntervalContract {... */\n              sload\n                /* \"contracts/IntervalContract.sol\":1625:1646  Kline[] public klines */\n              0x08\n              dup6\n              add\n                /* \"contracts/IntervalContract.sol\":60:3831  contract IntervalContract {... */\n              sload\n                /* \"contracts/IntervalContract.sol\":1625:1646  Kline[] public klines */\n              0x09\n              dup7\n              add\n                /* \"contracts/IntervalContract.sol\":60:3831  contract IntervalContract {... */\n              sload\n                /* \"contracts/IntervalContract.sol\":1625:1646  Kline[] public klines */\n              swap2\n              0x0a\n              dup8\n              add\n                /* \"contracts/IntervalContract.sol\":60:3831  contract IntervalContract {... */\n              sload\n                /* \"contracts/IntervalContract.sol\":1625:1646  Kline[] public klines */\n              swap4\n              0x0b\n              dup9\n              add\n                /* \"contracts/IntervalContract.sol\":60:3831  contract IntervalContract {... */\n              sload\n              0xff\n              and\n                /* \"contracts/IntervalContract.sol\":1625:1646  Kline[] public klines */\n              swap6\n              0x0c\n              dup10\n              add\n                /* \"contracts/IntervalContract.sol\":60:3831  contract IntervalContract {... */\n              sload\n                /* \"contracts/IntervalContract.sol\":1625:1646  Kline[] public klines */\n              swap8\n              0x0d\n              dup11\n              add\n                /* \"contracts/IntervalContract.sol\":60:3831  contract IntervalContract {... */\n              sload\n                /* \"contracts/IntervalContract.sol\":1625:1646  Kline[] public klines */\n              swap10\n              0x0e\n              add\n                /* \"contracts/IntervalContract.sol\":60:3831  contract IntervalContract {... */\n              sload\n              swap11\n              mload(0x40)\n              swap15\n              dup16\n              swap15\n              dup16\n              swap15\n              dup16\n              swap1\n              dup2\n              mstore\n              0x20\n              add\n              mstore\n              dup14\n              0x40\n              dup2\n              add\n              0x01e0\n              swap1\n              mstore\n              0x01e0\n              add\n              tag_100\n              swap2\n              tag_6\n              jump\t// in\n            tag_100:\n              swap13\n              0x60\n              add\n              mstore\n              0x80\n              dup14\n              add\n              mstore\n              0xa0\n              dup13\n              add\n              mstore\n              0xc0\n              dup12\n              add\n              mstore\n              0xe0\n              dup11\n              add\n              mstore\n              0x0100\n              dup10\n              add\n              mstore\n              0x0120\n              dup9\n              add\n              mstore\n              0x0140\n              dup8\n              add\n              mstore\n              iszero\n              iszero\n              0x0160\n              dup7\n              add\n              mstore\n              0x0180\n              dup6\n              add\n              mstore\n              0x01a0\n              dup5\n              add\n              mstore\n              0x01c0\n              dup4\n              add\n              mstore\n              sub\n              swap1\n              return\n            tag_16:\n              jumpi(tag_30, callvalue)\n              jumpi(tag_30, slt(add(not(0x03), calldatasize), 0x00))\n              0x20\n              sload(0x00)\n              mload(0x40)\n              swap1\n              dup2\n              mstore\n              return\n            tag_14:\n              jumpi(tag_30, callvalue)\n              jumpi(tag_30, slt(add(not(0x03), calldatasize), 0x00))\n              dup1\n                /* \"contracts/IntervalContract.sol\":1690:1691  2 */\n              0x02\n                /* \"contracts/IntervalContract.sol\":60:3831  contract IntervalContract {... */\n              0x20\n              swap3\n              mstore\n              return\n            tag_1:\n              sload(0x00)\n              dup2\n              lt\n              iszero\n              tag_109\n              jumpi\n              0x00\n              dup1\n              dup1\n              mstore\n              0x0f\n              swap2\n              swap1\n              swap2\n              mul\n              0x290decd9548b62a8d60345a988386fc84ba6bc95484008f6362f93160ef3e563\n              add\n              swap2\n              jump\t// out\n            tag_109:\n              mstore(0x00, shl(0xe0, 0x4e487b71))\n              mstore(0x04, 0x32)\n              revert(0x00, 0x24)\n            tag_2:\n              swap1\n              0x01\n              dup3\n              dup2\n              shr\n              swap3\n              and\n              dup1\n              iszero\n              tag_111\n              jumpi\n            tag_112:\n              0x20\n              dup4\n              lt\n              eq\n              tag_113\n              jumpi\n              jump\t// out\n            tag_113:\n              mstore(0x00, shl(0xe0, 0x4e487b71))\n              mstore(0x04, 0x22)\n              revert(0x00, 0x24)\n            tag_111:\n              swap2\n              0x7f\n              and\n              swap2\n              jump(tag_112)\n            tag_3:\n              0x01e0\n              dup2\n              add\n              swap1\n              dup2\n              lt\n              0xffffffffffffffff\n              dup3\n              gt\n              or\n              tag_115\n              jumpi\n              0x40\n              mstore\n              jump\t// out\n            tag_115:\n              mstore(0x00, shl(0xe0, 0x4e487b71))\n              mstore(0x04, 0x41)\n              revert(0x00, 0x24)\n            tag_4:\n              swap1\n              0x1f\n              dup1\n              not\n              swap2\n              add\n              and\n              dup2\n              add\n              swap1\n              dup2\n              lt\n              0xffffffffffffffff\n              dup3\n              gt\n              or\n              tag_115\n              jumpi\n              0x40\n              mstore\n              jump\t// out\n            tag_5:\n              swap1\n              mload(0x40)\n              swap2\n              dup3\n              0x00\n              dup3\n              sload\n              swap3\n              tag_119\n              dup5\n              tag_2\n              jump\t// in\n            tag_119:\n              dup1\n              dup5\n              mstore\n              swap4\n              0x01\n              dup2\n              and\n              swap1\n              dup2\n              iszero\n              tag_120\n              jumpi\n              pop\n              0x01\n              eq\n              tag_122\n              jumpi\n            tag_123:\n              pop\n              tag_124\n              swap3\n              pop\n              sub\n              dup4\n              tag_4\n              jump\t// in\n            tag_124:\n              jump\t// out\n            tag_122:\n              swap1\n              pop\n              0x00\n              swap3\n              swap2\n              swap3\n              mstore\n              keccak256(0x00, 0x20)\n              swap1\n              0x00\n              swap2\n            tag_125:\n              dup2\n              dup4\n              lt\n              tag_126\n              jumpi\n              pop\n              pop\n              swap1\n              0x20\n              tag_124\n              swap3\n              dup3\n              add\n              add\n              0x00\n              jump(tag_123)\n            tag_126:\n              0x20\n              swap2\n              swap4\n              pop\n              dup1\n              0x01\n              swap2\n              sload\n              dup4\n              dup6\n              dup10\n              add\n              add\n              mstore\n              add\n              swap2\n              add\n              swap1\n              swap2\n              dup5\n              swap3\n              jump(tag_125)\n            tag_120:\n              swap1\n              pop\n              0x20\n              swap3\n              pop\n              tag_124\n              swap5\n              swap2\n              pop\n              not(0xff)\n              and\n              dup3\n              dup5\n              add\n              mstore\n              iszero\n              iszero\n              0x05\n              shl\n              dup3\n              add\n              add\n              0x00\n              jump(tag_123)\n            tag_6:\n              dup1\n              mload\n              dup1\n              dup4\n              mstore\n              0x20\n              swap3\n              swap2\n              dup2\n              swap1\n              dup5\n              add\n              dup5\n              dup5\n              add\n              mcopy\n              0x00\n              dup3\n              dup3\n              add\n              dup5\n              add\n              mstore\n              0x1f\n              add\n              not(0x1f)\n              and\n              add\n              add\n              swap1\n              jump\t// out\n            tag_7:\n              swap1\n              calldataload\n              swap1\n              not(0x1e)\n              dup2\n              calldatasize\n              sub\n              add\n              dup3\n              slt\n              iszero\n              tag_30\n              jumpi\n              add\n              dup1\n              calldataload\n              swap1\n              0xffffffffffffffff\n              dup3\n              gt\n              tag_30\n              jumpi\n              0x20\n              add\n              swap2\n              dup2\n              calldatasize\n              sub\n              dup4\n              sgt\n              tag_30\n              jumpi\n              jump\t// out\n            tag_8:\n              swap3\n              swap2\n              swap3\n              0xffffffffffffffff\n              dup3\n              gt\n              tag_115\n              jumpi\n              mload(0x40)\n              swap2\n              tag_136\n              0x1f\n              dup3\n              add\n              not(0x1f)\n              and\n              0x20\n              add\n              dup5\n              tag_4\n              jump\t// in\n            tag_136:\n              dup3\n              swap5\n              dup2\n              dup5\n              mstore\n              dup2\n              dup4\n              add\n              gt\n              tag_30\n              jumpi\n              dup3\n              dup2\n              0x20\n              swap4\n              dup5\n              0x00\n              swap7\n              add\n              calldatacopy\n              add\n              add\n              mstore\n              jump\t// out\n                /* \"contracts/IntervalContract.sol\":2049:3175  function addKline(KlineInput calldata input) external onlyFactory returns (bool) {... */\n            tag_9:\n                /* \"contracts/IntervalContract.sol\":60:3831  contract IntervalContract {... */\n              tag_139\n                /* \"contracts/IntervalContract.sol\":2260:2274  input.interval */\n              tag_140\n              0x60\n              dup4\n              add\n              dup4\n              tag_7\n              jump\t// in\n            tag_140:\n                /* \"contracts/IntervalContract.sol\":60:3831  contract IntervalContract {... */\n              calldatasize\n              swap2\n              tag_8\n              jump\t// in\n            tag_139:\n              0x20\n              dup2\n              mload\n              swap2\n              add\n                /* \"contracts/IntervalContract.sol\":2244:2276  keccak256(bytes(input.interval)) */\n              keccak256\n                /* \"contracts/IntervalContract.sol\":60:3831  contract IntervalContract {... */\n              mload(0x40)\n              0x00\n              swap1\n                /* \"contracts/IntervalContract.sol\":2296:2304  interval */\n              0x02\n                /* \"contracts/IntervalContract.sol\":60:3831  contract IntervalContract {... */\n              sload\n              swap2\n              dup2\n              tag_141\n              dup5\n              tag_2\n              jump\t// in\n            tag_141:\n              swap2\n              dup3\n              dup3\n              mstore\n              0x20\n              dup3\n              add\n              swap5\n              0x01\n              dup2\n              and\n              swap1\n              dup2\n              0x00\n              eq\n              tag_142\n              jumpi\n              pop\n              0x01\n              eq\n              tag_144\n              jumpi\n            tag_145:\n              tag_146\n              swap3\n              pop\n              sub\n              dup3\n              tag_4\n              jump\t// in\n            tag_146:\n              mload\n                /* \"contracts/IntervalContract.sol\":2280:2306  keccak256(bytes(interval)) */\n              swap1\n              keccak256\n                /* \"contracts/IntervalContract.sol\":2244:2306  keccak256(bytes(input.interval)) == keccak256(bytes(interval)) */\n              sub\n                /* \"contracts/IntervalContract.sol\":60:3831  contract IntervalContract {... */\n              tag_147\n              jumpi\n              sload(0x00)\n                /* \"contracts/IntervalContract.sol\":2296:2304  interval */\n              0x02\n                /* \"contracts/IntervalContract.sol\":2396:2423  klines.length >= MAX_KLINES */\n              dup2\n              lt\n              iszero\n                /* \"contracts/IntervalContract.sol\":2392:2483  if (klines.length >= MAX_KLINES) {... */\n              tag_149\n              jumpi\n                /* \"contracts/IntervalContract.sol\":2622:2634  input.symbol */\n              tag_151\n                /* \"contracts/IntervalContract.sol\":60:3831  contract IntervalContract {... */\n              0x40\n                /* \"contracts/IntervalContract.sol\":2622:2634  input.symbol */\n              dup4\n              add\n              dup4\n              tag_7\n              jump\t// in\n            tag_151:\n                /* \"contracts/IntervalContract.sol\":2961:2975  input.isClosed */\n              swap3\n              swap1\n              swap2\n              0x0180\n              dup3\n              add\n                /* \"contracts/IntervalContract.sol\":60:3831  contract IntervalContract {... */\n              calldataload\n              swap2\n              dup3\n              iszero\n              iszero\n              dup1\n              swap4\n              sub\n              tag_30\n              jumpi\n                /* \"contracts/IntervalContract.sol\":3107:3132  input.takerBuyQuoteVolume */\n              0x01e0\n                /* \"contracts/IntervalContract.sol\":60:3831  contract IntervalContract {... */\n              swap1\n              tag_154\n              mload(0x40)\n              swap6\n              tag_155\n              dup8\n              tag_3\n              jump\t// in\n            tag_155:\n              dup3\n              calldataload\n              dup8\n              mstore\n              0x20\n                /* \"contracts/IntervalContract.sol\":2505:3144  Kline({... */\n              dup8\n              add\n                /* \"contracts/IntervalContract.sol\":2581:2599  input.endTimestamp */\n              swap8\n                /* \"contracts/IntervalContract.sol\":60:3831  contract IntervalContract {... */\n              0x20\n                /* \"contracts/IntervalContract.sol\":2581:2599  input.endTimestamp */\n              dup5\n              add\n                /* \"contracts/IntervalContract.sol\":60:3831  contract IntervalContract {... */\n              calldataload\n              dup10\n              mstore\n              calldatasize\n              swap2\n              tag_8\n              jump\t// in\n            tag_154:\n                /* \"contracts/IntervalContract.sol\":2505:3144  Kline({... */\n              swap4\n                /* \"contracts/IntervalContract.sol\":60:3831  contract IntervalContract {... */\n              0x40\n                /* \"contracts/IntervalContract.sol\":2505:3144  Kline({... */\n              dup7\n              add\n                /* \"contracts/IntervalContract.sol\":60:3831  contract IntervalContract {... */\n              swap5\n              dup6\n              mstore\n                /* \"contracts/IntervalContract.sol\":2663:2681  input.firstTradeId */\n              0x80\n              dup3\n              add\n                /* \"contracts/IntervalContract.sol\":60:3831  contract IntervalContract {... */\n              calldataload\n                /* \"contracts/IntervalContract.sol\":2260:2274  input.interval */\n              0x60\n                /* \"contracts/IntervalContract.sol\":2505:3144  Kline({... */\n              dup8\n              add\n                /* \"contracts/IntervalContract.sol\":60:3831  contract IntervalContract {... */\n              mstore\n                /* \"contracts/IntervalContract.sol\":2709:2726  input.lastTradeId */\n              0xa0\n              dup3\n              add\n                /* \"contracts/IntervalContract.sol\":60:3831  contract IntervalContract {... */\n              calldataload\n                /* \"contracts/IntervalContract.sol\":2663:2681  input.firstTradeId */\n              0x80\n                /* \"contracts/IntervalContract.sol\":2505:3144  Kline({... */\n              dup8\n              add\n                /* \"contracts/IntervalContract.sol\":60:3831  contract IntervalContract {... */\n              mstore\n                /* \"contracts/IntervalContract.sol\":2747:2757  input.open */\n              0xc0\n              dup3\n              add\n                /* \"contracts/IntervalContract.sol\":60:3831  contract IntervalContract {... */\n              calldataload\n                /* \"contracts/IntervalContract.sol\":2709:2726  input.lastTradeId */\n              0xa0\n                /* \"contracts/IntervalContract.sol\":2505:3144  Kline({... */\n              dup8\n              add\n                /* \"contracts/IntervalContract.sol\":60:3831  contract IntervalContract {... */\n              mstore\n                /* \"contracts/IntervalContract.sol\":2778:2788  input.high */\n              0xe0\n              dup3\n              add\n                /* \"contracts/IntervalContract.sol\":60:3831  contract IntervalContract {... */\n              calldataload\n                /* \"contracts/IntervalContract.sol\":2747:2757  input.open */\n              0xc0\n                /* \"contracts/IntervalContract.sol\":2505:3144  Kline({... */\n              dup8\n              add\n                /* \"contracts/IntervalContract.sol\":60:3831  contract IntervalContract {... */\n              mstore\n                /* \"contracts/IntervalContract.sol\":2808:2817  input.low */\n              0x0100\n              dup3\n              add\n                /* \"contracts/IntervalContract.sol\":60:3831  contract IntervalContract {... */\n              calldataload\n                /* \"contracts/IntervalContract.sol\":2778:2788  input.high */\n              0xe0\n                /* \"contracts/IntervalContract.sol\":2505:3144  Kline({... */\n              dup8\n              add\n                /* \"contracts/IntervalContract.sol\":60:3831  contract IntervalContract {... */\n              mstore\n                /* \"contracts/IntervalContract.sol\":2839:2850  input.close */\n              0x0120\n              dup3\n              add\n                /* \"contracts/IntervalContract.sol\":60:3831  contract IntervalContract {... */\n              calldataload\n                /* \"contracts/IntervalContract.sol\":2808:2817  input.low */\n              0x0100\n                /* \"contracts/IntervalContract.sol\":2505:3144  Kline({... */\n              dup8\n              add\n                /* \"contracts/IntervalContract.sol\":60:3831  contract IntervalContract {... */\n              mstore\n                /* \"contracts/IntervalContract.sol\":2873:2885  input.volume */\n              0x0140\n              dup3\n              add\n                /* \"contracts/IntervalContract.sol\":60:3831  contract IntervalContract {... */\n              calldataload\n                /* \"contracts/IntervalContract.sol\":2839:2850  input.close */\n              0x0120\n                /* \"contracts/IntervalContract.sol\":2505:3144  Kline({... */\n              dup8\n              add\n                /* \"contracts/IntervalContract.sol\":60:3831  contract IntervalContract {... */\n              mstore\n                /* \"contracts/IntervalContract.sol\":2916:2936  input.numberOfTrades */\n              0x0160\n              dup3\n              add\n                /* \"contracts/IntervalContract.sol\":60:3831  contract IntervalContract {... */\n              calldataload\n                /* \"contracts/IntervalContract.sol\":2873:2885  input.volume */\n              0x0140\n                /* \"contracts/IntervalContract.sol\":2505:3144  Kline({... */\n              dup8\n              add\n                /* \"contracts/IntervalContract.sol\":60:3831  contract IntervalContract {... */\n              mstore\n                /* \"contracts/IntervalContract.sol\":2916:2936  input.numberOfTrades */\n              0x0160\n                /* \"contracts/IntervalContract.sol\":2505:3144  Kline({... */\n              dup7\n              add\n                /* \"contracts/IntervalContract.sol\":60:3831  contract IntervalContract {... */\n              mstore\n                /* \"contracts/IntervalContract.sol\":3003:3020  input.quoteVolume */\n              0x01a0\n              dup2\n              add\n                /* \"contracts/IntervalContract.sol\":60:3831  contract IntervalContract {... */\n              calldataload\n                /* \"contracts/IntervalContract.sol\":2961:2975  input.isClosed */\n              0x0180\n                /* \"contracts/IntervalContract.sol\":2505:3144  Kline({... */\n              dup7\n              add\n                /* \"contracts/IntervalContract.sol\":60:3831  contract IntervalContract {... */\n              mstore\n                /* \"contracts/IntervalContract.sol\":3051:3071  input.takerBuyVolume */\n              0x01c0\n              dup2\n              add\n                /* \"contracts/IntervalContract.sol\":60:3831  contract IntervalContract {... */\n              calldataload\n                /* \"contracts/IntervalContract.sol\":3003:3020  input.quoteVolume */\n              0x01a0\n                /* \"contracts/IntervalContract.sol\":2505:3144  Kline({... */\n              dup7\n              add\n                /* \"contracts/IntervalContract.sol\":60:3831  contract IntervalContract {... */\n              mstore\n                /* \"contracts/IntervalContract.sol\":3107:3132  input.takerBuyQuoteVolume */\n              add\n                /* \"contracts/IntervalContract.sol\":60:3831  contract IntervalContract {... */\n              calldataload\n                /* \"contracts/IntervalContract.sol\":3051:3071  input.takerBuyVolume */\n              0x01c0\n                /* \"contracts/IntervalContract.sol\":2505:3144  Kline({... */\n              dup5\n              add\n                /* \"contracts/IntervalContract.sol\":60:3831  contract IntervalContract {... */\n              mstore\n              0x010000000000000000\n              dup2\n              lt\n              iszero\n              tag_115\n              jumpi\n              dup1\n              0x01\n              tag_158\n              swap3\n              add\n              0x00\n              sstore\n              tag_1\n              jump\t// in\n            tag_158:\n              swap4\n              swap1\n              swap4\n              tag_159\n              jumpi\n              dup3\n              mload\n              dup5\n              sstore\n              mload\n              0x01\n              dup5\n              add\n              sstore\n              mload\n              dup1\n              mload\n              swap1\n              0xffffffffffffffff\n              dup3\n              gt\n              tag_115\n              jumpi\n              tag_163\n                /* \"contracts/IntervalContract.sol\":2296:2304  interval */\n              0x02\n                /* \"contracts/IntervalContract.sol\":60:3831  contract IntervalContract {... */\n              dup6\n              add\n              sload\n              tag_2\n              jump\t// in\n            tag_163:\n              0x1f\n              dup2\n              gt\n              tag_164\n              jumpi\n            tag_165:\n              pop\n              0x20\n              swap1\n              0x1f\n              dup4\n              gt\n              0x01\n              eq\n              tag_166\n              jumpi\n              swap2\n              dup1\n              0x0e\n              swap5\n              swap3\n                /* \"contracts/IntervalContract.sol\":3051:3071  input.takerBuyVolume */\n              0x01c0\n                /* \"contracts/IntervalContract.sol\":60:3831  contract IntervalContract {... */\n              swap5\n              0x00\n              swap3\n              tag_168\n              jumpi\n            tag_169:\n              pop\n              pop\n              dup2\n              0x01\n              shl\n              swap2\n              not(0x00)\n              swap1\n              0x03\n              shl\n              shr\n              not\n              and\n              or\n                /* \"contracts/IntervalContract.sol\":2296:2304  interval */\n              0x02\n                /* \"contracts/IntervalContract.sol\":60:3831  contract IntervalContract {... */\n              dup6\n              add\n              sstore\n            tag_170:\n                /* \"contracts/IntervalContract.sol\":2260:2274  input.interval */\n              0x60\n                /* \"contracts/IntervalContract.sol\":2505:3144  Kline({... */\n              dup2\n              add\n                /* \"contracts/IntervalContract.sol\":60:3831  contract IntervalContract {... */\n              mload\n              0x03\n              dup6\n              add\n              sstore\n                /* \"contracts/IntervalContract.sol\":2663:2681  input.firstTradeId */\n              0x80\n                /* \"contracts/IntervalContract.sol\":2505:3144  Kline({... */\n              dup2\n              add\n                /* \"contracts/IntervalContract.sol\":60:3831  contract IntervalContract {... */\n              mload\n              0x04\n              dup6\n              add\n              sstore\n                /* \"contracts/IntervalContract.sol\":2709:2726  input.lastTradeId */\n              0xa0\n                /* \"contracts/IntervalContract.sol\":2505:3144  Kline({... */\n              dup2\n              add\n                /* \"contracts/IntervalContract.sol\":60:3831  contract IntervalContract {... */\n              mload\n              0x05\n              dup6\n              add\n              sstore\n                /* \"contracts/IntervalContract.sol\":2747:2757  input.open */\n              0xc0\n                /* \"contracts/IntervalContract.sol\":2505:3144  Kline({... */\n              dup2\n              add\n                /* \"contracts/IntervalContract.sol\":60:3831  contract IntervalContract {... */\n              mload\n              0x06\n              dup6\n              add\n              sstore\n                /* \"contracts/IntervalContract.sol\":2778:2788  input.high */\n              0xe0\n                /* \"contracts/IntervalContract.sol\":2505:3144  Kline({... */\n              dup2\n              add\n                /* \"contracts/IntervalContract.sol\":60:3831  contract IntervalContract {... */\n              mload\n              0x07\n              dup6\n              add\n              sstore\n                /* \"contracts/IntervalContract.sol\":2808:2817  input.low */\n              0x0100\n                /* \"contracts/IntervalContract.sol\":2505:3144  Kline({... */\n              dup2\n              add\n                /* \"contracts/IntervalContract.sol\":60:3831  contract IntervalContract {... */\n              mload\n              0x08\n              dup6\n              add\n              sstore\n                /* \"contracts/IntervalContract.sol\":2839:2850  input.close */\n              0x0120\n                /* \"contracts/IntervalContract.sol\":2505:3144  Kline({... */\n              dup2\n              add\n                /* \"contracts/IntervalContract.sol\":60:3831  contract IntervalContract {... */\n              mload\n              0x09\n              dup6\n              add\n              sstore\n                /* \"contracts/IntervalContract.sol\":2873:2885  input.volume */\n              0x0140\n                /* \"contracts/IntervalContract.sol\":2505:3144  Kline({... */\n              dup2\n              add\n                /* \"contracts/IntervalContract.sol\":60:3831  contract IntervalContract {... */\n              mload\n              0x0a\n              dup6\n              add\n              sstore\n              0x0b\n              dup5\n              add\n                /* \"contracts/IntervalContract.sol\":2916:2936  input.numberOfTrades */\n              0x0160\n                /* \"contracts/IntervalContract.sol\":2505:3144  Kline({... */\n              dup3\n              add\n                /* \"contracts/IntervalContract.sol\":60:3831  contract IntervalContract {... */\n              mload\n              iszero\n              iszero\n              0xff\n              dup1\n              not\n              dup4\n              sload\n              and\n              swap2\n              and\n              or\n              swap1\n              sstore\n                /* \"contracts/IntervalContract.sol\":2961:2975  input.isClosed */\n              0x0180\n                /* \"contracts/IntervalContract.sol\":2505:3144  Kline({... */\n              dup2\n              add\n                /* \"contracts/IntervalContract.sol\":60:3831  contract IntervalContract {... */\n              mload\n              0x0c\n              dup6\n              add\n              sstore\n                /* \"contracts/IntervalContract.sol\":3003:3020  input.quoteVolume */\n              0x01a0\n                /* \"contracts/IntervalContract.sol\":2505:3144  Kline({... */\n              dup2\n              add\n                /* \"contracts/IntervalContract.sol\":60:3831  contract IntervalContract {... */\n              mload\n              0x0d\n              dup6\n              add\n              sstore\n                /* \"contracts/IntervalContract.sol\":2505:3144  Kline({... */\n              add\n                /* \"contracts/IntervalContract.sol\":60:3831  contract IntervalContract {... */\n              mload\n              swap2\n              add\n              sstore\n              0x01\n                /* \"contracts/IntervalContract.sol\":2049:3175  function addKline(KlineInput calldata input) external onlyFactory returns (bool) {... */\n              swap1\n              jump\t// out\n                /* \"contracts/IntervalContract.sol\":60:3831  contract IntervalContract {... */\n            tag_168:\n              add\n              mload\n              swap1\n              pop\n              0x00\n              dup1\n              jump(tag_169)\n            tag_166:\n              swap1\n                /* \"contracts/IntervalContract.sol\":2296:2304  interval */\n              0x02\n                /* \"contracts/IntervalContract.sol\":60:3831  contract IntervalContract {... */\n              dup6\n              add\n              0x00\n              mstore\n              dup1\n              0x00\n              keccak256\n              swap2\n              0x00\n            tag_171:\n              not(0x1f)\n              dup6\n              and\n              dup2\n              lt\n              tag_172\n              jumpi\n              pop\n              swap3\n              0x0e\n              swap5\n              swap3\n              0x01\n              swap3\n                /* \"contracts/IntervalContract.sol\":3051:3071  input.takerBuyVolume */\n              0x01c0\n                /* \"contracts/IntervalContract.sol\":60:3831  contract IntervalContract {... */\n              swap6\n              dup4\n              not(0x1f)\n              dup2\n              and\n              lt\n              tag_174\n              jumpi\n            tag_175:\n              pop\n              pop\n              pop\n              dup2\n              shl\n              add\n                /* \"contracts/IntervalContract.sol\":2296:2304  interval */\n              0x02\n                /* \"contracts/IntervalContract.sol\":60:3831  contract IntervalContract {... */\n              dup6\n              add\n              sstore\n              jump(tag_170)\n            tag_174:\n              add\n              mload\n              not(0x00)\n              0xf8\n              dup5\n              0x03\n              shl\n              and\n              shr\n              not\n              and\n              swap1\n              sstore\n              0x00\n              dup1\n              dup1\n              jump(tag_175)\n            tag_172:\n              swap2\n              swap3\n              0x20\n              0x01\n              dup2\n              swap3\n              dup7\n              dup6\n              add\n              mload\n              dup2\n              sstore\n              add\n              swap5\n              add\n              swap3\n              add\n              jump(tag_171)\n            tag_164:\n                /* \"contracts/IntervalContract.sol\":2296:2304  interval */\n              0x02\n                /* \"contracts/IntervalContract.sol\":60:3831  contract IntervalContract {... */\n              dup6\n              add\n              0x00\n              mstore\n              keccak256(0x00, 0x20)\n              0x1f\n              dup5\n              add\n              0x05\n              shr\n              dup2\n              add\n              swap2\n              0x20\n              dup6\n              lt\n              tag_176\n              jumpi\n            tag_177:\n              0x1f\n              add\n              0x05\n              shr\n              add\n              swap1\n            tag_178:\n              dup2\n              dup2\n              lt\n              tag_179\n              jumpi\n              pop\n              jump(tag_165)\n            tag_179:\n              0x00\n              dup2\n              sstore\n              0x01\n              add\n              jump(tag_178)\n            tag_176:\n              swap1\n              swap2\n              pop\n              dup2\n              swap1\n              jump(tag_177)\n            tag_159:\n              mstore(0x00, shl(0xe0, 0x4e487b71))\n              mstore(0x04, 0x00)\n              revert(0x00, 0x24)\n                /* \"contracts/IntervalContract.sol\":2392:2483  if (klines.length >= MAX_KLINES) {... */\n            tag_149:\n                /* \"contracts/IntervalContract.sol\":2440:2452  return false */\n              pop\n              pop\n              0x00\n              swap1\n              jump\t// out\n                /* \"contracts/IntervalContract.sol\":60:3831  contract IntervalContract {... */\n            tag_147:\n              mload(0x40)\n              shl(0xe5, 0x461bcd)\n              dup2\n              mstore\n              0x20\n              0x04\n              dup3\n              add\n              mstore\n              0x2f\n              0x24\n              dup3\n              add\n              mstore\n              0x4b6c696e6520696e74657276616c20646f6573206e6f74206d6174636820636f\n              0x44\n              dup3\n              add\n              mstore\n              shl(0x8a, 0x1b9d1c9858dd081a5b9d195c9d985b)\n              0x64\n              dup3\n              add\n              mstore\n              0x84\n              swap1\n              revert\n            tag_144:\n              pop\n              swap1\n                /* \"contracts/IntervalContract.sol\":2296:2304  interval */\n              0x02\n              0x00\n                /* \"contracts/IntervalContract.sol\":60:3831  contract IntervalContract {... */\n              mstore\n              0x405787fa12a823e0f2b7631cc41b3ba8828b3321ca811111fa75cd3aa3bb5ace\n              swap1\n              0x00\n              swap2\n            tag_181:\n              dup2\n              dup4\n              lt\n              tag_182\n              jumpi\n              pop\n              pop\n              swap1\n              0x20\n              tag_146\n              swap3\n              dup3\n              add\n              add\n              jump(tag_145)\n            tag_182:\n              0x20\n              swap2\n              swap4\n              pop\n              dup1\n              0x01\n              swap2\n              sload\n              dup4\n              dup6\n              dup9\n              add\n              add\n              mstore\n              add\n              swap2\n              add\n              swap1\n              swap2\n              dup4\n              swap3\n              jump(tag_181)\n            tag_142:\n              not(0xff)\n              and\n              dup7\n              mstore\n              pop\n              tag_146\n              swap3\n              iszero\n              iszero\n              0x05\n              shl\n              dup3\n              add\n              0x20\n              add\n              swap1\n              pop\n              jump(tag_145)\n            tag_10:\n              0xffffffffffffffff\n              dup2\n              gt\n              tag_115\n              jumpi\n              0x05\n              shl\n              0x20\n              add\n              swap1\n              jump\t// out\n            tag_11:\n              dup1\n              mload\n              dup3\n              lt\n              iszero\n              tag_109\n              jumpi\n              0x20\n              swap2\n              0x05\n              shl\n              add\n              add\n              swap1\n              jump\t// out\n\n            auxdata: 0xa26469706673582212208c225f9c1fa1d040cd4ad45d93c82c4c8bfdefd4ef56e1f711343fcd159cbb5864736f6c634300081e0033\n        }\n    }\n\n    auxdata: 0xa26469706673582212204124752aa8f72db66e34b4d53b45d6f2f6f1cbe0fcb0dd436d07389a712d554e64736f6c634300081e0033\n}\n\nsub_1: assembly {\n        /* \"contracts/IntervalContract.sol\":60:3831  contract IntervalContract {... */\n      mstore(0x40, 0x80)\n      jumpi(tag_14, callvalue)\n      bytecodeSize\n      dup1\n      codesize\n      sub\n      dup1\n      tag_4\n      dup2\n      tag_1\n      jump\t// in\n    tag_4:\n      swap3\n      dup4\n      codecopy\n      dup2\n      add\n      swap1\n      0x20\n      dup2\n      dup4\n      sub\n      slt\n      tag_14\n      jumpi\n      dup1\n      mload\n      swap1\n      sub(shl(0x40, 0x01), 0x01)\n      dup3\n      gt\n      tag_14\n      jumpi\n      add\n      dup2\n      0x1f\n      dup3\n      add\n      slt\n      iszero\n      tag_14\n      jumpi\n      dup1\n      mload\n      swap1\n      sub(shl(0x40, 0x01), 0x01)\n      dup3\n      gt\n      tag_16\n      jumpi\n      tag_13\n      0x1f\n      dup4\n      add\n      not(0x1f)\n      and\n      0x20\n      add\n      tag_1\n      jump\t// in\n    tag_13:\n      swap3\n      dup3\n      dup5\n      mstore\n      0x20\n      dup4\n      dup4\n      add\n      add\n      gt\n      tag_14\n      jumpi\n      dup2\n      0x00\n      swap3\n      0x20\n      dup1\n      swap4\n      add\n      dup4\n      dup7\n      add\n      mcopy\n      dup4\n      add\n      add\n      mstore\n      0x01\n      dup1\n      sload\n      not(sub(shl(0xa0, 0x01), 0x01))\n      and\n        /* \"contracts/IntervalContract.sol\":1861:1871  msg.sender */\n      caller\n        /* \"contracts/IntervalContract.sol\":60:3831  contract IntervalContract {... */\n      or\n      swap1\n      sstore\n      dup1\n      mload\n      sub(shl(0x40, 0x01), 0x01)\n      dup2\n      gt\n      tag_16\n      jumpi\n        /* \"contracts/IntervalContract.sol\":1882:1902  interval = _interval */\n      0x02\n        /* \"contracts/IntervalContract.sol\":60:3831  contract IntervalContract {... */\n      sload\n        /* \"contracts/IntervalContract.sol\":1851:1871  factory = msg.sender */\n      0x01\n        /* \"contracts/IntervalContract.sol\":60:3831  contract IntervalContract {... */\n      dup2\n      dup2\n      shr\n      swap2\n      and\n      dup1\n      iszero\n      tag_18\n      jumpi\n    tag_19:\n      0x20\n      dup3\n      lt\n      eq\n      tag_20\n      jumpi\n      0x1f\n      dup2\n      gt\n      tag_22\n      jumpi\n    tag_23:\n      pop\n      0x20\n      swap2\n      0x1f\n      dup3\n      gt\n      0x01\n      eq\n      tag_24\n      jumpi\n      swap2\n      dup2\n      swap3\n      0x00\n      swap3\n      tag_26\n      jumpi\n    tag_27:\n      pop\n      pop\n      dup2\n        /* \"contracts/IntervalContract.sol\":1851:1871  factory = msg.sender */\n      0x01\n        /* \"contracts/IntervalContract.sol\":60:3831  contract IntervalContract {... */\n      shl\n      swap2\n      not(0x00)\n      swap1\n      0x03\n      shl\n      shr\n      not\n      and\n      or\n        /* \"contracts/IntervalContract.sol\":1882:1902  interval = _interval */\n      0x02\n        /* \"contracts/IntervalContract.sol\":60:3831  contract IntervalContract {... */\n      sstore\n    tag_28:\n      mload(0x40)\n      dataSize(sub_0)\n      swap1\n      dup2\n      dataOffset(sub_0)\n      dup3\n      codecopy\n      return\n    tag_26:\n      add\n      mload\n      swap1\n      pop\n      0x00\n      dup1\n      jump(tag_27)\n    tag_24:\n      not(0x1f)\n      dup3\n      and\n      swap3\n        /* \"contracts/IntervalContract.sol\":1882:1902  interval = _interval */\n      0x02\n      0x00\n        /* \"contracts/IntervalContract.sol\":60:3831  contract IntervalContract {... */\n      mstore\n      dup1\n      0x00\n      keccak256\n      swap2\n      0x00\n    tag_29:\n      dup6\n      dup2\n      lt\n      tag_30\n      jumpi\n      pop\n      dup4\n        /* \"contracts/IntervalContract.sol\":1851:1871  factory = msg.sender */\n      0x01\n        /* \"contracts/IntervalContract.sol\":60:3831  contract IntervalContract {... */\n      swap6\n      lt\n      tag_32\n      jumpi\n    tag_33:\n      pop\n      pop\n      pop\n      dup2\n      shl\n      add\n        /* \"contracts/IntervalContract.sol\":1882:1902  interval = _interval */\n      0x02\n        /* \"contracts/IntervalContract.sol\":60:3831  contract IntervalContract {... */\n      sstore\n      jump(tag_28)\n    tag_32:\n      add\n      mload\n      not(0x00)\n      0xf8\n      dup5\n      0x03\n      shl\n      and\n      shr\n      not\n      and\n      swap1\n      sstore\n      0x00\n      dup1\n      dup1\n      jump(tag_33)\n    tag_30:\n      swap2\n      swap3\n      0x20\n        /* \"contracts/IntervalContract.sol\":1851:1871  factory = msg.sender */\n      0x01\n        /* \"contracts/IntervalContract.sol\":60:3831  contract IntervalContract {... */\n      dup2\n      swap3\n      dup7\n      dup6\n      add\n      mload\n      dup2\n      sstore\n      add\n      swap5\n      add\n      swap3\n      add\n      jump(tag_29)\n    tag_22:\n        /* \"contracts/IntervalContract.sol\":1882:1902  interval = _interval */\n      0x02\n      0x00\n        /* \"contracts/IntervalContract.sol\":60:3831  contract IntervalContract {... */\n      mstore\n      0x405787fa12a823e0f2b7631cc41b3ba8828b3321ca811111fa75cd3aa3bb5ace\n      0x1f\n      dup4\n      add\n      0x05\n      shr\n      dup2\n      add\n      swap2\n      0x20\n      dup5\n      lt\n      tag_34\n      jumpi\n    tag_35:\n      0x1f\n      add\n      0x05\n      shr\n      add\n      swap1\n    tag_36:\n      dup2\n      dup2\n      lt\n      tag_37\n      jumpi\n      pop\n      jump(tag_23)\n    tag_37:\n      0x00\n      dup2\n      sstore\n        /* \"contracts/IntervalContract.sol\":1851:1871  factory = msg.sender */\n      0x01\n        /* \"contracts/IntervalContract.sol\":60:3831  contract IntervalContract {... */\n      add\n      jump(tag_36)\n    tag_34:\n      swap1\n      swap2\n      pop\n      dup2\n      swap1\n      jump(tag_35)\n    tag_20:\n      mstore(0x00, shl(0xe0, 0x4e487b71))\n      mstore(0x04, 0x22)\n      revert(0x00, 0x24)\n    tag_18:\n      swap1\n      0x7f\n      and\n      swap1\n      jump(tag_19)\n    tag_16:\n      mstore(0x00, shl(0xe0, 0x4e487b71))\n      mstore(0x04, 0x41)\n      revert(0x00, 0x24)\n    tag_14:\n      0x00\n      dup1\n      revert\n    tag_1:\n      mload(0x40)\n      swap2\n      swap1\n      0x1f\n      add\n      not(0x1f)\n      and\n      dup3\n      add\n      sub(shl(0x40, 0x01), 0x01)\n      dup2\n      gt\n      dup4\n      dup3\n      lt\n      or\n      tag_16\n      jumpi\n      0x40\n      mstore\n      jump\t// out\n    stop\n\n    sub_0: assembly {\n            /* \"contracts/IntervalContract.sol\":60:3831  contract IntervalContract {... */\n          0x80\n          dup1\n          0x40\n          mstore\n          jumpi(tag_12, iszero(lt(calldatasize, 0x04)))\n          0x00\n          dup1\n          revert\n        tag_12:\n          shr(0xe0, calldataload(0x00))\n          swap1\n          dup2\n          0x36b275e9\n          eq\n          tag_14\n          jumpi\n          pop\n          dup1\n          0x48bae592\n          eq\n          tag_16\n          jumpi\n          dup1\n          0x6cfcdca7\n          eq\n          tag_18\n          jumpi\n          dup1\n          0x947a36fb\n          eq\n          tag_20\n          jumpi\n          dup1\n          0xc3e3bfe5\n          eq\n          tag_22\n          jumpi\n          dup1\n          0xc45a0155\n          eq\n          tag_24\n          jumpi\n          0xfbad15dc\n          eq\n          tag_26\n          jumpi\n          0x00\n          dup1\n          revert\n        tag_26:\n          jumpi(tag_30, callvalue)\n          jumpi(tag_30, slt(add(not(0x03), calldatasize), 0x40))\n          calldataload(0x04)\n          calldataload(0x24)\n          swap1\n          sload(0x00)\n            /* \"contracts/IntervalContract.sol\":3334:3360  startIndex < klines.length */\n          dup1\n          dup3\n          lt\n            /* \"contracts/IntervalContract.sol\":60:3831  contract IntervalContract {... */\n          iszero\n          tag_32\n          jumpi\n            /* \"contracts/IntervalContract.sol\":3403:3425  endIndex >= startIndex */\n          dup2\n          dup4\n          lt\n          iszero\n            /* \"contracts/IntervalContract.sol\":3403:3453  endIndex >= startIndex && endIndex < klines.length */\n          swap1\n          dup2\n          tag_34\n          jumpi\n            /* \"contracts/IntervalContract.sol\":60:3831  contract IntervalContract {... */\n        tag_35:\n          pop\n          iszero\n          tag_36\n          jumpi\n          dup1\n          dup3\n          sub\n          swap2\n          dup3\n          gt\n          tag_55\n          jumpi\n          0x01\n          dup3\n          add\n          dup1\n          swap3\n          gt\n          tag_55\n          jumpi\n          tag_42\n          dup3\n          tag_10\n          jump\t// in\n        tag_42:\n          swap2\n          tag_43\n          mload(0x40)\n          swap4\n          dup5\n          tag_4\n          jump\t// in\n        tag_43:\n          dup1\n          dup4\n          mstore\n          not(0x1f)\n          tag_44\n          dup3\n          tag_10\n          jump\t// in\n        tag_44:\n          add\n          0x00\n        tag_45:\n          dup2\n          dup2\n          lt\n          tag_46\n          jumpi\n            /* \"contracts/IntervalContract.sol\":3600:3613  uint256 i = 0 */\n          pop\n          pop\n            /* \"contracts/IntervalContract.sol\":60:3831  contract IntervalContract {... */\n          0x00\n            /* \"contracts/IntervalContract.sol\":3615:3625  i < length */\n        tag_48:\n          dup2\n          dup2\n          lt\n          tag_49\n          jumpi\n            /* \"contracts/IntervalContract.sol\":60:3831  contract IntervalContract {... */\n          dup4\n          mload(0x40)\n          dup1\n          swap2\n          0x20\n          dup3\n          add\n          0x20\n          dup4\n          mstore\n          dup2\n          mload\n          dup1\n          swap2\n          mstore\n          0x40\n          dup4\n          add\n          swap1\n          0x20\n          0x40\n          dup3\n          0x05\n          shl\n          dup7\n          add\n          add\n          swap4\n          add\n          swap2\n          0x00\n          swap1\n        tag_51:\n          dup3\n          dup3\n          lt\n          tag_52\n          jumpi\n          pop\n          pop\n          pop\n          pop\n          sub\n          swap1\n          return\n        tag_52:\n          swap2\n          swap4\n          0x01\n          swap2\n          swap4\n          swap6\n          pop\n          0x20\n          dup1\n          swap2\n          not(0x3f)\n          dup10\n          dup3\n          sub\n          add\n          dup6\n          mstore\n          dup8\n          mload\n          swap1\n          dup2\n          mload\n          dup2\n          mstore\n          dup3\n          dup3\n          add\n          mload\n          dup4\n          dup3\n          add\n          mstore\n          0x01c0\n          dup1\n          tag_54\n          0x40\n          dup6\n          add\n          mload\n          0x01e0\n          0x40\n          dup7\n          add\n          mstore\n          0x01e0\n          dup6\n          add\n          swap1\n          tag_6\n          jump\t// in\n        tag_54:\n          swap4\n          0x60\n          dup2\n          add\n          mload\n          0x60\n          dup6\n          add\n          mstore\n          0x80\n          dup2\n          add\n          mload\n          0x80\n          dup6\n          add\n          mstore\n          0xa0\n          dup2\n          add\n          mload\n          0xa0\n          dup6\n          add\n          mstore\n          0xc0\n          dup2\n          add\n          mload\n          0xc0\n          dup6\n          add\n          mstore\n          0xe0\n          dup2\n          add\n          mload\n          0xe0\n          dup6\n          add\n          mstore\n          0x0100\n          dup2\n          add\n          mload\n          0x0100\n          dup6\n          add\n          mstore\n          0x0120\n          dup2\n          add\n          mload\n          0x0120\n          dup6\n          add\n          mstore\n          0x0140\n          dup2\n          add\n          mload\n          0x0140\n          dup6\n          add\n          mstore\n          0x0160\n          dup2\n          add\n          mload\n          iszero\n          iszero\n          0x0160\n          dup6\n          add\n          mstore\n          0x0180\n          dup2\n          add\n          mload\n          0x0180\n          dup6\n          add\n          mstore\n          0x01a0\n          dup2\n          add\n          mload\n          0x01a0\n          dup6\n          add\n          mstore\n          add\n          mload\n          swap2\n          add\n          mstore\n          swap7\n          add\n          swap3\n          add\n          swap3\n          add\n          dup6\n          swap5\n          swap4\n          swap2\n          swap3\n          jump(tag_51)\n            /* \"contracts/IntervalContract.sol\":3627:3630  i++ */\n        tag_49:\n            /* \"contracts/IntervalContract.sol\":60:3831  contract IntervalContract {... */\n          dup1\n          dup4\n          add\n          swap1\n          dup2\n          dup5\n          gt\n          tag_55\n          jumpi\n            /* \"contracts/IntervalContract.sol\":3659:3681  klines[startIndex + i] */\n          tag_57\n            /* \"contracts/IntervalContract.sol\":60:3831  contract IntervalContract {... */\n          0x01\n            /* \"contracts/IntervalContract.sol\":3659:3681  klines[startIndex + i] */\n          swap3\n          tag_1\n          jump\t// in\n        tag_57:\n            /* \"contracts/IntervalContract.sol\":60:3831  contract IntervalContract {... */\n          pop\n          0x0e\n          mload(0x40)\n          swap2\n          tag_58\n          dup4\n          tag_3\n          jump\t// in\n        tag_58:\n          dup1\n          sload\n          dup4\n          mstore\n          dup5\n          dup2\n          add\n          sload\n          0x20\n          dup5\n          add\n          mstore\n          tag_59\n          0x02\n          dup3\n          add\n          tag_5\n          jump\t// in\n        tag_59:\n          0x40\n          dup5\n          add\n          mstore\n          0x03\n          dup2\n          add\n          sload\n          0x60\n          dup5\n          add\n          mstore\n          0x04\n          dup2\n          add\n          sload\n          0x80\n          dup5\n          add\n          mstore\n          0x05\n          dup2\n          add\n          sload\n          0xa0\n          dup5\n          add\n          mstore\n          0x06\n          dup2\n          add\n          sload\n          0xc0\n          dup5\n          add\n          mstore\n          0x07\n          dup2\n          add\n          sload\n          0xe0\n          dup5\n          add\n          mstore\n          0x08\n          dup2\n          add\n          sload\n          0x0100\n          dup5\n          add\n          mstore\n          0x09\n          dup2\n          add\n          sload\n          0x0120\n          dup5\n          add\n          mstore\n          0x0a\n          dup2\n          add\n          sload\n          0x0140\n          dup5\n          add\n          mstore\n          0xff\n          0x0b\n          dup3\n          add\n          sload\n          and\n          iszero\n          iszero\n          0x0160\n          dup5\n          add\n          mstore\n          0x0c\n          dup2\n          add\n          sload\n          0x0180\n          dup5\n          add\n          mstore\n          0x0d\n          dup2\n          add\n          sload\n          0x01a0\n          dup5\n          add\n          mstore\n          add\n          sload\n          0x01c0\n          dup3\n          add\n          mstore\n            /* \"contracts/IntervalContract.sol\":3647:3681  result[i] = klines[startIndex + i] */\n          tag_60\n          dup3\n          dup8\n          tag_11\n          jump\t// in\n        tag_60:\n          mstore\n          tag_61\n          dup2\n          dup7\n          tag_11\n          jump\t// in\n        tag_61:\n          pop\n            /* \"contracts/IntervalContract.sol\":60:3831  contract IntervalContract {... */\n          add\n            /* \"contracts/IntervalContract.sol\":3600:3613  uint256 i = 0 */\n          jump(tag_48)\n            /* \"contracts/IntervalContract.sol\":60:3831  contract IntervalContract {... */\n        tag_55:\n          mstore(0x00, shl(0xe0, 0x4e487b71))\n          mstore(0x04, 0x11)\n          revert(0x00, 0x24)\n        tag_46:\n          0x20\n          swap1\n          mload(0x40)\n          tag_62\n          dup2\n          tag_3\n          jump\t// in\n        tag_62:\n          0x00\n          dup2\n          mstore\n          0x00\n          dup4\n          dup3\n          add\n          mstore\n          0x60\n          0x40\n          dup3\n          add\n          mstore\n          0x00\n          0x60\n          dup3\n          add\n          mstore\n          0x00\n          0x80\n          dup3\n          add\n          mstore\n          0x00\n          0xa0\n          dup3\n          add\n          mstore\n          0x00\n          0xc0\n          dup3\n          add\n          mstore\n          0x00\n          0xe0\n          dup3\n          add\n          mstore\n          0x00\n          0x0100\n          dup3\n          add\n          mstore\n          0x00\n          0x0120\n          dup3\n          add\n          mstore\n          0x00\n          0x0140\n          dup3\n          add\n          mstore\n          0x00\n          0x0160\n          dup3\n          add\n          mstore\n          0x00\n          0x0180\n          dup3\n          add\n          mstore\n          0x00\n          0x01a0\n          dup3\n          add\n          mstore\n          0x00\n          0x01c0\n          dup3\n          add\n          mstore\n          dup3\n          dup3\n          dup9\n          add\n          add\n          mstore\n          add\n          jump(tag_45)\n        tag_36:\n          mload(0x40)\n          shl(0xe5, 0x461bcd)\n          dup2\n          mstore\n          0x20\n          0x04\n          dup3\n          add\n          mstore\n          0x11\n          0x24\n          dup3\n          add\n          mstore\n          shl(0x7b, 0x092dcecc2d8d2c840cadcc840d2dcc8caf)\n          0x44\n          dup3\n          add\n          mstore\n          0x64\n          swap1\n          revert\n            /* \"contracts/IntervalContract.sol\":3403:3453  endIndex >= startIndex && endIndex < klines.length */\n        tag_34:\n            /* \"contracts/IntervalContract.sol\":3429:3453  endIndex < klines.length */\n          swap1\n          pop\n          dup3\n          lt\n            /* \"contracts/IntervalContract.sol\":3403:3453  endIndex >= startIndex && endIndex < klines.length */\n          0x00\n          jump(tag_35)\n            /* \"contracts/IntervalContract.sol\":60:3831  contract IntervalContract {... */\n        tag_32:\n          mload(0x40)\n          shl(0xe5, 0x461bcd)\n          dup2\n          mstore\n          0x20\n          0x04\n          dup3\n          add\n          mstore\n          0x13\n          0x24\n          dup3\n          add\n          mstore\n          shl(0x6b, 0x092dcecc2d8d2c840e6e8c2e4e840d2dcc8caf)\n          0x44\n          dup3\n          add\n          mstore\n          0x64\n          swap1\n          revert\n        tag_30:\n          0x00\n          dup1\n          revert\n        tag_24:\n          jumpi(tag_30, callvalue)\n          jumpi(tag_30, slt(add(not(0x03), calldatasize), 0x00))\n          sload(0x01)\n          mload(0x40)\n          sub(shl(0xa0, 0x01), 0x01)\n          swap1\n          swap2\n          and\n          dup2\n          mstore\n          0x20\n          swap1\n          return\n        tag_22:\n          jumpi(tag_30, callvalue)\n          jumpi(tag_30, slt(add(not(0x03), calldatasize), 0x20))\n          calldataload(0x04)\n          0xffffffffffffffff\n          dup2\n          gt\n          tag_30\n          jumpi\n          0x0200\n          not(0x03)\n          dup3\n          calldatasize\n          sub\n          add\n          slt\n          tag_30\n          jumpi\n          and(sub(shl(0xa0, 0x01), 0x01), sload(0x01))\n            /* \"contracts/IntervalContract.sol\":1960:1970  msg.sender */\n          caller\n            /* \"contracts/IntervalContract.sol\":1960:1981  msg.sender == factory */\n          sub\n            /* \"contracts/IntervalContract.sol\":60:3831  contract IntervalContract {... */\n          tag_75\n          jumpi\n            /* \"contracts/IntervalContract.sol\":2049:3175  function addKline(KlineInput calldata input) external onlyFactory returns (bool) {... */\n          tag_77\n            /* \"contracts/IntervalContract.sol\":60:3831  contract IntervalContract {... */\n          0x20\n          swap2\n          0x04\n          add\n            /* \"contracts/IntervalContract.sol\":2049:3175  function addKline(KlineInput calldata input) external onlyFactory returns (bool) {... */\n          tag_9\n          jump\t// in\n        tag_77:\n            /* \"contracts/IntervalContract.sol\":60:3831  contract IntervalContract {... */\n          mload(0x40)\n          swap1\n          iszero\n          iszero\n          dup2\n          mstore\n          return\n        tag_75:\n          mload(0x40)\n          shl(0xe5, 0x461bcd)\n          dup2\n          mstore\n          0x20\n          0x04\n          dup3\n          add\n          mstore\n          0x23\n          0x24\n          dup3\n          add\n          mstore\n          0x4f6e6c7920466163746f72792063616e2063616c6c20746869732066756e6374\n          0x44\n          dup3\n          add\n          mstore\n          shl(0xe9, 0x34b7b7)\n          0x64\n          dup3\n          add\n          mstore\n          0x84\n          swap1\n          revert\n        tag_20:\n          jumpi(tag_30, callvalue)\n          jumpi(tag_30, slt(add(not(0x03), calldatasize), 0x00))\n          mload(0x40)\n          0x00\n            /* \"contracts/IntervalContract.sol\":1772:1794  string public interval */\n          0x02\n            /* \"contracts/IntervalContract.sol\":60:3831  contract IntervalContract {... */\n          sload\n          tag_82\n          dup2\n          tag_2\n          jump\t// in\n        tag_82:\n          dup1\n          dup5\n          mstore\n          swap1\n          0x01\n          dup2\n          and\n          swap1\n          dup2\n          iszero\n          tag_83\n          jumpi\n          pop\n          0x01\n          eq\n          tag_85\n          jumpi\n        tag_86:\n          tag_87\n          dup4\n          tag_88\n          dup2\n          dup6\n          sub\n          dup3\n          tag_4\n          jump\t// in\n        tag_88:\n          mload(0x40)\n          swap2\n          dup3\n          swap2\n          0x20\n          dup4\n          mstore\n          0x20\n          dup4\n          add\n          swap1\n          tag_6\n          jump\t// in\n        tag_87:\n          sub\n          swap1\n          return\n        tag_85:\n            /* \"contracts/IntervalContract.sol\":1772:1794  string public interval */\n          0x02\n            /* \"contracts/IntervalContract.sol\":60:3831  contract IntervalContract {... */\n          0x00\n          swap1\n          dup2\n          mstore\n          0x405787fa12a823e0f2b7631cc41b3ba8828b3321ca811111fa75cd3aa3bb5ace\n          swap4\n          swap3\n          pop\n          swap1\n        tag_89:\n          dup1\n          dup3\n          lt\n          tag_90\n          jumpi\n          pop\n          swap1\n          swap2\n          pop\n          dup2\n          add\n          0x20\n          add\n          tag_88\n          jump(tag_86)\n        tag_90:\n          swap2\n          swap3\n          0x01\n          dup2\n          0x20\n          swap3\n          sload\n          dup4\n          dup6\n          dup9\n          add\n          add\n          mstore\n          add\n          swap2\n          add\n          swap1\n          swap3\n          swap2\n          jump(tag_89)\n        tag_83:\n          not(0xff)\n          and\n          0x20\n          dup1\n          dup7\n          add\n          swap2\n          swap1\n          swap2\n          mstore\n          swap2\n          iszero\n          iszero\n          0x05\n          shl\n          dup5\n          add\n          swap1\n          swap2\n          add\n          swap2\n          pop\n          tag_88\n          swap1\n          pop\n          jump(tag_86)\n        tag_18:\n          jumpi(tag_30, callvalue)\n          jumpi(tag_30, slt(add(not(0x03), calldatasize), 0x20))\n          calldataload(0x04)\n          sload(0x00)\n            /* \"contracts/IntervalContract.sol\":1625:1646  Kline[] public klines */\n          dup2\n          lt\n          iszero\n          tag_30\n          jumpi\n          tag_98\n          swap1\n          tag_1\n          jump\t// in\n        tag_98:\n          pop\n            /* \"contracts/IntervalContract.sol\":60:3831  contract IntervalContract {... */\n          dup1\n          sload\n          0x01\n            /* \"contracts/IntervalContract.sol\":1625:1646  Kline[] public klines */\n          dup3\n          add\n            /* \"contracts/IntervalContract.sol\":60:3831  contract IntervalContract {... */\n          sload\n          swap1\n            /* \"contracts/IntervalContract.sol\":1625:1646  Kline[] public klines */\n          tag_99\n          0x02\n          dup5\n          add\n          tag_5\n          jump\t// in\n        tag_99:\n          swap3\n          0x03\n          dup2\n          add\n            /* \"contracts/IntervalContract.sol\":60:3831  contract IntervalContract {... */\n          sload\n            /* \"contracts/IntervalContract.sol\":1625:1646  Kline[] public klines */\n          swap1\n            /* \"contracts/IntervalContract.sol\":60:3831  contract IntervalContract {... */\n          0x04\n            /* \"contracts/IntervalContract.sol\":1625:1646  Kline[] public klines */\n          dup2\n          add\n            /* \"contracts/IntervalContract.sol\":60:3831  contract IntervalContract {... */\n          sload\n            /* \"contracts/IntervalContract.sol\":1625:1646  Kline[] public klines */\n          0x05\n          dup3\n          add\n            /* \"contracts/IntervalContract.sol\":60:3831  contract IntervalContract {... */\n          sload\n            /* \"contracts/IntervalContract.sol\":1625:1646  Kline[] public klines */\n          0x06\n          dup4\n          add\n            /* \"contracts/IntervalContract.sol\":60:3831  contract IntervalContract {... */\n          sload\n            /* \"contracts/IntervalContract.sol\":1625:1646  Kline[] public klines */\n          0x07\n          dup5\n          add\n            /* \"contracts/IntervalContract.sol\":60:3831  contract IntervalContract {... */\n          sload\n            /* \"contracts/IntervalContract.sol\":1625:1646  Kline[] public klines */\n          0x08\n          dup6\n          add\n            /* \"contracts/IntervalContract.sol\":60:3831  contract IntervalContract {... */\n          sload\n            /* \"contracts/IntervalContract.sol\":1625:1646  Kline[] public klines */\n          0x09\n          dup7\n          add\n            /* \"contracts/IntervalContract.sol\":60:3831  contract IntervalContract {... */\n          sload\n            /* \"contracts/IntervalContract.sol\":1625:1646  Kline[] public klines */\n          swap2\n          0x0a\n          dup8\n          add\n            /* \"contracts/IntervalContract.sol\":60:3831  contract IntervalContract {... */\n          sload\n            /* \"contracts/IntervalContract.sol\":1625:1646  Kline[] public klines */\n          swap4\n          0x0b\n          dup9\n          add\n            /* \"contracts/IntervalContract.sol\":60:3831  contract IntervalContract {... */\n          sload\n          0xff\n          and\n            /* \"contracts/IntervalContract.sol\":1625:1646  Kline[] public klines */\n          swap6\n          0x0c\n          dup10\n          add\n            /* \"contracts/IntervalContract.sol\":60:3831  contract IntervalContract {... */\n          sload\n            /* \"contracts/IntervalContract.sol\":1625:1646  Kline[] public klines */\n          swap8\n          0x0d\n          dup11\n          add\n            /* \"contracts/IntervalContract.sol\":60:3831  contract IntervalContract {... */\n          sload\n            /* \"contracts/IntervalContract.sol\":1625:1646  Kline[] public klines */\n          swap10\n          0x0e\n          add\n            /* \"contracts/IntervalContract.sol\":60:3831  contract IntervalContract {... */\n          sload\n          swap11\n          mload(0x40)\n          swap15\n          dup16\n          swap15\n          dup16\n          swap15\n          dup16\n          swap1\n          dup2\n          mstore\n          0x20\n          add\n          mstore\n          dup14\n          0x40\n          dup2\n          add\n          0x01e0\n          swap1\n          mstore\n          0x01e0\n          add\n          tag_100\n          swap2\n          tag_6\n          jump\t// in\n        tag_100:\n          swap13\n          0x60\n          add\n          mstore\n          0x80\n          dup14\n          add\n          mstore\n          0xa0\n          dup13\n          add\n          mstore\n          0xc0\n          dup12\n          add\n          mstore\n          0xe0\n          dup11\n          add\n          mstore\n          0x0100\n          dup10\n          add\n          mstore\n          0x0120\n          dup9\n          add\n          mstore\n          0x0140\n          dup8\n          add\n          mstore\n          iszero\n          iszero\n          0x0160\n          dup7\n          add\n          mstore\n          0x0180\n          dup6\n          add\n          mstore\n          0x01a0\n          dup5\n          add\n          mstore\n          0x01c0\n          dup4\n          add\n          mstore\n          sub\n          swap1\n          return\n        tag_16:\n          jumpi(tag_30, callvalue)\n          jumpi(tag_30, slt(add(not(0x03), calldatasize), 0x00))\n          0x20\n          sload(0x00)\n          mload(0x40)\n          swap1\n          dup2\n          mstore\n          return\n        tag_14:\n          jumpi(tag_30, callvalue)\n          jumpi(tag_30, slt(add(not(0x03), calldatasize), 0x00))\n          dup1\n            /* \"contracts/IntervalContract.sol\":1690:1691  2 */\n          0x02\n            /* \"contracts/IntervalContract.sol\":60:3831  contract IntervalContract {... */\n          0x20\n          swap3\n          mstore\n          return\n        tag_1:\n          sload(0x00)\n          dup2\n          lt\n          iszero\n          tag_109\n          jumpi\n          0x00\n          dup1\n          dup1\n          mstore\n          0x0f\n          swap2\n          swap1\n          swap2\n          mul\n          0x290decd9548b62a8d60345a988386fc84ba6bc95484008f6362f93160ef3e563\n          add\n          swap2\n          jump\t// out\n        tag_109:\n          mstore(0x00, shl(0xe0, 0x4e487b71))\n          mstore(0x04, 0x32)\n          revert(0x00, 0x24)\n        tag_2:\n          swap1\n          0x01\n          dup3\n          dup2\n          shr\n          swap3\n          and\n          dup1\n          iszero\n          tag_111\n          jumpi\n        tag_112:\n          0x20\n          dup4\n          lt\n          eq\n          tag_113\n          jumpi\n          jump\t// out\n        tag_113:\n          mstore(0x00, shl(0xe0, 0x4e487b71))\n          mstore(0x04, 0x22)\n          revert(0x00, 0x24)\n        tag_111:\n          swap2\n          0x7f\n          and\n          swap2\n          jump(tag_112)\n        tag_3:\n          0x01e0\n          dup2\n          add\n          swap1\n          dup2\n          lt\n          0xffffffffffffffff\n          dup3\n          gt\n          or\n          tag_115\n          jumpi\n          0x40\n          mstore\n          jump\t// out\n        tag_115:\n          mstore(0x00, shl(0xe0, 0x4e487b71))\n          mstore(0x04, 0x41)\n          revert(0x00, 0x24)\n        tag_4:\n          swap1\n          0x1f\n          dup1\n          not\n          swap2\n          add\n          and\n          dup2\n          add\n          swap1\n          dup2\n          lt\n          0xffffffffffffffff\n          dup3\n          gt\n          or\n          tag_115\n          jumpi\n          0x40\n          mstore\n          jump\t// out\n        tag_5:\n          swap1\n          mload(0x40)\n          swap2\n          dup3\n          0x00\n          dup3\n          sload\n          swap3\n          tag_119\n          dup5\n          tag_2\n          jump\t// in\n        tag_119:\n          dup1\n          dup5\n          mstore\n          swap4\n          0x01\n          dup2\n          and\n          swap1\n          dup2\n          iszero\n          tag_120\n          jumpi\n          pop\n          0x01\n          eq\n          tag_122\n          jumpi\n        tag_123:\n          pop\n          tag_124\n          swap3\n          pop\n          sub\n          dup4\n          tag_4\n          jump\t// in\n        tag_124:\n          jump\t// out\n        tag_122:\n          swap1\n          pop\n          0x00\n          swap3\n          swap2\n          swap3\n          mstore\n          keccak256(0x00, 0x20)\n          swap1\n          0x00\n          swap2\n        tag_125:\n          dup2\n          dup4\n          lt\n          tag_126\n          jumpi\n          pop\n          pop\n          swap1\n          0x20\n          tag_124\n          swap3\n          dup3\n          add\n          add\n          0x00\n          jump(tag_123)\n        tag_126:\n          0x20\n          swap2\n          swap4\n          pop\n          dup1\n          0x01\n          swap2\n          sload\n          dup4\n          dup6\n          dup10\n          add\n          add\n          mstore\n          add\n          swap2\n          add\n          swap1\n          swap2\n          dup5\n          swap3\n          jump(tag_125)\n        tag_120:\n          swap1\n          pop\n          0x20\n          swap3\n          pop\n          tag_124\n          swap5\n          swap2\n          pop\n          not(0xff)\n          and\n          dup3\n          dup5\n          add\n          mstore\n          iszero\n          iszero\n          0x05\n          shl\n          dup3\n          add\n          add\n          0x00\n          jump(tag_123)\n        tag_6:\n          dup1\n          mload\n          dup1\n          dup4\n          mstore\n          0x20\n          swap3\n          swap2\n          dup2\n          swap1\n          dup5\n          add\n          dup5\n          dup5\n          add\n          mcopy\n          0x00\n          dup3\n          dup3\n          add\n          dup5\n          add\n          mstore\n          0x1f\n          add\n          not(0x1f)\n          and\n          add\n          add\n          swap1\n          jump\t// out\n        tag_7:\n          swap1\n          calldataload\n          swap1\n          not(0x1e)\n          dup2\n          calldatasize\n          sub\n          add\n          dup3\n          slt\n          iszero\n          tag_30\n          jumpi\n          add\n          dup1\n          calldataload\n          swap1\n          0xffffffffffffffff\n          dup3\n          gt\n          tag_30\n          jumpi\n          0x20\n          add\n          swap2\n          dup2\n          calldatasize\n          sub\n          dup4\n          sgt\n          tag_30\n          jumpi\n          jump\t// out\n        tag_8:\n          swap3\n          swap2\n          swap3\n          0xffffffffffffffff\n          dup3\n          gt\n          tag_115\n          jumpi\n          mload(0x40)\n          swap2\n          tag_136\n          0x1f\n          dup3\n          add\n          not(0x1f)\n          and\n          0x20\n          add\n          dup5\n          tag_4\n          jump\t// in\n        tag_136:\n          dup3\n          swap5\n          dup2\n          dup5\n          mstore\n          dup2\n          dup4\n          add\n          gt\n          tag_30\n          jumpi\n          dup3\n          dup2\n          0x20\n          swap4\n          dup5\n          0x00\n          swap7\n          add\n          calldatacopy\n          add\n          add\n          mstore\n          jump\t// out\n            /* \"contracts/IntervalContract.sol\":2049:3175  function addKline(KlineInput calldata input) external onlyFactory returns (bool) {... */\n        tag_9:\n            /* \"contracts/IntervalContract.sol\":60:3831  contract IntervalContract {... */\n          tag_139\n            /* \"contracts/IntervalContract.sol\":2260:2274  input.interval */\n          tag_140\n          0x60\n          dup4\n          add\n          dup4\n          tag_7\n          jump\t// in\n        tag_140:\n            /* \"contracts/IntervalContract.sol\":60:3831  contract IntervalContract {... */\n          calldatasize\n          swap2\n          tag_8\n          jump\t// in\n        tag_139:\n          0x20\n          dup2\n          mload\n          swap2\n          add\n            /* \"contracts/IntervalContract.sol\":2244:2276  keccak256(bytes(input.interval)) */\n          keccak256\n            /* \"contracts/IntervalContract.sol\":60:3831  contract IntervalContract {... */\n          mload(0x40)\n          0x00\n          swap1\n            /* \"contracts/IntervalContract.sol\":2296:2304  interval */\n          0x02\n            /* \"contracts/IntervalContract.sol\":60:3831  contract IntervalContract {... */\n          sload\n          swap2\n          dup2\n          tag_141\n          dup5\n          tag_2\n          jump\t// in\n        tag_141:\n          swap2\n          dup3\n          dup3\n          mstore\n          0x20\n          dup3\n          add\n          swap5\n          0x01\n          dup2\n          and\n          swap1\n          dup2\n          0x00\n          eq\n          tag_142\n          jumpi\n          pop\n          0x01\n          eq\n          tag_144\n          jumpi\n        tag_145:\n          tag_146\n          swap3\n          pop\n          sub\n          dup3\n          tag_4\n          jump\t// in\n        tag_146:\n          mload\n            /* \"contracts/IntervalContract.sol\":2280:2306  keccak256(bytes(interval)) */\n          swap1\n          keccak256\n            /* \"contracts/IntervalContract.sol\":2244:2306  keccak256(bytes(input.interval)) == keccak256(bytes(interval)) */\n          sub\n            /* \"contracts/IntervalContract.sol\":60:3831  contract IntervalContract {... */\n          tag_147\n          jumpi\n          sload(0x00)\n            /* \"contracts/IntervalContract.sol\":2296:2304  interval */\n          0x02\n            /* \"contracts/IntervalContract.sol\":2396:2423  klines.length >= MAX_KLINES */\n          dup2\n          lt\n          iszero\n            /* \"contracts/IntervalContract.sol\":2392:2483  if (klines.length >= MAX_KLINES) {... */\n          tag_149\n          jumpi\n            /* \"contracts/IntervalContract.sol\":2622:2634  input.symbol */\n          tag_151\n            /* \"contracts/IntervalContract.sol\":60:3831  contract IntervalContract {... */\n          0x40\n            /* \"contracts/IntervalContract.sol\":2622:2634  input.symbol */\n          dup4\n          add\n          dup4\n          tag_7\n          jump\t// in\n        tag_151:\n            /* \"contracts/IntervalContract.sol\":2961:2975  input.isClosed */\n          swap3\n          swap1\n          swap2\n          0x0180\n          dup3\n          add\n            /* \"contracts/IntervalContract.sol\":60:3831  contract IntervalContract {... */\n          calldataload\n          swap2\n          dup3\n          iszero\n          iszero\n          dup1\n          swap4\n          sub\n          tag_30\n          jumpi\n            /* \"contracts/IntervalContract.sol\":3107:3132  input.takerBuyQuoteVolume */\n          0x01e0\n            /* \"contracts/IntervalContract.sol\":60:3831  contract IntervalContract {... */\n          swap1\n          tag_154\n          mload(0x40)\n          swap6\n          tag_155\n          dup8\n          tag_3\n          jump\t// in\n        tag_155:\n          dup3\n          calldataload\n          dup8\n          mstore\n          0x20\n            /* \"contracts/IntervalContract.sol\":2505:3144  Kline({... */\n          dup8\n          add\n            /* \"contracts/IntervalContract.sol\":2581:2599  input.endTimestamp */\n          swap8\n            /* \"contracts/IntervalContract.sol\":60:3831  contract IntervalContract {... */\n          0x20\n            /* \"contracts/IntervalContract.sol\":2581:2599  input.endTimestamp */\n          dup5\n          add\n            /* \"contracts/IntervalContract.sol\":60:3831  contract IntervalContract {... */\n          calldataload\n          dup10\n          mstore\n          calldatasize\n          swap2\n          tag_8\n          jump\t// in\n        tag_154:\n            /* \"contracts/IntervalContract.sol\":2505:3144  Kline({... */\n          swap4\n            /* \"contracts/IntervalContract.sol\":60:3831  contract IntervalContract {... */\n          0x40\n            /* \"contracts/IntervalContract.sol\":2505:3144  Kline({... */\n          dup7\n          add\n            /* \"contracts/IntervalContract.sol\":60:3831  contract IntervalContract {... */\n          swap5\n          dup6\n          mstore\n            /* \"contracts/IntervalContract.sol\":2663:2681  input.firstTradeId */\n          0x80\n          dup3\n          add\n            /* \"contracts/IntervalContract.sol\":60:3831  contract IntervalContract {... */\n          calldataload\n            /* \"contracts/IntervalContract.sol\":2260:2274  input.interval */\n          0x60\n            /* \"contracts/IntervalContract.sol\":2505:3144  Kline({... */\n          dup8\n          add\n            /* \"contracts/IntervalContract.sol\":60:3831  contract IntervalContract {... */\n          mstore\n            /* \"contracts/IntervalContract.sol\":2709:2726  input.lastTradeId */\n          0xa0\n          dup3\n          add\n            /* \"contracts/IntervalContract.sol\":60:3831  contract IntervalContract {... */\n          calldataload\n            /* \"contracts/IntervalContract.sol\":2663:2681  input.firstTradeId */\n          0x80\n            /* \"contracts/IntervalContract.sol\":2505:3144  Kline({... */\n          dup8\n          add\n            /* \"contracts/IntervalContract.sol\":60:3831  contract IntervalContract {... */\n          mstore\n            /* \"contracts/IntervalContract.sol\":2747:2757  input.open */\n          0xc0\n          dup3\n          add\n            /* \"contracts/IntervalContract.sol\":60:3831  contract IntervalContract {... */\n          calldataload\n            /* \"contracts/IntervalContract.sol\":2709:2726  input.lastTradeId */\n          0xa0\n            /* \"contracts/IntervalContract.sol\":2505:3144  Kline({... */\n          dup8\n          add\n            /* \"contracts/IntervalContract.sol\":60:3831  contract IntervalContract {... */\n          mstore\n            /* \"contracts/IntervalContract.sol\":2778:2788  input.high */\n          0xe0\n          dup3\n          add\n            /* \"contracts/IntervalContract.sol\":60:3831  contract IntervalContract {... */\n          calldataload\n            /* \"contracts/IntervalContract.sol\":2747:2757  input.open */\n          0xc0\n            /* \"contracts/IntervalContract.sol\":2505:3144  Kline({... */\n          dup8\n          add\n            /* \"contracts/IntervalContract.sol\":60:3831  contract IntervalContract {... */\n          mstore\n            /* \"contracts/IntervalContract.sol\":2808:2817  input.low */\n          0x0100\n          dup3\n          add\n            /* \"contracts/IntervalContract.sol\":60:3831  contract IntervalContract {... */\n          calldataload\n            /* \"contracts/IntervalContract.sol\":2778:2788  input.high */\n          0xe0\n            /* \"contracts/IntervalContract.sol\":2505:3144  Kline({... */\n          dup8\n          add\n            /* \"contracts/IntervalContract.sol\":60:3831  contract IntervalContract {... */\n          mstore\n            /* \"contracts/IntervalContract.sol\":2839:2850  input.close */\n          0x0120\n          dup3\n          add\n            /* \"contracts/IntervalContract.sol\":60:3831  contract IntervalContract {... */\n          calldataload\n            /* \"contracts/IntervalContract.sol\":2808:2817  input.low */\n          0x0100\n            /* \"contracts/IntervalContract.sol\":2505:3144  Kline({... */\n          dup8\n          add\n            /* \"contracts/IntervalContract.sol\":60:3831  contract IntervalContract {... */\n          mstore\n            /* \"contracts/IntervalContract.sol\":2873:2885  input.volume */\n          0x0140\n          dup3\n          add\n            /* \"contracts/IntervalContract.sol\":60:3831  contract IntervalContract {... */\n          calldataload\n            /* \"contracts/IntervalContract.sol\":2839:2850  input.close */\n          0x0120\n            /* \"contracts/IntervalContract.sol\":2505:3144  Kline({... */\n          dup8\n          add\n            /* \"contracts/IntervalContract.sol\":60:3831  contract IntervalContract {... */\n          mstore\n            /* \"contracts/IntervalContract.sol\":2916:2936  input.numberOfTrades */\n          0x0160\n          dup3\n          add\n            /* \"contracts/IntervalContract.sol\":60:3831  contract IntervalContract {... */\n          calldataload\n            /* \"contracts/IntervalContract.sol\":2873:2885  input.volume */\n          0x0140\n            /* \"contracts/IntervalContract.sol\":2505:3144  Kline({... */\n          dup8\n          add\n            /* \"contracts/IntervalContract.sol\":60:3831  contract IntervalContract {... */\n          mstore\n            /* \"contracts/IntervalContract.sol\":2916:2936  input.numberOfTrades */\n          0x0160\n            /* \"contracts/IntervalContract.sol\":2505:3144  Kline({... */\n          dup7\n          add\n            /* \"contracts/IntervalContract.sol\":60:3831  contract IntervalContract {... */\n          mstore\n            /* \"contracts/IntervalContract.sol\":3003:3020  input.quoteVolume */\n          0x01a0\n          dup2\n          add\n            /* \"contracts/IntervalContract.sol\":60:3831  contract IntervalContract {... */\n          calldataload\n            /* \"contracts/IntervalContract.sol\":2961:2975  input.isClosed */\n          0x0180\n            /* \"contracts/IntervalContract.sol\":2505:3144  Kline({... */\n          dup7\n          add\n            /* \"contracts/IntervalContract.sol\":60:3831  contract IntervalContract {... */\n          mstore\n            /* \"contracts/IntervalContract.sol\":3051:3071  input.takerBuyVolume */\n          0x01c0\n          dup2\n          add\n            /* \"contracts/IntervalContract.sol\":60:3831  contract IntervalContract {... */\n          calldataload\n            /* \"contracts/IntervalContract.sol\":3003:3020  input.quoteVolume */\n          0x01a0\n            /* \"contracts/IntervalContract.sol\":2505:3144  Kline({... */\n          dup7\n          add\n            /* \"contracts/IntervalContract.sol\":60:3831  contract IntervalContract {... */\n          mstore\n            /* \"contracts/IntervalContract.sol\":3107:3132  input.takerBuyQuoteVolume */\n          add\n            /* \"contracts/IntervalContract.sol\":60:3831  contract IntervalContract {... */\n          calldataload\n            /* \"contracts/IntervalContract.sol\":3051:3071  input.takerBuyVolume */\n          0x01c0\n            /* \"contracts/IntervalContract.sol\":2505:3144  Kline({... */\n          dup5\n          add\n            /* \"contracts/IntervalContract.sol\":60:3831  contract IntervalContract {... */\n          mstore\n          0x010000000000000000\n          dup2\n          lt\n          iszero\n          tag_115\n          jumpi\n          dup1\n          0x01\n          tag_158\n          swap3\n          add\n          0x00\n          sstore\n          tag_1\n          jump\t// in\n        tag_158:\n          swap4\n          swap1\n          swap4\n          tag_159\n          jumpi\n          dup3\n          mload\n          dup5\n          sstore\n          mload\n          0x01\n          dup5\n          add\n          sstore\n          mload\n          dup1\n          mload\n          swap1\n          0xffffffffffffffff\n          dup3\n          gt\n          tag_115\n          jumpi\n          tag_163\n            /* \"contracts/IntervalContract.sol\":2296:2304  interval */\n          0x02\n            /* \"contracts/IntervalContract.sol\":60:3831  contract IntervalContract {... */\n          dup6\n          add\n          sload\n          tag_2\n          jump\t// in\n        tag_163:\n          0x1f\n          dup2\n          gt\n          tag_164\n          jumpi\n        tag_165:\n          pop\n          0x20\n          swap1\n          0x1f\n          dup4\n          gt\n          0x01\n          eq\n          tag_166\n          jumpi\n          swap2\n          dup1\n          0x0e\n          swap5\n          swap3\n            /* \"contracts/IntervalContract.sol\":3051:3071  input.takerBuyVolume */\n          0x01c0\n            /* \"contracts/IntervalContract.sol\":60:3831  contract IntervalContract {... */\n          swap5\n          0x00\n          swap3\n          tag_168\n          jumpi\n        tag_169:\n          pop\n          pop\n          dup2\n          0x01\n          shl\n          swap2\n          not(0x00)\n          swap1\n          0x03\n          shl\n          shr\n          not\n          and\n          or\n            /* \"contracts/IntervalContract.sol\":2296:2304  interval */\n          0x02\n            /* \"contracts/IntervalContract.sol\":60:3831  contract IntervalContract {... */\n          dup6\n          add\n          sstore\n        tag_170:\n            /* \"contracts/IntervalContract.sol\":2260:2274  input.interval */\n          0x60\n            /* \"contracts/IntervalContract.sol\":2505:3144  Kline({... */\n          dup2\n          add\n            /* \"contracts/IntervalContract.sol\":60:3831  contract IntervalContract {... */\n          mload\n          0x03\n          dup6\n          add\n          sstore\n            /* \"contracts/IntervalContract.sol\":2663:2681  input.firstTradeId */\n          0x80\n            /* \"contracts/IntervalContract.sol\":2505:3144  Kline({... */\n          dup2\n          add\n            /* \"contracts/IntervalContract.sol\":60:3831  contract IntervalContract {... */\n          mload\n          0x04\n          dup6\n          add\n          sstore\n            /* \"contracts/IntervalContract.sol\":2709:2726  input.lastTradeId */\n          0xa0\n            /* \"contracts/IntervalContract.sol\":2505:3144  Kline({... */\n          dup2\n          add\n            /* \"contracts/IntervalContract.sol\":60:3831  contract IntervalContract {... */\n          mload\n          0x05\n          dup6\n          add\n          sstore\n            /* \"contracts/IntervalContract.sol\":2747:2757  input.open */\n          0xc0\n            /* \"contracts/IntervalContract.sol\":2505:3144  Kline({... */\n          dup2\n          add\n            /* \"contracts/IntervalContract.sol\":60:3831  contract IntervalContract {... */\n          mload\n          0x06\n          dup6\n          add\n          sstore\n            /* \"contracts/IntervalContract.sol\":2778:2788  input.high */\n          0xe0\n            /* \"contracts/IntervalContract.sol\":2505:3144  Kline({... */\n          dup2\n          add\n            /* \"contracts/IntervalContract.sol\":60:3831  contract IntervalContract {... */\n          mload\n          0x07\n          dup6\n          add\n          sstore\n            /* \"contracts/IntervalContract.sol\":2808:2817  input.low */\n          0x0100\n            /* \"contracts/IntervalContract.sol\":2505:3144  Kline({... */\n          dup2\n          add\n            /* \"contracts/IntervalContract.sol\":60:3831  contract IntervalContract {... */\n          mload\n          0x08\n          dup6\n          add\n          sstore\n            /* \"contracts/IntervalContract.sol\":2839:2850  input.close */\n          0x0120\n            /* \"contracts/IntervalContract.sol\":2505:3144  Kline({... */\n          dup2\n          add\n            /* \"contracts/IntervalContract.sol\":60:3831  contract IntervalContract {... */\n          mload\n          0x09\n          dup6\n          add\n          sstore\n            /* \"contracts/IntervalContract.sol\":2873:2885  input.volume */\n          0x0140\n            /* \"contracts/IntervalContract.sol\":2505:3144  Kline({... */\n          dup2\n          add\n            /* \"contracts/IntervalContract.sol\":60:3831  contract IntervalContract {... */\n          mload\n          0x0a\n          dup6\n          add\n          sstore\n          0x0b\n          dup5\n          add\n            /* \"contracts/IntervalContract.sol\":2916:2936  input.numberOfTrades */\n          0x0160\n            /* \"contracts/IntervalContract.sol\":2505:3144  Kline({... */\n          dup3\n          add\n            /* \"contracts/IntervalContract.sol\":60:3831  contract IntervalContract {... */\n          mload\n          iszero\n          iszero\n          0xff\n          dup1\n          not\n          dup4\n          sload\n          and\n          swap2\n          and\n          or\n          swap1\n          sstore\n            /* \"contracts/IntervalContract.sol\":2961:2975  input.isClosed */\n          0x0180\n            /* \"contracts/IntervalContract.sol\":2505:3144  Kline({... */\n          dup2\n          add\n            /* \"contracts/IntervalContract.sol\":60:3831  contract IntervalContract {... */\n          mload\n          0x0c\n          dup6\n          add\n          sstore\n            /* \"contracts/IntervalContract.sol\":3003:3020  input.quoteVolume */\n          0x01a0\n            /* \"contracts/IntervalContract.sol\":2505:3144  Kline({... */\n          dup2\n          add\n            /* \"contracts/IntervalContract.sol\":60:3831  contract IntervalContract {... */\n          mload\n          0x0d\n          dup6\n          add\n          sstore\n            /* \"contracts/IntervalContract.sol\":2505:3144  Kline({... */\n          add\n            /* \"contracts/IntervalContract.sol\":60:3831  contract IntervalContract {... */\n          mload\n          swap2\n          add\n          sstore\n          0x01\n            /* \"contracts/IntervalContract.sol\":2049:3175  function addKline(KlineInput calldata input) external onlyFactory returns (bool) {... */\n          swap1\n          jump\t// out\n            /* \"contracts/IntervalContract.sol\":60:3831  contract IntervalContract {... */\n        tag_168:\n          add\n          mload\n          swap1\n          pop\n          0x00\n          dup1\n          jump(tag_169)\n        tag_166:\n          swap1\n            /* \"contracts/IntervalContract.sol\":2296:2304  interval */\n          0x02\n            /* \"contracts/IntervalContract.sol\":60:3831  contract IntervalContract {... */\n          dup6\n          add\n          0x00\n          mstore\n          dup1\n          0x00\n          keccak256\n          swap2\n          0x00\n        tag_171:\n          not(0x1f)\n          dup6\n          and\n          dup2\n          lt\n          tag_172\n          jumpi\n          pop\n          swap3\n          0x0e\n          swap5\n          swap3\n          0x01\n          swap3\n            /* \"contracts/IntervalContract.sol\":3051:3071  input.takerBuyVolume */\n          0x01c0\n            /* \"contracts/IntervalContract.sol\":60:3831  contract IntervalContract {... */\n          swap6\n          dup4\n          not(0x1f)\n          dup2\n          and\n          lt\n          tag_174\n          jumpi\n        tag_175:\n          pop\n          pop\n          pop\n          dup2\n          shl\n          add\n            /* \"contracts/IntervalContract.sol\":2296:2304  interval */\n          0x02\n            /* \"contracts/IntervalContract.sol\":60:3831  contract IntervalContract {... */\n          dup6\n          add\n          sstore\n          jump(tag_170)\n        tag_174:\n          add\n          mload\n          not(0x00)\n          0xf8\n          dup5\n          0x03\n          shl\n          and\n          shr\n          not\n          and\n          swap1\n          sstore\n          0x00\n          dup1\n          dup1\n          jump(tag_175)\n        tag_172:\n          swap2\n          swap3\n          0x20\n          0x01\n          dup2\n          swap3\n          dup7\n          dup6\n          add\n          mload\n          dup2\n          sstore\n          add\n          swap5\n          add\n          swap3\n          add\n          jump(tag_171)\n        tag_164:\n            /* \"contracts/IntervalContract.sol\":2296:2304  interval */\n          0x02\n            /* \"contracts/IntervalContract.sol\":60:3831  contract IntervalContract {... */\n          dup6\n          add\n          0x00\n          mstore\n          keccak256(0x00, 0x20)\n          0x1f\n          dup5\n          add\n          0x05\n          shr\n          dup2\n          add\n          swap2\n          0x20\n          dup6\n          lt\n          tag_176\n          jumpi\n        tag_177:\n          0x1f\n          add\n          0x05\n          shr\n          add\n          swap1\n        tag_178:\n          dup2\n          dup2\n          lt\n          tag_179\n          jumpi\n          pop\n          jump(tag_165)\n        tag_179:\n          0x00\n          dup2\n          sstore\n          0x01\n          add\n          jump(tag_178)\n        tag_176:\n          swap1\n          swap2\n          pop\n          dup2\n          swap1\n          jump(tag_177)\n        tag_159:\n          mstore(0x00, shl(0xe0, 0x4e487b71))\n          mstore(0x04, 0x00)\n          revert(0x00, 0x24)\n            /* \"contracts/IntervalContract.sol\":2392:2483  if (klines.length >= MAX_KLINES) {... */\n        tag_149:\n            /* \"contracts/IntervalContract.sol\":2440:2452  return false */\n          pop\n          pop\n          0x00\n          swap1\n          jump\t// out\n            /* \"contracts/IntervalContract.sol\":60:3831  contract IntervalContract {... */\n        tag_147:\n          mload(0x40)\n          shl(0xe5, 0x461bcd)\n          dup2\n          mstore\n          0x20\n          0x04\n          dup3\n          add\n          mstore\n          0x2f\n          0x24\n          dup3\n          add\n          mstore\n          0x4b6c696e6520696e74657276616c20646f6573206e6f74206d6174636820636f\n          0x44\n          dup3\n          add\n          mstore\n          shl(0x8a, 0x1b9d1c9858dd081a5b9d195c9d985b)\n          0x64\n          dup3\n          add\n          mstore\n          0x84\n          swap1\n          revert\n        tag_144:\n          pop\n          swap1\n            /* \"contracts/IntervalContract.sol\":2296:2304  interval */\n          0x02\n          0x00\n            /* \"contracts/IntervalContract.sol\":60:3831  contract IntervalContract {... */\n          mstore\n          0x405787fa12a823e0f2b7631cc41b3ba8828b3321ca811111fa75cd3aa3bb5ace\n          swap1\n          0x00\n          swap2\n        tag_181:\n          dup2\n          dup4\n          lt\n          tag_182\n          jumpi\n          pop\n          pop\n          swap1\n          0x20\n          tag_146\n          swap3\n          dup3\n          add\n          add\n          jump(tag_145)\n        tag_182:\n          0x20\n          swap2\n          swap4\n          pop\n          dup1\n          0x01\n          swap2\n          sload\n          dup4\n          dup6\n          dup9\n          add\n          add\n          mstore\n          add\n          swap2\n          add\n          swap1\n          swap2\n          dup4\n          swap3\n          jump(tag_181)\n        tag_142:\n          not(0xff)\n          and\n          dup7\n          mstore\n          pop\n          tag_146\n          swap3\n          iszero\n          iszero\n          0x05\n          shl\n          dup3\n          add\n          0x20\n          add\n          swap1\n          pop\n          jump(tag_145)\n        tag_10:\n          0xffffffffffffffff\n          dup2\n          gt\n          tag_115\n          jumpi\n          0x05\n          shl\n          0x20\n          add\n          swap1\n          jump\t// out\n        tag_11:\n          dup1\n          mload\n          dup3\n          lt\n          iszero\n          tag_109\n          jumpi\n          0x20\n          swap2\n          0x05\n          shl\n          add\n          add\n          swap1\n          jump\t// out\n\n        auxdata: 0xa26469706673582212208c225f9c1fa1d040cd4ad45d93c82c4c8bfdefd4ef56e1f711343fcd159cbb5864736f6c634300081e0033\n    }\n}\n",
				"bytecode": {
					"linkReferences": {},
					"object": "6080604052346104115761344e8038038061001981610415565b928339810190602081830312610411578051906001600160401b03821161041157019080601f83011215610411578151916001600160401b03831161029b578260051b60208061006a818401610415565b809681520191830101918383116104115760208101915b8383106103a0576124cd86610f815f5b8251811015610391576100a4818461043a565b516001546801000000000000000081101561029b5760018101806001558110156102875760015f5281517fb10e2d527612073b26eecdfd717e6a320cf44b4afac2b0732d9fcbe2b7fa0cf691909101916001600160401b03821161029b57825490600182811c92168015610387575b60208310146103735781601f849311610328575b50602090601f83116001146102c5575f926102ba575b50508160011b915f199060031b1c19161790555b61015b818461043a565b516040519091908381016001600160401b0381118282101761029b5761018c60208392878a8539818152018561044e565b03905ff080156102af57604051602081855180838801835e5f90820190815203019020604051936001600160a01b0390921691606085016001600160401b0381118682101761029b57604052828552602085019242845260408601955f87528354936801000000000000000085101561029b5760018501808255851015610287576001977ff8fc7b546285327f0096673f943d0b65dc7436f2818b7daa763c532348a73dea96610278966002935f52600360205f20910201938a8060a01b039051168a8060a01b031985541617845551898401555191015560405192839260408452604084019061044e565b9060208301520390a101610091565b634e487b7160e01b5f52603260045260245ffd5b634e487b7160e01b5f52604160045260245ffd5b6040513d5f823e3d90fd5b01519050878061013d565b5f8581528281209350601f198516905b81811061031057509084600195949392106102f8575b505050811b019055610151565b01515f1960f88460031b161c191690558780806102eb565b828401518555600190940193602093840193016102d5565b909150835f5260205f20601f840160051c81019160208510610369575b601f0160051c01905b81811061035e5783929150610127565b5f815560010161034e565b9091508190610345565b634e487b7160e01b5f52602260045260245ffd5b91607f1691610113565b60405161205a90816104738239f35b82516001600160401b03811161041157820185603f82011215610411576020810151916001600160401b03831161029b576103e4601f8401601f1916602001610415565b8381526040838501018810610411575f602085819660408397018386015e83010152815201920191610081565b5f80fd5b6040519190601f01601f191682016001600160401b0381118382101761029b57604052565b80518210156102875760209160051b010190565b805180835260209291819084018484015e5f828201840152601f01601f191601019056fe60806040526004361015610011575f80fd5b5f3560e01c8063328ffd1114610be8578063492bd27614610b035780634bbc3aeb14610a78578063be21e6c3146107275763f9a284eb14610050575f80fd5b34610198576060366003190112610198576004356001600160401b03811161019857610080903690600401610de9565b6024359060208060443592604051928184925191829101835e81015f81520301902080546100ad81610e34565b916100bb6040519384610c87565b81835260208301905f5260205f205f915b8383106106e957505050506100e381511515610e4b565b82151591826106de575b5f935f5b83518110156101fd57841580156101af575b610110575b6001016100f1565b94600460206001600160a01b036101278988610fde565b5151166040519283809263245d72c960e11b82525afa9081156101a4575f9161016f575b50810180911161015b5794610108565b634e487b7160e01b5f52601160045260245ffd5b90506020813d821161019c575b8161018960209383610c87565b8101031261019857515f61014b565b5f80fd5b3d915061017c565b6040513d5f823e3d90fd5b5060406101bc8286610fde565b5101511580156101e5575b801561010357508260206101db8387610fde565b5101511115610103565b508160406101f38387610fde565b51015110156101c7565b50909361020990610ff2565b915f945f5b825181101561059257851580158181610544575b610231575b505060010161020e565b6001600160a01b036102438487610fde565b5151169160405163245d72c960e11b8152602081600481875afa9081156101a4575f91610513575b5080610279575b5050610227565b5f99919397949996929619810190811161015b575f906044604051809a8193633eeb457760e21b835285600484015260248301525afa9687156101a4575f9761034e575b505f5b875181101561033b578387610310575b6102dd575b6001016102c0565b996102e88b89610fde565b516102f3828b610fde565b526102fe818a610fde565b505f19811461015b57600101996102d5565b508461031c828a610fde565b5151101580156102d0575085610332828a610fde565b515111156102d0565b50979295509350600190505f8080610272565b9096503d805f833e6103608183610c87565b810190602081830312610198578051906001600160401b03821161019857019080601f830112156101985781519161039783610e34565b926103a56040519485610c87565b80845260208085019160051b830101918383116101985760208101915b8383106103d5575050505050955f6102bd565b82516001600160401b038111610198578201906101e0828703601f190112610198576040519061040482610c6b565b602083015182526040830151602083015260608301516001600160401b038111610198576020908401019187601f840112156101985782519261044684610d98565b946104546040519687610c87565b8486528960208684010111610198576020955f87878198826101e097018386015e8301015260408401526080810151606084015260a0810151608084015260c081015160a084015260e081015160c084015261010081015160e08401526101208101516101008401526101408101516101208401526101608101516101408401526104e26101808201610e90565b6101608401526101a08101516101808401526101c08101516101a084015201516101c08201528152019201916103c2565b90506020813d821161053c575b8161052d60209383610c87565b8101031261019857515f61026b565b3d9150610520565b5060406105518487610fde565b51015115801561057a575b801561022257508360206105708588610fde565b5101511115610222565b508560406105888588610fde565b510151101561055c565b848761059d81610ff2565b915f5b8281106106b457836040518091602082016020835281518091526040830190602060408260051b8601019301915f905b8282106105df57505050500390f35b919360019193955060208091603f198982030185528751908151815282820151838201526101c08061062260408501516101e060408601526101e0850190610d74565b93606081015160608501526080810151608085015260a081015160a085015260c081015160c085015260e081015160e085015261010081015161010085015261012081015161012085015261014081015161014085015261016081015115156101608501526101808101516101808501526101a08101516101a0850152015191015296019201920185949391926105d0565b806106c160019284610fde565b516106cc8287610fde565b526106d78186610fde565b50016105a0565b8381101592506100ed565b600360206001926040516106fc81610c50565b848060a01b0386541681528486015483820152600286015460408201528152019201920191906100cc565b34610198576040366003190112610198576004356001600160401b03811161019857610757903690600401610de9565b6024356001600160401b03811161019857806004018136036102006003198201126101985760405192845193602081818801968088835e81015f815203019020918254916107a6831515610e4b565b6064810135916022190182121561019857016004810135906001600160401b038211610198576024018136038113610198576107e3913691610db3565b602081519101208551852003610a33575f19810190811161015b5761080791610e07565b50805460405163c3e3bfe560e01b81529060209082906001600160a01b0316815f816108368960048301610eee565b03925af19081156101a4575f916109f9575b501561085057005b600242910155604051610f818082018281106001600160401b038211176109e55760206108889184936110a485398181520186610d74565b03905ff09182156101a4576020604051809286518091835e81015f8152030190209160018060a01b0316604051916108bf83610c50565b818352602083019342855260408401905f82528054680100000000000000008110156109e5576108f491600182018155610e07565b9590956109d2575f9660209660027ff8fc7b546285327f0096673f943d0b65dc7436f2818b7daa763c532348a73dea9461096a9461098e9960018060a01b039051166bffffffffffffffffffffffff60a01b85541617845551600184015551910155604051918291604083526040830190610d74565b85888301520390a160405194858094819363c3e3bfe560e01b835260048301610eee565b03925af180156101a45761099e57005b6020813d6020116109ca575b816109b760209383610c87565b81010312610198576109c890610e90565b005b3d91506109aa565b634e487b7160e01b5f525f60045260245ffd5b634e487b7160e01b5f52604160045260245ffd5b90506020813d602011610a2b575b81610a1460209383610c87565b8101031261019857610a2590610e90565b85610848565b3d9150610a07565b60405162461bcd60e51b815260206004820152601d60248201527f4b6c696e6520696e74657276616c20646f6573206e6f74206d617463680000006044820152606490fd5b34610198576040366003190112610198576004356001600160401b03811161019857610aa8903690600401610de9565b604051815160243592602091839181908401835e81015f815203019020805482101561019857606091610ada91610e07565b5060018060a01b0381541690600260018201549101549060405192835260208301526040820152f35b34610198575f36600319011261019857600154610b1f81610e34565b90610b2d6040519283610c87565b80825260208201908160015f527fb10e2d527612073b26eecdfd717e6a320cf44b4afac2b0732d9fcbe2b7fa0cf65f915b838310610bcb57848660405191829160208301906020845251809152604083019060408160051b85010192915f905b828210610b9c57505050500390f35b91936001919395506020610bbb8192603f198a82030186528851610d74565b9601920192018594939192610b8d565b600160208192610bda85610ca8565b815201920192019190610b5e565b346101985760203660031901126101985760043560015481101561019857610c38610c4c9160015f527fb10e2d527612073b26eecdfd717e6a320cf44b4afac2b0732d9fcbe2b7fa0cf601610ca8565b604051918291602083526020830190610d74565b0390f35b606081019081106001600160401b038211176109e557604052565b6101e081019081106001600160401b038211176109e557604052565b90601f801991011681019081106001600160401b038211176109e557604052565b90604051915f8154908160011c9260018316928315610d6a575b602085108414610d56578487528693908115610d345750600114610cf0575b50610cee92500383610c87565b565b90505f9291925260205f20905f915b818310610d18575050906020610cee928201015f610ce1565b6020919350806001915483858901015201910190918492610cff565b905060209250610cee94915060ff191682840152151560051b8201015f610ce1565b634e487b7160e01b5f52602260045260245ffd5b93607f1693610cc2565b805180835260209291819084018484015e5f828201840152601f01601f1916010190565b6001600160401b0381116109e557601f01601f191660200190565b929192610dbf82610d98565b91610dcd6040519384610c87565b829481845281830111610198578281602093845f960137010152565b9080601f8301121561019857816020610e0493359101610db3565b90565b8054821015610e20575f52600360205f20910201905f90565b634e487b7160e01b5f52603260045260245ffd5b6001600160401b0381116109e55760051b60200190565b15610e5257565b60405162461bcd60e51b8152602060048201526016602482015275125b9d195c9d985b081b9bdd081cdd5c1c1bdc9d195960521b6044820152606490fd5b5190811515820361019857565b9035601e19823603018112156101985701602081359101916001600160401b03821161019857813603831361019857565b908060209392818452848401375f828201840152601f01601f1916010190565b602081528135602082015260208201356040820152610f48610f29610f166040850185610e9d565b6102006060860152610220850191610ece565b610f366060850185610e9d565b848303601f1901608086015290610ece565b91608081013560a083015260a081013560c083015260c081013560e083015260e081013561010083015261010081013561012083015261012081013561014083015261014081013561016083015261016081013561018083015261018081013580151580910361019857610200916101e0916101a08501526101a08101356101c08501526101c081013582850152013591015290565b8051821015610e205760209160051b010190565b90610ffc82610e34565b6110096040519182610c87565b828152809261101a601f1991610e34565b01905f5b82811061102a57505050565b60209060405161103981610c6b565b5f81525f83820152606060408201525f60608201525f60808201525f60a08201525f60c08201525f60e08201525f6101008201525f6101208201525f6101408201525f6101608201525f6101808201525f6101a08201525f6101c08201528282850101520161101e56fe60806040523461020b57610f81803803806100198161020f565b92833981019060208183031261020b578051906001600160401b03821161020b570181601f8201121561020b578051906001600160401b0382116101f75761006a601f8301601f191660200161020f565b928284526020838301011161020b57815f9260208093018386015e83010152600180546001600160a01b0319163317905580516001600160401b0381116101f757600254600181811c911680156101ed575b60208210146101d957601f8111610176575b50602091601f8211600114610116579181925f9261010b575b50508160011b915f199060031b1c1916176002555b604051610d4c90816102358239f35b015190505f806100e7565b601f1982169260025f52805f20915f5b85811061015e57508360019510610146575b505050811b016002556100fc565b01515f1960f88460031b161c191690555f8080610138565b91926020600181928685015181550194019201610126565b60025f527f405787fa12a823e0f2b7631cc41b3ba8828b3321ca811111fa75cd3aa3bb5ace601f830160051c810191602084106101cf575b601f0160051c01905b8181106101c457506100ce565b5f81556001016101b7565b90915081906101ae565b634e487b7160e01b5f52602260045260245ffd5b90607f16906100bc565b634e487b7160e01b5f52604160045260245ffd5b5f80fd5b6040519190601f01601f191682016001600160401b038111838210176101f75760405256fe6080806040526004361015610012575f80fd5b5f3560e01c90816336b275e9146106ad5750806348bae592146106915780636cfcdca7146105a0578063947a36fb146104be578063c3e3bfe514610411578063c45a0155146103e95763fbad15dc14610069575f80fd5b346103e55760403660031901126103e557600435602435905f54808210156103aa578183101590816103a0575b5015610367578082039182116102da57600182018092116102da576100ba82610cea565b916100c8604051938461077b565b808352601f196100d782610cea565b015f5b8181106102ee5750505f5b8181106101f957836040518091602082016020835281518091526040830190602060408260051b8601019301915f905b82821061012457505050500390f35b919360019193955060208091603f198982030185528751908151815282820151838201526101c08061016760408501516101e060408601526101e085019061083d565b93606081015160608501526080810151608085015260a081015160a085015260c081015160c085015260e081015160e085015261010081015161010085015261012081015161012085015261014081015161014085015261016081015115156101608501526101808101516101808501526101a08101516101a085015201519101529601920192018594939192610115565b808301908184116102da5761020f6001926106c6565b50600e6040519161021f8361074a565b805483528481015460208401526102386002820161079d565b60408401526003810154606084015260048101546080840152600581015460a0840152600681015460c0840152600781015460e084015260088101546101008401526009810154610120840152600a81015461014084015260ff600b820154161515610160840152600c810154610180840152600d8101546101a084015201546101c08201526102c88287610d02565b526102d38186610d02565b50016100e5565b634e487b7160e01b5f52601160045260245ffd5b6020906040516102fd8161074a565b5f81525f83820152606060408201525f60608201525f60808201525f60a08201525f60c08201525f60e08201525f6101008201525f6101208201525f6101408201525f6101608201525f6101808201525f6101a08201525f6101c0820152828288010152016100da565b60405162461bcd60e51b8152602060048201526011602482015270092dcecc2d8d2c840cadcc840d2dcc8caf607b1b6044820152606490fd5b905082105f610096565b60405162461bcd60e51b8152602060048201526013602482015272092dcecc2d8d2c840e6e8c2e4e840d2dcc8caf606b1b6044820152606490fd5b5f80fd5b346103e5575f3660031901126103e5576001546040516001600160a01b039091168152602090f35b346103e55760203660031901126103e55760043567ffffffffffffffff81116103e55761020060031982360301126103e5576001546001600160a01b0316330361046d576104636020916004016108da565b6040519015158152f35b60405162461bcd60e51b815260206004820152602360248201527f4f6e6c7920466163746f72792063616e2063616c6c20746869732066756e637460448201526234b7b760e91b6064820152608490fd5b346103e5575f3660031901126103e5576040515f6002546104de81610712565b808452906001811690811561057c575060011461051e575b61051a836105068185038261077b565b60405191829160208352602083019061083d565b0390f35b60025f9081527f405787fa12a823e0f2b7631cc41b3ba8828b3321ca811111fa75cd3aa3bb5ace939250905b808210610562575090915081016020016105066104f6565b91926001816020925483858801015201910190929161054a565b60ff191660208086019190915291151560051b8401909101915061050690506104f6565b346103e55760203660031901126103e5576004355f548110156103e5576105c6906106c6565b5080546001820154906105db6002840161079d565b9260038101549060048101546005820154600683015460078401546008850154600986015491600a87015493600b88015460ff1695600c89015497600d8a015499600e01549a6040519e8f9e8f9e8f908152602001528d604081016101e090526101e0016106489161083d565b9c6060015260808d015260a08c015260c08b015260e08a015261010089015261012088015261014087015215156101608601526101808501526101a08401526101c08301520390f35b346103e5575f3660031901126103e55760205f54604051908152f35b346103e5575f3660031901126103e55780600260209252f35b5f548110156106fe575f808052600f919091027f290decd9548b62a8d60345a988386fc84ba6bc95484008f6362f93160ef3e5630191565b634e487b7160e01b5f52603260045260245ffd5b90600182811c92168015610740575b602083101461072c57565b634e487b7160e01b5f52602260045260245ffd5b91607f1691610721565b6101e0810190811067ffffffffffffffff82111761076757604052565b634e487b7160e01b5f52604160045260245ffd5b90601f8019910116810190811067ffffffffffffffff82111761076757604052565b9060405191825f8254926107b084610712565b808452936001811690811561081b57506001146107d7575b506107d59250038361077b565b565b90505f9291925260205f20905f915b8183106107ff5750509060206107d5928201015f6107c8565b60209193508060019154838589010152019101909184926107e6565b9050602092506107d594915060ff191682840152151560051b8201015f6107c8565b805180835260209291819084018484015e5f828201840152601f01601f1916010190565b903590601e19813603018212156103e5570180359067ffffffffffffffff82116103e5576020019181360383136103e557565b92919267ffffffffffffffff821161076757604051916108be601f8201601f19166020018461077b565b8294818452818301116103e5578281602093845f960137010152565b6108f16108ea6060830183610861565b3691610894565b602081519101206040515f90600254918161090b84610712565b9182825260208201946001811690815f14610cce5750600114610c6f575b6109359250038261077b565b51902003610c12575f546002811015610c0c576109556040830183610861565b929091610180820135918215158093036103e5576101e0906109946040519561097d8761074a565b823587526020870197602084013589523691610894565b93604086019485526080820135606087015260a0820135608087015260c082013560a087015260e082013560c087015261010082013560e08701526101208201356101008701526101408201356101208701526101608201356101408701526101608601526101a08101356101808601526101c08101356101a086015201356101c08401526801000000000000000081101561076757806001610a3992015f556106c6565b939093610bf957825184555160018401555180519067ffffffffffffffff821161076757610a6a6002850154610712565b601f8111610bb1575b50602090601f8311600114610b40579180600e94926101c0945f92610b35575b50508160011b915f199060031b1c19161760028501555b606081015160038501556080810151600485015560a0810151600585015560c0810151600685015560e0810151600785015561010081015160088501556101208101516009850155610140810151600a850155600b8401610160820151151560ff80198354169116179055610180810151600c8501556101a0810151600d8501550151910155600190565b015190505f80610a93565b90600285015f52805f20915f5b601f1985168110610b99575092600e94926001926101c09583601f19811610610b81575b505050811b016002850155610aaa565b01515f1960f88460031b161c191690555f8080610b71565b91926020600181928685015181550194019201610b4d565b600285015f5260205f20601f840160051c81019160208510610bef575b601f0160051c01905b818110610be45750610a73565b5f8155600101610bd7565b9091508190610bce565b634e487b7160e01b5f525f60045260245ffd5b50505f90565b60405162461bcd60e51b815260206004820152602f60248201527f4b6c696e6520696e74657276616c20646f6573206e6f74206d6174636820636f60448201526e1b9d1c9858dd081a5b9d195c9d985b608a1b6064820152608490fd5b509060025f527f405787fa12a823e0f2b7631cc41b3ba8828b3321ca811111fa75cd3aa3bb5ace905f915b818310610cb257505090602061093592820101610929565b6020919350806001915483858801015201910190918392610c9a565b60ff191686525061093592151560051b82016020019050610929565b67ffffffffffffffff81116107675760051b60200190565b80518210156106fe5760209160051b01019056fea26469706673582212208c225f9c1fa1d040cd4ad45d93c82c4c8bfdefd4ef56e1f711343fcd159cbb5864736f6c634300081e0033a26469706673582212204124752aa8f72db66e34b4d53b45d6f2f6f1cbe0fcb0dd436d07389a712d554e64736f6c634300081e003360806040523461020b57610f81803803806100198161020f565b92833981019060208183031261020b578051906001600160401b03821161020b570181601f8201121561020b578051906001600160401b0382116101f75761006a601f8301601f191660200161020f565b928284526020838301011161020b57815f9260208093018386015e83010152600180546001600160a01b0319163317905580516001600160401b0381116101f757600254600181811c911680156101ed575b60208210146101d957601f8111610176575b50602091601f8211600114610116579181925f9261010b575b50508160011b915f199060031b1c1916176002555b604051610d4c90816102358239f35b015190505f806100e7565b601f1982169260025f52805f20915f5b85811061015e57508360019510610146575b505050811b016002556100fc565b01515f1960f88460031b161c191690555f8080610138565b91926020600181928685015181550194019201610126565b60025f527f405787fa12a823e0f2b7631cc41b3ba8828b3321ca811111fa75cd3aa3bb5ace601f830160051c810191602084106101cf575b601f0160051c01905b8181106101c457506100ce565b5f81556001016101b7565b90915081906101ae565b634e487b7160e01b5f52602260045260245ffd5b90607f16906100bc565b634e487b7160e01b5f52604160045260245ffd5b5f80fd5b6040519190601f01601f191682016001600160401b038111838210176101f75760405256fe6080806040526004361015610012575f80fd5b5f3560e01c90816336b275e9146106ad5750806348bae592146106915780636cfcdca7146105a0578063947a36fb146104be578063c3e3bfe514610411578063c45a0155146103e95763fbad15dc14610069575f80fd5b346103e55760403660031901126103e557600435602435905f54808210156103aa578183101590816103a0575b5015610367578082039182116102da57600182018092116102da576100ba82610cea565b916100c8604051938461077b565b808352601f196100d782610cea565b015f5b8181106102ee5750505f5b8181106101f957836040518091602082016020835281518091526040830190602060408260051b8601019301915f905b82821061012457505050500390f35b919360019193955060208091603f198982030185528751908151815282820151838201526101c08061016760408501516101e060408601526101e085019061083d565b93606081015160608501526080810151608085015260a081015160a085015260c081015160c085015260e081015160e085015261010081015161010085015261012081015161012085015261014081015161014085015261016081015115156101608501526101808101516101808501526101a08101516101a085015201519101529601920192018594939192610115565b808301908184116102da5761020f6001926106c6565b50600e6040519161021f8361074a565b805483528481015460208401526102386002820161079d565b60408401526003810154606084015260048101546080840152600581015460a0840152600681015460c0840152600781015460e084015260088101546101008401526009810154610120840152600a81015461014084015260ff600b820154161515610160840152600c810154610180840152600d8101546101a084015201546101c08201526102c88287610d02565b526102d38186610d02565b50016100e5565b634e487b7160e01b5f52601160045260245ffd5b6020906040516102fd8161074a565b5f81525f83820152606060408201525f60608201525f60808201525f60a08201525f60c08201525f60e08201525f6101008201525f6101208201525f6101408201525f6101608201525f6101808201525f6101a08201525f6101c0820152828288010152016100da565b60405162461bcd60e51b8152602060048201526011602482015270092dcecc2d8d2c840cadcc840d2dcc8caf607b1b6044820152606490fd5b905082105f610096565b60405162461bcd60e51b8152602060048201526013602482015272092dcecc2d8d2c840e6e8c2e4e840d2dcc8caf606b1b6044820152606490fd5b5f80fd5b346103e5575f3660031901126103e5576001546040516001600160a01b039091168152602090f35b346103e55760203660031901126103e55760043567ffffffffffffffff81116103e55761020060031982360301126103e5576001546001600160a01b0316330361046d576104636020916004016108da565b6040519015158152f35b60405162461bcd60e51b815260206004820152602360248201527f4f6e6c7920466163746f72792063616e2063616c6c20746869732066756e637460448201526234b7b760e91b6064820152608490fd5b346103e5575f3660031901126103e5576040515f6002546104de81610712565b808452906001811690811561057c575060011461051e575b61051a836105068185038261077b565b60405191829160208352602083019061083d565b0390f35b60025f9081527f405787fa12a823e0f2b7631cc41b3ba8828b3321ca811111fa75cd3aa3bb5ace939250905b808210610562575090915081016020016105066104f6565b91926001816020925483858801015201910190929161054a565b60ff191660208086019190915291151560051b8401909101915061050690506104f6565b346103e55760203660031901126103e5576004355f548110156103e5576105c6906106c6565b5080546001820154906105db6002840161079d565b9260038101549060048101546005820154600683015460078401546008850154600986015491600a87015493600b88015460ff1695600c89015497600d8a015499600e01549a6040519e8f9e8f9e8f908152602001528d604081016101e090526101e0016106489161083d565b9c6060015260808d015260a08c015260c08b015260e08a015261010089015261012088015261014087015215156101608601526101808501526101a08401526101c08301520390f35b346103e5575f3660031901126103e55760205f54604051908152f35b346103e5575f3660031901126103e55780600260209252f35b5f548110156106fe575f808052600f919091027f290decd9548b62a8d60345a988386fc84ba6bc95484008f6362f93160ef3e5630191565b634e487b7160e01b5f52603260045260245ffd5b90600182811c92168015610740575b602083101461072c57565b634e487b7160e01b5f52602260045260245ffd5b91607f1691610721565b6101e0810190811067ffffffffffffffff82111761076757604052565b634e487b7160e01b5f52604160045260245ffd5b90601f8019910116810190811067ffffffffffffffff82111761076757604052565b9060405191825f8254926107b084610712565b808452936001811690811561081b57506001146107d7575b506107d59250038361077b565b565b90505f9291925260205f20905f915b8183106107ff5750509060206107d5928201015f6107c8565b60209193508060019154838589010152019101909184926107e6565b9050602092506107d594915060ff191682840152151560051b8201015f6107c8565b805180835260209291819084018484015e5f828201840152601f01601f1916010190565b903590601e19813603018212156103e5570180359067ffffffffffffffff82116103e5576020019181360383136103e557565b92919267ffffffffffffffff821161076757604051916108be601f8201601f19166020018461077b565b8294818452818301116103e5578281602093845f960137010152565b6108f16108ea6060830183610861565b3691610894565b602081519101206040515f90600254918161090b84610712565b9182825260208201946001811690815f14610cce5750600114610c6f575b6109359250038261077b565b51902003610c12575f546002811015610c0c576109556040830183610861565b929091610180820135918215158093036103e5576101e0906109946040519561097d8761074a565b823587526020870197602084013589523691610894565b93604086019485526080820135606087015260a0820135608087015260c082013560a087015260e082013560c087015261010082013560e08701526101208201356101008701526101408201356101208701526101608201356101408701526101608601526101a08101356101808601526101c08101356101a086015201356101c08401526801000000000000000081101561076757806001610a3992015f556106c6565b939093610bf957825184555160018401555180519067ffffffffffffffff821161076757610a6a6002850154610712565b601f8111610bb1575b50602090601f8311600114610b40579180600e94926101c0945f92610b35575b50508160011b915f199060031b1c19161760028501555b606081015160038501556080810151600485015560a0810151600585015560c0810151600685015560e0810151600785015561010081015160088501556101208101516009850155610140810151600a850155600b8401610160820151151560ff80198354169116179055610180810151600c8501556101a0810151600d8501550151910155600190565b015190505f80610a93565b90600285015f52805f20915f5b601f1985168110610b99575092600e94926001926101c09583601f19811610610b81575b505050811b016002850155610aaa565b01515f1960f88460031b161c191690555f8080610b71565b91926020600181928685015181550194019201610b4d565b600285015f5260205f20601f840160051c81019160208510610bef575b601f0160051c01905b818110610be45750610a73565b5f8155600101610bd7565b9091508190610bce565b634e487b7160e01b5f525f60045260245ffd5b50505f90565b60405162461bcd60e51b815260206004820152602f60248201527f4b6c696e6520696e74657276616c20646f6573206e6f74206d6174636820636f60448201526e1b9d1c9858dd081a5b9d195c9d985b608a1b6064820152608490fd5b509060025f527f405787fa12a823e0f2b7631cc41b3ba8828b3321ca811111fa75cd3aa3bb5ace905f915b818310610cb257505090602061093592820101610929565b6020919350806001915483858801015201910190918392610c9a565b60ff191686525061093592151560051b82016020019050610929565b67ffffffffffffffff81116107675760051b60200190565b80518210156106fe5760209160051b01019056fea26469706673582212208c225f9c1fa1d040cd4ad45d93c82c4c8bfdefd4ef56e1f711343fcd159cbb5864736f6c634300081e0033",
					"opcodes": "PUSH1 0x80 PUSH1 0x40 MSTORE CALLVALUE PUSH2 0x411 JUMPI PUSH2 0x344E DUP1 CODESIZE SUB DUP1 PUSH2 0x19 DUP2 PUSH2 0x415 JUMP JUMPDEST SWAP3 DUP4 CODECOPY DUP2 ADD SWAP1 PUSH1 0x20 DUP2 DUP4 SUB SLT PUSH2 0x411 JUMPI DUP1 MLOAD SWAP1 PUSH1 0x1 PUSH1 0x1 PUSH1 0x40 SHL SUB DUP3 GT PUSH2 0x411 JUMPI ADD SWAP1 DUP1 PUSH1 0x1F DUP4 ADD SLT ISZERO PUSH2 0x411 JUMPI DUP2 MLOAD SWAP2 PUSH1 0x1 PUSH1 0x1 PUSH1 0x40 SHL SUB DUP4 GT PUSH2 0x29B JUMPI DUP3 PUSH1 0x5 SHL PUSH1 0x20 DUP1 PUSH2 0x6A DUP2 DUP5 ADD PUSH2 0x415 JUMP JUMPDEST DUP1 SWAP7 DUP2 MSTORE ADD SWAP2 DUP4 ADD ADD SWAP2 DUP4 DUP4 GT PUSH2 0x411 JUMPI PUSH1 0x20 DUP2 ADD SWAP2 JUMPDEST DUP4 DUP4 LT PUSH2 0x3A0 JUMPI PUSH2 0x24CD DUP7 PUSH2 0xF81 PUSH0 JUMPDEST DUP3 MLOAD DUP2 LT ISZERO PUSH2 0x391 JUMPI PUSH2 0xA4 DUP2 DUP5 PUSH2 0x43A JUMP JUMPDEST MLOAD PUSH1 0x1 SLOAD PUSH9 0x10000000000000000 DUP2 LT ISZERO PUSH2 0x29B JUMPI PUSH1 0x1 DUP2 ADD DUP1 PUSH1 0x1 SSTORE DUP2 LT ISZERO PUSH2 0x287 JUMPI PUSH1 0x1 PUSH0 MSTORE DUP2 MLOAD PUSH32 0xB10E2D527612073B26EECDFD717E6A320CF44B4AFAC2B0732D9FCBE2B7FA0CF6 SWAP2 SWAP1 SWAP2 ADD SWAP2 PUSH1 0x1 PUSH1 0x1 PUSH1 0x40 SHL SUB DUP3 GT PUSH2 0x29B JUMPI DUP3 SLOAD SWAP1 PUSH1 0x1 DUP3 DUP2 SHR SWAP3 AND DUP1 ISZERO PUSH2 0x387 JUMPI JUMPDEST PUSH1 0x20 DUP4 LT EQ PUSH2 0x373 JUMPI DUP2 PUSH1 0x1F DUP5 SWAP4 GT PUSH2 0x328 JUMPI JUMPDEST POP PUSH1 0x20 SWAP1 PUSH1 0x1F DUP4 GT PUSH1 0x1 EQ PUSH2 0x2C5 JUMPI PUSH0 SWAP3 PUSH2 0x2BA JUMPI JUMPDEST POP POP DUP2 PUSH1 0x1 SHL SWAP2 PUSH0 NOT SWAP1 PUSH1 0x3 SHL SHR NOT AND OR SWAP1 SSTORE JUMPDEST PUSH2 0x15B DUP2 DUP5 PUSH2 0x43A JUMP JUMPDEST MLOAD PUSH1 0x40 MLOAD SWAP1 SWAP2 SWAP1 DUP4 DUP2 ADD PUSH1 0x1 PUSH1 0x1 PUSH1 0x40 SHL SUB DUP2 GT DUP3 DUP3 LT OR PUSH2 0x29B JUMPI PUSH2 0x18C PUSH1 0x20 DUP4 SWAP3 DUP8 DUP11 DUP6 CODECOPY DUP2 DUP2 MSTORE ADD DUP6 PUSH2 0x44E JUMP JUMPDEST SUB SWAP1 PUSH0 CREATE DUP1 ISZERO PUSH2 0x2AF JUMPI PUSH1 0x40 MLOAD PUSH1 0x20 DUP2 DUP6 MLOAD DUP1 DUP4 DUP9 ADD DUP4 MCOPY PUSH0 SWAP1 DUP3 ADD SWAP1 DUP2 MSTORE SUB ADD SWAP1 KECCAK256 PUSH1 0x40 MLOAD SWAP4 PUSH1 0x1 PUSH1 0x1 PUSH1 0xA0 SHL SUB SWAP1 SWAP3 AND SWAP2 PUSH1 0x60 DUP6 ADD PUSH1 0x1 PUSH1 0x1 PUSH1 0x40 SHL SUB DUP2 GT DUP7 DUP3 LT OR PUSH2 0x29B JUMPI PUSH1 0x40 MSTORE DUP3 DUP6 MSTORE PUSH1 0x20 DUP6 ADD SWAP3 TIMESTAMP DUP5 MSTORE PUSH1 0x40 DUP7 ADD SWAP6 PUSH0 DUP8 MSTORE DUP4 SLOAD SWAP4 PUSH9 0x10000000000000000 DUP6 LT ISZERO PUSH2 0x29B JUMPI PUSH1 0x1 DUP6 ADD DUP1 DUP3 SSTORE DUP6 LT ISZERO PUSH2 0x287 JUMPI PUSH1 0x1 SWAP8 PUSH32 0xF8FC7B546285327F0096673F943D0B65DC7436F2818B7DAA763C532348A73DEA SWAP7 PUSH2 0x278 SWAP7 PUSH1 0x2 SWAP4 PUSH0 MSTORE PUSH1 0x3 PUSH1 0x20 PUSH0 KECCAK256 SWAP2 MUL ADD SWAP4 DUP11 DUP1 PUSH1 0xA0 SHL SUB SWAP1 MLOAD AND DUP11 DUP1 PUSH1 0xA0 SHL SUB NOT DUP6 SLOAD AND OR DUP5 SSTORE MLOAD DUP10 DUP5 ADD SSTORE MLOAD SWAP2 ADD SSTORE PUSH1 0x40 MLOAD SWAP3 DUP4 SWAP3 PUSH1 0x40 DUP5 MSTORE PUSH1 0x40 DUP5 ADD SWAP1 PUSH2 0x44E JUMP JUMPDEST SWAP1 PUSH1 0x20 DUP4 ADD MSTORE SUB SWAP1 LOG1 ADD PUSH2 0x91 JUMP JUMPDEST PUSH4 0x4E487B71 PUSH1 0xE0 SHL PUSH0 MSTORE PUSH1 0x32 PUSH1 0x4 MSTORE PUSH1 0x24 PUSH0 REVERT JUMPDEST PUSH4 0x4E487B71 PUSH1 0xE0 SHL PUSH0 MSTORE PUSH1 0x41 PUSH1 0x4 MSTORE PUSH1 0x24 PUSH0 REVERT JUMPDEST PUSH1 0x40 MLOAD RETURNDATASIZE PUSH0 DUP3 RETURNDATACOPY RETURNDATASIZE SWAP1 REVERT JUMPDEST ADD MLOAD SWAP1 POP DUP8 DUP1 PUSH2 0x13D JUMP JUMPDEST PUSH0 DUP6 DUP2 MSTORE DUP3 DUP2 KECCAK256 SWAP4 POP PUSH1 0x1F NOT DUP6 AND SWAP1 JUMPDEST DUP2 DUP2 LT PUSH2 0x310 JUMPI POP SWAP1 DUP5 PUSH1 0x1 SWAP6 SWAP5 SWAP4 SWAP3 LT PUSH2 0x2F8 JUMPI JUMPDEST POP POP POP DUP2 SHL ADD SWAP1 SSTORE PUSH2 0x151 JUMP JUMPDEST ADD MLOAD PUSH0 NOT PUSH1 0xF8 DUP5 PUSH1 0x3 SHL AND SHR NOT AND SWAP1 SSTORE DUP8 DUP1 DUP1 PUSH2 0x2EB JUMP JUMPDEST DUP3 DUP5 ADD MLOAD DUP6 SSTORE PUSH1 0x1 SWAP1 SWAP5 ADD SWAP4 PUSH1 0x20 SWAP4 DUP5 ADD SWAP4 ADD PUSH2 0x2D5 JUMP JUMPDEST SWAP1 SWAP2 POP DUP4 PUSH0 MSTORE PUSH1 0x20 PUSH0 KECCAK256 PUSH1 0x1F DUP5 ADD PUSH1 0x5 SHR DUP2 ADD SWAP2 PUSH1 0x20 DUP6 LT PUSH2 0x369 JUMPI JUMPDEST PUSH1 0x1F ADD PUSH1 0x5 SHR ADD SWAP1 JUMPDEST DUP2 DUP2 LT PUSH2 0x35E JUMPI DUP4 SWAP3 SWAP2 POP PUSH2 0x127 JUMP JUMPDEST PUSH0 DUP2 SSTORE PUSH1 0x1 ADD PUSH2 0x34E JUMP JUMPDEST SWAP1 SWAP2 POP DUP2 SWAP1 PUSH2 0x345 JUMP JUMPDEST PUSH4 0x4E487B71 PUSH1 0xE0 SHL PUSH0 MSTORE PUSH1 0x22 PUSH1 0x4 MSTORE PUSH1 0x24 PUSH0 REVERT JUMPDEST SWAP2 PUSH1 0x7F AND SWAP2 PUSH2 0x113 JUMP JUMPDEST PUSH1 0x40 MLOAD PUSH2 0x205A SWAP1 DUP2 PUSH2 0x473 DUP3 CODECOPY RETURN JUMPDEST DUP3 MLOAD PUSH1 0x1 PUSH1 0x1 PUSH1 0x40 SHL SUB DUP2 GT PUSH2 0x411 JUMPI DUP3 ADD DUP6 PUSH1 0x3F DUP3 ADD SLT ISZERO PUSH2 0x411 JUMPI PUSH1 0x20 DUP2 ADD MLOAD SWAP2 PUSH1 0x1 PUSH1 0x1 PUSH1 0x40 SHL SUB DUP4 GT PUSH2 0x29B JUMPI PUSH2 0x3E4 PUSH1 0x1F DUP5 ADD PUSH1 0x1F NOT AND PUSH1 0x20 ADD PUSH2 0x415 JUMP JUMPDEST DUP4 DUP2 MSTORE PUSH1 0x40 DUP4 DUP6 ADD ADD DUP9 LT PUSH2 0x411 JUMPI PUSH0 PUSH1 0x20 DUP6 DUP2 SWAP7 PUSH1 0x40 DUP4 SWAP8 ADD DUP4 DUP7 ADD MCOPY DUP4 ADD ADD MSTORE DUP2 MSTORE ADD SWAP3 ADD SWAP2 PUSH2 0x81 JUMP JUMPDEST PUSH0 DUP1 REVERT JUMPDEST PUSH1 0x40 MLOAD SWAP2 SWAP1 PUSH1 0x1F ADD PUSH1 0x1F NOT AND DUP3 ADD PUSH1 0x1 PUSH1 0x1 PUSH1 0x40 SHL SUB DUP2 GT DUP4 DUP3 LT OR PUSH2 0x29B JUMPI PUSH1 0x40 MSTORE JUMP JUMPDEST DUP1 MLOAD DUP3 LT ISZERO PUSH2 0x287 JUMPI PUSH1 0x20 SWAP2 PUSH1 0x5 SHL ADD ADD SWAP1 JUMP JUMPDEST DUP1 MLOAD DUP1 DUP4 MSTORE PUSH1 0x20 SWAP3 SWAP2 DUP2 SWAP1 DUP5 ADD DUP5 DUP5 ADD MCOPY PUSH0 DUP3 DUP3 ADD DUP5 ADD MSTORE PUSH1 0x1F ADD PUSH1 0x1F NOT AND ADD ADD SWAP1 JUMP INVALID PUSH1 0x80 PUSH1 0x40 MSTORE PUSH1 0x4 CALLDATASIZE LT ISZERO PUSH2 0x11 JUMPI PUSH0 DUP1 REVERT JUMPDEST PUSH0 CALLDATALOAD PUSH1 0xE0 SHR DUP1 PUSH4 0x328FFD11 EQ PUSH2 0xBE8 JUMPI DUP1 PUSH4 0x492BD276 EQ PUSH2 0xB03 JUMPI DUP1 PUSH4 0x4BBC3AEB EQ PUSH2 0xA78 JUMPI DUP1 PUSH4 0xBE21E6C3 EQ PUSH2 0x727 JUMPI PUSH4 0xF9A284EB EQ PUSH2 0x50 JUMPI PUSH0 DUP1 REVERT JUMPDEST CALLVALUE PUSH2 0x198 JUMPI PUSH1 0x60 CALLDATASIZE PUSH1 0x3 NOT ADD SLT PUSH2 0x198 JUMPI PUSH1 0x4 CALLDATALOAD PUSH1 0x1 PUSH1 0x1 PUSH1 0x40 SHL SUB DUP2 GT PUSH2 0x198 JUMPI PUSH2 0x80 SWAP1 CALLDATASIZE SWAP1 PUSH1 0x4 ADD PUSH2 0xDE9 JUMP JUMPDEST PUSH1 0x24 CALLDATALOAD SWAP1 PUSH1 0x20 DUP1 PUSH1 0x44 CALLDATALOAD SWAP3 PUSH1 0x40 MLOAD SWAP3 DUP2 DUP5 SWAP3 MLOAD SWAP2 DUP3 SWAP2 ADD DUP4 MCOPY DUP2 ADD PUSH0 DUP2 MSTORE SUB ADD SWAP1 KECCAK256 DUP1 SLOAD PUSH2 0xAD DUP2 PUSH2 0xE34 JUMP JUMPDEST SWAP2 PUSH2 0xBB PUSH1 0x40 MLOAD SWAP4 DUP5 PUSH2 0xC87 JUMP JUMPDEST DUP2 DUP4 MSTORE PUSH1 0x20 DUP4 ADD SWAP1 PUSH0 MSTORE PUSH1 0x20 PUSH0 KECCAK256 PUSH0 SWAP2 JUMPDEST DUP4 DUP4 LT PUSH2 0x6E9 JUMPI POP POP POP POP PUSH2 0xE3 DUP2 MLOAD ISZERO ISZERO PUSH2 0xE4B JUMP JUMPDEST DUP3 ISZERO ISZERO SWAP2 DUP3 PUSH2 0x6DE JUMPI JUMPDEST PUSH0 SWAP4 PUSH0 JUMPDEST DUP4 MLOAD DUP2 LT ISZERO PUSH2 0x1FD JUMPI DUP5 ISZERO DUP1 ISZERO PUSH2 0x1AF JUMPI JUMPDEST PUSH2 0x110 JUMPI JUMPDEST PUSH1 0x1 ADD PUSH2 0xF1 JUMP JUMPDEST SWAP5 PUSH1 0x4 PUSH1 0x20 PUSH1 0x1 PUSH1 0x1 PUSH1 0xA0 SHL SUB PUSH2 0x127 DUP10 DUP9 PUSH2 0xFDE JUMP JUMPDEST MLOAD MLOAD AND PUSH1 0x40 MLOAD SWAP3 DUP4 DUP1 SWAP3 PUSH4 0x245D72C9 PUSH1 0xE1 SHL DUP3 MSTORE GAS STATICCALL SWAP1 DUP2 ISZERO PUSH2 0x1A4 JUMPI PUSH0 SWAP2 PUSH2 0x16F JUMPI JUMPDEST POP DUP2 ADD DUP1 SWAP2 GT PUSH2 0x15B JUMPI SWAP5 PUSH2 0x108 JUMP JUMPDEST PUSH4 0x4E487B71 PUSH1 0xE0 SHL PUSH0 MSTORE PUSH1 0x11 PUSH1 0x4 MSTORE PUSH1 0x24 PUSH0 REVERT JUMPDEST SWAP1 POP PUSH1 0x20 DUP2 RETURNDATASIZE DUP3 GT PUSH2 0x19C JUMPI JUMPDEST DUP2 PUSH2 0x189 PUSH1 0x20 SWAP4 DUP4 PUSH2 0xC87 JUMP JUMPDEST DUP2 ADD SUB SLT PUSH2 0x198 JUMPI MLOAD PUSH0 PUSH2 0x14B JUMP JUMPDEST PUSH0 DUP1 REVERT JUMPDEST RETURNDATASIZE SWAP2 POP PUSH2 0x17C JUMP JUMPDEST PUSH1 0x40 MLOAD RETURNDATASIZE PUSH0 DUP3 RETURNDATACOPY RETURNDATASIZE SWAP1 REVERT JUMPDEST POP PUSH1 0x40 PUSH2 0x1BC DUP3 DUP7 PUSH2 0xFDE JUMP JUMPDEST MLOAD ADD MLOAD ISZERO DUP1 ISZERO PUSH2 0x1E5 JUMPI JUMPDEST DUP1 ISZERO PUSH2 0x103 JUMPI POP DUP3 PUSH1 0x20 PUSH2 0x1DB DUP4 DUP8 PUSH2 0xFDE JUMP JUMPDEST MLOAD ADD MLOAD GT ISZERO PUSH2 0x103 JUMP JUMPDEST POP DUP2 PUSH1 0x40 PUSH2 0x1F3 DUP4 DUP8 PUSH2 0xFDE JUMP JUMPDEST MLOAD ADD MLOAD LT ISZERO PUSH2 0x1C7 JUMP JUMPDEST POP SWAP1 SWAP4 PUSH2 0x209 SWAP1 PUSH2 0xFF2 JUMP JUMPDEST SWAP2 PUSH0 SWAP5 PUSH0 JUMPDEST DUP3 MLOAD DUP2 LT ISZERO PUSH2 0x592 JUMPI DUP6 ISZERO DUP1 ISZERO DUP2 DUP2 PUSH2 0x544 JUMPI JUMPDEST PUSH2 0x231 JUMPI JUMPDEST POP POP PUSH1 0x1 ADD PUSH2 0x20E JUMP JUMPDEST PUSH1 0x1 PUSH1 0x1 PUSH1 0xA0 SHL SUB PUSH2 0x243 DUP5 DUP8 PUSH2 0xFDE JUMP JUMPDEST MLOAD MLOAD AND SWAP2 PUSH1 0x40 MLOAD PUSH4 0x245D72C9 PUSH1 0xE1 SHL DUP2 MSTORE PUSH1 0x20 DUP2 PUSH1 0x4 DUP2 DUP8 GAS STATICCALL SWAP1 DUP2 ISZERO PUSH2 0x1A4 JUMPI PUSH0 SWAP2 PUSH2 0x513 JUMPI JUMPDEST POP DUP1 PUSH2 0x279 JUMPI JUMPDEST POP POP PUSH2 0x227 JUMP JUMPDEST PUSH0 SWAP10 SWAP2 SWAP4 SWAP8 SWAP5 SWAP10 SWAP7 SWAP3 SWAP7 NOT DUP2 ADD SWAP1 DUP2 GT PUSH2 0x15B JUMPI PUSH0 SWAP1 PUSH1 0x44 PUSH1 0x40 MLOAD DUP1 SWAP11 DUP2 SWAP4 PUSH4 0x3EEB4577 PUSH1 0xE2 SHL DUP4 MSTORE DUP6 PUSH1 0x4 DUP5 ADD MSTORE PUSH1 0x24 DUP4 ADD MSTORE GAS STATICCALL SWAP7 DUP8 ISZERO PUSH2 0x1A4 JUMPI PUSH0 SWAP8 PUSH2 0x34E JUMPI JUMPDEST POP PUSH0 JUMPDEST DUP8 MLOAD DUP2 LT ISZERO PUSH2 0x33B JUMPI DUP4 DUP8 PUSH2 0x310 JUMPI JUMPDEST PUSH2 0x2DD JUMPI JUMPDEST PUSH1 0x1 ADD PUSH2 0x2C0 JUMP JUMPDEST SWAP10 PUSH2 0x2E8 DUP12 DUP10 PUSH2 0xFDE JUMP JUMPDEST MLOAD PUSH2 0x2F3 DUP3 DUP12 PUSH2 0xFDE JUMP JUMPDEST MSTORE PUSH2 0x2FE DUP2 DUP11 PUSH2 0xFDE JUMP JUMPDEST POP PUSH0 NOT DUP2 EQ PUSH2 0x15B JUMPI PUSH1 0x1 ADD SWAP10 PUSH2 0x2D5 JUMP JUMPDEST POP DUP5 PUSH2 0x31C DUP3 DUP11 PUSH2 0xFDE JUMP JUMPDEST MLOAD MLOAD LT ISZERO DUP1 ISZERO PUSH2 0x2D0 JUMPI POP DUP6 PUSH2 0x332 DUP3 DUP11 PUSH2 0xFDE JUMP JUMPDEST MLOAD MLOAD GT ISZERO PUSH2 0x2D0 JUMP JUMPDEST POP SWAP8 SWAP3 SWAP6 POP SWAP4 POP PUSH1 0x1 SWAP1 POP PUSH0 DUP1 DUP1 PUSH2 0x272 JUMP JUMPDEST SWAP1 SWAP7 POP RETURNDATASIZE DUP1 PUSH0 DUP4 RETURNDATACOPY PUSH2 0x360 DUP2 DUP4 PUSH2 0xC87 JUMP JUMPDEST DUP2 ADD SWAP1 PUSH1 0x20 DUP2 DUP4 SUB SLT PUSH2 0x198 JUMPI DUP1 MLOAD SWAP1 PUSH1 0x1 PUSH1 0x1 PUSH1 0x40 SHL SUB DUP3 GT PUSH2 0x198 JUMPI ADD SWAP1 DUP1 PUSH1 0x1F DUP4 ADD SLT ISZERO PUSH2 0x198 JUMPI DUP2 MLOAD SWAP2 PUSH2 0x397 DUP4 PUSH2 0xE34 JUMP JUMPDEST SWAP3 PUSH2 0x3A5 PUSH1 0x40 MLOAD SWAP5 DUP6 PUSH2 0xC87 JUMP JUMPDEST DUP1 DUP5 MSTORE PUSH1 0x20 DUP1 DUP6 ADD SWAP2 PUSH1 0x5 SHL DUP4 ADD ADD SWAP2 DUP4 DUP4 GT PUSH2 0x198 JUMPI PUSH1 0x20 DUP2 ADD SWAP2 JUMPDEST DUP4 DUP4 LT PUSH2 0x3D5 JUMPI POP POP POP POP POP SWAP6 PUSH0 PUSH2 0x2BD JUMP JUMPDEST DUP3 MLOAD PUSH1 0x1 PUSH1 0x1 PUSH1 0x40 SHL SUB DUP2 GT PUSH2 0x198 JUMPI DUP3 ADD SWAP1 PUSH2 0x1E0 DUP3 DUP8 SUB PUSH1 0x1F NOT ADD SLT PUSH2 0x198 JUMPI PUSH1 0x40 MLOAD SWAP1 PUSH2 0x404 DUP3 PUSH2 0xC6B JUMP JUMPDEST PUSH1 0x20 DUP4 ADD MLOAD DUP3 MSTORE PUSH1 0x40 DUP4 ADD MLOAD PUSH1 0x20 DUP4 ADD MSTORE PUSH1 0x60 DUP4 ADD MLOAD PUSH1 0x1 PUSH1 0x1 PUSH1 0x40 SHL SUB DUP2 GT PUSH2 0x198 JUMPI PUSH1 0x20 SWAP1 DUP5 ADD ADD SWAP2 DUP8 PUSH1 0x1F DUP5 ADD SLT ISZERO PUSH2 0x198 JUMPI DUP3 MLOAD SWAP3 PUSH2 0x446 DUP5 PUSH2 0xD98 JUMP JUMPDEST SWAP5 PUSH2 0x454 PUSH1 0x40 MLOAD SWAP7 DUP8 PUSH2 0xC87 JUMP JUMPDEST DUP5 DUP7 MSTORE DUP10 PUSH1 0x20 DUP7 DUP5 ADD ADD GT PUSH2 0x198 JUMPI PUSH1 0x20 SWAP6 PUSH0 DUP8 DUP8 DUP2 SWAP9 DUP3 PUSH2 0x1E0 SWAP8 ADD DUP4 DUP7 ADD MCOPY DUP4 ADD ADD MSTORE PUSH1 0x40 DUP5 ADD MSTORE PUSH1 0x80 DUP2 ADD MLOAD PUSH1 0x60 DUP5 ADD MSTORE PUSH1 0xA0 DUP2 ADD MLOAD PUSH1 0x80 DUP5 ADD MSTORE PUSH1 0xC0 DUP2 ADD MLOAD PUSH1 0xA0 DUP5 ADD MSTORE PUSH1 0xE0 DUP2 ADD MLOAD PUSH1 0xC0 DUP5 ADD MSTORE PUSH2 0x100 DUP2 ADD MLOAD PUSH1 0xE0 DUP5 ADD MSTORE PUSH2 0x120 DUP2 ADD MLOAD PUSH2 0x100 DUP5 ADD MSTORE PUSH2 0x140 DUP2 ADD MLOAD PUSH2 0x120 DUP5 ADD MSTORE PUSH2 0x160 DUP2 ADD MLOAD PUSH2 0x140 DUP5 ADD MSTORE PUSH2 0x4E2 PUSH2 0x180 DUP3 ADD PUSH2 0xE90 JUMP JUMPDEST PUSH2 0x160 DUP5 ADD MSTORE PUSH2 0x1A0 DUP2 ADD MLOAD PUSH2 0x180 DUP5 ADD MSTORE PUSH2 0x1C0 DUP2 ADD MLOAD PUSH2 0x1A0 DUP5 ADD MSTORE ADD MLOAD PUSH2 0x1C0 DUP3 ADD MSTORE DUP2 MSTORE ADD SWAP3 ADD SWAP2 PUSH2 0x3C2 JUMP JUMPDEST SWAP1 POP PUSH1 0x20 DUP2 RETURNDATASIZE DUP3 GT PUSH2 0x53C JUMPI JUMPDEST DUP2 PUSH2 0x52D PUSH1 0x20 SWAP4 DUP4 PUSH2 0xC87 JUMP JUMPDEST DUP2 ADD SUB SLT PUSH2 0x198 JUMPI MLOAD PUSH0 PUSH2 0x26B JUMP JUMPDEST RETURNDATASIZE SWAP2 POP PUSH2 0x520 JUMP JUMPDEST POP PUSH1 0x40 PUSH2 0x551 DUP5 DUP8 PUSH2 0xFDE JUMP JUMPDEST MLOAD ADD MLOAD ISZERO DUP1 ISZERO PUSH2 0x57A JUMPI JUMPDEST DUP1 ISZERO PUSH2 0x222 JUMPI POP DUP4 PUSH1 0x20 PUSH2 0x570 DUP6 DUP9 PUSH2 0xFDE JUMP JUMPDEST MLOAD ADD MLOAD GT ISZERO PUSH2 0x222 JUMP JUMPDEST POP DUP6 PUSH1 0x40 PUSH2 0x588 DUP6 DUP9 PUSH2 0xFDE JUMP JUMPDEST MLOAD ADD MLOAD LT ISZERO PUSH2 0x55C JUMP JUMPDEST DUP5 DUP8 PUSH2 0x59D DUP2 PUSH2 0xFF2 JUMP JUMPDEST SWAP2 PUSH0 JUMPDEST DUP3 DUP2 LT PUSH2 0x6B4 JUMPI DUP4 PUSH1 0x40 MLOAD DUP1 SWAP2 PUSH1 0x20 DUP3 ADD PUSH1 0x20 DUP4 MSTORE DUP2 MLOAD DUP1 SWAP2 MSTORE PUSH1 0x40 DUP4 ADD SWAP1 PUSH1 0x20 PUSH1 0x40 DUP3 PUSH1 0x5 SHL DUP7 ADD ADD SWAP4 ADD SWAP2 PUSH0 SWAP1 JUMPDEST DUP3 DUP3 LT PUSH2 0x5DF JUMPI POP POP POP POP SUB SWAP1 RETURN JUMPDEST SWAP2 SWAP4 PUSH1 0x1 SWAP2 SWAP4 SWAP6 POP PUSH1 0x20 DUP1 SWAP2 PUSH1 0x3F NOT DUP10 DUP3 SUB ADD DUP6 MSTORE DUP8 MLOAD SWAP1 DUP2 MLOAD DUP2 MSTORE DUP3 DUP3 ADD MLOAD DUP4 DUP3 ADD MSTORE PUSH2 0x1C0 DUP1 PUSH2 0x622 PUSH1 0x40 DUP6 ADD MLOAD PUSH2 0x1E0 PUSH1 0x40 DUP7 ADD MSTORE PUSH2 0x1E0 DUP6 ADD SWAP1 PUSH2 0xD74 JUMP JUMPDEST SWAP4 PUSH1 0x60 DUP2 ADD MLOAD PUSH1 0x60 DUP6 ADD MSTORE PUSH1 0x80 DUP2 ADD MLOAD PUSH1 0x80 DUP6 ADD MSTORE PUSH1 0xA0 DUP2 ADD MLOAD PUSH1 0xA0 DUP6 ADD MSTORE PUSH1 0xC0 DUP2 ADD MLOAD PUSH1 0xC0 DUP6 ADD MSTORE PUSH1 0xE0 DUP2 ADD MLOAD PUSH1 0xE0 DUP6 ADD MSTORE PUSH2 0x100 DUP2 ADD MLOAD PUSH2 0x100 DUP6 ADD MSTORE PUSH2 0x120 DUP2 ADD MLOAD PUSH2 0x120 DUP6 ADD MSTORE PUSH2 0x140 DUP2 ADD MLOAD PUSH2 0x140 DUP6 ADD MSTORE PUSH2 0x160 DUP2 ADD MLOAD ISZERO ISZERO PUSH2 0x160 DUP6 ADD MSTORE PUSH2 0x180 DUP2 ADD MLOAD PUSH2 0x180 DUP6 ADD MSTORE PUSH2 0x1A0 DUP2 ADD MLOAD PUSH2 0x1A0 DUP6 ADD MSTORE ADD MLOAD SWAP2 ADD MSTORE SWAP7 ADD SWAP3 ADD SWAP3 ADD DUP6 SWAP5 SWAP4 SWAP2 SWAP3 PUSH2 0x5D0 JUMP JUMPDEST DUP1 PUSH2 0x6C1 PUSH1 0x1 SWAP3 DUP5 PUSH2 0xFDE JUMP JUMPDEST MLOAD PUSH2 0x6CC DUP3 DUP8 PUSH2 0xFDE JUMP JUMPDEST MSTORE PUSH2 0x6D7 DUP2 DUP7 PUSH2 0xFDE JUMP JUMPDEST POP ADD PUSH2 0x5A0 JUMP JUMPDEST DUP4 DUP2 LT ISZERO SWAP3 POP PUSH2 0xED JUMP JUMPDEST PUSH1 0x3 PUSH1 0x20 PUSH1 0x1 SWAP3 PUSH1 0x40 MLOAD PUSH2 0x6FC DUP2 PUSH2 0xC50 JUMP JUMPDEST DUP5 DUP1 PUSH1 0xA0 SHL SUB DUP7 SLOAD AND DUP2 MSTORE DUP5 DUP7 ADD SLOAD DUP4 DUP3 ADD MSTORE PUSH1 0x2 DUP7 ADD SLOAD PUSH1 0x40 DUP3 ADD MSTORE DUP2 MSTORE ADD SWAP3 ADD SWAP3 ADD SWAP2 SWAP1 PUSH2 0xCC JUMP JUMPDEST CALLVALUE PUSH2 0x198 JUMPI PUSH1 0x40 CALLDATASIZE PUSH1 0x3 NOT ADD SLT PUSH2 0x198 JUMPI PUSH1 0x4 CALLDATALOAD PUSH1 0x1 PUSH1 0x1 PUSH1 0x40 SHL SUB DUP2 GT PUSH2 0x198 JUMPI PUSH2 0x757 SWAP1 CALLDATASIZE SWAP1 PUSH1 0x4 ADD PUSH2 0xDE9 JUMP JUMPDEST PUSH1 0x24 CALLDATALOAD PUSH1 0x1 PUSH1 0x1 PUSH1 0x40 SHL SUB DUP2 GT PUSH2 0x198 JUMPI DUP1 PUSH1 0x4 ADD DUP2 CALLDATASIZE SUB PUSH2 0x200 PUSH1 0x3 NOT DUP3 ADD SLT PUSH2 0x198 JUMPI PUSH1 0x40 MLOAD SWAP3 DUP5 MLOAD SWAP4 PUSH1 0x20 DUP2 DUP2 DUP9 ADD SWAP7 DUP1 DUP9 DUP4 MCOPY DUP2 ADD PUSH0 DUP2 MSTORE SUB ADD SWAP1 KECCAK256 SWAP2 DUP3 SLOAD SWAP2 PUSH2 0x7A6 DUP4 ISZERO ISZERO PUSH2 0xE4B JUMP JUMPDEST PUSH1 0x64 DUP2 ADD CALLDATALOAD SWAP2 PUSH1 0x22 NOT ADD DUP3 SLT ISZERO PUSH2 0x198 JUMPI ADD PUSH1 0x4 DUP2 ADD CALLDATALOAD SWAP1 PUSH1 0x1 PUSH1 0x1 PUSH1 0x40 SHL SUB DUP3 GT PUSH2 0x198 JUMPI PUSH1 0x24 ADD DUP2 CALLDATASIZE SUB DUP2 SGT PUSH2 0x198 JUMPI PUSH2 0x7E3 SWAP2 CALLDATASIZE SWAP2 PUSH2 0xDB3 JUMP JUMPDEST PUSH1 0x20 DUP2 MLOAD SWAP2 ADD KECCAK256 DUP6 MLOAD DUP6 KECCAK256 SUB PUSH2 0xA33 JUMPI PUSH0 NOT DUP2 ADD SWAP1 DUP2 GT PUSH2 0x15B JUMPI PUSH2 0x807 SWAP2 PUSH2 0xE07 JUMP JUMPDEST POP DUP1 SLOAD PUSH1 0x40 MLOAD PUSH4 0xC3E3BFE5 PUSH1 0xE0 SHL DUP2 MSTORE SWAP1 PUSH1 0x20 SWAP1 DUP3 SWAP1 PUSH1 0x1 PUSH1 0x1 PUSH1 0xA0 SHL SUB AND DUP2 PUSH0 DUP2 PUSH2 0x836 DUP10 PUSH1 0x4 DUP4 ADD PUSH2 0xEEE JUMP JUMPDEST SUB SWAP3 GAS CALL SWAP1 DUP2 ISZERO PUSH2 0x1A4 JUMPI PUSH0 SWAP2 PUSH2 0x9F9 JUMPI JUMPDEST POP ISZERO PUSH2 0x850 JUMPI STOP JUMPDEST PUSH1 0x2 TIMESTAMP SWAP2 ADD SSTORE PUSH1 0x40 MLOAD PUSH2 0xF81 DUP1 DUP3 ADD DUP3 DUP2 LT PUSH1 0x1 PUSH1 0x1 PUSH1 0x40 SHL SUB DUP3 GT OR PUSH2 0x9E5 JUMPI PUSH1 0x20 PUSH2 0x888 SWAP2 DUP5 SWAP4 PUSH2 0x10A4 DUP6 CODECOPY DUP2 DUP2 MSTORE ADD DUP7 PUSH2 0xD74 JUMP JUMPDEST SUB SWAP1 PUSH0 CREATE SWAP2 DUP3 ISZERO PUSH2 0x1A4 JUMPI PUSH1 0x20 PUSH1 0x40 MLOAD DUP1 SWAP3 DUP7 MLOAD DUP1 SWAP2 DUP4 MCOPY DUP2 ADD PUSH0 DUP2 MSTORE SUB ADD SWAP1 KECCAK256 SWAP2 PUSH1 0x1 DUP1 PUSH1 0xA0 SHL SUB AND PUSH1 0x40 MLOAD SWAP2 PUSH2 0x8BF DUP4 PUSH2 0xC50 JUMP JUMPDEST DUP2 DUP4 MSTORE PUSH1 0x20 DUP4 ADD SWAP4 TIMESTAMP DUP6 MSTORE PUSH1 0x40 DUP5 ADD SWAP1 PUSH0 DUP3 MSTORE DUP1 SLOAD PUSH9 0x10000000000000000 DUP2 LT ISZERO PUSH2 0x9E5 JUMPI PUSH2 0x8F4 SWAP2 PUSH1 0x1 DUP3 ADD DUP2 SSTORE PUSH2 0xE07 JUMP JUMPDEST SWAP6 SWAP1 SWAP6 PUSH2 0x9D2 JUMPI PUSH0 SWAP7 PUSH1 0x20 SWAP7 PUSH1 0x2 PUSH32 0xF8FC7B546285327F0096673F943D0B65DC7436F2818B7DAA763C532348A73DEA SWAP5 PUSH2 0x96A SWAP5 PUSH2 0x98E SWAP10 PUSH1 0x1 DUP1 PUSH1 0xA0 SHL SUB SWAP1 MLOAD AND PUSH12 0xFFFFFFFFFFFFFFFFFFFFFFFF PUSH1 0xA0 SHL DUP6 SLOAD AND OR DUP5 SSTORE MLOAD PUSH1 0x1 DUP5 ADD SSTORE MLOAD SWAP2 ADD SSTORE PUSH1 0x40 MLOAD SWAP2 DUP3 SWAP2 PUSH1 0x40 DUP4 MSTORE PUSH1 0x40 DUP4 ADD SWAP1 PUSH2 0xD74 JUMP JUMPDEST DUP6 DUP9 DUP4 ADD MSTORE SUB SWAP1 LOG1 PUSH1 0x40 MLOAD SWAP5 DUP6 DUP1 SWAP5 DUP2 SWAP4 PUSH4 0xC3E3BFE5 PUSH1 0xE0 SHL DUP4 MSTORE PUSH1 0x4 DUP4 ADD PUSH2 0xEEE JUMP JUMPDEST SUB SWAP3 GAS CALL DUP1 ISZERO PUSH2 0x1A4 JUMPI PUSH2 0x99E JUMPI STOP JUMPDEST PUSH1 0x20 DUP2 RETURNDATASIZE PUSH1 0x20 GT PUSH2 0x9CA JUMPI JUMPDEST DUP2 PUSH2 0x9B7 PUSH1 0x20 SWAP4 DUP4 PUSH2 0xC87 JUMP JUMPDEST DUP2 ADD SUB SLT PUSH2 0x198 JUMPI PUSH2 0x9C8 SWAP1 PUSH2 0xE90 JUMP JUMPDEST STOP JUMPDEST RETURNDATASIZE SWAP2 POP PUSH2 0x9AA JUMP JUMPDEST PUSH4 0x4E487B71 PUSH1 0xE0 SHL PUSH0 MSTORE PUSH0 PUSH1 0x4 MSTORE PUSH1 0x24 PUSH0 REVERT JUMPDEST PUSH4 0x4E487B71 PUSH1 0xE0 SHL PUSH0 MSTORE PUSH1 0x41 PUSH1 0x4 MSTORE PUSH1 0x24 PUSH0 REVERT JUMPDEST SWAP1 POP PUSH1 0x20 DUP2 RETURNDATASIZE PUSH1 0x20 GT PUSH2 0xA2B JUMPI JUMPDEST DUP2 PUSH2 0xA14 PUSH1 0x20 SWAP4 DUP4 PUSH2 0xC87 JUMP JUMPDEST DUP2 ADD SUB SLT PUSH2 0x198 JUMPI PUSH2 0xA25 SWAP1 PUSH2 0xE90 JUMP JUMPDEST DUP6 PUSH2 0x848 JUMP JUMPDEST RETURNDATASIZE SWAP2 POP PUSH2 0xA07 JUMP JUMPDEST PUSH1 0x40 MLOAD PUSH3 0x461BCD PUSH1 0xE5 SHL DUP2 MSTORE PUSH1 0x20 PUSH1 0x4 DUP3 ADD MSTORE PUSH1 0x1D PUSH1 0x24 DUP3 ADD MSTORE PUSH32 0x4B6C696E6520696E74657276616C20646F6573206E6F74206D61746368000000 PUSH1 0x44 DUP3 ADD MSTORE PUSH1 0x64 SWAP1 REVERT JUMPDEST CALLVALUE PUSH2 0x198 JUMPI PUSH1 0x40 CALLDATASIZE PUSH1 0x3 NOT ADD SLT PUSH2 0x198 JUMPI PUSH1 0x4 CALLDATALOAD PUSH1 0x1 PUSH1 0x1 PUSH1 0x40 SHL SUB DUP2 GT PUSH2 0x198 JUMPI PUSH2 0xAA8 SWAP1 CALLDATASIZE SWAP1 PUSH1 0x4 ADD PUSH2 0xDE9 JUMP JUMPDEST PUSH1 0x40 MLOAD DUP2 MLOAD PUSH1 0x24 CALLDATALOAD SWAP3 PUSH1 0x20 SWAP2 DUP4 SWAP2 DUP2 SWAP1 DUP5 ADD DUP4 MCOPY DUP2 ADD PUSH0 DUP2 MSTORE SUB ADD SWAP1 KECCAK256 DUP1 SLOAD DUP3 LT ISZERO PUSH2 0x198 JUMPI PUSH1 0x60 SWAP2 PUSH2 0xADA SWAP2 PUSH2 0xE07 JUMP JUMPDEST POP PUSH1 0x1 DUP1 PUSH1 0xA0 SHL SUB DUP2 SLOAD AND SWAP1 PUSH1 0x2 PUSH1 0x1 DUP3 ADD SLOAD SWAP2 ADD SLOAD SWAP1 PUSH1 0x40 MLOAD SWAP3 DUP4 MSTORE PUSH1 0x20 DUP4 ADD MSTORE PUSH1 0x40 DUP3 ADD MSTORE RETURN JUMPDEST CALLVALUE PUSH2 0x198 JUMPI PUSH0 CALLDATASIZE PUSH1 0x3 NOT ADD SLT PUSH2 0x198 JUMPI PUSH1 0x1 SLOAD PUSH2 0xB1F DUP2 PUSH2 0xE34 JUMP JUMPDEST SWAP1 PUSH2 0xB2D PUSH1 0x40 MLOAD SWAP3 DUP4 PUSH2 0xC87 JUMP JUMPDEST DUP1 DUP3 MSTORE PUSH1 0x20 DUP3 ADD SWAP1 DUP2 PUSH1 0x1 PUSH0 MSTORE PUSH32 0xB10E2D527612073B26EECDFD717E6A320CF44B4AFAC2B0732D9FCBE2B7FA0CF6 PUSH0 SWAP2 JUMPDEST DUP4 DUP4 LT PUSH2 0xBCB JUMPI DUP5 DUP7 PUSH1 0x40 MLOAD SWAP2 DUP3 SWAP2 PUSH1 0x20 DUP4 ADD SWAP1 PUSH1 0x20 DUP5 MSTORE MLOAD DUP1 SWAP2 MSTORE PUSH1 0x40 DUP4 ADD SWAP1 PUSH1 0x40 DUP2 PUSH1 0x5 SHL DUP6 ADD ADD SWAP3 SWAP2 PUSH0 SWAP1 JUMPDEST DUP3 DUP3 LT PUSH2 0xB9C JUMPI POP POP POP POP SUB SWAP1 RETURN JUMPDEST SWAP2 SWAP4 PUSH1 0x1 SWAP2 SWAP4 SWAP6 POP PUSH1 0x20 PUSH2 0xBBB DUP2 SWAP3 PUSH1 0x3F NOT DUP11 DUP3 SUB ADD DUP7 MSTORE DUP9 MLOAD PUSH2 0xD74 JUMP JUMPDEST SWAP7 ADD SWAP3 ADD SWAP3 ADD DUP6 SWAP5 SWAP4 SWAP2 SWAP3 PUSH2 0xB8D JUMP JUMPDEST PUSH1 0x1 PUSH1 0x20 DUP2 SWAP3 PUSH2 0xBDA DUP6 PUSH2 0xCA8 JUMP JUMPDEST DUP2 MSTORE ADD SWAP3 ADD SWAP3 ADD SWAP2 SWAP1 PUSH2 0xB5E JUMP JUMPDEST CALLVALUE PUSH2 0x198 JUMPI PUSH1 0x20 CALLDATASIZE PUSH1 0x3 NOT ADD SLT PUSH2 0x198 JUMPI PUSH1 0x4 CALLDATALOAD PUSH1 0x1 SLOAD DUP2 LT ISZERO PUSH2 0x198 JUMPI PUSH2 0xC38 PUSH2 0xC4C SWAP2 PUSH1 0x1 PUSH0 MSTORE PUSH32 0xB10E2D527612073B26EECDFD717E6A320CF44B4AFAC2B0732D9FCBE2B7FA0CF6 ADD PUSH2 0xCA8 JUMP JUMPDEST PUSH1 0x40 MLOAD SWAP2 DUP3 SWAP2 PUSH1 0x20 DUP4 MSTORE PUSH1 0x20 DUP4 ADD SWAP1 PUSH2 0xD74 JUMP JUMPDEST SUB SWAP1 RETURN JUMPDEST PUSH1 0x60 DUP2 ADD SWAP1 DUP2 LT PUSH1 0x1 PUSH1 0x1 PUSH1 0x40 SHL SUB DUP3 GT OR PUSH2 0x9E5 JUMPI PUSH1 0x40 MSTORE JUMP JUMPDEST PUSH2 0x1E0 DUP2 ADD SWAP1 DUP2 LT PUSH1 0x1 PUSH1 0x1 PUSH1 0x40 SHL SUB DUP3 GT OR PUSH2 0x9E5 JUMPI PUSH1 0x40 MSTORE JUMP JUMPDEST SWAP1 PUSH1 0x1F DUP1 NOT SWAP2 ADD AND DUP2 ADD SWAP1 DUP2 LT PUSH1 0x1 PUSH1 0x1 PUSH1 0x40 SHL SUB DUP3 GT OR PUSH2 0x9E5 JUMPI PUSH1 0x40 MSTORE JUMP JUMPDEST SWAP1 PUSH1 0x40 MLOAD SWAP2 PUSH0 DUP2 SLOAD SWAP1 DUP2 PUSH1 0x1 SHR SWAP3 PUSH1 0x1 DUP4 AND SWAP3 DUP4 ISZERO PUSH2 0xD6A JUMPI JUMPDEST PUSH1 0x20 DUP6 LT DUP5 EQ PUSH2 0xD56 JUMPI DUP5 DUP8 MSTORE DUP7 SWAP4 SWAP1 DUP2 ISZERO PUSH2 0xD34 JUMPI POP PUSH1 0x1 EQ PUSH2 0xCF0 JUMPI JUMPDEST POP PUSH2 0xCEE SWAP3 POP SUB DUP4 PUSH2 0xC87 JUMP JUMPDEST JUMP JUMPDEST SWAP1 POP PUSH0 SWAP3 SWAP2 SWAP3 MSTORE PUSH1 0x20 PUSH0 KECCAK256 SWAP1 PUSH0 SWAP2 JUMPDEST DUP2 DUP4 LT PUSH2 0xD18 JUMPI POP POP SWAP1 PUSH1 0x20 PUSH2 0xCEE SWAP3 DUP3 ADD ADD PUSH0 PUSH2 0xCE1 JUMP JUMPDEST PUSH1 0x20 SWAP2 SWAP4 POP DUP1 PUSH1 0x1 SWAP2 SLOAD DUP4 DUP6 DUP10 ADD ADD MSTORE ADD SWAP2 ADD SWAP1 SWAP2 DUP5 SWAP3 PUSH2 0xCFF JUMP JUMPDEST SWAP1 POP PUSH1 0x20 SWAP3 POP PUSH2 0xCEE SWAP5 SWAP2 POP PUSH1 0xFF NOT AND DUP3 DUP5 ADD MSTORE ISZERO ISZERO PUSH1 0x5 SHL DUP3 ADD ADD PUSH0 PUSH2 0xCE1 JUMP JUMPDEST PUSH4 0x4E487B71 PUSH1 0xE0 SHL PUSH0 MSTORE PUSH1 0x22 PUSH1 0x4 MSTORE PUSH1 0x24 PUSH0 REVERT JUMPDEST SWAP4 PUSH1 0x7F AND SWAP4 PUSH2 0xCC2 JUMP JUMPDEST DUP1 MLOAD DUP1 DUP4 MSTORE PUSH1 0x20 SWAP3 SWAP2 DUP2 SWAP1 DUP5 ADD DUP5 DUP5 ADD MCOPY PUSH0 DUP3 DUP3 ADD DUP5 ADD MSTORE PUSH1 0x1F ADD PUSH1 0x1F NOT AND ADD ADD SWAP1 JUMP JUMPDEST PUSH1 0x1 PUSH1 0x1 PUSH1 0x40 SHL SUB DUP2 GT PUSH2 0x9E5 JUMPI PUSH1 0x1F ADD PUSH1 0x1F NOT AND PUSH1 0x20 ADD SWAP1 JUMP JUMPDEST SWAP3 SWAP2 SWAP3 PUSH2 0xDBF DUP3 PUSH2 0xD98 JUMP JUMPDEST SWAP2 PUSH2 0xDCD PUSH1 0x40 MLOAD SWAP4 DUP5 PUSH2 0xC87 JUMP JUMPDEST DUP3 SWAP5 DUP2 DUP5 MSTORE DUP2 DUP4 ADD GT PUSH2 0x198 JUMPI DUP3 DUP2 PUSH1 0x20 SWAP4 DUP5 PUSH0 SWAP7 ADD CALLDATACOPY ADD ADD MSTORE JUMP JUMPDEST SWAP1 DUP1 PUSH1 0x1F DUP4 ADD SLT ISZERO PUSH2 0x198 JUMPI DUP2 PUSH1 0x20 PUSH2 0xE04 SWAP4 CALLDATALOAD SWAP2 ADD PUSH2 0xDB3 JUMP JUMPDEST SWAP1 JUMP JUMPDEST DUP1 SLOAD DUP3 LT ISZERO PUSH2 0xE20 JUMPI PUSH0 MSTORE PUSH1 0x3 PUSH1 0x20 PUSH0 KECCAK256 SWAP2 MUL ADD SWAP1 PUSH0 SWAP1 JUMP JUMPDEST PUSH4 0x4E487B71 PUSH1 0xE0 SHL PUSH0 MSTORE PUSH1 0x32 PUSH1 0x4 MSTORE PUSH1 0x24 PUSH0 REVERT JUMPDEST PUSH1 0x1 PUSH1 0x1 PUSH1 0x40 SHL SUB DUP2 GT PUSH2 0x9E5 JUMPI PUSH1 0x5 SHL PUSH1 0x20 ADD SWAP1 JUMP JUMPDEST ISZERO PUSH2 0xE52 JUMPI JUMP JUMPDEST PUSH1 0x40 MLOAD PUSH3 0x461BCD PUSH1 0xE5 SHL DUP2 MSTORE PUSH1 0x20 PUSH1 0x4 DUP3 ADD MSTORE PUSH1 0x16 PUSH1 0x24 DUP3 ADD MSTORE PUSH22 0x125B9D195C9D985B081B9BDD081CDD5C1C1BDC9D1959 PUSH1 0x52 SHL PUSH1 0x44 DUP3 ADD MSTORE PUSH1 0x64 SWAP1 REVERT JUMPDEST MLOAD SWAP1 DUP2 ISZERO ISZERO DUP3 SUB PUSH2 0x198 JUMPI JUMP JUMPDEST SWAP1 CALLDATALOAD PUSH1 0x1E NOT DUP3 CALLDATASIZE SUB ADD DUP2 SLT ISZERO PUSH2 0x198 JUMPI ADD PUSH1 0x20 DUP2 CALLDATALOAD SWAP2 ADD SWAP2 PUSH1 0x1 PUSH1 0x1 PUSH1 0x40 SHL SUB DUP3 GT PUSH2 0x198 JUMPI DUP2 CALLDATASIZE SUB DUP4 SGT PUSH2 0x198 JUMPI JUMP JUMPDEST SWAP1 DUP1 PUSH1 0x20 SWAP4 SWAP3 DUP2 DUP5 MSTORE DUP5 DUP5 ADD CALLDATACOPY PUSH0 DUP3 DUP3 ADD DUP5 ADD MSTORE PUSH1 0x1F ADD PUSH1 0x1F NOT AND ADD ADD SWAP1 JUMP JUMPDEST PUSH1 0x20 DUP2 MSTORE DUP2 CALLDATALOAD PUSH1 0x20 DUP3 ADD MSTORE PUSH1 0x20 DUP3 ADD CALLDATALOAD PUSH1 0x40 DUP3 ADD MSTORE PUSH2 0xF48 PUSH2 0xF29 PUSH2 0xF16 PUSH1 0x40 DUP6 ADD DUP6 PUSH2 0xE9D JUMP JUMPDEST PUSH2 0x200 PUSH1 0x60 DUP7 ADD MSTORE PUSH2 0x220 DUP6 ADD SWAP2 PUSH2 0xECE JUMP JUMPDEST PUSH2 0xF36 PUSH1 0x60 DUP6 ADD DUP6 PUSH2 0xE9D JUMP JUMPDEST DUP5 DUP4 SUB PUSH1 0x1F NOT ADD PUSH1 0x80 DUP7 ADD MSTORE SWAP1 PUSH2 0xECE JUMP JUMPDEST SWAP2 PUSH1 0x80 DUP2 ADD CALLDATALOAD PUSH1 0xA0 DUP4 ADD MSTORE PUSH1 0xA0 DUP2 ADD CALLDATALOAD PUSH1 0xC0 DUP4 ADD MSTORE PUSH1 0xC0 DUP2 ADD CALLDATALOAD PUSH1 0xE0 DUP4 ADD MSTORE PUSH1 0xE0 DUP2 ADD CALLDATALOAD PUSH2 0x100 DUP4 ADD MSTORE PUSH2 0x100 DUP2 ADD CALLDATALOAD PUSH2 0x120 DUP4 ADD MSTORE PUSH2 0x120 DUP2 ADD CALLDATALOAD PUSH2 0x140 DUP4 ADD MSTORE PUSH2 0x140 DUP2 ADD CALLDATALOAD PUSH2 0x160 DUP4 ADD MSTORE PUSH2 0x160 DUP2 ADD CALLDATALOAD PUSH2 0x180 DUP4 ADD MSTORE PUSH2 0x180 DUP2 ADD CALLDATALOAD DUP1 ISZERO ISZERO DUP1 SWAP2 SUB PUSH2 0x198 JUMPI PUSH2 0x200 SWAP2 PUSH2 0x1E0 SWAP2 PUSH2 0x1A0 DUP6 ADD MSTORE PUSH2 0x1A0 DUP2 ADD CALLDATALOAD PUSH2 0x1C0 DUP6 ADD MSTORE PUSH2 0x1C0 DUP2 ADD CALLDATALOAD DUP3 DUP6 ADD MSTORE ADD CALLDATALOAD SWAP2 ADD MSTORE SWAP1 JUMP JUMPDEST DUP1 MLOAD DUP3 LT ISZERO PUSH2 0xE20 JUMPI PUSH1 0x20 SWAP2 PUSH1 0x5 SHL ADD ADD SWAP1 JUMP JUMPDEST SWAP1 PUSH2 0xFFC DUP3 PUSH2 0xE34 JUMP JUMPDEST PUSH2 0x1009 PUSH1 0x40 MLOAD SWAP2 DUP3 PUSH2 0xC87 JUMP JUMPDEST DUP3 DUP2 MSTORE DUP1 SWAP3 PUSH2 0x101A PUSH1 0x1F NOT SWAP2 PUSH2 0xE34 JUMP JUMPDEST ADD SWAP1 PUSH0 JUMPDEST DUP3 DUP2 LT PUSH2 0x102A JUMPI POP POP POP JUMP JUMPDEST PUSH1 0x20 SWAP1 PUSH1 0x40 MLOAD PUSH2 0x1039 DUP2 PUSH2 0xC6B JUMP JUMPDEST PUSH0 DUP2 MSTORE PUSH0 DUP4 DUP3 ADD MSTORE PUSH1 0x60 PUSH1 0x40 DUP3 ADD MSTORE PUSH0 PUSH1 0x60 DUP3 ADD MSTORE PUSH0 PUSH1 0x80 DUP3 ADD MSTORE PUSH0 PUSH1 0xA0 DUP3 ADD MSTORE PUSH0 PUSH1 0xC0 DUP3 ADD MSTORE PUSH0 PUSH1 0xE0 DUP3 ADD MSTORE PUSH0 PUSH2 0x100 DUP3 ADD MSTORE PUSH0 PUSH2 0x120 DUP3 ADD MSTORE PUSH0 PUSH2 0x140 DUP3 ADD MSTORE PUSH0 PUSH2 0x160 DUP3 ADD MSTORE PUSH0 PUSH2 0x180 DUP3 ADD MSTORE PUSH0 PUSH2 0x1A0 DUP3 ADD MSTORE PUSH0 PUSH2 0x1C0 DUP3 ADD MSTORE DUP3 DUP3 DUP6 ADD ADD MSTORE ADD PUSH2 0x101E JUMP INVALID PUSH1 0x80 PUSH1 0x40 MSTORE CALLVALUE PUSH2 0x20B JUMPI PUSH2 0xF81 DUP1 CODESIZE SUB DUP1 PUSH2 0x19 DUP2 PUSH2 0x20F JUMP JUMPDEST SWAP3 DUP4 CODECOPY DUP2 ADD SWAP1 PUSH1 0x20 DUP2 DUP4 SUB SLT PUSH2 0x20B JUMPI DUP1 MLOAD SWAP1 PUSH1 0x1 PUSH1 0x1 PUSH1 0x40 SHL SUB DUP3 GT PUSH2 0x20B JUMPI ADD DUP2 PUSH1 0x1F DUP3 ADD SLT ISZERO PUSH2 0x20B JUMPI DUP1 MLOAD SWAP1 PUSH1 0x1 PUSH1 0x1 PUSH1 0x40 SHL SUB DUP3 GT PUSH2 0x1F7 JUMPI PUSH2 0x6A PUSH1 0x1F DUP4 ADD PUSH1 0x1F NOT AND PUSH1 0x20 ADD PUSH2 0x20F JUMP JUMPDEST SWAP3 DUP3 DUP5 MSTORE PUSH1 0x20 DUP4 DUP4 ADD ADD GT PUSH2 0x20B JUMPI DUP2 PUSH0 SWAP3 PUSH1 0x20 DUP1 SWAP4 ADD DUP4 DUP7 ADD MCOPY DUP4 ADD ADD MSTORE PUSH1 0x1 DUP1 SLOAD PUSH1 0x1 PUSH1 0x1 PUSH1 0xA0 SHL SUB NOT AND CALLER OR SWAP1 SSTORE DUP1 MLOAD PUSH1 0x1 PUSH1 0x1 PUSH1 0x40 SHL SUB DUP2 GT PUSH2 0x1F7 JUMPI PUSH1 0x2 SLOAD PUSH1 0x1 DUP2 DUP2 SHR SWAP2 AND DUP1 ISZERO PUSH2 0x1ED JUMPI JUMPDEST PUSH1 0x20 DUP3 LT EQ PUSH2 0x1D9 JUMPI PUSH1 0x1F DUP2 GT PUSH2 0x176 JUMPI JUMPDEST POP PUSH1 0x20 SWAP2 PUSH1 0x1F DUP3 GT PUSH1 0x1 EQ PUSH2 0x116 JUMPI SWAP2 DUP2 SWAP3 PUSH0 SWAP3 PUSH2 0x10B JUMPI JUMPDEST POP POP DUP2 PUSH1 0x1 SHL SWAP2 PUSH0 NOT SWAP1 PUSH1 0x3 SHL SHR NOT AND OR PUSH1 0x2 SSTORE JUMPDEST PUSH1 0x40 MLOAD PUSH2 0xD4C SWAP1 DUP2 PUSH2 0x235 DUP3 CODECOPY RETURN JUMPDEST ADD MLOAD SWAP1 POP PUSH0 DUP1 PUSH2 0xE7 JUMP JUMPDEST PUSH1 0x1F NOT DUP3 AND SWAP3 PUSH1 0x2 PUSH0 MSTORE DUP1 PUSH0 KECCAK256 SWAP2 PUSH0 JUMPDEST DUP6 DUP2 LT PUSH2 0x15E JUMPI POP DUP4 PUSH1 0x1 SWAP6 LT PUSH2 0x146 JUMPI JUMPDEST POP POP POP DUP2 SHL ADD PUSH1 0x2 SSTORE PUSH2 0xFC JUMP JUMPDEST ADD MLOAD PUSH0 NOT PUSH1 0xF8 DUP5 PUSH1 0x3 SHL AND SHR NOT AND SWAP1 SSTORE PUSH0 DUP1 DUP1 PUSH2 0x138 JUMP JUMPDEST SWAP2 SWAP3 PUSH1 0x20 PUSH1 0x1 DUP2 SWAP3 DUP7 DUP6 ADD MLOAD DUP2 SSTORE ADD SWAP5 ADD SWAP3 ADD PUSH2 0x126 JUMP JUMPDEST PUSH1 0x2 PUSH0 MSTORE PUSH32 0x405787FA12A823E0F2B7631CC41B3BA8828B3321CA811111FA75CD3AA3BB5ACE PUSH1 0x1F DUP4 ADD PUSH1 0x5 SHR DUP2 ADD SWAP2 PUSH1 0x20 DUP5 LT PUSH2 0x1CF JUMPI JUMPDEST PUSH1 0x1F ADD PUSH1 0x5 SHR ADD SWAP1 JUMPDEST DUP2 DUP2 LT PUSH2 0x1C4 JUMPI POP PUSH2 0xCE JUMP JUMPDEST PUSH0 DUP2 SSTORE PUSH1 0x1 ADD PUSH2 0x1B7 JUMP JUMPDEST SWAP1 SWAP2 POP DUP2 SWAP1 PUSH2 0x1AE JUMP JUMPDEST PUSH4 0x4E487B71 PUSH1 0xE0 SHL PUSH0 MSTORE PUSH1 0x22 PUSH1 0x4 MSTORE PUSH1 0x24 PUSH0 REVERT JUMPDEST SWAP1 PUSH1 0x7F AND SWAP1 PUSH2 0xBC JUMP JUMPDEST PUSH4 0x4E487B71 PUSH1 0xE0 SHL PUSH0 MSTORE PUSH1 0x41 PUSH1 0x4 MSTORE PUSH1 0x24 PUSH0 REVERT JUMPDEST PUSH0 DUP1 REVERT JUMPDEST PUSH1 0x40 MLOAD SWAP2 SWAP1 PUSH1 0x1F ADD PUSH1 0x1F NOT AND DUP3 ADD PUSH1 0x1 PUSH1 0x1 PUSH1 0x40 SHL SUB DUP2 GT DUP4 DUP3 LT OR PUSH2 0x1F7 JUMPI PUSH1 0x40 MSTORE JUMP INVALID PUSH1 0x80 DUP1 PUSH1 0x40 MSTORE PUSH1 0x4 CALLDATASIZE LT ISZERO PUSH2 0x12 JUMPI PUSH0 DUP1 REVERT JUMPDEST PUSH0 CALLDATALOAD PUSH1 0xE0 SHR SWAP1 DUP2 PUSH4 0x36B275E9 EQ PUSH2 0x6AD JUMPI POP DUP1 PUSH4 0x48BAE592 EQ PUSH2 0x691 JUMPI DUP1 PUSH4 0x6CFCDCA7 EQ PUSH2 0x5A0 JUMPI DUP1 PUSH4 0x947A36FB EQ PUSH2 0x4BE JUMPI DUP1 PUSH4 0xC3E3BFE5 EQ PUSH2 0x411 JUMPI DUP1 PUSH4 0xC45A0155 EQ PUSH2 0x3E9 JUMPI PUSH4 0xFBAD15DC EQ PUSH2 0x69 JUMPI PUSH0 DUP1 REVERT JUMPDEST CALLVALUE PUSH2 0x3E5 JUMPI PUSH1 0x40 CALLDATASIZE PUSH1 0x3 NOT ADD SLT PUSH2 0x3E5 JUMPI PUSH1 0x4 CALLDATALOAD PUSH1 0x24 CALLDATALOAD SWAP1 PUSH0 SLOAD DUP1 DUP3 LT ISZERO PUSH2 0x3AA JUMPI DUP2 DUP4 LT ISZERO SWAP1 DUP2 PUSH2 0x3A0 JUMPI JUMPDEST POP ISZERO PUSH2 0x367 JUMPI DUP1 DUP3 SUB SWAP2 DUP3 GT PUSH2 0x2DA JUMPI PUSH1 0x1 DUP3 ADD DUP1 SWAP3 GT PUSH2 0x2DA JUMPI PUSH2 0xBA DUP3 PUSH2 0xCEA JUMP JUMPDEST SWAP2 PUSH2 0xC8 PUSH1 0x40 MLOAD SWAP4 DUP5 PUSH2 0x77B JUMP JUMPDEST DUP1 DUP4 MSTORE PUSH1 0x1F NOT PUSH2 0xD7 DUP3 PUSH2 0xCEA JUMP JUMPDEST ADD PUSH0 JUMPDEST DUP2 DUP2 LT PUSH2 0x2EE JUMPI POP POP PUSH0 JUMPDEST DUP2 DUP2 LT PUSH2 0x1F9 JUMPI DUP4 PUSH1 0x40 MLOAD DUP1 SWAP2 PUSH1 0x20 DUP3 ADD PUSH1 0x20 DUP4 MSTORE DUP2 MLOAD DUP1 SWAP2 MSTORE PUSH1 0x40 DUP4 ADD SWAP1 PUSH1 0x20 PUSH1 0x40 DUP3 PUSH1 0x5 SHL DUP7 ADD ADD SWAP4 ADD SWAP2 PUSH0 SWAP1 JUMPDEST DUP3 DUP3 LT PUSH2 0x124 JUMPI POP POP POP POP SUB SWAP1 RETURN JUMPDEST SWAP2 SWAP4 PUSH1 0x1 SWAP2 SWAP4 SWAP6 POP PUSH1 0x20 DUP1 SWAP2 PUSH1 0x3F NOT DUP10 DUP3 SUB ADD DUP6 MSTORE DUP8 MLOAD SWAP1 DUP2 MLOAD DUP2 MSTORE DUP3 DUP3 ADD MLOAD DUP4 DUP3 ADD MSTORE PUSH2 0x1C0 DUP1 PUSH2 0x167 PUSH1 0x40 DUP6 ADD MLOAD PUSH2 0x1E0 PUSH1 0x40 DUP7 ADD MSTORE PUSH2 0x1E0 DUP6 ADD SWAP1 PUSH2 0x83D JUMP JUMPDEST SWAP4 PUSH1 0x60 DUP2 ADD MLOAD PUSH1 0x60 DUP6 ADD MSTORE PUSH1 0x80 DUP2 ADD MLOAD PUSH1 0x80 DUP6 ADD MSTORE PUSH1 0xA0 DUP2 ADD MLOAD PUSH1 0xA0 DUP6 ADD MSTORE PUSH1 0xC0 DUP2 ADD MLOAD PUSH1 0xC0 DUP6 ADD MSTORE PUSH1 0xE0 DUP2 ADD MLOAD PUSH1 0xE0 DUP6 ADD MSTORE PUSH2 0x100 DUP2 ADD MLOAD PUSH2 0x100 DUP6 ADD MSTORE PUSH2 0x120 DUP2 ADD MLOAD PUSH2 0x120 DUP6 ADD MSTORE PUSH2 0x140 DUP2 ADD MLOAD PUSH2 0x140 DUP6 ADD MSTORE PUSH2 0x160 DUP2 ADD MLOAD ISZERO ISZERO PUSH2 0x160 DUP6 ADD MSTORE PUSH2 0x180 DUP2 ADD MLOAD PUSH2 0x180 DUP6 ADD MSTORE PUSH2 0x1A0 DUP2 ADD MLOAD PUSH2 0x1A0 DUP6 ADD MSTORE ADD MLOAD SWAP2 ADD MSTORE SWAP7 ADD SWAP3 ADD SWAP3 ADD DUP6 SWAP5 SWAP4 SWAP2 SWAP3 PUSH2 0x115 JUMP JUMPDEST DUP1 DUP4 ADD SWAP1 DUP2 DUP5 GT PUSH2 0x2DA JUMPI PUSH2 0x20F PUSH1 0x1 SWAP3 PUSH2 0x6C6 JUMP JUMPDEST POP PUSH1 0xE PUSH1 0x40 MLOAD SWAP2 PUSH2 0x21F DUP4 PUSH2 0x74A JUMP JUMPDEST DUP1 SLOAD DUP4 MSTORE DUP5 DUP2 ADD SLOAD PUSH1 0x20 DUP5 ADD MSTORE PUSH2 0x238 PUSH1 0x2 DUP3 ADD PUSH2 0x79D JUMP JUMPDEST PUSH1 0x40 DUP5 ADD MSTORE PUSH1 0x3 DUP2 ADD SLOAD PUSH1 0x60 DUP5 ADD MSTORE PUSH1 0x4 DUP2 ADD SLOAD PUSH1 0x80 DUP5 ADD MSTORE PUSH1 0x5 DUP2 ADD SLOAD PUSH1 0xA0 DUP5 ADD MSTORE PUSH1 0x6 DUP2 ADD SLOAD PUSH1 0xC0 DUP5 ADD MSTORE PUSH1 0x7 DUP2 ADD SLOAD PUSH1 0xE0 DUP5 ADD MSTORE PUSH1 0x8 DUP2 ADD SLOAD PUSH2 0x100 DUP5 ADD MSTORE PUSH1 0x9 DUP2 ADD SLOAD PUSH2 0x120 DUP5 ADD MSTORE PUSH1 0xA DUP2 ADD SLOAD PUSH2 0x140 DUP5 ADD MSTORE PUSH1 0xFF PUSH1 0xB DUP3 ADD SLOAD AND ISZERO ISZERO PUSH2 0x160 DUP5 ADD MSTORE PUSH1 0xC DUP2 ADD SLOAD PUSH2 0x180 DUP5 ADD MSTORE PUSH1 0xD DUP2 ADD SLOAD PUSH2 0x1A0 DUP5 ADD MSTORE ADD SLOAD PUSH2 0x1C0 DUP3 ADD MSTORE PUSH2 0x2C8 DUP3 DUP8 PUSH2 0xD02 JUMP JUMPDEST MSTORE PUSH2 0x2D3 DUP2 DUP7 PUSH2 0xD02 JUMP JUMPDEST POP ADD PUSH2 0xE5 JUMP JUMPDEST PUSH4 0x4E487B71 PUSH1 0xE0 SHL PUSH0 MSTORE PUSH1 0x11 PUSH1 0x4 MSTORE PUSH1 0x24 PUSH0 REVERT JUMPDEST PUSH1 0x20 SWAP1 PUSH1 0x40 MLOAD PUSH2 0x2FD DUP2 PUSH2 0x74A JUMP JUMPDEST PUSH0 DUP2 MSTORE PUSH0 DUP4 DUP3 ADD MSTORE PUSH1 0x60 PUSH1 0x40 DUP3 ADD MSTORE PUSH0 PUSH1 0x60 DUP3 ADD MSTORE PUSH0 PUSH1 0x80 DUP3 ADD MSTORE PUSH0 PUSH1 0xA0 DUP3 ADD MSTORE PUSH0 PUSH1 0xC0 DUP3 ADD MSTORE PUSH0 PUSH1 0xE0 DUP3 ADD MSTORE PUSH0 PUSH2 0x100 DUP3 ADD MSTORE PUSH0 PUSH2 0x120 DUP3 ADD MSTORE PUSH0 PUSH2 0x140 DUP3 ADD MSTORE PUSH0 PUSH2 0x160 DUP3 ADD MSTORE PUSH0 PUSH2 0x180 DUP3 ADD MSTORE PUSH0 PUSH2 0x1A0 DUP3 ADD MSTORE PUSH0 PUSH2 0x1C0 DUP3 ADD MSTORE DUP3 DUP3 DUP9 ADD ADD MSTORE ADD PUSH2 0xDA JUMP JUMPDEST PUSH1 0x40 MLOAD PUSH3 0x461BCD PUSH1 0xE5 SHL DUP2 MSTORE PUSH1 0x20 PUSH1 0x4 DUP3 ADD MSTORE PUSH1 0x11 PUSH1 0x24 DUP3 ADD MSTORE PUSH17 0x92DCECC2D8D2C840CADCC840D2DCC8CAF PUSH1 0x7B SHL PUSH1 0x44 DUP3 ADD MSTORE PUSH1 0x64 SWAP1 REVERT JUMPDEST SWAP1 POP DUP3 LT PUSH0 PUSH2 0x96 JUMP JUMPDEST PUSH1 0x40 MLOAD PUSH3 0x461BCD PUSH1 0xE5 SHL DUP2 MSTORE PUSH1 0x20 PUSH1 0x4 DUP3 ADD MSTORE PUSH1 0x13 PUSH1 0x24 DUP3 ADD MSTORE PUSH19 0x92DCECC2D8D2C840E6E8C2E4E840D2DCC8CAF PUSH1 0x6B SHL PUSH1 0x44 DUP3 ADD MSTORE PUSH1 0x64 SWAP1 REVERT JUMPDEST PUSH0 DUP1 REVERT JUMPDEST CALLVALUE PUSH2 0x3E5 JUMPI PUSH0 CALLDATASIZE PUSH1 0x3 NOT ADD SLT PUSH2 0x3E5 JUMPI PUSH1 0x1 SLOAD PUSH1 0x40 MLOAD PUSH1 0x1 PUSH1 0x1 PUSH1 0xA0 SHL SUB SWAP1 SWAP2 AND DUP2 MSTORE PUSH1 0x20 SWAP1 RETURN JUMPDEST CALLVALUE PUSH2 0x3E5 JUMPI PUSH1 0x20 CALLDATASIZE PUSH1 0x3 NOT ADD SLT PUSH2 0x3E5 JUMPI PUSH1 0x4 CALLDATALOAD PUSH8 0xFFFFFFFFFFFFFFFF DUP2 GT PUSH2 0x3E5 JUMPI PUSH2 0x200 PUSH1 0x3 NOT DUP3 CALLDATASIZE SUB ADD SLT PUSH2 0x3E5 JUMPI PUSH1 0x1 SLOAD PUSH1 0x1 PUSH1 0x1 PUSH1 0xA0 SHL SUB AND CALLER SUB PUSH2 0x46D JUMPI PUSH2 0x463 PUSH1 0x20 SWAP2 PUSH1 0x4 ADD PUSH2 0x8DA JUMP JUMPDEST PUSH1 0x40 MLOAD SWAP1 ISZERO ISZERO DUP2 MSTORE RETURN JUMPDEST PUSH1 0x40 MLOAD PUSH3 0x461BCD PUSH1 0xE5 SHL DUP2 MSTORE PUSH1 0x20 PUSH1 0x4 DUP3 ADD MSTORE PUSH1 0x23 PUSH1 0x24 DUP3 ADD MSTORE PUSH32 0x4F6E6C7920466163746F72792063616E2063616C6C20746869732066756E6374 PUSH1 0x44 DUP3 ADD MSTORE PUSH3 0x34B7B7 PUSH1 0xE9 SHL PUSH1 0x64 DUP3 ADD MSTORE PUSH1 0x84 SWAP1 REVERT JUMPDEST CALLVALUE PUSH2 0x3E5 JUMPI PUSH0 CALLDATASIZE PUSH1 0x3 NOT ADD SLT PUSH2 0x3E5 JUMPI PUSH1 0x40 MLOAD PUSH0 PUSH1 0x2 SLOAD PUSH2 0x4DE DUP2 PUSH2 0x712 JUMP JUMPDEST DUP1 DUP5 MSTORE SWAP1 PUSH1 0x1 DUP2 AND SWAP1 DUP2 ISZERO PUSH2 0x57C JUMPI POP PUSH1 0x1 EQ PUSH2 0x51E JUMPI JUMPDEST PUSH2 0x51A DUP4 PUSH2 0x506 DUP2 DUP6 SUB DUP3 PUSH2 0x77B JUMP JUMPDEST PUSH1 0x40 MLOAD SWAP2 DUP3 SWAP2 PUSH1 0x20 DUP4 MSTORE PUSH1 0x20 DUP4 ADD SWAP1 PUSH2 0x83D JUMP JUMPDEST SUB SWAP1 RETURN JUMPDEST PUSH1 0x2 PUSH0 SWAP1 DUP2 MSTORE PUSH32 0x405787FA12A823E0F2B7631CC41B3BA8828B3321CA811111FA75CD3AA3BB5ACE SWAP4 SWAP3 POP SWAP1 JUMPDEST DUP1 DUP3 LT PUSH2 0x562 JUMPI POP SWAP1 SWAP2 POP DUP2 ADD PUSH1 0x20 ADD PUSH2 0x506 PUSH2 0x4F6 JUMP JUMPDEST SWAP2 SWAP3 PUSH1 0x1 DUP2 PUSH1 0x20 SWAP3 SLOAD DUP4 DUP6 DUP9 ADD ADD MSTORE ADD SWAP2 ADD SWAP1 SWAP3 SWAP2 PUSH2 0x54A JUMP JUMPDEST PUSH1 0xFF NOT AND PUSH1 0x20 DUP1 DUP7 ADD SWAP2 SWAP1 SWAP2 MSTORE SWAP2 ISZERO ISZERO PUSH1 0x5 SHL DUP5 ADD SWAP1 SWAP2 ADD SWAP2 POP PUSH2 0x506 SWAP1 POP PUSH2 0x4F6 JUMP JUMPDEST CALLVALUE PUSH2 0x3E5 JUMPI PUSH1 0x20 CALLDATASIZE PUSH1 0x3 NOT ADD SLT PUSH2 0x3E5 JUMPI PUSH1 0x4 CALLDATALOAD PUSH0 SLOAD DUP2 LT ISZERO PUSH2 0x3E5 JUMPI PUSH2 0x5C6 SWAP1 PUSH2 0x6C6 JUMP JUMPDEST POP DUP1 SLOAD PUSH1 0x1 DUP3 ADD SLOAD SWAP1 PUSH2 0x5DB PUSH1 0x2 DUP5 ADD PUSH2 0x79D JUMP JUMPDEST SWAP3 PUSH1 0x3 DUP2 ADD SLOAD SWAP1 PUSH1 0x4 DUP2 ADD SLOAD PUSH1 0x5 DUP3 ADD SLOAD PUSH1 0x6 DUP4 ADD SLOAD PUSH1 0x7 DUP5 ADD SLOAD PUSH1 0x8 DUP6 ADD SLOAD PUSH1 0x9 DUP7 ADD SLOAD SWAP2 PUSH1 0xA DUP8 ADD SLOAD SWAP4 PUSH1 0xB DUP9 ADD SLOAD PUSH1 0xFF AND SWAP6 PUSH1 0xC DUP10 ADD SLOAD SWAP8 PUSH1 0xD DUP11 ADD SLOAD SWAP10 PUSH1 0xE ADD SLOAD SWAP11 PUSH1 0x40 MLOAD SWAP15 DUP16 SWAP15 DUP16 SWAP15 DUP16 SWAP1 DUP2 MSTORE PUSH1 0x20 ADD MSTORE DUP14 PUSH1 0x40 DUP2 ADD PUSH2 0x1E0 SWAP1 MSTORE PUSH2 0x1E0 ADD PUSH2 0x648 SWAP2 PUSH2 0x83D JUMP JUMPDEST SWAP13 PUSH1 0x60 ADD MSTORE PUSH1 0x80 DUP14 ADD MSTORE PUSH1 0xA0 DUP13 ADD MSTORE PUSH1 0xC0 DUP12 ADD MSTORE PUSH1 0xE0 DUP11 ADD MSTORE PUSH2 0x100 DUP10 ADD MSTORE PUSH2 0x120 DUP9 ADD MSTORE PUSH2 0x140 DUP8 ADD MSTORE ISZERO ISZERO PUSH2 0x160 DUP7 ADD MSTORE PUSH2 0x180 DUP6 ADD MSTORE PUSH2 0x1A0 DUP5 ADD MSTORE PUSH2 0x1C0 DUP4 ADD MSTORE SUB SWAP1 RETURN JUMPDEST CALLVALUE PUSH2 0x3E5 JUMPI PUSH0 CALLDATASIZE PUSH1 0x3 NOT ADD SLT PUSH2 0x3E5 JUMPI PUSH1 0x20 PUSH0 SLOAD PUSH1 0x40 MLOAD SWAP1 DUP2 MSTORE RETURN JUMPDEST CALLVALUE PUSH2 0x3E5 JUMPI PUSH0 CALLDATASIZE PUSH1 0x3 NOT ADD SLT PUSH2 0x3E5 JUMPI DUP1 PUSH1 0x2 PUSH1 0x20 SWAP3 MSTORE RETURN JUMPDEST PUSH0 SLOAD DUP2 LT ISZERO PUSH2 0x6FE JUMPI PUSH0 DUP1 DUP1 MSTORE PUSH1 0xF SWAP2 SWAP1 SWAP2 MUL PUSH32 0x290DECD9548B62A8D60345A988386FC84BA6BC95484008F6362F93160EF3E563 ADD SWAP2 JUMP JUMPDEST PUSH4 0x4E487B71 PUSH1 0xE0 SHL PUSH0 MSTORE PUSH1 0x32 PUSH1 0x4 MSTORE PUSH1 0x24 PUSH0 REVERT JUMPDEST SWAP1 PUSH1 0x1 DUP3 DUP2 SHR SWAP3 AND DUP1 ISZERO PUSH2 0x740 JUMPI JUMPDEST PUSH1 0x20 DUP4 LT EQ PUSH2 0x72C JUMPI JUMP JUMPDEST PUSH4 0x4E487B71 PUSH1 0xE0 SHL PUSH0 MSTORE PUSH1 0x22 PUSH1 0x4 MSTORE PUSH1 0x24 PUSH0 REVERT JUMPDEST SWAP2 PUSH1 0x7F AND SWAP2 PUSH2 0x721 JUMP JUMPDEST PUSH2 0x1E0 DUP2 ADD SWAP1 DUP2 LT PUSH8 0xFFFFFFFFFFFFFFFF DUP3 GT OR PUSH2 0x767 JUMPI PUSH1 0x40 MSTORE JUMP JUMPDEST PUSH4 0x4E487B71 PUSH1 0xE0 SHL PUSH0 MSTORE PUSH1 0x41 PUSH1 0x4 MSTORE PUSH1 0x24 PUSH0 REVERT JUMPDEST SWAP1 PUSH1 0x1F DUP1 NOT SWAP2 ADD AND DUP2 ADD SWAP1 DUP2 LT PUSH8 0xFFFFFFFFFFFFFFFF DUP3 GT OR PUSH2 0x767 JUMPI PUSH1 0x40 MSTORE JUMP JUMPDEST SWAP1 PUSH1 0x40 MLOAD SWAP2 DUP3 PUSH0 DUP3 SLOAD SWAP3 PUSH2 0x7B0 DUP5 PUSH2 0x712 JUMP JUMPDEST DUP1 DUP5 MSTORE SWAP4 PUSH1 0x1 DUP2 AND SWAP1 DUP2 ISZERO PUSH2 0x81B JUMPI POP PUSH1 0x1 EQ PUSH2 0x7D7 JUMPI JUMPDEST POP PUSH2 0x7D5 SWAP3 POP SUB DUP4 PUSH2 0x77B JUMP JUMPDEST JUMP JUMPDEST SWAP1 POP PUSH0 SWAP3 SWAP2 SWAP3 MSTORE PUSH1 0x20 PUSH0 KECCAK256 SWAP1 PUSH0 SWAP2 JUMPDEST DUP2 DUP4 LT PUSH2 0x7FF JUMPI POP POP SWAP1 PUSH1 0x20 PUSH2 0x7D5 SWAP3 DUP3 ADD ADD PUSH0 PUSH2 0x7C8 JUMP JUMPDEST PUSH1 0x20 SWAP2 SWAP4 POP DUP1 PUSH1 0x1 SWAP2 SLOAD DUP4 DUP6 DUP10 ADD ADD MSTORE ADD SWAP2 ADD SWAP1 SWAP2 DUP5 SWAP3 PUSH2 0x7E6 JUMP JUMPDEST SWAP1 POP PUSH1 0x20 SWAP3 POP PUSH2 0x7D5 SWAP5 SWAP2 POP PUSH1 0xFF NOT AND DUP3 DUP5 ADD MSTORE ISZERO ISZERO PUSH1 0x5 SHL DUP3 ADD ADD PUSH0 PUSH2 0x7C8 JUMP JUMPDEST DUP1 MLOAD DUP1 DUP4 MSTORE PUSH1 0x20 SWAP3 SWAP2 DUP2 SWAP1 DUP5 ADD DUP5 DUP5 ADD MCOPY PUSH0 DUP3 DUP3 ADD DUP5 ADD MSTORE PUSH1 0x1F ADD PUSH1 0x1F NOT AND ADD ADD SWAP1 JUMP JUMPDEST SWAP1 CALLDATALOAD SWAP1 PUSH1 0x1E NOT DUP2 CALLDATASIZE SUB ADD DUP3 SLT ISZERO PUSH2 0x3E5 JUMPI ADD DUP1 CALLDATALOAD SWAP1 PUSH8 0xFFFFFFFFFFFFFFFF DUP3 GT PUSH2 0x3E5 JUMPI PUSH1 0x20 ADD SWAP2 DUP2 CALLDATASIZE SUB DUP4 SGT PUSH2 0x3E5 JUMPI JUMP JUMPDEST SWAP3 SWAP2 SWAP3 PUSH8 0xFFFFFFFFFFFFFFFF DUP3 GT PUSH2 0x767 JUMPI PUSH1 0x40 MLOAD SWAP2 PUSH2 0x8BE PUSH1 0x1F DUP3 ADD PUSH1 0x1F NOT AND PUSH1 0x20 ADD DUP5 PUSH2 0x77B JUMP JUMPDEST DUP3 SWAP5 DUP2 DUP5 MSTORE DUP2 DUP4 ADD GT PUSH2 0x3E5 JUMPI DUP3 DUP2 PUSH1 0x20 SWAP4 DUP5 PUSH0 SWAP7 ADD CALLDATACOPY ADD ADD MSTORE JUMP JUMPDEST PUSH2 0x8F1 PUSH2 0x8EA PUSH1 0x60 DUP4 ADD DUP4 PUSH2 0x861 JUMP JUMPDEST CALLDATASIZE SWAP2 PUSH2 0x894 JUMP JUMPDEST PUSH1 0x20 DUP2 MLOAD SWAP2 ADD KECCAK256 PUSH1 0x40 MLOAD PUSH0 SWAP1 PUSH1 0x2 SLOAD SWAP2 DUP2 PUSH2 0x90B DUP5 PUSH2 0x712 JUMP JUMPDEST SWAP2 DUP3 DUP3 MSTORE PUSH1 0x20 DUP3 ADD SWAP5 PUSH1 0x1 DUP2 AND SWAP1 DUP2 PUSH0 EQ PUSH2 0xCCE JUMPI POP PUSH1 0x1 EQ PUSH2 0xC6F JUMPI JUMPDEST PUSH2 0x935 SWAP3 POP SUB DUP3 PUSH2 0x77B JUMP JUMPDEST MLOAD SWAP1 KECCAK256 SUB PUSH2 0xC12 JUMPI PUSH0 SLOAD PUSH1 0x2 DUP2 LT ISZERO PUSH2 0xC0C JUMPI PUSH2 0x955 PUSH1 0x40 DUP4 ADD DUP4 PUSH2 0x861 JUMP JUMPDEST SWAP3 SWAP1 SWAP2 PUSH2 0x180 DUP3 ADD CALLDATALOAD SWAP2 DUP3 ISZERO ISZERO DUP1 SWAP4 SUB PUSH2 0x3E5 JUMPI PUSH2 0x1E0 SWAP1 PUSH2 0x994 PUSH1 0x40 MLOAD SWAP6 PUSH2 0x97D DUP8 PUSH2 0x74A JUMP JUMPDEST DUP3 CALLDATALOAD DUP8 MSTORE PUSH1 0x20 DUP8 ADD SWAP8 PUSH1 0x20 DUP5 ADD CALLDATALOAD DUP10 MSTORE CALLDATASIZE SWAP2 PUSH2 0x894 JUMP JUMPDEST SWAP4 PUSH1 0x40 DUP7 ADD SWAP5 DUP6 MSTORE PUSH1 0x80 DUP3 ADD CALLDATALOAD PUSH1 0x60 DUP8 ADD MSTORE PUSH1 0xA0 DUP3 ADD CALLDATALOAD PUSH1 0x80 DUP8 ADD MSTORE PUSH1 0xC0 DUP3 ADD CALLDATALOAD PUSH1 0xA0 DUP8 ADD MSTORE PUSH1 0xE0 DUP3 ADD CALLDATALOAD PUSH1 0xC0 DUP8 ADD MSTORE PUSH2 0x100 DUP3 ADD CALLDATALOAD PUSH1 0xE0 DUP8 ADD MSTORE PUSH2 0x120 DUP3 ADD CALLDATALOAD PUSH2 0x100 DUP8 ADD MSTORE PUSH2 0x140 DUP3 ADD CALLDATALOAD PUSH2 0x120 DUP8 ADD MSTORE PUSH2 0x160 DUP3 ADD CALLDATALOAD PUSH2 0x140 DUP8 ADD MSTORE PUSH2 0x160 DUP7 ADD MSTORE PUSH2 0x1A0 DUP2 ADD CALLDATALOAD PUSH2 0x180 DUP7 ADD MSTORE PUSH2 0x1C0 DUP2 ADD CALLDATALOAD PUSH2 0x1A0 DUP7 ADD MSTORE ADD CALLDATALOAD PUSH2 0x1C0 DUP5 ADD MSTORE PUSH9 0x10000000000000000 DUP2 LT ISZERO PUSH2 0x767 JUMPI DUP1 PUSH1 0x1 PUSH2 0xA39 SWAP3 ADD PUSH0 SSTORE PUSH2 0x6C6 JUMP JUMPDEST SWAP4 SWAP1 SWAP4 PUSH2 0xBF9 JUMPI DUP3 MLOAD DUP5 SSTORE MLOAD PUSH1 0x1 DUP5 ADD SSTORE MLOAD DUP1 MLOAD SWAP1 PUSH8 0xFFFFFFFFFFFFFFFF DUP3 GT PUSH2 0x767 JUMPI PUSH2 0xA6A PUSH1 0x2 DUP6 ADD SLOAD PUSH2 0x712 JUMP JUMPDEST PUSH1 0x1F DUP2 GT PUSH2 0xBB1 JUMPI JUMPDEST POP PUSH1 0x20 SWAP1 PUSH1 0x1F DUP4 GT PUSH1 0x1 EQ PUSH2 0xB40 JUMPI SWAP2 DUP1 PUSH1 0xE SWAP5 SWAP3 PUSH2 0x1C0 SWAP5 PUSH0 SWAP3 PUSH2 0xB35 JUMPI JUMPDEST POP POP DUP2 PUSH1 0x1 SHL SWAP2 PUSH0 NOT SWAP1 PUSH1 0x3 SHL SHR NOT AND OR PUSH1 0x2 DUP6 ADD SSTORE JUMPDEST PUSH1 0x60 DUP2 ADD MLOAD PUSH1 0x3 DUP6 ADD SSTORE PUSH1 0x80 DUP2 ADD MLOAD PUSH1 0x4 DUP6 ADD SSTORE PUSH1 0xA0 DUP2 ADD MLOAD PUSH1 0x5 DUP6 ADD SSTORE PUSH1 0xC0 DUP2 ADD MLOAD PUSH1 0x6 DUP6 ADD SSTORE PUSH1 0xE0 DUP2 ADD MLOAD PUSH1 0x7 DUP6 ADD SSTORE PUSH2 0x100 DUP2 ADD MLOAD PUSH1 0x8 DUP6 ADD SSTORE PUSH2 0x120 DUP2 ADD MLOAD PUSH1 0x9 DUP6 ADD SSTORE PUSH2 0x140 DUP2 ADD MLOAD PUSH1 0xA DUP6 ADD SSTORE PUSH1 0xB DUP5 ADD PUSH2 0x160 DUP3 ADD MLOAD ISZERO ISZERO PUSH1 0xFF DUP1 NOT DUP4 SLOAD AND SWAP2 AND OR SWAP1 SSTORE PUSH2 0x180 DUP2 ADD MLOAD PUSH1 0xC DUP6 ADD SSTORE PUSH2 0x1A0 DUP2 ADD MLOAD PUSH1 0xD DUP6 ADD SSTORE ADD MLOAD SWAP2 ADD SSTORE PUSH1 0x1 SWAP1 JUMP JUMPDEST ADD MLOAD SWAP1 POP PUSH0 DUP1 PUSH2 0xA93 JUMP JUMPDEST SWAP1 PUSH1 0x2 DUP6 ADD PUSH0 MSTORE DUP1 PUSH0 KECCAK256 SWAP2 PUSH0 JUMPDEST PUSH1 0x1F NOT DUP6 AND DUP2 LT PUSH2 0xB99 JUMPI POP SWAP3 PUSH1 0xE SWAP5 SWAP3 PUSH1 0x1 SWAP3 PUSH2 0x1C0 SWAP6 DUP4 PUSH1 0x1F NOT DUP2 AND LT PUSH2 0xB81 JUMPI JUMPDEST POP POP POP DUP2 SHL ADD PUSH1 0x2 DUP6 ADD SSTORE PUSH2 0xAAA JUMP JUMPDEST ADD MLOAD PUSH0 NOT PUSH1 0xF8 DUP5 PUSH1 0x3 SHL AND SHR NOT AND SWAP1 SSTORE PUSH0 DUP1 DUP1 PUSH2 0xB71 JUMP JUMPDEST SWAP2 SWAP3 PUSH1 0x20 PUSH1 0x1 DUP2 SWAP3 DUP7 DUP6 ADD MLOAD DUP2 SSTORE ADD SWAP5 ADD SWAP3 ADD PUSH2 0xB4D JUMP JUMPDEST PUSH1 0x2 DUP6 ADD PUSH0 MSTORE PUSH1 0x20 PUSH0 KECCAK256 PUSH1 0x1F DUP5 ADD PUSH1 0x5 SHR DUP2 ADD SWAP2 PUSH1 0x20 DUP6 LT PUSH2 0xBEF JUMPI JUMPDEST PUSH1 0x1F ADD PUSH1 0x5 SHR ADD SWAP1 JUMPDEST DUP2 DUP2 LT PUSH2 0xBE4 JUMPI POP PUSH2 0xA73 JUMP JUMPDEST PUSH0 DUP2 SSTORE PUSH1 0x1 ADD PUSH2 0xBD7 JUMP JUMPDEST SWAP1 SWAP2 POP DUP2 SWAP1 PUSH2 0xBCE JUMP JUMPDEST PUSH4 0x4E487B71 PUSH1 0xE0 SHL PUSH0 MSTORE PUSH0 PUSH1 0x4 MSTORE PUSH1 0x24 PUSH0 REVERT JUMPDEST POP POP PUSH0 SWAP1 JUMP JUMPDEST PUSH1 0x40 MLOAD PUSH3 0x461BCD PUSH1 0xE5 SHL DUP2 MSTORE PUSH1 0x20 PUSH1 0x4 DUP3 ADD MSTORE PUSH1 0x2F PUSH1 0x24 DUP3 ADD MSTORE PUSH32 0x4B6C696E6520696E74657276616C20646F6573206E6F74206D6174636820636F PUSH1 0x44 DUP3 ADD MSTORE PUSH15 0x1B9D1C9858DD081A5B9D195C9D985B PUSH1 0x8A SHL PUSH1 0x64 DUP3 ADD MSTORE PUSH1 0x84 SWAP1 REVERT JUMPDEST POP SWAP1 PUSH1 0x2 PUSH0 MSTORE PUSH32 0x405787FA12A823E0F2B7631CC41B3BA8828B3321CA811111FA75CD3AA3BB5ACE SWAP1 PUSH0 SWAP2 JUMPDEST DUP2 DUP4 LT PUSH2 0xCB2 JUMPI POP POP SWAP1 PUSH1 0x20 PUSH2 0x935 SWAP3 DUP3 ADD ADD PUSH2 0x929 JUMP JUMPDEST PUSH1 0x20 SWAP2 SWAP4 POP DUP1 PUSH1 0x1 SWAP2 SLOAD DUP4 DUP6 DUP9 ADD ADD MSTORE ADD SWAP2 ADD SWAP1 SWAP2 DUP4 SWAP3 PUSH2 0xC9A JUMP JUMPDEST PUSH1 0xFF NOT AND DUP7 MSTORE POP PUSH2 0x935 SWAP3 ISZERO ISZERO PUSH1 0x5 SHL DUP3 ADD PUSH1 0x20 ADD SWAP1 POP PUSH2 0x929 JUMP JUMPDEST PUSH8 0xFFFFFFFFFFFFFFFF DUP2 GT PUSH2 0x767 JUMPI PUSH1 0x5 SHL PUSH1 0x20 ADD SWAP1 JUMP JUMPDEST DUP1 MLOAD DUP3 LT ISZERO PUSH2 0x6FE JUMPI PUSH1 0x20 SWAP2 PUSH1 0x5 SHL ADD ADD SWAP1 JUMP INVALID LOG2 PUSH5 0x6970667358 0x22 SLT KECCAK256 DUP13 0x22 PUSH0 SWAP13 0x1F LOG1 0xD0 BLOCKHASH 0xCD BLOBBASEFEE 0xD4 TSTORE SWAP4 0xC8 0x2C 0x4C DUP12 REVERT 0xEF 0xD4 0xEF JUMP RJUMPI 0xF711 CALLVALUE EXTCODEHASH 0xCD ISZERO SWAP13 0xBB PC PUSH5 0x736F6C6343 STOP ADDMOD 0x1E STOP CALLER LOG2 PUSH5 0x6970667358 0x22 SLT KECCAK256 COINBASE 0x24 PUSH22 0x2AA8F72DB66E34B4D53B45D6F2F6F1CBE0FCB0DD436D SMOD CODESIZE SWAP11 PUSH18 0x2D554E64736F6C634300081E003360806040 MSTORE CALLVALUE PUSH2 0x20B JUMPI PUSH2 0xF81 DUP1 CODESIZE SUB DUP1 PUSH2 0x19 DUP2 PUSH2 0x20F JUMP JUMPDEST SWAP3 DUP4 CODECOPY DUP2 ADD SWAP1 PUSH1 0x20 DUP2 DUP4 SUB SLT PUSH2 0x20B JUMPI DUP1 MLOAD SWAP1 PUSH1 0x1 PUSH1 0x1 PUSH1 0x40 SHL SUB DUP3 GT PUSH2 0x20B JUMPI ADD DUP2 PUSH1 0x1F DUP3 ADD SLT ISZERO PUSH2 0x20B JUMPI DUP1 MLOAD SWAP1 PUSH1 0x1 PUSH1 0x1 PUSH1 0x40 SHL SUB DUP3 GT PUSH2 0x1F7 JUMPI PUSH2 0x6A PUSH1 0x1F DUP4 ADD PUSH1 0x1F NOT AND PUSH1 0x20 ADD PUSH2 0x20F JUMP JUMPDEST SWAP3 DUP3 DUP5 MSTORE PUSH1 0x20 DUP4 DUP4 ADD ADD GT PUSH2 0x20B JUMPI DUP2 PUSH0 SWAP3 PUSH1 0x20 DUP1 SWAP4 ADD DUP4 DUP7 ADD MCOPY DUP4 ADD ADD MSTORE PUSH1 0x1 DUP1 SLOAD PUSH1 0x1 PUSH1 0x1 PUSH1 0xA0 SHL SUB NOT AND CALLER OR SWAP1 SSTORE DUP1 MLOAD PUSH1 0x1 PUSH1 0x1 PUSH1 0x40 SHL SUB DUP2 GT PUSH2 0x1F7 JUMPI PUSH1 0x2 SLOAD PUSH1 0x1 DUP2 DUP2 SHR SWAP2 AND DUP1 ISZERO PUSH2 0x1ED JUMPI JUMPDEST PUSH1 0x20 DUP3 LT EQ PUSH2 0x1D9 JUMPI PUSH1 0x1F DUP2 GT PUSH2 0x176 JUMPI JUMPDEST POP PUSH1 0x20 SWAP2 PUSH1 0x1F DUP3 GT PUSH1 0x1 EQ PUSH2 0x116 JUMPI SWAP2 DUP2 SWAP3 PUSH0 SWAP3 PUSH2 0x10B JUMPI JUMPDEST POP POP DUP2 PUSH1 0x1 SHL SWAP2 PUSH0 NOT SWAP1 PUSH1 0x3 SHL SHR NOT AND OR PUSH1 0x2 SSTORE JUMPDEST PUSH1 0x40 MLOAD PUSH2 0xD4C SWAP1 DUP2 PUSH2 0x235 DUP3 CODECOPY RETURN JUMPDEST ADD MLOAD SWAP1 POP PUSH0 DUP1 PUSH2 0xE7 JUMP JUMPDEST PUSH1 0x1F NOT DUP3 AND SWAP3 PUSH1 0x2 PUSH0 MSTORE DUP1 PUSH0 KECCAK256 SWAP2 PUSH0 JUMPDEST DUP6 DUP2 LT PUSH2 0x15E JUMPI POP DUP4 PUSH1 0x1 SWAP6 LT PUSH2 0x146 JUMPI JUMPDEST POP POP POP DUP2 SHL ADD PUSH1 0x2 SSTORE PUSH2 0xFC JUMP JUMPDEST ADD MLOAD PUSH0 NOT PUSH1 0xF8 DUP5 PUSH1 0x3 SHL AND SHR NOT AND SWAP1 SSTORE PUSH0 DUP1 DUP1 PUSH2 0x138 JUMP JUMPDEST SWAP2 SWAP3 PUSH1 0x20 PUSH1 0x1 DUP2 SWAP3 DUP7 DUP6 ADD MLOAD DUP2 SSTORE ADD SWAP5 ADD SWAP3 ADD PUSH2 0x126 JUMP JUMPDEST PUSH1 0x2 PUSH0 MSTORE PUSH32 0x405787FA12A823E0F2B7631CC41B3BA8828B3321CA811111FA75CD3AA3BB5ACE PUSH1 0x1F DUP4 ADD PUSH1 0x5 SHR DUP2 ADD SWAP2 PUSH1 0x20 DUP5 LT PUSH2 0x1CF JUMPI JUMPDEST PUSH1 0x1F ADD PUSH1 0x5 SHR ADD SWAP1 JUMPDEST DUP2 DUP2 LT PUSH2 0x1C4 JUMPI POP PUSH2 0xCE JUMP JUMPDEST PUSH0 DUP2 SSTORE PUSH1 0x1 ADD PUSH2 0x1B7 JUMP JUMPDEST SWAP1 SWAP2 POP DUP2 SWAP1 PUSH2 0x1AE JUMP JUMPDEST PUSH4 0x4E487B71 PUSH1 0xE0 SHL PUSH0 MSTORE PUSH1 0x22 PUSH1 0x4 MSTORE PUSH1 0x24 PUSH0 REVERT JUMPDEST SWAP1 PUSH1 0x7F AND SWAP1 PUSH2 0xBC JUMP JUMPDEST PUSH4 0x4E487B71 PUSH1 0xE0 SHL PUSH0 MSTORE PUSH1 0x41 PUSH1 0x4 MSTORE PUSH1 0x24 PUSH0 REVERT JUMPDEST PUSH0 DUP1 REVERT JUMPDEST PUSH1 0x40 MLOAD SWAP2 SWAP1 PUSH1 0x1F ADD PUSH1 0x1F NOT AND DUP3 ADD PUSH1 0x1 PUSH1 0x1 PUSH1 0x40 SHL SUB DUP2 GT DUP4 DUP3 LT OR PUSH2 0x1F7 JUMPI PUSH1 0x40 MSTORE JUMP INVALID PUSH1 0x80 DUP1 PUSH1 0x40 MSTORE PUSH1 0x4 CALLDATASIZE LT ISZERO PUSH2 0x12 JUMPI PUSH0 DUP1 REVERT JUMPDEST PUSH0 CALLDATALOAD PUSH1 0xE0 SHR SWAP1 DUP2 PUSH4 0x36B275E9 EQ PUSH2 0x6AD JUMPI POP DUP1 PUSH4 0x48BAE592 EQ PUSH2 0x691 JUMPI DUP1 PUSH4 0x6CFCDCA7 EQ PUSH2 0x5A0 JUMPI DUP1 PUSH4 0x947A36FB EQ PUSH2 0x4BE JUMPI DUP1 PUSH4 0xC3E3BFE5 EQ PUSH2 0x411 JUMPI DUP1 PUSH4 0xC45A0155 EQ PUSH2 0x3E9 JUMPI PUSH4 0xFBAD15DC EQ PUSH2 0x69 JUMPI PUSH0 DUP1 REVERT JUMPDEST CALLVALUE PUSH2 0x3E5 JUMPI PUSH1 0x40 CALLDATASIZE PUSH1 0x3 NOT ADD SLT PUSH2 0x3E5 JUMPI PUSH1 0x4 CALLDATALOAD PUSH1 0x24 CALLDATALOAD SWAP1 PUSH0 SLOAD DUP1 DUP3 LT ISZERO PUSH2 0x3AA JUMPI DUP2 DUP4 LT ISZERO SWAP1 DUP2 PUSH2 0x3A0 JUMPI JUMPDEST POP ISZERO PUSH2 0x367 JUMPI DUP1 DUP3 SUB SWAP2 DUP3 GT PUSH2 0x2DA JUMPI PUSH1 0x1 DUP3 ADD DUP1 SWAP3 GT PUSH2 0x2DA JUMPI PUSH2 0xBA DUP3 PUSH2 0xCEA JUMP JUMPDEST SWAP2 PUSH2 0xC8 PUSH1 0x40 MLOAD SWAP4 DUP5 PUSH2 0x77B JUMP JUMPDEST DUP1 DUP4 MSTORE PUSH1 0x1F NOT PUSH2 0xD7 DUP3 PUSH2 0xCEA JUMP JUMPDEST ADD PUSH0 JUMPDEST DUP2 DUP2 LT PUSH2 0x2EE JUMPI POP POP PUSH0 JUMPDEST DUP2 DUP2 LT PUSH2 0x1F9 JUMPI DUP4 PUSH1 0x40 MLOAD DUP1 SWAP2 PUSH1 0x20 DUP3 ADD PUSH1 0x20 DUP4 MSTORE DUP2 MLOAD DUP1 SWAP2 MSTORE PUSH1 0x40 DUP4 ADD SWAP1 PUSH1 0x20 PUSH1 0x40 DUP3 PUSH1 0x5 SHL DUP7 ADD ADD SWAP4 ADD SWAP2 PUSH0 SWAP1 JUMPDEST DUP3 DUP3 LT PUSH2 0x124 JUMPI POP POP POP POP SUB SWAP1 RETURN JUMPDEST SWAP2 SWAP4 PUSH1 0x1 SWAP2 SWAP4 SWAP6 POP PUSH1 0x20 DUP1 SWAP2 PUSH1 0x3F NOT DUP10 DUP3 SUB ADD DUP6 MSTORE DUP8 MLOAD SWAP1 DUP2 MLOAD DUP2 MSTORE DUP3 DUP3 ADD MLOAD DUP4 DUP3 ADD MSTORE PUSH2 0x1C0 DUP1 PUSH2 0x167 PUSH1 0x40 DUP6 ADD MLOAD PUSH2 0x1E0 PUSH1 0x40 DUP7 ADD MSTORE PUSH2 0x1E0 DUP6 ADD SWAP1 PUSH2 0x83D JUMP JUMPDEST SWAP4 PUSH1 0x60 DUP2 ADD MLOAD PUSH1 0x60 DUP6 ADD MSTORE PUSH1 0x80 DUP2 ADD MLOAD PUSH1 0x80 DUP6 ADD MSTORE PUSH1 0xA0 DUP2 ADD MLOAD PUSH1 0xA0 DUP6 ADD MSTORE PUSH1 0xC0 DUP2 ADD MLOAD PUSH1 0xC0 DUP6 ADD MSTORE PUSH1 0xE0 DUP2 ADD MLOAD PUSH1 0xE0 DUP6 ADD MSTORE PUSH2 0x100 DUP2 ADD MLOAD PUSH2 0x100 DUP6 ADD MSTORE PUSH2 0x120 DUP2 ADD MLOAD PUSH2 0x120 DUP6 ADD MSTORE PUSH2 0x140 DUP2 ADD MLOAD PUSH2 0x140 DUP6 ADD MSTORE PUSH2 0x160 DUP2 ADD MLOAD ISZERO ISZERO PUSH2 0x160 DUP6 ADD MSTORE PUSH2 0x180 DUP2 ADD MLOAD PUSH2 0x180 DUP6 ADD MSTORE PUSH2 0x1A0 DUP2 ADD MLOAD PUSH2 0x1A0 DUP6 ADD MSTORE ADD MLOAD SWAP2 ADD MSTORE SWAP7 ADD SWAP3 ADD SWAP3 ADD DUP6 SWAP5 SWAP4 SWAP2 SWAP3 PUSH2 0x115 JUMP JUMPDEST DUP1 DUP4 ADD SWAP1 DUP2 DUP5 GT PUSH2 0x2DA JUMPI PUSH2 0x20F PUSH1 0x1 SWAP3 PUSH2 0x6C6 JUMP JUMPDEST POP PUSH1 0xE PUSH1 0x40 MLOAD SWAP2 PUSH2 0x21F DUP4 PUSH2 0x74A JUMP JUMPDEST DUP1 SLOAD DUP4 MSTORE DUP5 DUP2 ADD SLOAD PUSH1 0x20 DUP5 ADD MSTORE PUSH2 0x238 PUSH1 0x2 DUP3 ADD PUSH2 0x79D JUMP JUMPDEST PUSH1 0x40 DUP5 ADD MSTORE PUSH1 0x3 DUP2 ADD SLOAD PUSH1 0x60 DUP5 ADD MSTORE PUSH1 0x4 DUP2 ADD SLOAD PUSH1 0x80 DUP5 ADD MSTORE PUSH1 0x5 DUP2 ADD SLOAD PUSH1 0xA0 DUP5 ADD MSTORE PUSH1 0x6 DUP2 ADD SLOAD PUSH1 0xC0 DUP5 ADD MSTORE PUSH1 0x7 DUP2 ADD SLOAD PUSH1 0xE0 DUP5 ADD MSTORE PUSH1 0x8 DUP2 ADD SLOAD PUSH2 0x100 DUP5 ADD MSTORE PUSH1 0x9 DUP2 ADD SLOAD PUSH2 0x120 DUP5 ADD MSTORE PUSH1 0xA DUP2 ADD SLOAD PUSH2 0x140 DUP5 ADD MSTORE PUSH1 0xFF PUSH1 0xB DUP3 ADD SLOAD AND ISZERO ISZERO PUSH2 0x160 DUP5 ADD MSTORE PUSH1 0xC DUP2 ADD SLOAD PUSH2 0x180 DUP5 ADD MSTORE PUSH1 0xD DUP2 ADD SLOAD PUSH2 0x1A0 DUP5 ADD MSTORE ADD SLOAD PUSH2 0x1C0 DUP3 ADD MSTORE PUSH2 0x2C8 DUP3 DUP8 PUSH2 0xD02 JUMP JUMPDEST MSTORE PUSH2 0x2D3 DUP2 DUP7 PUSH2 0xD02 JUMP JUMPDEST POP ADD PUSH2 0xE5 JUMP JUMPDEST PUSH4 0x4E487B71 PUSH1 0xE0 SHL PUSH0 MSTORE PUSH1 0x11 PUSH1 0x4 MSTORE PUSH1 0x24 PUSH0 REVERT JUMPDEST PUSH1 0x20 SWAP1 PUSH1 0x40 MLOAD PUSH2 0x2FD DUP2 PUSH2 0x74A JUMP JUMPDEST PUSH0 DUP2 MSTORE PUSH0 DUP4 DUP3 ADD MSTORE PUSH1 0x60 PUSH1 0x40 DUP3 ADD MSTORE PUSH0 PUSH1 0x60 DUP3 ADD MSTORE PUSH0 PUSH1 0x80 DUP3 ADD MSTORE PUSH0 PUSH1 0xA0 DUP3 ADD MSTORE PUSH0 PUSH1 0xC0 DUP3 ADD MSTORE PUSH0 PUSH1 0xE0 DUP3 ADD MSTORE PUSH0 PUSH2 0x100 DUP3 ADD MSTORE PUSH0 PUSH2 0x120 DUP3 ADD MSTORE PUSH0 PUSH2 0x140 DUP3 ADD MSTORE PUSH0 PUSH2 0x160 DUP3 ADD MSTORE PUSH0 PUSH2 0x180 DUP3 ADD MSTORE PUSH0 PUSH2 0x1A0 DUP3 ADD MSTORE PUSH0 PUSH2 0x1C0 DUP3 ADD MSTORE DUP3 DUP3 DUP9 ADD ADD MSTORE ADD PUSH2 0xDA JUMP JUMPDEST PUSH1 0x40 MLOAD PUSH3 0x461BCD PUSH1 0xE5 SHL DUP2 MSTORE PUSH1 0x20 PUSH1 0x4 DUP3 ADD MSTORE PUSH1 0x11 PUSH1 0x24 DUP3 ADD MSTORE PUSH17 0x92DCECC2D8D2C840CADCC840D2DCC8CAF PUSH1 0x7B SHL PUSH1 0x44 DUP3 ADD MSTORE PUSH1 0x64 SWAP1 REVERT JUMPDEST SWAP1 POP DUP3 LT PUSH0 PUSH2 0x96 JUMP JUMPDEST PUSH1 0x40 MLOAD PUSH3 0x461BCD PUSH1 0xE5 SHL DUP2 MSTORE PUSH1 0x20 PUSH1 0x4 DUP3 ADD MSTORE PUSH1 0x13 PUSH1 0x24 DUP3 ADD MSTORE PUSH19 0x92DCECC2D8D2C840E6E8C2E4E840D2DCC8CAF PUSH1 0x6B SHL PUSH1 0x44 DUP3 ADD MSTORE PUSH1 0x64 SWAP1 REVERT JUMPDEST PUSH0 DUP1 REVERT JUMPDEST CALLVALUE PUSH2 0x3E5 JUMPI PUSH0 CALLDATASIZE PUSH1 0x3 NOT ADD SLT PUSH2 0x3E5 JUMPI PUSH1 0x1 SLOAD PUSH1 0x40 MLOAD PUSH1 0x1 PUSH1 0x1 PUSH1 0xA0 SHL SUB SWAP1 SWAP2 AND DUP2 MSTORE PUSH1 0x20 SWAP1 RETURN JUMPDEST CALLVALUE PUSH2 0x3E5 JUMPI PUSH1 0x20 CALLDATASIZE PUSH1 0x3 NOT ADD SLT PUSH2 0x3E5 JUMPI PUSH1 0x4 CALLDATALOAD PUSH8 0xFFFFFFFFFFFFFFFF DUP2 GT PUSH2 0x3E5 JUMPI PUSH2 0x200 PUSH1 0x3 NOT DUP3 CALLDATASIZE SUB ADD SLT PUSH2 0x3E5 JUMPI PUSH1 0x1 SLOAD PUSH1 0x1 PUSH1 0x1 PUSH1 0xA0 SHL SUB AND CALLER SUB PUSH2 0x46D JUMPI PUSH2 0x463 PUSH1 0x20 SWAP2 PUSH1 0x4 ADD PUSH2 0x8DA JUMP JUMPDEST PUSH1 0x40 MLOAD SWAP1 ISZERO ISZERO DUP2 MSTORE RETURN JUMPDEST PUSH1 0x40 MLOAD PUSH3 0x461BCD PUSH1 0xE5 SHL DUP2 MSTORE PUSH1 0x20 PUSH1 0x4 DUP3 ADD MSTORE PUSH1 0x23 PUSH1 0x24 DUP3 ADD MSTORE PUSH32 0x4F6E6C7920466163746F72792063616E2063616C6C20746869732066756E6374 PUSH1 0x44 DUP3 ADD MSTORE PUSH3 0x34B7B7 PUSH1 0xE9 SHL PUSH1 0x64 DUP3 ADD MSTORE PUSH1 0x84 SWAP1 REVERT JUMPDEST CALLVALUE PUSH2 0x3E5 JUMPI PUSH0 CALLDATASIZE PUSH1 0x3 NOT ADD SLT PUSH2 0x3E5 JUMPI PUSH1 0x40 MLOAD PUSH0 PUSH1 0x2 SLOAD PUSH2 0x4DE DUP2 PUSH2 0x712 JUMP JUMPDEST DUP1 DUP5 MSTORE SWAP1 PUSH1 0x1 DUP2 AND SWAP1 DUP2 ISZERO PUSH2 0x57C JUMPI POP PUSH1 0x1 EQ PUSH2 0x51E JUMPI JUMPDEST PUSH2 0x51A DUP4 PUSH2 0x506 DUP2 DUP6 SUB DUP3 PUSH2 0x77B JUMP JUMPDEST PUSH1 0x40 MLOAD SWAP2 DUP3 SWAP2 PUSH1 0x20 DUP4 MSTORE PUSH1 0x20 DUP4 ADD SWAP1 PUSH2 0x83D JUMP JUMPDEST SUB SWAP1 RETURN JUMPDEST PUSH1 0x2 PUSH0 SWAP1 DUP2 MSTORE PUSH32 0x405787FA12A823E0F2B7631CC41B3BA8828B3321CA811111FA75CD3AA3BB5ACE SWAP4 SWAP3 POP SWAP1 JUMPDEST DUP1 DUP3 LT PUSH2 0x562 JUMPI POP SWAP1 SWAP2 POP DUP2 ADD PUSH1 0x20 ADD PUSH2 0x506 PUSH2 0x4F6 JUMP JUMPDEST SWAP2 SWAP3 PUSH1 0x1 DUP2 PUSH1 0x20 SWAP3 SLOAD DUP4 DUP6 DUP9 ADD ADD MSTORE ADD SWAP2 ADD SWAP1 SWAP3 SWAP2 PUSH2 0x54A JUMP JUMPDEST PUSH1 0xFF NOT AND PUSH1 0x20 DUP1 DUP7 ADD SWAP2 SWAP1 SWAP2 MSTORE SWAP2 ISZERO ISZERO PUSH1 0x5 SHL DUP5 ADD SWAP1 SWAP2 ADD SWAP2 POP PUSH2 0x506 SWAP1 POP PUSH2 0x4F6 JUMP JUMPDEST CALLVALUE PUSH2 0x3E5 JUMPI PUSH1 0x20 CALLDATASIZE PUSH1 0x3 NOT ADD SLT PUSH2 0x3E5 JUMPI PUSH1 0x4 CALLDATALOAD PUSH0 SLOAD DUP2 LT ISZERO PUSH2 0x3E5 JUMPI PUSH2 0x5C6 SWAP1 PUSH2 0x6C6 JUMP JUMPDEST POP DUP1 SLOAD PUSH1 0x1 DUP3 ADD SLOAD SWAP1 PUSH2 0x5DB PUSH1 0x2 DUP5 ADD PUSH2 0x79D JUMP JUMPDEST SWAP3 PUSH1 0x3 DUP2 ADD SLOAD SWAP1 PUSH1 0x4 DUP2 ADD SLOAD PUSH1 0x5 DUP3 ADD SLOAD PUSH1 0x6 DUP4 ADD SLOAD PUSH1 0x7 DUP5 ADD SLOAD PUSH1 0x8 DUP6 ADD SLOAD PUSH1 0x9 DUP7 ADD SLOAD SWAP2 PUSH1 0xA DUP8 ADD SLOAD SWAP4 PUSH1 0xB DUP9 ADD SLOAD PUSH1 0xFF AND SWAP6 PUSH1 0xC DUP10 ADD SLOAD SWAP8 PUSH1 0xD DUP11 ADD SLOAD SWAP10 PUSH1 0xE ADD SLOAD SWAP11 PUSH1 0x40 MLOAD SWAP15 DUP16 SWAP15 DUP16 SWAP15 DUP16 SWAP1 DUP2 MSTORE PUSH1 0x20 ADD MSTORE DUP14 PUSH1 0x40 DUP2 ADD PUSH2 0x1E0 SWAP1 MSTORE PUSH2 0x1E0 ADD PUSH2 0x648 SWAP2 PUSH2 0x83D JUMP JUMPDEST SWAP13 PUSH1 0x60 ADD MSTORE PUSH1 0x80 DUP14 ADD MSTORE PUSH1 0xA0 DUP13 ADD MSTORE PUSH1 0xC0 DUP12 ADD MSTORE PUSH1 0xE0 DUP11 ADD MSTORE PUSH2 0x100 DUP10 ADD MSTORE PUSH2 0x120 DUP9 ADD MSTORE PUSH2 0x140 DUP8 ADD MSTORE ISZERO ISZERO PUSH2 0x160 DUP7 ADD MSTORE PUSH2 0x180 DUP6 ADD MSTORE PUSH2 0x1A0 DUP5 ADD MSTORE PUSH2 0x1C0 DUP4 ADD MSTORE SUB SWAP1 RETURN JUMPDEST CALLVALUE PUSH2 0x3E5 JUMPI PUSH0 CALLDATASIZE PUSH1 0x3 NOT ADD SLT PUSH2 0x3E5 JUMPI PUSH1 0x20 PUSH0 SLOAD PUSH1 0x40 MLOAD SWAP1 DUP2 MSTORE RETURN JUMPDEST CALLVALUE PUSH2 0x3E5 JUMPI PUSH0 CALLDATASIZE PUSH1 0x3 NOT ADD SLT PUSH2 0x3E5 JUMPI DUP1 PUSH1 0x2 PUSH1 0x20 SWAP3 MSTORE RETURN JUMPDEST PUSH0 SLOAD DUP2 LT ISZERO PUSH2 0x6FE JUMPI PUSH0 DUP1 DUP1 MSTORE PUSH1 0xF SWAP2 SWAP1 SWAP2 MUL PUSH32 0x290DECD9548B62A8D60345A988386FC84BA6BC95484008F6362F93160EF3E563 ADD SWAP2 JUMP JUMPDEST PUSH4 0x4E487B71 PUSH1 0xE0 SHL PUSH0 MSTORE PUSH1 0x32 PUSH1 0x4 MSTORE PUSH1 0x24 PUSH0 REVERT JUMPDEST SWAP1 PUSH1 0x1 DUP3 DUP2 SHR SWAP3 AND DUP1 ISZERO PUSH2 0x740 JUMPI JUMPDEST PUSH1 0x20 DUP4 LT EQ PUSH2 0x72C JUMPI JUMP JUMPDEST PUSH4 0x4E487B71 PUSH1 0xE0 SHL PUSH0 MSTORE PUSH1 0x22 PUSH1 0x4 MSTORE PUSH1 0x24 PUSH0 REVERT JUMPDEST SWAP2 PUSH1 0x7F AND SWAP2 PUSH2 0x721 JUMP JUMPDEST PUSH2 0x1E0 DUP2 ADD SWAP1 DUP2 LT PUSH8 0xFFFFFFFFFFFFFFFF DUP3 GT OR PUSH2 0x767 JUMPI PUSH1 0x40 MSTORE JUMP JUMPDEST PUSH4 0x4E487B71 PUSH1 0xE0 SHL PUSH0 MSTORE PUSH1 0x41 PUSH1 0x4 MSTORE PUSH1 0x24 PUSH0 REVERT JUMPDEST SWAP1 PUSH1 0x1F DUP1 NOT SWAP2 ADD AND DUP2 ADD SWAP1 DUP2 LT PUSH8 0xFFFFFFFFFFFFFFFF DUP3 GT OR PUSH2 0x767 JUMPI PUSH1 0x40 MSTORE JUMP JUMPDEST SWAP1 PUSH1 0x40 MLOAD SWAP2 DUP3 PUSH0 DUP3 SLOAD SWAP3 PUSH2 0x7B0 DUP5 PUSH2 0x712 JUMP JUMPDEST DUP1 DUP5 MSTORE SWAP4 PUSH1 0x1 DUP2 AND SWAP1 DUP2 ISZERO PUSH2 0x81B JUMPI POP PUSH1 0x1 EQ PUSH2 0x7D7 JUMPI JUMPDEST POP PUSH2 0x7D5 SWAP3 POP SUB DUP4 PUSH2 0x77B JUMP JUMPDEST JUMP JUMPDEST SWAP1 POP PUSH0 SWAP3 SWAP2 SWAP3 MSTORE PUSH1 0x20 PUSH0 KECCAK256 SWAP1 PUSH0 SWAP2 JUMPDEST DUP2 DUP4 LT PUSH2 0x7FF JUMPI POP POP SWAP1 PUSH1 0x20 PUSH2 0x7D5 SWAP3 DUP3 ADD ADD PUSH0 PUSH2 0x7C8 JUMP JUMPDEST PUSH1 0x20 SWAP2 SWAP4 POP DUP1 PUSH1 0x1 SWAP2 SLOAD DUP4 DUP6 DUP10 ADD ADD MSTORE ADD SWAP2 ADD SWAP1 SWAP2 DUP5 SWAP3 PUSH2 0x7E6 JUMP JUMPDEST SWAP1 POP PUSH1 0x20 SWAP3 POP PUSH2 0x7D5 SWAP5 SWAP2 POP PUSH1 0xFF NOT AND DUP3 DUP5 ADD MSTORE ISZERO ISZERO PUSH1 0x5 SHL DUP3 ADD ADD PUSH0 PUSH2 0x7C8 JUMP JUMPDEST DUP1 MLOAD DUP1 DUP4 MSTORE PUSH1 0x20 SWAP3 SWAP2 DUP2 SWAP1 DUP5 ADD DUP5 DUP5 ADD MCOPY PUSH0 DUP3 DUP3 ADD DUP5 ADD MSTORE PUSH1 0x1F ADD PUSH1 0x1F NOT AND ADD ADD SWAP1 JUMP JUMPDEST SWAP1 CALLDATALOAD SWAP1 PUSH1 0x1E NOT DUP2 CALLDATASIZE SUB ADD DUP3 SLT ISZERO PUSH2 0x3E5 JUMPI ADD DUP1 CALLDATALOAD SWAP1 PUSH8 0xFFFFFFFFFFFFFFFF DUP3 GT PUSH2 0x3E5 JUMPI PUSH1 0x20 ADD SWAP2 DUP2 CALLDATASIZE SUB DUP4 SGT PUSH2 0x3E5 JUMPI JUMP JUMPDEST SWAP3 SWAP2 SWAP3 PUSH8 0xFFFFFFFFFFFFFFFF DUP3 GT PUSH2 0x767 JUMPI PUSH1 0x40 MLOAD SWAP2 PUSH2 0x8BE PUSH1 0x1F DUP3 ADD PUSH1 0x1F NOT AND PUSH1 0x20 ADD DUP5 PUSH2 0x77B JUMP JUMPDEST DUP3 SWAP5 DUP2 DUP5 MSTORE DUP2 DUP4 ADD GT PUSH2 0x3E5 JUMPI DUP3 DUP2 PUSH1 0x20 SWAP4 DUP5 PUSH0 SWAP7 ADD CALLDATACOPY ADD ADD MSTORE JUMP JUMPDEST PUSH2 0x8F1 PUSH2 0x8EA PUSH1 0x60 DUP4 ADD DUP4 PUSH2 0x861 JUMP JUMPDEST CALLDATASIZE SWAP2 PUSH2 0x894 JUMP JUMPDEST PUSH1 0x20 DUP2 MLOAD SWAP2 ADD KECCAK256 PUSH1 0x40 MLOAD PUSH0 SWAP1 PUSH1 0x2 SLOAD SWAP2 DUP2 PUSH2 0x90B DUP5 PUSH2 0x712 JUMP JUMPDEST SWAP2 DUP3 DUP3 MSTORE PUSH1 0x20 DUP3 ADD SWAP5 PUSH1 0x1 DUP2 AND SWAP1 DUP2 PUSH0 EQ PUSH2 0xCCE JUMPI POP PUSH1 0x1 EQ PUSH2 0xC6F JUMPI JUMPDEST PUSH2 0x935 SWAP3 POP SUB DUP3 PUSH2 0x77B JUMP JUMPDEST MLOAD SWAP1 KECCAK256 SUB PUSH2 0xC12 JUMPI PUSH0 SLOAD PUSH1 0x2 DUP2 LT ISZERO PUSH2 0xC0C JUMPI PUSH2 0x955 PUSH1 0x40 DUP4 ADD DUP4 PUSH2 0x861 JUMP JUMPDEST SWAP3 SWAP1 SWAP2 PUSH2 0x180 DUP3 ADD CALLDATALOAD SWAP2 DUP3 ISZERO ISZERO DUP1 SWAP4 SUB PUSH2 0x3E5 JUMPI PUSH2 0x1E0 SWAP1 PUSH2 0x994 PUSH1 0x40 MLOAD SWAP6 PUSH2 0x97D DUP8 PUSH2 0x74A JUMP JUMPDEST DUP3 CALLDATALOAD DUP8 MSTORE PUSH1 0x20 DUP8 ADD SWAP8 PUSH1 0x20 DUP5 ADD CALLDATALOAD DUP10 MSTORE CALLDATASIZE SWAP2 PUSH2 0x894 JUMP JUMPDEST SWAP4 PUSH1 0x40 DUP7 ADD SWAP5 DUP6 MSTORE PUSH1 0x80 DUP3 ADD CALLDATALOAD PUSH1 0x60 DUP8 ADD MSTORE PUSH1 0xA0 DUP3 ADD CALLDATALOAD PUSH1 0x80 DUP8 ADD MSTORE PUSH1 0xC0 DUP3 ADD CALLDATALOAD PUSH1 0xA0 DUP8 ADD MSTORE PUSH1 0xE0 DUP3 ADD CALLDATALOAD PUSH1 0xC0 DUP8 ADD MSTORE PUSH2 0x100 DUP3 ADD CALLDATALOAD PUSH1 0xE0 DUP8 ADD MSTORE PUSH2 0x120 DUP3 ADD CALLDATALOAD PUSH2 0x100 DUP8 ADD MSTORE PUSH2 0x140 DUP3 ADD CALLDATALOAD PUSH2 0x120 DUP8 ADD MSTORE PUSH2 0x160 DUP3 ADD CALLDATALOAD PUSH2 0x140 DUP8 ADD MSTORE PUSH2 0x160 DUP7 ADD MSTORE PUSH2 0x1A0 DUP2 ADD CALLDATALOAD PUSH2 0x180 DUP7 ADD MSTORE PUSH2 0x1C0 DUP2 ADD CALLDATALOAD PUSH2 0x1A0 DUP7 ADD MSTORE ADD CALLDATALOAD PUSH2 0x1C0 DUP5 ADD MSTORE PUSH9 0x10000000000000000 DUP2 LT ISZERO PUSH2 0x767 JUMPI DUP1 PUSH1 0x1 PUSH2 0xA39 SWAP3 ADD PUSH0 SSTORE PUSH2 0x6C6 JUMP JUMPDEST SWAP4 SWAP1 SWAP4 PUSH2 0xBF9 JUMPI DUP3 MLOAD DUP5 SSTORE MLOAD PUSH1 0x1 DUP5 ADD SSTORE MLOAD DUP1 MLOAD SWAP1 PUSH8 0xFFFFFFFFFFFFFFFF DUP3 GT PUSH2 0x767 JUMPI PUSH2 0xA6A PUSH1 0x2 DUP6 ADD SLOAD PUSH2 0x712 JUMP JUMPDEST PUSH1 0x1F DUP2 GT PUSH2 0xBB1 JUMPI JUMPDEST POP PUSH1 0x20 SWAP1 PUSH1 0x1F DUP4 GT PUSH1 0x1 EQ PUSH2 0xB40 JUMPI SWAP2 DUP1 PUSH1 0xE SWAP5 SWAP3 PUSH2 0x1C0 SWAP5 PUSH0 SWAP3 PUSH2 0xB35 JUMPI JUMPDEST POP POP DUP2 PUSH1 0x1 SHL SWAP2 PUSH0 NOT SWAP1 PUSH1 0x3 SHL SHR NOT AND OR PUSH1 0x2 DUP6 ADD SSTORE JUMPDEST PUSH1 0x60 DUP2 ADD MLOAD PUSH1 0x3 DUP6 ADD SSTORE PUSH1 0x80 DUP2 ADD MLOAD PUSH1 0x4 DUP6 ADD SSTORE PUSH1 0xA0 DUP2 ADD MLOAD PUSH1 0x5 DUP6 ADD SSTORE PUSH1 0xC0 DUP2 ADD MLOAD PUSH1 0x6 DUP6 ADD SSTORE PUSH1 0xE0 DUP2 ADD MLOAD PUSH1 0x7 DUP6 ADD SSTORE PUSH2 0x100 DUP2 ADD MLOAD PUSH1 0x8 DUP6 ADD SSTORE PUSH2 0x120 DUP2 ADD MLOAD PUSH1 0x9 DUP6 ADD SSTORE PUSH2 0x140 DUP2 ADD MLOAD PUSH1 0xA DUP6 ADD SSTORE PUSH1 0xB DUP5 ADD PUSH2 0x160 DUP3 ADD MLOAD ISZERO ISZERO PUSH1 0xFF DUP1 NOT DUP4 SLOAD AND SWAP2 AND OR SWAP1 SSTORE PUSH2 0x180 DUP2 ADD MLOAD PUSH1 0xC DUP6 ADD SSTORE PUSH2 0x1A0 DUP2 ADD MLOAD PUSH1 0xD DUP6 ADD SSTORE ADD MLOAD SWAP2 ADD SSTORE PUSH1 0x1 SWAP1 JUMP JUMPDEST ADD MLOAD SWAP1 POP PUSH0 DUP1 PUSH2 0xA93 JUMP JUMPDEST SWAP1 PUSH1 0x2 DUP6 ADD PUSH0 MSTORE DUP1 PUSH0 KECCAK256 SWAP2 PUSH0 JUMPDEST PUSH1 0x1F NOT DUP6 AND DUP2 LT PUSH2 0xB99 JUMPI POP SWAP3 PUSH1 0xE SWAP5 SWAP3 PUSH1 0x1 SWAP3 PUSH2 0x1C0 SWAP6 DUP4 PUSH1 0x1F NOT DUP2 AND LT PUSH2 0xB81 JUMPI JUMPDEST POP POP POP DUP2 SHL ADD PUSH1 0x2 DUP6 ADD SSTORE PUSH2 0xAAA JUMP JUMPDEST ADD MLOAD PUSH0 NOT PUSH1 0xF8 DUP5 PUSH1 0x3 SHL AND SHR NOT AND SWAP1 SSTORE PUSH0 DUP1 DUP1 PUSH2 0xB71 JUMP JUMPDEST SWAP2 SWAP3 PUSH1 0x20 PUSH1 0x1 DUP2 SWAP3 DUP7 DUP6 ADD MLOAD DUP2 SSTORE ADD SWAP5 ADD SWAP3 ADD PUSH2 0xB4D JUMP JUMPDEST PUSH1 0x2 DUP6 ADD PUSH0 MSTORE PUSH1 0x20 PUSH0 KECCAK256 PUSH1 0x1F DUP5 ADD PUSH1 0x5 SHR DUP2 ADD SWAP2 PUSH1 0x20 DUP6 LT PUSH2 0xBEF JUMPI JUMPDEST PUSH1 0x1F ADD PUSH1 0x5 SHR ADD SWAP1 JUMPDEST DUP2 DUP2 LT PUSH2 0xBE4 JUMPI POP PUSH2 0xA73 JUMP JUMPDEST PUSH0 DUP2 SSTORE PUSH1 0x1 ADD PUSH2 0xBD7 JUMP JUMPDEST SWAP1 SWAP2 POP DUP2 SWAP1 PUSH2 0xBCE JUMP JUMPDEST PUSH4 0x4E487B71 PUSH1 0xE0 SHL PUSH0 MSTORE PUSH0 PUSH1 0x4 MSTORE PUSH1 0x24 PUSH0 REVERT JUMPDEST POP POP PUSH0 SWAP1 JUMP JUMPDEST PUSH1 0x40 MLOAD PUSH3 0x461BCD PUSH1 0xE5 SHL DUP2 MSTORE PUSH1 0x20 PUSH1 0x4 DUP3 ADD MSTORE PUSH1 0x2F PUSH1 0x24 DUP3 ADD MSTORE PUSH32 0x4B6C696E6520696E74657276616C20646F6573206E6F74206D6174636820636F PUSH1 0x44 DUP3 ADD MSTORE PUSH15 0x1B9D1C9858DD081A5B9D195C9D985B PUSH1 0x8A SHL PUSH1 0x64 DUP3 ADD MSTORE PUSH1 0x84 SWAP1 REVERT JUMPDEST POP SWAP1 PUSH1 0x2 PUSH0 MSTORE PUSH32 0x405787FA12A823E0F2B7631CC41B3BA8828B3321CA811111FA75CD3AA3BB5ACE SWAP1 PUSH0 SWAP2 JUMPDEST DUP2 DUP4 LT PUSH2 0xCB2 JUMPI POP POP SWAP1 PUSH1 0x20 PUSH2 0x935 SWAP3 DUP3 ADD ADD PUSH2 0x929 JUMP JUMPDEST PUSH1 0x20 SWAP2 SWAP4 POP DUP1 PUSH1 0x1 SWAP2 SLOAD DUP4 DUP6 DUP9 ADD ADD MSTORE ADD SWAP2 ADD SWAP1 SWAP2 DUP4 SWAP3 PUSH2 0xC9A JUMP JUMPDEST PUSH1 0xFF NOT AND DUP7 MSTORE POP PUSH2 0x935 SWAP3 ISZERO ISZERO PUSH1 0x5 SHL DUP3 ADD PUSH1 0x20 ADD SWAP1 POP PUSH2 0x929 JUMP JUMPDEST PUSH8 0xFFFFFFFFFFFFFFFF DUP2 GT PUSH2 0x767 JUMPI PUSH1 0x5 SHL PUSH1 0x20 ADD SWAP1 JUMP JUMPDEST DUP1 MLOAD DUP3 LT ISZERO PUSH2 0x6FE JUMPI PUSH1 0x20 SWAP2 PUSH1 0x5 SHL ADD ADD SWAP1 JUMP INVALID LOG2 PUSH5 0x6970667358 0x22 SLT KECCAK256 DUP13 0x22 PUSH0 SWAP13 0x1F LOG1 0xD0 BLOCKHASH 0xCD BLOBBASEFEE 0xD4 TSTORE SWAP4 0xC8 0x2C 0x4C DUP12 REVERT 0xEF 0xD4 0xEF JUMP RJUMPI 0xF711 CALLVALUE EXTCODEHASH 0xCD ISZERO SWAP13 0xBB PC PUSH5 0x736F6C6343 STOP ADDMOD 0x1E STOP CALLER "
				},
				"gasEstimates": {
					"creation": {
						"codeDepositCost": "1656400",
						"executionCost": "infinite",
						"totalCost": "infinite"
					},
					"external": {
						"addKline(string,(uint256,uint256,string,string,uint256,uint256,uint256,uint256,uint256,uint256,uint256,uint256,bool,uint256,uint256,uint256))": "infinite",
						"getIntervals()": "infinite",
						"getKlineData(string,uint256,uint256)": "infinite",
						"intervalContracts(string,uint256)": "infinite",
						"intervals(uint256)": "infinite"
					},
					"internal": {
						"_deployNewContract(string memory)": "infinite"
					}
				},
				"methodIdentifiers": {
					"addKline(string,(uint256,uint256,string,string,uint256,uint256,uint256,uint256,uint256,uint256,uint256,uint256,bool,uint256,uint256,uint256))": "be21e6c3",
					"getIntervals()": "492bd276",
					"getKlineData(string,uint256,uint256)": "f9a284eb",
					"intervalContracts(string,uint256)": "4bbc3aeb",
					"intervals(uint256)": "328ffd11"
				}
			},
			"storageLayout": {
				"storage": [
					{
						"astId": 15,
						"contract": "contracts/FactoryContract.sol:FactoryContract",
						"label": "intervalContracts",
						"offset": 0,
						"slot": "0",
						"type": "t_mapping(t_string_memory_ptr,t_array(t_struct(ContractInfo)9_storage)dyn_storage)"
					},
					{
						"astId": 18,
						"contract": "contracts/FactoryContract.sol:FactoryContract",
						"label": "intervals",
						"offset": 0,
						"slot": "1",
						"type": "t_array(t_string_storage)dyn_storage"
					}
				],
				"types": {
					"t_address": {
						"encoding": "inplace",
						"label": "address",
						"numberOfBytes": "20"
					},
					"t_array(t_string_storage)dyn_storage": {
						"base": "t_string_storage",
						"encoding": "dynamic_array",
						"label": "string[]",
						"numberOfBytes": "32"
					},
					"t_array(t_struct(ContractInfo)9_storage)dyn_storage": {
						"base": "t_struct(ContractInfo)9_storage",
						"encoding": "dynamic_array",
						"label": "struct FactoryContract.ContractInfo[]",
						"numberOfBytes": "32"
					},
					"t_mapping(t_string_memory_ptr,t_array(t_struct(ContractInfo)9_storage)dyn_storage)": {
						"encoding": "mapping",
						"key": "t_string_memory_ptr",
						"label": "mapping(string => struct FactoryContract.ContractInfo[])",
						"numberOfBytes": "32",
						"value": "t_array(t_struct(ContractInfo)9_storage)dyn_storage"
					},
					"t_string_memory_ptr": {
						"encoding": "bytes",
						"label": "string",
						"numberOfBytes": "32"
					},
					"t_string_storage": {
						"encoding": "bytes",
						"label": "string",
						"numberOfBytes": "32"
					},
					"t_struct(ContractInfo)9_storage": {
						"encoding": "inplace",
						"label": "struct FactoryContract.ContractInfo",
						"members": [
							{
								"astId": 4,
								"contract": "contracts/FactoryContract.sol:FactoryContract",
								"label": "contractAddress",
								"offset": 0,
								"slot": "0",
								"type": "t_address"
							},
							{
								"astId": 6,
								"contract": "contracts/FactoryContract.sol:FactoryContract",
								"label": "startTimestamp",
								"offset": 0,
								"slot": "1",
								"type": "t_uint256"
							},
							{
								"astId": 8,
								"contract": "contracts/FactoryContract.sol:FactoryContract",
								"label": "endTimestamp",
								"offset": 0,
								"slot": "2",
								"type": "t_uint256"
							}
						],
						"numberOfBytes": "96"
					},
					"t_uint256": {
						"encoding": "inplace",
						"label": "uint256",
						"numberOfBytes": "32"
					}
				}
			},
			"userdoc": {
				"kind": "user",
				"methods": {},
				"version": 1
			}
		}
	}
}