{
	"contracts/IntervalContract.sol": {
		"IntervalContract": {
			"abi": [
				{
					"inputs": [
						{
							"internalType": "string",
							"name": "_interval",
							"type": "string"
						}
					],
					"stateMutability": "nonpayable",
					"type": "constructor"
				},
				{
					"inputs": [],
					"name": "MAX_KLINES",
					"outputs": [
						{
							"internalType": "uint256",
							"name": "",
							"type": "uint256"
						}
					],
					"stateMutability": "view",
					"type": "function"
				},
				{
					"inputs": [
						{
							"components": [
								{
									"internalType": "uint256",
									"name": "timestamp",
									"type": "uint256"
								},
								{
									"internalType": "uint256",
									"name": "endTimestamp",
									"type": "uint256"
								},
								{
									"internalType": "string",
									"name": "symbol",
									"type": "string"
								},
								{
									"internalType": "string",
									"name": "interval",
									"type": "string"
								},
								{
									"internalType": "uint256",
									"name": "firstTradeId",
									"type": "uint256"
								},
								{
									"internalType": "uint256",
									"name": "lastTradeId",
									"type": "uint256"
								},
								{
									"internalType": "uint256",
									"name": "open",
									"type": "uint256"
								},
								{
									"internalType": "uint256",
									"name": "high",
									"type": "uint256"
								},
								{
									"internalType": "uint256",
									"name": "low",
									"type": "uint256"
								},
								{
									"internalType": "uint256",
									"name": "close",
									"type": "uint256"
								},
								{
									"internalType": "uint256",
									"name": "volume",
									"type": "uint256"
								},
								{
									"internalType": "uint256",
									"name": "numberOfTrades",
									"type": "uint256"
								},
								{
									"internalType": "bool",
									"name": "isClosed",
									"type": "bool"
								},
								{
									"internalType": "uint256",
									"name": "quoteVolume",
									"type": "uint256"
								},
								{
									"internalType": "uint256",
									"name": "takerBuyVolume",
									"type": "uint256"
								},
								{
									"internalType": "uint256",
									"name": "takerBuyQuoteVolume",
									"type": "uint256"
								}
							],
							"internalType": "struct IntervalContract.KlineInput",
							"name": "input",
							"type": "tuple"
						}
					],
					"name": "addKline",
					"outputs": [
						{
							"internalType": "bool",
							"name": "",
							"type": "bool"
						}
					],
					"stateMutability": "nonpayable",
					"type": "function"
				},
				{
					"inputs": [],
					"name": "factory",
					"outputs": [
						{
							"internalType": "address",
							"name": "",
							"type": "address"
						}
					],
					"stateMutability": "view",
					"type": "function"
				},
				{
					"inputs": [],
					"name": "getKlineCount",
					"outputs": [
						{
							"internalType": "uint256",
							"name": "",
							"type": "uint256"
						}
					],
					"stateMutability": "view",
					"type": "function"
				},
				{
					"inputs": [
						{
							"internalType": "uint256",
							"name": "startIndex",
							"type": "uint256"
						},
						{
							"internalType": "uint256",
							"name": "endIndex",
							"type": "uint256"
						}
					],
					"name": "getKlines",
					"outputs": [
						{
							"components": [
								{
									"internalType": "uint256",
									"name": "timestamp",
									"type": "uint256"
								},
								{
									"internalType": "uint256",
									"name": "endTimestamp",
									"type": "uint256"
								},
								{
									"internalType": "string",
									"name": "symbol",
									"type": "string"
								},
								{
									"internalType": "uint256",
									"name": "firstTradeId",
									"type": "uint256"
								},
								{
									"internalType": "uint256",
									"name": "lastTradeId",
									"type": "uint256"
								},
								{
									"internalType": "uint256",
									"name": "open",
									"type": "uint256"
								},
								{
									"internalType": "uint256",
									"name": "high",
									"type": "uint256"
								},
								{
									"internalType": "uint256",
									"name": "low",
									"type": "uint256"
								},
								{
									"internalType": "uint256",
									"name": "close",
									"type": "uint256"
								},
								{
									"internalType": "uint256",
									"name": "volume",
									"type": "uint256"
								},
								{
									"internalType": "uint256",
									"name": "numberOfTrades",
									"type": "uint256"
								},
								{
									"internalType": "bool",
									"name": "isClosed",
									"type": "bool"
								},
								{
									"internalType": "uint256",
									"name": "quoteVolume",
									"type": "uint256"
								},
								{
									"internalType": "uint256",
									"name": "takerBuyVolume",
									"type": "uint256"
								},
								{
									"internalType": "uint256",
									"name": "takerBuyQuoteVolume",
									"type": "uint256"
								}
							],
							"internalType": "struct IntervalContract.Kline[]",
							"name": "",
							"type": "tuple[]"
						}
					],
					"stateMutability": "view",
					"type": "function"
				},
				{
					"inputs": [],
					"name": "interval",
					"outputs": [
						{
							"internalType": "string",
							"name": "",
							"type": "string"
						}
					],
					"stateMutability": "view",
					"type": "function"
				},
				{
					"inputs": [
						{
							"internalType": "uint256",
							"name": "",
							"type": "uint256"
						}
					],
					"name": "klines",
					"outputs": [
						{
							"internalType": "uint256",
							"name": "timestamp",
							"type": "uint256"
						},
						{
							"internalType": "uint256",
							"name": "endTimestamp",
							"type": "uint256"
						},
						{
							"internalType": "string",
							"name": "symbol",
							"type": "string"
						},
						{
							"internalType": "uint256",
							"name": "firstTradeId",
							"type": "uint256"
						},
						{
							"internalType": "uint256",
							"name": "lastTradeId",
							"type": "uint256"
						},
						{
							"internalType": "uint256",
							"name": "open",
							"type": "uint256"
						},
						{
							"internalType": "uint256",
							"name": "high",
							"type": "uint256"
						},
						{
							"internalType": "uint256",
							"name": "low",
							"type": "uint256"
						},
						{
							"internalType": "uint256",
							"name": "close",
							"type": "uint256"
						},
						{
							"internalType": "uint256",
							"name": "volume",
							"type": "uint256"
						},
						{
							"internalType": "uint256",
							"name": "numberOfTrades",
							"type": "uint256"
						},
						{
							"internalType": "bool",
							"name": "isClosed",
							"type": "bool"
						},
						{
							"internalType": "uint256",
							"name": "quoteVolume",
							"type": "uint256"
						},
						{
							"internalType": "uint256",
							"name": "takerBuyVolume",
							"type": "uint256"
						},
						{
							"internalType": "uint256",
							"name": "takerBuyQuoteVolume",
							"type": "uint256"
						}
					],
					"stateMutability": "view",
					"type": "function"
				}
			],
			"devdoc": {
				"kind": "dev",
				"methods": {},
				"version": 1
			},
			"evm": {
				"assembly": "    /* \"contracts/IntervalContract.sol\":60:3831  contract IntervalContract {... */\n  mstore(0x40, 0x80)\n  jumpi(tag_14, callvalue)\n  bytecodeSize\n  dup1\n  codesize\n  sub\n  dup1\n  tag_4\n  dup2\n  tag_1\n  jump\t// in\ntag_4:\n  swap3\n  dup4\n  codecopy\n  dup2\n  add\n  swap1\n  0x20\n  dup2\n  dup4\n  sub\n  slt\n  tag_14\n  jumpi\n  dup1\n  mload\n  swap1\n  sub(shl(0x40, 0x01), 0x01)\n  dup3\n  gt\n  tag_14\n  jumpi\n  add\n  dup2\n  0x1f\n  dup3\n  add\n  slt\n  iszero\n  tag_14\n  jumpi\n  dup1\n  mload\n  swap1\n  sub(shl(0x40, 0x01), 0x01)\n  dup3\n  gt\n  tag_16\n  jumpi\n  tag_13\n  0x1f\n  dup4\n  add\n  not(0x1f)\n  and\n  0x20\n  add\n  tag_1\n  jump\t// in\ntag_13:\n  swap3\n  dup3\n  dup5\n  mstore\n  0x20\n  dup4\n  dup4\n  add\n  add\n  gt\n  tag_14\n  jumpi\n  dup2\n  0x00\n  swap3\n  0x20\n  dup1\n  swap4\n  add\n  dup4\n  dup7\n  add\n  mcopy\n  dup4\n  add\n  add\n  mstore\n  0x01\n  dup1\n  sload\n  not(sub(shl(0xa0, 0x01), 0x01))\n  and\n    /* \"contracts/IntervalContract.sol\":1861:1871  msg.sender */\n  caller\n    /* \"contracts/IntervalContract.sol\":60:3831  contract IntervalContract {... */\n  or\n  swap1\n  sstore\n  dup1\n  mload\n  sub(shl(0x40, 0x01), 0x01)\n  dup2\n  gt\n  tag_16\n  jumpi\n    /* \"contracts/IntervalContract.sol\":1882:1902  interval = _interval */\n  0x02\n    /* \"contracts/IntervalContract.sol\":60:3831  contract IntervalContract {... */\n  sload\n    /* \"contracts/IntervalContract.sol\":1851:1871  factory = msg.sender */\n  0x01\n    /* \"contracts/IntervalContract.sol\":60:3831  contract IntervalContract {... */\n  dup2\n  dup2\n  shr\n  swap2\n  and\n  dup1\n  iszero\n  tag_18\n  jumpi\ntag_19:\n  0x20\n  dup3\n  lt\n  eq\n  tag_20\n  jumpi\n  0x1f\n  dup2\n  gt\n  tag_22\n  jumpi\ntag_23:\n  pop\n  0x20\n  swap2\n  0x1f\n  dup3\n  gt\n  0x01\n  eq\n  tag_24\n  jumpi\n  swap2\n  dup2\n  swap3\n  0x00\n  swap3\n  tag_26\n  jumpi\ntag_27:\n  pop\n  pop\n  dup2\n    /* \"contracts/IntervalContract.sol\":1851:1871  factory = msg.sender */\n  0x01\n    /* \"contracts/IntervalContract.sol\":60:3831  contract IntervalContract {... */\n  shl\n  swap2\n  not(0x00)\n  swap1\n  0x03\n  shl\n  shr\n  not\n  and\n  or\n    /* \"contracts/IntervalContract.sol\":1882:1902  interval = _interval */\n  0x02\n    /* \"contracts/IntervalContract.sol\":60:3831  contract IntervalContract {... */\n  sstore\ntag_28:\n  mload(0x40)\n  dataSize(sub_0)\n  swap1\n  dup2\n  dataOffset(sub_0)\n  dup3\n  codecopy\n  return\ntag_26:\n  add\n  mload\n  swap1\n  pop\n  0x00\n  dup1\n  jump(tag_27)\ntag_24:\n  not(0x1f)\n  dup3\n  and\n  swap3\n    /* \"contracts/IntervalContract.sol\":1882:1902  interval = _interval */\n  0x02\n  0x00\n    /* \"contracts/IntervalContract.sol\":60:3831  contract IntervalContract {... */\n  mstore\n  dup1\n  0x00\n  keccak256\n  swap2\n  0x00\ntag_29:\n  dup6\n  dup2\n  lt\n  tag_30\n  jumpi\n  pop\n  dup4\n    /* \"contracts/IntervalContract.sol\":1851:1871  factory = msg.sender */\n  0x01\n    /* \"contracts/IntervalContract.sol\":60:3831  contract IntervalContract {... */\n  swap6\n  lt\n  tag_32\n  jumpi\ntag_33:\n  pop\n  pop\n  pop\n  dup2\n  shl\n  add\n    /* \"contracts/IntervalContract.sol\":1882:1902  interval = _interval */\n  0x02\n    /* \"contracts/IntervalContract.sol\":60:3831  contract IntervalContract {... */\n  sstore\n  jump(tag_28)\ntag_32:\n  add\n  mload\n  not(0x00)\n  0xf8\n  dup5\n  0x03\n  shl\n  and\n  shr\n  not\n  and\n  swap1\n  sstore\n  0x00\n  dup1\n  dup1\n  jump(tag_33)\ntag_30:\n  swap2\n  swap3\n  0x20\n    /* \"contracts/IntervalContract.sol\":1851:1871  factory = msg.sender */\n  0x01\n    /* \"contracts/IntervalContract.sol\":60:3831  contract IntervalContract {... */\n  dup2\n  swap3\n  dup7\n  dup6\n  add\n  mload\n  dup2\n  sstore\n  add\n  swap5\n  add\n  swap3\n  add\n  jump(tag_29)\ntag_22:\n    /* \"contracts/IntervalContract.sol\":1882:1902  interval = _interval */\n  0x02\n  0x00\n    /* \"contracts/IntervalContract.sol\":60:3831  contract IntervalContract {... */\n  mstore\n  0x405787fa12a823e0f2b7631cc41b3ba8828b3321ca811111fa75cd3aa3bb5ace\n  0x1f\n  dup4\n  add\n  0x05\n  shr\n  dup2\n  add\n  swap2\n  0x20\n  dup5\n  lt\n  tag_34\n  jumpi\ntag_35:\n  0x1f\n  add\n  0x05\n  shr\n  add\n  swap1\ntag_36:\n  dup2\n  dup2\n  lt\n  tag_37\n  jumpi\n  pop\n  jump(tag_23)\ntag_37:\n  0x00\n  dup2\n  sstore\n    /* \"contracts/IntervalContract.sol\":1851:1871  factory = msg.sender */\n  0x01\n    /* \"contracts/IntervalContract.sol\":60:3831  contract IntervalContract {... */\n  add\n  jump(tag_36)\ntag_34:\n  swap1\n  swap2\n  pop\n  dup2\n  swap1\n  jump(tag_35)\ntag_20:\n  mstore(0x00, shl(0xe0, 0x4e487b71))\n  mstore(0x04, 0x22)\n  revert(0x00, 0x24)\ntag_18:\n  swap1\n  0x7f\n  and\n  swap1\n  jump(tag_19)\ntag_16:\n  mstore(0x00, shl(0xe0, 0x4e487b71))\n  mstore(0x04, 0x41)\n  revert(0x00, 0x24)\ntag_14:\n  0x00\n  dup1\n  revert\ntag_1:\n  mload(0x40)\n  swap2\n  swap1\n  0x1f\n  add\n  not(0x1f)\n  and\n  dup3\n  add\n  sub(shl(0x40, 0x01), 0x01)\n  dup2\n  gt\n  dup4\n  dup3\n  lt\n  or\n  tag_16\n  jumpi\n  0x40\n  mstore\n  jump\t// out\nstop\n\nsub_0: assembly {\n        /* \"contracts/IntervalContract.sol\":60:3831  contract IntervalContract {... */\n      0x80\n      dup1\n      0x40\n      mstore\n      jumpi(tag_12, iszero(lt(calldatasize, 0x04)))\n      0x00\n      dup1\n      revert\n    tag_12:\n      shr(0xe0, calldataload(0x00))\n      swap1\n      dup2\n      0x36b275e9\n      eq\n      tag_14\n      jumpi\n      pop\n      dup1\n      0x48bae592\n      eq\n      tag_16\n      jumpi\n      dup1\n      0x6cfcdca7\n      eq\n      tag_18\n      jumpi\n      dup1\n      0x947a36fb\n      eq\n      tag_20\n      jumpi\n      dup1\n      0xc3e3bfe5\n      eq\n      tag_22\n      jumpi\n      dup1\n      0xc45a0155\n      eq\n      tag_24\n      jumpi\n      0xfbad15dc\n      eq\n      tag_26\n      jumpi\n      0x00\n      dup1\n      revert\n    tag_26:\n      jumpi(tag_30, callvalue)\n      jumpi(tag_30, slt(add(not(0x03), calldatasize), 0x40))\n      calldataload(0x04)\n      calldataload(0x24)\n      swap1\n      sload(0x00)\n        /* \"contracts/IntervalContract.sol\":3334:3360  startIndex < klines.length */\n      dup1\n      dup3\n      lt\n        /* \"contracts/IntervalContract.sol\":60:3831  contract IntervalContract {... */\n      iszero\n      tag_32\n      jumpi\n        /* \"contracts/IntervalContract.sol\":3403:3425  endIndex >= startIndex */\n      dup2\n      dup4\n      lt\n      iszero\n        /* \"contracts/IntervalContract.sol\":3403:3453  endIndex >= startIndex && endIndex < klines.length */\n      swap1\n      dup2\n      tag_34\n      jumpi\n        /* \"contracts/IntervalContract.sol\":60:3831  contract IntervalContract {... */\n    tag_35:\n      pop\n      iszero\n      tag_36\n      jumpi\n      dup1\n      dup3\n      sub\n      swap2\n      dup3\n      gt\n      tag_55\n      jumpi\n      0x01\n      dup3\n      add\n      dup1\n      swap3\n      gt\n      tag_55\n      jumpi\n      tag_42\n      dup3\n      tag_10\n      jump\t// in\n    tag_42:\n      swap2\n      tag_43\n      mload(0x40)\n      swap4\n      dup5\n      tag_4\n      jump\t// in\n    tag_43:\n      dup1\n      dup4\n      mstore\n      not(0x1f)\n      tag_44\n      dup3\n      tag_10\n      jump\t// in\n    tag_44:\n      add\n      0x00\n    tag_45:\n      dup2\n      dup2\n      lt\n      tag_46\n      jumpi\n        /* \"contracts/IntervalContract.sol\":3600:3613  uint256 i = 0 */\n      pop\n      pop\n        /* \"contracts/IntervalContract.sol\":60:3831  contract IntervalContract {... */\n      0x00\n        /* \"contracts/IntervalContract.sol\":3615:3625  i < length */\n    tag_48:\n      dup2\n      dup2\n      lt\n      tag_49\n      jumpi\n        /* \"contracts/IntervalContract.sol\":60:3831  contract IntervalContract {... */\n      dup4\n      mload(0x40)\n      dup1\n      swap2\n      0x20\n      dup3\n      add\n      0x20\n      dup4\n      mstore\n      dup2\n      mload\n      dup1\n      swap2\n      mstore\n      0x40\n      dup4\n      add\n      swap1\n      0x20\n      0x40\n      dup3\n      0x05\n      shl\n      dup7\n      add\n      add\n      swap4\n      add\n      swap2\n      0x00\n      swap1\n    tag_51:\n      dup3\n      dup3\n      lt\n      tag_52\n      jumpi\n      pop\n      pop\n      pop\n      pop\n      sub\n      swap1\n      return\n    tag_52:\n      swap2\n      swap4\n      0x01\n      swap2\n      swap4\n      swap6\n      pop\n      0x20\n      dup1\n      swap2\n      not(0x3f)\n      dup10\n      dup3\n      sub\n      add\n      dup6\n      mstore\n      dup8\n      mload\n      swap1\n      dup2\n      mload\n      dup2\n      mstore\n      dup3\n      dup3\n      add\n      mload\n      dup4\n      dup3\n      add\n      mstore\n      0x01c0\n      dup1\n      tag_54\n      0x40\n      dup6\n      add\n      mload\n      0x01e0\n      0x40\n      dup7\n      add\n      mstore\n      0x01e0\n      dup6\n      add\n      swap1\n      tag_6\n      jump\t// in\n    tag_54:\n      swap4\n      0x60\n      dup2\n      add\n      mload\n      0x60\n      dup6\n      add\n      mstore\n      0x80\n      dup2\n      add\n      mload\n      0x80\n      dup6\n      add\n      mstore\n      0xa0\n      dup2\n      add\n      mload\n      0xa0\n      dup6\n      add\n      mstore\n      0xc0\n      dup2\n      add\n      mload\n      0xc0\n      dup6\n      add\n      mstore\n      0xe0\n      dup2\n      add\n      mload\n      0xe0\n      dup6\n      add\n      mstore\n      0x0100\n      dup2\n      add\n      mload\n      0x0100\n      dup6\n      add\n      mstore\n      0x0120\n      dup2\n      add\n      mload\n      0x0120\n      dup6\n      add\n      mstore\n      0x0140\n      dup2\n      add\n      mload\n      0x0140\n      dup6\n      add\n      mstore\n      0x0160\n      dup2\n      add\n      mload\n      iszero\n      iszero\n      0x0160\n      dup6\n      add\n      mstore\n      0x0180\n      dup2\n      add\n      mload\n      0x0180\n      dup6\n      add\n      mstore\n      0x01a0\n      dup2\n      add\n      mload\n      0x01a0\n      dup6\n      add\n      mstore\n      add\n      mload\n      swap2\n      add\n      mstore\n      swap7\n      add\n      swap3\n      add\n      swap3\n      add\n      dup6\n      swap5\n      swap4\n      swap2\n      swap3\n      jump(tag_51)\n        /* \"contracts/IntervalContract.sol\":3627:3630  i++ */\n    tag_49:\n        /* \"contracts/IntervalContract.sol\":60:3831  contract IntervalContract {... */\n      dup1\n      dup4\n      add\n      swap1\n      dup2\n      dup5\n      gt\n      tag_55\n      jumpi\n        /* \"contracts/IntervalContract.sol\":3659:3681  klines[startIndex + i] */\n      tag_57\n        /* \"contracts/IntervalContract.sol\":60:3831  contract IntervalContract {... */\n      0x01\n        /* \"contracts/IntervalContract.sol\":3659:3681  klines[startIndex + i] */\n      swap3\n      tag_1\n      jump\t// in\n    tag_57:\n        /* \"contracts/IntervalContract.sol\":60:3831  contract IntervalContract {... */\n      pop\n      0x0e\n      mload(0x40)\n      swap2\n      tag_58\n      dup4\n      tag_3\n      jump\t// in\n    tag_58:\n      dup1\n      sload\n      dup4\n      mstore\n      dup5\n      dup2\n      add\n      sload\n      0x20\n      dup5\n      add\n      mstore\n      tag_59\n      0x02\n      dup3\n      add\n      tag_5\n      jump\t// in\n    tag_59:\n      0x40\n      dup5\n      add\n      mstore\n      0x03\n      dup2\n      add\n      sload\n      0x60\n      dup5\n      add\n      mstore\n      0x04\n      dup2\n      add\n      sload\n      0x80\n      dup5\n      add\n      mstore\n      0x05\n      dup2\n      add\n      sload\n      0xa0\n      dup5\n      add\n      mstore\n      0x06\n      dup2\n      add\n      sload\n      0xc0\n      dup5\n      add\n      mstore\n      0x07\n      dup2\n      add\n      sload\n      0xe0\n      dup5\n      add\n      mstore\n      0x08\n      dup2\n      add\n      sload\n      0x0100\n      dup5\n      add\n      mstore\n      0x09\n      dup2\n      add\n      sload\n      0x0120\n      dup5\n      add\n      mstore\n      0x0a\n      dup2\n      add\n      sload\n      0x0140\n      dup5\n      add\n      mstore\n      0xff\n      0x0b\n      dup3\n      add\n      sload\n      and\n      iszero\n      iszero\n      0x0160\n      dup5\n      add\n      mstore\n      0x0c\n      dup2\n      add\n      sload\n      0x0180\n      dup5\n      add\n      mstore\n      0x0d\n      dup2\n      add\n      sload\n      0x01a0\n      dup5\n      add\n      mstore\n      add\n      sload\n      0x01c0\n      dup3\n      add\n      mstore\n        /* \"contracts/IntervalContract.sol\":3647:3681  result[i] = klines[startIndex + i] */\n      tag_60\n      dup3\n      dup8\n      tag_11\n      jump\t// in\n    tag_60:\n      mstore\n      tag_61\n      dup2\n      dup7\n      tag_11\n      jump\t// in\n    tag_61:\n      pop\n        /* \"contracts/IntervalContract.sol\":60:3831  contract IntervalContract {... */\n      add\n        /* \"contracts/IntervalContract.sol\":3600:3613  uint256 i = 0 */\n      jump(tag_48)\n        /* \"contracts/IntervalContract.sol\":60:3831  contract IntervalContract {... */\n    tag_55:\n      mstore(0x00, shl(0xe0, 0x4e487b71))\n      mstore(0x04, 0x11)\n      revert(0x00, 0x24)\n    tag_46:\n      0x20\n      swap1\n      mload(0x40)\n      tag_62\n      dup2\n      tag_3\n      jump\t// in\n    tag_62:\n      0x00\n      dup2\n      mstore\n      0x00\n      dup4\n      dup3\n      add\n      mstore\n      0x60\n      0x40\n      dup3\n      add\n      mstore\n      0x00\n      0x60\n      dup3\n      add\n      mstore\n      0x00\n      0x80\n      dup3\n      add\n      mstore\n      0x00\n      0xa0\n      dup3\n      add\n      mstore\n      0x00\n      0xc0\n      dup3\n      add\n      mstore\n      0x00\n      0xe0\n      dup3\n      add\n      mstore\n      0x00\n      0x0100\n      dup3\n      add\n      mstore\n      0x00\n      0x0120\n      dup3\n      add\n      mstore\n      0x00\n      0x0140\n      dup3\n      add\n      mstore\n      0x00\n      0x0160\n      dup3\n      add\n      mstore\n      0x00\n      0x0180\n      dup3\n      add\n      mstore\n      0x00\n      0x01a0\n      dup3\n      add\n      mstore\n      0x00\n      0x01c0\n      dup3\n      add\n      mstore\n      dup3\n      dup3\n      dup9\n      add\n      add\n      mstore\n      add\n      jump(tag_45)\n    tag_36:\n      mload(0x40)\n      shl(0xe5, 0x461bcd)\n      dup2\n      mstore\n      0x20\n      0x04\n      dup3\n      add\n      mstore\n      0x11\n      0x24\n      dup3\n      add\n      mstore\n      shl(0x7b, 0x092dcecc2d8d2c840cadcc840d2dcc8caf)\n      0x44\n      dup3\n      add\n      mstore\n      0x64\n      swap1\n      revert\n        /* \"contracts/IntervalContract.sol\":3403:3453  endIndex >= startIndex && endIndex < klines.length */\n    tag_34:\n        /* \"contracts/IntervalContract.sol\":3429:3453  endIndex < klines.length */\n      swap1\n      pop\n      dup3\n      lt\n        /* \"contracts/IntervalContract.sol\":3403:3453  endIndex >= startIndex && endIndex < klines.length */\n      0x00\n      jump(tag_35)\n        /* \"contracts/IntervalContract.sol\":60:3831  contract IntervalContract {... */\n    tag_32:\n      mload(0x40)\n      shl(0xe5, 0x461bcd)\n      dup2\n      mstore\n      0x20\n      0x04\n      dup3\n      add\n      mstore\n      0x13\n      0x24\n      dup3\n      add\n      mstore\n      shl(0x6b, 0x092dcecc2d8d2c840e6e8c2e4e840d2dcc8caf)\n      0x44\n      dup3\n      add\n      mstore\n      0x64\n      swap1\n      revert\n    tag_30:\n      0x00\n      dup1\n      revert\n    tag_24:\n      jumpi(tag_30, callvalue)\n      jumpi(tag_30, slt(add(not(0x03), calldatasize), 0x00))\n      sload(0x01)\n      mload(0x40)\n      sub(shl(0xa0, 0x01), 0x01)\n      swap1\n      swap2\n      and\n      dup2\n      mstore\n      0x20\n      swap1\n      return\n    tag_22:\n      jumpi(tag_30, callvalue)\n      jumpi(tag_30, slt(add(not(0x03), calldatasize), 0x20))\n      calldataload(0x04)\n      0xffffffffffffffff\n      dup2\n      gt\n      tag_30\n      jumpi\n      0x0200\n      not(0x03)\n      dup3\n      calldatasize\n      sub\n      add\n      slt\n      tag_30\n      jumpi\n      and(sub(shl(0xa0, 0x01), 0x01), sload(0x01))\n        /* \"contracts/IntervalContract.sol\":1960:1970  msg.sender */\n      caller\n        /* \"contracts/IntervalContract.sol\":1960:1981  msg.sender == factory */\n      sub\n        /* \"contracts/IntervalContract.sol\":60:3831  contract IntervalContract {... */\n      tag_75\n      jumpi\n        /* \"contracts/IntervalContract.sol\":2049:3175  function addKline(KlineInput calldata input) external onlyFactory returns (bool) {... */\n      tag_77\n        /* \"contracts/IntervalContract.sol\":60:3831  contract IntervalContract {... */\n      0x20\n      swap2\n      0x04\n      add\n        /* \"contracts/IntervalContract.sol\":2049:3175  function addKline(KlineInput calldata input) external onlyFactory returns (bool) {... */\n      tag_9\n      jump\t// in\n    tag_77:\n        /* \"contracts/IntervalContract.sol\":60:3831  contract IntervalContract {... */\n      mload(0x40)\n      swap1\n      iszero\n      iszero\n      dup2\n      mstore\n      return\n    tag_75:\n      mload(0x40)\n      shl(0xe5, 0x461bcd)\n      dup2\n      mstore\n      0x20\n      0x04\n      dup3\n      add\n      mstore\n      0x23\n      0x24\n      dup3\n      add\n      mstore\n      0x4f6e6c7920466163746f72792063616e2063616c6c20746869732066756e6374\n      0x44\n      dup3\n      add\n      mstore\n      shl(0xe9, 0x34b7b7)\n      0x64\n      dup3\n      add\n      mstore\n      0x84\n      swap1\n      revert\n    tag_20:\n      jumpi(tag_30, callvalue)\n      jumpi(tag_30, slt(add(not(0x03), calldatasize), 0x00))\n      mload(0x40)\n      0x00\n        /* \"contracts/IntervalContract.sol\":1772:1794  string public interval */\n      0x02\n        /* \"contracts/IntervalContract.sol\":60:3831  contract IntervalContract {... */\n      sload\n      tag_82\n      dup2\n      tag_2\n      jump\t// in\n    tag_82:\n      dup1\n      dup5\n      mstore\n      swap1\n      0x01\n      dup2\n      and\n      swap1\n      dup2\n      iszero\n      tag_83\n      jumpi\n      pop\n      0x01\n      eq\n      tag_85\n      jumpi\n    tag_86:\n      tag_87\n      dup4\n      tag_88\n      dup2\n      dup6\n      sub\n      dup3\n      tag_4\n      jump\t// in\n    tag_88:\n      mload(0x40)\n      swap2\n      dup3\n      swap2\n      0x20\n      dup4\n      mstore\n      0x20\n      dup4\n      add\n      swap1\n      tag_6\n      jump\t// in\n    tag_87:\n      sub\n      swap1\n      return\n    tag_85:\n        /* \"contracts/IntervalContract.sol\":1772:1794  string public interval */\n      0x02\n        /* \"contracts/IntervalContract.sol\":60:3831  contract IntervalContract {... */\n      0x00\n      swap1\n      dup2\n      mstore\n      0x405787fa12a823e0f2b7631cc41b3ba8828b3321ca811111fa75cd3aa3bb5ace\n      swap4\n      swap3\n      pop\n      swap1\n    tag_89:\n      dup1\n      dup3\n      lt\n      tag_90\n      jumpi\n      pop\n      swap1\n      swap2\n      pop\n      dup2\n      add\n      0x20\n      add\n      tag_88\n      jump(tag_86)\n    tag_90:\n      swap2\n      swap3\n      0x01\n      dup2\n      0x20\n      swap3\n      sload\n      dup4\n      dup6\n      dup9\n      add\n      add\n      mstore\n      add\n      swap2\n      add\n      swap1\n      swap3\n      swap2\n      jump(tag_89)\n    tag_83:\n      not(0xff)\n      and\n      0x20\n      dup1\n      dup7\n      add\n      swap2\n      swap1\n      swap2\n      mstore\n      swap2\n      iszero\n      iszero\n      0x05\n      shl\n      dup5\n      add\n      swap1\n      swap2\n      add\n      swap2\n      pop\n      tag_88\n      swap1\n      pop\n      jump(tag_86)\n    tag_18:\n      jumpi(tag_30, callvalue)\n      jumpi(tag_30, slt(add(not(0x03), calldatasize), 0x20))\n      calldataload(0x04)\n      sload(0x00)\n        /* \"contracts/IntervalContract.sol\":1625:1646  Kline[] public klines */\n      dup2\n      lt\n      iszero\n      tag_30\n      jumpi\n      tag_98\n      swap1\n      tag_1\n      jump\t// in\n    tag_98:\n      pop\n        /* \"contracts/IntervalContract.sol\":60:3831  contract IntervalContract {... */\n      dup1\n      sload\n      0x01\n        /* \"contracts/IntervalContract.sol\":1625:1646  Kline[] public klines */\n      dup3\n      add\n        /* \"contracts/IntervalContract.sol\":60:3831  contract IntervalContract {... */\n      sload\n      swap1\n        /* \"contracts/IntervalContract.sol\":1625:1646  Kline[] public klines */\n      tag_99\n      0x02\n      dup5\n      add\n      tag_5\n      jump\t// in\n    tag_99:\n      swap3\n      0x03\n      dup2\n      add\n        /* \"contracts/IntervalContract.sol\":60:3831  contract IntervalContract {... */\n      sload\n        /* \"contracts/IntervalContract.sol\":1625:1646  Kline[] public klines */\n      swap1\n        /* \"contracts/IntervalContract.sol\":60:3831  contract IntervalContract {... */\n      0x04\n        /* \"contracts/IntervalContract.sol\":1625:1646  Kline[] public klines */\n      dup2\n      add\n        /* \"contracts/IntervalContract.sol\":60:3831  contract IntervalContract {... */\n      sload\n        /* \"contracts/IntervalContract.sol\":1625:1646  Kline[] public klines */\n      0x05\n      dup3\n      add\n        /* \"contracts/IntervalContract.sol\":60:3831  contract IntervalContract {... */\n      sload\n        /* \"contracts/IntervalContract.sol\":1625:1646  Kline[] public klines */\n      0x06\n      dup4\n      add\n        /* \"contracts/IntervalContract.sol\":60:3831  contract IntervalContract {... */\n      sload\n        /* \"contracts/IntervalContract.sol\":1625:1646  Kline[] public klines */\n      0x07\n      dup5\n      add\n        /* \"contracts/IntervalContract.sol\":60:3831  contract IntervalContract {... */\n      sload\n        /* \"contracts/IntervalContract.sol\":1625:1646  Kline[] public klines */\n      0x08\n      dup6\n      add\n        /* \"contracts/IntervalContract.sol\":60:3831  contract IntervalContract {... */\n      sload\n        /* \"contracts/IntervalContract.sol\":1625:1646  Kline[] public klines */\n      0x09\n      dup7\n      add\n        /* \"contracts/IntervalContract.sol\":60:3831  contract IntervalContract {... */\n      sload\n        /* \"contracts/IntervalContract.sol\":1625:1646  Kline[] public klines */\n      swap2\n      0x0a\n      dup8\n      add\n        /* \"contracts/IntervalContract.sol\":60:3831  contract IntervalContract {... */\n      sload\n        /* \"contracts/IntervalContract.sol\":1625:1646  Kline[] public klines */\n      swap4\n      0x0b\n      dup9\n      add\n        /* \"contracts/IntervalContract.sol\":60:3831  contract IntervalContract {... */\n      sload\n      0xff\n      and\n        /* \"contracts/IntervalContract.sol\":1625:1646  Kline[] public klines */\n      swap6\n      0x0c\n      dup10\n      add\n        /* \"contracts/IntervalContract.sol\":60:3831  contract IntervalContract {... */\n      sload\n        /* \"contracts/IntervalContract.sol\":1625:1646  Kline[] public klines */\n      swap8\n      0x0d\n      dup11\n      add\n        /* \"contracts/IntervalContract.sol\":60:3831  contract IntervalContract {... */\n      sload\n        /* \"contracts/IntervalContract.sol\":1625:1646  Kline[] public klines */\n      swap10\n      0x0e\n      add\n        /* \"contracts/IntervalContract.sol\":60:3831  contract IntervalContract {... */\n      sload\n      swap11\n      mload(0x40)\n      swap15\n      dup16\n      swap15\n      dup16\n      swap15\n      dup16\n      swap1\n      dup2\n      mstore\n      0x20\n      add\n      mstore\n      dup14\n      0x40\n      dup2\n      add\n      0x01e0\n      swap1\n      mstore\n      0x01e0\n      add\n      tag_100\n      swap2\n      tag_6\n      jump\t// in\n    tag_100:\n      swap13\n      0x60\n      add\n      mstore\n      0x80\n      dup14\n      add\n      mstore\n      0xa0\n      dup13\n      add\n      mstore\n      0xc0\n      dup12\n      add\n      mstore\n      0xe0\n      dup11\n      add\n      mstore\n      0x0100\n      dup10\n      add\n      mstore\n      0x0120\n      dup9\n      add\n      mstore\n      0x0140\n      dup8\n      add\n      mstore\n      iszero\n      iszero\n      0x0160\n      dup7\n      add\n      mstore\n      0x0180\n      dup6\n      add\n      mstore\n      0x01a0\n      dup5\n      add\n      mstore\n      0x01c0\n      dup4\n      add\n      mstore\n      sub\n      swap1\n      return\n    tag_16:\n      jumpi(tag_30, callvalue)\n      jumpi(tag_30, slt(add(not(0x03), calldatasize), 0x00))\n      0x20\n      sload(0x00)\n      mload(0x40)\n      swap1\n      dup2\n      mstore\n      return\n    tag_14:\n      jumpi(tag_30, callvalue)\n      jumpi(tag_30, slt(add(not(0x03), calldatasize), 0x00))\n      dup1\n        /* \"contracts/IntervalContract.sol\":1690:1691  2 */\n      0x02\n        /* \"contracts/IntervalContract.sol\":60:3831  contract IntervalContract {... */\n      0x20\n      swap3\n      mstore\n      return\n    tag_1:\n      sload(0x00)\n      dup2\n      lt\n      iszero\n      tag_109\n      jumpi\n      0x00\n      dup1\n      dup1\n      mstore\n      0x0f\n      swap2\n      swap1\n      swap2\n      mul\n      0x290decd9548b62a8d60345a988386fc84ba6bc95484008f6362f93160ef3e563\n      add\n      swap2\n      jump\t// out\n    tag_109:\n      mstore(0x00, shl(0xe0, 0x4e487b71))\n      mstore(0x04, 0x32)\n      revert(0x00, 0x24)\n    tag_2:\n      swap1\n      0x01\n      dup3\n      dup2\n      shr\n      swap3\n      and\n      dup1\n      iszero\n      tag_111\n      jumpi\n    tag_112:\n      0x20\n      dup4\n      lt\n      eq\n      tag_113\n      jumpi\n      jump\t// out\n    tag_113:\n      mstore(0x00, shl(0xe0, 0x4e487b71))\n      mstore(0x04, 0x22)\n      revert(0x00, 0x24)\n    tag_111:\n      swap2\n      0x7f\n      and\n      swap2\n      jump(tag_112)\n    tag_3:\n      0x01e0\n      dup2\n      add\n      swap1\n      dup2\n      lt\n      0xffffffffffffffff\n      dup3\n      gt\n      or\n      tag_115\n      jumpi\n      0x40\n      mstore\n      jump\t// out\n    tag_115:\n      mstore(0x00, shl(0xe0, 0x4e487b71))\n      mstore(0x04, 0x41)\n      revert(0x00, 0x24)\n    tag_4:\n      swap1\n      0x1f\n      dup1\n      not\n      swap2\n      add\n      and\n      dup2\n      add\n      swap1\n      dup2\n      lt\n      0xffffffffffffffff\n      dup3\n      gt\n      or\n      tag_115\n      jumpi\n      0x40\n      mstore\n      jump\t// out\n    tag_5:\n      swap1\n      mload(0x40)\n      swap2\n      dup3\n      0x00\n      dup3\n      sload\n      swap3\n      tag_119\n      dup5\n      tag_2\n      jump\t// in\n    tag_119:\n      dup1\n      dup5\n      mstore\n      swap4\n      0x01\n      dup2\n      and\n      swap1\n      dup2\n      iszero\n      tag_120\n      jumpi\n      pop\n      0x01\n      eq\n      tag_122\n      jumpi\n    tag_123:\n      pop\n      tag_124\n      swap3\n      pop\n      sub\n      dup4\n      tag_4\n      jump\t// in\n    tag_124:\n      jump\t// out\n    tag_122:\n      swap1\n      pop\n      0x00\n      swap3\n      swap2\n      swap3\n      mstore\n      keccak256(0x00, 0x20)\n      swap1\n      0x00\n      swap2\n    tag_125:\n      dup2\n      dup4\n      lt\n      tag_126\n      jumpi\n      pop\n      pop\n      swap1\n      0x20\n      tag_124\n      swap3\n      dup3\n      add\n      add\n      0x00\n      jump(tag_123)\n    tag_126:\n      0x20\n      swap2\n      swap4\n      pop\n      dup1\n      0x01\n      swap2\n      sload\n      dup4\n      dup6\n      dup10\n      add\n      add\n      mstore\n      add\n      swap2\n      add\n      swap1\n      swap2\n      dup5\n      swap3\n      jump(tag_125)\n    tag_120:\n      swap1\n      pop\n      0x20\n      swap3\n      pop\n      tag_124\n      swap5\n      swap2\n      pop\n      not(0xff)\n      and\n      dup3\n      dup5\n      add\n      mstore\n      iszero\n      iszero\n      0x05\n      shl\n      dup3\n      add\n      add\n      0x00\n      jump(tag_123)\n    tag_6:\n      dup1\n      mload\n      dup1\n      dup4\n      mstore\n      0x20\n      swap3\n      swap2\n      dup2\n      swap1\n      dup5\n      add\n      dup5\n      dup5\n      add\n      mcopy\n      0x00\n      dup3\n      dup3\n      add\n      dup5\n      add\n      mstore\n      0x1f\n      add\n      not(0x1f)\n      and\n      add\n      add\n      swap1\n      jump\t// out\n    tag_7:\n      swap1\n      calldataload\n      swap1\n      not(0x1e)\n      dup2\n      calldatasize\n      sub\n      add\n      dup3\n      slt\n      iszero\n      tag_30\n      jumpi\n      add\n      dup1\n      calldataload\n      swap1\n      0xffffffffffffffff\n      dup3\n      gt\n      tag_30\n      jumpi\n      0x20\n      add\n      swap2\n      dup2\n      calldatasize\n      sub\n      dup4\n      sgt\n      tag_30\n      jumpi\n      jump\t// out\n    tag_8:\n      swap3\n      swap2\n      swap3\n      0xffffffffffffffff\n      dup3\n      gt\n      tag_115\n      jumpi\n      mload(0x40)\n      swap2\n      tag_136\n      0x1f\n      dup3\n      add\n      not(0x1f)\n      and\n      0x20\n      add\n      dup5\n      tag_4\n      jump\t// in\n    tag_136:\n      dup3\n      swap5\n      dup2\n      dup5\n      mstore\n      dup2\n      dup4\n      add\n      gt\n      tag_30\n      jumpi\n      dup3\n      dup2\n      0x20\n      swap4\n      dup5\n      0x00\n      swap7\n      add\n      calldatacopy\n      add\n      add\n      mstore\n      jump\t// out\n        /* \"contracts/IntervalContract.sol\":2049:3175  function addKline(KlineInput calldata input) external onlyFactory returns (bool) {... */\n    tag_9:\n        /* \"contracts/IntervalContract.sol\":60:3831  contract IntervalContract {... */\n      tag_139\n        /* \"contracts/IntervalContract.sol\":2260:2274  input.interval */\n      tag_140\n      0x60\n      dup4\n      add\n      dup4\n      tag_7\n      jump\t// in\n    tag_140:\n        /* \"contracts/IntervalContract.sol\":60:3831  contract IntervalContract {... */\n      calldatasize\n      swap2\n      tag_8\n      jump\t// in\n    tag_139:\n      0x20\n      dup2\n      mload\n      swap2\n      add\n        /* \"contracts/IntervalContract.sol\":2244:2276  keccak256(bytes(input.interval)) */\n      keccak256\n        /* \"contracts/IntervalContract.sol\":60:3831  contract IntervalContract {... */\n      mload(0x40)\n      0x00\n      swap1\n        /* \"contracts/IntervalContract.sol\":2296:2304  interval */\n      0x02\n        /* \"contracts/IntervalContract.sol\":60:3831  contract IntervalContract {... */\n      sload\n      swap2\n      dup2\n      tag_141\n      dup5\n      tag_2\n      jump\t// in\n    tag_141:\n      swap2\n      dup3\n      dup3\n      mstore\n      0x20\n      dup3\n      add\n      swap5\n      0x01\n      dup2\n      and\n      swap1\n      dup2\n      0x00\n      eq\n      tag_142\n      jumpi\n      pop\n      0x01\n      eq\n      tag_144\n      jumpi\n    tag_145:\n      tag_146\n      swap3\n      pop\n      sub\n      dup3\n      tag_4\n      jump\t// in\n    tag_146:\n      mload\n        /* \"contracts/IntervalContract.sol\":2280:2306  keccak256(bytes(interval)) */\n      swap1\n      keccak256\n        /* \"contracts/IntervalContract.sol\":2244:2306  keccak256(bytes(input.interval)) == keccak256(bytes(interval)) */\n      sub\n        /* \"contracts/IntervalContract.sol\":60:3831  contract IntervalContract {... */\n      tag_147\n      jumpi\n      sload(0x00)\n        /* \"contracts/IntervalContract.sol\":2296:2304  interval */\n      0x02\n        /* \"contracts/IntervalContract.sol\":2396:2423  klines.length >= MAX_KLINES */\n      dup2\n      lt\n      iszero\n        /* \"contracts/IntervalContract.sol\":2392:2483  if (klines.length >= MAX_KLINES) {... */\n      tag_149\n      jumpi\n        /* \"contracts/IntervalContract.sol\":2622:2634  input.symbol */\n      tag_151\n        /* \"contracts/IntervalContract.sol\":60:3831  contract IntervalContract {... */\n      0x40\n        /* \"contracts/IntervalContract.sol\":2622:2634  input.symbol */\n      dup4\n      add\n      dup4\n      tag_7\n      jump\t// in\n    tag_151:\n        /* \"contracts/IntervalContract.sol\":2961:2975  input.isClosed */\n      swap3\n      swap1\n      swap2\n      0x0180\n      dup3\n      add\n        /* \"contracts/IntervalContract.sol\":60:3831  contract IntervalContract {... */\n      calldataload\n      swap2\n      dup3\n      iszero\n      iszero\n      dup1\n      swap4\n      sub\n      tag_30\n      jumpi\n        /* \"contracts/IntervalContract.sol\":3107:3132  input.takerBuyQuoteVolume */\n      0x01e0\n        /* \"contracts/IntervalContract.sol\":60:3831  contract IntervalContract {... */\n      swap1\n      tag_154\n      mload(0x40)\n      swap6\n      tag_155\n      dup8\n      tag_3\n      jump\t// in\n    tag_155:\n      dup3\n      calldataload\n      dup8\n      mstore\n      0x20\n        /* \"contracts/IntervalContract.sol\":2505:3144  Kline({... */\n      dup8\n      add\n        /* \"contracts/IntervalContract.sol\":2581:2599  input.endTimestamp */\n      swap8\n        /* \"contracts/IntervalContract.sol\":60:3831  contract IntervalContract {... */\n      0x20\n        /* \"contracts/IntervalContract.sol\":2581:2599  input.endTimestamp */\n      dup5\n      add\n        /* \"contracts/IntervalContract.sol\":60:3831  contract IntervalContract {... */\n      calldataload\n      dup10\n      mstore\n      calldatasize\n      swap2\n      tag_8\n      jump\t// in\n    tag_154:\n        /* \"contracts/IntervalContract.sol\":2505:3144  Kline({... */\n      swap4\n        /* \"contracts/IntervalContract.sol\":60:3831  contract IntervalContract {... */\n      0x40\n        /* \"contracts/IntervalContract.sol\":2505:3144  Kline({... */\n      dup7\n      add\n        /* \"contracts/IntervalContract.sol\":60:3831  contract IntervalContract {... */\n      swap5\n      dup6\n      mstore\n        /* \"contracts/IntervalContract.sol\":2663:2681  input.firstTradeId */\n      0x80\n      dup3\n      add\n        /* \"contracts/IntervalContract.sol\":60:3831  contract IntervalContract {... */\n      calldataload\n        /* \"contracts/IntervalContract.sol\":2260:2274  input.interval */\n      0x60\n        /* \"contracts/IntervalContract.sol\":2505:3144  Kline({... */\n      dup8\n      add\n        /* \"contracts/IntervalContract.sol\":60:3831  contract IntervalContract {... */\n      mstore\n        /* \"contracts/IntervalContract.sol\":2709:2726  input.lastTradeId */\n      0xa0\n      dup3\n      add\n        /* \"contracts/IntervalContract.sol\":60:3831  contract IntervalContract {... */\n      calldataload\n        /* \"contracts/IntervalContract.sol\":2663:2681  input.firstTradeId */\n      0x80\n        /* \"contracts/IntervalContract.sol\":2505:3144  Kline({... */\n      dup8\n      add\n        /* \"contracts/IntervalContract.sol\":60:3831  contract IntervalContract {... */\n      mstore\n        /* \"contracts/IntervalContract.sol\":2747:2757  input.open */\n      0xc0\n      dup3\n      add\n        /* \"contracts/IntervalContract.sol\":60:3831  contract IntervalContract {... */\n      calldataload\n        /* \"contracts/IntervalContract.sol\":2709:2726  input.lastTradeId */\n      0xa0\n        /* \"contracts/IntervalContract.sol\":2505:3144  Kline({... */\n      dup8\n      add\n        /* \"contracts/IntervalContract.sol\":60:3831  contract IntervalContract {... */\n      mstore\n        /* \"contracts/IntervalContract.sol\":2778:2788  input.high */\n      0xe0\n      dup3\n      add\n        /* \"contracts/IntervalContract.sol\":60:3831  contract IntervalContract {... */\n      calldataload\n        /* \"contracts/IntervalContract.sol\":2747:2757  input.open */\n      0xc0\n        /* \"contracts/IntervalContract.sol\":2505:3144  Kline({... */\n      dup8\n      add\n        /* \"contracts/IntervalContract.sol\":60:3831  contract IntervalContract {... */\n      mstore\n        /* \"contracts/IntervalContract.sol\":2808:2817  input.low */\n      0x0100\n      dup3\n      add\n        /* \"contracts/IntervalContract.sol\":60:3831  contract IntervalContract {... */\n      calldataload\n        /* \"contracts/IntervalContract.sol\":2778:2788  input.high */\n      0xe0\n        /* \"contracts/IntervalContract.sol\":2505:3144  Kline({... */\n      dup8\n      add\n        /* \"contracts/IntervalContract.sol\":60:3831  contract IntervalContract {... */\n      mstore\n        /* \"contracts/IntervalContract.sol\":2839:2850  input.close */\n      0x0120\n      dup3\n      add\n        /* \"contracts/IntervalContract.sol\":60:3831  contract IntervalContract {... */\n      calldataload\n        /* \"contracts/IntervalContract.sol\":2808:2817  input.low */\n      0x0100\n        /* \"contracts/IntervalContract.sol\":2505:3144  Kline({... */\n      dup8\n      add\n        /* \"contracts/IntervalContract.sol\":60:3831  contract IntervalContract {... */\n      mstore\n        /* \"contracts/IntervalContract.sol\":2873:2885  input.volume */\n      0x0140\n      dup3\n      add\n        /* \"contracts/IntervalContract.sol\":60:3831  contract IntervalContract {... */\n      calldataload\n        /* \"contracts/IntervalContract.sol\":2839:2850  input.close */\n      0x0120\n        /* \"contracts/IntervalContract.sol\":2505:3144  Kline({... */\n      dup8\n      add\n        /* \"contracts/IntervalContract.sol\":60:3831  contract IntervalContract {... */\n      mstore\n        /* \"contracts/IntervalContract.sol\":2916:2936  input.numberOfTrades */\n      0x0160\n      dup3\n      add\n        /* \"contracts/IntervalContract.sol\":60:3831  contract IntervalContract {... */\n      calldataload\n        /* \"contracts/IntervalContract.sol\":2873:2885  input.volume */\n      0x0140\n        /* \"contracts/IntervalContract.sol\":2505:3144  Kline({... */\n      dup8\n      add\n        /* \"contracts/IntervalContract.sol\":60:3831  contract IntervalContract {... */\n      mstore\n        /* \"contracts/IntervalContract.sol\":2916:2936  input.numberOfTrades */\n      0x0160\n        /* \"contracts/IntervalContract.sol\":2505:3144  Kline({... */\n      dup7\n      add\n        /* \"contracts/IntervalContract.sol\":60:3831  contract IntervalContract {... */\n      mstore\n        /* \"contracts/IntervalContract.sol\":3003:3020  input.quoteVolume */\n      0x01a0\n      dup2\n      add\n        /* \"contracts/IntervalContract.sol\":60:3831  contract IntervalContract {... */\n      calldataload\n        /* \"contracts/IntervalContract.sol\":2961:2975  input.isClosed */\n      0x0180\n        /* \"contracts/IntervalContract.sol\":2505:3144  Kline({... */\n      dup7\n      add\n        /* \"contracts/IntervalContract.sol\":60:3831  contract IntervalContract {... */\n      mstore\n        /* \"contracts/IntervalContract.sol\":3051:3071  input.takerBuyVolume */\n      0x01c0\n      dup2\n      add\n        /* \"contracts/IntervalContract.sol\":60:3831  contract IntervalContract {... */\n      calldataload\n        /* \"contracts/IntervalContract.sol\":3003:3020  input.quoteVolume */\n      0x01a0\n        /* \"contracts/IntervalContract.sol\":2505:3144  Kline({... */\n      dup7\n      add\n        /* \"contracts/IntervalContract.sol\":60:3831  contract IntervalContract {... */\n      mstore\n        /* \"contracts/IntervalContract.sol\":3107:3132  input.takerBuyQuoteVolume */\n      add\n        /* \"contracts/IntervalContract.sol\":60:3831  contract IntervalContract {... */\n      calldataload\n        /* \"contracts/IntervalContract.sol\":3051:3071  input.takerBuyVolume */\n      0x01c0\n        /* \"contracts/IntervalContract.sol\":2505:3144  Kline({... */\n      dup5\n      add\n        /* \"contracts/IntervalContract.sol\":60:3831  contract IntervalContract {... */\n      mstore\n      0x010000000000000000\n      dup2\n      lt\n      iszero\n      tag_115\n      jumpi\n      dup1\n      0x01\n      tag_158\n      swap3\n      add\n      0x00\n      sstore\n      tag_1\n      jump\t// in\n    tag_158:\n      swap4\n      swap1\n      swap4\n      tag_159\n      jumpi\n      dup3\n      mload\n      dup5\n      sstore\n      mload\n      0x01\n      dup5\n      add\n      sstore\n      mload\n      dup1\n      mload\n      swap1\n      0xffffffffffffffff\n      dup3\n      gt\n      tag_115\n      jumpi\n      tag_163\n        /* \"contracts/IntervalContract.sol\":2296:2304  interval */\n      0x02\n        /* \"contracts/IntervalContract.sol\":60:3831  contract IntervalContract {... */\n      dup6\n      add\n      sload\n      tag_2\n      jump\t// in\n    tag_163:\n      0x1f\n      dup2\n      gt\n      tag_164\n      jumpi\n    tag_165:\n      pop\n      0x20\n      swap1\n      0x1f\n      dup4\n      gt\n      0x01\n      eq\n      tag_166\n      jumpi\n      swap2\n      dup1\n      0x0e\n      swap5\n      swap3\n        /* \"contracts/IntervalContract.sol\":3051:3071  input.takerBuyVolume */\n      0x01c0\n        /* \"contracts/IntervalContract.sol\":60:3831  contract IntervalContract {... */\n      swap5\n      0x00\n      swap3\n      tag_168\n      jumpi\n    tag_169:\n      pop\n      pop\n      dup2\n      0x01\n      shl\n      swap2\n      not(0x00)\n      swap1\n      0x03\n      shl\n      shr\n      not\n      and\n      or\n        /* \"contracts/IntervalContract.sol\":2296:2304  interval */\n      0x02\n        /* \"contracts/IntervalContract.sol\":60:3831  contract IntervalContract {... */\n      dup6\n      add\n      sstore\n    tag_170:\n        /* \"contracts/IntervalContract.sol\":2260:2274  input.interval */\n      0x60\n        /* \"contracts/IntervalContract.sol\":2505:3144  Kline({... */\n      dup2\n      add\n        /* \"contracts/IntervalContract.sol\":60:3831  contract IntervalContract {... */\n      mload\n      0x03\n      dup6\n      add\n      sstore\n        /* \"contracts/IntervalContract.sol\":2663:2681  input.firstTradeId */\n      0x80\n        /* \"contracts/IntervalContract.sol\":2505:3144  Kline({... */\n      dup2\n      add\n        /* \"contracts/IntervalContract.sol\":60:3831  contract IntervalContract {... */\n      mload\n      0x04\n      dup6\n      add\n      sstore\n        /* \"contracts/IntervalContract.sol\":2709:2726  input.lastTradeId */\n      0xa0\n        /* \"contracts/IntervalContract.sol\":2505:3144  Kline({... */\n      dup2\n      add\n        /* \"contracts/IntervalContract.sol\":60:3831  contract IntervalContract {... */\n      mload\n      0x05\n      dup6\n      add\n      sstore\n        /* \"contracts/IntervalContract.sol\":2747:2757  input.open */\n      0xc0\n        /* \"contracts/IntervalContract.sol\":2505:3144  Kline({... */\n      dup2\n      add\n        /* \"contracts/IntervalContract.sol\":60:3831  contract IntervalContract {... */\n      mload\n      0x06\n      dup6\n      add\n      sstore\n        /* \"contracts/IntervalContract.sol\":2778:2788  input.high */\n      0xe0\n        /* \"contracts/IntervalContract.sol\":2505:3144  Kline({... */\n      dup2\n      add\n        /* \"contracts/IntervalContract.sol\":60:3831  contract IntervalContract {... */\n      mload\n      0x07\n      dup6\n      add\n      sstore\n        /* \"contracts/IntervalContract.sol\":2808:2817  input.low */\n      0x0100\n        /* \"contracts/IntervalContract.sol\":2505:3144  Kline({... */\n      dup2\n      add\n        /* \"contracts/IntervalContract.sol\":60:3831  contract IntervalContract {... */\n      mload\n      0x08\n      dup6\n      add\n      sstore\n        /* \"contracts/IntervalContract.sol\":2839:2850  input.close */\n      0x0120\n        /* \"contracts/IntervalContract.sol\":2505:3144  Kline({... */\n      dup2\n      add\n        /* \"contracts/IntervalContract.sol\":60:3831  contract IntervalContract {... */\n      mload\n      0x09\n      dup6\n      add\n      sstore\n        /* \"contracts/IntervalContract.sol\":2873:2885  input.volume */\n      0x0140\n        /* \"contracts/IntervalContract.sol\":2505:3144  Kline({... */\n      dup2\n      add\n        /* \"contracts/IntervalContract.sol\":60:3831  contract IntervalContract {... */\n      mload\n      0x0a\n      dup6\n      add\n      sstore\n      0x0b\n      dup5\n      add\n        /* \"contracts/IntervalContract.sol\":2916:2936  input.numberOfTrades */\n      0x0160\n        /* \"contracts/IntervalContract.sol\":2505:3144  Kline({... */\n      dup3\n      add\n        /* \"contracts/IntervalContract.sol\":60:3831  contract IntervalContract {... */\n      mload\n      iszero\n      iszero\n      0xff\n      dup1\n      not\n      dup4\n      sload\n      and\n      swap2\n      and\n      or\n      swap1\n      sstore\n        /* \"contracts/IntervalContract.sol\":2961:2975  input.isClosed */\n      0x0180\n        /* \"contracts/IntervalContract.sol\":2505:3144  Kline({... */\n      dup2\n      add\n        /* \"contracts/IntervalContract.sol\":60:3831  contract IntervalContract {... */\n      mload\n      0x0c\n      dup6\n      add\n      sstore\n        /* \"contracts/IntervalContract.sol\":3003:3020  input.quoteVolume */\n      0x01a0\n        /* \"contracts/IntervalContract.sol\":2505:3144  Kline({... */\n      dup2\n      add\n        /* \"contracts/IntervalContract.sol\":60:3831  contract IntervalContract {... */\n      mload\n      0x0d\n      dup6\n      add\n      sstore\n        /* \"contracts/IntervalContract.sol\":2505:3144  Kline({... */\n      add\n        /* \"contracts/IntervalContract.sol\":60:3831  contract IntervalContract {... */\n      mload\n      swap2\n      add\n      sstore\n      0x01\n        /* \"contracts/IntervalContract.sol\":2049:3175  function addKline(KlineInput calldata input) external onlyFactory returns (bool) {... */\n      swap1\n      jump\t// out\n        /* \"contracts/IntervalContract.sol\":60:3831  contract IntervalContract {... */\n    tag_168:\n      add\n      mload\n      swap1\n      pop\n      0x00\n      dup1\n      jump(tag_169)\n    tag_166:\n      swap1\n        /* \"contracts/IntervalContract.sol\":2296:2304  interval */\n      0x02\n        /* \"contracts/IntervalContract.sol\":60:3831  contract IntervalContract {... */\n      dup6\n      add\n      0x00\n      mstore\n      dup1\n      0x00\n      keccak256\n      swap2\n      0x00\n    tag_171:\n      not(0x1f)\n      dup6\n      and\n      dup2\n      lt\n      tag_172\n      jumpi\n      pop\n      swap3\n      0x0e\n      swap5\n      swap3\n      0x01\n      swap3\n        /* \"contracts/IntervalContract.sol\":3051:3071  input.takerBuyVolume */\n      0x01c0\n        /* \"contracts/IntervalContract.sol\":60:3831  contract IntervalContract {... */\n      swap6\n      dup4\n      not(0x1f)\n      dup2\n      and\n      lt\n      tag_174\n      jumpi\n    tag_175:\n      pop\n      pop\n      pop\n      dup2\n      shl\n      add\n        /* \"contracts/IntervalContract.sol\":2296:2304  interval */\n      0x02\n        /* \"contracts/IntervalContract.sol\":60:3831  contract IntervalContract {... */\n      dup6\n      add\n      sstore\n      jump(tag_170)\n    tag_174:\n      add\n      mload\n      not(0x00)\n      0xf8\n      dup5\n      0x03\n      shl\n      and\n      shr\n      not\n      and\n      swap1\n      sstore\n      0x00\n      dup1\n      dup1\n      jump(tag_175)\n    tag_172:\n      swap2\n      swap3\n      0x20\n      0x01\n      dup2\n      swap3\n      dup7\n      dup6\n      add\n      mload\n      dup2\n      sstore\n      add\n      swap5\n      add\n      swap3\n      add\n      jump(tag_171)\n    tag_164:\n        /* \"contracts/IntervalContract.sol\":2296:2304  interval */\n      0x02\n        /* \"contracts/IntervalContract.sol\":60:3831  contract IntervalContract {... */\n      dup6\n      add\n      0x00\n      mstore\n      keccak256(0x00, 0x20)\n      0x1f\n      dup5\n      add\n      0x05\n      shr\n      dup2\n      add\n      swap2\n      0x20\n      dup6\n      lt\n      tag_176\n      jumpi\n    tag_177:\n      0x1f\n      add\n      0x05\n      shr\n      add\n      swap1\n    tag_178:\n      dup2\n      dup2\n      lt\n      tag_179\n      jumpi\n      pop\n      jump(tag_165)\n    tag_179:\n      0x00\n      dup2\n      sstore\n      0x01\n      add\n      jump(tag_178)\n    tag_176:\n      swap1\n      swap2\n      pop\n      dup2\n      swap1\n      jump(tag_177)\n    tag_159:\n      mstore(0x00, shl(0xe0, 0x4e487b71))\n      mstore(0x04, 0x00)\n      revert(0x00, 0x24)\n        /* \"contracts/IntervalContract.sol\":2392:2483  if (klines.length >= MAX_KLINES) {... */\n    tag_149:\n        /* \"contracts/IntervalContract.sol\":2440:2452  return false */\n      pop\n      pop\n      0x00\n      swap1\n      jump\t// out\n        /* \"contracts/IntervalContract.sol\":60:3831  contract IntervalContract {... */\n    tag_147:\n      mload(0x40)\n      shl(0xe5, 0x461bcd)\n      dup2\n      mstore\n      0x20\n      0x04\n      dup3\n      add\n      mstore\n      0x2f\n      0x24\n      dup3\n      add\n      mstore\n      0x4b6c696e6520696e74657276616c20646f6573206e6f74206d6174636820636f\n      0x44\n      dup3\n      add\n      mstore\n      shl(0x8a, 0x1b9d1c9858dd081a5b9d195c9d985b)\n      0x64\n      dup3\n      add\n      mstore\n      0x84\n      swap1\n      revert\n    tag_144:\n      pop\n      swap1\n        /* \"contracts/IntervalContract.sol\":2296:2304  interval */\n      0x02\n      0x00\n        /* \"contracts/IntervalContract.sol\":60:3831  contract IntervalContract {... */\n      mstore\n      0x405787fa12a823e0f2b7631cc41b3ba8828b3321ca811111fa75cd3aa3bb5ace\n      swap1\n      0x00\n      swap2\n    tag_181:\n      dup2\n      dup4\n      lt\n      tag_182\n      jumpi\n      pop\n      pop\n      swap1\n      0x20\n      tag_146\n      swap3\n      dup3\n      add\n      add\n      jump(tag_145)\n    tag_182:\n      0x20\n      swap2\n      swap4\n      pop\n      dup1\n      0x01\n      swap2\n      sload\n      dup4\n      dup6\n      dup9\n      add\n      add\n      mstore\n      add\n      swap2\n      add\n      swap1\n      swap2\n      dup4\n      swap3\n      jump(tag_181)\n    tag_142:\n      not(0xff)\n      and\n      dup7\n      mstore\n      pop\n      tag_146\n      swap3\n      iszero\n      iszero\n      0x05\n      shl\n      dup3\n      add\n      0x20\n      add\n      swap1\n      pop\n      jump(tag_145)\n    tag_10:\n      0xffffffffffffffff\n      dup2\n      gt\n      tag_115\n      jumpi\n      0x05\n      shl\n      0x20\n      add\n      swap1\n      jump\t// out\n    tag_11:\n      dup1\n      mload\n      dup3\n      lt\n      iszero\n      tag_109\n      jumpi\n      0x20\n      swap2\n      0x05\n      shl\n      add\n      add\n      swap1\n      jump\t// out\n\n    auxdata: 0xa26469706673582212208c225f9c1fa1d040cd4ad45d93c82c4c8bfdefd4ef56e1f711343fcd159cbb5864736f6c634300081e0033\n}\n",
				"bytecode": {
					"linkReferences": {},
					"object": "60806040523461020b57610f81803803806100198161020f565b92833981019060208183031261020b578051906001600160401b03821161020b570181601f8201121561020b578051906001600160401b0382116101f75761006a601f8301601f191660200161020f565b928284526020838301011161020b57815f9260208093018386015e83010152600180546001600160a01b0319163317905580516001600160401b0381116101f757600254600181811c911680156101ed575b60208210146101d957601f8111610176575b50602091601f8211600114610116579181925f9261010b575b50508160011b915f199060031b1c1916176002555b604051610d4c90816102358239f35b015190505f806100e7565b601f1982169260025f52805f20915f5b85811061015e57508360019510610146575b505050811b016002556100fc565b01515f1960f88460031b161c191690555f8080610138565b91926020600181928685015181550194019201610126565b60025f527f405787fa12a823e0f2b7631cc41b3ba8828b3321ca811111fa75cd3aa3bb5ace601f830160051c810191602084106101cf575b601f0160051c01905b8181106101c457506100ce565b5f81556001016101b7565b90915081906101ae565b634e487b7160e01b5f52602260045260245ffd5b90607f16906100bc565b634e487b7160e01b5f52604160045260245ffd5b5f80fd5b6040519190601f01601f191682016001600160401b038111838210176101f75760405256fe6080806040526004361015610012575f80fd5b5f3560e01c90816336b275e9146106ad5750806348bae592146106915780636cfcdca7146105a0578063947a36fb146104be578063c3e3bfe514610411578063c45a0155146103e95763fbad15dc14610069575f80fd5b346103e55760403660031901126103e557600435602435905f54808210156103aa578183101590816103a0575b5015610367578082039182116102da57600182018092116102da576100ba82610cea565b916100c8604051938461077b565b808352601f196100d782610cea565b015f5b8181106102ee5750505f5b8181106101f957836040518091602082016020835281518091526040830190602060408260051b8601019301915f905b82821061012457505050500390f35b919360019193955060208091603f198982030185528751908151815282820151838201526101c08061016760408501516101e060408601526101e085019061083d565b93606081015160608501526080810151608085015260a081015160a085015260c081015160c085015260e081015160e085015261010081015161010085015261012081015161012085015261014081015161014085015261016081015115156101608501526101808101516101808501526101a08101516101a085015201519101529601920192018594939192610115565b808301908184116102da5761020f6001926106c6565b50600e6040519161021f8361074a565b805483528481015460208401526102386002820161079d565b60408401526003810154606084015260048101546080840152600581015460a0840152600681015460c0840152600781015460e084015260088101546101008401526009810154610120840152600a81015461014084015260ff600b820154161515610160840152600c810154610180840152600d8101546101a084015201546101c08201526102c88287610d02565b526102d38186610d02565b50016100e5565b634e487b7160e01b5f52601160045260245ffd5b6020906040516102fd8161074a565b5f81525f83820152606060408201525f60608201525f60808201525f60a08201525f60c08201525f60e08201525f6101008201525f6101208201525f6101408201525f6101608201525f6101808201525f6101a08201525f6101c0820152828288010152016100da565b60405162461bcd60e51b8152602060048201526011602482015270092dcecc2d8d2c840cadcc840d2dcc8caf607b1b6044820152606490fd5b905082105f610096565b60405162461bcd60e51b8152602060048201526013602482015272092dcecc2d8d2c840e6e8c2e4e840d2dcc8caf606b1b6044820152606490fd5b5f80fd5b346103e5575f3660031901126103e5576001546040516001600160a01b039091168152602090f35b346103e55760203660031901126103e55760043567ffffffffffffffff81116103e55761020060031982360301126103e5576001546001600160a01b0316330361046d576104636020916004016108da565b6040519015158152f35b60405162461bcd60e51b815260206004820152602360248201527f4f6e6c7920466163746f72792063616e2063616c6c20746869732066756e637460448201526234b7b760e91b6064820152608490fd5b346103e5575f3660031901126103e5576040515f6002546104de81610712565b808452906001811690811561057c575060011461051e575b61051a836105068185038261077b565b60405191829160208352602083019061083d565b0390f35b60025f9081527f405787fa12a823e0f2b7631cc41b3ba8828b3321ca811111fa75cd3aa3bb5ace939250905b808210610562575090915081016020016105066104f6565b91926001816020925483858801015201910190929161054a565b60ff191660208086019190915291151560051b8401909101915061050690506104f6565b346103e55760203660031901126103e5576004355f548110156103e5576105c6906106c6565b5080546001820154906105db6002840161079d565b9260038101549060048101546005820154600683015460078401546008850154600986015491600a87015493600b88015460ff1695600c89015497600d8a015499600e01549a6040519e8f9e8f9e8f908152602001528d604081016101e090526101e0016106489161083d565b9c6060015260808d015260a08c015260c08b015260e08a015261010089015261012088015261014087015215156101608601526101808501526101a08401526101c08301520390f35b346103e5575f3660031901126103e55760205f54604051908152f35b346103e5575f3660031901126103e55780600260209252f35b5f548110156106fe575f808052600f919091027f290decd9548b62a8d60345a988386fc84ba6bc95484008f6362f93160ef3e5630191565b634e487b7160e01b5f52603260045260245ffd5b90600182811c92168015610740575b602083101461072c57565b634e487b7160e01b5f52602260045260245ffd5b91607f1691610721565b6101e0810190811067ffffffffffffffff82111761076757604052565b634e487b7160e01b5f52604160045260245ffd5b90601f8019910116810190811067ffffffffffffffff82111761076757604052565b9060405191825f8254926107b084610712565b808452936001811690811561081b57506001146107d7575b506107d59250038361077b565b565b90505f9291925260205f20905f915b8183106107ff5750509060206107d5928201015f6107c8565b60209193508060019154838589010152019101909184926107e6565b9050602092506107d594915060ff191682840152151560051b8201015f6107c8565b805180835260209291819084018484015e5f828201840152601f01601f1916010190565b903590601e19813603018212156103e5570180359067ffffffffffffffff82116103e5576020019181360383136103e557565b92919267ffffffffffffffff821161076757604051916108be601f8201601f19166020018461077b565b8294818452818301116103e5578281602093845f960137010152565b6108f16108ea6060830183610861565b3691610894565b602081519101206040515f90600254918161090b84610712565b9182825260208201946001811690815f14610cce5750600114610c6f575b6109359250038261077b565b51902003610c12575f546002811015610c0c576109556040830183610861565b929091610180820135918215158093036103e5576101e0906109946040519561097d8761074a565b823587526020870197602084013589523691610894565b93604086019485526080820135606087015260a0820135608087015260c082013560a087015260e082013560c087015261010082013560e08701526101208201356101008701526101408201356101208701526101608201356101408701526101608601526101a08101356101808601526101c08101356101a086015201356101c08401526801000000000000000081101561076757806001610a3992015f556106c6565b939093610bf957825184555160018401555180519067ffffffffffffffff821161076757610a6a6002850154610712565b601f8111610bb1575b50602090601f8311600114610b40579180600e94926101c0945f92610b35575b50508160011b915f199060031b1c19161760028501555b606081015160038501556080810151600485015560a0810151600585015560c0810151600685015560e0810151600785015561010081015160088501556101208101516009850155610140810151600a850155600b8401610160820151151560ff80198354169116179055610180810151600c8501556101a0810151600d8501550151910155600190565b015190505f80610a93565b90600285015f52805f20915f5b601f1985168110610b99575092600e94926001926101c09583601f19811610610b81575b505050811b016002850155610aaa565b01515f1960f88460031b161c191690555f8080610b71565b91926020600181928685015181550194019201610b4d565b600285015f5260205f20601f840160051c81019160208510610bef575b601f0160051c01905b818110610be45750610a73565b5f8155600101610bd7565b9091508190610bce565b634e487b7160e01b5f525f60045260245ffd5b50505f90565b60405162461bcd60e51b815260206004820152602f60248201527f4b6c696e6520696e74657276616c20646f6573206e6f74206d6174636820636f60448201526e1b9d1c9858dd081a5b9d195c9d985b608a1b6064820152608490fd5b509060025f527f405787fa12a823e0f2b7631cc41b3ba8828b3321ca811111fa75cd3aa3bb5ace905f915b818310610cb257505090602061093592820101610929565b6020919350806001915483858801015201910190918392610c9a565b60ff191686525061093592151560051b82016020019050610929565b67ffffffffffffffff81116107675760051b60200190565b80518210156106fe5760209160051b01019056fea26469706673582212208c225f9c1fa1d040cd4ad45d93c82c4c8bfdefd4ef56e1f711343fcd159cbb5864736f6c634300081e0033",
					"opcodes": "PUSH1 0x80 PUSH1 0x40 MSTORE CALLVALUE PUSH2 0x20B JUMPI PUSH2 0xF81 DUP1 CODESIZE SUB DUP1 PUSH2 0x19 DUP2 PUSH2 0x20F JUMP JUMPDEST SWAP3 DUP4 CODECOPY DUP2 ADD SWAP1 PUSH1 0x20 DUP2 DUP4 SUB SLT PUSH2 0x20B JUMPI DUP1 MLOAD SWAP1 PUSH1 0x1 PUSH1 0x1 PUSH1 0x40 SHL SUB DUP3 GT PUSH2 0x20B JUMPI ADD DUP2 PUSH1 0x1F DUP3 ADD SLT ISZERO PUSH2 0x20B JUMPI DUP1 MLOAD SWAP1 PUSH1 0x1 PUSH1 0x1 PUSH1 0x40 SHL SUB DUP3 GT PUSH2 0x1F7 JUMPI PUSH2 0x6A PUSH1 0x1F DUP4 ADD PUSH1 0x1F NOT AND PUSH1 0x20 ADD PUSH2 0x20F JUMP JUMPDEST SWAP3 DUP3 DUP5 MSTORE PUSH1 0x20 DUP4 DUP4 ADD ADD GT PUSH2 0x20B JUMPI DUP2 PUSH0 SWAP3 PUSH1 0x20 DUP1 SWAP4 ADD DUP4 DUP7 ADD MCOPY DUP4 ADD ADD MSTORE PUSH1 0x1 DUP1 SLOAD PUSH1 0x1 PUSH1 0x1 PUSH1 0xA0 SHL SUB NOT AND CALLER OR SWAP1 SSTORE DUP1 MLOAD PUSH1 0x1 PUSH1 0x1 PUSH1 0x40 SHL SUB DUP2 GT PUSH2 0x1F7 JUMPI PUSH1 0x2 SLOAD PUSH1 0x1 DUP2 DUP2 SHR SWAP2 AND DUP1 ISZERO PUSH2 0x1ED JUMPI JUMPDEST PUSH1 0x20 DUP3 LT EQ PUSH2 0x1D9 JUMPI PUSH1 0x1F DUP2 GT PUSH2 0x176 JUMPI JUMPDEST POP PUSH1 0x20 SWAP2 PUSH1 0x1F DUP3 GT PUSH1 0x1 EQ PUSH2 0x116 JUMPI SWAP2 DUP2 SWAP3 PUSH0 SWAP3 PUSH2 0x10B JUMPI JUMPDEST POP POP DUP2 PUSH1 0x1 SHL SWAP2 PUSH0 NOT SWAP1 PUSH1 0x3 SHL SHR NOT AND OR PUSH1 0x2 SSTORE JUMPDEST PUSH1 0x40 MLOAD PUSH2 0xD4C SWAP1 DUP2 PUSH2 0x235 DUP3 CODECOPY RETURN JUMPDEST ADD MLOAD SWAP1 POP PUSH0 DUP1 PUSH2 0xE7 JUMP JUMPDEST PUSH1 0x1F NOT DUP3 AND SWAP3 PUSH1 0x2 PUSH0 MSTORE DUP1 PUSH0 KECCAK256 SWAP2 PUSH0 JUMPDEST DUP6 DUP2 LT PUSH2 0x15E JUMPI POP DUP4 PUSH1 0x1 SWAP6 LT PUSH2 0x146 JUMPI JUMPDEST POP POP POP DUP2 SHL ADD PUSH1 0x2 SSTORE PUSH2 0xFC JUMP JUMPDEST ADD MLOAD PUSH0 NOT PUSH1 0xF8 DUP5 PUSH1 0x3 SHL AND SHR NOT AND SWAP1 SSTORE PUSH0 DUP1 DUP1 PUSH2 0x138 JUMP JUMPDEST SWAP2 SWAP3 PUSH1 0x20 PUSH1 0x1 DUP2 SWAP3 DUP7 DUP6 ADD MLOAD DUP2 SSTORE ADD SWAP5 ADD SWAP3 ADD PUSH2 0x126 JUMP JUMPDEST PUSH1 0x2 PUSH0 MSTORE PUSH32 0x405787FA12A823E0F2B7631CC41B3BA8828B3321CA811111FA75CD3AA3BB5ACE PUSH1 0x1F DUP4 ADD PUSH1 0x5 SHR DUP2 ADD SWAP2 PUSH1 0x20 DUP5 LT PUSH2 0x1CF JUMPI JUMPDEST PUSH1 0x1F ADD PUSH1 0x5 SHR ADD SWAP1 JUMPDEST DUP2 DUP2 LT PUSH2 0x1C4 JUMPI POP PUSH2 0xCE JUMP JUMPDEST PUSH0 DUP2 SSTORE PUSH1 0x1 ADD PUSH2 0x1B7 JUMP JUMPDEST SWAP1 SWAP2 POP DUP2 SWAP1 PUSH2 0x1AE JUMP JUMPDEST PUSH4 0x4E487B71 PUSH1 0xE0 SHL PUSH0 MSTORE PUSH1 0x22 PUSH1 0x4 MSTORE PUSH1 0x24 PUSH0 REVERT JUMPDEST SWAP1 PUSH1 0x7F AND SWAP1 PUSH2 0xBC JUMP JUMPDEST PUSH4 0x4E487B71 PUSH1 0xE0 SHL PUSH0 MSTORE PUSH1 0x41 PUSH1 0x4 MSTORE PUSH1 0x24 PUSH0 REVERT JUMPDEST PUSH0 DUP1 REVERT JUMPDEST PUSH1 0x40 MLOAD SWAP2 SWAP1 PUSH1 0x1F ADD PUSH1 0x1F NOT AND DUP3 ADD PUSH1 0x1 PUSH1 0x1 PUSH1 0x40 SHL SUB DUP2 GT DUP4 DUP3 LT OR PUSH2 0x1F7 JUMPI PUSH1 0x40 MSTORE JUMP INVALID PUSH1 0x80 DUP1 PUSH1 0x40 MSTORE PUSH1 0x4 CALLDATASIZE LT ISZERO PUSH2 0x12 JUMPI PUSH0 DUP1 REVERT JUMPDEST PUSH0 CALLDATALOAD PUSH1 0xE0 SHR SWAP1 DUP2 PUSH4 0x36B275E9 EQ PUSH2 0x6AD JUMPI POP DUP1 PUSH4 0x48BAE592 EQ PUSH2 0x691 JUMPI DUP1 PUSH4 0x6CFCDCA7 EQ PUSH2 0x5A0 JUMPI DUP1 PUSH4 0x947A36FB EQ PUSH2 0x4BE JUMPI DUP1 PUSH4 0xC3E3BFE5 EQ PUSH2 0x411 JUMPI DUP1 PUSH4 0xC45A0155 EQ PUSH2 0x3E9 JUMPI PUSH4 0xFBAD15DC EQ PUSH2 0x69 JUMPI PUSH0 DUP1 REVERT JUMPDEST CALLVALUE PUSH2 0x3E5 JUMPI PUSH1 0x40 CALLDATASIZE PUSH1 0x3 NOT ADD SLT PUSH2 0x3E5 JUMPI PUSH1 0x4 CALLDATALOAD PUSH1 0x24 CALLDATALOAD SWAP1 PUSH0 SLOAD DUP1 DUP3 LT ISZERO PUSH2 0x3AA JUMPI DUP2 DUP4 LT ISZERO SWAP1 DUP2 PUSH2 0x3A0 JUMPI JUMPDEST POP ISZERO PUSH2 0x367 JUMPI DUP1 DUP3 SUB SWAP2 DUP3 GT PUSH2 0x2DA JUMPI PUSH1 0x1 DUP3 ADD DUP1 SWAP3 GT PUSH2 0x2DA JUMPI PUSH2 0xBA DUP3 PUSH2 0xCEA JUMP JUMPDEST SWAP2 PUSH2 0xC8 PUSH1 0x40 MLOAD SWAP4 DUP5 PUSH2 0x77B JUMP JUMPDEST DUP1 DUP4 MSTORE PUSH1 0x1F NOT PUSH2 0xD7 DUP3 PUSH2 0xCEA JUMP JUMPDEST ADD PUSH0 JUMPDEST DUP2 DUP2 LT PUSH2 0x2EE JUMPI POP POP PUSH0 JUMPDEST DUP2 DUP2 LT PUSH2 0x1F9 JUMPI DUP4 PUSH1 0x40 MLOAD DUP1 SWAP2 PUSH1 0x20 DUP3 ADD PUSH1 0x20 DUP4 MSTORE DUP2 MLOAD DUP1 SWAP2 MSTORE PUSH1 0x40 DUP4 ADD SWAP1 PUSH1 0x20 PUSH1 0x40 DUP3 PUSH1 0x5 SHL DUP7 ADD ADD SWAP4 ADD SWAP2 PUSH0 SWAP1 JUMPDEST DUP3 DUP3 LT PUSH2 0x124 JUMPI POP POP POP POP SUB SWAP1 RETURN JUMPDEST SWAP2 SWAP4 PUSH1 0x1 SWAP2 SWAP4 SWAP6 POP PUSH1 0x20 DUP1 SWAP2 PUSH1 0x3F NOT DUP10 DUP3 SUB ADD DUP6 MSTORE DUP8 MLOAD SWAP1 DUP2 MLOAD DUP2 MSTORE DUP3 DUP3 ADD MLOAD DUP4 DUP3 ADD MSTORE PUSH2 0x1C0 DUP1 PUSH2 0x167 PUSH1 0x40 DUP6 ADD MLOAD PUSH2 0x1E0 PUSH1 0x40 DUP7 ADD MSTORE PUSH2 0x1E0 DUP6 ADD SWAP1 PUSH2 0x83D JUMP JUMPDEST SWAP4 PUSH1 0x60 DUP2 ADD MLOAD PUSH1 0x60 DUP6 ADD MSTORE PUSH1 0x80 DUP2 ADD MLOAD PUSH1 0x80 DUP6 ADD MSTORE PUSH1 0xA0 DUP2 ADD MLOAD PUSH1 0xA0 DUP6 ADD MSTORE PUSH1 0xC0 DUP2 ADD MLOAD PUSH1 0xC0 DUP6 ADD MSTORE PUSH1 0xE0 DUP2 ADD MLOAD PUSH1 0xE0 DUP6 ADD MSTORE PUSH2 0x100 DUP2 ADD MLOAD PUSH2 0x100 DUP6 ADD MSTORE PUSH2 0x120 DUP2 ADD MLOAD PUSH2 0x120 DUP6 ADD MSTORE PUSH2 0x140 DUP2 ADD MLOAD PUSH2 0x140 DUP6 ADD MSTORE PUSH2 0x160 DUP2 ADD MLOAD ISZERO ISZERO PUSH2 0x160 DUP6 ADD MSTORE PUSH2 0x180 DUP2 ADD MLOAD PUSH2 0x180 DUP6 ADD MSTORE PUSH2 0x1A0 DUP2 ADD MLOAD PUSH2 0x1A0 DUP6 ADD MSTORE ADD MLOAD SWAP2 ADD MSTORE SWAP7 ADD SWAP3 ADD SWAP3 ADD DUP6 SWAP5 SWAP4 SWAP2 SWAP3 PUSH2 0x115 JUMP JUMPDEST DUP1 DUP4 ADD SWAP1 DUP2 DUP5 GT PUSH2 0x2DA JUMPI PUSH2 0x20F PUSH1 0x1 SWAP3 PUSH2 0x6C6 JUMP JUMPDEST POP PUSH1 0xE PUSH1 0x40 MLOAD SWAP2 PUSH2 0x21F DUP4 PUSH2 0x74A JUMP JUMPDEST DUP1 SLOAD DUP4 MSTORE DUP5 DUP2 ADD SLOAD PUSH1 0x20 DUP5 ADD MSTORE PUSH2 0x238 PUSH1 0x2 DUP3 ADD PUSH2 0x79D JUMP JUMPDEST PUSH1 0x40 DUP5 ADD MSTORE PUSH1 0x3 DUP2 ADD SLOAD PUSH1 0x60 DUP5 ADD MSTORE PUSH1 0x4 DUP2 ADD SLOAD PUSH1 0x80 DUP5 ADD MSTORE PUSH1 0x5 DUP2 ADD SLOAD PUSH1 0xA0 DUP5 ADD MSTORE PUSH1 0x6 DUP2 ADD SLOAD PUSH1 0xC0 DUP5 ADD MSTORE PUSH1 0x7 DUP2 ADD SLOAD PUSH1 0xE0 DUP5 ADD MSTORE PUSH1 0x8 DUP2 ADD SLOAD PUSH2 0x100 DUP5 ADD MSTORE PUSH1 0x9 DUP2 ADD SLOAD PUSH2 0x120 DUP5 ADD MSTORE PUSH1 0xA DUP2 ADD SLOAD PUSH2 0x140 DUP5 ADD MSTORE PUSH1 0xFF PUSH1 0xB DUP3 ADD SLOAD AND ISZERO ISZERO PUSH2 0x160 DUP5 ADD MSTORE PUSH1 0xC DUP2 ADD SLOAD PUSH2 0x180 DUP5 ADD MSTORE PUSH1 0xD DUP2 ADD SLOAD PUSH2 0x1A0 DUP5 ADD MSTORE ADD SLOAD PUSH2 0x1C0 DUP3 ADD MSTORE PUSH2 0x2C8 DUP3 DUP8 PUSH2 0xD02 JUMP JUMPDEST MSTORE PUSH2 0x2D3 DUP2 DUP7 PUSH2 0xD02 JUMP JUMPDEST POP ADD PUSH2 0xE5 JUMP JUMPDEST PUSH4 0x4E487B71 PUSH1 0xE0 SHL PUSH0 MSTORE PUSH1 0x11 PUSH1 0x4 MSTORE PUSH1 0x24 PUSH0 REVERT JUMPDEST PUSH1 0x20 SWAP1 PUSH1 0x40 MLOAD PUSH2 0x2FD DUP2 PUSH2 0x74A JUMP JUMPDEST PUSH0 DUP2 MSTORE PUSH0 DUP4 DUP3 ADD MSTORE PUSH1 0x60 PUSH1 0x40 DUP3 ADD MSTORE PUSH0 PUSH1 0x60 DUP3 ADD MSTORE PUSH0 PUSH1 0x80 DUP3 ADD MSTORE PUSH0 PUSH1 0xA0 DUP3 ADD MSTORE PUSH0 PUSH1 0xC0 DUP3 ADD MSTORE PUSH0 PUSH1 0xE0 DUP3 ADD MSTORE PUSH0 PUSH2 0x100 DUP3 ADD MSTORE PUSH0 PUSH2 0x120 DUP3 ADD MSTORE PUSH0 PUSH2 0x140 DUP3 ADD MSTORE PUSH0 PUSH2 0x160 DUP3 ADD MSTORE PUSH0 PUSH2 0x180 DUP3 ADD MSTORE PUSH0 PUSH2 0x1A0 DUP3 ADD MSTORE PUSH0 PUSH2 0x1C0 DUP3 ADD MSTORE DUP3 DUP3 DUP9 ADD ADD MSTORE ADD PUSH2 0xDA JUMP JUMPDEST PUSH1 0x40 MLOAD PUSH3 0x461BCD PUSH1 0xE5 SHL DUP2 MSTORE PUSH1 0x20 PUSH1 0x4 DUP3 ADD MSTORE PUSH1 0x11 PUSH1 0x24 DUP3 ADD MSTORE PUSH17 0x92DCECC2D8D2C840CADCC840D2DCC8CAF PUSH1 0x7B SHL PUSH1 0x44 DUP3 ADD MSTORE PUSH1 0x64 SWAP1 REVERT JUMPDEST SWAP1 POP DUP3 LT PUSH0 PUSH2 0x96 JUMP JUMPDEST PUSH1 0x40 MLOAD PUSH3 0x461BCD PUSH1 0xE5 SHL DUP2 MSTORE PUSH1 0x20 PUSH1 0x4 DUP3 ADD MSTORE PUSH1 0x13 PUSH1 0x24 DUP3 ADD MSTORE PUSH19 0x92DCECC2D8D2C840E6E8C2E4E840D2DCC8CAF PUSH1 0x6B SHL PUSH1 0x44 DUP3 ADD MSTORE PUSH1 0x64 SWAP1 REVERT JUMPDEST PUSH0 DUP1 REVERT JUMPDEST CALLVALUE PUSH2 0x3E5 JUMPI PUSH0 CALLDATASIZE PUSH1 0x3 NOT ADD SLT PUSH2 0x3E5 JUMPI PUSH1 0x1 SLOAD PUSH1 0x40 MLOAD PUSH1 0x1 PUSH1 0x1 PUSH1 0xA0 SHL SUB SWAP1 SWAP2 AND DUP2 MSTORE PUSH1 0x20 SWAP1 RETURN JUMPDEST CALLVALUE PUSH2 0x3E5 JUMPI PUSH1 0x20 CALLDATASIZE PUSH1 0x3 NOT ADD SLT PUSH2 0x3E5 JUMPI PUSH1 0x4 CALLDATALOAD PUSH8 0xFFFFFFFFFFFFFFFF DUP2 GT PUSH2 0x3E5 JUMPI PUSH2 0x200 PUSH1 0x3 NOT DUP3 CALLDATASIZE SUB ADD SLT PUSH2 0x3E5 JUMPI PUSH1 0x1 SLOAD PUSH1 0x1 PUSH1 0x1 PUSH1 0xA0 SHL SUB AND CALLER SUB PUSH2 0x46D JUMPI PUSH2 0x463 PUSH1 0x20 SWAP2 PUSH1 0x4 ADD PUSH2 0x8DA JUMP JUMPDEST PUSH1 0x40 MLOAD SWAP1 ISZERO ISZERO DUP2 MSTORE RETURN JUMPDEST PUSH1 0x40 MLOAD PUSH3 0x461BCD PUSH1 0xE5 SHL DUP2 MSTORE PUSH1 0x20 PUSH1 0x4 DUP3 ADD MSTORE PUSH1 0x23 PUSH1 0x24 DUP3 ADD MSTORE PUSH32 0x4F6E6C7920466163746F72792063616E2063616C6C20746869732066756E6374 PUSH1 0x44 DUP3 ADD MSTORE PUSH3 0x34B7B7 PUSH1 0xE9 SHL PUSH1 0x64 DUP3 ADD MSTORE PUSH1 0x84 SWAP1 REVERT JUMPDEST CALLVALUE PUSH2 0x3E5 JUMPI PUSH0 CALLDATASIZE PUSH1 0x3 NOT ADD SLT PUSH2 0x3E5 JUMPI PUSH1 0x40 MLOAD PUSH0 PUSH1 0x2 SLOAD PUSH2 0x4DE DUP2 PUSH2 0x712 JUMP JUMPDEST DUP1 DUP5 MSTORE SWAP1 PUSH1 0x1 DUP2 AND SWAP1 DUP2 ISZERO PUSH2 0x57C JUMPI POP PUSH1 0x1 EQ PUSH2 0x51E JUMPI JUMPDEST PUSH2 0x51A DUP4 PUSH2 0x506 DUP2 DUP6 SUB DUP3 PUSH2 0x77B JUMP JUMPDEST PUSH1 0x40 MLOAD SWAP2 DUP3 SWAP2 PUSH1 0x20 DUP4 MSTORE PUSH1 0x20 DUP4 ADD SWAP1 PUSH2 0x83D JUMP JUMPDEST SUB SWAP1 RETURN JUMPDEST PUSH1 0x2 PUSH0 SWAP1 DUP2 MSTORE PUSH32 0x405787FA12A823E0F2B7631CC41B3BA8828B3321CA811111FA75CD3AA3BB5ACE SWAP4 SWAP3 POP SWAP1 JUMPDEST DUP1 DUP3 LT PUSH2 0x562 JUMPI POP SWAP1 SWAP2 POP DUP2 ADD PUSH1 0x20 ADD PUSH2 0x506 PUSH2 0x4F6 JUMP JUMPDEST SWAP2 SWAP3 PUSH1 0x1 DUP2 PUSH1 0x20 SWAP3 SLOAD DUP4 DUP6 DUP9 ADD ADD MSTORE ADD SWAP2 ADD SWAP1 SWAP3 SWAP2 PUSH2 0x54A JUMP JUMPDEST PUSH1 0xFF NOT AND PUSH1 0x20 DUP1 DUP7 ADD SWAP2 SWAP1 SWAP2 MSTORE SWAP2 ISZERO ISZERO PUSH1 0x5 SHL DUP5 ADD SWAP1 SWAP2 ADD SWAP2 POP PUSH2 0x506 SWAP1 POP PUSH2 0x4F6 JUMP JUMPDEST CALLVALUE PUSH2 0x3E5 JUMPI PUSH1 0x20 CALLDATASIZE PUSH1 0x3 NOT ADD SLT PUSH2 0x3E5 JUMPI PUSH1 0x4 CALLDATALOAD PUSH0 SLOAD DUP2 LT ISZERO PUSH2 0x3E5 JUMPI PUSH2 0x5C6 SWAP1 PUSH2 0x6C6 JUMP JUMPDEST POP DUP1 SLOAD PUSH1 0x1 DUP3 ADD SLOAD SWAP1 PUSH2 0x5DB PUSH1 0x2 DUP5 ADD PUSH2 0x79D JUMP JUMPDEST SWAP3 PUSH1 0x3 DUP2 ADD SLOAD SWAP1 PUSH1 0x4 DUP2 ADD SLOAD PUSH1 0x5 DUP3 ADD SLOAD PUSH1 0x6 DUP4 ADD SLOAD PUSH1 0x7 DUP5 ADD SLOAD PUSH1 0x8 DUP6 ADD SLOAD PUSH1 0x9 DUP7 ADD SLOAD SWAP2 PUSH1 0xA DUP8 ADD SLOAD SWAP4 PUSH1 0xB DUP9 ADD SLOAD PUSH1 0xFF AND SWAP6 PUSH1 0xC DUP10 ADD SLOAD SWAP8 PUSH1 0xD DUP11 ADD SLOAD SWAP10 PUSH1 0xE ADD SLOAD SWAP11 PUSH1 0x40 MLOAD SWAP15 DUP16 SWAP15 DUP16 SWAP15 DUP16 SWAP1 DUP2 MSTORE PUSH1 0x20 ADD MSTORE DUP14 PUSH1 0x40 DUP2 ADD PUSH2 0x1E0 SWAP1 MSTORE PUSH2 0x1E0 ADD PUSH2 0x648 SWAP2 PUSH2 0x83D JUMP JUMPDEST SWAP13 PUSH1 0x60 ADD MSTORE PUSH1 0x80 DUP14 ADD MSTORE PUSH1 0xA0 DUP13 ADD MSTORE PUSH1 0xC0 DUP12 ADD MSTORE PUSH1 0xE0 DUP11 ADD MSTORE PUSH2 0x100 DUP10 ADD MSTORE PUSH2 0x120 DUP9 ADD MSTORE PUSH2 0x140 DUP8 ADD MSTORE ISZERO ISZERO PUSH2 0x160 DUP7 ADD MSTORE PUSH2 0x180 DUP6 ADD MSTORE PUSH2 0x1A0 DUP5 ADD MSTORE PUSH2 0x1C0 DUP4 ADD MSTORE SUB SWAP1 RETURN JUMPDEST CALLVALUE PUSH2 0x3E5 JUMPI PUSH0 CALLDATASIZE PUSH1 0x3 NOT ADD SLT PUSH2 0x3E5 JUMPI PUSH1 0x20 PUSH0 SLOAD PUSH1 0x40 MLOAD SWAP1 DUP2 MSTORE RETURN JUMPDEST CALLVALUE PUSH2 0x3E5 JUMPI PUSH0 CALLDATASIZE PUSH1 0x3 NOT ADD SLT PUSH2 0x3E5 JUMPI DUP1 PUSH1 0x2 PUSH1 0x20 SWAP3 MSTORE RETURN JUMPDEST PUSH0 SLOAD DUP2 LT ISZERO PUSH2 0x6FE JUMPI PUSH0 DUP1 DUP1 MSTORE PUSH1 0xF SWAP2 SWAP1 SWAP2 MUL PUSH32 0x290DECD9548B62A8D60345A988386FC84BA6BC95484008F6362F93160EF3E563 ADD SWAP2 JUMP JUMPDEST PUSH4 0x4E487B71 PUSH1 0xE0 SHL PUSH0 MSTORE PUSH1 0x32 PUSH1 0x4 MSTORE PUSH1 0x24 PUSH0 REVERT JUMPDEST SWAP1 PUSH1 0x1 DUP3 DUP2 SHR SWAP3 AND DUP1 ISZERO PUSH2 0x740 JUMPI JUMPDEST PUSH1 0x20 DUP4 LT EQ PUSH2 0x72C JUMPI JUMP JUMPDEST PUSH4 0x4E487B71 PUSH1 0xE0 SHL PUSH0 MSTORE PUSH1 0x22 PUSH1 0x4 MSTORE PUSH1 0x24 PUSH0 REVERT JUMPDEST SWAP2 PUSH1 0x7F AND SWAP2 PUSH2 0x721 JUMP JUMPDEST PUSH2 0x1E0 DUP2 ADD SWAP1 DUP2 LT PUSH8 0xFFFFFFFFFFFFFFFF DUP3 GT OR PUSH2 0x767 JUMPI PUSH1 0x40 MSTORE JUMP JUMPDEST PUSH4 0x4E487B71 PUSH1 0xE0 SHL PUSH0 MSTORE PUSH1 0x41 PUSH1 0x4 MSTORE PUSH1 0x24 PUSH0 REVERT JUMPDEST SWAP1 PUSH1 0x1F DUP1 NOT SWAP2 ADD AND DUP2 ADD SWAP1 DUP2 LT PUSH8 0xFFFFFFFFFFFFFFFF DUP3 GT OR PUSH2 0x767 JUMPI PUSH1 0x40 MSTORE JUMP JUMPDEST SWAP1 PUSH1 0x40 MLOAD SWAP2 DUP3 PUSH0 DUP3 SLOAD SWAP3 PUSH2 0x7B0 DUP5 PUSH2 0x712 JUMP JUMPDEST DUP1 DUP5 MSTORE SWAP4 PUSH1 0x1 DUP2 AND SWAP1 DUP2 ISZERO PUSH2 0x81B JUMPI POP PUSH1 0x1 EQ PUSH2 0x7D7 JUMPI JUMPDEST POP PUSH2 0x7D5 SWAP3 POP SUB DUP4 PUSH2 0x77B JUMP JUMPDEST JUMP JUMPDEST SWAP1 POP PUSH0 SWAP3 SWAP2 SWAP3 MSTORE PUSH1 0x20 PUSH0 KECCAK256 SWAP1 PUSH0 SWAP2 JUMPDEST DUP2 DUP4 LT PUSH2 0x7FF JUMPI POP POP SWAP1 PUSH1 0x20 PUSH2 0x7D5 SWAP3 DUP3 ADD ADD PUSH0 PUSH2 0x7C8 JUMP JUMPDEST PUSH1 0x20 SWAP2 SWAP4 POP DUP1 PUSH1 0x1 SWAP2 SLOAD DUP4 DUP6 DUP10 ADD ADD MSTORE ADD SWAP2 ADD SWAP1 SWAP2 DUP5 SWAP3 PUSH2 0x7E6 JUMP JUMPDEST SWAP1 POP PUSH1 0x20 SWAP3 POP PUSH2 0x7D5 SWAP5 SWAP2 POP PUSH1 0xFF NOT AND DUP3 DUP5 ADD MSTORE ISZERO ISZERO PUSH1 0x5 SHL DUP3 ADD ADD PUSH0 PUSH2 0x7C8 JUMP JUMPDEST DUP1 MLOAD DUP1 DUP4 MSTORE PUSH1 0x20 SWAP3 SWAP2 DUP2 SWAP1 DUP5 ADD DUP5 DUP5 ADD MCOPY PUSH0 DUP3 DUP3 ADD DUP5 ADD MSTORE PUSH1 0x1F ADD PUSH1 0x1F NOT AND ADD ADD SWAP1 JUMP JUMPDEST SWAP1 CALLDATALOAD SWAP1 PUSH1 0x1E NOT DUP2 CALLDATASIZE SUB ADD DUP3 SLT ISZERO PUSH2 0x3E5 JUMPI ADD DUP1 CALLDATALOAD SWAP1 PUSH8 0xFFFFFFFFFFFFFFFF DUP3 GT PUSH2 0x3E5 JUMPI PUSH1 0x20 ADD SWAP2 DUP2 CALLDATASIZE SUB DUP4 SGT PUSH2 0x3E5 JUMPI JUMP JUMPDEST SWAP3 SWAP2 SWAP3 PUSH8 0xFFFFFFFFFFFFFFFF DUP3 GT PUSH2 0x767 JUMPI PUSH1 0x40 MLOAD SWAP2 PUSH2 0x8BE PUSH1 0x1F DUP3 ADD PUSH1 0x1F NOT AND PUSH1 0x20 ADD DUP5 PUSH2 0x77B JUMP JUMPDEST DUP3 SWAP5 DUP2 DUP5 MSTORE DUP2 DUP4 ADD GT PUSH2 0x3E5 JUMPI DUP3 DUP2 PUSH1 0x20 SWAP4 DUP5 PUSH0 SWAP7 ADD CALLDATACOPY ADD ADD MSTORE JUMP JUMPDEST PUSH2 0x8F1 PUSH2 0x8EA PUSH1 0x60 DUP4 ADD DUP4 PUSH2 0x861 JUMP JUMPDEST CALLDATASIZE SWAP2 PUSH2 0x894 JUMP JUMPDEST PUSH1 0x20 DUP2 MLOAD SWAP2 ADD KECCAK256 PUSH1 0x40 MLOAD PUSH0 SWAP1 PUSH1 0x2 SLOAD SWAP2 DUP2 PUSH2 0x90B DUP5 PUSH2 0x712 JUMP JUMPDEST SWAP2 DUP3 DUP3 MSTORE PUSH1 0x20 DUP3 ADD SWAP5 PUSH1 0x1 DUP2 AND SWAP1 DUP2 PUSH0 EQ PUSH2 0xCCE JUMPI POP PUSH1 0x1 EQ PUSH2 0xC6F JUMPI JUMPDEST PUSH2 0x935 SWAP3 POP SUB DUP3 PUSH2 0x77B JUMP JUMPDEST MLOAD SWAP1 KECCAK256 SUB PUSH2 0xC12 JUMPI PUSH0 SLOAD PUSH1 0x2 DUP2 LT ISZERO PUSH2 0xC0C JUMPI PUSH2 0x955 PUSH1 0x40 DUP4 ADD DUP4 PUSH2 0x861 JUMP JUMPDEST SWAP3 SWAP1 SWAP2 PUSH2 0x180 DUP3 ADD CALLDATALOAD SWAP2 DUP3 ISZERO ISZERO DUP1 SWAP4 SUB PUSH2 0x3E5 JUMPI PUSH2 0x1E0 SWAP1 PUSH2 0x994 PUSH1 0x40 MLOAD SWAP6 PUSH2 0x97D DUP8 PUSH2 0x74A JUMP JUMPDEST DUP3 CALLDATALOAD DUP8 MSTORE PUSH1 0x20 DUP8 ADD SWAP8 PUSH1 0x20 DUP5 ADD CALLDATALOAD DUP10 MSTORE CALLDATASIZE SWAP2 PUSH2 0x894 JUMP JUMPDEST SWAP4 PUSH1 0x40 DUP7 ADD SWAP5 DUP6 MSTORE PUSH1 0x80 DUP3 ADD CALLDATALOAD PUSH1 0x60 DUP8 ADD MSTORE PUSH1 0xA0 DUP3 ADD CALLDATALOAD PUSH1 0x80 DUP8 ADD MSTORE PUSH1 0xC0 DUP3 ADD CALLDATALOAD PUSH1 0xA0 DUP8 ADD MSTORE PUSH1 0xE0 DUP3 ADD CALLDATALOAD PUSH1 0xC0 DUP8 ADD MSTORE PUSH2 0x100 DUP3 ADD CALLDATALOAD PUSH1 0xE0 DUP8 ADD MSTORE PUSH2 0x120 DUP3 ADD CALLDATALOAD PUSH2 0x100 DUP8 ADD MSTORE PUSH2 0x140 DUP3 ADD CALLDATALOAD PUSH2 0x120 DUP8 ADD MSTORE PUSH2 0x160 DUP3 ADD CALLDATALOAD PUSH2 0x140 DUP8 ADD MSTORE PUSH2 0x160 DUP7 ADD MSTORE PUSH2 0x1A0 DUP2 ADD CALLDATALOAD PUSH2 0x180 DUP7 ADD MSTORE PUSH2 0x1C0 DUP2 ADD CALLDATALOAD PUSH2 0x1A0 DUP7 ADD MSTORE ADD CALLDATALOAD PUSH2 0x1C0 DUP5 ADD MSTORE PUSH9 0x10000000000000000 DUP2 LT ISZERO PUSH2 0x767 JUMPI DUP1 PUSH1 0x1 PUSH2 0xA39 SWAP3 ADD PUSH0 SSTORE PUSH2 0x6C6 JUMP JUMPDEST SWAP4 SWAP1 SWAP4 PUSH2 0xBF9 JUMPI DUP3 MLOAD DUP5 SSTORE MLOAD PUSH1 0x1 DUP5 ADD SSTORE MLOAD DUP1 MLOAD SWAP1 PUSH8 0xFFFFFFFFFFFFFFFF DUP3 GT PUSH2 0x767 JUMPI PUSH2 0xA6A PUSH1 0x2 DUP6 ADD SLOAD PUSH2 0x712 JUMP JUMPDEST PUSH1 0x1F DUP2 GT PUSH2 0xBB1 JUMPI JUMPDEST POP PUSH1 0x20 SWAP1 PUSH1 0x1F DUP4 GT PUSH1 0x1 EQ PUSH2 0xB40 JUMPI SWAP2 DUP1 PUSH1 0xE SWAP5 SWAP3 PUSH2 0x1C0 SWAP5 PUSH0 SWAP3 PUSH2 0xB35 JUMPI JUMPDEST POP POP DUP2 PUSH1 0x1 SHL SWAP2 PUSH0 NOT SWAP1 PUSH1 0x3 SHL SHR NOT AND OR PUSH1 0x2 DUP6 ADD SSTORE JUMPDEST PUSH1 0x60 DUP2 ADD MLOAD PUSH1 0x3 DUP6 ADD SSTORE PUSH1 0x80 DUP2 ADD MLOAD PUSH1 0x4 DUP6 ADD SSTORE PUSH1 0xA0 DUP2 ADD MLOAD PUSH1 0x5 DUP6 ADD SSTORE PUSH1 0xC0 DUP2 ADD MLOAD PUSH1 0x6 DUP6 ADD SSTORE PUSH1 0xE0 DUP2 ADD MLOAD PUSH1 0x7 DUP6 ADD SSTORE PUSH2 0x100 DUP2 ADD MLOAD PUSH1 0x8 DUP6 ADD SSTORE PUSH2 0x120 DUP2 ADD MLOAD PUSH1 0x9 DUP6 ADD SSTORE PUSH2 0x140 DUP2 ADD MLOAD PUSH1 0xA DUP6 ADD SSTORE PUSH1 0xB DUP5 ADD PUSH2 0x160 DUP3 ADD MLOAD ISZERO ISZERO PUSH1 0xFF DUP1 NOT DUP4 SLOAD AND SWAP2 AND OR SWAP1 SSTORE PUSH2 0x180 DUP2 ADD MLOAD PUSH1 0xC DUP6 ADD SSTORE PUSH2 0x1A0 DUP2 ADD MLOAD PUSH1 0xD DUP6 ADD SSTORE ADD MLOAD SWAP2 ADD SSTORE PUSH1 0x1 SWAP1 JUMP JUMPDEST ADD MLOAD SWAP1 POP PUSH0 DUP1 PUSH2 0xA93 JUMP JUMPDEST SWAP1 PUSH1 0x2 DUP6 ADD PUSH0 MSTORE DUP1 PUSH0 KECCAK256 SWAP2 PUSH0 JUMPDEST PUSH1 0x1F NOT DUP6 AND DUP2 LT PUSH2 0xB99 JUMPI POP SWAP3 PUSH1 0xE SWAP5 SWAP3 PUSH1 0x1 SWAP3 PUSH2 0x1C0 SWAP6 DUP4 PUSH1 0x1F NOT DUP2 AND LT PUSH2 0xB81 JUMPI JUMPDEST POP POP POP DUP2 SHL ADD PUSH1 0x2 DUP6 ADD SSTORE PUSH2 0xAAA JUMP JUMPDEST ADD MLOAD PUSH0 NOT PUSH1 0xF8 DUP5 PUSH1 0x3 SHL AND SHR NOT AND SWAP1 SSTORE PUSH0 DUP1 DUP1 PUSH2 0xB71 JUMP JUMPDEST SWAP2 SWAP3 PUSH1 0x20 PUSH1 0x1 DUP2 SWAP3 DUP7 DUP6 ADD MLOAD DUP2 SSTORE ADD SWAP5 ADD SWAP3 ADD PUSH2 0xB4D JUMP JUMPDEST PUSH1 0x2 DUP6 ADD PUSH0 MSTORE PUSH1 0x20 PUSH0 KECCAK256 PUSH1 0x1F DUP5 ADD PUSH1 0x5 SHR DUP2 ADD SWAP2 PUSH1 0x20 DUP6 LT PUSH2 0xBEF JUMPI JUMPDEST PUSH1 0x1F ADD PUSH1 0x5 SHR ADD SWAP1 JUMPDEST DUP2 DUP2 LT PUSH2 0xBE4 JUMPI POP PUSH2 0xA73 JUMP JUMPDEST PUSH0 DUP2 SSTORE PUSH1 0x1 ADD PUSH2 0xBD7 JUMP JUMPDEST SWAP1 SWAP2 POP DUP2 SWAP1 PUSH2 0xBCE JUMP JUMPDEST PUSH4 0x4E487B71 PUSH1 0xE0 SHL PUSH0 MSTORE PUSH0 PUSH1 0x4 MSTORE PUSH1 0x24 PUSH0 REVERT JUMPDEST POP POP PUSH0 SWAP1 JUMP JUMPDEST PUSH1 0x40 MLOAD PUSH3 0x461BCD PUSH1 0xE5 SHL DUP2 MSTORE PUSH1 0x20 PUSH1 0x4 DUP3 ADD MSTORE PUSH1 0x2F PUSH1 0x24 DUP3 ADD MSTORE PUSH32 0x4B6C696E6520696E74657276616C20646F6573206E6F74206D6174636820636F PUSH1 0x44 DUP3 ADD MSTORE PUSH15 0x1B9D1C9858DD081A5B9D195C9D985B PUSH1 0x8A SHL PUSH1 0x64 DUP3 ADD MSTORE PUSH1 0x84 SWAP1 REVERT JUMPDEST POP SWAP1 PUSH1 0x2 PUSH0 MSTORE PUSH32 0x405787FA12A823E0F2B7631CC41B3BA8828B3321CA811111FA75CD3AA3BB5ACE SWAP1 PUSH0 SWAP2 JUMPDEST DUP2 DUP4 LT PUSH2 0xCB2 JUMPI POP POP SWAP1 PUSH1 0x20 PUSH2 0x935 SWAP3 DUP3 ADD ADD PUSH2 0x929 JUMP JUMPDEST PUSH1 0x20 SWAP2 SWAP4 POP DUP1 PUSH1 0x1 SWAP2 SLOAD DUP4 DUP6 DUP9 ADD ADD MSTORE ADD SWAP2 ADD SWAP1 SWAP2 DUP4 SWAP3 PUSH2 0xC9A JUMP JUMPDEST PUSH1 0xFF NOT AND DUP7 MSTORE POP PUSH2 0x935 SWAP3 ISZERO ISZERO PUSH1 0x5 SHL DUP3 ADD PUSH1 0x20 ADD SWAP1 POP PUSH2 0x929 JUMP JUMPDEST PUSH8 0xFFFFFFFFFFFFFFFF DUP2 GT PUSH2 0x767 JUMPI PUSH1 0x5 SHL PUSH1 0x20 ADD SWAP1 JUMP JUMPDEST DUP1 MLOAD DUP3 LT ISZERO PUSH2 0x6FE JUMPI PUSH1 0x20 SWAP2 PUSH1 0x5 SHL ADD ADD SWAP1 JUMP INVALID LOG2 PUSH5 0x6970667358 0x22 SLT KECCAK256 DUP13 0x22 PUSH0 SWAP13 0x1F LOG1 0xD0 BLOCKHASH 0xCD BLOBBASEFEE 0xD4 TSTORE SWAP4 0xC8 0x2C 0x4C DUP12 REVERT 0xEF 0xD4 0xEF JUMP RJUMPI 0xF711 CALLVALUE EXTCODEHASH 0xCD ISZERO SWAP13 0xBB PC PUSH5 0x736F6C6343 STOP ADDMOD 0x1E STOP CALLER "
				},
				"gasEstimates": {
					"creation": {
						"codeDepositCost": "680800",
						"executionCost": "infinite",
						"totalCost": "infinite"
					},
					"external": {
						"MAX_KLINES()": "148",
						"addKline((uint256,uint256,string,string,uint256,uint256,uint256,uint256,uint256,uint256,uint256,uint256,bool,uint256,uint256,uint256))": "infinite",
						"factory()": "2390",
						"getKlineCount()": "2277",
						"getKlines(uint256,uint256)": "infinite",
						"interval()": "infinite",
						"klines(uint256)": "infinite"
					}
				},
				"methodIdentifiers": {
					"MAX_KLINES()": "36b275e9",
					"addKline((uint256,uint256,string,string,uint256,uint256,uint256,uint256,uint256,uint256,uint256,uint256,bool,uint256,uint256,uint256))": "c3e3bfe5",
					"factory()": "c45a0155",
					"getKlineCount()": "48bae592",
					"getKlines(uint256,uint256)": "fbad15dc",
					"interval()": "947a36fb",
					"klines(uint256)": "6cfcdca7"
				}
			},
			"storageLayout": {
				"storage": [
					{
						"astId": 547,
						"contract": "contracts/IntervalContract.sol:IntervalContract",
						"label": "klines",
						"offset": 0,
						"slot": "0",
						"type": "t_array(t_struct(Kline)510_storage)dyn_storage"
					},
					{
						"astId": 552,
						"contract": "contracts/IntervalContract.sol:IntervalContract",
						"label": "factory",
						"offset": 0,
						"slot": "1",
						"type": "t_address"
					},
					{
						"astId": 554,
						"contract": "contracts/IntervalContract.sol:IntervalContract",
						"label": "interval",
						"offset": 0,
						"slot": "2",
						"type": "t_string_storage"
					}
				],
				"types": {
					"t_address": {
						"encoding": "inplace",
						"label": "address",
						"numberOfBytes": "20"
					},
					"t_array(t_struct(Kline)510_storage)dyn_storage": {
						"base": "t_struct(Kline)510_storage",
						"encoding": "dynamic_array",
						"label": "struct IntervalContract.Kline[]",
						"numberOfBytes": "32"
					},
					"t_bool": {
						"encoding": "inplace",
						"label": "bool",
						"numberOfBytes": "1"
					},
					"t_string_storage": {
						"encoding": "bytes",
						"label": "string",
						"numberOfBytes": "32"
					},
					"t_struct(Kline)510_storage": {
						"encoding": "inplace",
						"label": "struct IntervalContract.Kline",
						"members": [
							{
								"astId": 481,
								"contract": "contracts/IntervalContract.sol:IntervalContract",
								"label": "timestamp",
								"offset": 0,
								"slot": "0",
								"type": "t_uint256"
							},
							{
								"astId": 483,
								"contract": "contracts/IntervalContract.sol:IntervalContract",
								"label": "endTimestamp",
								"offset": 0,
								"slot": "1",
								"type": "t_uint256"
							},
							{
								"astId": 485,
								"contract": "contracts/IntervalContract.sol:IntervalContract",
								"label": "symbol",
								"offset": 0,
								"slot": "2",
								"type": "t_string_storage"
							},
							{
								"astId": 487,
								"contract": "contracts/IntervalContract.sol:IntervalContract",
								"label": "firstTradeId",
								"offset": 0,
								"slot": "3",
								"type": "t_uint256"
							},
							{
								"astId": 489,
								"contract": "contracts/IntervalContract.sol:IntervalContract",
								"label": "lastTradeId",
								"offset": 0,
								"slot": "4",
								"type": "t_uint256"
							},
							{
								"astId": 491,
								"contract": "contracts/IntervalContract.sol:IntervalContract",
								"label": "open",
								"offset": 0,
								"slot": "5",
								"type": "t_uint256"
							},
							{
								"astId": 493,
								"contract": "contracts/IntervalContract.sol:IntervalContract",
								"label": "high",
								"offset": 0,
								"slot": "6",
								"type": "t_uint256"
							},
							{
								"astId": 495,
								"contract": "contracts/IntervalContract.sol:IntervalContract",
								"label": "low",
								"offset": 0,
								"slot": "7",
								"type": "t_uint256"
							},
							{
								"astId": 497,
								"contract": "contracts/IntervalContract.sol:IntervalContract",
								"label": "close",
								"offset": 0,
								"slot": "8",
								"type": "t_uint256"
							},
							{
								"astId": 499,
								"contract": "contracts/IntervalContract.sol:IntervalContract",
								"label": "volume",
								"offset": 0,
								"slot": "9",
								"type": "t_uint256"
							},
							{
								"astId": 501,
								"contract": "contracts/IntervalContract.sol:IntervalContract",
								"label": "numberOfTrades",
								"offset": 0,
								"slot": "10",
								"type": "t_uint256"
							},
							{
								"astId": 503,
								"contract": "contracts/IntervalContract.sol:IntervalContract",
								"label": "isClosed",
								"offset": 0,
								"slot": "11",
								"type": "t_bool"
							},
							{
								"astId": 505,
								"contract": "contracts/IntervalContract.sol:IntervalContract",
								"label": "quoteVolume",
								"offset": 0,
								"slot": "12",
								"type": "t_uint256"
							},
							{
								"astId": 507,
								"contract": "contracts/IntervalContract.sol:IntervalContract",
								"label": "takerBuyVolume",
								"offset": 0,
								"slot": "13",
								"type": "t_uint256"
							},
							{
								"astId": 509,
								"contract": "contracts/IntervalContract.sol:IntervalContract",
								"label": "takerBuyQuoteVolume",
								"offset": 0,
								"slot": "14",
								"type": "t_uint256"
							}
						],
						"numberOfBytes": "480"
					},
					"t_uint256": {
						"encoding": "inplace",
						"label": "uint256",
						"numberOfBytes": "32"
					}
				}
			},
			"userdoc": {
				"kind": "user",
				"methods": {},
				"version": 1
			}
		}
	}
}