{
	"contracts/KlineFactory.sol": {
		"KlineFactory": {
			"abi": [
				{
					"inputs": [
						{
							"internalType": "address",
							"name": "_implementation",
							"type": "address"
						}
					],
					"stateMutability": "nonpayable",
					"type": "constructor"
				},
				{
					"inputs": [],
					"name": "FailedDeployment",
					"type": "error"
				},
				{
					"inputs": [
						{
							"internalType": "uint256",
							"name": "balance",
							"type": "uint256"
						},
						{
							"internalType": "uint256",
							"name": "needed",
							"type": "uint256"
						}
					],
					"name": "InsufficientBalance",
					"type": "error"
				},
				{
					"anonymous": false,
					"inputs": [
						{
							"indexed": true,
							"internalType": "address",
							"name": "user",
							"type": "address"
						},
						{
							"indexed": false,
							"internalType": "address",
							"name": "contractAddress",
							"type": "address"
						}
					],
					"name": "ContractCreated",
					"type": "event"
				},
				{
					"inputs": [],
					"name": "createKlineStorage",
					"outputs": [
						{
							"internalType": "address",
							"name": "",
							"type": "address"
						}
					],
					"stateMutability": "nonpayable",
					"type": "function"
				},
				{
					"inputs": [
						{
							"internalType": "address",
							"name": "user",
							"type": "address"
						}
					],
					"name": "getUserContracts",
					"outputs": [
						{
							"internalType": "address[]",
							"name": "",
							"type": "address[]"
						}
					],
					"stateMutability": "view",
					"type": "function"
				},
				{
					"inputs": [],
					"name": "implementation",
					"outputs": [
						{
							"internalType": "address",
							"name": "",
							"type": "address"
						}
					],
					"stateMutability": "view",
					"type": "function"
				},
				{
					"inputs": [
						{
							"internalType": "address",
							"name": "",
							"type": "address"
						},
						{
							"internalType": "uint256",
							"name": "",
							"type": "uint256"
						}
					],
					"name": "userContracts",
					"outputs": [
						{
							"internalType": "address",
							"name": "",
							"type": "address"
						}
					],
					"stateMutability": "view",
					"type": "function"
				}
			],
			"devdoc": {
				"errors": {
					"FailedDeployment()": [
						{
							"details": "The deployment failed."
						}
					],
					"InsufficientBalance(uint256,uint256)": [
						{
							"details": "The ETH balance of the account is not enough to perform the operation."
						}
					]
				},
				"kind": "dev",
				"methods": {},
				"version": 1
			},
			"evm": {
				"assembly": "    /* \"contracts/KlineFactory.sol\":145:885  contract KlineFactory {... */\n  mstore(0x40, 0xa0)\n    /* \"contracts/KlineFactory.sol\":356:444  constructor(address _implementation) {... */\n  callvalue\n  dup1\n  iszero\n  tag_1\n  jumpi\n  revert(0x00, 0x00)\ntag_1:\n  pop\n  mload(0x40)\n  sub(codesize, bytecodeSize)\n  dup1\n  bytecodeSize\n  dup4\n  codecopy\n  dup2\n  add\n  0x40\n  dup2\n  swap1\n  mstore\n  tag_2\n  swap2\n  tag_3\n  jump\t// in\ntag_2:\n  sub(shl(0xa0, 0x01), 0x01)\n    /* \"contracts/KlineFactory.sol\":404:436  implementation = _implementation */\n  and\n  0x80\n  mstore\n    /* \"contracts/KlineFactory.sol\":145:885  contract KlineFactory {... */\n  jump(tag_7)\n    /* \"#utility.yul\":14:304   */\ntag_3:\n    /* \"#utility.yul\":84:90   */\n  0x00\n    /* \"#utility.yul\":137:139   */\n  0x20\n    /* \"#utility.yul\":125:134   */\n  dup3\n    /* \"#utility.yul\":116:123   */\n  dup5\n    /* \"#utility.yul\":112:135   */\n  sub\n    /* \"#utility.yul\":108:140   */\n  slt\n    /* \"#utility.yul\":105:157   */\n  iszero\n  tag_9\n  jumpi\n    /* \"#utility.yul\":153:154   */\n  0x00\n    /* \"#utility.yul\":150:151   */\n  0x00\n    /* \"#utility.yul\":143:155   */\n  revert\n    /* \"#utility.yul\":105:157   */\ntag_9:\n    /* \"#utility.yul\":179:195   */\n  dup2\n  mload\n  sub(shl(0xa0, 0x01), 0x01)\n    /* \"#utility.yul\":224:255   */\n  dup2\n  and\n    /* \"#utility.yul\":214:256   */\n  dup2\n  eq\n    /* \"#utility.yul\":204:274   */\n  tag_10\n  jumpi\n    /* \"#utility.yul\":270:271   */\n  0x00\n    /* \"#utility.yul\":267:268   */\n  0x00\n    /* \"#utility.yul\":260:272   */\n  revert\n    /* \"#utility.yul\":204:274   */\ntag_10:\n    /* \"#utility.yul\":293:298   */\n  swap4\n    /* \"#utility.yul\":14:304   */\n  swap3\n  pop\n  pop\n  pop\n  jump\t// out\ntag_7:\n    /* \"contracts/KlineFactory.sol\":145:885  contract KlineFactory {... */\n  mload(0x80)\n  codecopy(0x00, dataOffset(sub_0), dataSize(sub_0))\n  0x00\n  assignImmutable(\"0x23191c4af8dc2a4aa44ffc7c4c9e4691c315520583859b69168aa9d748d0fff0\")\n  return(0x00, dataSize(sub_0))\nstop\n\nsub_0: assembly {\n        /* \"contracts/KlineFactory.sol\":145:885  contract KlineFactory {... */\n      mstore(0x40, 0x80)\n      callvalue\n      dup1\n      iszero\n      tag_1\n      jumpi\n      revert(0x00, 0x00)\n    tag_1:\n      pop\n      jumpi(tag_2, lt(calldatasize, 0x04))\n      shr(0xe0, calldataload(0x00))\n      dup1\n      0x34c925f0\n      eq\n      tag_3\n      jumpi\n      dup1\n      0x5c60da1b\n      eq\n      tag_4\n      jumpi\n      dup1\n      0xb789003d\n      eq\n      tag_5\n      jumpi\n      dup1\n      0xdb6d66c0\n      eq\n      tag_6\n      jumpi\n    tag_2:\n      revert(0x00, 0x00)\n        /* \"contracts/KlineFactory.sol\":756:882  function getUserContracts(address user) external view returns (address[] memory) {... */\n    tag_3:\n      tag_7\n      tag_8\n      calldatasize\n      0x04\n      tag_9\n      jump\t// in\n    tag_8:\n      tag_10\n      jump\t// in\n    tag_7:\n      mload(0x40)\n      tag_11\n      swap2\n      swap1\n      tag_12\n      jump\t// in\n    tag_11:\n      mload(0x40)\n      dup1\n      swap2\n      sub\n      swap1\n      return\n        /* \"contracts/KlineFactory.sol\":174:213  address public immutable implementation */\n    tag_4:\n      tag_13\n      immutable(\"0x23191c4af8dc2a4aa44ffc7c4c9e4691c315520583859b69168aa9d748d0fff0\")\n      dup2\n      jump\n    tag_13:\n      mload(0x40)\n      sub(shl(0xa0, 0x01), 0x01)\n        /* \"#utility.yul\":1189:1221   */\n      swap1\n      swap2\n      and\n        /* \"#utility.yul\":1171:1222   */\n      dup2\n      mstore\n        /* \"#utility.yul\":1159:1161   */\n      0x20\n        /* \"#utility.yul\":1144:1162   */\n      add\n        /* \"contracts/KlineFactory.sol\":174:213  address public immutable implementation */\n      tag_11\n        /* \"#utility.yul\":1025:1228   */\n      jump\n        /* \"contracts/KlineFactory.sol\":222:272  mapping(address => address[]) public userContracts */\n    tag_5:\n      tag_13\n      tag_18\n      calldatasize\n      0x04\n      tag_19\n      jump\t// in\n    tag_18:\n      tag_20\n      jump\t// in\n        /* \"contracts/KlineFactory.sol\":452:748  function createKlineStorage() external returns (address) {... */\n    tag_6:\n      tag_13\n      tag_23\n      jump\t// in\n        /* \"contracts/KlineFactory.sol\":756:882  function getUserContracts(address user) external view returns (address[] memory) {... */\n    tag_10:\n      sub(shl(0xa0, 0x01), 0x01)\n        /* \"contracts/KlineFactory.sol\":855:874  userContracts[user] */\n      dup2\n      and\n        /* \"contracts/KlineFactory.sol\":855:868  userContracts */\n      0x00\n        /* \"contracts/KlineFactory.sol\":855:874  userContracts[user] */\n      swap1\n      dup2\n      mstore\n      0x20\n      dup2\n      dup2\n      mstore\n      0x40\n      swap2\n      dup3\n      swap1\n      keccak256\n        /* \"contracts/KlineFactory.sol\":848:874  return userContracts[user] */\n      dup1\n      sload\n      dup4\n      mload\n      dup2\n      dup5\n      mul\n      dup2\n      add\n      dup5\n      add\n      swap1\n      swap5\n      mstore\n      dup1\n      dup5\n      mstore\n        /* \"contracts/KlineFactory.sol\":819:835  address[] memory */\n      0x60\n      swap4\n        /* \"contracts/KlineFactory.sol\":848:874  return userContracts[user] */\n      swap3\n      dup4\n      add\n        /* \"contracts/KlineFactory.sol\":855:874  userContracts[user] */\n      dup3\n        /* \"contracts/KlineFactory.sol\":848:874  return userContracts[user] */\n      dup3\n      dup1\n      iszero\n      tag_26\n      jumpi\n      0x20\n      mul\n      dup3\n      add\n      swap2\n      swap1\n      0x00\n      mstore\n      keccak256(0x00, 0x20)\n      swap1\n    tag_27:\n      dup2\n      sload\n      sub(shl(0xa0, 0x01), 0x01)\n      and\n      dup2\n      mstore\n      0x01\n      swap1\n      swap2\n      add\n      swap1\n      0x20\n      add\n      dup1\n      dup4\n      gt\n      tag_27\n      jumpi\n    tag_26:\n      pop\n      pop\n      pop\n      pop\n      pop\n      swap1\n      pop\n        /* \"contracts/KlineFactory.sol\":756:882  function getUserContracts(address user) external view returns (address[] memory) {... */\n      swap2\n      swap1\n      pop\n      jump\t// out\n        /* \"contracts/KlineFactory.sol\":222:272  mapping(address => address[]) public userContracts */\n    tag_20:\n      mstore(0x20, 0x00)\n      dup2\n      0x00\n      mstore\n      keccak256(0x00, 0x40)\n      dup2\n      dup2\n      sload\n      dup2\n      lt\n      tag_28\n      jumpi\n      0x00\n      dup1\n      revert\n    tag_28:\n      0x00\n      swap2\n      dup3\n      mstore\n      0x20\n      swap1\n      swap2\n      keccak256\n      add\n      sload\n      sub(shl(0xa0, 0x01), 0x01)\n      and\n      swap2\n      pop\n      dup3\n      swap1\n      pop\n      jump\t// out\n        /* \"contracts/KlineFactory.sol\":452:748  function createKlineStorage() external returns (address) {... */\n    tag_23:\n        /* \"contracts/KlineFactory.sol\":500:507  address */\n      0x00\n        /* \"contracts/KlineFactory.sol\":520:533  address clone */\n      0x00\n        /* \"contracts/KlineFactory.sol\":536:564  Clones.clone(implementation) */\n      tag_31\n        /* \"contracts/KlineFactory.sol\":549:563  implementation */\n      immutable(\"0x23191c4af8dc2a4aa44ffc7c4c9e4691c315520583859b69168aa9d748d0fff0\")\n        /* \"contracts/KlineFactory.sol\":536:548  Clones.clone */\n      tag_32\n        /* \"contracts/KlineFactory.sol\":536:564  Clones.clone(implementation) */\n      jump\t// in\n    tag_31:\n        /* \"contracts/KlineFactory.sol\":575:617  KlineStorage(clone).initialize(msg.sender) */\n      mload(0x40)\n      shl(0xe3, 0x189acdbd)\n      dup2\n      mstore\n        /* \"contracts/KlineFactory.sol\":606:616  msg.sender */\n      caller\n        /* \"contracts/KlineFactory.sol\":575:617  KlineStorage(clone).initialize(msg.sender) */\n      0x04\n      dup3\n      add\n        /* \"#utility.yul\":1171:1222   */\n      mstore\n        /* \"contracts/KlineFactory.sol\":520:564  address clone = Clones.clone(implementation) */\n      swap1\n      swap2\n      pop\n      sub(shl(0xa0, 0x01), 0x01)\n        /* \"contracts/KlineFactory.sol\":575:605  KlineStorage(clone).initialize */\n      dup3\n      and\n      swap1\n      0xc4d66de8\n      swap1\n        /* \"#utility.yul\":1144:1162   */\n      0x24\n      add\n        /* \"contracts/KlineFactory.sol\":575:617  KlineStorage(clone).initialize(msg.sender) */\n      0x00\n      mload(0x40)\n      dup1\n      dup4\n      sub\n      dup2\n      0x00\n      dup8\n      dup1\n      extcodesize\n      iszero\n      dup1\n      iszero\n      tag_34\n      jumpi\n      revert(0x00, 0x00)\n    tag_34:\n      pop\n      gas\n      call\n      iszero\n      dup1\n      iszero\n      tag_36\n      jumpi\n      returndatacopy(0x00, 0x00, returndatasize)\n      revert(0x00, returndatasize)\n    tag_36:\n      pop\n      pop\n        /* \"contracts/KlineFactory.sol\":642:652  msg.sender */\n      caller\n        /* \"contracts/KlineFactory.sol\":628:641  userContracts */\n      0x00\n        /* \"contracts/KlineFactory.sol\":628:653  userContracts[msg.sender] */\n      dup2\n      dup2\n      mstore\n      0x20\n      dup2\n      dup2\n      mstore\n      0x40\n      dup1\n      dup4\n      keccak256\n        /* \"contracts/KlineFactory.sol\":628:665  userContracts[msg.sender].push(clone) */\n      dup1\n      sload\n      0x01\n      dup2\n      add\n      dup3\n      sstore\n      swap1\n      dup5\n      mstore\n      swap3\n      dup3\n      swap1\n      keccak256\n      swap1\n      swap3\n      add\n      dup1\n      sload\n      not(sub(shl(0xa0, 0x01), 0x01))\n      and\n      sub(shl(0xa0, 0x01), 0x01)\n      dup9\n      and\n      swap1\n      dup2\n      or\n      swap1\n      swap2\n      sstore\n        /* \"contracts/KlineFactory.sol\":683:717  ContractCreated(msg.sender, clone) */\n      swap2\n      mload\n        /* \"#utility.yul\":1171:1222   */\n      swap2\n      dup3\n      mstore\n        /* \"contracts/KlineFactory.sol\":642:652  msg.sender */\n      swap2\n      swap4\n      pop\n        /* \"contracts/KlineFactory.sol\":683:717  ContractCreated(msg.sender, clone) */\n      0x2d49c67975aadd2d389580b368cfff5b49965b0bd5da33c144922ce01e7a4d7b\n      swap3\n      pop\n        /* \"#utility.yul\":1144:1162   */\n      add\n        /* \"contracts/KlineFactory.sol\":683:717  ContractCreated(msg.sender, clone) */\n      mload(0x40)\n      dup1\n      swap2\n      sub\n      swap1\n      log2\n        /* \"contracts/KlineFactory.sol\":735:740  clone */\n      swap2\n        /* \"contracts/KlineFactory.sol\":452:748  function createKlineStorage() external returns (address) {... */\n      swap1\n      pop\n      jump\t// out\n        /* \"@openzeppelin/contracts/proxy/Clones.sol\":1070:1193  function clone(address implementation) internal returns (address instance) {... */\n    tag_32:\n        /* \"@openzeppelin/contracts/proxy/Clones.sol\":1127:1143  address instance */\n      0x00\n        /* \"@openzeppelin/contracts/proxy/Clones.sol\":1162:1186  clone(implementation, 0) */\n      tag_40\n        /* \"@openzeppelin/contracts/proxy/Clones.sol\":1168:1182  implementation */\n      dup3\n        /* \"@openzeppelin/contracts/proxy/Clones.sol\":1184:1185  0 */\n      0x00\n        /* \"@openzeppelin/contracts/proxy/Clones.sol\":1162:1167  clone */\n      tag_41\n        /* \"@openzeppelin/contracts/proxy/Clones.sol\":1162:1186  clone(implementation, 0) */\n      jump\t// in\n    tag_40:\n        /* \"@openzeppelin/contracts/proxy/Clones.sol\":1155:1186  return clone(implementation, 0) */\n      swap3\n        /* \"@openzeppelin/contracts/proxy/Clones.sol\":1070:1193  function clone(address implementation) internal returns (address instance) {... */\n      swap2\n      pop\n      pop\n      jump\t// out\n        /* \"@openzeppelin/contracts/proxy/Clones.sol\":1585:2495  function clone(address implementation, uint256 value) internal returns (address instance) {... */\n    tag_41:\n        /* \"@openzeppelin/contracts/proxy/Clones.sol\":1657:1673  address instance */\n      0x00\n        /* \"@openzeppelin/contracts/proxy/Clones.sol\":1713:1718  value */\n      dup2\n        /* \"@openzeppelin/contracts/proxy/Clones.sol\":1689:1710  address(this).balance */\n      selfbalance\n        /* \"@openzeppelin/contracts/proxy/Clones.sol\":1689:1718  address(this).balance < value */\n      lt\n        /* \"@openzeppelin/contracts/proxy/Clones.sol\":1685:1808  if (address(this).balance < value) {... */\n      iszero\n      tag_43\n      jumpi\n        /* \"@openzeppelin/contracts/proxy/Clones.sol\":1741:1797  Errors.InsufficientBalance(address(this).balance, value) */\n      mload(0x40)\n      shl(0xe0, 0xcf479181)\n      dup2\n      mstore\n        /* \"@openzeppelin/contracts/proxy/Clones.sol\":1768:1789  address(this).balance */\n      selfbalance\n        /* \"@openzeppelin/contracts/proxy/Clones.sol\":1741:1797  Errors.InsufficientBalance(address(this).balance, value) */\n      0x04\n      dup3\n      add\n        /* \"#utility.yul\":1666:1691   */\n      mstore\n        /* \"#utility.yul\":1707:1725   */\n      0x24\n      dup2\n      add\n        /* \"#utility.yul\":1700:1734   */\n      dup4\n      swap1\n      mstore\n        /* \"#utility.yul\":1639:1657   */\n      0x44\n      add\n        /* \"@openzeppelin/contracts/proxy/Clones.sol\":1741:1797  Errors.InsufficientBalance(address(this).balance, value) */\n      mload(0x40)\n      dup1\n      swap2\n      sub\n      swap1\n      revert\n        /* \"@openzeppelin/contracts/proxy/Clones.sol\":1685:1808  if (address(this).balance < value) {... */\n    tag_43:\n        /* \"@openzeppelin/contracts/proxy/Clones.sol\":2094:2142  0x3d602d80600a3d3981f3363d3d373d3d3d363d73000000 */\n      0x3d602d80600a3d3981f3363d3d373d3d3d363d73000000\n        /* \"@openzeppelin/contracts/proxy/Clones.sol\":2076:2090  implementation */\n      dup4\n        /* \"@openzeppelin/contracts/proxy/Clones.sol\":2070:2074  0x60 */\n      0x60\n        /* \"@openzeppelin/contracts/proxy/Clones.sol\":2066:2091  shl(0x60, implementation) */\n      shl\n        /* \"@openzeppelin/contracts/proxy/Clones.sol\":2060:2064  0xe8 */\n      0xe8\n        /* \"@openzeppelin/contracts/proxy/Clones.sol\":2056:2092  shr(0xe8, shl(0x60, implementation)) */\n      shr\n        /* \"@openzeppelin/contracts/proxy/Clones.sol\":2053:2143  or(shr(0xe8, shl(0x60, implementation)), 0x3d602d80600a3d3981f3363d3d373d3d3d363d73000000) */\n      or\n        /* \"@openzeppelin/contracts/proxy/Clones.sol\":2047:2051  0x00 */\n      0x00\n        /* \"@openzeppelin/contracts/proxy/Clones.sol\":2040:2144  mstore(0x00, or(shr(0xe8, shl(0x60, implementation)), 0x3d602d80600a3d3981f3363d3d373d3d3d363d73000000)) */\n      mstore\n        /* \"@openzeppelin/contracts/proxy/Clones.sol\":2301:2333  0x5af43d82803e903d91602b57fd5bf3 */\n      0x5af43d82803e903d91602b57fd5bf3\n        /* \"@openzeppelin/contracts/proxy/Clones.sol\":2284:2298  implementation */\n      dup4\n        /* \"@openzeppelin/contracts/proxy/Clones.sol\":2278:2282  0x78 */\n      0x78\n        /* \"@openzeppelin/contracts/proxy/Clones.sol\":2274:2299  shl(0x78, implementation) */\n      shl\n        /* \"@openzeppelin/contracts/proxy/Clones.sol\":2271:2334  or(shl(0x78, implementation), 0x5af43d82803e903d91602b57fd5bf3) */\n      or\n        /* \"@openzeppelin/contracts/proxy/Clones.sol\":2265:2269  0x20 */\n      0x20\n        /* \"@openzeppelin/contracts/proxy/Clones.sol\":2258:2335  mstore(0x20, or(shl(0x78, implementation), 0x5af43d82803e903d91602b57fd5bf3)) */\n      mstore\n        /* \"@openzeppelin/contracts/proxy/Clones.sol\":2380:2384  0x37 */\n      0x37\n        /* \"@openzeppelin/contracts/proxy/Clones.sol\":2374:2378  0x09 */\n      0x09\n        /* \"@openzeppelin/contracts/proxy/Clones.sol\":2367:2372  value */\n      dup4\n        /* \"@openzeppelin/contracts/proxy/Clones.sol\":2360:2385  create(value, 0x09, 0x37) */\n      create\n        /* \"@openzeppelin/contracts/proxy/Clones.sol\":2348:2385  instance := create(value, 0x09, 0x37) */\n      swap1\n      pop\n      sub(shl(0xa0, 0x01), 0x01)\n        /* \"@openzeppelin/contracts/proxy/Clones.sol\":2408:2430  instance == address(0) */\n      dup2\n      and\n        /* \"@openzeppelin/contracts/proxy/Clones.sol\":2404:2489  if (instance == address(0)) {... */\n      tag_40\n      jumpi\n        /* \"@openzeppelin/contracts/proxy/Clones.sol\":2453:2478  Errors.FailedDeployment() */\n      mload(0x40)\n      shl(0xe0, 0xb06ebf3d)\n      dup2\n      mstore\n      0x04\n      add\n      mload(0x40)\n      dup1\n      swap2\n      sub\n      swap1\n      revert\n        /* \"#utility.yul\":14:187   */\n    tag_47:\n        /* \"#utility.yul\":82:102   */\n      dup1\n      calldataload\n      sub(shl(0xa0, 0x01), 0x01)\n        /* \"#utility.yul\":131:162   */\n      dup2\n      and\n        /* \"#utility.yul\":121:163   */\n      dup2\n      eq\n        /* \"#utility.yul\":111:181   */\n      tag_50\n      jumpi\n        /* \"#utility.yul\":177:178   */\n      0x00\n        /* \"#utility.yul\":174:175   */\n      0x00\n        /* \"#utility.yul\":167:179   */\n      revert\n        /* \"#utility.yul\":111:181   */\n    tag_50:\n        /* \"#utility.yul\":14:187   */\n      swap2\n      swap1\n      pop\n      jump\t// out\n        /* \"#utility.yul\":192:378   */\n    tag_9:\n        /* \"#utility.yul\":251:257   */\n      0x00\n        /* \"#utility.yul\":304:306   */\n      0x20\n        /* \"#utility.yul\":292:301   */\n      dup3\n        /* \"#utility.yul\":283:290   */\n      dup5\n        /* \"#utility.yul\":279:302   */\n      sub\n        /* \"#utility.yul\":275:307   */\n      slt\n        /* \"#utility.yul\":272:324   */\n      iszero\n      tag_52\n      jumpi\n        /* \"#utility.yul\":320:321   */\n      0x00\n        /* \"#utility.yul\":317:318   */\n      0x00\n        /* \"#utility.yul\":310:322   */\n      revert\n        /* \"#utility.yul\":272:324   */\n    tag_52:\n        /* \"#utility.yul\":343:372   */\n      tag_53\n        /* \"#utility.yul\":362:371   */\n      dup3\n        /* \"#utility.yul\":343:372   */\n      tag_47\n      jump\t// in\n    tag_53:\n        /* \"#utility.yul\":333:372   */\n      swap4\n        /* \"#utility.yul\":192:378   */\n      swap3\n      pop\n      pop\n      pop\n      jump\t// out\n        /* \"#utility.yul\":383:1020   */\n    tag_12:\n        /* \"#utility.yul\":573:575   */\n      0x20\n        /* \"#utility.yul\":585:606   */\n      dup1\n      dup3\n      mstore\n        /* \"#utility.yul\":655:668   */\n      dup3\n      mload\n        /* \"#utility.yul\":558:576   */\n      dup3\n      dup3\n      add\n        /* \"#utility.yul\":677:699   */\n      dup2\n      swap1\n      mstore\n        /* \"#utility.yul\":525:529   */\n      0x00\n      swap2\n        /* \"#utility.yul\":756:771   */\n      dup5\n      add\n      swap1\n        /* \"#utility.yul\":730:732   */\n      0x40\n        /* \"#utility.yul\":715:733   */\n      dup5\n      add\n      swap1\n        /* \"#utility.yul\":525:529   */\n      dup4\n        /* \"#utility.yul\":799:994   */\n    tag_55:\n        /* \"#utility.yul\":813:819   */\n      dup2\n        /* \"#utility.yul\":810:811   */\n      dup2\n        /* \"#utility.yul\":807:820   */\n      lt\n        /* \"#utility.yul\":799:994   */\n      iszero\n      tag_57\n      jumpi\n        /* \"#utility.yul\":878:891   */\n      dup4\n      mload\n      sub(shl(0xa0, 0x01), 0x01)\n        /* \"#utility.yul\":874:913   */\n      and\n        /* \"#utility.yul\":862:914   */\n      dup4\n      mstore\n        /* \"#utility.yul\":943:945   */\n      0x20\n        /* \"#utility.yul\":969:984   */\n      swap4\n      dup5\n      add\n      swap4\n        /* \"#utility.yul\":934:946   */\n      swap1\n      swap3\n      add\n      swap2\n        /* \"#utility.yul\":910:911   */\n      0x01\n        /* \"#utility.yul\":828:837   */\n      add\n        /* \"#utility.yul\":799:994   */\n      jump(tag_55)\n    tag_57:\n      pop\n        /* \"#utility.yul\":1011:1014   */\n      swap1\n      swap6\n        /* \"#utility.yul\":383:1020   */\n      swap5\n      pop\n      pop\n      pop\n      pop\n      pop\n      jump\t// out\n        /* \"#utility.yul\":1233:1487   */\n    tag_19:\n        /* \"#utility.yul\":1301:1307   */\n      0x00\n        /* \"#utility.yul\":1309:1315   */\n      0x00\n        /* \"#utility.yul\":1362:1364   */\n      0x40\n        /* \"#utility.yul\":1350:1359   */\n      dup4\n        /* \"#utility.yul\":1341:1348   */\n      dup6\n        /* \"#utility.yul\":1337:1360   */\n      sub\n        /* \"#utility.yul\":1333:1365   */\n      slt\n        /* \"#utility.yul\":1330:1382   */\n      iszero\n      tag_60\n      jumpi\n        /* \"#utility.yul\":1378:1379   */\n      0x00\n        /* \"#utility.yul\":1375:1376   */\n      0x00\n        /* \"#utility.yul\":1368:1380   */\n      revert\n        /* \"#utility.yul\":1330:1382   */\n    tag_60:\n        /* \"#utility.yul\":1401:1430   */\n      tag_61\n        /* \"#utility.yul\":1420:1429   */\n      dup4\n        /* \"#utility.yul\":1401:1430   */\n      tag_47\n      jump\t// in\n    tag_61:\n        /* \"#utility.yul\":1391:1430   */\n      swap5\n        /* \"#utility.yul\":1477:1479   */\n      0x20\n        /* \"#utility.yul\":1462:1480   */\n      swap4\n      swap1\n      swap4\n      add\n        /* \"#utility.yul\":1449:1481   */\n      calldataload\n      swap4\n      pop\n      pop\n      pop\n        /* \"#utility.yul\":1233:1487   */\n      jump\t// out\n\n    auxdata: 0xa2646970667358221220a7dd5c50cbd2420029f38e7b29ab95f42b13180cc60d54904ebffcc8a32726b664736f6c634300081e0033\n}\n",
				"bytecode": {
					"linkReferences": {},
					"object": "60a0604052348015600e575f5ffd5b5060405161047c38038061047c833981016040819052602b91603b565b6001600160a01b03166080526066565b5f60208284031215604a575f5ffd5b81516001600160a01b0381168114605f575f5ffd5b9392505050565b6080516103f86100845f395f8181607c015261017c01526103f85ff3fe608060405234801561000f575f5ffd5b506004361061004a575f3560e01c806334c925f01461004e5780635c60da1b14610077578063b789003d146100b6578063db6d66c0146100c9575b5f5ffd5b61006161005c36600461032f565b6100d1565b60405161006e919061034f565b60405180910390f35b61009e7f000000000000000000000000000000000000000000000000000000000000000081565b6040516001600160a01b03909116815260200161006e565b61009e6100c436600461039a565b610142565b61009e610175565b6001600160a01b0381165f908152602081815260409182902080548351818402810184019094528084526060939283018282801561013657602002820191905f5260205f20905b81546001600160a01b03168152600190910190602001808311610118575b50505050509050919050565b5f602052815f5260405f20818154811061015a575f80fd5b5f918252602090912001546001600160a01b03169150829050565b5f5f6101a07f000000000000000000000000000000000000000000000000000000000000000061026b565b60405163189acdbd60e31b81523360048201529091506001600160a01b0382169063c4d66de8906024015f604051808303815f87803b1580156101e1575f5ffd5b505af11580156101f3573d5f5f3e3d5ffd5b5050335f8181526020818152604080832080546001810182559084529282902090920180546001600160a01b0319166001600160a01b03881690811790915591519182529193507f2d49c67975aadd2d389580b368cfff5b49965b0bd5da33c144922ce01e7a4d7b92500160405180910390a2919050565b5f610276825f61027c565b92915050565b5f814710156102ab5760405163cf47918160e01b81524760048201526024810183905260440160405180910390fd5b763d602d80600a3d3981f3363d3d373d3d3d363d730000008360601b60e81c175f526e5af43d82803e903d91602b57fd5bf38360781b176020526037600983f090506001600160a01b0381166102765760405163b06ebf3d60e01b815260040160405180910390fd5b80356001600160a01b038116811461032a575f5ffd5b919050565b5f6020828403121561033f575f5ffd5b61034882610314565b9392505050565b602080825282518282018190525f918401906040840190835b8181101561038f5783516001600160a01b0316835260209384019390920191600101610368565b509095945050505050565b5f5f604083850312156103ab575f5ffd5b6103b483610314565b94602093909301359350505056fea2646970667358221220a7dd5c50cbd2420029f38e7b29ab95f42b13180cc60d54904ebffcc8a32726b664736f6c634300081e0033",
					"opcodes": "PUSH1 0xA0 PUSH1 0x40 MSTORE CALLVALUE DUP1 ISZERO PUSH1 0xE JUMPI PUSH0 PUSH0 REVERT JUMPDEST POP PUSH1 0x40 MLOAD PUSH2 0x47C CODESIZE SUB DUP1 PUSH2 0x47C DUP4 CODECOPY DUP2 ADD PUSH1 0x40 DUP2 SWAP1 MSTORE PUSH1 0x2B SWAP2 PUSH1 0x3B JUMP JUMPDEST PUSH1 0x1 PUSH1 0x1 PUSH1 0xA0 SHL SUB AND PUSH1 0x80 MSTORE PUSH1 0x66 JUMP JUMPDEST PUSH0 PUSH1 0x20 DUP3 DUP5 SUB SLT ISZERO PUSH1 0x4A JUMPI PUSH0 PUSH0 REVERT JUMPDEST DUP2 MLOAD PUSH1 0x1 PUSH1 0x1 PUSH1 0xA0 SHL SUB DUP2 AND DUP2 EQ PUSH1 0x5F JUMPI PUSH0 PUSH0 REVERT JUMPDEST SWAP4 SWAP3 POP POP POP JUMP JUMPDEST PUSH1 0x80 MLOAD PUSH2 0x3F8 PUSH2 0x84 PUSH0 CODECOPY PUSH0 DUP2 DUP2 PUSH1 0x7C ADD MSTORE PUSH2 0x17C ADD MSTORE PUSH2 0x3F8 PUSH0 RETURN INVALID PUSH1 0x80 PUSH1 0x40 MSTORE CALLVALUE DUP1 ISZERO PUSH2 0xF JUMPI PUSH0 PUSH0 REVERT JUMPDEST POP PUSH1 0x4 CALLDATASIZE LT PUSH2 0x4A JUMPI PUSH0 CALLDATALOAD PUSH1 0xE0 SHR DUP1 PUSH4 0x34C925F0 EQ PUSH2 0x4E JUMPI DUP1 PUSH4 0x5C60DA1B EQ PUSH2 0x77 JUMPI DUP1 PUSH4 0xB789003D EQ PUSH2 0xB6 JUMPI DUP1 PUSH4 0xDB6D66C0 EQ PUSH2 0xC9 JUMPI JUMPDEST PUSH0 PUSH0 REVERT JUMPDEST PUSH2 0x61 PUSH2 0x5C CALLDATASIZE PUSH1 0x4 PUSH2 0x32F JUMP JUMPDEST PUSH2 0xD1 JUMP JUMPDEST PUSH1 0x40 MLOAD PUSH2 0x6E SWAP2 SWAP1 PUSH2 0x34F JUMP JUMPDEST PUSH1 0x40 MLOAD DUP1 SWAP2 SUB SWAP1 RETURN JUMPDEST PUSH2 0x9E PUSH32 0x0 DUP2 JUMP JUMPDEST PUSH1 0x40 MLOAD PUSH1 0x1 PUSH1 0x1 PUSH1 0xA0 SHL SUB SWAP1 SWAP2 AND DUP2 MSTORE PUSH1 0x20 ADD PUSH2 0x6E JUMP JUMPDEST PUSH2 0x9E PUSH2 0xC4 CALLDATASIZE PUSH1 0x4 PUSH2 0x39A JUMP JUMPDEST PUSH2 0x142 JUMP JUMPDEST PUSH2 0x9E PUSH2 0x175 JUMP JUMPDEST PUSH1 0x1 PUSH1 0x1 PUSH1 0xA0 SHL SUB DUP2 AND PUSH0 SWAP1 DUP2 MSTORE PUSH1 0x20 DUP2 DUP2 MSTORE PUSH1 0x40 SWAP2 DUP3 SWAP1 KECCAK256 DUP1 SLOAD DUP4 MLOAD DUP2 DUP5 MUL DUP2 ADD DUP5 ADD SWAP1 SWAP5 MSTORE DUP1 DUP5 MSTORE PUSH1 0x60 SWAP4 SWAP3 DUP4 ADD DUP3 DUP3 DUP1 ISZERO PUSH2 0x136 JUMPI PUSH1 0x20 MUL DUP3 ADD SWAP2 SWAP1 PUSH0 MSTORE PUSH1 0x20 PUSH0 KECCAK256 SWAP1 JUMPDEST DUP2 SLOAD PUSH1 0x1 PUSH1 0x1 PUSH1 0xA0 SHL SUB AND DUP2 MSTORE PUSH1 0x1 SWAP1 SWAP2 ADD SWAP1 PUSH1 0x20 ADD DUP1 DUP4 GT PUSH2 0x118 JUMPI JUMPDEST POP POP POP POP POP SWAP1 POP SWAP2 SWAP1 POP JUMP JUMPDEST PUSH0 PUSH1 0x20 MSTORE DUP2 PUSH0 MSTORE PUSH1 0x40 PUSH0 KECCAK256 DUP2 DUP2 SLOAD DUP2 LT PUSH2 0x15A JUMPI PUSH0 DUP1 REVERT JUMPDEST PUSH0 SWAP2 DUP3 MSTORE PUSH1 0x20 SWAP1 SWAP2 KECCAK256 ADD SLOAD PUSH1 0x1 PUSH1 0x1 PUSH1 0xA0 SHL SUB AND SWAP2 POP DUP3 SWAP1 POP JUMP JUMPDEST PUSH0 PUSH0 PUSH2 0x1A0 PUSH32 0x0 PUSH2 0x26B JUMP JUMPDEST PUSH1 0x40 MLOAD PUSH4 0x189ACDBD PUSH1 0xE3 SHL DUP2 MSTORE CALLER PUSH1 0x4 DUP3 ADD MSTORE SWAP1 SWAP2 POP PUSH1 0x1 PUSH1 0x1 PUSH1 0xA0 SHL SUB DUP3 AND SWAP1 PUSH4 0xC4D66DE8 SWAP1 PUSH1 0x24 ADD PUSH0 PUSH1 0x40 MLOAD DUP1 DUP4 SUB DUP2 PUSH0 DUP8 DUP1 EXTCODESIZE ISZERO DUP1 ISZERO PUSH2 0x1E1 JUMPI PUSH0 PUSH0 REVERT JUMPDEST POP GAS CALL ISZERO DUP1 ISZERO PUSH2 0x1F3 JUMPI RETURNDATASIZE PUSH0 PUSH0 RETURNDATACOPY RETURNDATASIZE PUSH0 REVERT JUMPDEST POP POP CALLER PUSH0 DUP2 DUP2 MSTORE PUSH1 0x20 DUP2 DUP2 MSTORE PUSH1 0x40 DUP1 DUP4 KECCAK256 DUP1 SLOAD PUSH1 0x1 DUP2 ADD DUP3 SSTORE SWAP1 DUP5 MSTORE SWAP3 DUP3 SWAP1 KECCAK256 SWAP1 SWAP3 ADD DUP1 SLOAD PUSH1 0x1 PUSH1 0x1 PUSH1 0xA0 SHL SUB NOT AND PUSH1 0x1 PUSH1 0x1 PUSH1 0xA0 SHL SUB DUP9 AND SWAP1 DUP2 OR SWAP1 SWAP2 SSTORE SWAP2 MLOAD SWAP2 DUP3 MSTORE SWAP2 SWAP4 POP PUSH32 0x2D49C67975AADD2D389580B368CFFF5B49965B0BD5DA33C144922CE01E7A4D7B SWAP3 POP ADD PUSH1 0x40 MLOAD DUP1 SWAP2 SUB SWAP1 LOG2 SWAP2 SWAP1 POP JUMP JUMPDEST PUSH0 PUSH2 0x276 DUP3 PUSH0 PUSH2 0x27C JUMP JUMPDEST SWAP3 SWAP2 POP POP JUMP JUMPDEST PUSH0 DUP2 SELFBALANCE LT ISZERO PUSH2 0x2AB JUMPI PUSH1 0x40 MLOAD PUSH4 0xCF479181 PUSH1 0xE0 SHL DUP2 MSTORE SELFBALANCE PUSH1 0x4 DUP3 ADD MSTORE PUSH1 0x24 DUP2 ADD DUP4 SWAP1 MSTORE PUSH1 0x44 ADD PUSH1 0x40 MLOAD DUP1 SWAP2 SUB SWAP1 REVERT JUMPDEST PUSH23 0x3D602D80600A3D3981F3363D3D373D3D3D363D73000000 DUP4 PUSH1 0x60 SHL PUSH1 0xE8 SHR OR PUSH0 MSTORE PUSH15 0x5AF43D82803E903D91602B57FD5BF3 DUP4 PUSH1 0x78 SHL OR PUSH1 0x20 MSTORE PUSH1 0x37 PUSH1 0x9 DUP4 CREATE SWAP1 POP PUSH1 0x1 PUSH1 0x1 PUSH1 0xA0 SHL SUB DUP2 AND PUSH2 0x276 JUMPI PUSH1 0x40 MLOAD PUSH4 0xB06EBF3D PUSH1 0xE0 SHL DUP2 MSTORE PUSH1 0x4 ADD PUSH1 0x40 MLOAD DUP1 SWAP2 SUB SWAP1 REVERT JUMPDEST DUP1 CALLDATALOAD PUSH1 0x1 PUSH1 0x1 PUSH1 0xA0 SHL SUB DUP2 AND DUP2 EQ PUSH2 0x32A JUMPI PUSH0 PUSH0 REVERT JUMPDEST SWAP2 SWAP1 POP JUMP JUMPDEST PUSH0 PUSH1 0x20 DUP3 DUP5 SUB SLT ISZERO PUSH2 0x33F JUMPI PUSH0 PUSH0 REVERT JUMPDEST PUSH2 0x348 DUP3 PUSH2 0x314 JUMP JUMPDEST SWAP4 SWAP3 POP POP POP JUMP JUMPDEST PUSH1 0x20 DUP1 DUP3 MSTORE DUP3 MLOAD DUP3 DUP3 ADD DUP2 SWAP1 MSTORE PUSH0 SWAP2 DUP5 ADD SWAP1 PUSH1 0x40 DUP5 ADD SWAP1 DUP4 JUMPDEST DUP2 DUP2 LT ISZERO PUSH2 0x38F JUMPI DUP4 MLOAD PUSH1 0x1 PUSH1 0x1 PUSH1 0xA0 SHL SUB AND DUP4 MSTORE PUSH1 0x20 SWAP4 DUP5 ADD SWAP4 SWAP1 SWAP3 ADD SWAP2 PUSH1 0x1 ADD PUSH2 0x368 JUMP JUMPDEST POP SWAP1 SWAP6 SWAP5 POP POP POP POP POP JUMP JUMPDEST PUSH0 PUSH0 PUSH1 0x40 DUP4 DUP6 SUB SLT ISZERO PUSH2 0x3AB JUMPI PUSH0 PUSH0 REVERT JUMPDEST PUSH2 0x3B4 DUP4 PUSH2 0x314 JUMP JUMPDEST SWAP5 PUSH1 0x20 SWAP4 SWAP1 SWAP4 ADD CALLDATALOAD SWAP4 POP POP POP JUMP INVALID LOG2 PUSH5 0x6970667358 0x22 SLT KECCAK256 0xA7 0xDD TLOAD POP 0xCB 0xD2 TIMESTAMP STOP 0x29 RETURN DUP15 PUSH28 0x29AB95F42B13180CC60D54904EBFFCC8A32726B664736F6C63430008 0x1E STOP CALLER "
				},
				"gasEstimates": {
					"creation": {
						"codeDepositCost": "203200",
						"executionCost": "infinite",
						"totalCost": "infinite"
					},
					"external": {
						"createKlineStorage()": "infinite",
						"getUserContracts(address)": "infinite",
						"implementation()": "infinite",
						"userContracts(address,uint256)": "4799"
					}
				},
				"methodIdentifiers": {
					"createKlineStorage()": "db6d66c0",
					"getUserContracts(address)": "34c925f0",
					"implementation()": "5c60da1b",
					"userContracts(address,uint256)": "b789003d"
				}
			},
			"storageLayout": {
				"storage": [
					{
						"astId": 530,
						"contract": "contracts/KlineFactory.sol:KlineFactory",
						"label": "userContracts",
						"offset": 0,
						"slot": "0",
						"type": "t_mapping(t_address,t_array(t_address)dyn_storage)"
					}
				],
				"types": {
					"t_address": {
						"encoding": "inplace",
						"label": "address",
						"numberOfBytes": "20"
					},
					"t_array(t_address)dyn_storage": {
						"base": "t_address",
						"encoding": "dynamic_array",
						"label": "address[]",
						"numberOfBytes": "32"
					},
					"t_mapping(t_address,t_array(t_address)dyn_storage)": {
						"encoding": "mapping",
						"key": "t_address",
						"label": "mapping(address => address[])",
						"numberOfBytes": "32",
						"value": "t_array(t_address)dyn_storage"
					}
				}
			},
			"userdoc": {
				"kind": "user",
				"methods": {},
				"version": 1
			}
		}
	}
}