{
	"contracts/FactoryContract.sol": {
		"FactoryContract": {
			"abi": [
				{
					"inputs": [],
					"stateMutability": "nonpayable",
					"type": "constructor"
				},
				{
					"anonymous": false,
					"inputs": [
						{
							"indexed": false,
							"internalType": "string",
							"name": "symbol",
							"type": "string"
						},
						{
							"indexed": false,
							"internalType": "string",
							"name": "interval",
							"type": "string"
						}
					],
					"name": "NewIntervalAdded",
					"type": "event"
				},
				{
					"anonymous": false,
					"inputs": [
						{
							"indexed": false,
							"internalType": "string",
							"name": "symbol",
							"type": "string"
						},
						{
							"indexed": false,
							"internalType": "string",
							"name": "interval",
							"type": "string"
						},
						{
							"indexed": false,
							"internalType": "address",
							"name": "contractAddress",
							"type": "address"
						}
					],
					"name": "NewIntervalContract",
					"type": "event"
				},
				{
					"anonymous": false,
					"inputs": [
						{
							"indexed": false,
							"internalType": "string",
							"name": "symbol",
							"type": "string"
						}
					],
					"name": "NewSymbolAdded",
					"type": "event"
				},
				{
					"inputs": [
						{
							"internalType": "string",
							"name": "_symbol",
							"type": "string"
						},
						{
							"internalType": "string",
							"name": "_interval",
							"type": "string"
						},
						{
							"components": [
								{
									"internalType": "uint256",
									"name": "timestamp",
									"type": "uint256"
								},
								{
									"internalType": "uint256",
									"name": "endTimestamp",
									"type": "uint256"
								},
								{
									"internalType": "string",
									"name": "symbol",
									"type": "string"
								},
								{
									"internalType": "string",
									"name": "interval",
									"type": "string"
								},
								{
									"internalType": "uint256",
									"name": "firstTradeId",
									"type": "uint256"
								},
								{
									"internalType": "uint256",
									"name": "lastTradeId",
									"type": "uint256"
								},
								{
									"internalType": "uint256",
									"name": "open",
									"type": "uint256"
								},
								{
									"internalType": "uint256",
									"name": "high",
									"type": "uint256"
								},
								{
									"internalType": "uint256",
									"name": "low",
									"type": "uint256"
								},
								{
									"internalType": "uint256",
									"name": "close",
									"type": "uint256"
								},
								{
									"internalType": "uint256",
									"name": "volume",
									"type": "uint256"
								},
								{
									"internalType": "uint256",
									"name": "numberOfTrades",
									"type": "uint256"
								},
								{
									"internalType": "bool",
									"name": "isClosed",
									"type": "bool"
								},
								{
									"internalType": "uint256",
									"name": "quoteVolume",
									"type": "uint256"
								},
								{
									"internalType": "uint256",
									"name": "takerBuyVolume",
									"type": "uint256"
								},
								{
									"internalType": "uint256",
									"name": "takerBuyQuoteVolume",
									"type": "uint256"
								}
							],
							"internalType": "struct IntervalContract.KlineInput",
							"name": "input",
							"type": "tuple"
						}
					],
					"name": "addKline",
					"outputs": [],
					"stateMutability": "nonpayable",
					"type": "function"
				},
				{
					"inputs": [
						{
							"internalType": "string",
							"name": "_symbol",
							"type": "string"
						}
					],
					"name": "getIntervals",
					"outputs": [
						{
							"internalType": "string[]",
							"name": "",
							"type": "string[]"
						}
					],
					"stateMutability": "view",
					"type": "function"
				},
				{
					"inputs": [
						{
							"internalType": "string",
							"name": "_symbol",
							"type": "string"
						},
						{
							"internalType": "string",
							"name": "_interval",
							"type": "string"
						},
						{
							"internalType": "uint256",
							"name": "_startTime",
							"type": "uint256"
						},
						{
							"internalType": "uint256",
							"name": "_endTime",
							"type": "uint256"
						},
						{
							"internalType": "uint256",
							"name": "_limit",
							"type": "uint256"
						}
					],
					"name": "getKlineData",
					"outputs": [
						{
							"components": [
								{
									"internalType": "uint256",
									"name": "timestamp",
									"type": "uint256"
								},
								{
									"internalType": "uint256",
									"name": "endTimestamp",
									"type": "uint256"
								},
								{
									"internalType": "string",
									"name": "symbol",
									"type": "string"
								},
								{
									"internalType": "uint256",
									"name": "firstTradeId",
									"type": "uint256"
								},
								{
									"internalType": "uint256",
									"name": "lastTradeId",
									"type": "uint256"
								},
								{
									"internalType": "uint256",
									"name": "open",
									"type": "uint256"
								},
								{
									"internalType": "uint256",
									"name": "high",
									"type": "uint256"
								},
								{
									"internalType": "uint256",
									"name": "low",
									"type": "uint256"
								},
								{
									"internalType": "uint256",
									"name": "close",
									"type": "uint256"
								},
								{
									"internalType": "uint256",
									"name": "volume",
									"type": "uint256"
								},
								{
									"internalType": "uint256",
									"name": "numberOfTrades",
									"type": "uint256"
								},
								{
									"internalType": "bool",
									"name": "isClosed",
									"type": "bool"
								},
								{
									"internalType": "uint256",
									"name": "quoteVolume",
									"type": "uint256"
								},
								{
									"internalType": "uint256",
									"name": "takerBuyVolume",
									"type": "uint256"
								},
								{
									"internalType": "uint256",
									"name": "takerBuyQuoteVolume",
									"type": "uint256"
								}
							],
							"internalType": "struct IntervalContract.Kline[]",
							"name": "",
							"type": "tuple[]"
						}
					],
					"stateMutability": "view",
					"type": "function"
				},
				{
					"inputs": [],
					"name": "owner",
					"outputs": [
						{
							"internalType": "address",
							"name": "",
							"type": "address"
						}
					],
					"stateMutability": "view",
					"type": "function"
				},
				{
					"inputs": [
						{
							"internalType": "string",
							"name": "",
							"type": "string"
						},
						{
							"internalType": "string",
							"name": "",
							"type": "string"
						},
						{
							"internalType": "uint256",
							"name": "",
							"type": "uint256"
						}
					],
					"name": "symbolIntervalContracts",
					"outputs": [
						{
							"internalType": "address",
							"name": "contractAddress",
							"type": "address"
						},
						{
							"internalType": "uint256",
							"name": "startTimestamp",
							"type": "uint256"
						},
						{
							"internalType": "uint256",
							"name": "endTimestamp",
							"type": "uint256"
						}
					],
					"stateMutability": "view",
					"type": "function"
				},
				{
					"inputs": [
						{
							"internalType": "string",
							"name": "",
							"type": "string"
						},
						{
							"internalType": "uint256",
							"name": "",
							"type": "uint256"
						}
					],
					"name": "symbolIntervals",
					"outputs": [
						{
							"internalType": "string",
							"name": "",
							"type": "string"
						}
					],
					"stateMutability": "view",
					"type": "function"
				}
			],
			"devdoc": {
				"kind": "dev",
				"methods": {},
				"version": 1
			},
			"evm": {
				"assembly": "    /* \"contracts/FactoryContract.sol\":96:6456  contract FactoryContract {... */\n  0x80\n  dup1\n  0x40\n  mstore\n  jumpi(tag_1, callvalue)\n    /* \"contracts/FactoryContract.sol\":661:679  owner = msg.sender */\n  0x02\n    /* \"contracts/FactoryContract.sol\":96:6456  contract FactoryContract {... */\n  dup1\n  sload\n  not(sub(shl(0xa0, 0x01), 0x01))\n  and\n    /* \"contracts/FactoryContract.sol\":669:679  msg.sender */\n  caller\n    /* \"contracts/FactoryContract.sol\":96:6456  contract FactoryContract {... */\n  or\n  swap1\n  sstore\n  dataSize(sub_0)\n  swap1\n  dup2\n  dataOffset(sub_0)\n  dup3\n  codecopy\n  return\ntag_1:\n  0x00\n  dup1\n  revert\nstop\n\nsub_0: assembly {\n        /* \"contracts/FactoryContract.sol\":96:6456  contract FactoryContract {... */\n      mstore(0x40, 0x80)\n      jumpi(tag_27, iszero(lt(calldatasize, 0x04)))\n      0x00\n      dup1\n      revert\n    tag_27:\n      shr(0xe0, calldataload(0x00))\n      dup1\n      0x06d3dc52\n      eq\n      tag_29\n      jumpi\n      dup1\n      0x6eb350cf\n      eq\n      tag_31\n      jumpi\n      dup1\n      0x8da5cb5b\n      eq\n      tag_33\n      jumpi\n      dup1\n      0xa5459321\n      eq\n      tag_35\n      jumpi\n      dup1\n      0xa6b5dea2\n      eq\n      tag_37\n      jumpi\n      0xc1d13ebc\n      eq\n      tag_39\n      jumpi\n      0x00\n      dup1\n      revert\n    tag_39:\n      jumpi(tag_45, callvalue)\n      jumpi(tag_45, slt(add(not(0x03), calldatasize), 0x20))\n      calldataload(0x04)\n      sub(shl(0x40, 0x01), 0x01)\n      dup2\n      gt\n      tag_45\n      jumpi\n      0x20\n      tag_47\n      dup2\n      swap3\n      calldatasize\n      swap1\n      0x04\n      add\n      tag_6\n      jump\t// in\n    tag_47:\n      mload(0x40)\n      swap3\n      dup2\n      dup5\n      swap3\n      mload\n      swap2\n      dup3\n      swap2\n      add\n      dup4\n      mcopy\n      dup2\n      add\n        /* \"contracts/FactoryContract.sol\":6421:6436  symbolIntervals */\n      0x01\n        /* \"contracts/FactoryContract.sol\":96:6456  contract FactoryContract {... */\n      dup2\n      mstore\n      sub\n      add\n      swap1\n      keccak256\n      dup1\n      sload\n      swap1\n      tag_48\n      dup3\n      tag_19\n      jump\t// in\n    tag_48:\n      swap2\n      tag_49\n      mload(0x40)\n      swap4\n      dup5\n      tag_3\n      jump\t// in\n    tag_49:\n      dup1\n      dup4\n      mstore\n      0x20\n      dup4\n      add\n      dup1\n      swap3\n      0x00\n      mstore\n      keccak256(0x00, 0x20)\n      0x00\n      swap2\n    tag_50:\n      dup4\n      dup4\n      lt\n      tag_51\n      jumpi\n      dup5\n      dup7\n      mload(0x40)\n      swap2\n      dup3\n      swap2\n      0x20\n      dup4\n      add\n      swap1\n      0x20\n      dup5\n      mstore\n      mload\n      dup1\n      swap2\n      mstore\n      0x40\n      dup4\n      add\n      swap1\n      0x40\n      dup2\n      0x05\n      shl\n      dup6\n      add\n      add\n      swap3\n      swap2\n      0x00\n      swap1\n    tag_53:\n      dup3\n      dup3\n      lt\n      tag_54\n      jumpi\n      pop\n      pop\n      pop\n      pop\n      sub\n      swap1\n      return\n    tag_54:\n      swap2\n      swap4\n        /* \"contracts/FactoryContract.sol\":6421:6436  symbolIntervals */\n      0x01\n        /* \"contracts/FactoryContract.sol\":96:6456  contract FactoryContract {... */\n      swap2\n      swap4\n      swap6\n      pop\n      0x20\n      tag_56\n      dup2\n      swap3\n      not(0x3f)\n      dup11\n      dup3\n      sub\n      add\n      dup7\n      mstore\n      dup9\n      mload\n      tag_11\n      jump\t// in\n    tag_56:\n      swap7\n      add\n      swap3\n      add\n      swap3\n      add\n      dup6\n      swap5\n      swap4\n      swap2\n      swap3\n      jump(tag_53)\n    tag_51:\n        /* \"contracts/FactoryContract.sol\":6421:6436  symbolIntervals */\n      0x01\n        /* \"contracts/FactoryContract.sol\":96:6456  contract FactoryContract {... */\n      0x20\n      dup2\n      swap3\n      tag_57\n      dup6\n      tag_10\n      jump\t// in\n    tag_57:\n      dup2\n      mstore\n      add\n      swap3\n      add\n      swap3\n      add\n      swap2\n      swap1\n      jump(tag_50)\n    tag_45:\n      0x00\n      dup1\n      revert\n    tag_37:\n      jumpi(tag_45, callvalue)\n      jumpi(tag_45, slt(add(not(0x03), calldatasize), 0xa0))\n      calldataload(0x04)\n      sub(shl(0x40, 0x01), 0x01)\n      dup2\n      gt\n      tag_45\n      jumpi\n      tag_64\n      swap1\n      calldatasize\n      swap1\n      0x04\n      add\n      tag_6\n      jump\t// in\n    tag_64:\n      calldataload(0x24)\n      sub(shl(0x40, 0x01), 0x01)\n      dup2\n      gt\n      tag_45\n      jumpi\n      tag_67\n      swap1\n      calldatasize\n      swap1\n      0x04\n      add\n      tag_6\n      jump\t// in\n    tag_67:\n      calldataload(0x44)\n      calldataload(0x64)\n      swap3\n      calldataload(0x84)\n        /* \"contracts/FactoryContract.sol\":3748:3762  _startTime > 0 */\n      swap3\n      dup3\n      iszero\n        /* \"contracts/FactoryContract.sol\":96:6456  contract FactoryContract {... */\n      tag_68\n      jumpi\n        /* \"contracts/FactoryContract.sol\":3819:3841  _endTime >= _startTime */\n      dup3\n      dup6\n      lt\n        /* \"contracts/FactoryContract.sol\":96:6456  contract FactoryContract {... */\n      tag_70\n      jumpi\n        /* \"contracts/FactoryContract.sol\":3917:3927  _limit > 0 */\n      dup4\n      iszero\n        /* \"contracts/FactoryContract.sol\":96:6456  contract FactoryContract {... */\n      tag_72\n      jumpi\n      mload(0x40)\n      dup3\n      mload\n      tag_74\n      swap4\n      0x20\n      swap2\n      dup4\n      swap2\n      dup2\n      swap1\n      dup5\n      add\n      dup4\n      mcopy\n      dup2\n      add\n      0x00\n      dup2\n      mstore\n      sub\n      add\n      swap1\n      keccak256\n      swap1\n      tag_7\n      jump\t// in\n    tag_74:\n      swap1\n      dup2\n      sload\n      tag_75\n      dup2\n      tag_19\n      jump\t// in\n    tag_75:\n      swap3\n      tag_76\n      mload(0x40)\n      swap5\n      dup6\n      tag_3\n      jump\t// in\n    tag_76:\n      dup2\n      dup5\n      mstore\n      0x20\n      dup5\n      add\n      swap1\n      0x00\n      mstore\n      keccak256(0x00, 0x20)\n      0x00\n      swap2\n    tag_77:\n      dup4\n      dup4\n      lt\n      tag_78\n      jumpi\n      pop\n      pop\n      pop\n      pop\n      dup2\n      mload\n        /* \"contracts/FactoryContract.sol\":4069:4089  contracts.length > 0 */\n      iszero\n        /* \"contracts/FactoryContract.sol\":96:6456  contract FactoryContract {... */\n      tag_80\n      jumpi\n      0x00\n        /* \"contracts/FactoryContract.sol\":4240:4253  uint256 i = 0 */\n      swap2\n        /* \"contracts/FactoryContract.sol\":96:6456  contract FactoryContract {... */\n      0x00\n        /* \"contracts/FactoryContract.sol\":4277:4280  i++ */\n    tag_82:\n        /* \"contracts/FactoryContract.sol\":96:6456  contract FactoryContract {... */\n      dup2\n      mload\n        /* \"contracts/FactoryContract.sol\":4255:4275  i < contracts.length */\n      dup2\n      lt\n      iszero\n      tag_83\n      jumpi\n      sub(shl(0xa0, 0x01), 0x01)\n        /* \"contracts/FactoryContract.sol\":4350:4362  contracts[i] */\n      tag_85\n      dup3\n      dup5\n      tag_20\n      jump\t// in\n    tag_85:\n      mload\n        /* \"contracts/FactoryContract.sol\":96:6456  contract FactoryContract {... */\n      mload\n      and\n      mload(0x40)\n      shl(0xe1, 0x245d72c9)\n        /* \"contracts/FactoryContract.sol\":4415:4447  intervalContract.getKlineCount() */\n      dup2\n      mstore\n        /* \"contracts/FactoryContract.sol\":96:6456  contract FactoryContract {... */\n      0x20\n        /* \"contracts/FactoryContract.sol\":4415:4447  intervalContract.getKlineCount() */\n      dup2\n        /* \"contracts/FactoryContract.sol\":96:6456  contract FactoryContract {... */\n      0x04\n        /* \"contracts/FactoryContract.sol\":4415:4447  intervalContract.getKlineCount() */\n      dup2\n      dup6\n      gas\n      staticcall\n      swap1\n      dup2\n      iszero\n      tag_94\n      jumpi\n        /* \"contracts/FactoryContract.sol\":96:6456  contract FactoryContract {... */\n      0x00\n        /* \"contracts/FactoryContract.sol\":4415:4447  intervalContract.getKlineCount() */\n      swap2\n      tag_88\n      jumpi\n        /* \"contracts/FactoryContract.sol\":4277:4280  i++ */\n    tag_89:\n        /* \"contracts/FactoryContract.sol\":4466:4480  klineCount > 0 */\n      pop\n      dup1\n        /* \"contracts/FactoryContract.sol\":4462:4845  if (klineCount > 0) {... */\n      tag_90\n      jumpi\n        /* \"contracts/FactoryContract.sol\":4277:4280  i++ */\n    tag_91:\n      pop\n      pop\n        /* \"contracts/FactoryContract.sol\":96:6456  contract FactoryContract {... */\n      0x01\n      add\n        /* \"contracts/FactoryContract.sol\":4240:4253  uint256 i = 0 */\n      jump(tag_82)\n        /* \"contracts/FactoryContract.sol\":4462:4845  if (klineCount > 0) {... */\n    tag_90:\n        /* \"contracts/FactoryContract.sol\":96:6456  contract FactoryContract {... */\n      swap3\n      swap7\n      swap2\n      swap6\n      swap1\n      swap4\n      swap2\n      swap3\n      not(0x00)\n      dup2\n      add\n      swap1\n      dup2\n      gt\n      tag_92\n      jumpi\n      0x00\n      swap1\n      0x44\n      mload(0x40)\n      dup1\n      swap8\n      dup2\n      swap4\n      shl(0xe2, 0x3eeb4577)\n        /* \"contracts/FactoryContract.sol\":4542:4587  intervalContract.getKlines(0, klineCount - 1) */\n      dup4\n      mstore\n      dup6\n        /* \"contracts/FactoryContract.sol\":96:6456  contract FactoryContract {... */\n      0x04\n        /* \"contracts/FactoryContract.sol\":4542:4587  intervalContract.getKlines(0, klineCount - 1) */\n      dup5\n      add\n        /* \"contracts/FactoryContract.sol\":96:6456  contract FactoryContract {... */\n      mstore\n      0x24\n      dup4\n      add\n      mstore\n        /* \"contracts/FactoryContract.sol\":4542:4587  intervalContract.getKlines(0, klineCount - 1) */\n      gas\n      staticcall\n      swap4\n      dup5\n      iszero\n      tag_94\n      jumpi\n        /* \"contracts/FactoryContract.sol\":96:6456  contract FactoryContract {... */\n      0x00\n        /* \"contracts/FactoryContract.sol\":4542:4587  intervalContract.getKlines(0, klineCount - 1) */\n      swap5\n      tag_96\n      jumpi\n        /* \"contracts/FactoryContract.sol\":4462:4845  if (klineCount > 0) {... */\n    tag_97:\n        /* \"contracts/FactoryContract.sol\":4611:4624  uint256 j = 0 */\n      pop\n        /* \"contracts/FactoryContract.sol\":96:6456  contract FactoryContract {... */\n      0x00\n        /* \"contracts/FactoryContract.sol\":4645:4648  j++ */\n    tag_98:\n        /* \"contracts/FactoryContract.sol\":96:6456  contract FactoryContract {... */\n      dup5\n      mload\n        /* \"contracts/FactoryContract.sol\":4626:4643  j < klines.length */\n      dup2\n      lt\n      iszero\n      tag_99\n      jumpi\n        /* \"contracts/FactoryContract.sol\":4677:4686  klines[j] */\n      dup3\n      tag_101\n      dup3\n      dup8\n      tag_20\n      jump\t// in\n    tag_101:\n      mload\n        /* \"contracts/FactoryContract.sol\":96:6456  contract FactoryContract {... */\n      mload\n        /* \"contracts/FactoryContract.sol\":4677:4710  klines[j].timestamp >= _startTime */\n      lt\n      iszero\n        /* \"contracts/FactoryContract.sol\":4677:4745  klines[j].timestamp >= _startTime && klines[j].timestamp <= _endTime */\n      dup1\n      tag_102\n      jumpi\n        /* \"contracts/FactoryContract.sol\":4645:4648  j++ */\n    tag_103:\n        /* \"contracts/FactoryContract.sol\":4673:4811  if (klines[j].timestamp >= _startTime && klines[j].timestamp <= _endTime) {... */\n      tag_104\n      jumpi\n        /* \"contracts/FactoryContract.sol\":4645:4648  j++ */\n    tag_105:\n        /* \"contracts/FactoryContract.sol\":96:6456  contract FactoryContract {... */\n      0x01\n      add\n        /* \"contracts/FactoryContract.sol\":4611:4624  uint256 j = 0 */\n      jump(tag_98)\n        /* \"contracts/FactoryContract.sol\":4673:4811  if (klines[j].timestamp >= _startTime && klines[j].timestamp <= _endTime) {... */\n    tag_104:\n        /* \"contracts/FactoryContract.sol\":4774:4787  totalKlines++ */\n      swap5\n      tag_106\n        /* \"contracts/FactoryContract.sol\":96:6456  contract FactoryContract {... */\n      0x01\n        /* \"contracts/FactoryContract.sol\":4774:4787  totalKlines++ */\n      swap2\n      tag_22\n      jump\t// in\n    tag_106:\n        /* \"contracts/FactoryContract.sol\":4673:4811  if (klines[j].timestamp >= _startTime && klines[j].timestamp <= _endTime) {... */\n      swap6\n      swap1\n      pop\n      jump(tag_105)\n        /* \"contracts/FactoryContract.sol\":4677:4745  klines[j].timestamp >= _startTime && klines[j].timestamp <= _endTime */\n    tag_102:\n        /* \"contracts/FactoryContract.sol\":4714:4723  klines[j] */\n      pop\n      dup4\n      tag_107\n      dup3\n      dup8\n      tag_20\n      jump\t// in\n    tag_107:\n      mload\n        /* \"contracts/FactoryContract.sol\":96:6456  contract FactoryContract {... */\n      mload\n        /* \"contracts/FactoryContract.sol\":4714:4745  klines[j].timestamp <= _endTime */\n      gt\n      iszero\n        /* \"contracts/FactoryContract.sol\":4677:4745  klines[j].timestamp >= _startTime && klines[j].timestamp <= _endTime */\n      jump(tag_103)\n        /* \"contracts/FactoryContract.sol\":4626:4643  j < klines.length */\n    tag_99:\n      pop\n      swap2\n      swap6\n      swap2\n      swap5\n      swap1\n      swap3\n      pop\n        /* \"contracts/FactoryContract.sol\":96:6456  contract FactoryContract {... */\n      0x01\n        /* \"contracts/FactoryContract.sol\":4462:4845  if (klineCount > 0) {... */\n      dup8\n      jump(tag_91)\n        /* \"contracts/FactoryContract.sol\":4542:4587  intervalContract.getKlines(0, klineCount - 1) */\n    tag_96:\n      tag_108\n      swap2\n      swap5\n      pop\n      returndatasize\n      dup1\n        /* \"contracts/FactoryContract.sol\":96:6456  contract FactoryContract {... */\n      0x00\n        /* \"contracts/FactoryContract.sol\":4542:4587  intervalContract.getKlines(0, klineCount - 1) */\n      dup4\n      returndatacopy\n      tag_109\n      dup2\n      dup4\n      tag_3\n      jump\t// in\n    tag_109:\n      dup2\n      add\n      swap1\n      tag_21\n      jump\t// in\n    tag_108:\n      swap3\n      dup8\n      jump(tag_97)\n    tag_94:\n        /* \"contracts/FactoryContract.sol\":96:6456  contract FactoryContract {... */\n      mload(0x40)\n      returndatasize\n      0x00\n      dup3\n      returndatacopy\n      returndatasize\n      swap1\n      revert\n    tag_92:\n      mstore(0x00, shl(0xe0, 0x4e487b71))\n      mstore(0x04, 0x11)\n      revert(0x00, 0x24)\n        /* \"contracts/FactoryContract.sol\":4415:4447  intervalContract.getKlineCount() */\n    tag_88:\n      swap1\n      pop\n        /* \"contracts/FactoryContract.sol\":96:6456  contract FactoryContract {... */\n      0x20\n        /* \"contracts/FactoryContract.sol\":4415:4447  intervalContract.getKlineCount() */\n      dup2\n      returndatasize\n      dup3\n      gt\n      tag_110\n      jumpi\n    tag_111:\n      dup2\n      tag_112\n        /* \"contracts/FactoryContract.sol\":96:6456  contract FactoryContract {... */\n      0x20\n        /* \"contracts/FactoryContract.sol\":4415:4447  intervalContract.getKlineCount() */\n      swap4\n      dup4\n      tag_3\n      jump\t// in\n    tag_112:\n      dup2\n      add\n        /* \"contracts/FactoryContract.sol\":96:6456  contract FactoryContract {... */\n      sub\n      slt\n      tag_45\n      jumpi\n      mload\n        /* \"contracts/FactoryContract.sol\":4415:4447  intervalContract.getKlineCount() */\n      dup9\n      jump(tag_89)\n    tag_110:\n      returndatasize\n      swap2\n      pop\n      jump(tag_111)\n        /* \"contracts/FactoryContract.sol\":4255:4275  i < contracts.length */\n    tag_83:\n      pop\n      dup4\n      dup6\n      dup5\n        /* \"contracts/FactoryContract.sol\":4926:4946  totalKlines < _limit */\n      dup3\n      dup2\n      lt\n      iszero\n      tag_115\n      jumpi\n        /* \"contracts/FactoryContract.sol\":5021:5061  new IntervalContract.Kline[](resultSize) */\n      tag_117\n        /* \"contracts/FactoryContract.sol\":4926:4969  totalKlines < _limit ? totalKlines : _limit */\n      swap1\n        /* \"contracts/FactoryContract.sol\":5021:5061  new IntervalContract.Kline[](resultSize) */\n      tag_23\n      jump\t// in\n    tag_117:\n        /* \"contracts/FactoryContract.sol\":5072:5096  uint256 currentIndex = 0 */\n      swap1\n        /* \"contracts/FactoryContract.sol\":96:6456  contract FactoryContract {... */\n      0x00\n      swap1\n      dup5\n      mload\n        /* \"contracts/FactoryContract.sol\":5241:5244  i-- */\n    tag_119:\n        /* \"contracts/FactoryContract.sol\":5209:5214  i > 0 */\n      dup1\n      iszero\n      iszero\n        /* \"contracts/FactoryContract.sol\":5209:5239  i > 0 && currentIndex < _limit */\n      dup1\n      tag_120\n      jumpi\n        /* \"contracts/FactoryContract.sol\":5241:5244  i-- */\n    tag_121:\n        /* \"contracts/FactoryContract.sol\":5209:5239  i > 0 && currentIndex < _limit */\n      iszero\n      tag_122\n      jumpi\n      not(0x00)\n        /* \"contracts/FactoryContract.sol\":96:6456  contract FactoryContract {... */\n      dup2\n      add\n      dup2\n      dup2\n      gt\n      tag_92\n      jumpi\n      sub(shl(0xa0, 0x01), 0x01)\n      swap1\n        /* \"contracts/FactoryContract.sol\":5348:5362  contracts[idx] */\n      tag_126\n      swap1\n      dup9\n      tag_20\n      jump\t// in\n    tag_126:\n      mload\n        /* \"contracts/FactoryContract.sol\":96:6456  contract FactoryContract {... */\n      mload\n      and\n      mload(0x40)\n      shl(0xe1, 0x245d72c9)\n        /* \"contracts/FactoryContract.sol\":5415:5447  intervalContract.getKlineCount() */\n      dup2\n      mstore\n        /* \"contracts/FactoryContract.sol\":96:6456  contract FactoryContract {... */\n      0x20\n        /* \"contracts/FactoryContract.sol\":5415:5447  intervalContract.getKlineCount() */\n      dup2\n        /* \"contracts/FactoryContract.sol\":96:6456  contract FactoryContract {... */\n      0x04\n        /* \"contracts/FactoryContract.sol\":5415:5447  intervalContract.getKlineCount() */\n      dup2\n      dup6\n      gas\n      staticcall\n      swap1\n      dup2\n      iszero\n      tag_94\n      jumpi\n        /* \"contracts/FactoryContract.sol\":96:6456  contract FactoryContract {... */\n      0x00\n        /* \"contracts/FactoryContract.sol\":5415:5447  intervalContract.getKlineCount() */\n      swap2\n      tag_129\n      jumpi\n        /* \"contracts/FactoryContract.sol\":5241:5244  i-- */\n    tag_130:\n        /* \"contracts/FactoryContract.sol\":5466:5480  klineCount > 0 */\n      pop\n      dup1\n        /* \"contracts/FactoryContract.sol\":5462:5998  if (klineCount > 0) {... */\n      tag_131\n      jumpi\n        /* \"contracts/FactoryContract.sol\":5241:5244  i-- */\n    tag_132:\n      pop\n      pop\n      tag_133\n      swap1\n      tag_24\n      jump\t// in\n    tag_133:\n        /* \"contracts/FactoryContract.sol\":5179:5207  uint256 i = contracts.length */\n      jump(tag_119)\n        /* \"contracts/FactoryContract.sol\":5462:5998  if (klineCount > 0) {... */\n    tag_131:\n        /* \"contracts/FactoryContract.sol\":96:6456  contract FactoryContract {... */\n      0x00\n      swap8\n      swap2\n      swap5\n      swap6\n      swap7\n      swap8\n      not\n      dup2\n      add\n      swap1\n      dup2\n      gt\n      tag_92\n      jumpi\n      0x00\n      swap1\n      0x44\n      mload(0x40)\n      dup1\n      swap8\n      dup2\n      swap4\n      shl(0xe2, 0x3eeb4577)\n        /* \"contracts/FactoryContract.sol\":5542:5587  intervalContract.getKlines(0, klineCount - 1) */\n      dup4\n      mstore\n      dup6\n        /* \"contracts/FactoryContract.sol\":96:6456  contract FactoryContract {... */\n      0x04\n        /* \"contracts/FactoryContract.sol\":5542:5587  intervalContract.getKlines(0, klineCount - 1) */\n      dup5\n      add\n        /* \"contracts/FactoryContract.sol\":96:6456  contract FactoryContract {... */\n      mstore\n      0x24\n      dup4\n      add\n      mstore\n        /* \"contracts/FactoryContract.sol\":5542:5587  intervalContract.getKlines(0, klineCount - 1) */\n      gas\n      staticcall\n      swap4\n      dup5\n      iszero\n      tag_94\n      jumpi\n        /* \"contracts/FactoryContract.sol\":96:6456  contract FactoryContract {... */\n      0x00\n        /* \"contracts/FactoryContract.sol\":5542:5587  intervalContract.getKlines(0, klineCount - 1) */\n      swap5\n      tag_138\n      jumpi\n        /* \"contracts/FactoryContract.sol\":5462:5998  if (klineCount > 0) {... */\n    tag_139:\n        /* \"contracts/FactoryContract.sol\":96:6456  contract FactoryContract {... */\n      pop\n      dup4\n      mload\n        /* \"contracts/FactoryContract.sol\":5670:5673  j-- */\n    tag_140:\n        /* \"contracts/FactoryContract.sol\":5638:5643  j > 0 */\n      dup1\n      iszero\n      iszero\n        /* \"contracts/FactoryContract.sol\":5638:5668  j > 0 && currentIndex < _limit */\n      dup1\n      tag_141\n      jumpi\n        /* \"contracts/FactoryContract.sol\":5670:5673  j-- */\n    tag_142:\n        /* \"contracts/FactoryContract.sol\":5638:5668  j > 0 && currentIndex < _limit */\n      iszero\n      tag_143\n      jumpi\n      not(0x00)\n        /* \"contracts/FactoryContract.sol\":96:6456  contract FactoryContract {... */\n      dup2\n      add\n      dup2\n      dup2\n      gt\n      tag_92\n      jumpi\n        /* \"contracts/FactoryContract.sol\":5749:5765  klines[klineIdx] */\n      dup10\n      tag_147\n      dup3\n      dup9\n      tag_20\n      jump\t// in\n    tag_147:\n      mload\n        /* \"contracts/FactoryContract.sol\":96:6456  contract FactoryContract {... */\n      mload\n        /* \"contracts/FactoryContract.sol\":5749:5789  klines[klineIdx].timestamp >= _startTime */\n      lt\n      iszero\n        /* \"contracts/FactoryContract.sol\":5749:5831  klines[klineIdx].timestamp >= _startTime && klines[klineIdx].timestamp <= _endTime */\n      dup1\n      tag_148\n      jumpi\n        /* \"contracts/FactoryContract.sol\":5670:5673  j-- */\n    tag_149:\n        /* \"contracts/FactoryContract.sol\":5745:5964  if (klines[klineIdx].timestamp >= _startTime && klines[klineIdx].timestamp <= _endTime) {... */\n      tag_150\n      jumpi\n        /* \"contracts/FactoryContract.sol\":5670:5673  j-- */\n    tag_151:\n      pop\n      tag_152\n      swap1\n      tag_24\n      jump\t// in\n    tag_152:\n        /* \"contracts/FactoryContract.sol\":5611:5636  uint256 j = klines.length */\n      jump(tag_140)\n        /* \"contracts/FactoryContract.sol\":5745:5964  if (klines[klineIdx].timestamp >= _startTime && klines[klineIdx].timestamp <= _endTime) {... */\n    tag_150:\n        /* \"contracts/FactoryContract.sol\":5670:5673  j-- */\n      tag_152\n        /* \"contracts/FactoryContract.sol\":5883:5899  klines[klineIdx] */\n      swap2\n      swap7\n      tag_153\n        /* \"contracts/FactoryContract.sol\":5926:5940  currentIndex++ */\n      tag_154\n        /* \"contracts/FactoryContract.sol\":5883:5899  klines[klineIdx] */\n      swap3\n      dup9\n      tag_20\n      jump\t// in\n    tag_153:\n      mload\n        /* \"contracts/FactoryContract.sol\":5860:5899  result[currentIndex] = klines[klineIdx] */\n      tag_155\n      dup3\n      dup12\n      tag_20\n      jump\t// in\n    tag_155:\n      mstore\n      tag_156\n      dup2\n      dup11\n      tag_20\n      jump\t// in\n    tag_156:\n      pop\n        /* \"contracts/FactoryContract.sol\":5926:5940  currentIndex++ */\n      tag_22\n      jump\t// in\n    tag_154:\n        /* \"contracts/FactoryContract.sol\":5745:5964  if (klines[klineIdx].timestamp >= _startTime && klines[klineIdx].timestamp <= _endTime) {... */\n      swap6\n      swap1\n      jump(tag_151)\n        /* \"contracts/FactoryContract.sol\":5749:5831  klines[klineIdx].timestamp >= _startTime && klines[klineIdx].timestamp <= _endTime */\n    tag_148:\n        /* \"contracts/FactoryContract.sol\":5793:5809  klines[klineIdx] */\n      pop\n      dup5\n      tag_157\n      dup3\n      dup9\n      tag_20\n      jump\t// in\n    tag_157:\n      mload\n        /* \"contracts/FactoryContract.sol\":96:6456  contract FactoryContract {... */\n      mload\n        /* \"contracts/FactoryContract.sol\":5793:5831  klines[klineIdx].timestamp <= _endTime */\n      gt\n      iszero\n        /* \"contracts/FactoryContract.sol\":5749:5831  klines[klineIdx].timestamp >= _startTime && klines[klineIdx].timestamp <= _endTime */\n      jump(tag_149)\n        /* \"contracts/FactoryContract.sol\":5638:5668  j > 0 && currentIndex < _limit */\n    tag_143:\n      pop\n      swap6\n      swap5\n      swap4\n      swap3\n      pop\n        /* \"contracts/FactoryContract.sol\":5241:5244  i-- */\n      tag_133\n        /* \"contracts/FactoryContract.sol\":5462:5998  if (klineCount > 0) {... */\n      dup9\n      jump(tag_132)\n        /* \"contracts/FactoryContract.sol\":5638:5668  j > 0 && currentIndex < _limit */\n    tag_141:\n        /* \"contracts/FactoryContract.sol\":5647:5668  currentIndex < _limit */\n      pop\n      dup8\n      dup7\n      lt\n        /* \"contracts/FactoryContract.sol\":5638:5668  j > 0 && currentIndex < _limit */\n      jump(tag_142)\n        /* \"contracts/FactoryContract.sol\":5542:5587  intervalContract.getKlines(0, klineCount - 1) */\n    tag_138:\n      tag_158\n      swap2\n      swap5\n      pop\n      returndatasize\n      dup1\n        /* \"contracts/FactoryContract.sol\":96:6456  contract FactoryContract {... */\n      0x00\n        /* \"contracts/FactoryContract.sol\":5542:5587  intervalContract.getKlines(0, klineCount - 1) */\n      dup4\n      returndatacopy\n      tag_109\n      dup2\n      dup4\n      tag_3\n      jump\t// in\n    tag_158:\n      swap3\n      dup9\n      jump(tag_139)\n        /* \"contracts/FactoryContract.sol\":5415:5447  intervalContract.getKlineCount() */\n    tag_129:\n      swap1\n      pop\n        /* \"contracts/FactoryContract.sol\":96:6456  contract FactoryContract {... */\n      0x20\n        /* \"contracts/FactoryContract.sol\":5415:5447  intervalContract.getKlineCount() */\n      dup2\n      returndatasize\n      dup3\n      gt\n      tag_160\n      jumpi\n    tag_161:\n      dup2\n      tag_162\n        /* \"contracts/FactoryContract.sol\":96:6456  contract FactoryContract {... */\n      0x20\n        /* \"contracts/FactoryContract.sol\":5415:5447  intervalContract.getKlineCount() */\n      swap4\n      dup4\n      tag_3\n      jump\t// in\n    tag_162:\n      dup2\n      add\n        /* \"contracts/FactoryContract.sol\":96:6456  contract FactoryContract {... */\n      sub\n      slt\n      tag_45\n      jumpi\n      mload\n        /* \"contracts/FactoryContract.sol\":5415:5447  intervalContract.getKlineCount() */\n      dup10\n      jump(tag_130)\n    tag_160:\n      returndatasize\n      swap2\n      pop\n      jump(tag_161)\n        /* \"contracts/FactoryContract.sol\":5209:5239  i > 0 && currentIndex < _limit */\n    tag_122:\n      pop\n      pop\n        /* \"contracts/FactoryContract.sol\":6119:6161  new IntervalContract.Kline[](currentIndex) */\n      tag_165\n      dup2\n      tag_23\n      jump\t// in\n    tag_165:\n        /* \"contracts/FactoryContract.sol\":6177:6190  uint256 i = 0 */\n      swap2\n        /* \"contracts/FactoryContract.sol\":96:6456  contract FactoryContract {... */\n      0x00\n        /* \"contracts/FactoryContract.sol\":6192:6208  i < currentIndex */\n    tag_166:\n      dup3\n      dup2\n      lt\n      tag_167\n      jumpi\n        /* \"contracts/FactoryContract.sol\":96:6456  contract FactoryContract {... */\n      dup4\n      mload(0x40)\n      dup1\n      swap2\n      0x20\n      dup3\n      add\n      0x20\n      dup4\n      mstore\n      dup2\n      mload\n      dup1\n      swap2\n      mstore\n      0x40\n      dup4\n      add\n      swap1\n      0x20\n      0x40\n      dup3\n      0x05\n      shl\n      dup7\n      add\n      add\n      swap4\n      add\n      swap2\n      0x00\n      swap1\n    tag_169:\n      dup3\n      dup3\n      lt\n      tag_170\n      jumpi\n      pop\n      pop\n      pop\n      pop\n      sub\n      swap1\n      return\n    tag_170:\n      swap2\n      swap4\n      0x01\n      swap2\n      swap4\n      swap6\n      pop\n      0x20\n      dup1\n      swap2\n      not(0x3f)\n      dup10\n      dup3\n      sub\n      add\n      dup6\n      mstore\n      dup8\n      mload\n      swap1\n      dup2\n      mload\n      dup2\n      mstore\n      dup3\n      dup3\n      add\n      mload\n      dup4\n      dup3\n      add\n      mstore\n      0x01c0\n      dup1\n      tag_172\n      0x40\n      dup6\n      add\n      mload\n      0x01e0\n      0x40\n      dup7\n      add\n      mstore\n      0x01e0\n      dup6\n      add\n      swap1\n      tag_11\n      jump\t// in\n    tag_172:\n      swap4\n      0x60\n      dup2\n      add\n      mload\n      0x60\n      dup6\n      add\n      mstore\n      0x80\n      dup2\n      add\n      mload\n      0x80\n      dup6\n      add\n      mstore\n      0xa0\n      dup2\n      add\n      mload\n      0xa0\n      dup6\n      add\n      mstore\n      0xc0\n      dup2\n      add\n      mload\n      0xc0\n      dup6\n      add\n      mstore\n      0xe0\n      dup2\n      add\n      mload\n      0xe0\n      dup6\n      add\n      mstore\n      0x0100\n      dup2\n      add\n      mload\n      0x0100\n      dup6\n      add\n      mstore\n      0x0120\n      dup2\n      add\n      mload\n      0x0120\n      dup6\n      add\n      mstore\n      0x0140\n      dup2\n      add\n      mload\n      0x0140\n      dup6\n      add\n      mstore\n      0x0160\n      dup2\n      add\n      mload\n      iszero\n      iszero\n      0x0160\n      dup6\n      add\n      mstore\n      0x0180\n      dup2\n      add\n      mload\n      0x0180\n      dup6\n      add\n      mstore\n      0x01a0\n      dup2\n      add\n      mload\n      0x01a0\n      dup6\n      add\n      mstore\n      add\n      mload\n      swap2\n      add\n      mstore\n      swap7\n      add\n      swap3\n      add\n      swap3\n      add\n      dup6\n      swap5\n      swap4\n      swap2\n      swap3\n      jump(tag_169)\n        /* \"contracts/FactoryContract.sol\":6210:6213  i++ */\n    tag_167:\n        /* \"contracts/FactoryContract.sol\":6249:6258  result[i] */\n      dup1\n      tag_173\n        /* \"contracts/FactoryContract.sol\":96:6456  contract FactoryContract {... */\n      0x01\n        /* \"contracts/FactoryContract.sol\":6249:6258  result[i] */\n      swap3\n      dup5\n      tag_20\n      jump\t// in\n    tag_173:\n      mload\n        /* \"contracts/FactoryContract.sol\":6230:6258  trimmedResult[i] = result[i] */\n      tag_174\n      dup3\n      dup8\n      tag_20\n      jump\t// in\n    tag_174:\n      mstore\n      tag_175\n      dup2\n      dup7\n      tag_20\n      jump\t// in\n    tag_175:\n      pop\n        /* \"contracts/FactoryContract.sol\":96:6456  contract FactoryContract {... */\n      add\n        /* \"contracts/FactoryContract.sol\":6177:6190  uint256 i = 0 */\n      jump(tag_166)\n        /* \"contracts/FactoryContract.sol\":5209:5239  i > 0 && currentIndex < _limit */\n    tag_120:\n        /* \"contracts/FactoryContract.sol\":5218:5239  currentIndex < _limit */\n      pop\n      dup5\n      dup4\n      lt\n        /* \"contracts/FactoryContract.sol\":5209:5239  i > 0 && currentIndex < _limit */\n      jump(tag_121)\n        /* \"contracts/FactoryContract.sol\":4926:4969  totalKlines < _limit ? totalKlines : _limit */\n    tag_115:\n      pop\n        /* \"contracts/FactoryContract.sol\":5021:5061  new IntervalContract.Kline[](resultSize) */\n      tag_117\n        /* \"contracts/FactoryContract.sol\":4926:4969  totalKlines < _limit ? totalKlines : _limit */\n      dup3\n        /* \"contracts/FactoryContract.sol\":5021:5061  new IntervalContract.Kline[](resultSize) */\n      tag_23\n      jump\t// in\n        /* \"contracts/FactoryContract.sol\":96:6456  contract FactoryContract {... */\n    tag_80:\n      0x64\n      mload(0x40)\n      shl(0xe5, 0x461bcd)\n      dup2\n      mstore\n      0x20\n      0x04\n      dup3\n      add\n      mstore\n      0x20\n      0x24\n      dup3\n      add\n      mstore\n      0x53796d626f6c206f7220696e74657276616c206e6f7420737570706f72746564\n      0x44\n      dup3\n      add\n      mstore\n      revert\n    tag_78:\n      0x03\n      0x20\n      0x01\n      swap3\n      mload(0x40)\n      tag_176\n      dup2\n      tag_1\n      jump\t// in\n    tag_176:\n      dup5\n      dup1\n      0xa0\n      shl\n      sub\n      dup7\n      sload\n      and\n      dup2\n      mstore\n      dup5\n      dup7\n      add\n      sload\n      dup4\n      dup3\n      add\n      mstore\n      0x02\n      dup7\n      add\n      sload\n      0x40\n      dup3\n      add\n      mstore\n      dup2\n      mstore\n      add\n      swap3\n      add\n      swap3\n      add\n      swap2\n      swap1\n      jump(tag_77)\n    tag_72:\n      mload(0x40)\n      shl(0xe5, 0x461bcd)\n      dup2\n      mstore\n      0x20\n      0x04\n      dup3\n      add\n      mstore\n      0x1c\n      0x24\n      dup3\n      add\n      mstore\n      0x4c696d6974206d7573742062652067726561746572207468616e203000000000\n      0x44\n      dup3\n      add\n      mstore\n      0x64\n      swap1\n      revert\n    tag_70:\n      mload(0x40)\n      shl(0xe5, 0x461bcd)\n      dup2\n      mstore\n      0x20\n      0x04\n      dup3\n      add\n      mstore\n      0x34\n      0x24\n      dup3\n      add\n      mstore\n      0x456e642074696d65206d7573742062652067726561746572207468616e206f72\n      0x44\n      dup3\n      add\n      mstore\n      shl(0x60, 0x20657175616c20746f2073746172742074696d65)\n      0x64\n      dup3\n      add\n      mstore\n      0x84\n      swap1\n      revert\n    tag_68:\n      mload(0x40)\n      shl(0xe5, 0x461bcd)\n      dup2\n      mstore\n      0x20\n      0x04\n      dup3\n      add\n      mstore\n      0x21\n      0x24\n      dup3\n      add\n      mstore\n      0x53746172742074696d65206d7573742062652067726561746572207468616e20\n      0x44\n      dup3\n      add\n      mstore\n      shl(0xfc, 0x03)\n      0x64\n      dup3\n      add\n      mstore\n      0x84\n      swap1\n      revert\n    tag_35:\n      jumpi(tag_45, callvalue)\n      jumpi(tag_45, slt(add(not(0x03), calldatasize), 0x60))\n      calldataload(0x04)\n      sub(shl(0x40, 0x01), 0x01)\n      dup2\n      gt\n      tag_45\n      jumpi\n      tag_183\n      swap1\n      calldatasize\n      swap1\n      0x04\n      add\n      tag_6\n      jump\t// in\n    tag_183:\n      calldataload(0x24)\n      sub(shl(0x40, 0x01), 0x01)\n      dup2\n      gt\n      tag_45\n      jumpi\n      tag_186\n      swap1\n      calldatasize\n      swap1\n      0x04\n      add\n      tag_6\n      jump\t// in\n    tag_186:\n      calldataload(0x44)\n      swap1\n      sub(shl(0x40, 0x01), 0x01)\n      dup3\n      gt\n      tag_45\n      jumpi\n      dup2\n      0x04\n      add\n      swap1\n      0x0200\n      not(0x03)\n      dup5\n      calldatasize\n      sub\n      add\n      slt\n      tag_45\n      jumpi\n        /* \"contracts/FactoryContract.sol\":749:754  owner */\n      0x02\n        /* \"contracts/FactoryContract.sol\":96:6456  contract FactoryContract {... */\n      sload\n      sub(shl(0xa0, 0x01), 0x01)\n      and\n        /* \"contracts/FactoryContract.sol\":735:745  msg.sender */\n      caller\n        /* \"contracts/FactoryContract.sol\":735:754  msg.sender == owner */\n      sub\n        /* \"contracts/FactoryContract.sol\":96:6456  contract FactoryContract {... */\n      tag_191\n      jumpi\n      tag_193\n        /* \"contracts/FactoryContract.sol\":2333:2345  input.symbol */\n      tag_194\n        /* \"contracts/FactoryContract.sol\":96:6456  contract FactoryContract {... */\n      0x44\n        /* \"contracts/FactoryContract.sol\":2333:2345  input.symbol */\n      dup6\n      add\n      dup5\n      tag_13\n      jump\t// in\n    tag_194:\n        /* \"contracts/FactoryContract.sol\":96:6456  contract FactoryContract {... */\n      calldatasize\n      swap2\n      tag_5\n      jump\t// in\n    tag_193:\n      0x20\n      dup2\n      mload\n      swap2\n      add\n        /* \"contracts/FactoryContract.sol\":2317:2347  keccak256(bytes(input.symbol)) */\n      keccak256\n        /* \"contracts/FactoryContract.sol\":96:6456  contract FactoryContract {... */\n      swap3\n      dup5\n      mload\n      swap4\n      0x20\n      dup7\n      add\n        /* \"contracts/FactoryContract.sol\":2351:2376  keccak256(bytes(_symbol)) */\n      swap5\n      dup6\n      keccak256\n        /* \"contracts/FactoryContract.sol\":2317:2376  keccak256(bytes(input.symbol)) == keccak256(bytes(_symbol)) */\n      sub\n        /* \"contracts/FactoryContract.sol\":96:6456  contract FactoryContract {... */\n      tag_195\n      jumpi\n        /* \"contracts/FactoryContract.sol\":2480:2494  input.interval */\n      tag_194\n      0x64\n        /* \"contracts/FactoryContract.sol\":96:6456  contract FactoryContract {... */\n      tag_198\n        /* \"contracts/FactoryContract.sol\":2480:2494  input.interval */\n      swap3\n      add\n      dup5\n      tag_13\n      jump\t// in\n        /* \"contracts/FactoryContract.sol\":96:6456  contract FactoryContract {... */\n    tag_198:\n      0x20\n      dup2\n      mload\n      swap2\n      add\n        /* \"contracts/FactoryContract.sol\":2464:2496  keccak256(bytes(input.interval)) */\n      keccak256\n        /* \"contracts/FactoryContract.sol\":96:6456  contract FactoryContract {... */\n      swap3\n      dup2\n      mload\n      swap4\n      0x20\n      dup4\n      add\n        /* \"contracts/FactoryContract.sol\":2500:2527  keccak256(bytes(_interval)) */\n      swap5\n      dup6\n      keccak256\n        /* \"contracts/FactoryContract.sol\":2464:2527  keccak256(bytes(input.interval)) == keccak256(bytes(_interval)) */\n      sub\n        /* \"contracts/FactoryContract.sol\":96:6456  contract FactoryContract {... */\n      tag_199\n      jumpi\n      mload(0x40)\n      0x20\n      dup2\n      dup8\n      mload\n      dup1\n      dup6\n      dup4\n      mcopy\n      dup2\n      add\n        /* \"contracts/FactoryContract.sol\":1511:1526  symbolIntervals */\n      0x01\n        /* \"contracts/FactoryContract.sol\":96:6456  contract FactoryContract {... */\n      dup2\n      mstore\n      sub\n      add\n      swap1\n      keccak256\n      sload\n        /* \"contracts/FactoryContract.sol\":1511:1546  symbolIntervals[_symbol].length > 0 */\n      iszero\n        /* \"contracts/FactoryContract.sol\":1557:1631  if (!symbolExists) {... */\n      tag_201\n      jumpi\n        /* \"contracts/FactoryContract.sol\":96:6456  contract FactoryContract {... */\n    tag_202:\n      0x00\n        /* \"contracts/FactoryContract.sol\":1686:1699  uint256 i = 0 */\n      swap4\n        /* \"contracts/FactoryContract.sol\":96:6456  contract FactoryContract {... */\n      0x00\n        /* \"contracts/FactoryContract.sol\":1738:1741  i++ */\n    tag_203:\n        /* \"contracts/FactoryContract.sol\":96:6456  contract FactoryContract {... */\n      mload(0x40)\n      0x20\n      dup2\n      dup10\n      mload\n      dup1\n      dup8\n      dup4\n      mcopy\n      dup2\n      add\n        /* \"contracts/FactoryContract.sol\":1511:1526  symbolIntervals */\n      0x01\n        /* \"contracts/FactoryContract.sol\":96:6456  contract FactoryContract {... */\n      dup2\n      mstore\n      sub\n      add\n      swap1\n      keccak256\n      sload\n        /* \"contracts/FactoryContract.sol\":1701:1736  i < symbolIntervals[_symbol].length */\n      dup2\n      lt\n      iszero\n      tag_204\n      jumpi\n        /* \"contracts/FactoryContract.sol\":1778:1805  symbolIntervals[_symbol][i] */\n      tag_206\n        /* \"contracts/FactoryContract.sol\":96:6456  contract FactoryContract {... */\n      dup2\n      mload(0x40)\n      0x20\n      dup2\n      dup12\n      mload\n      dup1\n      dup10\n      dup4\n      mcopy\n      dup2\n      add\n        /* \"contracts/FactoryContract.sol\":1511:1526  symbolIntervals */\n      0x01\n        /* \"contracts/FactoryContract.sol\":96:6456  contract FactoryContract {... */\n      dup2\n      mstore\n      sub\n      add\n      swap1\n      keccak256\n        /* \"contracts/FactoryContract.sol\":1778:1805  symbolIntervals[_symbol][i] */\n      tag_8\n      jump\t// in\n    tag_206:\n      pop\n        /* \"contracts/FactoryContract.sol\":96:6456  contract FactoryContract {... */\n      mload(0x40)\n      dup2\n      sload\n      swap2\n      dup2\n      0x00\n      tag_207\n      dup6\n      tag_9\n      jump\t// in\n    tag_207:\n      swap3\n      dup4\n      dup4\n      mstore\n      0x20\n      dup4\n      add\n      swap6\n        /* \"contracts/FactoryContract.sol\":1511:1526  symbolIntervals */\n      0x01\n        /* \"contracts/FactoryContract.sol\":96:6456  contract FactoryContract {... */\n      dup2\n      and\n        /* \"contracts/FactoryContract.sol\":1511:1526  symbolIntervals */\n      swap1\n      dup2\n        /* \"contracts/FactoryContract.sol\":96:6456  contract FactoryContract {... */\n      0x00\n        /* \"contracts/FactoryContract.sol\":1511:1526  symbolIntervals */\n      eq\n      tag_208\n      jumpi\n        /* \"contracts/FactoryContract.sol\":96:6456  contract FactoryContract {... */\n      pop\n      0x01\n      eq\n      tag_210\n      jumpi\n    tag_211:\n      pop\n      tag_212\n      swap3\n      pop\n      sub\n      dup3\n      tag_3\n      jump\t// in\n    tag_212:\n      mload\n        /* \"contracts/FactoryContract.sol\":1762:1807  keccak256(bytes(symbolIntervals[_symbol][i])) */\n      swap1\n      keccak256\n        /* \"contracts/FactoryContract.sol\":96:6456  contract FactoryContract {... */\n      dup5\n      mload\n        /* \"contracts/FactoryContract.sol\":1811:1838  keccak256(bytes(_interval)) */\n      dup4\n      keccak256\n        /* \"contracts/FactoryContract.sol\":1762:1838  keccak256(bytes(symbolIntervals[_symbol][i])) == keccak256(bytes(_interval)) */\n      eq\n        /* \"contracts/FactoryContract.sol\":1758:1920  if (keccak256(bytes(symbolIntervals[_symbol][i])) == keccak256(bytes(_interval))) {... */\n      tag_213\n      jumpi\n        /* \"contracts/FactoryContract.sol\":1511:1526  symbolIntervals */\n      0x01\n        /* \"contracts/FactoryContract.sol\":96:6456  contract FactoryContract {... */\n      add\n        /* \"contracts/FactoryContract.sol\":1686:1699  uint256 i = 0 */\n      jump(tag_203)\n        /* \"contracts/FactoryContract.sol\":1758:1920  if (keccak256(bytes(symbolIntervals[_symbol][i])) == keccak256(bytes(_interval))) {... */\n    tag_213:\n        /* \"contracts/FactoryContract.sol\":1859:1880  intervalExists = true */\n      pop\n      pop\n      swap1\n      swap2\n      swap3\n      pop\n        /* \"contracts/FactoryContract.sol\":1511:1526  symbolIntervals */\n      0x01\n        /* \"contracts/FactoryContract.sol\":1681:1931  for (uint256 i = 0; i < symbolIntervals[_symbol].length; i++) {... */\n    tag_215:\n        /* \"contracts/FactoryContract.sol\":1947:1962  !intervalExists */\n      iszero\n        /* \"contracts/FactoryContract.sol\":1943:2140  if (!intervalExists) {... */\n      tag_216\n      jumpi\n        /* \"contracts/FactoryContract.sol\":1681:1931  for (uint256 i = 0; i < symbolIntervals[_symbol].length; i++) {... */\n    tag_217:\n        /* \"contracts/FactoryContract.sol\":96:6456  contract FactoryContract {... */\n      tag_218\n      swap1\n      0x20\n      mload(0x40)\n      dup1\n      swap3\n      dup8\n      mload\n      dup1\n      swap2\n      dup4\n      mcopy\n      dup2\n      add\n      0x00\n      dup2\n      mstore\n      sub\n      add\n      swap1\n      keccak256\n      dup3\n      tag_7\n      jump\t// in\n    tag_218:\n      dup1\n      sload\n      not(0x00)\n      dup2\n      add\n      swap1\n      dup2\n      gt\n      tag_92\n      jumpi\n        /* \"contracts/FactoryContract.sol\":2781:2812  contracts[contracts.length - 1] */\n      tag_221\n      swap1\n      dup3\n      tag_12\n      jump\t// in\n    tag_221:\n      pop\n        /* \"contracts/FactoryContract.sol\":96:6456  contract FactoryContract {... */\n      dup1\n      sload\n      mload(0x40)\n      shl(0xe0, 0xc3e3bfe5)\n        /* \"contracts/FactoryContract.sol\":2935:2967  intervalContract.addKline(input) */\n      dup2\n      mstore\n        /* \"contracts/FactoryContract.sol\":96:6456  contract FactoryContract {... */\n      swap2\n      swap5\n      swap2\n      swap1\n      0x20\n      swap1\n      dup3\n      swap1\n      sub(shl(0xa0, 0x01), 0x01)\n      and\n      dup2\n      0x00\n      dup2\n        /* \"contracts/FactoryContract.sol\":2935:2967  intervalContract.addKline(input) */\n      tag_222\n        /* \"contracts/FactoryContract.sol\":96:6456  contract FactoryContract {... */\n      dup9\n      0x04\n        /* \"contracts/FactoryContract.sol\":2935:2967  intervalContract.addKline(input) */\n      dup4\n      add\n      tag_17\n      jump\t// in\n    tag_222:\n      sub\n      swap3\n      gas\n      call\n      swap1\n      dup2\n      iszero\n      tag_94\n      jumpi\n        /* \"contracts/FactoryContract.sol\":96:6456  contract FactoryContract {... */\n      0x00\n        /* \"contracts/FactoryContract.sol\":2935:2967  intervalContract.addKline(input) */\n      swap2\n      tag_225\n      jumpi\n        /* \"contracts/FactoryContract.sol\":1681:1931  for (uint256 i = 0; i < symbolIntervals[_symbol].length; i++) {... */\n    tag_226:\n        /* \"contracts/FactoryContract.sol\":2982:2990  !success */\n      pop\n      iszero\n        /* \"contracts/FactoryContract.sol\":2978:3482  if (!success) {... */\n      tag_227\n      jumpi\n        /* \"contracts/FactoryContract.sol\":96:6456  contract FactoryContract {... */\n      stop\n        /* \"contracts/FactoryContract.sol\":2978:3482  if (!success) {... */\n    tag_227:\n        /* \"contracts/FactoryContract.sol\":3146:3326  contracts.push(ContractInfo({... */\n      tag_229\n        /* \"contracts/FactoryContract.sol\":3093:3131  _deployNewContract(_symbol, _interval) */\n      tag_230\n        /* \"contracts/FactoryContract.sol\":3351:3400  IntervalContract(newContractAddr).addKline(input) */\n      tag_231\n        /* \"contracts/FactoryContract.sol\":3037:3052  block.timestamp */\n      swap5\n        /* \"contracts/FactoryContract.sol\":96:6456  contract FactoryContract {... */\n      0x00\n        /* \"contracts/FactoryContract.sol\":3037:3052  block.timestamp */\n      swap8\n        /* \"contracts/FactoryContract.sol\":96:6456  contract FactoryContract {... */\n      0x20\n        /* \"contracts/FactoryContract.sol\":3037:3052  block.timestamp */\n      swap8\n        /* \"contracts/FactoryContract.sol\":749:754  owner */\n      0x02\n        /* \"contracts/FactoryContract.sol\":3037:3052  block.timestamp */\n      timestamp\n        /* \"contracts/FactoryContract.sol\":3007:3034  latestContract.endTimestamp */\n      swap2\n      add\n        /* \"contracts/FactoryContract.sol\":96:6456  contract FactoryContract {... */\n      sstore\n        /* \"contracts/FactoryContract.sol\":3093:3131  _deployNewContract(_symbol, _interval) */\n      tag_26\n      jump\t// in\n    tag_230:\n        /* \"contracts/FactoryContract.sol\":96:6456  contract FactoryContract {... */\n      mload(0x40)\n      swap1\n      tag_232\n      dup3\n      tag_1\n      jump\t// in\n    tag_232:\n      sub(shl(0xa0, 0x01), 0x01)\n      and\n      dup1\n      dup3\n      mstore\n        /* \"contracts/FactoryContract.sol\":3037:3052  block.timestamp */\n      timestamp\n        /* \"contracts/FactoryContract.sol\":3161:3325  ContractInfo({... */\n      dup8\n      dup4\n      add\n        /* \"contracts/FactoryContract.sol\":96:6456  contract FactoryContract {... */\n      mstore\n      0x40\n        /* \"contracts/FactoryContract.sol\":3161:3325  ContractInfo({... */\n      dup3\n      add\n        /* \"contracts/FactoryContract.sol\":96:6456  contract FactoryContract {... */\n      dup9\n      swap1\n      mstore\n      swap4\n        /* \"contracts/FactoryContract.sol\":3146:3326  contracts.push(ContractInfo({... */\n      tag_18\n      jump\t// in\n    tag_229:\n        /* \"contracts/FactoryContract.sol\":96:6456  contract FactoryContract {... */\n      mload(0x40)\n      swap5\n      dup6\n      dup1\n      swap5\n      dup2\n      swap4\n      shl(0xe0, 0xc3e3bfe5)\n        /* \"contracts/FactoryContract.sol\":3351:3400  IntervalContract(newContractAddr).addKline(input) */\n      dup4\n      mstore\n        /* \"contracts/FactoryContract.sol\":96:6456  contract FactoryContract {... */\n      0x04\n        /* \"contracts/FactoryContract.sol\":3351:3400  IntervalContract(newContractAddr).addKline(input) */\n      dup4\n      add\n      tag_17\n      jump\t// in\n    tag_231:\n      sub\n      swap3\n      gas\n      call\n      swap1\n      dup2\n      iszero\n      tag_94\n      jumpi\n        /* \"contracts/FactoryContract.sol\":96:6456  contract FactoryContract {... */\n      0x00\n        /* \"contracts/FactoryContract.sol\":3351:3400  IntervalContract(newContractAddr).addKline(input) */\n      swap2\n      tag_235\n      jumpi\n        /* \"contracts/FactoryContract.sol\":2978:3482  if (!success) {... */\n    tag_236:\n        /* \"contracts/FactoryContract.sol\":96:6456  contract FactoryContract {... */\n      pop\n      iszero\n      tag_237\n      jumpi\n      stop\n    tag_237:\n      mload(0x40)\n      shl(0xe5, 0x461bcd)\n      dup2\n      mstore\n      0x20\n      0x04\n      dup3\n      add\n      mstore\n      0x23\n      0x24\n      dup3\n      add\n      mstore\n      0x4661696c656420746f20616464206b6c696e6520746f206e657720636f6e7472\n      0x44\n      dup3\n      add\n      mstore\n      shl(0xea, 0x1858dd)\n        /* \"contracts/FactoryContract.sol\":2480:2494  input.interval */\n      0x64\n        /* \"contracts/FactoryContract.sol\":96:6456  contract FactoryContract {... */\n      dup3\n      add\n      mstore\n      0x84\n      swap1\n      revert\n        /* \"contracts/FactoryContract.sol\":3351:3400  IntervalContract(newContractAddr).addKline(input) */\n    tag_235:\n      swap1\n      pop\n        /* \"contracts/FactoryContract.sol\":96:6456  contract FactoryContract {... */\n      0x20\n        /* \"contracts/FactoryContract.sol\":3351:3400  IntervalContract(newContractAddr).addKline(input) */\n      dup2\n      returndatasize\n        /* \"contracts/FactoryContract.sol\":96:6456  contract FactoryContract {... */\n      0x20\n        /* \"contracts/FactoryContract.sol\":3351:3400  IntervalContract(newContractAddr).addKline(input) */\n      gt\n      tag_239\n      jumpi\n    tag_240:\n      dup2\n      tag_241\n        /* \"contracts/FactoryContract.sol\":96:6456  contract FactoryContract {... */\n      0x20\n        /* \"contracts/FactoryContract.sol\":3351:3400  IntervalContract(newContractAddr).addKline(input) */\n      swap4\n      dup4\n      tag_3\n      jump\t// in\n    tag_241:\n      dup2\n      add\n        /* \"contracts/FactoryContract.sol\":96:6456  contract FactoryContract {... */\n      sub\n      slt\n      tag_45\n      jumpi\n      tag_244\n      swap1\n      tag_14\n      jump\t// in\n    tag_244:\n        /* \"contracts/FactoryContract.sol\":3351:3400  IntervalContract(newContractAddr).addKline(input) */\n      dup2\n      jump(tag_236)\n    tag_239:\n      returndatasize\n      swap2\n      pop\n      jump(tag_240)\n        /* \"contracts/FactoryContract.sol\":2935:2967  intervalContract.addKline(input) */\n    tag_225:\n      swap1\n      pop\n        /* \"contracts/FactoryContract.sol\":96:6456  contract FactoryContract {... */\n      0x20\n        /* \"contracts/FactoryContract.sol\":2935:2967  intervalContract.addKline(input) */\n      dup2\n      returndatasize\n        /* \"contracts/FactoryContract.sol\":96:6456  contract FactoryContract {... */\n      0x20\n        /* \"contracts/FactoryContract.sol\":2935:2967  intervalContract.addKline(input) */\n      gt\n      tag_245\n      jumpi\n    tag_246:\n      dup2\n      tag_247\n        /* \"contracts/FactoryContract.sol\":96:6456  contract FactoryContract {... */\n      0x20\n        /* \"contracts/FactoryContract.sol\":2935:2967  intervalContract.addKline(input) */\n      swap4\n      dup4\n      tag_3\n      jump\t// in\n    tag_247:\n      dup2\n      add\n        /* \"contracts/FactoryContract.sol\":96:6456  contract FactoryContract {... */\n      sub\n      slt\n      tag_45\n      jumpi\n      tag_250\n      swap1\n      tag_14\n      jump\t// in\n    tag_250:\n        /* \"contracts/FactoryContract.sol\":2935:2967  intervalContract.addKline(input) */\n      dup7\n      jump(tag_226)\n    tag_245:\n      returndatasize\n      swap2\n      pop\n      jump(tag_246)\n        /* \"contracts/FactoryContract.sol\":1943:2140  if (!intervalExists) {... */\n    tag_216:\n        /* \"contracts/FactoryContract.sol\":96:6456  contract FactoryContract {... */\n      mload(0x40)\n      0x20\n      dup2\n      dup7\n      mload\n      dup1\n      dup6\n      dup4\n      mcopy\n      dup2\n      add\n        /* \"contracts/FactoryContract.sol\":1511:1526  symbolIntervals */\n      0x01\n        /* \"contracts/FactoryContract.sol\":96:6456  contract FactoryContract {... */\n      dup2\n      mstore\n      sub\n      add\n      swap1\n      keccak256\n      dup1\n      sload\n      shl(0x40, 0x01)\n      dup2\n      lt\n      iszero\n      tag_256\n      jumpi\n      tag_253\n      swap2\n        /* \"contracts/FactoryContract.sol\":1511:1526  symbolIntervals */\n      0x01\n        /* \"contracts/FactoryContract.sol\":96:6456  contract FactoryContract {... */\n      dup3\n      add\n      dup2\n      sstore\n      tag_8\n      jump\t// in\n    tag_253:\n      tag_254\n      jumpi\n      dup3\n      mload\n      sub(shl(0x40, 0x01), 0x01)\n      dup2\n      gt\n      tag_256\n      jumpi\n      tag_258\n      dup3\n      sload\n      tag_9\n      jump\t// in\n    tag_258:\n      0x1f\n      dup2\n      gt\n      tag_259\n      jumpi\n        /* \"contracts/FactoryContract.sol\":1943:2140  if (!intervalExists) {... */\n    tag_260:\n        /* \"contracts/FactoryContract.sol\":96:6456  contract FactoryContract {... */\n      pop\n      0x20\n      0x1f\n      dup3\n      gt\n      0x01\n      eq\n      tag_261\n      jumpi\n      swap1\n      dup1\n      tag_218\n      swap5\n      swap4\n      swap3\n      0x00\n      swap2\n      tag_263\n      jumpi\n    tag_264:\n      pop\n      dup2\n        /* \"contracts/FactoryContract.sol\":1511:1526  symbolIntervals */\n      0x01\n        /* \"contracts/FactoryContract.sol\":96:6456  contract FactoryContract {... */\n      shl\n      swap2\n      not(0x00)\n      swap1\n      0x03\n      shl\n      shr\n      not\n      and\n      or\n      swap1\n      sstore\n    tag_265:\n        /* \"contracts/FactoryContract.sol\":2039:2075  NewIntervalAdded(_symbol, _interval) */\n      0x5671901caf56cb468a835871d9c8a8bc0a23bbd0de3c1f2dad4d600a16c002e0\n        /* \"contracts/FactoryContract.sol\":96:6456  contract FactoryContract {... */\n      mload(0x40)\n        /* \"contracts/FactoryContract.sol\":2039:2075  NewIntervalAdded(_symbol, _interval) */\n      dup1\n      tag_266\n      dup7\n      dup10\n      dup4\n      tag_25\n      jump\t// in\n    tag_266:\n      sub\n      swap1\n      log1\n        /* \"contracts/FactoryContract.sol\":2090:2128  _deployNewContract(_symbol, _interval) */\n      tag_267\n      dup4\n      dup7\n      tag_26\n      jump\t// in\n    tag_267:\n      pop\n        /* \"contracts/FactoryContract.sol\":1943:2140  if (!intervalExists) {... */\n      swap1\n      pop\n      jump(tag_217)\n        /* \"contracts/FactoryContract.sol\":96:6456  contract FactoryContract {... */\n    tag_263:\n      swap1\n      pop\n      dup6\n      add\n      mload\n      dup9\n      jump(tag_264)\n    tag_261:\n      not(0x1f)\n      dup3\n      and\n      swap1\n      dup4\n      0x00\n      mstore\n      dup1\n      0x00\n      keccak256\n      swap2\n      0x00\n    tag_268:\n      dup2\n      dup2\n      lt\n      tag_269\n      jumpi\n      pop\n      swap2\n      dup4\n      swap2\n      tag_218\n      swap7\n      swap6\n      swap5\n        /* \"contracts/FactoryContract.sol\":1511:1526  symbolIntervals */\n      0x01\n        /* \"contracts/FactoryContract.sol\":96:6456  contract FactoryContract {... */\n      swap5\n      lt\n      tag_271\n      jumpi\n    tag_272:\n      pop\n      pop\n      dup2\n      shl\n      add\n      swap1\n      sstore\n      jump(tag_265)\n    tag_271:\n      dup8\n      add\n      mload\n      not(0x00)\n      0xf8\n      dup5\n      0x03\n      shl\n      and\n      shr\n      not\n      and\n      swap1\n      sstore\n      dup9\n      dup1\n      jump(tag_272)\n    tag_269:\n      swap2\n      swap3\n      0x20\n        /* \"contracts/FactoryContract.sol\":1511:1526  symbolIntervals */\n      0x01\n        /* \"contracts/FactoryContract.sol\":96:6456  contract FactoryContract {... */\n      dup2\n      swap3\n      dup7\n      dup12\n      add\n      mload\n      dup2\n      sstore\n      add\n      swap5\n      add\n      swap3\n      add\n      jump(tag_268)\n    tag_259:\n      dup3\n      0x00\n      mstore\n      keccak256(0x00, 0x20)\n      0x1f\n      dup4\n      add\n      0x05\n      shr\n      dup2\n      add\n      swap2\n      0x20\n      dup5\n      lt\n      tag_273\n      jumpi\n    tag_274:\n      0x1f\n      add\n      0x05\n      shr\n      add\n      swap1\n    tag_275:\n      dup2\n      dup2\n      lt\n      tag_276\n      jumpi\n      pop\n      jump(tag_260)\n    tag_276:\n      0x00\n      dup2\n      sstore\n        /* \"contracts/FactoryContract.sol\":1511:1526  symbolIntervals */\n      0x01\n        /* \"contracts/FactoryContract.sol\":96:6456  contract FactoryContract {... */\n      add\n      jump(tag_275)\n    tag_273:\n      swap1\n      swap2\n      pop\n      dup2\n      swap1\n      jump(tag_274)\n    tag_256:\n      mstore(0x00, shl(0xe0, 0x4e487b71))\n      mstore(0x04, 0x41)\n      revert(0x00, 0x24)\n    tag_254:\n      mstore(0x00, shl(0xe0, 0x4e487b71))\n      mstore(0x04, 0x00)\n      revert(0x00, 0x24)\n    tag_210:\n      swap2\n      pop\n      pop\n      0x00\n      mstore\n      dup2\n      keccak256(0x00, 0x20)\n      swap2\n      0x00\n      swap3\n    tag_278:\n      dup2\n      dup5\n      lt\n      tag_279\n      jumpi\n      pop\n      pop\n      0x20\n      tag_212\n      swap3\n      dup3\n      add\n      add\n      dup13\n      jump(tag_211)\n    tag_279:\n      0x20\n      swap2\n      swap3\n      pop\n      dup1\n        /* \"contracts/FactoryContract.sol\":1511:1526  symbolIntervals */\n      0x01\n        /* \"contracts/FactoryContract.sol\":96:6456  contract FactoryContract {... */\n      swap2\n      sload\n      dup4\n      dup7\n      dup9\n      add\n      add\n      mstore\n      add\n      swap3\n      add\n      swap2\n      swap1\n      dup4\n      swap2\n      jump(tag_278)\n    tag_208:\n      not(0xff)\n      and\n      dup8\n      mstore\n      pop\n      tag_212\n      swap4\n      iszero\n      iszero\n      0x05\n      shl\n      dup4\n      add\n      0x20\n      add\n      swap2\n      pop\n      dup14\n      swap1\n      pop\n      jump(tag_211)\n        /* \"contracts/FactoryContract.sol\":1701:1736  i < symbolIntervals[_symbol].length */\n    tag_204:\n      pop\n      pop\n      swap1\n      swap2\n      swap3\n      jump(tag_215)\n        /* \"contracts/FactoryContract.sol\":1557:1631  if (!symbolExists) {... */\n    tag_201:\n        /* \"contracts/FactoryContract.sol\":1596:1619  NewSymbolAdded(_symbol) */\n      0xae3b5c36aac7a976408c9f08dbfdda7ce98db5c64f471ad540ffe305db0d9b0b\n        /* \"contracts/FactoryContract.sol\":96:6456  contract FactoryContract {... */\n      mload(0x40)\n      0x20\n      dup2\n      mstore\n      dup1\n      tag_281\n      0x20\n      dup3\n      add\n      dup10\n      tag_11\n      jump\t// in\n    tag_281:\n        /* \"contracts/FactoryContract.sol\":1596:1619  NewSymbolAdded(_symbol) */\n      sub\n      swap1\n      log1\n        /* \"contracts/FactoryContract.sol\":1557:1631  if (!symbolExists) {... */\n      jump(tag_202)\n        /* \"contracts/FactoryContract.sol\":96:6456  contract FactoryContract {... */\n    tag_199:\n      mload(0x40)\n      shl(0xe5, 0x461bcd)\n      dup2\n      mstore\n      0x20\n      0x04\n      dup3\n      add\n      mstore\n      0x1d\n      0x24\n      dup3\n      add\n      mstore\n      0x4b6c696e6520696e74657276616c20646f6573206e6f74206d61746368000000\n      0x44\n      dup3\n      add\n      mstore\n        /* \"contracts/FactoryContract.sol\":2480:2494  input.interval */\n      0x64\n      swap1\n        /* \"contracts/FactoryContract.sol\":96:6456  contract FactoryContract {... */\n      revert\n    tag_195:\n      mload(0x40)\n      shl(0xe5, 0x461bcd)\n      dup2\n      mstore\n      0x20\n      0x04\n      dup3\n      add\n      mstore\n      0x1b\n      0x24\n      dup3\n      add\n      mstore\n      0x4b6c696e652073796d626f6c20646f6573206e6f74206d617463680000000000\n      0x44\n      dup3\n      add\n      mstore\n      0x64\n      swap1\n      revert\n    tag_191:\n      mload(0x40)\n      shl(0xe5, 0x461bcd)\n      dup2\n      mstore\n      0x20\n      0x04\n      dup3\n      add\n      mstore\n      0x21\n      0x24\n      dup3\n      add\n      mstore\n      0x4f6e6c79206f776e65722063616e2063616c6c20746869732066756e6374696f\n      0x44\n      dup3\n      add\n      mstore\n      shl(0xf9, 0x37)\n      0x64\n      dup3\n      add\n      mstore\n      0x84\n      swap1\n      revert\n    tag_33:\n      jumpi(tag_45, callvalue)\n      jumpi(tag_45, slt(add(not(0x03), calldatasize), 0x00))\n        /* \"contracts/FactoryContract.sol\":413:433  address public owner */\n      0x02\n        /* \"contracts/FactoryContract.sol\":96:6456  contract FactoryContract {... */\n      sload\n      mload(0x40)\n      sub(shl(0xa0, 0x01), 0x01)\n      swap1\n      swap2\n      and\n      dup2\n      mstore\n      0x20\n      swap1\n      return\n    tag_31:\n      jumpi(tag_45, callvalue)\n      jumpi(tag_45, slt(add(not(0x03), calldatasize), 0x60))\n      calldataload(0x04)\n      sub(shl(0x40, 0x01), 0x01)\n      dup2\n      gt\n      tag_45\n      jumpi\n      tag_292\n      swap1\n      calldatasize\n      swap1\n      0x04\n      add\n      tag_6\n      jump\t// in\n    tag_292:\n      calldataload(0x24)\n      sub(shl(0x40, 0x01), 0x01)\n      dup2\n      gt\n      tag_45\n      jumpi\n      tag_295\n      tag_296\n      swap2\n      calldatasize\n      swap1\n      0x04\n      add\n      tag_6\n      jump\t// in\n    tag_295:\n      mload(0x40)\n      dup4\n      mload\n      calldataload(0x44)\n      swap5\n      0x20\n      swap2\n      dup4\n      swap2\n      dup2\n      swap1\n      dup5\n      add\n      dup4\n      mcopy\n      dup2\n      add\n      0x00\n      dup2\n      mstore\n      sub\n      add\n      swap1\n      keccak256\n      swap1\n      tag_7\n      jump\t// in\n    tag_296:\n      dup1\n      sload\n        /* \"contracts/FactoryContract.sol\":266:349  mapping(string => mapping(string => ContractInfo[])) public symbolIntervalContracts */\n      dup3\n      lt\n      iszero\n      tag_45\n      jumpi\n        /* \"contracts/FactoryContract.sol\":96:6456  contract FactoryContract {... */\n      0x60\n        /* \"contracts/FactoryContract.sol\":266:349  mapping(string => mapping(string => ContractInfo[])) public symbolIntervalContracts */\n      swap2\n      tag_299\n      swap2\n      tag_12\n      jump\t// in\n    tag_299:\n        /* \"contracts/FactoryContract.sol\":96:6456  contract FactoryContract {... */\n      pop\n      0x01\n      dup1\n      0xa0\n      shl\n      sub\n      dup2\n      sload\n      and\n        /* \"contracts/FactoryContract.sol\":266:349  mapping(string => mapping(string => ContractInfo[])) public symbolIntervalContracts */\n      swap1\n      0x02\n        /* \"contracts/FactoryContract.sol\":96:6456  contract FactoryContract {... */\n      0x01\n        /* \"contracts/FactoryContract.sol\":266:349  mapping(string => mapping(string => ContractInfo[])) public symbolIntervalContracts */\n      dup3\n      add\n        /* \"contracts/FactoryContract.sol\":96:6456  contract FactoryContract {... */\n      sload\n        /* \"contracts/FactoryContract.sol\":266:349  mapping(string => mapping(string => ContractInfo[])) public symbolIntervalContracts */\n      swap2\n      add\n        /* \"contracts/FactoryContract.sol\":96:6456  contract FactoryContract {... */\n      sload\n      swap1\n      mload(0x40)\n      swap3\n      dup4\n      mstore\n      0x20\n      dup4\n      add\n      mstore\n      0x40\n      dup3\n      add\n      mstore\n      return\n    tag_29:\n      jumpi(tag_45, callvalue)\n      jumpi(tag_45, slt(add(not(0x03), calldatasize), 0x40))\n      calldataload(0x04)\n      sub(shl(0x40, 0x01), 0x01)\n      dup2\n      gt\n      tag_45\n      jumpi\n      tag_306\n      swap1\n      calldatasize\n      swap1\n      0x04\n      add\n      tag_6\n      jump\t// in\n    tag_306:\n      mload(0x40)\n      dup2\n      mload\n      calldataload(0x24)\n      swap3\n      0x20\n      swap2\n      dup4\n      swap2\n      dup2\n      swap1\n      dup5\n      add\n      dup4\n      mcopy\n      dup2\n      add\n      0x01\n      dup2\n      mstore\n      sub\n      add\n      swap1\n      keccak256\n      swap1\n      dup2\n      sload\n        /* \"contracts/FactoryContract.sol\":356:406  mapping(string => string[]) public symbolIntervals */\n      dup2\n      lt\n      iszero\n      tag_45\n      jumpi\n      tag_309\n      swap2\n      tag_8\n      jump\t// in\n    tag_309:\n        /* \"contracts/FactoryContract.sol\":96:6456  contract FactoryContract {... */\n      tag_254\n      jumpi\n      tag_312\n      tag_313\n      swap2\n      tag_10\n      jump\t// in\n    tag_312:\n      mload(0x40)\n      swap2\n      dup3\n      swap2\n      0x20\n      dup4\n      mstore\n      0x20\n      dup4\n      add\n      swap1\n      tag_11\n      jump\t// in\n    tag_313:\n      sub\n      swap1\n      return\n    tag_1:\n      0x60\n      dup2\n      add\n      swap1\n      dup2\n      lt\n      sub(shl(0x40, 0x01), 0x01)\n      dup3\n      gt\n      or\n      tag_256\n      jumpi\n      0x40\n      mstore\n      jump\t// out\n    tag_2:\n      0x01e0\n      dup2\n      add\n      swap1\n      dup2\n      lt\n      sub(shl(0x40, 0x01), 0x01)\n      dup3\n      gt\n      or\n      tag_256\n      jumpi\n      0x40\n      mstore\n      jump\t// out\n    tag_3:\n      swap1\n      0x1f\n      dup1\n      not\n      swap2\n      add\n      and\n      dup2\n      add\n      swap1\n      dup2\n      lt\n      sub(shl(0x40, 0x01), 0x01)\n      dup3\n      gt\n      or\n      tag_256\n      jumpi\n      0x40\n      mstore\n      jump\t// out\n    tag_4:\n      sub(shl(0x40, 0x01), 0x01)\n      dup2\n      gt\n      tag_256\n      jumpi\n      0x1f\n      add\n      not(0x1f)\n      and\n      0x20\n      add\n      swap1\n      jump\t// out\n    tag_5:\n      swap3\n      swap2\n      swap3\n      tag_322\n      dup3\n      tag_4\n      jump\t// in\n    tag_322:\n      swap2\n      tag_323\n      mload(0x40)\n      swap4\n      dup5\n      tag_3\n      jump\t// in\n    tag_323:\n      dup3\n      swap5\n      dup2\n      dup5\n      mstore\n      dup2\n      dup4\n      add\n      gt\n      tag_45\n      jumpi\n      dup3\n      dup2\n      0x20\n      swap4\n      dup5\n      0x00\n      swap7\n      add\n      calldatacopy\n      add\n      add\n      mstore\n      jump\t// out\n    tag_6:\n      swap1\n      dup1\n      0x1f\n      dup4\n      add\n      slt\n      iszero\n      tag_45\n      jumpi\n      dup2\n      0x20\n      tag_328\n      swap4\n      calldataload\n      swap2\n      add\n      tag_5\n      jump\t// in\n    tag_328:\n      swap1\n      jump\t// out\n    tag_7:\n      mload(0x40)\n      dup2\n      mload\n      swap1\n      swap3\n      0x20\n      swap3\n      dup5\n      swap3\n      swap1\n      dup2\n      swap1\n      dup6\n      add\n      dup5\n      mcopy\n      dup3\n      add\n      swap1\n      dup2\n      mstore\n      sub\n      add\n      swap1\n      keccak256\n      swap1\n      jump\t// out\n    tag_8:\n      dup1\n      sload\n      dup3\n      lt\n      iszero\n      tag_329\n      jumpi\n      0x00\n      mstore\n      keccak256(0x00, 0x20)\n      add\n      swap1\n      0x00\n      swap1\n      jump\t// out\n    tag_329:\n      mstore(0x00, shl(0xe0, 0x4e487b71))\n      mstore(0x04, 0x32)\n      revert(0x00, 0x24)\n    tag_9:\n      swap1\n      0x01\n      dup3\n      dup2\n      shr\n      swap3\n      and\n      dup1\n      iszero\n      tag_331\n      jumpi\n    tag_332:\n      0x20\n      dup4\n      lt\n      eq\n      tag_333\n      jumpi\n      jump\t// out\n    tag_333:\n      mstore(0x00, shl(0xe0, 0x4e487b71))\n      mstore(0x04, 0x22)\n      revert(0x00, 0x24)\n    tag_331:\n      swap2\n      0x7f\n      and\n      swap2\n      jump(tag_332)\n    tag_10:\n      swap1\n      mload(0x40)\n      swap2\n      dup3\n      0x00\n      dup3\n      sload\n      swap3\n      tag_335\n      dup5\n      tag_9\n      jump\t// in\n    tag_335:\n      dup1\n      dup5\n      mstore\n      swap4\n      0x01\n      dup2\n      and\n      swap1\n      dup2\n      iszero\n      tag_336\n      jumpi\n      pop\n      0x01\n      eq\n      tag_338\n      jumpi\n    tag_339:\n      pop\n      tag_340\n      swap3\n      pop\n      sub\n      dup4\n      tag_3\n      jump\t// in\n    tag_340:\n      jump\t// out\n    tag_338:\n      swap1\n      pop\n      0x00\n      swap3\n      swap2\n      swap3\n      mstore\n      keccak256(0x00, 0x20)\n      swap1\n      0x00\n      swap2\n    tag_341:\n      dup2\n      dup4\n      lt\n      tag_342\n      jumpi\n      pop\n      pop\n      swap1\n      0x20\n      tag_340\n      swap3\n      dup3\n      add\n      add\n      0x00\n      jump(tag_339)\n    tag_342:\n      0x20\n      swap2\n      swap4\n      pop\n      dup1\n      0x01\n      swap2\n      sload\n      dup4\n      dup6\n      dup10\n      add\n      add\n      mstore\n      add\n      swap2\n      add\n      swap1\n      swap2\n      dup5\n      swap3\n      jump(tag_341)\n    tag_336:\n      swap1\n      pop\n      0x20\n      swap3\n      pop\n      tag_340\n      swap5\n      swap2\n      pop\n      not(0xff)\n      and\n      dup3\n      dup5\n      add\n      mstore\n      iszero\n      iszero\n      0x05\n      shl\n      dup3\n      add\n      add\n      0x00\n      jump(tag_339)\n    tag_11:\n      dup1\n      mload\n      dup1\n      dup4\n      mstore\n      0x20\n      swap3\n      swap2\n      dup2\n      swap1\n      dup5\n      add\n      dup5\n      dup5\n      add\n      mcopy\n      0x00\n      dup3\n      dup3\n      add\n      dup5\n      add\n      mstore\n      0x1f\n      add\n      not(0x1f)\n      and\n      add\n      add\n      swap1\n      jump\t// out\n    tag_12:\n      dup1\n      sload\n      dup3\n      lt\n      iszero\n      tag_329\n      jumpi\n      0x00\n      mstore\n      0x03\n      keccak256(0x00, 0x20)\n      swap2\n      mul\n      add\n      swap1\n      0x00\n      swap1\n      jump\t// out\n    tag_13:\n      swap1\n      calldataload\n      swap1\n      not(0x1e)\n      dup2\n      calldatasize\n      sub\n      add\n      dup3\n      slt\n      iszero\n      tag_45\n      jumpi\n      add\n      dup1\n      calldataload\n      swap1\n      sub(shl(0x40, 0x01), 0x01)\n      dup3\n      gt\n      tag_45\n      jumpi\n      0x20\n      add\n      swap2\n      dup2\n      calldatasize\n      sub\n      dup4\n      sgt\n      tag_45\n      jumpi\n      jump\t// out\n    tag_14:\n      mload\n      swap1\n      dup2\n      iszero\n      iszero\n      dup3\n      sub\n      tag_45\n      jumpi\n      jump\t// out\n    tag_15:\n      swap1\n      calldataload\n      not(0x1e)\n      dup3\n      calldatasize\n      sub\n      add\n      dup2\n      slt\n      iszero\n      tag_45\n      jumpi\n      add\n      0x20\n      dup2\n      calldataload\n      swap2\n      add\n      swap2\n      sub(shl(0x40, 0x01), 0x01)\n      dup3\n      gt\n      tag_45\n      jumpi\n      dup2\n      calldatasize\n      sub\n      dup4\n      sgt\n      tag_45\n      jumpi\n      jump\t// out\n    tag_16:\n      swap1\n      dup1\n      0x20\n      swap4\n      swap3\n      dup2\n      dup5\n      mstore\n      dup5\n      dup5\n      add\n      calldatacopy\n      0x00\n      dup3\n      dup3\n      add\n      dup5\n      add\n      mstore\n      0x1f\n      add\n      not(0x1f)\n      and\n      add\n      add\n      swap1\n      jump\t// out\n    tag_17:\n      0x20\n      dup2\n      mstore\n      dup2\n      calldataload\n      0x20\n      dup3\n      add\n      mstore\n      0x20\n      dup3\n      add\n      calldataload\n      0x40\n      dup3\n      add\n      mstore\n      tag_360\n      tag_361\n      tag_362\n      0x40\n      dup6\n      add\n      dup6\n      tag_15\n      jump\t// in\n    tag_362:\n      0x0200\n      0x60\n      dup7\n      add\n      mstore\n      0x0220\n      dup6\n      add\n      swap2\n      tag_16\n      jump\t// in\n    tag_361:\n      tag_363\n      0x60\n      dup6\n      add\n      dup6\n      tag_15\n      jump\t// in\n    tag_363:\n      dup5\n      dup4\n      sub\n      not(0x1f)\n      add\n      0x80\n      dup7\n      add\n      mstore\n      swap1\n      tag_16\n      jump\t// in\n    tag_360:\n      swap2\n      0x80\n      dup2\n      add\n      calldataload\n      0xa0\n      dup4\n      add\n      mstore\n      0xa0\n      dup2\n      add\n      calldataload\n      0xc0\n      dup4\n      add\n      mstore\n      0xc0\n      dup2\n      add\n      calldataload\n      0xe0\n      dup4\n      add\n      mstore\n      0xe0\n      dup2\n      add\n      calldataload\n      0x0100\n      dup4\n      add\n      mstore\n      0x0100\n      dup2\n      add\n      calldataload\n      0x0120\n      dup4\n      add\n      mstore\n      0x0120\n      dup2\n      add\n      calldataload\n      0x0140\n      dup4\n      add\n      mstore\n      0x0140\n      dup2\n      add\n      calldataload\n      0x0160\n      dup4\n      add\n      mstore\n      0x0160\n      dup2\n      add\n      calldataload\n      0x0180\n      dup4\n      add\n      mstore\n      0x0180\n      dup2\n      add\n      calldataload\n      dup1\n      iszero\n      iszero\n      dup1\n      swap2\n      sub\n      tag_45\n      jumpi\n      0x0200\n      swap2\n      0x01e0\n      swap2\n      0x01a0\n      dup6\n      add\n      mstore\n      0x01a0\n      dup2\n      add\n      calldataload\n      0x01c0\n      dup6\n      add\n      mstore\n      0x01c0\n      dup2\n      add\n      calldataload\n      dup3\n      dup6\n      add\n      mstore\n      add\n      calldataload\n      swap2\n      add\n      mstore\n      swap1\n      jump\t// out\n    tag_18:\n      dup1\n      sload\n      shl(0x40, 0x01)\n      dup2\n      lt\n      iszero\n      tag_256\n      jumpi\n      tag_368\n      swap2\n      0x01\n      dup3\n      add\n      dup2\n      sstore\n      tag_12\n      jump\t// in\n    tag_368:\n      swap2\n      swap1\n      swap2\n      tag_254\n      jumpi\n      dup1\n      mload\n      dup3\n      sload\n      not(sub(shl(0xa0, 0x01), 0x01))\n      and\n      sub(shl(0xa0, 0x01), 0x01)\n      swap2\n      swap1\n      swap2\n      and\n      or\n      dup3\n      sstore\n      0x20\n      dup2\n      add\n      mload\n      0x01\n      dup4\n      add\n      sstore\n      0x40\n      add\n      mload\n      0x02\n      swap2\n      swap1\n      swap2\n      add\n      sstore\n      jump\t// out\n    tag_19:\n      sub(shl(0x40, 0x01), 0x01)\n      dup2\n      gt\n      tag_256\n      jumpi\n      0x05\n      shl\n      0x20\n      add\n      swap1\n      jump\t// out\n    tag_20:\n      dup1\n      mload\n      dup3\n      lt\n      iszero\n      tag_329\n      jumpi\n      0x20\n      swap2\n      0x05\n      shl\n      add\n      add\n      swap1\n      jump\t// out\n    tag_21:\n      0x20\n      dup2\n      dup4\n      sub\n      slt\n      tag_45\n      jumpi\n      dup1\n      mload\n      swap1\n      sub(shl(0x40, 0x01), 0x01)\n      dup3\n      gt\n      tag_45\n      jumpi\n      add\n      swap1\n      dup1\n      0x1f\n      dup4\n      add\n      slt\n      iszero\n      tag_45\n      jumpi\n      dup2\n      mload\n      swap2\n      tag_381\n      dup4\n      tag_19\n      jump\t// in\n    tag_381:\n      swap3\n      tag_382\n      mload(0x40)\n      swap5\n      dup6\n      tag_3\n      jump\t// in\n    tag_382:\n      dup1\n      dup5\n      mstore\n      0x20\n      dup1\n      dup6\n      add\n      swap2\n      0x05\n      shl\n      dup4\n      add\n      add\n      swap2\n      dup4\n      dup4\n      gt\n      tag_45\n      jumpi\n      0x20\n      dup2\n      add\n      swap2\n    tag_385:\n      dup4\n      dup4\n      lt\n      tag_386\n      jumpi\n      pop\n      pop\n      pop\n      pop\n      pop\n      swap1\n      jump\t// out\n    tag_386:\n      dup3\n      mload\n      sub(shl(0x40, 0x01), 0x01)\n      dup2\n      gt\n      tag_45\n      jumpi\n      dup3\n      add\n      swap1\n      0x01e0\n      dup3\n      dup8\n      sub\n      not(0x1f)\n      add\n      slt\n      tag_45\n      jumpi\n      mload(0x40)\n      swap1\n      tag_392\n      dup3\n      tag_2\n      jump\t// in\n    tag_392:\n      0x20\n      dup4\n      add\n      mload\n      dup3\n      mstore\n      0x40\n      dup4\n      add\n      mload\n      0x20\n      dup4\n      add\n      mstore\n      0x60\n      dup4\n      add\n      mload\n      sub(shl(0x40, 0x01), 0x01)\n      dup2\n      gt\n      tag_45\n      jumpi\n      0x20\n      swap1\n      dup5\n      add\n      add\n      swap2\n      dup8\n      0x1f\n      dup5\n      add\n      slt\n      iszero\n      tag_45\n      jumpi\n      dup3\n      mload\n      swap3\n      tag_397\n      dup5\n      tag_4\n      jump\t// in\n    tag_397:\n      swap5\n      tag_398\n      mload(0x40)\n      swap7\n      dup8\n      tag_3\n      jump\t// in\n    tag_398:\n      dup5\n      dup7\n      mstore\n      dup10\n      0x20\n      dup7\n      dup5\n      add\n      add\n      gt\n      tag_45\n      jumpi\n      0x20\n      swap6\n      0x00\n      dup8\n      dup8\n      dup2\n      swap9\n      dup3\n      0x01e0\n      swap8\n      add\n      dup4\n      dup7\n      add\n      mcopy\n      dup4\n      add\n      add\n      mstore\n      0x40\n      dup5\n      add\n      mstore\n      0x80\n      dup2\n      add\n      mload\n      0x60\n      dup5\n      add\n      mstore\n      0xa0\n      dup2\n      add\n      mload\n      0x80\n      dup5\n      add\n      mstore\n      0xc0\n      dup2\n      add\n      mload\n      0xa0\n      dup5\n      add\n      mstore\n      0xe0\n      dup2\n      add\n      mload\n      0xc0\n      dup5\n      add\n      mstore\n      0x0100\n      dup2\n      add\n      mload\n      0xe0\n      dup5\n      add\n      mstore\n      0x0120\n      dup2\n      add\n      mload\n      0x0100\n      dup5\n      add\n      mstore\n      0x0140\n      dup2\n      add\n      mload\n      0x0120\n      dup5\n      add\n      mstore\n      0x0160\n      dup2\n      add\n      mload\n      0x0140\n      dup5\n      add\n      mstore\n      tag_401\n      0x0180\n      dup3\n      add\n      tag_14\n      jump\t// in\n    tag_401:\n      0x0160\n      dup5\n      add\n      mstore\n      0x01a0\n      dup2\n      add\n      mload\n      0x0180\n      dup5\n      add\n      mstore\n      0x01c0\n      dup2\n      add\n      mload\n      0x01a0\n      dup5\n      add\n      mstore\n      add\n      mload\n      0x01c0\n      dup3\n      add\n      mstore\n      dup2\n      mstore\n      add\n      swap3\n      add\n      swap2\n      jump(tag_385)\n    tag_22:\n      not(0x00)\n      dup2\n      eq\n      tag_92\n      jumpi\n      0x01\n      add\n      swap1\n      jump\t// out\n    tag_23:\n      swap1\n      tag_404\n      dup3\n      tag_19\n      jump\t// in\n    tag_404:\n      tag_405\n      mload(0x40)\n      swap2\n      dup3\n      tag_3\n      jump\t// in\n    tag_405:\n      dup3\n      dup2\n      mstore\n      dup1\n      swap3\n      tag_406\n      not(0x1f)\n      swap2\n      tag_19\n      jump\t// in\n    tag_406:\n      add\n      swap1\n      0x00\n    tag_407:\n      dup3\n      dup2\n      lt\n      tag_408\n      jumpi\n      pop\n      pop\n      pop\n      jump\t// out\n    tag_408:\n      0x20\n      swap1\n      mload(0x40)\n      tag_410\n      dup2\n      tag_2\n      jump\t// in\n    tag_410:\n      0x00\n      dup2\n      mstore\n      0x00\n      dup4\n      dup3\n      add\n      mstore\n      0x60\n      0x40\n      dup3\n      add\n      mstore\n      0x00\n      0x60\n      dup3\n      add\n      mstore\n      0x00\n      0x80\n      dup3\n      add\n      mstore\n      0x00\n      0xa0\n      dup3\n      add\n      mstore\n      0x00\n      0xc0\n      dup3\n      add\n      mstore\n      0x00\n      0xe0\n      dup3\n      add\n      mstore\n      0x00\n      0x0100\n      dup3\n      add\n      mstore\n      0x00\n      0x0120\n      dup3\n      add\n      mstore\n      0x00\n      0x0140\n      dup3\n      add\n      mstore\n      0x00\n      0x0160\n      dup3\n      add\n      mstore\n      0x00\n      0x0180\n      dup3\n      add\n      mstore\n      0x00\n      0x01a0\n      dup3\n      add\n      mstore\n      0x00\n      0x01c0\n      dup3\n      add\n      mstore\n      dup3\n      dup3\n      dup6\n      add\n      add\n      mstore\n      add\n      jump(tag_407)\n    tag_24:\n      dup1\n      iszero\n      tag_92\n      jumpi\n      not(0x00)\n      add\n      swap1\n      jump\t// out\n    tag_25:\n      swap1\n      swap2\n      tag_413\n      tag_328\n      swap4\n      0x40\n      dup5\n      mstore\n      0x40\n      dup5\n      add\n      swap1\n      tag_11\n      jump\t// in\n    tag_413:\n      swap2\n      0x20\n      dup2\n      dup5\n      sub\n      swap2\n      add\n      mstore\n      tag_11\n      jump\t// in\n        /* \"contracts/FactoryContract.sol\":820:1382  function _deployNewContract(string memory _symbol, string memory _interval) private returns (address) {... */\n    tag_26:\n        /* \"contracts/FactoryContract.sol\":96:6456  contract FactoryContract {... */\n      mload(0x40)\n        /* \"contracts/FactoryContract.sol\":964:1004  new IntervalContract(_symbol, _interval) */\n      dataSize(sub_0)\n      dup1\n      dup3\n      add\n      swap1\n      dup3\n      dup3\n      lt\n      sub(shl(0x40, 0x01), 0x01)\n      dup4\n      gt\n      or\n      tag_256\n      jumpi\n      dup5\n      dup5\n      dup5\n      swap4\n      tag_417\n      swap4\n      dataOffset(sub_0)\n      dup7\n      codecopy\n      tag_25\n      jump\t// in\n    tag_417:\n      sub\n      swap1\n      0x00\n      create\n      swap2\n      dup3\n      iszero\n      tag_94\n      jumpi\n        /* \"contracts/FactoryContract.sol\":1275:1336  NewIntervalContract(_symbol, _interval, address(newContract)) */\n      0xf0a27a0c7aa8aa9b3d56ef0311f5f23644bc8e7b6618707c3bc42b30afa97cb7\n        /* \"contracts/FactoryContract.sol\":96:6456  contract FactoryContract {... */\n      swap2\n      tag_420\n      tag_421\n      swap3\n        /* \"contracts/FactoryContract.sol\":1016:1259  symbolIntervalContracts[_symbol][_interval].push(... */\n      tag_422\n        /* \"contracts/FactoryContract.sol\":96:6456  contract FactoryContract {... */\n      tag_423\n      mload(0x40)\n      0x20\n      dup2\n      dup8\n      mload\n      dup1\n      dup4\n      dup11\n      add\n      dup4\n      mcopy\n      dup2\n      add\n        /* \"contracts/FactoryContract.sol\":964:1004  new IntervalContract(_symbol, _interval) */\n      0x00\n        /* \"contracts/FactoryContract.sol\":96:6456  contract FactoryContract {... */\n      dup2\n      mstore\n      sub\n      add\n      swap1\n      keccak256\n      dup4\n      tag_7\n      jump\t// in\n    tag_423:\n      mload(0x40)\n      sub(shl(0xa0, 0x01), 0x01)\n      swap1\n      swap9\n      and\n      swap8\n      swap1\n      tag_424\n      dup3\n      tag_1\n      jump\t// in\n    tag_424:\n      dup9\n      dup3\n      mstore\n        /* \"contracts/FactoryContract.sol\":1183:1198  block.timestamp */\n      timestamp\n        /* \"contracts/FactoryContract.sol\":96:6456  contract FactoryContract {... */\n      0x20\n        /* \"contracts/FactoryContract.sol\":1079:1248  ContractInfo({... */\n      dup4\n      add\n        /* \"contracts/FactoryContract.sol\":96:6456  contract FactoryContract {... */\n      mstore\n        /* \"contracts/FactoryContract.sol\":964:1004  new IntervalContract(_symbol, _interval) */\n      0x00\n        /* \"contracts/FactoryContract.sol\":96:6456  contract FactoryContract {... */\n      0x40\n        /* \"contracts/FactoryContract.sol\":1079:1248  ContractInfo({... */\n      dup4\n      add\n        /* \"contracts/FactoryContract.sol\":96:6456  contract FactoryContract {... */\n      mstore\n        /* \"contracts/FactoryContract.sol\":1016:1259  symbolIntervalContracts[_symbol][_interval].push(... */\n      tag_18\n      jump\t// in\n    tag_422:\n        /* \"contracts/FactoryContract.sol\":96:6456  contract FactoryContract {... */\n      mload(0x40)\n      swap4\n      dup5\n      swap4\n      0x60\n      dup6\n      mstore\n      0x60\n      dup6\n      add\n      swap1\n      tag_11\n      jump\t// in\n    tag_421:\n      swap1\n      dup4\n      dup3\n      sub\n      0x20\n      dup6\n      add\n      mstore\n      tag_11\n      jump\t// in\n    tag_420:\n      dup5\n      0x40\n      dup4\n      add\n      mstore\n        /* \"contracts/FactoryContract.sol\":1275:1336  NewIntervalContract(_symbol, _interval, address(newContract)) */\n      sub\n      swap1\n      log1\n        /* \"contracts/FactoryContract.sol\":820:1382  function _deployNewContract(string memory _symbol, string memory _interval) private returns (address) {... */\n      swap1\n      jump\t// out\n    stop\n\n    sub_0: assembly {\n            /* \"contracts/IntervalContract.sol\":60:4185  contract IntervalContract {... */\n          mstore(0x40, 0x80)\n          jumpi(tag_11, callvalue)\n          bytecodeSize\n          dup1\n          codesize\n          sub\n          dup1\n          tag_5\n          dup2\n          tag_1\n          jump\t// in\n        tag_5:\n          swap3\n          dup4\n          codecopy\n          dup2\n          add\n          swap1\n          0x40\n          dup2\n          dup4\n          sub\n          slt\n          tag_11\n          jumpi\n          dup1\n          mload\n          sub(shl(0x40, 0x01), 0x01)\n          dup2\n          gt\n          tag_11\n          jumpi\n          dup3\n          tag_10\n          swap2\n          dup4\n          add\n          tag_2\n          jump\t// in\n        tag_10:\n          0x20\n          dup3\n          add\n          mload\n          swap1\n          swap3\n          swap1\n          sub(shl(0x40, 0x01), 0x01)\n          dup2\n          gt\n          tag_11\n          jumpi\n          tag_13\n          swap3\n          add\n          tag_2\n          jump\t// in\n        tag_13:\n          0x01\n          dup1\n          sload\n          not(sub(shl(0xa0, 0x01), 0x01))\n          and\n            /* \"contracts/IntervalContract.sol\":1344:1354  msg.sender */\n          caller\n            /* \"contracts/IntervalContract.sol\":60:4185  contract IntervalContract {... */\n          or\n          swap1\n          sstore\n          dup2\n          mload\n          sub(shl(0x40, 0x01), 0x01)\n          dup2\n          gt\n          tag_27\n          jumpi\n            /* \"contracts/IntervalContract.sol\":1365:1381  symbol = _symbol */\n          0x02\n            /* \"contracts/IntervalContract.sol\":60:4185  contract IntervalContract {... */\n          sload\n            /* \"contracts/IntervalContract.sol\":1334:1354  factory = msg.sender */\n          0x01\n            /* \"contracts/IntervalContract.sol\":60:4185  contract IntervalContract {... */\n          dup2\n          dup2\n          shr\n          swap2\n          and\n          dup1\n          iszero\n          tag_16\n          jumpi\n        tag_17:\n          0x20\n          dup3\n          lt\n          eq\n          tag_31\n          jumpi\n          0x1f\n          dup2\n          gt\n          tag_20\n          jumpi\n        tag_21:\n          pop\n          0x20\n          swap3\n          0x1f\n          dup3\n          gt\n          0x01\n          eq\n          tag_22\n          jumpi\n          swap3\n          dup2\n          swap3\n          swap4\n          0x00\n          swap3\n          tag_24\n          jumpi\n        tag_25:\n          pop\n          pop\n          dup2\n            /* \"contracts/IntervalContract.sol\":1334:1354  factory = msg.sender */\n          0x01\n            /* \"contracts/IntervalContract.sol\":60:4185  contract IntervalContract {... */\n          shl\n          swap2\n          not(0x00)\n          swap1\n          0x03\n          shl\n          shr\n          not\n          and\n          or\n            /* \"contracts/IntervalContract.sol\":1365:1381  symbol = _symbol */\n          0x02\n            /* \"contracts/IntervalContract.sol\":60:4185  contract IntervalContract {... */\n          sstore\n        tag_26:\n          dup1\n          mload\n          sub(shl(0x40, 0x01), 0x01)\n          dup2\n          gt\n          tag_27\n          jumpi\n            /* \"contracts/IntervalContract.sol\":1392:1412  interval = _interval */\n          0x03\n            /* \"contracts/IntervalContract.sol\":60:4185  contract IntervalContract {... */\n          sload\n            /* \"contracts/IntervalContract.sol\":1334:1354  factory = msg.sender */\n          0x01\n            /* \"contracts/IntervalContract.sol\":60:4185  contract IntervalContract {... */\n          dup2\n          dup2\n          shr\n          swap2\n          and\n          dup1\n          iszero\n          tag_29\n          jumpi\n        tag_30:\n          0x20\n          dup3\n          lt\n          eq\n          tag_31\n          jumpi\n          0x1f\n          dup2\n          gt\n          tag_33\n          jumpi\n        tag_34:\n          pop\n          0x20\n          swap2\n          0x1f\n          dup3\n          gt\n          0x01\n          eq\n          tag_35\n          jumpi\n          swap2\n          dup2\n          swap3\n          0x00\n          swap3\n          tag_37\n          jumpi\n        tag_38:\n          pop\n          pop\n          dup2\n            /* \"contracts/IntervalContract.sol\":1334:1354  factory = msg.sender */\n          0x01\n            /* \"contracts/IntervalContract.sol\":60:4185  contract IntervalContract {... */\n          shl\n          swap2\n          not(0x00)\n          swap1\n            /* \"contracts/IntervalContract.sol\":1392:1412  interval = _interval */\n          0x03\n            /* \"contracts/IntervalContract.sol\":60:4185  contract IntervalContract {... */\n          shl\n          shr\n          not\n          and\n          or\n            /* \"contracts/IntervalContract.sol\":1392:1412  interval = _interval */\n          0x03\n            /* \"contracts/IntervalContract.sol\":60:4185  contract IntervalContract {... */\n          sstore\n        tag_39:\n          mload(0x40)\n          dataSize(sub_0)\n          swap1\n          dup2\n          dataOffset(sub_0)\n          dup3\n          codecopy\n          return\n        tag_37:\n          add\n          mload\n          swap1\n          pop\n          0x00\n          dup1\n          jump(tag_38)\n        tag_35:\n          not(0x1f)\n          dup3\n          and\n          swap3\n            /* \"contracts/IntervalContract.sol\":1392:1412  interval = _interval */\n          0x03\n          0x00\n            /* \"contracts/IntervalContract.sol\":60:4185  contract IntervalContract {... */\n          mstore\n          dup1\n          0x00\n          keccak256\n          swap2\n          0x00\n        tag_40:\n          dup6\n          dup2\n          lt\n          tag_41\n          jumpi\n          pop\n          dup4\n            /* \"contracts/IntervalContract.sol\":1334:1354  factory = msg.sender */\n          0x01\n            /* \"contracts/IntervalContract.sol\":60:4185  contract IntervalContract {... */\n          swap6\n          lt\n          tag_43\n          jumpi\n        tag_44:\n          pop\n          pop\n          pop\n          dup2\n          shl\n          add\n            /* \"contracts/IntervalContract.sol\":1392:1412  interval = _interval */\n          0x03\n            /* \"contracts/IntervalContract.sol\":60:4185  contract IntervalContract {... */\n          sstore\n          jump(tag_39)\n        tag_43:\n          add\n          mload\n          not(0x00)\n          0xf8\n          dup5\n            /* \"contracts/IntervalContract.sol\":1392:1412  interval = _interval */\n          0x03\n            /* \"contracts/IntervalContract.sol\":60:4185  contract IntervalContract {... */\n          shl\n          and\n          shr\n          not\n          and\n          swap1\n          sstore\n          0x00\n          dup1\n          dup1\n          jump(tag_44)\n        tag_41:\n          swap2\n          swap3\n          0x20\n            /* \"contracts/IntervalContract.sol\":1334:1354  factory = msg.sender */\n          0x01\n            /* \"contracts/IntervalContract.sol\":60:4185  contract IntervalContract {... */\n          dup2\n          swap3\n          dup7\n          dup6\n          add\n          mload\n          dup2\n          sstore\n          add\n          swap5\n          add\n          swap3\n          add\n          jump(tag_40)\n        tag_33:\n            /* \"contracts/IntervalContract.sol\":1392:1412  interval = _interval */\n          0x03\n          0x00\n            /* \"contracts/IntervalContract.sol\":60:4185  contract IntervalContract {... */\n          mstore\n          0xc2575a0e9e593c00f959f8c92f12db2869c3395a3b0502d05e2516446f71f85b\n          0x1f\n          dup4\n          add\n          0x05\n          shr\n          dup2\n          add\n          swap2\n          0x20\n          dup5\n          lt\n          tag_45\n          jumpi\n        tag_46:\n          0x1f\n          add\n          0x05\n          shr\n          add\n          swap1\n        tag_47:\n          dup2\n          dup2\n          lt\n          tag_48\n          jumpi\n          pop\n          jump(tag_34)\n        tag_48:\n          0x00\n          dup2\n          sstore\n            /* \"contracts/IntervalContract.sol\":1334:1354  factory = msg.sender */\n          0x01\n            /* \"contracts/IntervalContract.sol\":60:4185  contract IntervalContract {... */\n          add\n          jump(tag_47)\n        tag_45:\n          swap1\n          swap2\n          pop\n          dup2\n          swap1\n          jump(tag_46)\n        tag_31:\n          mstore(0x00, shl(0xe0, 0x4e487b71))\n          mstore(0x04, 0x22)\n          revert(0x00, 0x24)\n        tag_29:\n          swap1\n          0x7f\n          and\n          swap1\n          jump(tag_30)\n        tag_27:\n          mstore(0x00, shl(0xe0, 0x4e487b71))\n          mstore(0x04, 0x41)\n          revert(0x00, 0x24)\n        tag_24:\n          add\n          mload\n          swap1\n          pop\n          0x00\n          dup1\n          jump(tag_25)\n        tag_22:\n          not(0x1f)\n          dup3\n          and\n          swap4\n            /* \"contracts/IntervalContract.sol\":1365:1381  symbol = _symbol */\n          0x02\n          0x00\n            /* \"contracts/IntervalContract.sol\":60:4185  contract IntervalContract {... */\n          mstore\n          dup1\n          0x00\n          keccak256\n          swap2\n          0x00\n        tag_50:\n          dup7\n          dup2\n          lt\n          tag_51\n          jumpi\n          pop\n          dup4\n            /* \"contracts/IntervalContract.sol\":1334:1354  factory = msg.sender */\n          0x01\n            /* \"contracts/IntervalContract.sol\":60:4185  contract IntervalContract {... */\n          swap6\n          swap7\n          lt\n          tag_53\n          jumpi\n        tag_54:\n          pop\n          pop\n          pop\n          dup2\n          shl\n          add\n            /* \"contracts/IntervalContract.sol\":1365:1381  symbol = _symbol */\n          0x02\n            /* \"contracts/IntervalContract.sol\":60:4185  contract IntervalContract {... */\n          sstore\n          jump(tag_26)\n        tag_53:\n          add\n          mload\n          not(0x00)\n          0xf8\n          dup5\n          0x03\n          shl\n          and\n          shr\n          not\n          and\n          swap1\n          sstore\n          0x00\n          dup1\n          dup1\n          jump(tag_54)\n        tag_51:\n          swap2\n          swap3\n          0x20\n            /* \"contracts/IntervalContract.sol\":1334:1354  factory = msg.sender */\n          0x01\n            /* \"contracts/IntervalContract.sol\":60:4185  contract IntervalContract {... */\n          dup2\n          swap3\n          dup7\n          dup6\n          add\n          mload\n          dup2\n          sstore\n          add\n          swap5\n          add\n          swap3\n          add\n          jump(tag_50)\n        tag_20:\n            /* \"contracts/IntervalContract.sol\":1365:1381  symbol = _symbol */\n          0x02\n          0x00\n            /* \"contracts/IntervalContract.sol\":60:4185  contract IntervalContract {... */\n          mstore\n          0x405787fa12a823e0f2b7631cc41b3ba8828b3321ca811111fa75cd3aa3bb5ace\n          0x1f\n          dup4\n          add\n          0x05\n          shr\n          dup2\n          add\n          swap2\n          0x20\n          dup5\n          lt\n          tag_55\n          jumpi\n        tag_56:\n          0x1f\n          add\n          0x05\n          shr\n          add\n          swap1\n        tag_57:\n          dup2\n          dup2\n          lt\n          tag_58\n          jumpi\n          pop\n          jump(tag_21)\n        tag_58:\n          0x00\n          dup2\n          sstore\n            /* \"contracts/IntervalContract.sol\":1334:1354  factory = msg.sender */\n          0x01\n            /* \"contracts/IntervalContract.sol\":60:4185  contract IntervalContract {... */\n          add\n          jump(tag_57)\n        tag_55:\n          swap1\n          swap2\n          pop\n          dup2\n          swap1\n          jump(tag_56)\n        tag_16:\n          swap1\n          0x7f\n          and\n          swap1\n          jump(tag_17)\n        tag_11:\n          0x00\n          dup1\n          revert\n        tag_1:\n          mload(0x40)\n          swap2\n          swap1\n          0x1f\n          add\n          not(0x1f)\n          and\n          dup3\n          add\n          sub(shl(0x40, 0x01), 0x01)\n          dup2\n          gt\n          dup4\n          dup3\n          lt\n          or\n          tag_27\n          jumpi\n          0x40\n          mstore\n          jump\t// out\n        tag_2:\n          dup2\n          0x1f\n          dup3\n          add\n          slt\n          iszero\n          tag_11\n          jumpi\n          dup1\n          mload\n          swap1\n          sub(shl(0x40, 0x01), 0x01)\n          dup3\n          gt\n          tag_27\n          jumpi\n          tag_66\n          0x1f\n          dup4\n          add\n          not(0x1f)\n          and\n          0x20\n          add\n          tag_1\n          jump\t// in\n        tag_66:\n          swap3\n          dup3\n          dup5\n          mstore\n          0x20\n          dup4\n          dup4\n          add\n          add\n          gt\n          tag_11\n          jumpi\n          dup2\n          0x00\n          swap3\n          0x20\n          dup1\n          swap4\n          add\n          dup4\n          dup7\n          add\n          mcopy\n          dup4\n          add\n          add\n          mstore\n          swap1\n          jump\t// out\n        stop\n\n        sub_0: assembly {\n                /* \"contracts/IntervalContract.sol\":60:4185  contract IntervalContract {... */\n              mstore(0x40, 0x80)\n              jumpi(tag_14, iszero(lt(calldatasize, 0x04)))\n              0x00\n              dup1\n              revert\n            tag_14:\n              shr(0xe0, calldataload(0x00))\n              dup1\n              0x15070401\n              eq\n              tag_28\n              jumpi\n              dup1\n              0x36b275e9\n              eq\n              tag_18\n              jumpi\n              dup1\n              0x48bae592\n              eq\n              tag_20\n              jumpi\n              dup1\n              0x6cfcdca7\n              eq\n              tag_22\n              jumpi\n              dup1\n              0x91ad27b4\n              eq\n              tag_26\n              jumpi\n              dup1\n              0x947a36fb\n              eq\n              tag_26\n              jumpi\n              dup1\n              0x95d89b41\n              eq\n              tag_28\n              jumpi\n              dup1\n              0xc3e3bfe5\n              eq\n              tag_30\n              jumpi\n              dup1\n              0xc45a0155\n              eq\n              tag_32\n              jumpi\n              0xfbad15dc\n              eq\n              tag_34\n              jumpi\n              0x00\n              dup1\n              revert\n            tag_34:\n              jumpi(tag_38, callvalue)\n              jumpi(tag_38, slt(add(not(0x03), calldatasize), 0x40))\n              calldataload(0x04)\n              calldataload(0x24)\n              swap1\n              sload(0x00)\n                /* \"contracts/IntervalContract.sol\":3391:3417  startIndex < klines.length */\n              dup1\n              dup3\n              lt\n                /* \"contracts/IntervalContract.sol\":60:4185  contract IntervalContract {... */\n              iszero\n              tag_40\n              jumpi\n                /* \"contracts/IntervalContract.sol\":3460:3482  endIndex >= startIndex */\n              dup2\n              dup4\n              lt\n              iszero\n                /* \"contracts/IntervalContract.sol\":3460:3510  endIndex >= startIndex && endIndex < klines.length */\n              swap1\n              dup2\n              tag_42\n              jumpi\n                /* \"contracts/IntervalContract.sol\":60:4185  contract IntervalContract {... */\n            tag_43:\n              pop\n              iszero\n              tag_44\n              jumpi\n              dup1\n              dup3\n              sub\n              swap2\n              dup3\n              gt\n              tag_63\n              jumpi\n              0x01\n              dup3\n              add\n              dup1\n              swap3\n              gt\n              tag_63\n              jumpi\n              tag_50\n              dup3\n              tag_12\n              jump\t// in\n            tag_50:\n              swap2\n              tag_51\n              mload(0x40)\n              swap4\n              dup5\n              tag_5\n              jump\t// in\n            tag_51:\n              dup1\n              dup4\n              mstore\n              not(0x1f)\n              tag_52\n              dup3\n              tag_12\n              jump\t// in\n            tag_52:\n              add\n              0x00\n            tag_53:\n              dup2\n              dup2\n              lt\n              tag_54\n              jumpi\n                /* \"contracts/IntervalContract.sol\":3657:3670  uint256 i = 0 */\n              pop\n              pop\n                /* \"contracts/IntervalContract.sol\":60:4185  contract IntervalContract {... */\n              0x00\n                /* \"contracts/IntervalContract.sol\":3672:3682  i < length */\n            tag_56:\n              dup2\n              dup2\n              lt\n              tag_57\n              jumpi\n                /* \"contracts/IntervalContract.sol\":60:4185  contract IntervalContract {... */\n              dup4\n              mload(0x40)\n              dup1\n              swap2\n              0x20\n              dup3\n              add\n              0x20\n              dup4\n              mstore\n              dup2\n              mload\n              dup1\n              swap2\n              mstore\n              0x40\n              dup4\n              add\n              swap1\n              0x20\n              0x40\n              dup3\n              0x05\n              shl\n              dup7\n              add\n              add\n              swap4\n              add\n              swap2\n              0x00\n              swap1\n            tag_59:\n              dup3\n              dup3\n              lt\n              tag_60\n              jumpi\n              pop\n              pop\n              pop\n              pop\n              sub\n              swap1\n              return\n            tag_60:\n              swap2\n              swap4\n              0x01\n              swap2\n              swap4\n              swap6\n              pop\n              0x20\n              dup1\n              swap2\n              not(0x3f)\n              dup10\n              dup3\n              sub\n              add\n              dup6\n              mstore\n              dup8\n              mload\n              swap1\n              dup2\n              mload\n              dup2\n              mstore\n              dup3\n              dup3\n              add\n              mload\n              dup4\n              dup3\n              add\n              mstore\n              0x01c0\n              dup1\n              tag_62\n              0x40\n              dup6\n              add\n              mload\n              0x01e0\n              0x40\n              dup7\n              add\n              mstore\n              0x01e0\n              dup6\n              add\n              swap1\n              tag_1\n              jump\t// in\n            tag_62:\n              swap4\n              0x60\n              dup2\n              add\n              mload\n              0x60\n              dup6\n              add\n              mstore\n              0x80\n              dup2\n              add\n              mload\n              0x80\n              dup6\n              add\n              mstore\n              0xa0\n              dup2\n              add\n              mload\n              0xa0\n              dup6\n              add\n              mstore\n              0xc0\n              dup2\n              add\n              mload\n              0xc0\n              dup6\n              add\n              mstore\n              0xe0\n              dup2\n              add\n              mload\n              0xe0\n              dup6\n              add\n              mstore\n              0x0100\n              dup2\n              add\n              mload\n              0x0100\n              dup6\n              add\n              mstore\n              0x0120\n              dup2\n              add\n              mload\n              0x0120\n              dup6\n              add\n              mstore\n              0x0140\n              dup2\n              add\n              mload\n              0x0140\n              dup6\n              add\n              mstore\n              0x0160\n              dup2\n              add\n              mload\n              iszero\n              iszero\n              0x0160\n              dup6\n              add\n              mstore\n              0x0180\n              dup2\n              add\n              mload\n              0x0180\n              dup6\n              add\n              mstore\n              0x01a0\n              dup2\n              add\n              mload\n              0x01a0\n              dup6\n              add\n              mstore\n              add\n              mload\n              swap2\n              add\n              mstore\n              swap7\n              add\n              swap3\n              add\n              swap3\n              add\n              dup6\n              swap5\n              swap4\n              swap2\n              swap3\n              jump(tag_59)\n                /* \"contracts/IntervalContract.sol\":3684:3687  i++ */\n            tag_57:\n                /* \"contracts/IntervalContract.sol\":60:4185  contract IntervalContract {... */\n              dup1\n              dup4\n              add\n              swap1\n              dup2\n              dup5\n              gt\n              tag_63\n              jumpi\n                /* \"contracts/IntervalContract.sol\":3716:3738  klines[startIndex + i] */\n              tag_65\n                /* \"contracts/IntervalContract.sol\":60:4185  contract IntervalContract {... */\n              0x01\n                /* \"contracts/IntervalContract.sol\":3716:3738  klines[startIndex + i] */\n              swap3\n              tag_2\n              jump\t// in\n            tag_65:\n                /* \"contracts/IntervalContract.sol\":60:4185  contract IntervalContract {... */\n              pop\n              0x0e\n              mload(0x40)\n              swap2\n              tag_66\n              dup4\n              tag_4\n              jump\t// in\n            tag_66:\n              dup1\n              sload\n              dup4\n              mstore\n              dup5\n              dup2\n              add\n              sload\n              0x20\n              dup5\n              add\n              mstore\n              tag_67\n              0x02\n              dup3\n              add\n              tag_8\n              jump\t// in\n            tag_67:\n              0x40\n              dup5\n              add\n              mstore\n              0x03\n              dup2\n              add\n              sload\n              0x60\n              dup5\n              add\n              mstore\n              0x04\n              dup2\n              add\n              sload\n              0x80\n              dup5\n              add\n              mstore\n              0x05\n              dup2\n              add\n              sload\n              0xa0\n              dup5\n              add\n              mstore\n              0x06\n              dup2\n              add\n              sload\n              0xc0\n              dup5\n              add\n              mstore\n              0x07\n              dup2\n              add\n              sload\n              0xe0\n              dup5\n              add\n              mstore\n              0x08\n              dup2\n              add\n              sload\n              0x0100\n              dup5\n              add\n              mstore\n              0x09\n              dup2\n              add\n              sload\n              0x0120\n              dup5\n              add\n              mstore\n              0x0a\n              dup2\n              add\n              sload\n              0x0140\n              dup5\n              add\n              mstore\n              0xff\n              0x0b\n              dup3\n              add\n              sload\n              and\n              iszero\n              iszero\n              0x0160\n              dup5\n              add\n              mstore\n              0x0c\n              dup2\n              add\n              sload\n              0x0180\n              dup5\n              add\n              mstore\n              0x0d\n              dup2\n              add\n              sload\n              0x01a0\n              dup5\n              add\n              mstore\n              add\n              sload\n              0x01c0\n              dup3\n              add\n              mstore\n                /* \"contracts/IntervalContract.sol\":3704:3738  result[i] = klines[startIndex + i] */\n              tag_68\n              dup3\n              dup8\n              tag_13\n              jump\t// in\n            tag_68:\n              mstore\n              tag_69\n              dup2\n              dup7\n              tag_13\n              jump\t// in\n            tag_69:\n              pop\n                /* \"contracts/IntervalContract.sol\":60:4185  contract IntervalContract {... */\n              add\n                /* \"contracts/IntervalContract.sol\":3657:3670  uint256 i = 0 */\n              jump(tag_56)\n                /* \"contracts/IntervalContract.sol\":60:4185  contract IntervalContract {... */\n            tag_63:\n              mstore(0x00, shl(0xe0, 0x4e487b71))\n              mstore(0x04, 0x11)\n              revert(0x00, 0x24)\n            tag_54:\n              0x20\n              swap1\n              mload(0x40)\n              tag_70\n              dup2\n              tag_4\n              jump\t// in\n            tag_70:\n              0x00\n              dup2\n              mstore\n              0x00\n              dup4\n              dup3\n              add\n              mstore\n              0x60\n              0x40\n              dup3\n              add\n              mstore\n              0x00\n              0x60\n              dup3\n              add\n              mstore\n              0x00\n              0x80\n              dup3\n              add\n              mstore\n              0x00\n              0xa0\n              dup3\n              add\n              mstore\n              0x00\n              0xc0\n              dup3\n              add\n              mstore\n              0x00\n              0xe0\n              dup3\n              add\n              mstore\n              0x00\n              0x0100\n              dup3\n              add\n              mstore\n              0x00\n              0x0120\n              dup3\n              add\n              mstore\n              0x00\n              0x0140\n              dup3\n              add\n              mstore\n              0x00\n              0x0160\n              dup3\n              add\n              mstore\n              0x00\n              0x0180\n              dup3\n              add\n              mstore\n              0x00\n              0x01a0\n              dup3\n              add\n              mstore\n              0x00\n              0x01c0\n              dup3\n              add\n              mstore\n              dup3\n              dup3\n              dup9\n              add\n              add\n              mstore\n              add\n              jump(tag_53)\n            tag_44:\n              mload(0x40)\n              shl(0xe5, 0x461bcd)\n              dup2\n              mstore\n              0x20\n              0x04\n              dup3\n              add\n              mstore\n              0x11\n              0x24\n              dup3\n              add\n              mstore\n              shl(0x7b, 0x092dcecc2d8d2c840cadcc840d2dcc8caf)\n              0x44\n              dup3\n              add\n              mstore\n              0x64\n              swap1\n              revert\n                /* \"contracts/IntervalContract.sol\":3460:3510  endIndex >= startIndex && endIndex < klines.length */\n            tag_42:\n                /* \"contracts/IntervalContract.sol\":3486:3510  endIndex < klines.length */\n              swap1\n              pop\n              dup3\n              lt\n                /* \"contracts/IntervalContract.sol\":3460:3510  endIndex >= startIndex && endIndex < klines.length */\n              0x00\n              jump(tag_43)\n                /* \"contracts/IntervalContract.sol\":60:4185  contract IntervalContract {... */\n            tag_40:\n              mload(0x40)\n              shl(0xe5, 0x461bcd)\n              dup2\n              mstore\n              0x20\n              0x04\n              dup3\n              add\n              mstore\n              0x13\n              0x24\n              dup3\n              add\n              mstore\n              shl(0x6b, 0x092dcecc2d8d2c840e6e8c2e4e840d2dcc8caf)\n              0x44\n              dup3\n              add\n              mstore\n              0x64\n              swap1\n              revert\n            tag_38:\n              0x00\n              dup1\n              revert\n            tag_32:\n              jumpi(tag_38, callvalue)\n              jumpi(tag_38, slt(add(not(0x03), calldatasize), 0x00))\n              sload(0x01)\n              mload(0x40)\n              sub(shl(0xa0, 0x01), 0x01)\n              swap1\n              swap2\n              and\n              dup2\n              mstore\n              0x20\n              swap1\n              return\n            tag_30:\n              jumpi(tag_38, callvalue)\n              jumpi(tag_38, slt(add(not(0x03), calldatasize), 0x20))\n              calldataload(0x04)\n              0xffffffffffffffff\n              dup2\n              gt\n              tag_38\n              jumpi\n              0x0200\n              not(0x03)\n              dup3\n              calldatasize\n              sub\n              add\n              slt\n              tag_38\n              jumpi\n              and(sub(shl(0xa0, 0x01), 0x01), sload(0x01))\n                /* \"contracts/IntervalContract.sol\":1470:1480  msg.sender */\n              caller\n                /* \"contracts/IntervalContract.sol\":1470:1491  msg.sender == factory */\n              sub\n                /* \"contracts/IntervalContract.sol\":60:4185  contract IntervalContract {... */\n              tag_83\n              jumpi\n                /* \"contracts/IntervalContract.sol\":1705:3232  function addKline(KlineInput calldata input) external onlyFactory returns (bool) {... */\n              tag_85\n                /* \"contracts/IntervalContract.sol\":60:4185  contract IntervalContract {... */\n              0x20\n              swap2\n              0x04\n              add\n                /* \"contracts/IntervalContract.sol\":1705:3232  function addKline(KlineInput calldata input) external onlyFactory returns (bool) {... */\n              tag_11\n              jump\t// in\n            tag_85:\n                /* \"contracts/IntervalContract.sol\":60:4185  contract IntervalContract {... */\n              mload(0x40)\n              swap1\n              iszero\n              iszero\n              dup2\n              mstore\n              return\n            tag_83:\n              mload(0x40)\n              shl(0xe5, 0x461bcd)\n              dup2\n              mstore\n              0x20\n              0x04\n              dup3\n              add\n              mstore\n              0x23\n              0x24\n              dup3\n              add\n              mstore\n              0x4f6e6c7920466163746f72792063616e2063616c6c20746869732066756e6374\n              0x44\n              dup3\n              add\n              mstore\n              shl(0xe9, 0x34b7b7)\n              0x64\n              dup3\n              add\n              mstore\n              0x84\n              swap1\n              revert\n            tag_28:\n              jumpi(tag_38, callvalue)\n              jumpi(tag_38, slt(add(not(0x03), calldatasize), 0x00))\n              tag_90\n              tag_91\n              tag_6\n              jump\t// in\n            tag_91:\n              mload(0x40)\n              swap2\n              dup3\n              swap2\n              0x20\n              dup4\n              mstore\n              0x20\n              dup4\n              add\n              swap1\n              tag_1\n              jump\t// in\n            tag_90:\n              sub\n              swap1\n              return\n            tag_26:\n              jumpi(tag_38, callvalue)\n              jumpi(tag_38, slt(add(not(0x03), calldatasize), 0x00))\n              tag_90\n              tag_91\n              tag_7\n              jump\t// in\n            tag_22:\n              jumpi(tag_38, callvalue)\n              jumpi(tag_38, slt(add(not(0x03), calldatasize), 0x20))\n              calldataload(0x04)\n              sload(0x00)\n                /* \"contracts/IntervalContract.sol\":1020:1041  Kline[] public klines */\n              dup2\n              lt\n              iszero\n              tag_38\n              jumpi\n              tag_110\n              swap1\n              tag_2\n              jump\t// in\n            tag_110:\n              pop\n                /* \"contracts/IntervalContract.sol\":60:4185  contract IntervalContract {... */\n              dup1\n              sload\n              0x01\n                /* \"contracts/IntervalContract.sol\":1020:1041  Kline[] public klines */\n              dup3\n              add\n                /* \"contracts/IntervalContract.sol\":60:4185  contract IntervalContract {... */\n              sload\n              swap1\n                /* \"contracts/IntervalContract.sol\":1020:1041  Kline[] public klines */\n              tag_111\n              0x02\n              dup5\n              add\n              tag_8\n              jump\t// in\n            tag_111:\n              swap3\n              0x03\n              dup2\n              add\n                /* \"contracts/IntervalContract.sol\":60:4185  contract IntervalContract {... */\n              sload\n                /* \"contracts/IntervalContract.sol\":1020:1041  Kline[] public klines */\n              swap1\n                /* \"contracts/IntervalContract.sol\":60:4185  contract IntervalContract {... */\n              0x04\n                /* \"contracts/IntervalContract.sol\":1020:1041  Kline[] public klines */\n              dup2\n              add\n                /* \"contracts/IntervalContract.sol\":60:4185  contract IntervalContract {... */\n              sload\n                /* \"contracts/IntervalContract.sol\":1020:1041  Kline[] public klines */\n              0x05\n              dup3\n              add\n                /* \"contracts/IntervalContract.sol\":60:4185  contract IntervalContract {... */\n              sload\n                /* \"contracts/IntervalContract.sol\":1020:1041  Kline[] public klines */\n              0x06\n              dup4\n              add\n                /* \"contracts/IntervalContract.sol\":60:4185  contract IntervalContract {... */\n              sload\n                /* \"contracts/IntervalContract.sol\":1020:1041  Kline[] public klines */\n              0x07\n              dup5\n              add\n                /* \"contracts/IntervalContract.sol\":60:4185  contract IntervalContract {... */\n              sload\n                /* \"contracts/IntervalContract.sol\":1020:1041  Kline[] public klines */\n              0x08\n              dup6\n              add\n                /* \"contracts/IntervalContract.sol\":60:4185  contract IntervalContract {... */\n              sload\n                /* \"contracts/IntervalContract.sol\":1020:1041  Kline[] public klines */\n              0x09\n              dup7\n              add\n                /* \"contracts/IntervalContract.sol\":60:4185  contract IntervalContract {... */\n              sload\n                /* \"contracts/IntervalContract.sol\":1020:1041  Kline[] public klines */\n              swap2\n              0x0a\n              dup8\n              add\n                /* \"contracts/IntervalContract.sol\":60:4185  contract IntervalContract {... */\n              sload\n                /* \"contracts/IntervalContract.sol\":1020:1041  Kline[] public klines */\n              swap4\n              0x0b\n              dup9\n              add\n                /* \"contracts/IntervalContract.sol\":60:4185  contract IntervalContract {... */\n              sload\n              0xff\n              and\n                /* \"contracts/IntervalContract.sol\":1020:1041  Kline[] public klines */\n              swap6\n              0x0c\n              dup10\n              add\n                /* \"contracts/IntervalContract.sol\":60:4185  contract IntervalContract {... */\n              sload\n                /* \"contracts/IntervalContract.sol\":1020:1041  Kline[] public klines */\n              swap8\n              0x0d\n              dup11\n              add\n                /* \"contracts/IntervalContract.sol\":60:4185  contract IntervalContract {... */\n              sload\n                /* \"contracts/IntervalContract.sol\":1020:1041  Kline[] public klines */\n              swap10\n              0x0e\n              add\n                /* \"contracts/IntervalContract.sol\":60:4185  contract IntervalContract {... */\n              sload\n              swap11\n              mload(0x40)\n              swap15\n              dup16\n              swap15\n              dup16\n              swap15\n              dup16\n              swap1\n              dup2\n              mstore\n              0x20\n              add\n              mstore\n              dup14\n              0x40\n              dup2\n              add\n              0x01e0\n              swap1\n              mstore\n              0x01e0\n              add\n              tag_112\n              swap2\n              tag_1\n              jump\t// in\n            tag_112:\n              swap13\n              0x60\n              add\n              mstore\n              0x80\n              dup14\n              add\n              mstore\n              0xa0\n              dup13\n              add\n              mstore\n              0xc0\n              dup12\n              add\n              mstore\n              0xe0\n              dup11\n              add\n              mstore\n              0x0100\n              dup10\n              add\n              mstore\n              0x0120\n              dup9\n              add\n              mstore\n              0x0140\n              dup8\n              add\n              mstore\n              iszero\n              iszero\n              0x0160\n              dup7\n              add\n              mstore\n              0x0180\n              dup6\n              add\n              mstore\n              0x01a0\n              dup5\n              add\n              mstore\n              0x01c0\n              dup4\n              add\n              mstore\n              sub\n              swap1\n              return\n            tag_20:\n              jumpi(tag_38, callvalue)\n              jumpi(tag_38, slt(add(not(0x03), calldatasize), 0x00))\n              0x20\n              sload(0x00)\n              mload(0x40)\n              swap1\n              dup2\n              mstore\n              return\n            tag_18:\n              jumpi(tag_38, callvalue)\n              jumpi(tag_38, slt(add(not(0x03), calldatasize), 0x00))\n              0x20\n              mload(0x40)\n                /* \"contracts/IntervalContract.sol\":1085:1086  2 */\n              0x02\n                /* \"contracts/IntervalContract.sol\":60:4185  contract IntervalContract {... */\n              dup2\n              mstore\n              return\n            tag_1:\n              dup1\n              mload\n              dup1\n              dup4\n              mstore\n              0x20\n              swap3\n              swap2\n              dup2\n              swap1\n              dup5\n              add\n              dup5\n              dup5\n              add\n              mcopy\n              0x00\n              dup3\n              dup3\n              add\n              dup5\n              add\n              mstore\n              0x1f\n              add\n              not(0x1f)\n              and\n              add\n              add\n              swap1\n              jump\t// out\n            tag_2:\n              sload(0x00)\n              dup2\n              lt\n              iszero\n              tag_127\n              jumpi\n              0x00\n              dup1\n              dup1\n              mstore\n              0x0f\n              swap2\n              swap1\n              swap2\n              mul\n              0x290decd9548b62a8d60345a988386fc84ba6bc95484008f6362f93160ef3e563\n              add\n              swap2\n              jump\t// out\n            tag_127:\n              mstore(0x00, shl(0xe0, 0x4e487b71))\n              mstore(0x04, 0x32)\n              revert(0x00, 0x24)\n            tag_3:\n              swap1\n              0x01\n              dup3\n              dup2\n              shr\n              swap3\n              and\n              dup1\n              iszero\n              tag_129\n              jumpi\n            tag_130:\n              0x20\n              dup4\n              lt\n              eq\n              tag_131\n              jumpi\n              jump\t// out\n            tag_131:\n              mstore(0x00, shl(0xe0, 0x4e487b71))\n              mstore(0x04, 0x22)\n              revert(0x00, 0x24)\n            tag_129:\n              swap2\n              0x7f\n              and\n              swap2\n              jump(tag_130)\n            tag_4:\n              0x01e0\n              dup2\n              add\n              swap1\n              dup2\n              lt\n              0xffffffffffffffff\n              dup3\n              gt\n              or\n              tag_133\n              jumpi\n              0x40\n              mstore\n              jump\t// out\n            tag_133:\n              mstore(0x00, shl(0xe0, 0x4e487b71))\n              mstore(0x04, 0x41)\n              revert(0x00, 0x24)\n            tag_5:\n              swap1\n              0x1f\n              dup1\n              not\n              swap2\n              add\n              and\n              dup2\n              add\n              swap1\n              dup2\n              lt\n              0xffffffffffffffff\n              dup3\n              gt\n              or\n              tag_133\n              jumpi\n              0x40\n              mstore\n              jump\t// out\n            tag_6:\n              mload(0x40)\n              swap1\n              0x00\n              dup3\n                /* \"contracts/IntervalContract.sol\":3970:3976  symbol */\n              0x02\n                /* \"contracts/IntervalContract.sol\":60:4185  contract IntervalContract {... */\n              sload\n              swap2\n              tag_137\n              dup4\n              tag_3\n              jump\t// in\n            tag_137:\n              dup1\n              dup4\n              mstore\n              swap3\n              0x01\n              dup2\n              and\n              swap1\n              dup2\n              iszero\n              tag_138\n              jumpi\n              pop\n              0x01\n              eq\n              tag_140\n              jumpi\n            tag_141:\n              tag_142\n              swap3\n              pop\n              sub\n              dup4\n              tag_5\n              jump\t// in\n            tag_142:\n              jump\t// out\n            tag_140:\n              pop\n                /* \"contracts/IntervalContract.sol\":3970:3976  symbol */\n              0x02\n              0x00\n                /* \"contracts/IntervalContract.sol\":60:4185  contract IntervalContract {... */\n              swap1\n              dup2\n              mstore\n              swap1\n              swap2\n              0x405787fa12a823e0f2b7631cc41b3ba8828b3321ca811111fa75cd3aa3bb5ace\n            tag_143:\n              dup2\n              dup4\n              lt\n              tag_144\n              jumpi\n              pop\n              pop\n              swap1\n              0x20\n              tag_142\n              swap3\n              dup3\n              add\n              add\n              jump(tag_141)\n            tag_144:\n              0x20\n              swap2\n              swap4\n              pop\n              dup1\n              0x01\n              swap2\n              sload\n              dup4\n              dup6\n              dup10\n              add\n              add\n              mstore\n              add\n              swap2\n              add\n              swap1\n              swap2\n              dup5\n              swap3\n              jump(tag_143)\n            tag_138:\n              0x20\n              swap3\n              pop\n              tag_142\n              swap5\n              swap2\n              pop\n              not(0xff)\n              and\n              dup3\n              dup5\n              add\n              mstore\n              iszero\n              iszero\n              0x05\n              shl\n              dup3\n              add\n              add\n              jump(tag_141)\n            tag_7:\n              mload(0x40)\n              swap1\n              0x00\n              dup3\n                /* \"contracts/IntervalContract.sol\":4071:4079  interval */\n              0x03\n                /* \"contracts/IntervalContract.sol\":60:4185  contract IntervalContract {... */\n              sload\n              swap2\n              tag_146\n              dup4\n              tag_3\n              jump\t// in\n            tag_146:\n              dup1\n              dup4\n              mstore\n              swap3\n              0x01\n              dup2\n              and\n              swap1\n              dup2\n              iszero\n              tag_138\n              jumpi\n              pop\n              0x01\n              eq\n              tag_149\n              jumpi\n              tag_142\n              swap3\n              pop\n              sub\n              dup4\n              tag_5\n              jump\t// in\n            tag_149:\n              pop\n                /* \"contracts/IntervalContract.sol\":4071:4079  interval */\n              0x03\n              0x00\n                /* \"contracts/IntervalContract.sol\":60:4185  contract IntervalContract {... */\n              swap1\n              dup2\n              mstore\n              swap1\n              swap2\n              0xc2575a0e9e593c00f959f8c92f12db2869c3395a3b0502d05e2516446f71f85b\n            tag_152:\n              dup2\n              dup4\n              lt\n              tag_153\n              jumpi\n              pop\n              pop\n              swap1\n              0x20\n              tag_142\n              swap3\n              dup3\n              add\n              add\n              jump(tag_141)\n            tag_153:\n              0x20\n              swap2\n              swap4\n              pop\n              dup1\n              0x01\n              swap2\n              sload\n              dup4\n              dup6\n              dup10\n              add\n              add\n              mstore\n              add\n              swap2\n              add\n              swap1\n              swap2\n              dup5\n              swap3\n              jump(tag_152)\n            tag_8:\n              swap1\n              mload(0x40)\n              swap2\n              dup3\n              0x00\n              dup3\n              sload\n              swap3\n              tag_155\n              dup5\n              tag_3\n              jump\t// in\n            tag_155:\n              dup1\n              dup5\n              mstore\n              swap4\n              0x01\n              dup2\n              and\n              swap1\n              dup2\n              iszero\n              tag_156\n              jumpi\n              pop\n              0x01\n              eq\n              tag_158\n              jumpi\n            tag_159:\n              pop\n              tag_142\n              swap3\n              pop\n              sub\n              dup4\n              tag_5\n              jump\t// in\n            tag_158:\n              swap1\n              pop\n              0x00\n              swap3\n              swap2\n              swap3\n              mstore\n              keccak256(0x00, 0x20)\n              swap1\n              0x00\n              swap2\n            tag_161:\n              dup2\n              dup4\n              lt\n              tag_162\n              jumpi\n              pop\n              pop\n              swap1\n              0x20\n              tag_142\n              swap3\n              dup3\n              add\n              add\n              0x00\n              jump(tag_159)\n            tag_162:\n              0x20\n              swap2\n              swap4\n              pop\n              dup1\n              0x01\n              swap2\n              sload\n              dup4\n              dup6\n              dup10\n              add\n              add\n              mstore\n              add\n              swap2\n              add\n              swap1\n              swap2\n              dup5\n              swap3\n              jump(tag_161)\n            tag_156:\n              swap1\n              pop\n              0x20\n              swap3\n              pop\n              tag_142\n              swap5\n              swap2\n              pop\n              not(0xff)\n              and\n              dup3\n              dup5\n              add\n              mstore\n              iszero\n              iszero\n              0x05\n              shl\n              dup3\n              add\n              add\n              0x00\n              jump(tag_159)\n            tag_9:\n              swap1\n              calldataload\n              swap1\n              not(0x1e)\n              dup2\n              calldatasize\n              sub\n              add\n              dup3\n              slt\n              iszero\n              tag_38\n              jumpi\n              add\n              dup1\n              calldataload\n              swap1\n              0xffffffffffffffff\n              dup3\n              gt\n              tag_38\n              jumpi\n              0x20\n              add\n              swap2\n              dup2\n              calldatasize\n              sub\n              dup4\n              sgt\n              tag_38\n              jumpi\n              jump\t// out\n            tag_10:\n              swap3\n              swap2\n              swap3\n              0xffffffffffffffff\n              dup3\n              gt\n              tag_133\n              jumpi\n              mload(0x40)\n              swap2\n              tag_172\n              0x1f\n              dup3\n              add\n              not(0x1f)\n              and\n              0x20\n              add\n              dup5\n              tag_5\n              jump\t// in\n            tag_172:\n              dup3\n              swap5\n              dup2\n              dup5\n              mstore\n              dup2\n              dup4\n              add\n              gt\n              tag_38\n              jumpi\n              dup3\n              dup2\n              0x20\n              swap4\n              dup5\n              0x00\n              swap7\n              add\n              calldatacopy\n              add\n              add\n              mstore\n              jump\t// out\n                /* \"contracts/IntervalContract.sol\":1705:3232  function addKline(KlineInput calldata input) external onlyFactory returns (bool) {... */\n            tag_11:\n                /* \"contracts/IntervalContract.sol\":60:4185  contract IntervalContract {... */\n              tag_175\n                /* \"contracts/IntervalContract.sol\":1835:1849  input.interval */\n              tag_176\n              0x60\n              dup4\n              add\n              dup4\n              tag_9\n              jump\t// in\n            tag_176:\n                /* \"contracts/IntervalContract.sol\":60:4185  contract IntervalContract {... */\n              calldatasize\n              swap2\n              tag_10\n              jump\t// in\n            tag_175:\n              0x20\n              dup2\n              mload\n              swap2\n              add\n                /* \"contracts/IntervalContract.sol\":1819:1851  keccak256(bytes(input.interval)) */\n              keccak256\n                /* \"contracts/IntervalContract.sol\":60:4185  contract IntervalContract {... */\n              tag_177\n              tag_7\n              jump\t// in\n            tag_177:\n              0x20\n              dup2\n              mload\n              swap2\n              add\n                /* \"contracts/IntervalContract.sol\":1855:1881  keccak256(bytes(interval)) */\n              keccak256\n                /* \"contracts/IntervalContract.sol\":1819:1881  keccak256(bytes(input.interval)) == keccak256(bytes(interval)) */\n              sub\n                /* \"contracts/IntervalContract.sol\":60:4185  contract IntervalContract {... */\n              tag_178\n              jumpi\n                /* \"contracts/IntervalContract.sol\":2005:2017  input.symbol */\n              0x40\n              dup2\n              add\n              swap1\n                /* \"contracts/IntervalContract.sol\":60:4185  contract IntervalContract {... */\n              tag_180\n                /* \"contracts/IntervalContract.sol\":2005:2017  input.symbol */\n              tag_176\n              dup4\n              dup4\n              tag_9\n              jump\t// in\n                /* \"contracts/IntervalContract.sol\":60:4185  contract IntervalContract {... */\n            tag_180:\n              0x20\n              dup2\n              mload\n              swap2\n              add\n                /* \"contracts/IntervalContract.sol\":1989:2019  keccak256(bytes(input.symbol)) */\n              keccak256\n                /* \"contracts/IntervalContract.sol\":60:4185  contract IntervalContract {... */\n              tag_182\n              tag_6\n              jump\t// in\n            tag_182:\n              0x20\n              dup2\n              mload\n              swap2\n              add\n                /* \"contracts/IntervalContract.sol\":2023:2047  keccak256(bytes(symbol)) */\n              keccak256\n                /* \"contracts/IntervalContract.sol\":1989:2047  keccak256(bytes(input.symbol)) == keccak256(bytes(symbol)) */\n              sub\n                /* \"contracts/IntervalContract.sol\":60:4185  contract IntervalContract {... */\n              tag_183\n              jumpi\n              dup1\n              calldataload\n                /* \"contracts/IntervalContract.sol\":2155:2173  input.endTimestamp */\n              swap1\n                /* \"contracts/IntervalContract.sol\":60:4185  contract IntervalContract {... */\n              0x20\n                /* \"contracts/IntervalContract.sol\":2155:2173  input.endTimestamp */\n              dup2\n              add\n                /* \"contracts/IntervalContract.sol\":60:4185  contract IntervalContract {... */\n              calldataload\n                /* \"contracts/IntervalContract.sol\":2137:2173  input.timestamp < input.endTimestamp */\n              swap3\n              dup4\n              dup4\n              lt\n                /* \"contracts/IntervalContract.sol\":60:4185  contract IntervalContract {... */\n              iszero\n              tag_185\n              jumpi\n                /* \"contracts/IntervalContract.sol\":2247:2257  input.high */\n              0xe0\n              dup3\n              add\n                /* \"contracts/IntervalContract.sol\":60:4185  contract IntervalContract {... */\n              calldataload\n                /* \"contracts/IntervalContract.sol\":2261:2270  input.low */\n              0x0100\n              dup4\n              add\n                /* \"contracts/IntervalContract.sol\":60:4185  contract IntervalContract {... */\n              calldataload\n                /* \"contracts/IntervalContract.sol\":2247:2270  input.high >= input.low */\n              swap3\n              dup4\n              dup3\n              lt\n                /* \"contracts/IntervalContract.sol\":60:4185  contract IntervalContract {... */\n              tag_187\n              jumpi\n                /* \"contracts/IntervalContract.sol\":2335:2345  input.open */\n              0xc0\n              dup2\n              add\n                /* \"contracts/IntervalContract.sol\":60:4185  contract IntervalContract {... */\n              calldataload\n                /* \"contracts/IntervalContract.sol\":2335:2349  input.open > 0 */\n              swap4\n              dup5\n              iszero\n              iszero\n                /* \"contracts/IntervalContract.sol\":2335:2368  input.open > 0 && input.close > 0 */\n              dup1\n              tag_189\n              jumpi\n                /* \"contracts/IntervalContract.sol\":1705:3232  function addKline(KlineInput calldata input) external onlyFactory returns (bool) {... */\n            tag_190:\n                /* \"contracts/IntervalContract.sol\":60:4185  contract IntervalContract {... */\n              iszero\n              tag_191\n              jumpi\n              sload(0x00)\n                /* \"contracts/IntervalContract.sol\":2421:2448  klines.length >= MAX_KLINES */\n              swap4\n                /* \"contracts/IntervalContract.sol\":2039:2045  symbol */\n              0x02\n                /* \"contracts/IntervalContract.sol\":2421:2448  klines.length >= MAX_KLINES */\n              dup6\n              lt\n              iszero\n                /* \"contracts/IntervalContract.sol\":2417:2538  if (klines.length >= MAX_KLINES) {... */\n              tag_193\n              jumpi\n                /* \"contracts/IntervalContract.sol\":2679:2691  input.symbol */\n              tag_195\n              swap1\n              dup4\n              tag_9\n              jump\t// in\n            tag_195:\n                /* \"contracts/IntervalContract.sol\":3018:3032  input.isClosed */\n              swap2\n              swap1\n              swap4\n              0x0180\n              dup5\n              add\n                /* \"contracts/IntervalContract.sol\":60:4185  contract IntervalContract {... */\n              calldataload\n              swap3\n              dup4\n              iszero\n              iszero\n              dup1\n              swap5\n              sub\n              tag_38\n              jumpi\n                /* \"contracts/IntervalContract.sol\":3164:3189  input.takerBuyQuoteVolume */\n              0x01e0\n                /* \"contracts/IntervalContract.sol\":60:4185  contract IntervalContract {... */\n              swap6\n              tag_198\n              swap2\n                /* \"contracts/IntervalContract.sol\":2005:2017  input.symbol */\n              0x40\n                /* \"contracts/IntervalContract.sol\":60:4185  contract IntervalContract {... */\n              mload\n              swap11\n              tag_199\n              dup13\n              tag_4\n              jump\t// in\n            tag_199:\n              dup12\n              mstore\n              0x20\n                /* \"contracts/IntervalContract.sol\":2562:3201  Kline({... */\n              dup12\n              add\n                /* \"contracts/IntervalContract.sol\":60:4185  contract IntervalContract {... */\n              swap12\n              dup13\n              mstore\n              calldatasize\n              swap2\n              tag_10\n              jump\t// in\n            tag_198:\n                /* \"contracts/IntervalContract.sol\":2562:3201  Kline({... */\n              swap7\n                /* \"contracts/IntervalContract.sol\":2005:2017  input.symbol */\n              0x40\n                /* \"contracts/IntervalContract.sol\":2562:3201  Kline({... */\n              dup10\n              add\n                /* \"contracts/IntervalContract.sol\":60:4185  contract IntervalContract {... */\n              swap8\n              dup9\n              mstore\n                /* \"contracts/IntervalContract.sol\":2720:2738  input.firstTradeId */\n              0x80\n              dup6\n              add\n                /* \"contracts/IntervalContract.sol\":60:4185  contract IntervalContract {... */\n              calldataload\n                /* \"contracts/IntervalContract.sol\":1835:1849  input.interval */\n              0x60\n                /* \"contracts/IntervalContract.sol\":2562:3201  Kline({... */\n              dup11\n              add\n                /* \"contracts/IntervalContract.sol\":60:4185  contract IntervalContract {... */\n              mstore\n                /* \"contracts/IntervalContract.sol\":2766:2783  input.lastTradeId */\n              0xa0\n              dup6\n              add\n                /* \"contracts/IntervalContract.sol\":60:4185  contract IntervalContract {... */\n              calldataload\n                /* \"contracts/IntervalContract.sol\":2720:2738  input.firstTradeId */\n              0x80\n                /* \"contracts/IntervalContract.sol\":2562:3201  Kline({... */\n              dup11\n              add\n                /* \"contracts/IntervalContract.sol\":60:4185  contract IntervalContract {... */\n              mstore\n                /* \"contracts/IntervalContract.sol\":2766:2783  input.lastTradeId */\n              0xa0\n                /* \"contracts/IntervalContract.sol\":2562:3201  Kline({... */\n              dup10\n              add\n                /* \"contracts/IntervalContract.sol\":60:4185  contract IntervalContract {... */\n              mstore\n                /* \"contracts/IntervalContract.sol\":2335:2345  input.open */\n              0xc0\n                /* \"contracts/IntervalContract.sol\":2562:3201  Kline({... */\n              dup9\n              add\n                /* \"contracts/IntervalContract.sol\":60:4185  contract IntervalContract {... */\n              mstore\n                /* \"contracts/IntervalContract.sol\":2247:2257  input.high */\n              0xe0\n                /* \"contracts/IntervalContract.sol\":2562:3201  Kline({... */\n              dup8\n              add\n                /* \"contracts/IntervalContract.sol\":60:4185  contract IntervalContract {... */\n              mstore\n                /* \"contracts/IntervalContract.sol\":2896:2907  input.close */\n              0x0120\n              dup3\n              add\n                /* \"contracts/IntervalContract.sol\":60:4185  contract IntervalContract {... */\n              calldataload\n                /* \"contracts/IntervalContract.sol\":2261:2270  input.low */\n              0x0100\n                /* \"contracts/IntervalContract.sol\":2562:3201  Kline({... */\n              dup8\n              add\n                /* \"contracts/IntervalContract.sol\":60:4185  contract IntervalContract {... */\n              mstore\n                /* \"contracts/IntervalContract.sol\":2930:2942  input.volume */\n              0x0140\n              dup3\n              add\n                /* \"contracts/IntervalContract.sol\":60:4185  contract IntervalContract {... */\n              calldataload\n                /* \"contracts/IntervalContract.sol\":2896:2907  input.close */\n              0x0120\n                /* \"contracts/IntervalContract.sol\":2562:3201  Kline({... */\n              dup8\n              add\n                /* \"contracts/IntervalContract.sol\":60:4185  contract IntervalContract {... */\n              mstore\n                /* \"contracts/IntervalContract.sol\":2973:2993  input.numberOfTrades */\n              0x0160\n              dup3\n              add\n                /* \"contracts/IntervalContract.sol\":60:4185  contract IntervalContract {... */\n              calldataload\n                /* \"contracts/IntervalContract.sol\":2930:2942  input.volume */\n              0x0140\n                /* \"contracts/IntervalContract.sol\":2562:3201  Kline({... */\n              dup8\n              add\n                /* \"contracts/IntervalContract.sol\":60:4185  contract IntervalContract {... */\n              mstore\n                /* \"contracts/IntervalContract.sol\":2973:2993  input.numberOfTrades */\n              0x0160\n                /* \"contracts/IntervalContract.sol\":2562:3201  Kline({... */\n              dup7\n              add\n                /* \"contracts/IntervalContract.sol\":60:4185  contract IntervalContract {... */\n              mstore\n                /* \"contracts/IntervalContract.sol\":3060:3077  input.quoteVolume */\n              0x01a0\n              dup2\n              add\n                /* \"contracts/IntervalContract.sol\":60:4185  contract IntervalContract {... */\n              calldataload\n                /* \"contracts/IntervalContract.sol\":3018:3032  input.isClosed */\n              0x0180\n                /* \"contracts/IntervalContract.sol\":2562:3201  Kline({... */\n              dup7\n              add\n                /* \"contracts/IntervalContract.sol\":60:4185  contract IntervalContract {... */\n              mstore\n                /* \"contracts/IntervalContract.sol\":3108:3128  input.takerBuyVolume */\n              0x01c0\n              dup2\n              add\n                /* \"contracts/IntervalContract.sol\":60:4185  contract IntervalContract {... */\n              calldataload\n                /* \"contracts/IntervalContract.sol\":3060:3077  input.quoteVolume */\n              0x01a0\n                /* \"contracts/IntervalContract.sol\":2562:3201  Kline({... */\n              dup7\n              add\n                /* \"contracts/IntervalContract.sol\":60:4185  contract IntervalContract {... */\n              mstore\n                /* \"contracts/IntervalContract.sol\":3164:3189  input.takerBuyQuoteVolume */\n              add\n                /* \"contracts/IntervalContract.sol\":60:4185  contract IntervalContract {... */\n              calldataload\n                /* \"contracts/IntervalContract.sol\":3108:3128  input.takerBuyVolume */\n              0x01c0\n                /* \"contracts/IntervalContract.sol\":2562:3201  Kline({... */\n              dup5\n              add\n                /* \"contracts/IntervalContract.sol\":60:4185  contract IntervalContract {... */\n              mstore\n              0x010000000000000000\n              dup2\n              lt\n              iszero\n              tag_133\n              jumpi\n              dup1\n              0x01\n              tag_202\n              swap3\n              add\n              0x00\n              sstore\n              tag_2\n              jump\t// in\n            tag_202:\n              swap4\n              swap1\n              swap4\n              tag_203\n              jumpi\n              dup3\n              mload\n              dup5\n              sstore\n              mload\n              0x01\n              dup5\n              add\n              sstore\n              mload\n              dup1\n              mload\n              swap1\n              0xffffffffffffffff\n              dup3\n              gt\n              tag_133\n              jumpi\n              tag_207\n                /* \"contracts/IntervalContract.sol\":2039:2045  symbol */\n              0x02\n                /* \"contracts/IntervalContract.sol\":60:4185  contract IntervalContract {... */\n              dup6\n              add\n              sload\n              tag_3\n              jump\t// in\n            tag_207:\n              0x1f\n              dup2\n              gt\n              tag_208\n              jumpi\n                /* \"contracts/IntervalContract.sol\":1705:3232  function addKline(KlineInput calldata input) external onlyFactory returns (bool) {... */\n            tag_209:\n                /* \"contracts/IntervalContract.sol\":60:4185  contract IntervalContract {... */\n              pop\n              0x20\n              swap1\n              0x1f\n              dup4\n              gt\n              0x01\n              eq\n              tag_210\n              jumpi\n              swap2\n              dup1\n              0x0e\n              swap5\n              swap3\n                /* \"contracts/IntervalContract.sol\":3108:3128  input.takerBuyVolume */\n              0x01c0\n                /* \"contracts/IntervalContract.sol\":60:4185  contract IntervalContract {... */\n              swap5\n              0x00\n              swap3\n              tag_212\n              jumpi\n            tag_213:\n              pop\n              pop\n              dup2\n              0x01\n              shl\n              swap2\n              not(0x00)\n              swap1\n                /* \"contracts/IntervalContract.sol\":1871:1879  interval */\n              0x03\n                /* \"contracts/IntervalContract.sol\":60:4185  contract IntervalContract {... */\n              shl\n              shr\n              not\n              and\n              or\n                /* \"contracts/IntervalContract.sol\":2039:2045  symbol */\n              0x02\n                /* \"contracts/IntervalContract.sol\":60:4185  contract IntervalContract {... */\n              dup6\n              add\n              sstore\n            tag_214:\n                /* \"contracts/IntervalContract.sol\":1835:1849  input.interval */\n              0x60\n                /* \"contracts/IntervalContract.sol\":2562:3201  Kline({... */\n              dup2\n              add\n                /* \"contracts/IntervalContract.sol\":60:4185  contract IntervalContract {... */\n              mload\n                /* \"contracts/IntervalContract.sol\":1871:1879  interval */\n              0x03\n                /* \"contracts/IntervalContract.sol\":60:4185  contract IntervalContract {... */\n              dup6\n              add\n              sstore\n                /* \"contracts/IntervalContract.sol\":2720:2738  input.firstTradeId */\n              0x80\n                /* \"contracts/IntervalContract.sol\":2562:3201  Kline({... */\n              dup2\n              add\n                /* \"contracts/IntervalContract.sol\":60:4185  contract IntervalContract {... */\n              mload\n              0x04\n              dup6\n              add\n              sstore\n                /* \"contracts/IntervalContract.sol\":2766:2783  input.lastTradeId */\n              0xa0\n                /* \"contracts/IntervalContract.sol\":2562:3201  Kline({... */\n              dup2\n              add\n                /* \"contracts/IntervalContract.sol\":60:4185  contract IntervalContract {... */\n              mload\n              0x05\n              dup6\n              add\n              sstore\n                /* \"contracts/IntervalContract.sol\":2335:2345  input.open */\n              0xc0\n                /* \"contracts/IntervalContract.sol\":2562:3201  Kline({... */\n              dup2\n              add\n                /* \"contracts/IntervalContract.sol\":60:4185  contract IntervalContract {... */\n              mload\n              0x06\n              dup6\n              add\n              sstore\n                /* \"contracts/IntervalContract.sol\":2247:2257  input.high */\n              0xe0\n                /* \"contracts/IntervalContract.sol\":2562:3201  Kline({... */\n              dup2\n              add\n                /* \"contracts/IntervalContract.sol\":60:4185  contract IntervalContract {... */\n              mload\n              0x07\n              dup6\n              add\n              sstore\n                /* \"contracts/IntervalContract.sol\":2261:2270  input.low */\n              0x0100\n                /* \"contracts/IntervalContract.sol\":2562:3201  Kline({... */\n              dup2\n              add\n                /* \"contracts/IntervalContract.sol\":60:4185  contract IntervalContract {... */\n              mload\n              0x08\n              dup6\n              add\n              sstore\n                /* \"contracts/IntervalContract.sol\":2896:2907  input.close */\n              0x0120\n                /* \"contracts/IntervalContract.sol\":2562:3201  Kline({... */\n              dup2\n              add\n                /* \"contracts/IntervalContract.sol\":60:4185  contract IntervalContract {... */\n              mload\n              0x09\n              dup6\n              add\n              sstore\n                /* \"contracts/IntervalContract.sol\":2930:2942  input.volume */\n              0x0140\n                /* \"contracts/IntervalContract.sol\":2562:3201  Kline({... */\n              dup2\n              add\n                /* \"contracts/IntervalContract.sol\":60:4185  contract IntervalContract {... */\n              mload\n              0x0a\n              dup6\n              add\n              sstore\n              0x0b\n              dup5\n              add\n                /* \"contracts/IntervalContract.sol\":2973:2993  input.numberOfTrades */\n              0x0160\n                /* \"contracts/IntervalContract.sol\":2562:3201  Kline({... */\n              dup3\n              add\n                /* \"contracts/IntervalContract.sol\":60:4185  contract IntervalContract {... */\n              mload\n              iszero\n              iszero\n              0xff\n              dup1\n              not\n              dup4\n              sload\n              and\n              swap2\n              and\n              or\n              swap1\n              sstore\n                /* \"contracts/IntervalContract.sol\":3018:3032  input.isClosed */\n              0x0180\n                /* \"contracts/IntervalContract.sol\":2562:3201  Kline({... */\n              dup2\n              add\n                /* \"contracts/IntervalContract.sol\":60:4185  contract IntervalContract {... */\n              mload\n              0x0c\n              dup6\n              add\n              sstore\n                /* \"contracts/IntervalContract.sol\":3060:3077  input.quoteVolume */\n              0x01a0\n                /* \"contracts/IntervalContract.sol\":2562:3201  Kline({... */\n              dup2\n              add\n                /* \"contracts/IntervalContract.sol\":60:4185  contract IntervalContract {... */\n              mload\n              0x0d\n              dup6\n              add\n              sstore\n                /* \"contracts/IntervalContract.sol\":2562:3201  Kline({... */\n              add\n                /* \"contracts/IntervalContract.sol\":60:4185  contract IntervalContract {... */\n              mload\n              swap2\n              add\n              sstore\n              0x01\n                /* \"contracts/IntervalContract.sol\":1705:3232  function addKline(KlineInput calldata input) external onlyFactory returns (bool) {... */\n              swap1\n              jump\t// out\n                /* \"contracts/IntervalContract.sol\":60:4185  contract IntervalContract {... */\n            tag_212:\n              add\n              mload\n              swap1\n              pop\n              0x00\n              dup1\n              jump(tag_213)\n            tag_210:\n              swap1\n                /* \"contracts/IntervalContract.sol\":2039:2045  symbol */\n              0x02\n                /* \"contracts/IntervalContract.sol\":60:4185  contract IntervalContract {... */\n              dup6\n              add\n              0x00\n              mstore\n              dup1\n              0x00\n              keccak256\n              swap2\n              0x00\n            tag_215:\n              not(0x1f)\n              dup6\n              and\n              dup2\n              lt\n              tag_216\n              jumpi\n              pop\n              swap3\n              0x0e\n              swap5\n              swap3\n              0x01\n              swap3\n                /* \"contracts/IntervalContract.sol\":3108:3128  input.takerBuyVolume */\n              0x01c0\n                /* \"contracts/IntervalContract.sol\":60:4185  contract IntervalContract {... */\n              swap6\n              dup4\n              not(0x1f)\n              dup2\n              and\n              lt\n              tag_218\n              jumpi\n            tag_219:\n              pop\n              pop\n              pop\n              dup2\n              shl\n              add\n                /* \"contracts/IntervalContract.sol\":2039:2045  symbol */\n              0x02\n                /* \"contracts/IntervalContract.sol\":60:4185  contract IntervalContract {... */\n              dup6\n              add\n              sstore\n              jump(tag_214)\n            tag_218:\n              add\n              mload\n              not(0x00)\n              0xf8\n              dup5\n                /* \"contracts/IntervalContract.sol\":1871:1879  interval */\n              0x03\n                /* \"contracts/IntervalContract.sol\":60:4185  contract IntervalContract {... */\n              shl\n              and\n              shr\n              not\n              and\n              swap1\n              sstore\n              0x00\n              dup1\n              dup1\n              jump(tag_219)\n            tag_216:\n              swap2\n              swap3\n              0x20\n              0x01\n              dup2\n              swap3\n              dup7\n              dup6\n              add\n              mload\n              dup2\n              sstore\n              add\n              swap5\n              add\n              swap3\n              add\n              jump(tag_215)\n            tag_208:\n                /* \"contracts/IntervalContract.sol\":2039:2045  symbol */\n              0x02\n                /* \"contracts/IntervalContract.sol\":60:4185  contract IntervalContract {... */\n              dup6\n              add\n              0x00\n              mstore\n              keccak256(0x00, 0x20)\n              0x1f\n              dup5\n              add\n              0x05\n              shr\n              dup2\n              add\n              swap2\n              0x20\n              dup6\n              lt\n              tag_220\n              jumpi\n            tag_221:\n              0x1f\n              add\n              0x05\n              shr\n              add\n              swap1\n            tag_222:\n              dup2\n              dup2\n              lt\n              tag_223\n              jumpi\n              pop\n              jump(tag_209)\n            tag_223:\n              0x00\n              dup2\n              sstore\n              0x01\n              add\n              jump(tag_222)\n            tag_220:\n              swap1\n              swap2\n              pop\n              dup2\n              swap1\n              jump(tag_221)\n            tag_203:\n              mstore(0x00, shl(0xe0, 0x4e487b71))\n              mstore(0x04, 0x00)\n              revert(0x00, 0x24)\n                /* \"contracts/IntervalContract.sol\":2417:2538  if (klines.length >= MAX_KLINES) {... */\n            tag_193:\n                /* \"contracts/IntervalContract.sol\":60:4185  contract IntervalContract {... */\n              pop\n              pop\n              pop\n              pop\n              pop\n              pop\n              pop\n              pop\n                /* \"contracts/IntervalContract.sol\":2470:2499  ContractFull(block.timestamp) */\n              0xab46f58ed46d8e5290c399fbba8ca416a8fed3a8dfc83c30486e4a90ff0564f1\n                /* \"contracts/IntervalContract.sol\":60:4185  contract IntervalContract {... */\n              0x20\n                /* \"contracts/IntervalContract.sol\":2005:2017  input.symbol */\n              0x40\n                /* \"contracts/IntervalContract.sol\":60:4185  contract IntervalContract {... */\n              mload\n                /* \"contracts/IntervalContract.sol\":2483:2498  block.timestamp */\n              timestamp\n                /* \"contracts/IntervalContract.sol\":60:4185  contract IntervalContract {... */\n              dup2\n              mstore\n                /* \"contracts/IntervalContract.sol\":2470:2499  ContractFull(block.timestamp) */\n              log1\n              0x00\n                /* \"contracts/IntervalContract.sol\":2514:2526  return false */\n              swap1\n              jump\t// out\n                /* \"contracts/IntervalContract.sol\":60:4185  contract IntervalContract {... */\n            tag_191:\n                /* \"contracts/IntervalContract.sol\":2005:2017  input.symbol */\n              0x40\n                /* \"contracts/IntervalContract.sol\":60:4185  contract IntervalContract {... */\n              mload\n              shl(0xe5, 0x461bcd)\n              dup2\n              mstore\n              0x20\n              0x04\n              dup3\n              add\n              mstore\n              0x1f\n              0x24\n              dup3\n              add\n              mstore\n              0x4f70656e20616e6420636c6f7365206d75737420626520706f73697469766500\n              0x44\n              dup3\n              add\n              mstore\n              0x64\n              swap1\n              revert\n                /* \"contracts/IntervalContract.sol\":2335:2368  input.open > 0 && input.close > 0 */\n            tag_189:\n                /* \"contracts/IntervalContract.sol\":2353:2364  input.close */\n              pop\n              0x0120\n              dup3\n              add\n                /* \"contracts/IntervalContract.sol\":60:4185  contract IntervalContract {... */\n              calldataload\n                /* \"contracts/IntervalContract.sol\":2353:2368  input.close > 0 */\n              iszero\n              iszero\n                /* \"contracts/IntervalContract.sol\":2335:2368  input.open > 0 && input.close > 0 */\n              jump(tag_190)\n                /* \"contracts/IntervalContract.sol\":60:4185  contract IntervalContract {... */\n            tag_187:\n                /* \"contracts/IntervalContract.sol\":2005:2017  input.symbol */\n              0x40\n                /* \"contracts/IntervalContract.sol\":60:4185  contract IntervalContract {... */\n              mload\n              shl(0xe5, 0x461bcd)\n              dup2\n              mstore\n              0x20\n              0x04\n              dup3\n              add\n              mstore\n              0x29\n              0x24\n              dup3\n              add\n              mstore\n              0x48696768206d7573742062652067726561746572207468616e206f7220657175\n              0x44\n              dup3\n              add\n              mstore\n              shl(0xb8, 0x616c20746f206c6f77)\n              0x64\n              dup3\n              add\n              mstore\n              0x84\n              swap1\n              revert\n            tag_185:\n                /* \"contracts/IntervalContract.sol\":2005:2017  input.symbol */\n              0x40\n                /* \"contracts/IntervalContract.sol\":60:4185  contract IntervalContract {... */\n              mload\n              shl(0xe5, 0x461bcd)\n              dup2\n              mstore\n              0x20\n              0x04\n              dup3\n              add\n              mstore\n              0x32\n              0x24\n              dup3\n              add\n              mstore\n              0x456e642074696d657374616d70206d7573742062652067726561746572207468\n              0x44\n              dup3\n              add\n              mstore\n              shl(0x74, 0x0616e2073746172742074696d657374616d7)\n              0x64\n              dup3\n              add\n              mstore\n              0x84\n              swap1\n              revert\n            tag_183:\n                /* \"contracts/IntervalContract.sol\":2005:2017  input.symbol */\n              0x40\n                /* \"contracts/IntervalContract.sol\":60:4185  contract IntervalContract {... */\n              mload\n              shl(0xe5, 0x461bcd)\n              dup2\n              mstore\n              0x20\n              0x04\n              dup3\n              add\n              mstore\n              0x2b\n              0x24\n              dup3\n              add\n              mstore\n              0x4b6c696e652073796d626f6c20646f6573206e6f74206d6174636820636f6e74\n              0x44\n              dup3\n              add\n              mstore\n              shl(0xaa, 0x1c9858dd081cde5b589bdb)\n              0x64\n              dup3\n              add\n              mstore\n              0x84\n              swap1\n              revert\n            tag_178:\n              mload(0x40)\n              shl(0xe5, 0x461bcd)\n              dup2\n              mstore\n              0x20\n              0x04\n              dup3\n              add\n              mstore\n              0x2f\n              0x24\n              dup3\n              add\n              mstore\n              0x4b6c696e6520696e74657276616c20646f6573206e6f74206d6174636820636f\n              0x44\n              dup3\n              add\n              mstore\n              shl(0x8a, 0x1b9d1c9858dd081a5b9d195c9d985b)\n              0x64\n              dup3\n              add\n              mstore\n              0x84\n              swap1\n              revert\n            tag_12:\n              0xffffffffffffffff\n              dup2\n              gt\n              tag_133\n              jumpi\n              0x05\n              shl\n              0x20\n              add\n              swap1\n              jump\t// out\n            tag_13:\n              dup1\n              mload\n              dup3\n              lt\n              iszero\n              tag_127\n              jumpi\n              0x20\n              swap2\n              0x05\n              shl\n              add\n              add\n              swap1\n              jump\t// out\n\n            auxdata: 0xa26469706673582212206fa8d20160d45d68809cf1ede72067351213a54a0906da81d4b183327cfa86c164736f6c634300081e0033\n        }\n    }\n\n    auxdata: 0xa26469706673582212201995ca879b3f8e538f0aa8a61412b31d4e68d6a0876fa8c9818d7652fb6fe28964736f6c634300081e0033\n}\n",
				"bytecode": {
					"linkReferences": {},
					"object": "60808060405234602757600280546001600160a01b03191633179055612aee908161002c8239f35b5f80fdfe60806040526004361015610011575f80fd5b5f3560e01c806306d3dc5214610f995780636eb350cf14610ee65780638da5cb5b14610ebe578063a545932114610834578063a6b5dea2146101605763c1d13ebc1461005b575f80fd5b3461015c57602036600319011261015c576004356001600160401b03811161015c57602061008e819236906004016110cb565b604051928184925191829101835e810160018152030190208054906100b28261141e565b916100c06040519384611059565b8083526020830180925f5260205f205f915b83831061013f57848660405191829160208301906020845251809152604083019060408160051b85010192915f905b82821061011057505050500390f35b9193600191939550602061012f8192603f198a82030186528851611209565b9601920192018594939192610101565b60016020819261014e85611169565b8152019201920191906100d2565b5f80fd5b3461015c5760a036600319011261015c576004356001600160401b03811161015c576101909036906004016110cb565b6024356001600160401b03811161015c576101af9036906004016110cb565b604435606435926084359282156107e55782851061078357831561073e5760405182516101f093602091839181908401835e81015f815203019020906110e9565b9081546101fc8161141e565b9261020a6040519485611059565b81845260208401905f5260205f205f915b83831061070057505050508151156106bc575f915f5b81518110156103a2576001600160a01b0361024c8284611435565b51511660405163245d72c960e11b8152602081600481855afa908115610352575f91610371575b5080610284575b5050600101610231565b92969195909391925f19810190811161035d575f90604460405180978193633eeb457760e21b835285600484015260248301525afa938415610352575f9461032e575b505f5b845181101561031e57826102de8287611435565b5151101580610309575b6102f5575b6001016102ca565b946103016001916115f5565b9590506102ed565b50836103158287611435565b515111156102e8565b509195919490925060018761027a565b61034b9194503d805f833e6103438183611059565b810190611449565b92876102c7565b6040513d5f823e3d90fd5b634e487b7160e01b5f52601160045260245ffd5b90506020813d821161039a575b8161038b60209383611059565b8101031261015c575188610273565b3d915061037e565b50838584828110156106b2576103b790611603565b905f9084515b801515806106a9575b1561055d575f19810181811161035d576001600160a01b03906103e99088611435565b51511660405163245d72c960e11b8152602081600481855afa908115610352575f9161052c575b5080610427575b5050610422906116b4565b6103bd565b5f97919495969719810190811161035d575f90604460405180978193633eeb457760e21b835285600484015260248301525afa938415610352575f94610510575b5083515b80151580610507575b156104f8575f19810181811161035d57896104908288611435565b51511015806104e3575b6104ae575b506104a9906116b4565b61046c565b6104a991966104c06104dc9288611435565b516104cb828b611435565b526104d6818a611435565b506115f5565b959061049f565b50846104ef8288611435565b5151111561049a565b50959493925061042288610417565b50878610610475565b6105259194503d805f833e6103438183611059565b9288610468565b90506020813d8211610555575b8161054660209383611059565b8101031261015c575189610410565b3d9150610539565b505061056881611603565b915f5b82811061067f57836040518091602082016020835281518091526040830190602060408260051b8601019301915f905b8282106105aa57505050500390f35b919360019193955060208091603f198982030185528751908151815282820151838201526101c0806105ed60408501516101e060408601526101e0850190611209565b93606081015160608501526080810151608085015260a081015160a085015260c081015160c085015260e081015160e085015261010081015161010085015261012081015161012085015261014081015161014085015261016081015115156101608501526101808101516101808501526101a08101516101a08501520151910152960192019201859493919261059b565b8061068c60019284611435565b516106978287611435565b526106a28186611435565b500161056b565b508483106103c6565b506103b782611603565b606460405162461bcd60e51b815260206004820152602060248201527f53796d626f6c206f7220696e74657276616c206e6f7420737570706f727465646044820152fd5b6003602060019260405161071381611022565b848060a01b03865416815284860154838201526002860154604082015281520192019201919061021b565b60405162461bcd60e51b815260206004820152601c60248201527f4c696d6974206d7573742062652067726561746572207468616e2030000000006044820152606490fd5b60405162461bcd60e51b815260206004820152603460248201527f456e642074696d65206d7573742062652067726561746572207468616e206f7260448201527320657175616c20746f2073746172742074696d6560601b6064820152608490fd5b60405162461bcd60e51b815260206004820152602160248201527f53746172742074696d65206d7573742062652067726561746572207468616e206044820152600360fc1b6064820152608490fd5b3461015c57606036600319011261015c576004356001600160401b03811161015c576108649036906004016110cb565b6024356001600160401b03811161015c576108839036906004016110cb565b604435906001600160401b03821161015c578160040190610200600319843603011261015c576002546001600160a01b03163303610e6f576108d26108cb6044850184611246565b3691611095565b60208151910120928451936020860194852003610e2a576108cb60646108f9920184611246565b60208151910120928151936020830194852003610de55760405160208187518085835e810160018152030190205415610da7575b5f935f5b60405160208189518087835e8101600181520301902054811015610d9d5761096e816040516020818b518089835e81016001815203019020611108565b50604051815491815f61098085611131565b9283835260208301956001811690815f14610d7e5750600114610d3c575b506109ab92500382611059565b51902084518320146109bf57600101610931565b50509091925060015b15610b91575b6109ee906020604051809287518091835e81015f815203019020826110e9565b80545f19810190811161035d57610a05908261122d565b50805460405163c3e3bfe560e01b81529194919060209082906001600160a01b0316815f81610a3788600483016112d6565b03925af1908115610352575f91610b57575b5015610a5157005b610a96610a6b610ab2945f976020976002429101556116e5565b60405190610a7882611022565b6001600160a01b0316808252428783015260408201889052936113c6565b60405194858094819363c3e3bfe560e01b8352600483016112d6565b03925af1908115610352575f91610b1d575b5015610acc57005b60405162461bcd60e51b815260206004820152602360248201527f4661696c656420746f20616464206b6c696e6520746f206e657720636f6e74726044820152621858dd60ea1b6064820152608490fd5b90506020813d602011610b4f575b81610b3860209383611059565b8101031261015c57610b4990611278565b81610ac4565b3d9150610b2b565b90506020813d602011610b89575b81610b7260209383611059565b8101031261015c57610b8390611278565b86610a49565b3d9150610b65565b60405160208186518085835e810160018152030190208054600160401b811015610d1557610bc491600182018155611108565b610d295782516001600160401b038111610d1557610be28254611131565b601f8111610cd0575b506020601f8211600114610c6b5790806109ee9493925f91610c60575b508160011b915f199060031b1c19161790555b7f5671901caf56cb468a835871d9c8a8bc0a23bbd0de3c1f2dad4d600a16c002e060405180610c4b8689836116c0565b0390a1610c5883866116e5565b5090506109ce565b905085015188610c08565b601f19821690835f52805f20915f5b818110610cb857509183916109ee96959460019410610ca0575b5050811b019055610c1b565b8701515f1960f88460031b161c191690558880610c94565b9192602060018192868b015181550194019201610c7a565b825f5260205f20601f830160051c81019160208410610d0b575b601f0160051c01905b818110610d005750610beb565b5f8155600101610cf3565b9091508190610cea565b634e487b7160e01b5f52604160045260245ffd5b634e487b7160e01b5f525f60045260245ffd5b9150505f528160205f20915f925b818410610d6257505060206109ab928201018c61099e565b6020919250806001915483868801015201920191908391610d4a565b60ff19168752506109ab93151560051b830160200191508d905061099e565b50509091926109c8565b7fae3b5c36aac7a976408c9f08dbfdda7ce98db5c64f471ad540ffe305db0d9b0b6040516020815280610ddd6020820189611209565b0390a161092d565b60405162461bcd60e51b815260206004820152601d60248201527f4b6c696e6520696e74657276616c20646f6573206e6f74206d617463680000006044820152606490fd5b60405162461bcd60e51b815260206004820152601b60248201527f4b6c696e652073796d626f6c20646f6573206e6f74206d6174636800000000006044820152606490fd5b60405162461bcd60e51b815260206004820152602160248201527f4f6e6c79206f776e65722063616e2063616c6c20746869732066756e6374696f6044820152603760f91b6064820152608490fd5b3461015c575f36600319011261015c576002546040516001600160a01b039091168152602090f35b3461015c57606036600319011261015c576004356001600160401b03811161015c57610f169036906004016110cb565b6024356001600160401b03811161015c57610f38610f5b9136906004016110cb565b604051835160443594602091839181908401835e81015f815203019020906110e9565b805482101561015c57606091610f709161122d565b5060018060a01b0381541690600260018201549101549060405192835260208301526040820152f35b3461015c57604036600319011261015c576004356001600160401b03811161015c57610fc99036906004016110cb565b604051815160243592602091839181908401835e8101600181520301902090815481101561015c57610ffa91611108565b610d295761100a61101e91611169565b604051918291602083526020830190611209565b0390f35b606081019081106001600160401b03821117610d1557604052565b6101e081019081106001600160401b03821117610d1557604052565b90601f801991011681019081106001600160401b03821117610d1557604052565b6001600160401b038111610d1557601f01601f191660200190565b9291926110a18261107a565b916110af6040519384611059565b82948184528183011161015c578281602093845f960137010152565b9080601f8301121561015c578160206110e693359101611095565b90565b6040518151909260209284929081908501845e82019081520301902090565b805482101561111d575f5260205f2001905f90565b634e487b7160e01b5f52603260045260245ffd5b90600182811c9216801561115f575b602083101461114b57565b634e487b7160e01b5f52602260045260245ffd5b91607f1691611140565b9060405191825f82549261117c84611131565b80845293600181169081156111e757506001146111a3575b506111a192500383611059565b565b90505f9291925260205f20905f915b8183106111cb5750509060206111a1928201015f611194565b60209193508060019154838589010152019101909184926111b2565b9050602092506111a194915060ff191682840152151560051b8201015f611194565b805180835260209291819084018484015e5f828201840152601f01601f1916010190565b805482101561111d575f52600360205f20910201905f90565b903590601e198136030182121561015c57018035906001600160401b03821161015c5760200191813603831361015c57565b5190811515820361015c57565b9035601e198236030181121561015c5701602081359101916001600160401b03821161015c57813603831361015c57565b908060209392818452848401375f828201840152601f01601f1916010190565b6020815281356020820152602082013560408201526113306113116112fe6040850185611285565b61020060608601526102208501916112b6565b61131e6060850185611285565b848303601f19016080860152906112b6565b91608081013560a083015260a081013560c083015260c081013560e083015260e081013561010083015261010081013561012083015261012081013561014083015261014081013561016083015261016081013561018083015261018081013580151580910361015c57610200916101e0916101a08501526101a08101356101c08501526101c081013582850152013591015290565b8054600160401b811015610d15576113e39160018201815561122d565b919091610d2957805182546001600160a01b0319166001600160a01b0391909116178255602081015160018301556040015160029190910155565b6001600160401b038111610d155760051b60200190565b805182101561111d5760209160051b010190565b60208183031261015c578051906001600160401b03821161015c57019080601f8301121561015c5781519161147d8361141e565b9261148b6040519485611059565b80845260208085019160051b8301019183831161015c5760208101915b8383106114b757505050505090565b82516001600160401b03811161015c578201906101e0828703601f19011261015c57604051906114e68261103d565b602083015182526040830151602083015260608301516001600160401b03811161015c576020908401019187601f8401121561015c578251926115288461107a565b946115366040519687611059565b848652896020868401011161015c576020955f87878198826101e097018386015e8301015260408401526080810151606084015260a0810151608084015260c081015160a084015260e081015160c084015261010081015160e08401526101208101516101008401526101408101516101208401526101608101516101408401526115c46101808201611278565b6101608401526101a08101516101808401526101c08101516101a084015201516101c08201528152019201916114a8565b5f19811461035d5760010190565b9061160d8261141e565b61161a6040519182611059565b828152809261162b601f199161141e565b01905f5b82811061163b57505050565b60209060405161164a8161103d565b5f81525f83820152606060408201525f60608201525f60808201525f60a08201525f60c08201525f60e08201525f6101008201525f6101208201525f6101408201525f6101608201525f6101808201525f6101a08201525f6101c08201528282850101520161162f565b801561035d575f190190565b90916116d76110e693604084526040840190611209565b916020818403910152611209565b6040516112f3808201908282106001600160401b03831117610d155784848493611713936117c686396116c0565b03905ff0918215610352577ff0a27a0c7aa8aa9b3d56ef0311f5f23644bc8e7b6618707c3bc42b30afa97cb7916117b96117ab9261179761176a604051602081875180838a01835e81015f815203019020836110e9565b6040516001600160a01b03909816979061178382611022565b8882524260208301525f60408301526113c6565b604051938493606085526060850190611209565b908382036020850152611209565b8460408301520390a19056fe608060405234610322576112f38038038061001981610326565b9283398101906040818303126103225780516001600160401b038111610322578261004591830161034b565b60208201519092906001600160401b03811161032257610065920161034b565b600180546001600160a01b0319163317905581516001600160401b03811161023557600254600181811c91168015610318575b602082101461021757601f81116102b5575b50602092601f821160011461025457928192935f92610249575b50508160011b915f199060031b1c1916176002555b80516001600160401b03811161023557600354600181811c9116801561022b575b602082101461021757601f81116101b4575b50602091601f8211600114610154579181925f92610149575b50508160011b915f199060031b1c1916176003555b604051610f56908161039d8239f35b015190505f80610125565b601f1982169260035f52805f20915f5b85811061019c57508360019510610184575b505050811b0160035561013a565b01515f1960f88460031b161c191690555f8080610176565b91926020600181928685015181550194019201610164565b60035f527fc2575a0e9e593c00f959f8c92f12db2869c3395a3b0502d05e2516446f71f85b601f830160051c8101916020841061020d575b601f0160051c01905b818110610202575061010c565b5f81556001016101f5565b90915081906101ec565b634e487b7160e01b5f52602260045260245ffd5b90607f16906100fa565b634e487b7160e01b5f52604160045260245ffd5b015190505f806100c4565b601f1982169360025f52805f20915f5b86811061029d5750836001959610610285575b505050811b016002556100d9565b01515f1960f88460031b161c191690555f8080610277565b91926020600181928685015181550194019201610264565b60025f527f405787fa12a823e0f2b7631cc41b3ba8828b3321ca811111fa75cd3aa3bb5ace601f830160051c8101916020841061030e575b601f0160051c01905b81811061030357506100aa565b5f81556001016102f6565b90915081906102ed565b90607f1690610098565b5f80fd5b6040519190601f01601f191682016001600160401b0381118382101761023557604052565b81601f82011215610322578051906001600160401b0382116102355761037a601f8301601f1916602001610326565b928284526020838301011161032257815f9260208093018386015e830101529056fe60806040526004361015610011575f80fd5b5f3560e01c806315070401146104dc57806336b275e91461063757806348bae5921461061b5780636cfcdca71461052a57806391ad27b41461050f578063947a36fb1461050f57806395d89b41146104dc578063c3e3bfe51461042f578063c45a0155146104075763fbad15dc14610087575f80fd5b3461040357604036600319011261040357600435602435905f54808210156103c8578183101590816103be575b5015610385578082039182116102f857600182018092116102f8576100d882610ef4565b916100e6604051938461072b565b808352601f196100f582610ef4565b015f5b81811061030c5750505f5b81811061021757836040518091602082016020835281518091526040830190602060408260051b8601019301915f905b82821061014257505050500390f35b919360019193955060208091603f198982030185528751908151815282820151838201526101c08061018560408501516101e060408601526101e0850190610652565b93606081015160608501526080810151608085015260a081015160a085015260c081015160c085015260e081015160e085015261010081015161010085015261012081015161012085015261014081015161014085015261016081015115156101608501526101808101516101808501526101a08101516101a085015201519101529601920192018594939192610133565b808301908184116102f85761022d600192610676565b50600e6040519161023d836106fa565b8054835284810154602084015261025660028201610899565b60408401526003810154606084015260048101546080840152600581015460a0840152600681015460c0840152600781015460e084015260088101546101008401526009810154610120840152600a81015461014084015260ff600b820154161515610160840152600c810154610180840152600d8101546101a084015201546101c08201526102e68287610f0c565b526102f18186610f0c565b5001610103565b634e487b7160e01b5f52601160045260245ffd5b60209060405161031b816106fa565b5f81525f83820152606060408201525f60608201525f60808201525f60a08201525f60c08201525f60e08201525f6101008201525f6101208201525f6101408201525f6101608201525f6101808201525f6101a08201525f6101c0820152828288010152016100f8565b60405162461bcd60e51b8152602060048201526011602482015270092dcecc2d8d2c840cadcc840d2dcc8caf607b1b6044820152606490fd5b905082105f6100b4565b60405162461bcd60e51b8152602060048201526013602482015272092dcecc2d8d2c840e6e8c2e4e840d2dcc8caf606b1b6044820152606490fd5b5f80fd5b34610403575f366003190112610403576001546040516001600160a01b039091168152602090f35b346104035760203660031901126104035760043567ffffffffffffffff8111610403576102006003198236030112610403576001546001600160a01b0316330361048b576104816020916004016109b0565b6040519015158152f35b60405162461bcd60e51b815260206004820152602360248201527f4f6e6c7920466163746f72792063616e2063616c6c20746869732066756e637460448201526234b7b760e91b6064820152608490fd5b34610403575f3660031901126104035761050b6104f761074d565b604051918291602083526020830190610652565b0390f35b34610403575f3660031901126104035761050b6104f7610804565b34610403576020366003190112610403576004355f548110156104035761055090610676565b50805460018201549061056560028401610899565b9260038101549060048101546005820154600683015460078401546008850154600986015491600a87015493600b88015460ff1695600c89015497600d8a015499600e01549a6040519e8f9e8f9e8f908152602001528d604081016101e090526101e0016105d291610652565b9c6060015260808d015260a08c015260c08b015260e08a015261010089015261012088015261014087015215156101608601526101808501526101a08401526101c08301520390f35b34610403575f3660031901126104035760205f54604051908152f35b34610403575f36600319011261040357602060405160028152f35b805180835260209291819084018484015e5f828201840152601f01601f1916010190565b5f548110156106ae575f808052600f919091027f290decd9548b62a8d60345a988386fc84ba6bc95484008f6362f93160ef3e5630191565b634e487b7160e01b5f52603260045260245ffd5b90600182811c921680156106f0575b60208310146106dc57565b634e487b7160e01b5f52602260045260245ffd5b91607f16916106d1565b6101e0810190811067ffffffffffffffff82111761071757604052565b634e487b7160e01b5f52604160045260245ffd5b90601f8019910116810190811067ffffffffffffffff82111761071757604052565b604051905f8260025491610760836106c2565b80835292600181169081156107e55750600114610786575b6107849250038361072b565b565b5060025f90815290917f405787fa12a823e0f2b7631cc41b3ba8828b3321ca811111fa75cd3aa3bb5ace5b8183106107c957505090602061078492820101610778565b60209193508060019154838589010152019101909184926107b1565b6020925061078494915060ff191682840152151560051b820101610778565b604051905f8260035491610817836106c2565b80835292600181169081156107e5575060011461083a576107849250038361072b565b5060035f90815290917fc2575a0e9e593c00f959f8c92f12db2869c3395a3b0502d05e2516446f71f85b5b81831061087d57505090602061078492820101610778565b6020919350806001915483858901015201910190918492610865565b9060405191825f8254926108ac846106c2565b808452936001811690811561091557506001146108d1575b506107849250038361072b565b90505f9291925260205f20905f915b8183106108f9575050906020610784928201015f6108c4565b60209193508060019154838589010152019101909184926108e0565b90506020925061078494915060ff191682840152151560051b8201015f6108c4565b903590601e1981360301821215610403570180359067ffffffffffffffff82116104035760200191813603831361040357565b92919267ffffffffffffffff82116107175760405191610994601f8201601f19166020018461072b565b829481845281830111610403578281602093845f960137010152565b6109c76109c06060830183610937565b369161096a565b602081519101206109d6610804565b6020815191012003610e975760408101906109f46109c08383610937565b60208151910120610a0361074d565b6020815191012003610e3e5780359060208101359283831015610dde5760e082013561010083013592838210610d875760c08101359384151580610d79575b15610d34575f54936002851015610cfe57610a5d9083610937565b91909361018084013592831515809403610403576101e095610a96916040519a610a868c6106fa565b8b5260208b019b8c52369161096a565b9660408901978852608085013560608a015260a085013560808a015260a089015260c088015260e08701526101208201356101008701526101408201356101208701526101608201356101408701526101608601526101a08101356101808601526101c08101356101a086015201356101c08401526801000000000000000081101561071757806001610b2b92015f55610676565b939093610ceb57825184555160018401555180519067ffffffffffffffff821161071757610b5c60028501546106c2565b601f8111610ca3575b50602090601f8311600114610c32579180600e94926101c0945f92610c27575b50508160011b915f199060031b1c19161760028501555b606081015160038501556080810151600485015560a0810151600585015560c0810151600685015560e0810151600785015561010081015160088501556101208101516009850155610140810151600a850155600b8401610160820151151560ff80198354169116179055610180810151600c8501556101a0810151600d8501550151910155600190565b015190505f80610b85565b90600285015f52805f20915f5b601f1985168110610c8b575092600e94926001926101c09583601f19811610610c73575b505050811b016002850155610b9c565b01515f1960f88460031b161c191690555f8080610c63565b91926020600181928685015181550194019201610c3f565b600285015f5260205f20601f840160051c81019160208510610ce1575b601f0160051c01905b818110610cd65750610b65565b5f8155600101610cc9565b9091508190610cc0565b634e487b7160e01b5f525f60045260245ffd5b50505050505050507fab46f58ed46d8e5290c399fbba8ca416a8fed3a8dfc83c30486e4a90ff0564f16020604051428152a15f90565b60405162461bcd60e51b815260206004820152601f60248201527f4f70656e20616e6420636c6f7365206d75737420626520706f736974697665006044820152606490fd5b506101208201351515610a42565b60405162461bcd60e51b815260206004820152602960248201527f48696768206d7573742062652067726561746572207468616e206f7220657175604482015268616c20746f206c6f7760b81b6064820152608490fd5b60405162461bcd60e51b815260206004820152603260248201527f456e642074696d657374616d70206d75737420626520677265617465722074686044820152710616e2073746172742074696d657374616d760741b6064820152608490fd5b60405162461bcd60e51b815260206004820152602b60248201527f4b6c696e652073796d626f6c20646f6573206e6f74206d6174636820636f6e7460448201526a1c9858dd081cde5b589bdb60aa1b6064820152608490fd5b60405162461bcd60e51b815260206004820152602f60248201527f4b6c696e6520696e74657276616c20646f6573206e6f74206d6174636820636f60448201526e1b9d1c9858dd081a5b9d195c9d985b608a1b6064820152608490fd5b67ffffffffffffffff81116107175760051b60200190565b80518210156106ae5760209160051b01019056fea26469706673582212206fa8d20160d45d68809cf1ede72067351213a54a0906da81d4b183327cfa86c164736f6c634300081e0033a26469706673582212201995ca879b3f8e538f0aa8a61412b31d4e68d6a0876fa8c9818d7652fb6fe28964736f6c634300081e0033",
					"opcodes": "PUSH1 0x80 DUP1 PUSH1 0x40 MSTORE CALLVALUE PUSH1 0x27 JUMPI PUSH1 0x2 DUP1 SLOAD PUSH1 0x1 PUSH1 0x1 PUSH1 0xA0 SHL SUB NOT AND CALLER OR SWAP1 SSTORE PUSH2 0x2AEE SWAP1 DUP2 PUSH2 0x2C DUP3 CODECOPY RETURN JUMPDEST PUSH0 DUP1 REVERT INVALID PUSH1 0x80 PUSH1 0x40 MSTORE PUSH1 0x4 CALLDATASIZE LT ISZERO PUSH2 0x11 JUMPI PUSH0 DUP1 REVERT JUMPDEST PUSH0 CALLDATALOAD PUSH1 0xE0 SHR DUP1 PUSH4 0x6D3DC52 EQ PUSH2 0xF99 JUMPI DUP1 PUSH4 0x6EB350CF EQ PUSH2 0xEE6 JUMPI DUP1 PUSH4 0x8DA5CB5B EQ PUSH2 0xEBE JUMPI DUP1 PUSH4 0xA5459321 EQ PUSH2 0x834 JUMPI DUP1 PUSH4 0xA6B5DEA2 EQ PUSH2 0x160 JUMPI PUSH4 0xC1D13EBC EQ PUSH2 0x5B JUMPI PUSH0 DUP1 REVERT JUMPDEST CALLVALUE PUSH2 0x15C JUMPI PUSH1 0x20 CALLDATASIZE PUSH1 0x3 NOT ADD SLT PUSH2 0x15C JUMPI PUSH1 0x4 CALLDATALOAD PUSH1 0x1 PUSH1 0x1 PUSH1 0x40 SHL SUB DUP2 GT PUSH2 0x15C JUMPI PUSH1 0x20 PUSH2 0x8E DUP2 SWAP3 CALLDATASIZE SWAP1 PUSH1 0x4 ADD PUSH2 0x10CB JUMP JUMPDEST PUSH1 0x40 MLOAD SWAP3 DUP2 DUP5 SWAP3 MLOAD SWAP2 DUP3 SWAP2 ADD DUP4 MCOPY DUP2 ADD PUSH1 0x1 DUP2 MSTORE SUB ADD SWAP1 KECCAK256 DUP1 SLOAD SWAP1 PUSH2 0xB2 DUP3 PUSH2 0x141E JUMP JUMPDEST SWAP2 PUSH2 0xC0 PUSH1 0x40 MLOAD SWAP4 DUP5 PUSH2 0x1059 JUMP JUMPDEST DUP1 DUP4 MSTORE PUSH1 0x20 DUP4 ADD DUP1 SWAP3 PUSH0 MSTORE PUSH1 0x20 PUSH0 KECCAK256 PUSH0 SWAP2 JUMPDEST DUP4 DUP4 LT PUSH2 0x13F JUMPI DUP5 DUP7 PUSH1 0x40 MLOAD SWAP2 DUP3 SWAP2 PUSH1 0x20 DUP4 ADD SWAP1 PUSH1 0x20 DUP5 MSTORE MLOAD DUP1 SWAP2 MSTORE PUSH1 0x40 DUP4 ADD SWAP1 PUSH1 0x40 DUP2 PUSH1 0x5 SHL DUP6 ADD ADD SWAP3 SWAP2 PUSH0 SWAP1 JUMPDEST DUP3 DUP3 LT PUSH2 0x110 JUMPI POP POP POP POP SUB SWAP1 RETURN JUMPDEST SWAP2 SWAP4 PUSH1 0x1 SWAP2 SWAP4 SWAP6 POP PUSH1 0x20 PUSH2 0x12F DUP2 SWAP3 PUSH1 0x3F NOT DUP11 DUP3 SUB ADD DUP7 MSTORE DUP9 MLOAD PUSH2 0x1209 JUMP JUMPDEST SWAP7 ADD SWAP3 ADD SWAP3 ADD DUP6 SWAP5 SWAP4 SWAP2 SWAP3 PUSH2 0x101 JUMP JUMPDEST PUSH1 0x1 PUSH1 0x20 DUP2 SWAP3 PUSH2 0x14E DUP6 PUSH2 0x1169 JUMP JUMPDEST DUP2 MSTORE ADD SWAP3 ADD SWAP3 ADD SWAP2 SWAP1 PUSH2 0xD2 JUMP JUMPDEST PUSH0 DUP1 REVERT JUMPDEST CALLVALUE PUSH2 0x15C JUMPI PUSH1 0xA0 CALLDATASIZE PUSH1 0x3 NOT ADD SLT PUSH2 0x15C JUMPI PUSH1 0x4 CALLDATALOAD PUSH1 0x1 PUSH1 0x1 PUSH1 0x40 SHL SUB DUP2 GT PUSH2 0x15C JUMPI PUSH2 0x190 SWAP1 CALLDATASIZE SWAP1 PUSH1 0x4 ADD PUSH2 0x10CB JUMP JUMPDEST PUSH1 0x24 CALLDATALOAD PUSH1 0x1 PUSH1 0x1 PUSH1 0x40 SHL SUB DUP2 GT PUSH2 0x15C JUMPI PUSH2 0x1AF SWAP1 CALLDATASIZE SWAP1 PUSH1 0x4 ADD PUSH2 0x10CB JUMP JUMPDEST PUSH1 0x44 CALLDATALOAD PUSH1 0x64 CALLDATALOAD SWAP3 PUSH1 0x84 CALLDATALOAD SWAP3 DUP3 ISZERO PUSH2 0x7E5 JUMPI DUP3 DUP6 LT PUSH2 0x783 JUMPI DUP4 ISZERO PUSH2 0x73E JUMPI PUSH1 0x40 MLOAD DUP3 MLOAD PUSH2 0x1F0 SWAP4 PUSH1 0x20 SWAP2 DUP4 SWAP2 DUP2 SWAP1 DUP5 ADD DUP4 MCOPY DUP2 ADD PUSH0 DUP2 MSTORE SUB ADD SWAP1 KECCAK256 SWAP1 PUSH2 0x10E9 JUMP JUMPDEST SWAP1 DUP2 SLOAD PUSH2 0x1FC DUP2 PUSH2 0x141E JUMP JUMPDEST SWAP3 PUSH2 0x20A PUSH1 0x40 MLOAD SWAP5 DUP6 PUSH2 0x1059 JUMP JUMPDEST DUP2 DUP5 MSTORE PUSH1 0x20 DUP5 ADD SWAP1 PUSH0 MSTORE PUSH1 0x20 PUSH0 KECCAK256 PUSH0 SWAP2 JUMPDEST DUP4 DUP4 LT PUSH2 0x700 JUMPI POP POP POP POP DUP2 MLOAD ISZERO PUSH2 0x6BC JUMPI PUSH0 SWAP2 PUSH0 JUMPDEST DUP2 MLOAD DUP2 LT ISZERO PUSH2 0x3A2 JUMPI PUSH1 0x1 PUSH1 0x1 PUSH1 0xA0 SHL SUB PUSH2 0x24C DUP3 DUP5 PUSH2 0x1435 JUMP JUMPDEST MLOAD MLOAD AND PUSH1 0x40 MLOAD PUSH4 0x245D72C9 PUSH1 0xE1 SHL DUP2 MSTORE PUSH1 0x20 DUP2 PUSH1 0x4 DUP2 DUP6 GAS STATICCALL SWAP1 DUP2 ISZERO PUSH2 0x352 JUMPI PUSH0 SWAP2 PUSH2 0x371 JUMPI JUMPDEST POP DUP1 PUSH2 0x284 JUMPI JUMPDEST POP POP PUSH1 0x1 ADD PUSH2 0x231 JUMP JUMPDEST SWAP3 SWAP7 SWAP2 SWAP6 SWAP1 SWAP4 SWAP2 SWAP3 PUSH0 NOT DUP2 ADD SWAP1 DUP2 GT PUSH2 0x35D JUMPI PUSH0 SWAP1 PUSH1 0x44 PUSH1 0x40 MLOAD DUP1 SWAP8 DUP2 SWAP4 PUSH4 0x3EEB4577 PUSH1 0xE2 SHL DUP4 MSTORE DUP6 PUSH1 0x4 DUP5 ADD MSTORE PUSH1 0x24 DUP4 ADD MSTORE GAS STATICCALL SWAP4 DUP5 ISZERO PUSH2 0x352 JUMPI PUSH0 SWAP5 PUSH2 0x32E JUMPI JUMPDEST POP PUSH0 JUMPDEST DUP5 MLOAD DUP2 LT ISZERO PUSH2 0x31E JUMPI DUP3 PUSH2 0x2DE DUP3 DUP8 PUSH2 0x1435 JUMP JUMPDEST MLOAD MLOAD LT ISZERO DUP1 PUSH2 0x309 JUMPI JUMPDEST PUSH2 0x2F5 JUMPI JUMPDEST PUSH1 0x1 ADD PUSH2 0x2CA JUMP JUMPDEST SWAP5 PUSH2 0x301 PUSH1 0x1 SWAP2 PUSH2 0x15F5 JUMP JUMPDEST SWAP6 SWAP1 POP PUSH2 0x2ED JUMP JUMPDEST POP DUP4 PUSH2 0x315 DUP3 DUP8 PUSH2 0x1435 JUMP JUMPDEST MLOAD MLOAD GT ISZERO PUSH2 0x2E8 JUMP JUMPDEST POP SWAP2 SWAP6 SWAP2 SWAP5 SWAP1 SWAP3 POP PUSH1 0x1 DUP8 PUSH2 0x27A JUMP JUMPDEST PUSH2 0x34B SWAP2 SWAP5 POP RETURNDATASIZE DUP1 PUSH0 DUP4 RETURNDATACOPY PUSH2 0x343 DUP2 DUP4 PUSH2 0x1059 JUMP JUMPDEST DUP2 ADD SWAP1 PUSH2 0x1449 JUMP JUMPDEST SWAP3 DUP8 PUSH2 0x2C7 JUMP JUMPDEST PUSH1 0x40 MLOAD RETURNDATASIZE PUSH0 DUP3 RETURNDATACOPY RETURNDATASIZE SWAP1 REVERT JUMPDEST PUSH4 0x4E487B71 PUSH1 0xE0 SHL PUSH0 MSTORE PUSH1 0x11 PUSH1 0x4 MSTORE PUSH1 0x24 PUSH0 REVERT JUMPDEST SWAP1 POP PUSH1 0x20 DUP2 RETURNDATASIZE DUP3 GT PUSH2 0x39A JUMPI JUMPDEST DUP2 PUSH2 0x38B PUSH1 0x20 SWAP4 DUP4 PUSH2 0x1059 JUMP JUMPDEST DUP2 ADD SUB SLT PUSH2 0x15C JUMPI MLOAD DUP9 PUSH2 0x273 JUMP JUMPDEST RETURNDATASIZE SWAP2 POP PUSH2 0x37E JUMP JUMPDEST POP DUP4 DUP6 DUP5 DUP3 DUP2 LT ISZERO PUSH2 0x6B2 JUMPI PUSH2 0x3B7 SWAP1 PUSH2 0x1603 JUMP JUMPDEST SWAP1 PUSH0 SWAP1 DUP5 MLOAD JUMPDEST DUP1 ISZERO ISZERO DUP1 PUSH2 0x6A9 JUMPI JUMPDEST ISZERO PUSH2 0x55D JUMPI PUSH0 NOT DUP2 ADD DUP2 DUP2 GT PUSH2 0x35D JUMPI PUSH1 0x1 PUSH1 0x1 PUSH1 0xA0 SHL SUB SWAP1 PUSH2 0x3E9 SWAP1 DUP9 PUSH2 0x1435 JUMP JUMPDEST MLOAD MLOAD AND PUSH1 0x40 MLOAD PUSH4 0x245D72C9 PUSH1 0xE1 SHL DUP2 MSTORE PUSH1 0x20 DUP2 PUSH1 0x4 DUP2 DUP6 GAS STATICCALL SWAP1 DUP2 ISZERO PUSH2 0x352 JUMPI PUSH0 SWAP2 PUSH2 0x52C JUMPI JUMPDEST POP DUP1 PUSH2 0x427 JUMPI JUMPDEST POP POP PUSH2 0x422 SWAP1 PUSH2 0x16B4 JUMP JUMPDEST PUSH2 0x3BD JUMP JUMPDEST PUSH0 SWAP8 SWAP2 SWAP5 SWAP6 SWAP7 SWAP8 NOT DUP2 ADD SWAP1 DUP2 GT PUSH2 0x35D JUMPI PUSH0 SWAP1 PUSH1 0x44 PUSH1 0x40 MLOAD DUP1 SWAP8 DUP2 SWAP4 PUSH4 0x3EEB4577 PUSH1 0xE2 SHL DUP4 MSTORE DUP6 PUSH1 0x4 DUP5 ADD MSTORE PUSH1 0x24 DUP4 ADD MSTORE GAS STATICCALL SWAP4 DUP5 ISZERO PUSH2 0x352 JUMPI PUSH0 SWAP5 PUSH2 0x510 JUMPI JUMPDEST POP DUP4 MLOAD JUMPDEST DUP1 ISZERO ISZERO DUP1 PUSH2 0x507 JUMPI JUMPDEST ISZERO PUSH2 0x4F8 JUMPI PUSH0 NOT DUP2 ADD DUP2 DUP2 GT PUSH2 0x35D JUMPI DUP10 PUSH2 0x490 DUP3 DUP9 PUSH2 0x1435 JUMP JUMPDEST MLOAD MLOAD LT ISZERO DUP1 PUSH2 0x4E3 JUMPI JUMPDEST PUSH2 0x4AE JUMPI JUMPDEST POP PUSH2 0x4A9 SWAP1 PUSH2 0x16B4 JUMP JUMPDEST PUSH2 0x46C JUMP JUMPDEST PUSH2 0x4A9 SWAP2 SWAP7 PUSH2 0x4C0 PUSH2 0x4DC SWAP3 DUP9 PUSH2 0x1435 JUMP JUMPDEST MLOAD PUSH2 0x4CB DUP3 DUP12 PUSH2 0x1435 JUMP JUMPDEST MSTORE PUSH2 0x4D6 DUP2 DUP11 PUSH2 0x1435 JUMP JUMPDEST POP PUSH2 0x15F5 JUMP JUMPDEST SWAP6 SWAP1 PUSH2 0x49F JUMP JUMPDEST POP DUP5 PUSH2 0x4EF DUP3 DUP9 PUSH2 0x1435 JUMP JUMPDEST MLOAD MLOAD GT ISZERO PUSH2 0x49A JUMP JUMPDEST POP SWAP6 SWAP5 SWAP4 SWAP3 POP PUSH2 0x422 DUP9 PUSH2 0x417 JUMP JUMPDEST POP DUP8 DUP7 LT PUSH2 0x475 JUMP JUMPDEST PUSH2 0x525 SWAP2 SWAP5 POP RETURNDATASIZE DUP1 PUSH0 DUP4 RETURNDATACOPY PUSH2 0x343 DUP2 DUP4 PUSH2 0x1059 JUMP JUMPDEST SWAP3 DUP9 PUSH2 0x468 JUMP JUMPDEST SWAP1 POP PUSH1 0x20 DUP2 RETURNDATASIZE DUP3 GT PUSH2 0x555 JUMPI JUMPDEST DUP2 PUSH2 0x546 PUSH1 0x20 SWAP4 DUP4 PUSH2 0x1059 JUMP JUMPDEST DUP2 ADD SUB SLT PUSH2 0x15C JUMPI MLOAD DUP10 PUSH2 0x410 JUMP JUMPDEST RETURNDATASIZE SWAP2 POP PUSH2 0x539 JUMP JUMPDEST POP POP PUSH2 0x568 DUP2 PUSH2 0x1603 JUMP JUMPDEST SWAP2 PUSH0 JUMPDEST DUP3 DUP2 LT PUSH2 0x67F JUMPI DUP4 PUSH1 0x40 MLOAD DUP1 SWAP2 PUSH1 0x20 DUP3 ADD PUSH1 0x20 DUP4 MSTORE DUP2 MLOAD DUP1 SWAP2 MSTORE PUSH1 0x40 DUP4 ADD SWAP1 PUSH1 0x20 PUSH1 0x40 DUP3 PUSH1 0x5 SHL DUP7 ADD ADD SWAP4 ADD SWAP2 PUSH0 SWAP1 JUMPDEST DUP3 DUP3 LT PUSH2 0x5AA JUMPI POP POP POP POP SUB SWAP1 RETURN JUMPDEST SWAP2 SWAP4 PUSH1 0x1 SWAP2 SWAP4 SWAP6 POP PUSH1 0x20 DUP1 SWAP2 PUSH1 0x3F NOT DUP10 DUP3 SUB ADD DUP6 MSTORE DUP8 MLOAD SWAP1 DUP2 MLOAD DUP2 MSTORE DUP3 DUP3 ADD MLOAD DUP4 DUP3 ADD MSTORE PUSH2 0x1C0 DUP1 PUSH2 0x5ED PUSH1 0x40 DUP6 ADD MLOAD PUSH2 0x1E0 PUSH1 0x40 DUP7 ADD MSTORE PUSH2 0x1E0 DUP6 ADD SWAP1 PUSH2 0x1209 JUMP JUMPDEST SWAP4 PUSH1 0x60 DUP2 ADD MLOAD PUSH1 0x60 DUP6 ADD MSTORE PUSH1 0x80 DUP2 ADD MLOAD PUSH1 0x80 DUP6 ADD MSTORE PUSH1 0xA0 DUP2 ADD MLOAD PUSH1 0xA0 DUP6 ADD MSTORE PUSH1 0xC0 DUP2 ADD MLOAD PUSH1 0xC0 DUP6 ADD MSTORE PUSH1 0xE0 DUP2 ADD MLOAD PUSH1 0xE0 DUP6 ADD MSTORE PUSH2 0x100 DUP2 ADD MLOAD PUSH2 0x100 DUP6 ADD MSTORE PUSH2 0x120 DUP2 ADD MLOAD PUSH2 0x120 DUP6 ADD MSTORE PUSH2 0x140 DUP2 ADD MLOAD PUSH2 0x140 DUP6 ADD MSTORE PUSH2 0x160 DUP2 ADD MLOAD ISZERO ISZERO PUSH2 0x160 DUP6 ADD MSTORE PUSH2 0x180 DUP2 ADD MLOAD PUSH2 0x180 DUP6 ADD MSTORE PUSH2 0x1A0 DUP2 ADD MLOAD PUSH2 0x1A0 DUP6 ADD MSTORE ADD MLOAD SWAP2 ADD MSTORE SWAP7 ADD SWAP3 ADD SWAP3 ADD DUP6 SWAP5 SWAP4 SWAP2 SWAP3 PUSH2 0x59B JUMP JUMPDEST DUP1 PUSH2 0x68C PUSH1 0x1 SWAP3 DUP5 PUSH2 0x1435 JUMP JUMPDEST MLOAD PUSH2 0x697 DUP3 DUP8 PUSH2 0x1435 JUMP JUMPDEST MSTORE PUSH2 0x6A2 DUP2 DUP7 PUSH2 0x1435 JUMP JUMPDEST POP ADD PUSH2 0x56B JUMP JUMPDEST POP DUP5 DUP4 LT PUSH2 0x3C6 JUMP JUMPDEST POP PUSH2 0x3B7 DUP3 PUSH2 0x1603 JUMP JUMPDEST PUSH1 0x64 PUSH1 0x40 MLOAD PUSH3 0x461BCD PUSH1 0xE5 SHL DUP2 MSTORE PUSH1 0x20 PUSH1 0x4 DUP3 ADD MSTORE PUSH1 0x20 PUSH1 0x24 DUP3 ADD MSTORE PUSH32 0x53796D626F6C206F7220696E74657276616C206E6F7420737570706F72746564 PUSH1 0x44 DUP3 ADD MSTORE REVERT JUMPDEST PUSH1 0x3 PUSH1 0x20 PUSH1 0x1 SWAP3 PUSH1 0x40 MLOAD PUSH2 0x713 DUP2 PUSH2 0x1022 JUMP JUMPDEST DUP5 DUP1 PUSH1 0xA0 SHL SUB DUP7 SLOAD AND DUP2 MSTORE DUP5 DUP7 ADD SLOAD DUP4 DUP3 ADD MSTORE PUSH1 0x2 DUP7 ADD SLOAD PUSH1 0x40 DUP3 ADD MSTORE DUP2 MSTORE ADD SWAP3 ADD SWAP3 ADD SWAP2 SWAP1 PUSH2 0x21B JUMP JUMPDEST PUSH1 0x40 MLOAD PUSH3 0x461BCD PUSH1 0xE5 SHL DUP2 MSTORE PUSH1 0x20 PUSH1 0x4 DUP3 ADD MSTORE PUSH1 0x1C PUSH1 0x24 DUP3 ADD MSTORE PUSH32 0x4C696D6974206D7573742062652067726561746572207468616E203000000000 PUSH1 0x44 DUP3 ADD MSTORE PUSH1 0x64 SWAP1 REVERT JUMPDEST PUSH1 0x40 MLOAD PUSH3 0x461BCD PUSH1 0xE5 SHL DUP2 MSTORE PUSH1 0x20 PUSH1 0x4 DUP3 ADD MSTORE PUSH1 0x34 PUSH1 0x24 DUP3 ADD MSTORE PUSH32 0x456E642074696D65206D7573742062652067726561746572207468616E206F72 PUSH1 0x44 DUP3 ADD MSTORE PUSH20 0x20657175616C20746F2073746172742074696D65 PUSH1 0x60 SHL PUSH1 0x64 DUP3 ADD MSTORE PUSH1 0x84 SWAP1 REVERT JUMPDEST PUSH1 0x40 MLOAD PUSH3 0x461BCD PUSH1 0xE5 SHL DUP2 MSTORE PUSH1 0x20 PUSH1 0x4 DUP3 ADD MSTORE PUSH1 0x21 PUSH1 0x24 DUP3 ADD MSTORE PUSH32 0x53746172742074696D65206D7573742062652067726561746572207468616E20 PUSH1 0x44 DUP3 ADD MSTORE PUSH1 0x3 PUSH1 0xFC SHL PUSH1 0x64 DUP3 ADD MSTORE PUSH1 0x84 SWAP1 REVERT JUMPDEST CALLVALUE PUSH2 0x15C JUMPI PUSH1 0x60 CALLDATASIZE PUSH1 0x3 NOT ADD SLT PUSH2 0x15C JUMPI PUSH1 0x4 CALLDATALOAD PUSH1 0x1 PUSH1 0x1 PUSH1 0x40 SHL SUB DUP2 GT PUSH2 0x15C JUMPI PUSH2 0x864 SWAP1 CALLDATASIZE SWAP1 PUSH1 0x4 ADD PUSH2 0x10CB JUMP JUMPDEST PUSH1 0x24 CALLDATALOAD PUSH1 0x1 PUSH1 0x1 PUSH1 0x40 SHL SUB DUP2 GT PUSH2 0x15C JUMPI PUSH2 0x883 SWAP1 CALLDATASIZE SWAP1 PUSH1 0x4 ADD PUSH2 0x10CB JUMP JUMPDEST PUSH1 0x44 CALLDATALOAD SWAP1 PUSH1 0x1 PUSH1 0x1 PUSH1 0x40 SHL SUB DUP3 GT PUSH2 0x15C JUMPI DUP2 PUSH1 0x4 ADD SWAP1 PUSH2 0x200 PUSH1 0x3 NOT DUP5 CALLDATASIZE SUB ADD SLT PUSH2 0x15C JUMPI PUSH1 0x2 SLOAD PUSH1 0x1 PUSH1 0x1 PUSH1 0xA0 SHL SUB AND CALLER SUB PUSH2 0xE6F JUMPI PUSH2 0x8D2 PUSH2 0x8CB PUSH1 0x44 DUP6 ADD DUP5 PUSH2 0x1246 JUMP JUMPDEST CALLDATASIZE SWAP2 PUSH2 0x1095 JUMP JUMPDEST PUSH1 0x20 DUP2 MLOAD SWAP2 ADD KECCAK256 SWAP3 DUP5 MLOAD SWAP4 PUSH1 0x20 DUP7 ADD SWAP5 DUP6 KECCAK256 SUB PUSH2 0xE2A JUMPI PUSH2 0x8CB PUSH1 0x64 PUSH2 0x8F9 SWAP3 ADD DUP5 PUSH2 0x1246 JUMP JUMPDEST PUSH1 0x20 DUP2 MLOAD SWAP2 ADD KECCAK256 SWAP3 DUP2 MLOAD SWAP4 PUSH1 0x20 DUP4 ADD SWAP5 DUP6 KECCAK256 SUB PUSH2 0xDE5 JUMPI PUSH1 0x40 MLOAD PUSH1 0x20 DUP2 DUP8 MLOAD DUP1 DUP6 DUP4 MCOPY DUP2 ADD PUSH1 0x1 DUP2 MSTORE SUB ADD SWAP1 KECCAK256 SLOAD ISZERO PUSH2 0xDA7 JUMPI JUMPDEST PUSH0 SWAP4 PUSH0 JUMPDEST PUSH1 0x40 MLOAD PUSH1 0x20 DUP2 DUP10 MLOAD DUP1 DUP8 DUP4 MCOPY DUP2 ADD PUSH1 0x1 DUP2 MSTORE SUB ADD SWAP1 KECCAK256 SLOAD DUP2 LT ISZERO PUSH2 0xD9D JUMPI PUSH2 0x96E DUP2 PUSH1 0x40 MLOAD PUSH1 0x20 DUP2 DUP12 MLOAD DUP1 DUP10 DUP4 MCOPY DUP2 ADD PUSH1 0x1 DUP2 MSTORE SUB ADD SWAP1 KECCAK256 PUSH2 0x1108 JUMP JUMPDEST POP PUSH1 0x40 MLOAD DUP2 SLOAD SWAP2 DUP2 PUSH0 PUSH2 0x980 DUP6 PUSH2 0x1131 JUMP JUMPDEST SWAP3 DUP4 DUP4 MSTORE PUSH1 0x20 DUP4 ADD SWAP6 PUSH1 0x1 DUP2 AND SWAP1 DUP2 PUSH0 EQ PUSH2 0xD7E JUMPI POP PUSH1 0x1 EQ PUSH2 0xD3C JUMPI JUMPDEST POP PUSH2 0x9AB SWAP3 POP SUB DUP3 PUSH2 0x1059 JUMP JUMPDEST MLOAD SWAP1 KECCAK256 DUP5 MLOAD DUP4 KECCAK256 EQ PUSH2 0x9BF JUMPI PUSH1 0x1 ADD PUSH2 0x931 JUMP JUMPDEST POP POP SWAP1 SWAP2 SWAP3 POP PUSH1 0x1 JUMPDEST ISZERO PUSH2 0xB91 JUMPI JUMPDEST PUSH2 0x9EE SWAP1 PUSH1 0x20 PUSH1 0x40 MLOAD DUP1 SWAP3 DUP8 MLOAD DUP1 SWAP2 DUP4 MCOPY DUP2 ADD PUSH0 DUP2 MSTORE SUB ADD SWAP1 KECCAK256 DUP3 PUSH2 0x10E9 JUMP JUMPDEST DUP1 SLOAD PUSH0 NOT DUP2 ADD SWAP1 DUP2 GT PUSH2 0x35D JUMPI PUSH2 0xA05 SWAP1 DUP3 PUSH2 0x122D JUMP JUMPDEST POP DUP1 SLOAD PUSH1 0x40 MLOAD PUSH4 0xC3E3BFE5 PUSH1 0xE0 SHL DUP2 MSTORE SWAP2 SWAP5 SWAP2 SWAP1 PUSH1 0x20 SWAP1 DUP3 SWAP1 PUSH1 0x1 PUSH1 0x1 PUSH1 0xA0 SHL SUB AND DUP2 PUSH0 DUP2 PUSH2 0xA37 DUP9 PUSH1 0x4 DUP4 ADD PUSH2 0x12D6 JUMP JUMPDEST SUB SWAP3 GAS CALL SWAP1 DUP2 ISZERO PUSH2 0x352 JUMPI PUSH0 SWAP2 PUSH2 0xB57 JUMPI JUMPDEST POP ISZERO PUSH2 0xA51 JUMPI STOP JUMPDEST PUSH2 0xA96 PUSH2 0xA6B PUSH2 0xAB2 SWAP5 PUSH0 SWAP8 PUSH1 0x20 SWAP8 PUSH1 0x2 TIMESTAMP SWAP2 ADD SSTORE PUSH2 0x16E5 JUMP JUMPDEST PUSH1 0x40 MLOAD SWAP1 PUSH2 0xA78 DUP3 PUSH2 0x1022 JUMP JUMPDEST PUSH1 0x1 PUSH1 0x1 PUSH1 0xA0 SHL SUB AND DUP1 DUP3 MSTORE TIMESTAMP DUP8 DUP4 ADD MSTORE PUSH1 0x40 DUP3 ADD DUP9 SWAP1 MSTORE SWAP4 PUSH2 0x13C6 JUMP JUMPDEST PUSH1 0x40 MLOAD SWAP5 DUP6 DUP1 SWAP5 DUP2 SWAP4 PUSH4 0xC3E3BFE5 PUSH1 0xE0 SHL DUP4 MSTORE PUSH1 0x4 DUP4 ADD PUSH2 0x12D6 JUMP JUMPDEST SUB SWAP3 GAS CALL SWAP1 DUP2 ISZERO PUSH2 0x352 JUMPI PUSH0 SWAP2 PUSH2 0xB1D JUMPI JUMPDEST POP ISZERO PUSH2 0xACC JUMPI STOP JUMPDEST PUSH1 0x40 MLOAD PUSH3 0x461BCD PUSH1 0xE5 SHL DUP2 MSTORE PUSH1 0x20 PUSH1 0x4 DUP3 ADD MSTORE PUSH1 0x23 PUSH1 0x24 DUP3 ADD MSTORE PUSH32 0x4661696C656420746F20616464206B6C696E6520746F206E657720636F6E7472 PUSH1 0x44 DUP3 ADD MSTORE PUSH3 0x1858DD PUSH1 0xEA SHL PUSH1 0x64 DUP3 ADD MSTORE PUSH1 0x84 SWAP1 REVERT JUMPDEST SWAP1 POP PUSH1 0x20 DUP2 RETURNDATASIZE PUSH1 0x20 GT PUSH2 0xB4F JUMPI JUMPDEST DUP2 PUSH2 0xB38 PUSH1 0x20 SWAP4 DUP4 PUSH2 0x1059 JUMP JUMPDEST DUP2 ADD SUB SLT PUSH2 0x15C JUMPI PUSH2 0xB49 SWAP1 PUSH2 0x1278 JUMP JUMPDEST DUP2 PUSH2 0xAC4 JUMP JUMPDEST RETURNDATASIZE SWAP2 POP PUSH2 0xB2B JUMP JUMPDEST SWAP1 POP PUSH1 0x20 DUP2 RETURNDATASIZE PUSH1 0x20 GT PUSH2 0xB89 JUMPI JUMPDEST DUP2 PUSH2 0xB72 PUSH1 0x20 SWAP4 DUP4 PUSH2 0x1059 JUMP JUMPDEST DUP2 ADD SUB SLT PUSH2 0x15C JUMPI PUSH2 0xB83 SWAP1 PUSH2 0x1278 JUMP JUMPDEST DUP7 PUSH2 0xA49 JUMP JUMPDEST RETURNDATASIZE SWAP2 POP PUSH2 0xB65 JUMP JUMPDEST PUSH1 0x40 MLOAD PUSH1 0x20 DUP2 DUP7 MLOAD DUP1 DUP6 DUP4 MCOPY DUP2 ADD PUSH1 0x1 DUP2 MSTORE SUB ADD SWAP1 KECCAK256 DUP1 SLOAD PUSH1 0x1 PUSH1 0x40 SHL DUP2 LT ISZERO PUSH2 0xD15 JUMPI PUSH2 0xBC4 SWAP2 PUSH1 0x1 DUP3 ADD DUP2 SSTORE PUSH2 0x1108 JUMP JUMPDEST PUSH2 0xD29 JUMPI DUP3 MLOAD PUSH1 0x1 PUSH1 0x1 PUSH1 0x40 SHL SUB DUP2 GT PUSH2 0xD15 JUMPI PUSH2 0xBE2 DUP3 SLOAD PUSH2 0x1131 JUMP JUMPDEST PUSH1 0x1F DUP2 GT PUSH2 0xCD0 JUMPI JUMPDEST POP PUSH1 0x20 PUSH1 0x1F DUP3 GT PUSH1 0x1 EQ PUSH2 0xC6B JUMPI SWAP1 DUP1 PUSH2 0x9EE SWAP5 SWAP4 SWAP3 PUSH0 SWAP2 PUSH2 0xC60 JUMPI JUMPDEST POP DUP2 PUSH1 0x1 SHL SWAP2 PUSH0 NOT SWAP1 PUSH1 0x3 SHL SHR NOT AND OR SWAP1 SSTORE JUMPDEST PUSH32 0x5671901CAF56CB468A835871D9C8A8BC0A23BBD0DE3C1F2DAD4D600A16C002E0 PUSH1 0x40 MLOAD DUP1 PUSH2 0xC4B DUP7 DUP10 DUP4 PUSH2 0x16C0 JUMP JUMPDEST SUB SWAP1 LOG1 PUSH2 0xC58 DUP4 DUP7 PUSH2 0x16E5 JUMP JUMPDEST POP SWAP1 POP PUSH2 0x9CE JUMP JUMPDEST SWAP1 POP DUP6 ADD MLOAD DUP9 PUSH2 0xC08 JUMP JUMPDEST PUSH1 0x1F NOT DUP3 AND SWAP1 DUP4 PUSH0 MSTORE DUP1 PUSH0 KECCAK256 SWAP2 PUSH0 JUMPDEST DUP2 DUP2 LT PUSH2 0xCB8 JUMPI POP SWAP2 DUP4 SWAP2 PUSH2 0x9EE SWAP7 SWAP6 SWAP5 PUSH1 0x1 SWAP5 LT PUSH2 0xCA0 JUMPI JUMPDEST POP POP DUP2 SHL ADD SWAP1 SSTORE PUSH2 0xC1B JUMP JUMPDEST DUP8 ADD MLOAD PUSH0 NOT PUSH1 0xF8 DUP5 PUSH1 0x3 SHL AND SHR NOT AND SWAP1 SSTORE DUP9 DUP1 PUSH2 0xC94 JUMP JUMPDEST SWAP2 SWAP3 PUSH1 0x20 PUSH1 0x1 DUP2 SWAP3 DUP7 DUP12 ADD MLOAD DUP2 SSTORE ADD SWAP5 ADD SWAP3 ADD PUSH2 0xC7A JUMP JUMPDEST DUP3 PUSH0 MSTORE PUSH1 0x20 PUSH0 KECCAK256 PUSH1 0x1F DUP4 ADD PUSH1 0x5 SHR DUP2 ADD SWAP2 PUSH1 0x20 DUP5 LT PUSH2 0xD0B JUMPI JUMPDEST PUSH1 0x1F ADD PUSH1 0x5 SHR ADD SWAP1 JUMPDEST DUP2 DUP2 LT PUSH2 0xD00 JUMPI POP PUSH2 0xBEB JUMP JUMPDEST PUSH0 DUP2 SSTORE PUSH1 0x1 ADD PUSH2 0xCF3 JUMP JUMPDEST SWAP1 SWAP2 POP DUP2 SWAP1 PUSH2 0xCEA JUMP JUMPDEST PUSH4 0x4E487B71 PUSH1 0xE0 SHL PUSH0 MSTORE PUSH1 0x41 PUSH1 0x4 MSTORE PUSH1 0x24 PUSH0 REVERT JUMPDEST PUSH4 0x4E487B71 PUSH1 0xE0 SHL PUSH0 MSTORE PUSH0 PUSH1 0x4 MSTORE PUSH1 0x24 PUSH0 REVERT JUMPDEST SWAP2 POP POP PUSH0 MSTORE DUP2 PUSH1 0x20 PUSH0 KECCAK256 SWAP2 PUSH0 SWAP3 JUMPDEST DUP2 DUP5 LT PUSH2 0xD62 JUMPI POP POP PUSH1 0x20 PUSH2 0x9AB SWAP3 DUP3 ADD ADD DUP13 PUSH2 0x99E JUMP JUMPDEST PUSH1 0x20 SWAP2 SWAP3 POP DUP1 PUSH1 0x1 SWAP2 SLOAD DUP4 DUP7 DUP9 ADD ADD MSTORE ADD SWAP3 ADD SWAP2 SWAP1 DUP4 SWAP2 PUSH2 0xD4A JUMP JUMPDEST PUSH1 0xFF NOT AND DUP8 MSTORE POP PUSH2 0x9AB SWAP4 ISZERO ISZERO PUSH1 0x5 SHL DUP4 ADD PUSH1 0x20 ADD SWAP2 POP DUP14 SWAP1 POP PUSH2 0x99E JUMP JUMPDEST POP POP SWAP1 SWAP2 SWAP3 PUSH2 0x9C8 JUMP JUMPDEST PUSH32 0xAE3B5C36AAC7A976408C9F08DBFDDA7CE98DB5C64F471AD540FFE305DB0D9B0B PUSH1 0x40 MLOAD PUSH1 0x20 DUP2 MSTORE DUP1 PUSH2 0xDDD PUSH1 0x20 DUP3 ADD DUP10 PUSH2 0x1209 JUMP JUMPDEST SUB SWAP1 LOG1 PUSH2 0x92D JUMP JUMPDEST PUSH1 0x40 MLOAD PUSH3 0x461BCD PUSH1 0xE5 SHL DUP2 MSTORE PUSH1 0x20 PUSH1 0x4 DUP3 ADD MSTORE PUSH1 0x1D PUSH1 0x24 DUP3 ADD MSTORE PUSH32 0x4B6C696E6520696E74657276616C20646F6573206E6F74206D61746368000000 PUSH1 0x44 DUP3 ADD MSTORE PUSH1 0x64 SWAP1 REVERT JUMPDEST PUSH1 0x40 MLOAD PUSH3 0x461BCD PUSH1 0xE5 SHL DUP2 MSTORE PUSH1 0x20 PUSH1 0x4 DUP3 ADD MSTORE PUSH1 0x1B PUSH1 0x24 DUP3 ADD MSTORE PUSH32 0x4B6C696E652073796D626F6C20646F6573206E6F74206D617463680000000000 PUSH1 0x44 DUP3 ADD MSTORE PUSH1 0x64 SWAP1 REVERT JUMPDEST PUSH1 0x40 MLOAD PUSH3 0x461BCD PUSH1 0xE5 SHL DUP2 MSTORE PUSH1 0x20 PUSH1 0x4 DUP3 ADD MSTORE PUSH1 0x21 PUSH1 0x24 DUP3 ADD MSTORE PUSH32 0x4F6E6C79206F776E65722063616E2063616C6C20746869732066756E6374696F PUSH1 0x44 DUP3 ADD MSTORE PUSH1 0x37 PUSH1 0xF9 SHL PUSH1 0x64 DUP3 ADD MSTORE PUSH1 0x84 SWAP1 REVERT JUMPDEST CALLVALUE PUSH2 0x15C JUMPI PUSH0 CALLDATASIZE PUSH1 0x3 NOT ADD SLT PUSH2 0x15C JUMPI PUSH1 0x2 SLOAD PUSH1 0x40 MLOAD PUSH1 0x1 PUSH1 0x1 PUSH1 0xA0 SHL SUB SWAP1 SWAP2 AND DUP2 MSTORE PUSH1 0x20 SWAP1 RETURN JUMPDEST CALLVALUE PUSH2 0x15C JUMPI PUSH1 0x60 CALLDATASIZE PUSH1 0x3 NOT ADD SLT PUSH2 0x15C JUMPI PUSH1 0x4 CALLDATALOAD PUSH1 0x1 PUSH1 0x1 PUSH1 0x40 SHL SUB DUP2 GT PUSH2 0x15C JUMPI PUSH2 0xF16 SWAP1 CALLDATASIZE SWAP1 PUSH1 0x4 ADD PUSH2 0x10CB JUMP JUMPDEST PUSH1 0x24 CALLDATALOAD PUSH1 0x1 PUSH1 0x1 PUSH1 0x40 SHL SUB DUP2 GT PUSH2 0x15C JUMPI PUSH2 0xF38 PUSH2 0xF5B SWAP2 CALLDATASIZE SWAP1 PUSH1 0x4 ADD PUSH2 0x10CB JUMP JUMPDEST PUSH1 0x40 MLOAD DUP4 MLOAD PUSH1 0x44 CALLDATALOAD SWAP5 PUSH1 0x20 SWAP2 DUP4 SWAP2 DUP2 SWAP1 DUP5 ADD DUP4 MCOPY DUP2 ADD PUSH0 DUP2 MSTORE SUB ADD SWAP1 KECCAK256 SWAP1 PUSH2 0x10E9 JUMP JUMPDEST DUP1 SLOAD DUP3 LT ISZERO PUSH2 0x15C JUMPI PUSH1 0x60 SWAP2 PUSH2 0xF70 SWAP2 PUSH2 0x122D JUMP JUMPDEST POP PUSH1 0x1 DUP1 PUSH1 0xA0 SHL SUB DUP2 SLOAD AND SWAP1 PUSH1 0x2 PUSH1 0x1 DUP3 ADD SLOAD SWAP2 ADD SLOAD SWAP1 PUSH1 0x40 MLOAD SWAP3 DUP4 MSTORE PUSH1 0x20 DUP4 ADD MSTORE PUSH1 0x40 DUP3 ADD MSTORE RETURN JUMPDEST CALLVALUE PUSH2 0x15C JUMPI PUSH1 0x40 CALLDATASIZE PUSH1 0x3 NOT ADD SLT PUSH2 0x15C JUMPI PUSH1 0x4 CALLDATALOAD PUSH1 0x1 PUSH1 0x1 PUSH1 0x40 SHL SUB DUP2 GT PUSH2 0x15C JUMPI PUSH2 0xFC9 SWAP1 CALLDATASIZE SWAP1 PUSH1 0x4 ADD PUSH2 0x10CB JUMP JUMPDEST PUSH1 0x40 MLOAD DUP2 MLOAD PUSH1 0x24 CALLDATALOAD SWAP3 PUSH1 0x20 SWAP2 DUP4 SWAP2 DUP2 SWAP1 DUP5 ADD DUP4 MCOPY DUP2 ADD PUSH1 0x1 DUP2 MSTORE SUB ADD SWAP1 KECCAK256 SWAP1 DUP2 SLOAD DUP2 LT ISZERO PUSH2 0x15C JUMPI PUSH2 0xFFA SWAP2 PUSH2 0x1108 JUMP JUMPDEST PUSH2 0xD29 JUMPI PUSH2 0x100A PUSH2 0x101E SWAP2 PUSH2 0x1169 JUMP JUMPDEST PUSH1 0x40 MLOAD SWAP2 DUP3 SWAP2 PUSH1 0x20 DUP4 MSTORE PUSH1 0x20 DUP4 ADD SWAP1 PUSH2 0x1209 JUMP JUMPDEST SUB SWAP1 RETURN JUMPDEST PUSH1 0x60 DUP2 ADD SWAP1 DUP2 LT PUSH1 0x1 PUSH1 0x1 PUSH1 0x40 SHL SUB DUP3 GT OR PUSH2 0xD15 JUMPI PUSH1 0x40 MSTORE JUMP JUMPDEST PUSH2 0x1E0 DUP2 ADD SWAP1 DUP2 LT PUSH1 0x1 PUSH1 0x1 PUSH1 0x40 SHL SUB DUP3 GT OR PUSH2 0xD15 JUMPI PUSH1 0x40 MSTORE JUMP JUMPDEST SWAP1 PUSH1 0x1F DUP1 NOT SWAP2 ADD AND DUP2 ADD SWAP1 DUP2 LT PUSH1 0x1 PUSH1 0x1 PUSH1 0x40 SHL SUB DUP3 GT OR PUSH2 0xD15 JUMPI PUSH1 0x40 MSTORE JUMP JUMPDEST PUSH1 0x1 PUSH1 0x1 PUSH1 0x40 SHL SUB DUP2 GT PUSH2 0xD15 JUMPI PUSH1 0x1F ADD PUSH1 0x1F NOT AND PUSH1 0x20 ADD SWAP1 JUMP JUMPDEST SWAP3 SWAP2 SWAP3 PUSH2 0x10A1 DUP3 PUSH2 0x107A JUMP JUMPDEST SWAP2 PUSH2 0x10AF PUSH1 0x40 MLOAD SWAP4 DUP5 PUSH2 0x1059 JUMP JUMPDEST DUP3 SWAP5 DUP2 DUP5 MSTORE DUP2 DUP4 ADD GT PUSH2 0x15C JUMPI DUP3 DUP2 PUSH1 0x20 SWAP4 DUP5 PUSH0 SWAP7 ADD CALLDATACOPY ADD ADD MSTORE JUMP JUMPDEST SWAP1 DUP1 PUSH1 0x1F DUP4 ADD SLT ISZERO PUSH2 0x15C JUMPI DUP2 PUSH1 0x20 PUSH2 0x10E6 SWAP4 CALLDATALOAD SWAP2 ADD PUSH2 0x1095 JUMP JUMPDEST SWAP1 JUMP JUMPDEST PUSH1 0x40 MLOAD DUP2 MLOAD SWAP1 SWAP3 PUSH1 0x20 SWAP3 DUP5 SWAP3 SWAP1 DUP2 SWAP1 DUP6 ADD DUP5 MCOPY DUP3 ADD SWAP1 DUP2 MSTORE SUB ADD SWAP1 KECCAK256 SWAP1 JUMP JUMPDEST DUP1 SLOAD DUP3 LT ISZERO PUSH2 0x111D JUMPI PUSH0 MSTORE PUSH1 0x20 PUSH0 KECCAK256 ADD SWAP1 PUSH0 SWAP1 JUMP JUMPDEST PUSH4 0x4E487B71 PUSH1 0xE0 SHL PUSH0 MSTORE PUSH1 0x32 PUSH1 0x4 MSTORE PUSH1 0x24 PUSH0 REVERT JUMPDEST SWAP1 PUSH1 0x1 DUP3 DUP2 SHR SWAP3 AND DUP1 ISZERO PUSH2 0x115F JUMPI JUMPDEST PUSH1 0x20 DUP4 LT EQ PUSH2 0x114B JUMPI JUMP JUMPDEST PUSH4 0x4E487B71 PUSH1 0xE0 SHL PUSH0 MSTORE PUSH1 0x22 PUSH1 0x4 MSTORE PUSH1 0x24 PUSH0 REVERT JUMPDEST SWAP2 PUSH1 0x7F AND SWAP2 PUSH2 0x1140 JUMP JUMPDEST SWAP1 PUSH1 0x40 MLOAD SWAP2 DUP3 PUSH0 DUP3 SLOAD SWAP3 PUSH2 0x117C DUP5 PUSH2 0x1131 JUMP JUMPDEST DUP1 DUP5 MSTORE SWAP4 PUSH1 0x1 DUP2 AND SWAP1 DUP2 ISZERO PUSH2 0x11E7 JUMPI POP PUSH1 0x1 EQ PUSH2 0x11A3 JUMPI JUMPDEST POP PUSH2 0x11A1 SWAP3 POP SUB DUP4 PUSH2 0x1059 JUMP JUMPDEST JUMP JUMPDEST SWAP1 POP PUSH0 SWAP3 SWAP2 SWAP3 MSTORE PUSH1 0x20 PUSH0 KECCAK256 SWAP1 PUSH0 SWAP2 JUMPDEST DUP2 DUP4 LT PUSH2 0x11CB JUMPI POP POP SWAP1 PUSH1 0x20 PUSH2 0x11A1 SWAP3 DUP3 ADD ADD PUSH0 PUSH2 0x1194 JUMP JUMPDEST PUSH1 0x20 SWAP2 SWAP4 POP DUP1 PUSH1 0x1 SWAP2 SLOAD DUP4 DUP6 DUP10 ADD ADD MSTORE ADD SWAP2 ADD SWAP1 SWAP2 DUP5 SWAP3 PUSH2 0x11B2 JUMP JUMPDEST SWAP1 POP PUSH1 0x20 SWAP3 POP PUSH2 0x11A1 SWAP5 SWAP2 POP PUSH1 0xFF NOT AND DUP3 DUP5 ADD MSTORE ISZERO ISZERO PUSH1 0x5 SHL DUP3 ADD ADD PUSH0 PUSH2 0x1194 JUMP JUMPDEST DUP1 MLOAD DUP1 DUP4 MSTORE PUSH1 0x20 SWAP3 SWAP2 DUP2 SWAP1 DUP5 ADD DUP5 DUP5 ADD MCOPY PUSH0 DUP3 DUP3 ADD DUP5 ADD MSTORE PUSH1 0x1F ADD PUSH1 0x1F NOT AND ADD ADD SWAP1 JUMP JUMPDEST DUP1 SLOAD DUP3 LT ISZERO PUSH2 0x111D JUMPI PUSH0 MSTORE PUSH1 0x3 PUSH1 0x20 PUSH0 KECCAK256 SWAP2 MUL ADD SWAP1 PUSH0 SWAP1 JUMP JUMPDEST SWAP1 CALLDATALOAD SWAP1 PUSH1 0x1E NOT DUP2 CALLDATASIZE SUB ADD DUP3 SLT ISZERO PUSH2 0x15C JUMPI ADD DUP1 CALLDATALOAD SWAP1 PUSH1 0x1 PUSH1 0x1 PUSH1 0x40 SHL SUB DUP3 GT PUSH2 0x15C JUMPI PUSH1 0x20 ADD SWAP2 DUP2 CALLDATASIZE SUB DUP4 SGT PUSH2 0x15C JUMPI JUMP JUMPDEST MLOAD SWAP1 DUP2 ISZERO ISZERO DUP3 SUB PUSH2 0x15C JUMPI JUMP JUMPDEST SWAP1 CALLDATALOAD PUSH1 0x1E NOT DUP3 CALLDATASIZE SUB ADD DUP2 SLT ISZERO PUSH2 0x15C JUMPI ADD PUSH1 0x20 DUP2 CALLDATALOAD SWAP2 ADD SWAP2 PUSH1 0x1 PUSH1 0x1 PUSH1 0x40 SHL SUB DUP3 GT PUSH2 0x15C JUMPI DUP2 CALLDATASIZE SUB DUP4 SGT PUSH2 0x15C JUMPI JUMP JUMPDEST SWAP1 DUP1 PUSH1 0x20 SWAP4 SWAP3 DUP2 DUP5 MSTORE DUP5 DUP5 ADD CALLDATACOPY PUSH0 DUP3 DUP3 ADD DUP5 ADD MSTORE PUSH1 0x1F ADD PUSH1 0x1F NOT AND ADD ADD SWAP1 JUMP JUMPDEST PUSH1 0x20 DUP2 MSTORE DUP2 CALLDATALOAD PUSH1 0x20 DUP3 ADD MSTORE PUSH1 0x20 DUP3 ADD CALLDATALOAD PUSH1 0x40 DUP3 ADD MSTORE PUSH2 0x1330 PUSH2 0x1311 PUSH2 0x12FE PUSH1 0x40 DUP6 ADD DUP6 PUSH2 0x1285 JUMP JUMPDEST PUSH2 0x200 PUSH1 0x60 DUP7 ADD MSTORE PUSH2 0x220 DUP6 ADD SWAP2 PUSH2 0x12B6 JUMP JUMPDEST PUSH2 0x131E PUSH1 0x60 DUP6 ADD DUP6 PUSH2 0x1285 JUMP JUMPDEST DUP5 DUP4 SUB PUSH1 0x1F NOT ADD PUSH1 0x80 DUP7 ADD MSTORE SWAP1 PUSH2 0x12B6 JUMP JUMPDEST SWAP2 PUSH1 0x80 DUP2 ADD CALLDATALOAD PUSH1 0xA0 DUP4 ADD MSTORE PUSH1 0xA0 DUP2 ADD CALLDATALOAD PUSH1 0xC0 DUP4 ADD MSTORE PUSH1 0xC0 DUP2 ADD CALLDATALOAD PUSH1 0xE0 DUP4 ADD MSTORE PUSH1 0xE0 DUP2 ADD CALLDATALOAD PUSH2 0x100 DUP4 ADD MSTORE PUSH2 0x100 DUP2 ADD CALLDATALOAD PUSH2 0x120 DUP4 ADD MSTORE PUSH2 0x120 DUP2 ADD CALLDATALOAD PUSH2 0x140 DUP4 ADD MSTORE PUSH2 0x140 DUP2 ADD CALLDATALOAD PUSH2 0x160 DUP4 ADD MSTORE PUSH2 0x160 DUP2 ADD CALLDATALOAD PUSH2 0x180 DUP4 ADD MSTORE PUSH2 0x180 DUP2 ADD CALLDATALOAD DUP1 ISZERO ISZERO DUP1 SWAP2 SUB PUSH2 0x15C JUMPI PUSH2 0x200 SWAP2 PUSH2 0x1E0 SWAP2 PUSH2 0x1A0 DUP6 ADD MSTORE PUSH2 0x1A0 DUP2 ADD CALLDATALOAD PUSH2 0x1C0 DUP6 ADD MSTORE PUSH2 0x1C0 DUP2 ADD CALLDATALOAD DUP3 DUP6 ADD MSTORE ADD CALLDATALOAD SWAP2 ADD MSTORE SWAP1 JUMP JUMPDEST DUP1 SLOAD PUSH1 0x1 PUSH1 0x40 SHL DUP2 LT ISZERO PUSH2 0xD15 JUMPI PUSH2 0x13E3 SWAP2 PUSH1 0x1 DUP3 ADD DUP2 SSTORE PUSH2 0x122D JUMP JUMPDEST SWAP2 SWAP1 SWAP2 PUSH2 0xD29 JUMPI DUP1 MLOAD DUP3 SLOAD PUSH1 0x1 PUSH1 0x1 PUSH1 0xA0 SHL SUB NOT AND PUSH1 0x1 PUSH1 0x1 PUSH1 0xA0 SHL SUB SWAP2 SWAP1 SWAP2 AND OR DUP3 SSTORE PUSH1 0x20 DUP2 ADD MLOAD PUSH1 0x1 DUP4 ADD SSTORE PUSH1 0x40 ADD MLOAD PUSH1 0x2 SWAP2 SWAP1 SWAP2 ADD SSTORE JUMP JUMPDEST PUSH1 0x1 PUSH1 0x1 PUSH1 0x40 SHL SUB DUP2 GT PUSH2 0xD15 JUMPI PUSH1 0x5 SHL PUSH1 0x20 ADD SWAP1 JUMP JUMPDEST DUP1 MLOAD DUP3 LT ISZERO PUSH2 0x111D JUMPI PUSH1 0x20 SWAP2 PUSH1 0x5 SHL ADD ADD SWAP1 JUMP JUMPDEST PUSH1 0x20 DUP2 DUP4 SUB SLT PUSH2 0x15C JUMPI DUP1 MLOAD SWAP1 PUSH1 0x1 PUSH1 0x1 PUSH1 0x40 SHL SUB DUP3 GT PUSH2 0x15C JUMPI ADD SWAP1 DUP1 PUSH1 0x1F DUP4 ADD SLT ISZERO PUSH2 0x15C JUMPI DUP2 MLOAD SWAP2 PUSH2 0x147D DUP4 PUSH2 0x141E JUMP JUMPDEST SWAP3 PUSH2 0x148B PUSH1 0x40 MLOAD SWAP5 DUP6 PUSH2 0x1059 JUMP JUMPDEST DUP1 DUP5 MSTORE PUSH1 0x20 DUP1 DUP6 ADD SWAP2 PUSH1 0x5 SHL DUP4 ADD ADD SWAP2 DUP4 DUP4 GT PUSH2 0x15C JUMPI PUSH1 0x20 DUP2 ADD SWAP2 JUMPDEST DUP4 DUP4 LT PUSH2 0x14B7 JUMPI POP POP POP POP POP SWAP1 JUMP JUMPDEST DUP3 MLOAD PUSH1 0x1 PUSH1 0x1 PUSH1 0x40 SHL SUB DUP2 GT PUSH2 0x15C JUMPI DUP3 ADD SWAP1 PUSH2 0x1E0 DUP3 DUP8 SUB PUSH1 0x1F NOT ADD SLT PUSH2 0x15C JUMPI PUSH1 0x40 MLOAD SWAP1 PUSH2 0x14E6 DUP3 PUSH2 0x103D JUMP JUMPDEST PUSH1 0x20 DUP4 ADD MLOAD DUP3 MSTORE PUSH1 0x40 DUP4 ADD MLOAD PUSH1 0x20 DUP4 ADD MSTORE PUSH1 0x60 DUP4 ADD MLOAD PUSH1 0x1 PUSH1 0x1 PUSH1 0x40 SHL SUB DUP2 GT PUSH2 0x15C JUMPI PUSH1 0x20 SWAP1 DUP5 ADD ADD SWAP2 DUP8 PUSH1 0x1F DUP5 ADD SLT ISZERO PUSH2 0x15C JUMPI DUP3 MLOAD SWAP3 PUSH2 0x1528 DUP5 PUSH2 0x107A JUMP JUMPDEST SWAP5 PUSH2 0x1536 PUSH1 0x40 MLOAD SWAP7 DUP8 PUSH2 0x1059 JUMP JUMPDEST DUP5 DUP7 MSTORE DUP10 PUSH1 0x20 DUP7 DUP5 ADD ADD GT PUSH2 0x15C JUMPI PUSH1 0x20 SWAP6 PUSH0 DUP8 DUP8 DUP2 SWAP9 DUP3 PUSH2 0x1E0 SWAP8 ADD DUP4 DUP7 ADD MCOPY DUP4 ADD ADD MSTORE PUSH1 0x40 DUP5 ADD MSTORE PUSH1 0x80 DUP2 ADD MLOAD PUSH1 0x60 DUP5 ADD MSTORE PUSH1 0xA0 DUP2 ADD MLOAD PUSH1 0x80 DUP5 ADD MSTORE PUSH1 0xC0 DUP2 ADD MLOAD PUSH1 0xA0 DUP5 ADD MSTORE PUSH1 0xE0 DUP2 ADD MLOAD PUSH1 0xC0 DUP5 ADD MSTORE PUSH2 0x100 DUP2 ADD MLOAD PUSH1 0xE0 DUP5 ADD MSTORE PUSH2 0x120 DUP2 ADD MLOAD PUSH2 0x100 DUP5 ADD MSTORE PUSH2 0x140 DUP2 ADD MLOAD PUSH2 0x120 DUP5 ADD MSTORE PUSH2 0x160 DUP2 ADD MLOAD PUSH2 0x140 DUP5 ADD MSTORE PUSH2 0x15C4 PUSH2 0x180 DUP3 ADD PUSH2 0x1278 JUMP JUMPDEST PUSH2 0x160 DUP5 ADD MSTORE PUSH2 0x1A0 DUP2 ADD MLOAD PUSH2 0x180 DUP5 ADD MSTORE PUSH2 0x1C0 DUP2 ADD MLOAD PUSH2 0x1A0 DUP5 ADD MSTORE ADD MLOAD PUSH2 0x1C0 DUP3 ADD MSTORE DUP2 MSTORE ADD SWAP3 ADD SWAP2 PUSH2 0x14A8 JUMP JUMPDEST PUSH0 NOT DUP2 EQ PUSH2 0x35D JUMPI PUSH1 0x1 ADD SWAP1 JUMP JUMPDEST SWAP1 PUSH2 0x160D DUP3 PUSH2 0x141E JUMP JUMPDEST PUSH2 0x161A PUSH1 0x40 MLOAD SWAP2 DUP3 PUSH2 0x1059 JUMP JUMPDEST DUP3 DUP2 MSTORE DUP1 SWAP3 PUSH2 0x162B PUSH1 0x1F NOT SWAP2 PUSH2 0x141E JUMP JUMPDEST ADD SWAP1 PUSH0 JUMPDEST DUP3 DUP2 LT PUSH2 0x163B JUMPI POP POP POP JUMP JUMPDEST PUSH1 0x20 SWAP1 PUSH1 0x40 MLOAD PUSH2 0x164A DUP2 PUSH2 0x103D JUMP JUMPDEST PUSH0 DUP2 MSTORE PUSH0 DUP4 DUP3 ADD MSTORE PUSH1 0x60 PUSH1 0x40 DUP3 ADD MSTORE PUSH0 PUSH1 0x60 DUP3 ADD MSTORE PUSH0 PUSH1 0x80 DUP3 ADD MSTORE PUSH0 PUSH1 0xA0 DUP3 ADD MSTORE PUSH0 PUSH1 0xC0 DUP3 ADD MSTORE PUSH0 PUSH1 0xE0 DUP3 ADD MSTORE PUSH0 PUSH2 0x100 DUP3 ADD MSTORE PUSH0 PUSH2 0x120 DUP3 ADD MSTORE PUSH0 PUSH2 0x140 DUP3 ADD MSTORE PUSH0 PUSH2 0x160 DUP3 ADD MSTORE PUSH0 PUSH2 0x180 DUP3 ADD MSTORE PUSH0 PUSH2 0x1A0 DUP3 ADD MSTORE PUSH0 PUSH2 0x1C0 DUP3 ADD MSTORE DUP3 DUP3 DUP6 ADD ADD MSTORE ADD PUSH2 0x162F JUMP JUMPDEST DUP1 ISZERO PUSH2 0x35D JUMPI PUSH0 NOT ADD SWAP1 JUMP JUMPDEST SWAP1 SWAP2 PUSH2 0x16D7 PUSH2 0x10E6 SWAP4 PUSH1 0x40 DUP5 MSTORE PUSH1 0x40 DUP5 ADD SWAP1 PUSH2 0x1209 JUMP JUMPDEST SWAP2 PUSH1 0x20 DUP2 DUP5 SUB SWAP2 ADD MSTORE PUSH2 0x1209 JUMP JUMPDEST PUSH1 0x40 MLOAD PUSH2 0x12F3 DUP1 DUP3 ADD SWAP1 DUP3 DUP3 LT PUSH1 0x1 PUSH1 0x1 PUSH1 0x40 SHL SUB DUP4 GT OR PUSH2 0xD15 JUMPI DUP5 DUP5 DUP5 SWAP4 PUSH2 0x1713 SWAP4 PUSH2 0x17C6 DUP7 CODECOPY PUSH2 0x16C0 JUMP JUMPDEST SUB SWAP1 PUSH0 CREATE SWAP2 DUP3 ISZERO PUSH2 0x352 JUMPI PUSH32 0xF0A27A0C7AA8AA9B3D56EF0311F5F23644BC8E7B6618707C3BC42B30AFA97CB7 SWAP2 PUSH2 0x17B9 PUSH2 0x17AB SWAP3 PUSH2 0x1797 PUSH2 0x176A PUSH1 0x40 MLOAD PUSH1 0x20 DUP2 DUP8 MLOAD DUP1 DUP4 DUP11 ADD DUP4 MCOPY DUP2 ADD PUSH0 DUP2 MSTORE SUB ADD SWAP1 KECCAK256 DUP4 PUSH2 0x10E9 JUMP JUMPDEST PUSH1 0x40 MLOAD PUSH1 0x1 PUSH1 0x1 PUSH1 0xA0 SHL SUB SWAP1 SWAP9 AND SWAP8 SWAP1 PUSH2 0x1783 DUP3 PUSH2 0x1022 JUMP JUMPDEST DUP9 DUP3 MSTORE TIMESTAMP PUSH1 0x20 DUP4 ADD MSTORE PUSH0 PUSH1 0x40 DUP4 ADD MSTORE PUSH2 0x13C6 JUMP JUMPDEST PUSH1 0x40 MLOAD SWAP4 DUP5 SWAP4 PUSH1 0x60 DUP6 MSTORE PUSH1 0x60 DUP6 ADD SWAP1 PUSH2 0x1209 JUMP JUMPDEST SWAP1 DUP4 DUP3 SUB PUSH1 0x20 DUP6 ADD MSTORE PUSH2 0x1209 JUMP JUMPDEST DUP5 PUSH1 0x40 DUP4 ADD MSTORE SUB SWAP1 LOG1 SWAP1 JUMP INVALID PUSH1 0x80 PUSH1 0x40 MSTORE CALLVALUE PUSH2 0x322 JUMPI PUSH2 0x12F3 DUP1 CODESIZE SUB DUP1 PUSH2 0x19 DUP2 PUSH2 0x326 JUMP JUMPDEST SWAP3 DUP4 CODECOPY DUP2 ADD SWAP1 PUSH1 0x40 DUP2 DUP4 SUB SLT PUSH2 0x322 JUMPI DUP1 MLOAD PUSH1 0x1 PUSH1 0x1 PUSH1 0x40 SHL SUB DUP2 GT PUSH2 0x322 JUMPI DUP3 PUSH2 0x45 SWAP2 DUP4 ADD PUSH2 0x34B JUMP JUMPDEST PUSH1 0x20 DUP3 ADD MLOAD SWAP1 SWAP3 SWAP1 PUSH1 0x1 PUSH1 0x1 PUSH1 0x40 SHL SUB DUP2 GT PUSH2 0x322 JUMPI PUSH2 0x65 SWAP3 ADD PUSH2 0x34B JUMP JUMPDEST PUSH1 0x1 DUP1 SLOAD PUSH1 0x1 PUSH1 0x1 PUSH1 0xA0 SHL SUB NOT AND CALLER OR SWAP1 SSTORE DUP2 MLOAD PUSH1 0x1 PUSH1 0x1 PUSH1 0x40 SHL SUB DUP2 GT PUSH2 0x235 JUMPI PUSH1 0x2 SLOAD PUSH1 0x1 DUP2 DUP2 SHR SWAP2 AND DUP1 ISZERO PUSH2 0x318 JUMPI JUMPDEST PUSH1 0x20 DUP3 LT EQ PUSH2 0x217 JUMPI PUSH1 0x1F DUP2 GT PUSH2 0x2B5 JUMPI JUMPDEST POP PUSH1 0x20 SWAP3 PUSH1 0x1F DUP3 GT PUSH1 0x1 EQ PUSH2 0x254 JUMPI SWAP3 DUP2 SWAP3 SWAP4 PUSH0 SWAP3 PUSH2 0x249 JUMPI JUMPDEST POP POP DUP2 PUSH1 0x1 SHL SWAP2 PUSH0 NOT SWAP1 PUSH1 0x3 SHL SHR NOT AND OR PUSH1 0x2 SSTORE JUMPDEST DUP1 MLOAD PUSH1 0x1 PUSH1 0x1 PUSH1 0x40 SHL SUB DUP2 GT PUSH2 0x235 JUMPI PUSH1 0x3 SLOAD PUSH1 0x1 DUP2 DUP2 SHR SWAP2 AND DUP1 ISZERO PUSH2 0x22B JUMPI JUMPDEST PUSH1 0x20 DUP3 LT EQ PUSH2 0x217 JUMPI PUSH1 0x1F DUP2 GT PUSH2 0x1B4 JUMPI JUMPDEST POP PUSH1 0x20 SWAP2 PUSH1 0x1F DUP3 GT PUSH1 0x1 EQ PUSH2 0x154 JUMPI SWAP2 DUP2 SWAP3 PUSH0 SWAP3 PUSH2 0x149 JUMPI JUMPDEST POP POP DUP2 PUSH1 0x1 SHL SWAP2 PUSH0 NOT SWAP1 PUSH1 0x3 SHL SHR NOT AND OR PUSH1 0x3 SSTORE JUMPDEST PUSH1 0x40 MLOAD PUSH2 0xF56 SWAP1 DUP2 PUSH2 0x39D DUP3 CODECOPY RETURN JUMPDEST ADD MLOAD SWAP1 POP PUSH0 DUP1 PUSH2 0x125 JUMP JUMPDEST PUSH1 0x1F NOT DUP3 AND SWAP3 PUSH1 0x3 PUSH0 MSTORE DUP1 PUSH0 KECCAK256 SWAP2 PUSH0 JUMPDEST DUP6 DUP2 LT PUSH2 0x19C JUMPI POP DUP4 PUSH1 0x1 SWAP6 LT PUSH2 0x184 JUMPI JUMPDEST POP POP POP DUP2 SHL ADD PUSH1 0x3 SSTORE PUSH2 0x13A JUMP JUMPDEST ADD MLOAD PUSH0 NOT PUSH1 0xF8 DUP5 PUSH1 0x3 SHL AND SHR NOT AND SWAP1 SSTORE PUSH0 DUP1 DUP1 PUSH2 0x176 JUMP JUMPDEST SWAP2 SWAP3 PUSH1 0x20 PUSH1 0x1 DUP2 SWAP3 DUP7 DUP6 ADD MLOAD DUP2 SSTORE ADD SWAP5 ADD SWAP3 ADD PUSH2 0x164 JUMP JUMPDEST PUSH1 0x3 PUSH0 MSTORE PUSH32 0xC2575A0E9E593C00F959F8C92F12DB2869C3395A3B0502D05E2516446F71F85B PUSH1 0x1F DUP4 ADD PUSH1 0x5 SHR DUP2 ADD SWAP2 PUSH1 0x20 DUP5 LT PUSH2 0x20D JUMPI JUMPDEST PUSH1 0x1F ADD PUSH1 0x5 SHR ADD SWAP1 JUMPDEST DUP2 DUP2 LT PUSH2 0x202 JUMPI POP PUSH2 0x10C JUMP JUMPDEST PUSH0 DUP2 SSTORE PUSH1 0x1 ADD PUSH2 0x1F5 JUMP JUMPDEST SWAP1 SWAP2 POP DUP2 SWAP1 PUSH2 0x1EC JUMP JUMPDEST PUSH4 0x4E487B71 PUSH1 0xE0 SHL PUSH0 MSTORE PUSH1 0x22 PUSH1 0x4 MSTORE PUSH1 0x24 PUSH0 REVERT JUMPDEST SWAP1 PUSH1 0x7F AND SWAP1 PUSH2 0xFA JUMP JUMPDEST PUSH4 0x4E487B71 PUSH1 0xE0 SHL PUSH0 MSTORE PUSH1 0x41 PUSH1 0x4 MSTORE PUSH1 0x24 PUSH0 REVERT JUMPDEST ADD MLOAD SWAP1 POP PUSH0 DUP1 PUSH2 0xC4 JUMP JUMPDEST PUSH1 0x1F NOT DUP3 AND SWAP4 PUSH1 0x2 PUSH0 MSTORE DUP1 PUSH0 KECCAK256 SWAP2 PUSH0 JUMPDEST DUP7 DUP2 LT PUSH2 0x29D JUMPI POP DUP4 PUSH1 0x1 SWAP6 SWAP7 LT PUSH2 0x285 JUMPI JUMPDEST POP POP POP DUP2 SHL ADD PUSH1 0x2 SSTORE PUSH2 0xD9 JUMP JUMPDEST ADD MLOAD PUSH0 NOT PUSH1 0xF8 DUP5 PUSH1 0x3 SHL AND SHR NOT AND SWAP1 SSTORE PUSH0 DUP1 DUP1 PUSH2 0x277 JUMP JUMPDEST SWAP2 SWAP3 PUSH1 0x20 PUSH1 0x1 DUP2 SWAP3 DUP7 DUP6 ADD MLOAD DUP2 SSTORE ADD SWAP5 ADD SWAP3 ADD PUSH2 0x264 JUMP JUMPDEST PUSH1 0x2 PUSH0 MSTORE PUSH32 0x405787FA12A823E0F2B7631CC41B3BA8828B3321CA811111FA75CD3AA3BB5ACE PUSH1 0x1F DUP4 ADD PUSH1 0x5 SHR DUP2 ADD SWAP2 PUSH1 0x20 DUP5 LT PUSH2 0x30E JUMPI JUMPDEST PUSH1 0x1F ADD PUSH1 0x5 SHR ADD SWAP1 JUMPDEST DUP2 DUP2 LT PUSH2 0x303 JUMPI POP PUSH2 0xAA JUMP JUMPDEST PUSH0 DUP2 SSTORE PUSH1 0x1 ADD PUSH2 0x2F6 JUMP JUMPDEST SWAP1 SWAP2 POP DUP2 SWAP1 PUSH2 0x2ED JUMP JUMPDEST SWAP1 PUSH1 0x7F AND SWAP1 PUSH2 0x98 JUMP JUMPDEST PUSH0 DUP1 REVERT JUMPDEST PUSH1 0x40 MLOAD SWAP2 SWAP1 PUSH1 0x1F ADD PUSH1 0x1F NOT AND DUP3 ADD PUSH1 0x1 PUSH1 0x1 PUSH1 0x40 SHL SUB DUP2 GT DUP4 DUP3 LT OR PUSH2 0x235 JUMPI PUSH1 0x40 MSTORE JUMP JUMPDEST DUP2 PUSH1 0x1F DUP3 ADD SLT ISZERO PUSH2 0x322 JUMPI DUP1 MLOAD SWAP1 PUSH1 0x1 PUSH1 0x1 PUSH1 0x40 SHL SUB DUP3 GT PUSH2 0x235 JUMPI PUSH2 0x37A PUSH1 0x1F DUP4 ADD PUSH1 0x1F NOT AND PUSH1 0x20 ADD PUSH2 0x326 JUMP JUMPDEST SWAP3 DUP3 DUP5 MSTORE PUSH1 0x20 DUP4 DUP4 ADD ADD GT PUSH2 0x322 JUMPI DUP2 PUSH0 SWAP3 PUSH1 0x20 DUP1 SWAP4 ADD DUP4 DUP7 ADD MCOPY DUP4 ADD ADD MSTORE SWAP1 JUMP INVALID PUSH1 0x80 PUSH1 0x40 MSTORE PUSH1 0x4 CALLDATASIZE LT ISZERO PUSH2 0x11 JUMPI PUSH0 DUP1 REVERT JUMPDEST PUSH0 CALLDATALOAD PUSH1 0xE0 SHR DUP1 PUSH4 0x15070401 EQ PUSH2 0x4DC JUMPI DUP1 PUSH4 0x36B275E9 EQ PUSH2 0x637 JUMPI DUP1 PUSH4 0x48BAE592 EQ PUSH2 0x61B JUMPI DUP1 PUSH4 0x6CFCDCA7 EQ PUSH2 0x52A JUMPI DUP1 PUSH4 0x91AD27B4 EQ PUSH2 0x50F JUMPI DUP1 PUSH4 0x947A36FB EQ PUSH2 0x50F JUMPI DUP1 PUSH4 0x95D89B41 EQ PUSH2 0x4DC JUMPI DUP1 PUSH4 0xC3E3BFE5 EQ PUSH2 0x42F JUMPI DUP1 PUSH4 0xC45A0155 EQ PUSH2 0x407 JUMPI PUSH4 0xFBAD15DC EQ PUSH2 0x87 JUMPI PUSH0 DUP1 REVERT JUMPDEST CALLVALUE PUSH2 0x403 JUMPI PUSH1 0x40 CALLDATASIZE PUSH1 0x3 NOT ADD SLT PUSH2 0x403 JUMPI PUSH1 0x4 CALLDATALOAD PUSH1 0x24 CALLDATALOAD SWAP1 PUSH0 SLOAD DUP1 DUP3 LT ISZERO PUSH2 0x3C8 JUMPI DUP2 DUP4 LT ISZERO SWAP1 DUP2 PUSH2 0x3BE JUMPI JUMPDEST POP ISZERO PUSH2 0x385 JUMPI DUP1 DUP3 SUB SWAP2 DUP3 GT PUSH2 0x2F8 JUMPI PUSH1 0x1 DUP3 ADD DUP1 SWAP3 GT PUSH2 0x2F8 JUMPI PUSH2 0xD8 DUP3 PUSH2 0xEF4 JUMP JUMPDEST SWAP2 PUSH2 0xE6 PUSH1 0x40 MLOAD SWAP4 DUP5 PUSH2 0x72B JUMP JUMPDEST DUP1 DUP4 MSTORE PUSH1 0x1F NOT PUSH2 0xF5 DUP3 PUSH2 0xEF4 JUMP JUMPDEST ADD PUSH0 JUMPDEST DUP2 DUP2 LT PUSH2 0x30C JUMPI POP POP PUSH0 JUMPDEST DUP2 DUP2 LT PUSH2 0x217 JUMPI DUP4 PUSH1 0x40 MLOAD DUP1 SWAP2 PUSH1 0x20 DUP3 ADD PUSH1 0x20 DUP4 MSTORE DUP2 MLOAD DUP1 SWAP2 MSTORE PUSH1 0x40 DUP4 ADD SWAP1 PUSH1 0x20 PUSH1 0x40 DUP3 PUSH1 0x5 SHL DUP7 ADD ADD SWAP4 ADD SWAP2 PUSH0 SWAP1 JUMPDEST DUP3 DUP3 LT PUSH2 0x142 JUMPI POP POP POP POP SUB SWAP1 RETURN JUMPDEST SWAP2 SWAP4 PUSH1 0x1 SWAP2 SWAP4 SWAP6 POP PUSH1 0x20 DUP1 SWAP2 PUSH1 0x3F NOT DUP10 DUP3 SUB ADD DUP6 MSTORE DUP8 MLOAD SWAP1 DUP2 MLOAD DUP2 MSTORE DUP3 DUP3 ADD MLOAD DUP4 DUP3 ADD MSTORE PUSH2 0x1C0 DUP1 PUSH2 0x185 PUSH1 0x40 DUP6 ADD MLOAD PUSH2 0x1E0 PUSH1 0x40 DUP7 ADD MSTORE PUSH2 0x1E0 DUP6 ADD SWAP1 PUSH2 0x652 JUMP JUMPDEST SWAP4 PUSH1 0x60 DUP2 ADD MLOAD PUSH1 0x60 DUP6 ADD MSTORE PUSH1 0x80 DUP2 ADD MLOAD PUSH1 0x80 DUP6 ADD MSTORE PUSH1 0xA0 DUP2 ADD MLOAD PUSH1 0xA0 DUP6 ADD MSTORE PUSH1 0xC0 DUP2 ADD MLOAD PUSH1 0xC0 DUP6 ADD MSTORE PUSH1 0xE0 DUP2 ADD MLOAD PUSH1 0xE0 DUP6 ADD MSTORE PUSH2 0x100 DUP2 ADD MLOAD PUSH2 0x100 DUP6 ADD MSTORE PUSH2 0x120 DUP2 ADD MLOAD PUSH2 0x120 DUP6 ADD MSTORE PUSH2 0x140 DUP2 ADD MLOAD PUSH2 0x140 DUP6 ADD MSTORE PUSH2 0x160 DUP2 ADD MLOAD ISZERO ISZERO PUSH2 0x160 DUP6 ADD MSTORE PUSH2 0x180 DUP2 ADD MLOAD PUSH2 0x180 DUP6 ADD MSTORE PUSH2 0x1A0 DUP2 ADD MLOAD PUSH2 0x1A0 DUP6 ADD MSTORE ADD MLOAD SWAP2 ADD MSTORE SWAP7 ADD SWAP3 ADD SWAP3 ADD DUP6 SWAP5 SWAP4 SWAP2 SWAP3 PUSH2 0x133 JUMP JUMPDEST DUP1 DUP4 ADD SWAP1 DUP2 DUP5 GT PUSH2 0x2F8 JUMPI PUSH2 0x22D PUSH1 0x1 SWAP3 PUSH2 0x676 JUMP JUMPDEST POP PUSH1 0xE PUSH1 0x40 MLOAD SWAP2 PUSH2 0x23D DUP4 PUSH2 0x6FA JUMP JUMPDEST DUP1 SLOAD DUP4 MSTORE DUP5 DUP2 ADD SLOAD PUSH1 0x20 DUP5 ADD MSTORE PUSH2 0x256 PUSH1 0x2 DUP3 ADD PUSH2 0x899 JUMP JUMPDEST PUSH1 0x40 DUP5 ADD MSTORE PUSH1 0x3 DUP2 ADD SLOAD PUSH1 0x60 DUP5 ADD MSTORE PUSH1 0x4 DUP2 ADD SLOAD PUSH1 0x80 DUP5 ADD MSTORE PUSH1 0x5 DUP2 ADD SLOAD PUSH1 0xA0 DUP5 ADD MSTORE PUSH1 0x6 DUP2 ADD SLOAD PUSH1 0xC0 DUP5 ADD MSTORE PUSH1 0x7 DUP2 ADD SLOAD PUSH1 0xE0 DUP5 ADD MSTORE PUSH1 0x8 DUP2 ADD SLOAD PUSH2 0x100 DUP5 ADD MSTORE PUSH1 0x9 DUP2 ADD SLOAD PUSH2 0x120 DUP5 ADD MSTORE PUSH1 0xA DUP2 ADD SLOAD PUSH2 0x140 DUP5 ADD MSTORE PUSH1 0xFF PUSH1 0xB DUP3 ADD SLOAD AND ISZERO ISZERO PUSH2 0x160 DUP5 ADD MSTORE PUSH1 0xC DUP2 ADD SLOAD PUSH2 0x180 DUP5 ADD MSTORE PUSH1 0xD DUP2 ADD SLOAD PUSH2 0x1A0 DUP5 ADD MSTORE ADD SLOAD PUSH2 0x1C0 DUP3 ADD MSTORE PUSH2 0x2E6 DUP3 DUP8 PUSH2 0xF0C JUMP JUMPDEST MSTORE PUSH2 0x2F1 DUP2 DUP7 PUSH2 0xF0C JUMP JUMPDEST POP ADD PUSH2 0x103 JUMP JUMPDEST PUSH4 0x4E487B71 PUSH1 0xE0 SHL PUSH0 MSTORE PUSH1 0x11 PUSH1 0x4 MSTORE PUSH1 0x24 PUSH0 REVERT JUMPDEST PUSH1 0x20 SWAP1 PUSH1 0x40 MLOAD PUSH2 0x31B DUP2 PUSH2 0x6FA JUMP JUMPDEST PUSH0 DUP2 MSTORE PUSH0 DUP4 DUP3 ADD MSTORE PUSH1 0x60 PUSH1 0x40 DUP3 ADD MSTORE PUSH0 PUSH1 0x60 DUP3 ADD MSTORE PUSH0 PUSH1 0x80 DUP3 ADD MSTORE PUSH0 PUSH1 0xA0 DUP3 ADD MSTORE PUSH0 PUSH1 0xC0 DUP3 ADD MSTORE PUSH0 PUSH1 0xE0 DUP3 ADD MSTORE PUSH0 PUSH2 0x100 DUP3 ADD MSTORE PUSH0 PUSH2 0x120 DUP3 ADD MSTORE PUSH0 PUSH2 0x140 DUP3 ADD MSTORE PUSH0 PUSH2 0x160 DUP3 ADD MSTORE PUSH0 PUSH2 0x180 DUP3 ADD MSTORE PUSH0 PUSH2 0x1A0 DUP3 ADD MSTORE PUSH0 PUSH2 0x1C0 DUP3 ADD MSTORE DUP3 DUP3 DUP9 ADD ADD MSTORE ADD PUSH2 0xF8 JUMP JUMPDEST PUSH1 0x40 MLOAD PUSH3 0x461BCD PUSH1 0xE5 SHL DUP2 MSTORE PUSH1 0x20 PUSH1 0x4 DUP3 ADD MSTORE PUSH1 0x11 PUSH1 0x24 DUP3 ADD MSTORE PUSH17 0x92DCECC2D8D2C840CADCC840D2DCC8CAF PUSH1 0x7B SHL PUSH1 0x44 DUP3 ADD MSTORE PUSH1 0x64 SWAP1 REVERT JUMPDEST SWAP1 POP DUP3 LT PUSH0 PUSH2 0xB4 JUMP JUMPDEST PUSH1 0x40 MLOAD PUSH3 0x461BCD PUSH1 0xE5 SHL DUP2 MSTORE PUSH1 0x20 PUSH1 0x4 DUP3 ADD MSTORE PUSH1 0x13 PUSH1 0x24 DUP3 ADD MSTORE PUSH19 0x92DCECC2D8D2C840E6E8C2E4E840D2DCC8CAF PUSH1 0x6B SHL PUSH1 0x44 DUP3 ADD MSTORE PUSH1 0x64 SWAP1 REVERT JUMPDEST PUSH0 DUP1 REVERT JUMPDEST CALLVALUE PUSH2 0x403 JUMPI PUSH0 CALLDATASIZE PUSH1 0x3 NOT ADD SLT PUSH2 0x403 JUMPI PUSH1 0x1 SLOAD PUSH1 0x40 MLOAD PUSH1 0x1 PUSH1 0x1 PUSH1 0xA0 SHL SUB SWAP1 SWAP2 AND DUP2 MSTORE PUSH1 0x20 SWAP1 RETURN JUMPDEST CALLVALUE PUSH2 0x403 JUMPI PUSH1 0x20 CALLDATASIZE PUSH1 0x3 NOT ADD SLT PUSH2 0x403 JUMPI PUSH1 0x4 CALLDATALOAD PUSH8 0xFFFFFFFFFFFFFFFF DUP2 GT PUSH2 0x403 JUMPI PUSH2 0x200 PUSH1 0x3 NOT DUP3 CALLDATASIZE SUB ADD SLT PUSH2 0x403 JUMPI PUSH1 0x1 SLOAD PUSH1 0x1 PUSH1 0x1 PUSH1 0xA0 SHL SUB AND CALLER SUB PUSH2 0x48B JUMPI PUSH2 0x481 PUSH1 0x20 SWAP2 PUSH1 0x4 ADD PUSH2 0x9B0 JUMP JUMPDEST PUSH1 0x40 MLOAD SWAP1 ISZERO ISZERO DUP2 MSTORE RETURN JUMPDEST PUSH1 0x40 MLOAD PUSH3 0x461BCD PUSH1 0xE5 SHL DUP2 MSTORE PUSH1 0x20 PUSH1 0x4 DUP3 ADD MSTORE PUSH1 0x23 PUSH1 0x24 DUP3 ADD MSTORE PUSH32 0x4F6E6C7920466163746F72792063616E2063616C6C20746869732066756E6374 PUSH1 0x44 DUP3 ADD MSTORE PUSH3 0x34B7B7 PUSH1 0xE9 SHL PUSH1 0x64 DUP3 ADD MSTORE PUSH1 0x84 SWAP1 REVERT JUMPDEST CALLVALUE PUSH2 0x403 JUMPI PUSH0 CALLDATASIZE PUSH1 0x3 NOT ADD SLT PUSH2 0x403 JUMPI PUSH2 0x50B PUSH2 0x4F7 PUSH2 0x74D JUMP JUMPDEST PUSH1 0x40 MLOAD SWAP2 DUP3 SWAP2 PUSH1 0x20 DUP4 MSTORE PUSH1 0x20 DUP4 ADD SWAP1 PUSH2 0x652 JUMP JUMPDEST SUB SWAP1 RETURN JUMPDEST CALLVALUE PUSH2 0x403 JUMPI PUSH0 CALLDATASIZE PUSH1 0x3 NOT ADD SLT PUSH2 0x403 JUMPI PUSH2 0x50B PUSH2 0x4F7 PUSH2 0x804 JUMP JUMPDEST CALLVALUE PUSH2 0x403 JUMPI PUSH1 0x20 CALLDATASIZE PUSH1 0x3 NOT ADD SLT PUSH2 0x403 JUMPI PUSH1 0x4 CALLDATALOAD PUSH0 SLOAD DUP2 LT ISZERO PUSH2 0x403 JUMPI PUSH2 0x550 SWAP1 PUSH2 0x676 JUMP JUMPDEST POP DUP1 SLOAD PUSH1 0x1 DUP3 ADD SLOAD SWAP1 PUSH2 0x565 PUSH1 0x2 DUP5 ADD PUSH2 0x899 JUMP JUMPDEST SWAP3 PUSH1 0x3 DUP2 ADD SLOAD SWAP1 PUSH1 0x4 DUP2 ADD SLOAD PUSH1 0x5 DUP3 ADD SLOAD PUSH1 0x6 DUP4 ADD SLOAD PUSH1 0x7 DUP5 ADD SLOAD PUSH1 0x8 DUP6 ADD SLOAD PUSH1 0x9 DUP7 ADD SLOAD SWAP2 PUSH1 0xA DUP8 ADD SLOAD SWAP4 PUSH1 0xB DUP9 ADD SLOAD PUSH1 0xFF AND SWAP6 PUSH1 0xC DUP10 ADD SLOAD SWAP8 PUSH1 0xD DUP11 ADD SLOAD SWAP10 PUSH1 0xE ADD SLOAD SWAP11 PUSH1 0x40 MLOAD SWAP15 DUP16 SWAP15 DUP16 SWAP15 DUP16 SWAP1 DUP2 MSTORE PUSH1 0x20 ADD MSTORE DUP14 PUSH1 0x40 DUP2 ADD PUSH2 0x1E0 SWAP1 MSTORE PUSH2 0x1E0 ADD PUSH2 0x5D2 SWAP2 PUSH2 0x652 JUMP JUMPDEST SWAP13 PUSH1 0x60 ADD MSTORE PUSH1 0x80 DUP14 ADD MSTORE PUSH1 0xA0 DUP13 ADD MSTORE PUSH1 0xC0 DUP12 ADD MSTORE PUSH1 0xE0 DUP11 ADD MSTORE PUSH2 0x100 DUP10 ADD MSTORE PUSH2 0x120 DUP9 ADD MSTORE PUSH2 0x140 DUP8 ADD MSTORE ISZERO ISZERO PUSH2 0x160 DUP7 ADD MSTORE PUSH2 0x180 DUP6 ADD MSTORE PUSH2 0x1A0 DUP5 ADD MSTORE PUSH2 0x1C0 DUP4 ADD MSTORE SUB SWAP1 RETURN JUMPDEST CALLVALUE PUSH2 0x403 JUMPI PUSH0 CALLDATASIZE PUSH1 0x3 NOT ADD SLT PUSH2 0x403 JUMPI PUSH1 0x20 PUSH0 SLOAD PUSH1 0x40 MLOAD SWAP1 DUP2 MSTORE RETURN JUMPDEST CALLVALUE PUSH2 0x403 JUMPI PUSH0 CALLDATASIZE PUSH1 0x3 NOT ADD SLT PUSH2 0x403 JUMPI PUSH1 0x20 PUSH1 0x40 MLOAD PUSH1 0x2 DUP2 MSTORE RETURN JUMPDEST DUP1 MLOAD DUP1 DUP4 MSTORE PUSH1 0x20 SWAP3 SWAP2 DUP2 SWAP1 DUP5 ADD DUP5 DUP5 ADD MCOPY PUSH0 DUP3 DUP3 ADD DUP5 ADD MSTORE PUSH1 0x1F ADD PUSH1 0x1F NOT AND ADD ADD SWAP1 JUMP JUMPDEST PUSH0 SLOAD DUP2 LT ISZERO PUSH2 0x6AE JUMPI PUSH0 DUP1 DUP1 MSTORE PUSH1 0xF SWAP2 SWAP1 SWAP2 MUL PUSH32 0x290DECD9548B62A8D60345A988386FC84BA6BC95484008F6362F93160EF3E563 ADD SWAP2 JUMP JUMPDEST PUSH4 0x4E487B71 PUSH1 0xE0 SHL PUSH0 MSTORE PUSH1 0x32 PUSH1 0x4 MSTORE PUSH1 0x24 PUSH0 REVERT JUMPDEST SWAP1 PUSH1 0x1 DUP3 DUP2 SHR SWAP3 AND DUP1 ISZERO PUSH2 0x6F0 JUMPI JUMPDEST PUSH1 0x20 DUP4 LT EQ PUSH2 0x6DC JUMPI JUMP JUMPDEST PUSH4 0x4E487B71 PUSH1 0xE0 SHL PUSH0 MSTORE PUSH1 0x22 PUSH1 0x4 MSTORE PUSH1 0x24 PUSH0 REVERT JUMPDEST SWAP2 PUSH1 0x7F AND SWAP2 PUSH2 0x6D1 JUMP JUMPDEST PUSH2 0x1E0 DUP2 ADD SWAP1 DUP2 LT PUSH8 0xFFFFFFFFFFFFFFFF DUP3 GT OR PUSH2 0x717 JUMPI PUSH1 0x40 MSTORE JUMP JUMPDEST PUSH4 0x4E487B71 PUSH1 0xE0 SHL PUSH0 MSTORE PUSH1 0x41 PUSH1 0x4 MSTORE PUSH1 0x24 PUSH0 REVERT JUMPDEST SWAP1 PUSH1 0x1F DUP1 NOT SWAP2 ADD AND DUP2 ADD SWAP1 DUP2 LT PUSH8 0xFFFFFFFFFFFFFFFF DUP3 GT OR PUSH2 0x717 JUMPI PUSH1 0x40 MSTORE JUMP JUMPDEST PUSH1 0x40 MLOAD SWAP1 PUSH0 DUP3 PUSH1 0x2 SLOAD SWAP2 PUSH2 0x760 DUP4 PUSH2 0x6C2 JUMP JUMPDEST DUP1 DUP4 MSTORE SWAP3 PUSH1 0x1 DUP2 AND SWAP1 DUP2 ISZERO PUSH2 0x7E5 JUMPI POP PUSH1 0x1 EQ PUSH2 0x786 JUMPI JUMPDEST PUSH2 0x784 SWAP3 POP SUB DUP4 PUSH2 0x72B JUMP JUMPDEST JUMP JUMPDEST POP PUSH1 0x2 PUSH0 SWAP1 DUP2 MSTORE SWAP1 SWAP2 PUSH32 0x405787FA12A823E0F2B7631CC41B3BA8828B3321CA811111FA75CD3AA3BB5ACE JUMPDEST DUP2 DUP4 LT PUSH2 0x7C9 JUMPI POP POP SWAP1 PUSH1 0x20 PUSH2 0x784 SWAP3 DUP3 ADD ADD PUSH2 0x778 JUMP JUMPDEST PUSH1 0x20 SWAP2 SWAP4 POP DUP1 PUSH1 0x1 SWAP2 SLOAD DUP4 DUP6 DUP10 ADD ADD MSTORE ADD SWAP2 ADD SWAP1 SWAP2 DUP5 SWAP3 PUSH2 0x7B1 JUMP JUMPDEST PUSH1 0x20 SWAP3 POP PUSH2 0x784 SWAP5 SWAP2 POP PUSH1 0xFF NOT AND DUP3 DUP5 ADD MSTORE ISZERO ISZERO PUSH1 0x5 SHL DUP3 ADD ADD PUSH2 0x778 JUMP JUMPDEST PUSH1 0x40 MLOAD SWAP1 PUSH0 DUP3 PUSH1 0x3 SLOAD SWAP2 PUSH2 0x817 DUP4 PUSH2 0x6C2 JUMP JUMPDEST DUP1 DUP4 MSTORE SWAP3 PUSH1 0x1 DUP2 AND SWAP1 DUP2 ISZERO PUSH2 0x7E5 JUMPI POP PUSH1 0x1 EQ PUSH2 0x83A JUMPI PUSH2 0x784 SWAP3 POP SUB DUP4 PUSH2 0x72B JUMP JUMPDEST POP PUSH1 0x3 PUSH0 SWAP1 DUP2 MSTORE SWAP1 SWAP2 PUSH32 0xC2575A0E9E593C00F959F8C92F12DB2869C3395A3B0502D05E2516446F71F85B JUMPDEST DUP2 DUP4 LT PUSH2 0x87D JUMPI POP POP SWAP1 PUSH1 0x20 PUSH2 0x784 SWAP3 DUP3 ADD ADD PUSH2 0x778 JUMP JUMPDEST PUSH1 0x20 SWAP2 SWAP4 POP DUP1 PUSH1 0x1 SWAP2 SLOAD DUP4 DUP6 DUP10 ADD ADD MSTORE ADD SWAP2 ADD SWAP1 SWAP2 DUP5 SWAP3 PUSH2 0x865 JUMP JUMPDEST SWAP1 PUSH1 0x40 MLOAD SWAP2 DUP3 PUSH0 DUP3 SLOAD SWAP3 PUSH2 0x8AC DUP5 PUSH2 0x6C2 JUMP JUMPDEST DUP1 DUP5 MSTORE SWAP4 PUSH1 0x1 DUP2 AND SWAP1 DUP2 ISZERO PUSH2 0x915 JUMPI POP PUSH1 0x1 EQ PUSH2 0x8D1 JUMPI JUMPDEST POP PUSH2 0x784 SWAP3 POP SUB DUP4 PUSH2 0x72B JUMP JUMPDEST SWAP1 POP PUSH0 SWAP3 SWAP2 SWAP3 MSTORE PUSH1 0x20 PUSH0 KECCAK256 SWAP1 PUSH0 SWAP2 JUMPDEST DUP2 DUP4 LT PUSH2 0x8F9 JUMPI POP POP SWAP1 PUSH1 0x20 PUSH2 0x784 SWAP3 DUP3 ADD ADD PUSH0 PUSH2 0x8C4 JUMP JUMPDEST PUSH1 0x20 SWAP2 SWAP4 POP DUP1 PUSH1 0x1 SWAP2 SLOAD DUP4 DUP6 DUP10 ADD ADD MSTORE ADD SWAP2 ADD SWAP1 SWAP2 DUP5 SWAP3 PUSH2 0x8E0 JUMP JUMPDEST SWAP1 POP PUSH1 0x20 SWAP3 POP PUSH2 0x784 SWAP5 SWAP2 POP PUSH1 0xFF NOT AND DUP3 DUP5 ADD MSTORE ISZERO ISZERO PUSH1 0x5 SHL DUP3 ADD ADD PUSH0 PUSH2 0x8C4 JUMP JUMPDEST SWAP1 CALLDATALOAD SWAP1 PUSH1 0x1E NOT DUP2 CALLDATASIZE SUB ADD DUP3 SLT ISZERO PUSH2 0x403 JUMPI ADD DUP1 CALLDATALOAD SWAP1 PUSH8 0xFFFFFFFFFFFFFFFF DUP3 GT PUSH2 0x403 JUMPI PUSH1 0x20 ADD SWAP2 DUP2 CALLDATASIZE SUB DUP4 SGT PUSH2 0x403 JUMPI JUMP JUMPDEST SWAP3 SWAP2 SWAP3 PUSH8 0xFFFFFFFFFFFFFFFF DUP3 GT PUSH2 0x717 JUMPI PUSH1 0x40 MLOAD SWAP2 PUSH2 0x994 PUSH1 0x1F DUP3 ADD PUSH1 0x1F NOT AND PUSH1 0x20 ADD DUP5 PUSH2 0x72B JUMP JUMPDEST DUP3 SWAP5 DUP2 DUP5 MSTORE DUP2 DUP4 ADD GT PUSH2 0x403 JUMPI DUP3 DUP2 PUSH1 0x20 SWAP4 DUP5 PUSH0 SWAP7 ADD CALLDATACOPY ADD ADD MSTORE JUMP JUMPDEST PUSH2 0x9C7 PUSH2 0x9C0 PUSH1 0x60 DUP4 ADD DUP4 PUSH2 0x937 JUMP JUMPDEST CALLDATASIZE SWAP2 PUSH2 0x96A JUMP JUMPDEST PUSH1 0x20 DUP2 MLOAD SWAP2 ADD KECCAK256 PUSH2 0x9D6 PUSH2 0x804 JUMP JUMPDEST PUSH1 0x20 DUP2 MLOAD SWAP2 ADD KECCAK256 SUB PUSH2 0xE97 JUMPI PUSH1 0x40 DUP2 ADD SWAP1 PUSH2 0x9F4 PUSH2 0x9C0 DUP4 DUP4 PUSH2 0x937 JUMP JUMPDEST PUSH1 0x20 DUP2 MLOAD SWAP2 ADD KECCAK256 PUSH2 0xA03 PUSH2 0x74D JUMP JUMPDEST PUSH1 0x20 DUP2 MLOAD SWAP2 ADD KECCAK256 SUB PUSH2 0xE3E JUMPI DUP1 CALLDATALOAD SWAP1 PUSH1 0x20 DUP2 ADD CALLDATALOAD SWAP3 DUP4 DUP4 LT ISZERO PUSH2 0xDDE JUMPI PUSH1 0xE0 DUP3 ADD CALLDATALOAD PUSH2 0x100 DUP4 ADD CALLDATALOAD SWAP3 DUP4 DUP3 LT PUSH2 0xD87 JUMPI PUSH1 0xC0 DUP2 ADD CALLDATALOAD SWAP4 DUP5 ISZERO ISZERO DUP1 PUSH2 0xD79 JUMPI JUMPDEST ISZERO PUSH2 0xD34 JUMPI PUSH0 SLOAD SWAP4 PUSH1 0x2 DUP6 LT ISZERO PUSH2 0xCFE JUMPI PUSH2 0xA5D SWAP1 DUP4 PUSH2 0x937 JUMP JUMPDEST SWAP2 SWAP1 SWAP4 PUSH2 0x180 DUP5 ADD CALLDATALOAD SWAP3 DUP4 ISZERO ISZERO DUP1 SWAP5 SUB PUSH2 0x403 JUMPI PUSH2 0x1E0 SWAP6 PUSH2 0xA96 SWAP2 PUSH1 0x40 MLOAD SWAP11 PUSH2 0xA86 DUP13 PUSH2 0x6FA JUMP JUMPDEST DUP12 MSTORE PUSH1 0x20 DUP12 ADD SWAP12 DUP13 MSTORE CALLDATASIZE SWAP2 PUSH2 0x96A JUMP JUMPDEST SWAP7 PUSH1 0x40 DUP10 ADD SWAP8 DUP9 MSTORE PUSH1 0x80 DUP6 ADD CALLDATALOAD PUSH1 0x60 DUP11 ADD MSTORE PUSH1 0xA0 DUP6 ADD CALLDATALOAD PUSH1 0x80 DUP11 ADD MSTORE PUSH1 0xA0 DUP10 ADD MSTORE PUSH1 0xC0 DUP9 ADD MSTORE PUSH1 0xE0 DUP8 ADD MSTORE PUSH2 0x120 DUP3 ADD CALLDATALOAD PUSH2 0x100 DUP8 ADD MSTORE PUSH2 0x140 DUP3 ADD CALLDATALOAD PUSH2 0x120 DUP8 ADD MSTORE PUSH2 0x160 DUP3 ADD CALLDATALOAD PUSH2 0x140 DUP8 ADD MSTORE PUSH2 0x160 DUP7 ADD MSTORE PUSH2 0x1A0 DUP2 ADD CALLDATALOAD PUSH2 0x180 DUP7 ADD MSTORE PUSH2 0x1C0 DUP2 ADD CALLDATALOAD PUSH2 0x1A0 DUP7 ADD MSTORE ADD CALLDATALOAD PUSH2 0x1C0 DUP5 ADD MSTORE PUSH9 0x10000000000000000 DUP2 LT ISZERO PUSH2 0x717 JUMPI DUP1 PUSH1 0x1 PUSH2 0xB2B SWAP3 ADD PUSH0 SSTORE PUSH2 0x676 JUMP JUMPDEST SWAP4 SWAP1 SWAP4 PUSH2 0xCEB JUMPI DUP3 MLOAD DUP5 SSTORE MLOAD PUSH1 0x1 DUP5 ADD SSTORE MLOAD DUP1 MLOAD SWAP1 PUSH8 0xFFFFFFFFFFFFFFFF DUP3 GT PUSH2 0x717 JUMPI PUSH2 0xB5C PUSH1 0x2 DUP6 ADD SLOAD PUSH2 0x6C2 JUMP JUMPDEST PUSH1 0x1F DUP2 GT PUSH2 0xCA3 JUMPI JUMPDEST POP PUSH1 0x20 SWAP1 PUSH1 0x1F DUP4 GT PUSH1 0x1 EQ PUSH2 0xC32 JUMPI SWAP2 DUP1 PUSH1 0xE SWAP5 SWAP3 PUSH2 0x1C0 SWAP5 PUSH0 SWAP3 PUSH2 0xC27 JUMPI JUMPDEST POP POP DUP2 PUSH1 0x1 SHL SWAP2 PUSH0 NOT SWAP1 PUSH1 0x3 SHL SHR NOT AND OR PUSH1 0x2 DUP6 ADD SSTORE JUMPDEST PUSH1 0x60 DUP2 ADD MLOAD PUSH1 0x3 DUP6 ADD SSTORE PUSH1 0x80 DUP2 ADD MLOAD PUSH1 0x4 DUP6 ADD SSTORE PUSH1 0xA0 DUP2 ADD MLOAD PUSH1 0x5 DUP6 ADD SSTORE PUSH1 0xC0 DUP2 ADD MLOAD PUSH1 0x6 DUP6 ADD SSTORE PUSH1 0xE0 DUP2 ADD MLOAD PUSH1 0x7 DUP6 ADD SSTORE PUSH2 0x100 DUP2 ADD MLOAD PUSH1 0x8 DUP6 ADD SSTORE PUSH2 0x120 DUP2 ADD MLOAD PUSH1 0x9 DUP6 ADD SSTORE PUSH2 0x140 DUP2 ADD MLOAD PUSH1 0xA DUP6 ADD SSTORE PUSH1 0xB DUP5 ADD PUSH2 0x160 DUP3 ADD MLOAD ISZERO ISZERO PUSH1 0xFF DUP1 NOT DUP4 SLOAD AND SWAP2 AND OR SWAP1 SSTORE PUSH2 0x180 DUP2 ADD MLOAD PUSH1 0xC DUP6 ADD SSTORE PUSH2 0x1A0 DUP2 ADD MLOAD PUSH1 0xD DUP6 ADD SSTORE ADD MLOAD SWAP2 ADD SSTORE PUSH1 0x1 SWAP1 JUMP JUMPDEST ADD MLOAD SWAP1 POP PUSH0 DUP1 PUSH2 0xB85 JUMP JUMPDEST SWAP1 PUSH1 0x2 DUP6 ADD PUSH0 MSTORE DUP1 PUSH0 KECCAK256 SWAP2 PUSH0 JUMPDEST PUSH1 0x1F NOT DUP6 AND DUP2 LT PUSH2 0xC8B JUMPI POP SWAP3 PUSH1 0xE SWAP5 SWAP3 PUSH1 0x1 SWAP3 PUSH2 0x1C0 SWAP6 DUP4 PUSH1 0x1F NOT DUP2 AND LT PUSH2 0xC73 JUMPI JUMPDEST POP POP POP DUP2 SHL ADD PUSH1 0x2 DUP6 ADD SSTORE PUSH2 0xB9C JUMP JUMPDEST ADD MLOAD PUSH0 NOT PUSH1 0xF8 DUP5 PUSH1 0x3 SHL AND SHR NOT AND SWAP1 SSTORE PUSH0 DUP1 DUP1 PUSH2 0xC63 JUMP JUMPDEST SWAP2 SWAP3 PUSH1 0x20 PUSH1 0x1 DUP2 SWAP3 DUP7 DUP6 ADD MLOAD DUP2 SSTORE ADD SWAP5 ADD SWAP3 ADD PUSH2 0xC3F JUMP JUMPDEST PUSH1 0x2 DUP6 ADD PUSH0 MSTORE PUSH1 0x20 PUSH0 KECCAK256 PUSH1 0x1F DUP5 ADD PUSH1 0x5 SHR DUP2 ADD SWAP2 PUSH1 0x20 DUP6 LT PUSH2 0xCE1 JUMPI JUMPDEST PUSH1 0x1F ADD PUSH1 0x5 SHR ADD SWAP1 JUMPDEST DUP2 DUP2 LT PUSH2 0xCD6 JUMPI POP PUSH2 0xB65 JUMP JUMPDEST PUSH0 DUP2 SSTORE PUSH1 0x1 ADD PUSH2 0xCC9 JUMP JUMPDEST SWAP1 SWAP2 POP DUP2 SWAP1 PUSH2 0xCC0 JUMP JUMPDEST PUSH4 0x4E487B71 PUSH1 0xE0 SHL PUSH0 MSTORE PUSH0 PUSH1 0x4 MSTORE PUSH1 0x24 PUSH0 REVERT JUMPDEST POP POP POP POP POP POP POP POP PUSH32 0xAB46F58ED46D8E5290C399FBBA8CA416A8FED3A8DFC83C30486E4A90FF0564F1 PUSH1 0x20 PUSH1 0x40 MLOAD TIMESTAMP DUP2 MSTORE LOG1 PUSH0 SWAP1 JUMP JUMPDEST PUSH1 0x40 MLOAD PUSH3 0x461BCD PUSH1 0xE5 SHL DUP2 MSTORE PUSH1 0x20 PUSH1 0x4 DUP3 ADD MSTORE PUSH1 0x1F PUSH1 0x24 DUP3 ADD MSTORE PUSH32 0x4F70656E20616E6420636C6F7365206D75737420626520706F73697469766500 PUSH1 0x44 DUP3 ADD MSTORE PUSH1 0x64 SWAP1 REVERT JUMPDEST POP PUSH2 0x120 DUP3 ADD CALLDATALOAD ISZERO ISZERO PUSH2 0xA42 JUMP JUMPDEST PUSH1 0x40 MLOAD PUSH3 0x461BCD PUSH1 0xE5 SHL DUP2 MSTORE PUSH1 0x20 PUSH1 0x4 DUP3 ADD MSTORE PUSH1 0x29 PUSH1 0x24 DUP3 ADD MSTORE PUSH32 0x48696768206D7573742062652067726561746572207468616E206F7220657175 PUSH1 0x44 DUP3 ADD MSTORE PUSH9 0x616C20746F206C6F77 PUSH1 0xB8 SHL PUSH1 0x64 DUP3 ADD MSTORE PUSH1 0x84 SWAP1 REVERT JUMPDEST PUSH1 0x40 MLOAD PUSH3 0x461BCD PUSH1 0xE5 SHL DUP2 MSTORE PUSH1 0x20 PUSH1 0x4 DUP3 ADD MSTORE PUSH1 0x32 PUSH1 0x24 DUP3 ADD MSTORE PUSH32 0x456E642074696D657374616D70206D7573742062652067726561746572207468 PUSH1 0x44 DUP3 ADD MSTORE PUSH18 0x616E2073746172742074696D657374616D7 PUSH1 0x74 SHL PUSH1 0x64 DUP3 ADD MSTORE PUSH1 0x84 SWAP1 REVERT JUMPDEST PUSH1 0x40 MLOAD PUSH3 0x461BCD PUSH1 0xE5 SHL DUP2 MSTORE PUSH1 0x20 PUSH1 0x4 DUP3 ADD MSTORE PUSH1 0x2B PUSH1 0x24 DUP3 ADD MSTORE PUSH32 0x4B6C696E652073796D626F6C20646F6573206E6F74206D6174636820636F6E74 PUSH1 0x44 DUP3 ADD MSTORE PUSH11 0x1C9858DD081CDE5B589BDB PUSH1 0xAA SHL PUSH1 0x64 DUP3 ADD MSTORE PUSH1 0x84 SWAP1 REVERT JUMPDEST PUSH1 0x40 MLOAD PUSH3 0x461BCD PUSH1 0xE5 SHL DUP2 MSTORE PUSH1 0x20 PUSH1 0x4 DUP3 ADD MSTORE PUSH1 0x2F PUSH1 0x24 DUP3 ADD MSTORE PUSH32 0x4B6C696E6520696E74657276616C20646F6573206E6F74206D6174636820636F PUSH1 0x44 DUP3 ADD MSTORE PUSH15 0x1B9D1C9858DD081A5B9D195C9D985B PUSH1 0x8A SHL PUSH1 0x64 DUP3 ADD MSTORE PUSH1 0x84 SWAP1 REVERT JUMPDEST PUSH8 0xFFFFFFFFFFFFFFFF DUP2 GT PUSH2 0x717 JUMPI PUSH1 0x5 SHL PUSH1 0x20 ADD SWAP1 JUMP JUMPDEST DUP1 MLOAD DUP3 LT ISZERO PUSH2 0x6AE JUMPI PUSH1 0x20 SWAP2 PUSH1 0x5 SHL ADD ADD SWAP1 JUMP INVALID LOG2 PUSH5 0x6970667358 0x22 SLT KECCAK256 PUSH16 0xA8D20160D45D68809CF1EDE720673512 SGT 0xA5 BLOBBASEFEE MULMOD MOD 0xDA DUP2 0xD4 0xB1 DUP4 ORIGIN PUSH29 0xFA86C164736F6C634300081E0033A26469706673582212201995CA879B EXTCODEHASH DUP15 MSTORE8 DUP16 EXP 0xA8 0xA6 EQ SLT 0xB3 SAR 0x4E PUSH9 0xD6A0876FA8C9818D76 MSTORE EXTSTATICCALL PUSH16 0xE28964736F6C634300081E0033000000 "
				},
				"gasEstimates": {
					"creation": {
						"codeDepositCost": "2198000",
						"executionCost": "26592",
						"totalCost": "2224592"
					},
					"external": {
						"addKline(string,string,(uint256,uint256,string,string,uint256,uint256,uint256,uint256,uint256,uint256,uint256,uint256,bool,uint256,uint256,uint256))": "infinite",
						"getIntervals(string)": "infinite",
						"getKlineData(string,string,uint256,uint256,uint256)": "infinite",
						"owner()": "2316",
						"symbolIntervalContracts(string,string,uint256)": "infinite",
						"symbolIntervals(string,uint256)": "infinite"
					},
					"internal": {
						"_deployNewContract(string memory,string memory)": "infinite",
						"_ensureSymbolAndInterval(string memory,string memory)": "infinite"
					}
				},
				"methodIdentifiers": {
					"addKline(string,string,(uint256,uint256,string,string,uint256,uint256,uint256,uint256,uint256,uint256,uint256,uint256,bool,uint256,uint256,uint256))": "a5459321",
					"getIntervals(string)": "c1d13ebc",
					"getKlineData(string,string,uint256,uint256,uint256)": "a6b5dea2",
					"owner()": "8da5cb5b",
					"symbolIntervalContracts(string,string,uint256)": "6eb350cf",
					"symbolIntervals(string,uint256)": "06d3dc52"
				}
			},
			"storageLayout": {
				"storage": [
					{
						"astId": 17,
						"contract": "contracts/FactoryContract.sol:FactoryContract",
						"label": "symbolIntervalContracts",
						"offset": 0,
						"slot": "0",
						"type": "t_mapping(t_string_memory_ptr,t_mapping(t_string_memory_ptr,t_array(t_struct(ContractInfo)9_storage)dyn_storage))"
					},
					{
						"astId": 22,
						"contract": "contracts/FactoryContract.sol:FactoryContract",
						"label": "symbolIntervals",
						"offset": 0,
						"slot": "1",
						"type": "t_mapping(t_string_memory_ptr,t_array(t_string_storage)dyn_storage)"
					},
					{
						"astId": 24,
						"contract": "contracts/FactoryContract.sol:FactoryContract",
						"label": "owner",
						"offset": 0,
						"slot": "2",
						"type": "t_address"
					}
				],
				"types": {
					"t_address": {
						"encoding": "inplace",
						"label": "address",
						"numberOfBytes": "20"
					},
					"t_array(t_string_storage)dyn_storage": {
						"base": "t_string_storage",
						"encoding": "dynamic_array",
						"label": "string[]",
						"numberOfBytes": "32"
					},
					"t_array(t_struct(ContractInfo)9_storage)dyn_storage": {
						"base": "t_struct(ContractInfo)9_storage",
						"encoding": "dynamic_array",
						"label": "struct FactoryContract.ContractInfo[]",
						"numberOfBytes": "32"
					},
					"t_mapping(t_string_memory_ptr,t_array(t_string_storage)dyn_storage)": {
						"encoding": "mapping",
						"key": "t_string_memory_ptr",
						"label": "mapping(string => string[])",
						"numberOfBytes": "32",
						"value": "t_array(t_string_storage)dyn_storage"
					},
					"t_mapping(t_string_memory_ptr,t_array(t_struct(ContractInfo)9_storage)dyn_storage)": {
						"encoding": "mapping",
						"key": "t_string_memory_ptr",
						"label": "mapping(string => struct FactoryContract.ContractInfo[])",
						"numberOfBytes": "32",
						"value": "t_array(t_struct(ContractInfo)9_storage)dyn_storage"
					},
					"t_mapping(t_string_memory_ptr,t_mapping(t_string_memory_ptr,t_array(t_struct(ContractInfo)9_storage)dyn_storage))": {
						"encoding": "mapping",
						"key": "t_string_memory_ptr",
						"label": "mapping(string => mapping(string => struct FactoryContract.ContractInfo[]))",
						"numberOfBytes": "32",
						"value": "t_mapping(t_string_memory_ptr,t_array(t_struct(ContractInfo)9_storage)dyn_storage)"
					},
					"t_string_memory_ptr": {
						"encoding": "bytes",
						"label": "string",
						"numberOfBytes": "32"
					},
					"t_string_storage": {
						"encoding": "bytes",
						"label": "string",
						"numberOfBytes": "32"
					},
					"t_struct(ContractInfo)9_storage": {
						"encoding": "inplace",
						"label": "struct FactoryContract.ContractInfo",
						"members": [
							{
								"astId": 4,
								"contract": "contracts/FactoryContract.sol:FactoryContract",
								"label": "contractAddress",
								"offset": 0,
								"slot": "0",
								"type": "t_address"
							},
							{
								"astId": 6,
								"contract": "contracts/FactoryContract.sol:FactoryContract",
								"label": "startTimestamp",
								"offset": 0,
								"slot": "1",
								"type": "t_uint256"
							},
							{
								"astId": 8,
								"contract": "contracts/FactoryContract.sol:FactoryContract",
								"label": "endTimestamp",
								"offset": 0,
								"slot": "2",
								"type": "t_uint256"
							}
						],
						"numberOfBytes": "96"
					},
					"t_uint256": {
						"encoding": "inplace",
						"label": "uint256",
						"numberOfBytes": "32"
					}
				}
			},
			"userdoc": {
				"kind": "user",
				"methods": {},
				"version": 1
			}
		}
	}
}