{
	"data": {
		"bytecode": {
			"linkReferences": {},
			"object": "6080604052346103225761136c8038038061001981610326565b9283398101906040818303126103225780516001600160401b038111610322578261004591830161034b565b60208201519092906001600160401b03811161032257610065920161034b565b600180546001600160a01b0319163317905581516001600160401b03811161023557600254600181811c91168015610318575b602082101461021757601f81116102b5575b50602092601f821160011461025457928192935f92610249575b50508160011b915f199060031b1c1916176002555b80516001600160401b03811161023557600354600181811c9116801561022b575b602082101461021757601f81116101b4575b50602091601f8211600114610154579181925f92610149575b50508160011b915f199060031b1c1916176003555b604051610fcf908161039d8239f35b015190505f80610125565b601f1982169260035f52805f20915f5b85811061019c57508360019510610184575b505050811b0160035561013a565b01515f1960f88460031b161c191690555f8080610176565b91926020600181928685015181550194019201610164565b60035f527fc2575a0e9e593c00f959f8c92f12db2869c3395a3b0502d05e2516446f71f85b601f830160051c8101916020841061020d575b601f0160051c01905b818110610202575061010c565b5f81556001016101f5565b90915081906101ec565b634e487b7160e01b5f52602260045260245ffd5b90607f16906100fa565b634e487b7160e01b5f52604160045260245ffd5b015190505f806100c4565b601f1982169360025f52805f20915f5b86811061029d5750836001959610610285575b505050811b016002556100d9565b01515f1960f88460031b161c191690555f8080610277565b91926020600181928685015181550194019201610264565b60025f527f405787fa12a823e0f2b7631cc41b3ba8828b3321ca811111fa75cd3aa3bb5ace601f830160051c8101916020841061030e575b601f0160051c01905b81811061030357506100aa565b5f81556001016102f6565b90915081906102ed565b90607f1690610098565b5f80fd5b6040519190601f01601f191682016001600160401b0381118382101761023557604052565b81601f82011215610322578051906001600160401b0382116102355761037a601f8301601f1916602001610326565b928284526020838301011161032257815f9260208093018386015e830101529056fe60806040526004361015610011575f80fd5b5f3560e01c806315070401146104dc57806336b275e91461063757806348bae5921461061b5780636cfcdca71461052a57806391ad27b41461050f578063947a36fb1461050f57806395d89b41146104dc578063c3e3bfe51461042f578063c45a0155146104075763fbad15dc14610087575f80fd5b3461040357604036600319011261040357600435602435905f54808210156103c8578183101590816103be575b5015610385578082039182116102f857600182018092116102f8576100d882610f6d565b916100e6604051938461072c565b808352601f196100f582610f6d565b015f5b81811061030c5750505f5b81811061021757836040518091602082016020835281518091526040830190602060408260051b8601019301915f905b82821061014257505050500390f35b919360019193955060208091603f198982030185528751908151815282820151838201526101c08061018560408501516101e060408601526101e0850190610653565b93606081015160608501526080810151608085015260a081015160a085015260c081015160c085015260e081015160e085015261010081015161010085015261012081015161012085015261014081015161014085015261016081015115156101608501526101808101516101808501526101a08101516101a085015201519101529601920192018594939192610133565b808301908184116102f85761022d600192610677565b50600e6040519161023d836106fb565b805483528481015460208401526102566002820161089a565b60408401526003810154606084015260048101546080840152600581015460a0840152600681015460c0840152600781015460e084015260088101546101008401526009810154610120840152600a81015461014084015260ff600b820154161515610160840152600c810154610180840152600d8101546101a084015201546101c08201526102e68287610f85565b526102f18186610f85565b5001610103565b634e487b7160e01b5f52601160045260245ffd5b60209060405161031b816106fb565b5f81525f83820152606060408201525f60608201525f60808201525f60a08201525f60c08201525f60e08201525f6101008201525f6101208201525f6101408201525f6101608201525f6101808201525f6101a08201525f6101c0820152828288010152016100f8565b60405162461bcd60e51b8152602060048201526011602482015270092dcecc2d8d2c840cadcc840d2dcc8caf607b1b6044820152606490fd5b905082105f6100b4565b60405162461bcd60e51b8152602060048201526013602482015272092dcecc2d8d2c840e6e8c2e4e840d2dcc8caf606b1b6044820152606490fd5b5f80fd5b34610403575f366003190112610403576001546040516001600160a01b039091168152602090f35b346104035760203660031901126104035760043567ffffffffffffffff8111610403576102006003198236030112610403576001546001600160a01b0316330361048b576104816020916004016109be565b6040519015158152f35b60405162461bcd60e51b815260206004820152602360248201527f4f6e6c7920466163746f72792063616e2063616c6c20746869732066756e637460448201526234b7b760e91b6064820152608490fd5b34610403575f3660031901126104035761050b6104f761074e565b604051918291602083526020830190610653565b0390f35b34610403575f3660031901126104035761050b6104f7610805565b34610403576020366003190112610403576004355f548110156104035761055090610677565b5080546001820154906105656002840161089a565b9260038101549060048101546005820154600683015460078401546008850154600986015491600a87015493600b88015460ff1695600c89015497600d8a015499600e01549a6040519e8f9e8f9e8f908152602001528d604081016101e090526101e0016105d291610653565b9c6060015260808d015260a08c015260c08b015260e08a015261010089015261012088015261014087015215156101608601526101808501526101a08401526101c08301520390f35b34610403575f3660031901126104035760205f54604051908152f35b34610403575f3660031901126104035760206040516127108152f35b805180835260209291819084018484015e5f828201840152601f01601f1916010190565b5f548110156106af575f808052600f919091027f290decd9548b62a8d60345a988386fc84ba6bc95484008f6362f93160ef3e5630191565b634e487b7160e01b5f52603260045260245ffd5b90600182811c921680156106f1575b60208310146106dd57565b634e487b7160e01b5f52602260045260245ffd5b91607f16916106d2565b6101e0810190811067ffffffffffffffff82111761071857604052565b634e487b7160e01b5f52604160045260245ffd5b90601f8019910116810190811067ffffffffffffffff82111761071857604052565b604051905f8260025491610761836106c3565b80835292600181169081156107e65750600114610787575b6107859250038361072c565b565b5060025f90815290917f405787fa12a823e0f2b7631cc41b3ba8828b3321ca811111fa75cd3aa3bb5ace5b8183106107ca57505090602061078592820101610779565b60209193508060019154838589010152019101909184926107b2565b6020925061078594915060ff191682840152151560051b820101610779565b604051905f8260035491610818836106c3565b80835292600181169081156107e6575060011461083b576107859250038361072c565b5060035f90815290917fc2575a0e9e593c00f959f8c92f12db2869c3395a3b0502d05e2516446f71f85b5b81831061087e57505090602061078592820101610779565b6020919350806001915483858901015201910190918492610866565b9060405191825f8254926108ad846106c3565b808452936001811690811561091657506001146108d2575b506107859250038361072c565b90505f9291925260205f20905f915b8183106108fa575050906020610785928201015f6108c5565b60209193508060019154838589010152019101909184926108e1565b90506020925061078594915060ff191682840152151560051b8201015f6108c5565b903590601e1981360301821215610403570180359067ffffffffffffffff82116104035760200191813603831361040357565b92919267ffffffffffffffff82116107185760405191610995601f8201601f19166020018461072c565b829481845281830111610403578281602093845f960137010152565b3580151581036104035790565b6109d56109ce6060830183610938565b369161096b565b602081519101206109e4610805565b6020815191012003610f10576040810190610a026109ce8383610938565b60208151910120610a1161074e565b6020815191012003610eb7578035916020820135831015610e575760e08201359061010083013590818310610e005760c08401359081151580610df2575b15610dad575f5490612710821015610d7857610a6b9086610938565b949093610a7b61018088016109b1565b91610aa260405196610a8c886106fb565b8a8852602088019860208b01358a52369161096b565b94604087019586526080890135606088015260a0890135608088015260a087015260c086015260e085015261012086013561010085015261014086013561012085015261016086013561014085015215156101608401526101a08501356101808401526101c08501356101a08401526101e08501356101c08401526801000000000000000081101561071857806001610b3d92015f55610677565b939093610d6557825184555160018401555180519067ffffffffffffffff821161071857610b6e60028501546106c3565b601f8111610d1d575b50602090601f8311600114610c87577fdffbb82d6bdae68b617e97b98ea33a13389df8392c648b01bda036311677da9995938360409694600e946101c0945f92610c7c575b50508160011b915f199060031b1c19161760028501555b606081015160038501556080810151600485015560a0810151600585015560c0810151600685015560e0810151600785015561010081015160088501556101208101516009850155610140810151600a850155600b8401610160820151151560ff80198354169116179055610180810151600c8501556101a0810151600d8501550151910155610c6661018082016109b1565b60208351920135825215156020820152a2600190565b015190505f80610bbc565b90600285015f52805f20915f5b601f1985168110610d05575093600184600e946101c0947fdffbb82d6bdae68b617e97b98ea33a13389df8392c648b01bda036311677da999a9860409a98601f19811610610ced575b505050811b016002850155610bd3565b01515f1960f88460031b161c191690555f8080610cdd565b91926020600181928685015181550194019201610c94565b600285015f5260205f20601f840160051c81019160208510610d5b575b601f0160051c01905b818110610d505750610b77565b5f8155600101610d43565b9091508190610d3a565b634e487b7160e01b5f525f60045260245ffd5b505050505050507fab46f58ed46d8e5290c399fbba8ca416a8fed3a8dfc83c30486e4a90ff0564f16020604051428152a15f90565b60405162461bcd60e51b815260206004820152601f60248201527f4f70656e20616e6420636c6f7365206d75737420626520706f736974697665006044820152606490fd5b506101208501351515610a4f565b60405162461bcd60e51b815260206004820152602960248201527f48696768206d7573742062652067726561746572207468616e206f7220657175604482015268616c20746f206c6f7760b81b6064820152608490fd5b60405162461bcd60e51b815260206004820152603260248201527f456e642074696d657374616d70206d75737420626520677265617465722074686044820152710616e2073746172742074696d657374616d760741b6064820152608490fd5b60405162461bcd60e51b815260206004820152602b60248201527f4b6c696e652073796d626f6c20646f6573206e6f74206d6174636820636f6e7460448201526a1c9858dd081cde5b589bdb60aa1b6064820152608490fd5b60405162461bcd60e51b815260206004820152602f60248201527f4b6c696e6520696e74657276616c20646f6573206e6f74206d6174636820636f60448201526e1b9d1c9858dd081a5b9d195c9d985b608a1b6064820152608490fd5b67ffffffffffffffff81116107185760051b60200190565b80518210156106af5760209160051b01019056fea26469706673582212202b1ecf41ed0b78201122462a2546aacbe5ee9e249f021e2d927d0b1ef7f6f40064736f6c634300081e0033",
			"opcodes": "PUSH1 0x80 PUSH1 0x40 MSTORE CALLVALUE PUSH2 0x322 JUMPI PUSH2 0x136C DUP1 CODESIZE SUB DUP1 PUSH2 0x19 DUP2 PUSH2 0x326 JUMP JUMPDEST SWAP3 DUP4 CODECOPY DUP2 ADD SWAP1 PUSH1 0x40 DUP2 DUP4 SUB SLT PUSH2 0x322 JUMPI DUP1 MLOAD PUSH1 0x1 PUSH1 0x1 PUSH1 0x40 SHL SUB DUP2 GT PUSH2 0x322 JUMPI DUP3 PUSH2 0x45 SWAP2 DUP4 ADD PUSH2 0x34B JUMP JUMPDEST PUSH1 0x20 DUP3 ADD MLOAD SWAP1 SWAP3 SWAP1 PUSH1 0x1 PUSH1 0x1 PUSH1 0x40 SHL SUB DUP2 GT PUSH2 0x322 JUMPI PUSH2 0x65 SWAP3 ADD PUSH2 0x34B JUMP JUMPDEST PUSH1 0x1 DUP1 SLOAD PUSH1 0x1 PUSH1 0x1 PUSH1 0xA0 SHL SUB NOT AND CALLER OR SWAP1 SSTORE DUP2 MLOAD PUSH1 0x1 PUSH1 0x1 PUSH1 0x40 SHL SUB DUP2 GT PUSH2 0x235 JUMPI PUSH1 0x2 SLOAD PUSH1 0x1 DUP2 DUP2 SHR SWAP2 AND DUP1 ISZERO PUSH2 0x318 JUMPI JUMPDEST PUSH1 0x20 DUP3 LT EQ PUSH2 0x217 JUMPI PUSH1 0x1F DUP2 GT PUSH2 0x2B5 JUMPI JUMPDEST POP PUSH1 0x20 SWAP3 PUSH1 0x1F DUP3 GT PUSH1 0x1 EQ PUSH2 0x254 JUMPI SWAP3 DUP2 SWAP3 SWAP4 PUSH0 SWAP3 PUSH2 0x249 JUMPI JUMPDEST POP POP DUP2 PUSH1 0x1 SHL SWAP2 PUSH0 NOT SWAP1 PUSH1 0x3 SHL SHR NOT AND OR PUSH1 0x2 SSTORE JUMPDEST DUP1 MLOAD PUSH1 0x1 PUSH1 0x1 PUSH1 0x40 SHL SUB DUP2 GT PUSH2 0x235 JUMPI PUSH1 0x3 SLOAD PUSH1 0x1 DUP2 DUP2 SHR SWAP2 AND DUP1 ISZERO PUSH2 0x22B JUMPI JUMPDEST PUSH1 0x20 DUP3 LT EQ PUSH2 0x217 JUMPI PUSH1 0x1F DUP2 GT PUSH2 0x1B4 JUMPI JUMPDEST POP PUSH1 0x20 SWAP2 PUSH1 0x1F DUP3 GT PUSH1 0x1 EQ PUSH2 0x154 JUMPI SWAP2 DUP2 SWAP3 PUSH0 SWAP3 PUSH2 0x149 JUMPI JUMPDEST POP POP DUP2 PUSH1 0x1 SHL SWAP2 PUSH0 NOT SWAP1 PUSH1 0x3 SHL SHR NOT AND OR PUSH1 0x3 SSTORE JUMPDEST PUSH1 0x40 MLOAD PUSH2 0xFCF SWAP1 DUP2 PUSH2 0x39D DUP3 CODECOPY RETURN JUMPDEST ADD MLOAD SWAP1 POP PUSH0 DUP1 PUSH2 0x125 JUMP JUMPDEST PUSH1 0x1F NOT DUP3 AND SWAP3 PUSH1 0x3 PUSH0 MSTORE DUP1 PUSH0 KECCAK256 SWAP2 PUSH0 JUMPDEST DUP6 DUP2 LT PUSH2 0x19C JUMPI POP DUP4 PUSH1 0x1 SWAP6 LT PUSH2 0x184 JUMPI JUMPDEST POP POP POP DUP2 SHL ADD PUSH1 0x3 SSTORE PUSH2 0x13A JUMP JUMPDEST ADD MLOAD PUSH0 NOT PUSH1 0xF8 DUP5 PUSH1 0x3 SHL AND SHR NOT AND SWAP1 SSTORE PUSH0 DUP1 DUP1 PUSH2 0x176 JUMP JUMPDEST SWAP2 SWAP3 PUSH1 0x20 PUSH1 0x1 DUP2 SWAP3 DUP7 DUP6 ADD MLOAD DUP2 SSTORE ADD SWAP5 ADD SWAP3 ADD PUSH2 0x164 JUMP JUMPDEST PUSH1 0x3 PUSH0 MSTORE PUSH32 0xC2575A0E9E593C00F959F8C92F12DB2869C3395A3B0502D05E2516446F71F85B PUSH1 0x1F DUP4 ADD PUSH1 0x5 SHR DUP2 ADD SWAP2 PUSH1 0x20 DUP5 LT PUSH2 0x20D JUMPI JUMPDEST PUSH1 0x1F ADD PUSH1 0x5 SHR ADD SWAP1 JUMPDEST DUP2 DUP2 LT PUSH2 0x202 JUMPI POP PUSH2 0x10C JUMP JUMPDEST PUSH0 DUP2 SSTORE PUSH1 0x1 ADD PUSH2 0x1F5 JUMP JUMPDEST SWAP1 SWAP2 POP DUP2 SWAP1 PUSH2 0x1EC JUMP JUMPDEST PUSH4 0x4E487B71 PUSH1 0xE0 SHL PUSH0 MSTORE PUSH1 0x22 PUSH1 0x4 MSTORE PUSH1 0x24 PUSH0 REVERT JUMPDEST SWAP1 PUSH1 0x7F AND SWAP1 PUSH2 0xFA JUMP JUMPDEST PUSH4 0x4E487B71 PUSH1 0xE0 SHL PUSH0 MSTORE PUSH1 0x41 PUSH1 0x4 MSTORE PUSH1 0x24 PUSH0 REVERT JUMPDEST ADD MLOAD SWAP1 POP PUSH0 DUP1 PUSH2 0xC4 JUMP JUMPDEST PUSH1 0x1F NOT DUP3 AND SWAP4 PUSH1 0x2 PUSH0 MSTORE DUP1 PUSH0 KECCAK256 SWAP2 PUSH0 JUMPDEST DUP7 DUP2 LT PUSH2 0x29D JUMPI POP DUP4 PUSH1 0x1 SWAP6 SWAP7 LT PUSH2 0x285 JUMPI JUMPDEST POP POP POP DUP2 SHL ADD PUSH1 0x2 SSTORE PUSH2 0xD9 JUMP JUMPDEST ADD MLOAD PUSH0 NOT PUSH1 0xF8 DUP5 PUSH1 0x3 SHL AND SHR NOT AND SWAP1 SSTORE PUSH0 DUP1 DUP1 PUSH2 0x277 JUMP JUMPDEST SWAP2 SWAP3 PUSH1 0x20 PUSH1 0x1 DUP2 SWAP3 DUP7 DUP6 ADD MLOAD DUP2 SSTORE ADD SWAP5 ADD SWAP3 ADD PUSH2 0x264 JUMP JUMPDEST PUSH1 0x2 PUSH0 MSTORE PUSH32 0x405787FA12A823E0F2B7631CC41B3BA8828B3321CA811111FA75CD3AA3BB5ACE PUSH1 0x1F DUP4 ADD PUSH1 0x5 SHR DUP2 ADD SWAP2 PUSH1 0x20 DUP5 LT PUSH2 0x30E JUMPI JUMPDEST PUSH1 0x1F ADD PUSH1 0x5 SHR ADD SWAP1 JUMPDEST DUP2 DUP2 LT PUSH2 0x303 JUMPI POP PUSH2 0xAA JUMP JUMPDEST PUSH0 DUP2 SSTORE PUSH1 0x1 ADD PUSH2 0x2F6 JUMP JUMPDEST SWAP1 SWAP2 POP DUP2 SWAP1 PUSH2 0x2ED JUMP JUMPDEST SWAP1 PUSH1 0x7F AND SWAP1 PUSH2 0x98 JUMP JUMPDEST PUSH0 DUP1 REVERT JUMPDEST PUSH1 0x40 MLOAD SWAP2 SWAP1 PUSH1 0x1F ADD PUSH1 0x1F NOT AND DUP3 ADD PUSH1 0x1 PUSH1 0x1 PUSH1 0x40 SHL SUB DUP2 GT DUP4 DUP3 LT OR PUSH2 0x235 JUMPI PUSH1 0x40 MSTORE JUMP JUMPDEST DUP2 PUSH1 0x1F DUP3 ADD SLT ISZERO PUSH2 0x322 JUMPI DUP1 MLOAD SWAP1 PUSH1 0x1 PUSH1 0x1 PUSH1 0x40 SHL SUB DUP3 GT PUSH2 0x235 JUMPI PUSH2 0x37A PUSH1 0x1F DUP4 ADD PUSH1 0x1F NOT AND PUSH1 0x20 ADD PUSH2 0x326 JUMP JUMPDEST SWAP3 DUP3 DUP5 MSTORE PUSH1 0x20 DUP4 DUP4 ADD ADD GT PUSH2 0x322 JUMPI DUP2 PUSH0 SWAP3 PUSH1 0x20 DUP1 SWAP4 ADD DUP4 DUP7 ADD MCOPY DUP4 ADD ADD MSTORE SWAP1 JUMP INVALID PUSH1 0x80 PUSH1 0x40 MSTORE PUSH1 0x4 CALLDATASIZE LT ISZERO PUSH2 0x11 JUMPI PUSH0 DUP1 REVERT JUMPDEST PUSH0 CALLDATALOAD PUSH1 0xE0 SHR DUP1 PUSH4 0x15070401 EQ PUSH2 0x4DC JUMPI DUP1 PUSH4 0x36B275E9 EQ PUSH2 0x637 JUMPI DUP1 PUSH4 0x48BAE592 EQ PUSH2 0x61B JUMPI DUP1 PUSH4 0x6CFCDCA7 EQ PUSH2 0x52A JUMPI DUP1 PUSH4 0x91AD27B4 EQ PUSH2 0x50F JUMPI DUP1 PUSH4 0x947A36FB EQ PUSH2 0x50F JUMPI DUP1 PUSH4 0x95D89B41 EQ PUSH2 0x4DC JUMPI DUP1 PUSH4 0xC3E3BFE5 EQ PUSH2 0x42F JUMPI DUP1 PUSH4 0xC45A0155 EQ PUSH2 0x407 JUMPI PUSH4 0xFBAD15DC EQ PUSH2 0x87 JUMPI PUSH0 DUP1 REVERT JUMPDEST CALLVALUE PUSH2 0x403 JUMPI PUSH1 0x40 CALLDATASIZE PUSH1 0x3 NOT ADD SLT PUSH2 0x403 JUMPI PUSH1 0x4 CALLDATALOAD PUSH1 0x24 CALLDATALOAD SWAP1 PUSH0 SLOAD DUP1 DUP3 LT ISZERO PUSH2 0x3C8 JUMPI DUP2 DUP4 LT ISZERO SWAP1 DUP2 PUSH2 0x3BE JUMPI JUMPDEST POP ISZERO PUSH2 0x385 JUMPI DUP1 DUP3 SUB SWAP2 DUP3 GT PUSH2 0x2F8 JUMPI PUSH1 0x1 DUP3 ADD DUP1 SWAP3 GT PUSH2 0x2F8 JUMPI PUSH2 0xD8 DUP3 PUSH2 0xF6D JUMP JUMPDEST SWAP2 PUSH2 0xE6 PUSH1 0x40 MLOAD SWAP4 DUP5 PUSH2 0x72C JUMP JUMPDEST DUP1 DUP4 MSTORE PUSH1 0x1F NOT PUSH2 0xF5 DUP3 PUSH2 0xF6D JUMP JUMPDEST ADD PUSH0 JUMPDEST DUP2 DUP2 LT PUSH2 0x30C JUMPI POP POP PUSH0 JUMPDEST DUP2 DUP2 LT PUSH2 0x217 JUMPI DUP4 PUSH1 0x40 MLOAD DUP1 SWAP2 PUSH1 0x20 DUP3 ADD PUSH1 0x20 DUP4 MSTORE DUP2 MLOAD DUP1 SWAP2 MSTORE PUSH1 0x40 DUP4 ADD SWAP1 PUSH1 0x20 PUSH1 0x40 DUP3 PUSH1 0x5 SHL DUP7 ADD ADD SWAP4 ADD SWAP2 PUSH0 SWAP1 JUMPDEST DUP3 DUP3 LT PUSH2 0x142 JUMPI POP POP POP POP SUB SWAP1 RETURN JUMPDEST SWAP2 SWAP4 PUSH1 0x1 SWAP2 SWAP4 SWAP6 POP PUSH1 0x20 DUP1 SWAP2 PUSH1 0x3F NOT DUP10 DUP3 SUB ADD DUP6 MSTORE DUP8 MLOAD SWAP1 DUP2 MLOAD DUP2 MSTORE DUP3 DUP3 ADD MLOAD DUP4 DUP3 ADD MSTORE PUSH2 0x1C0 DUP1 PUSH2 0x185 PUSH1 0x40 DUP6 ADD MLOAD PUSH2 0x1E0 PUSH1 0x40 DUP7 ADD MSTORE PUSH2 0x1E0 DUP6 ADD SWAP1 PUSH2 0x653 JUMP JUMPDEST SWAP4 PUSH1 0x60 DUP2 ADD MLOAD PUSH1 0x60 DUP6 ADD MSTORE PUSH1 0x80 DUP2 ADD MLOAD PUSH1 0x80 DUP6 ADD MSTORE PUSH1 0xA0 DUP2 ADD MLOAD PUSH1 0xA0 DUP6 ADD MSTORE PUSH1 0xC0 DUP2 ADD MLOAD PUSH1 0xC0 DUP6 ADD MSTORE PUSH1 0xE0 DUP2 ADD MLOAD PUSH1 0xE0 DUP6 ADD MSTORE PUSH2 0x100 DUP2 ADD MLOAD PUSH2 0x100 DUP6 ADD MSTORE PUSH2 0x120 DUP2 ADD MLOAD PUSH2 0x120 DUP6 ADD MSTORE PUSH2 0x140 DUP2 ADD MLOAD PUSH2 0x140 DUP6 ADD MSTORE PUSH2 0x160 DUP2 ADD MLOAD ISZERO ISZERO PUSH2 0x160 DUP6 ADD MSTORE PUSH2 0x180 DUP2 ADD MLOAD PUSH2 0x180 DUP6 ADD MSTORE PUSH2 0x1A0 DUP2 ADD MLOAD PUSH2 0x1A0 DUP6 ADD MSTORE ADD MLOAD SWAP2 ADD MSTORE SWAP7 ADD SWAP3 ADD SWAP3 ADD DUP6 SWAP5 SWAP4 SWAP2 SWAP3 PUSH2 0x133 JUMP JUMPDEST DUP1 DUP4 ADD SWAP1 DUP2 DUP5 GT PUSH2 0x2F8 JUMPI PUSH2 0x22D PUSH1 0x1 SWAP3 PUSH2 0x677 JUMP JUMPDEST POP PUSH1 0xE PUSH1 0x40 MLOAD SWAP2 PUSH2 0x23D DUP4 PUSH2 0x6FB JUMP JUMPDEST DUP1 SLOAD DUP4 MSTORE DUP5 DUP2 ADD SLOAD PUSH1 0x20 DUP5 ADD MSTORE PUSH2 0x256 PUSH1 0x2 DUP3 ADD PUSH2 0x89A JUMP JUMPDEST PUSH1 0x40 DUP5 ADD MSTORE PUSH1 0x3 DUP2 ADD SLOAD PUSH1 0x60 DUP5 ADD MSTORE PUSH1 0x4 DUP2 ADD SLOAD PUSH1 0x80 DUP5 ADD MSTORE PUSH1 0x5 DUP2 ADD SLOAD PUSH1 0xA0 DUP5 ADD MSTORE PUSH1 0x6 DUP2 ADD SLOAD PUSH1 0xC0 DUP5 ADD MSTORE PUSH1 0x7 DUP2 ADD SLOAD PUSH1 0xE0 DUP5 ADD MSTORE PUSH1 0x8 DUP2 ADD SLOAD PUSH2 0x100 DUP5 ADD MSTORE PUSH1 0x9 DUP2 ADD SLOAD PUSH2 0x120 DUP5 ADD MSTORE PUSH1 0xA DUP2 ADD SLOAD PUSH2 0x140 DUP5 ADD MSTORE PUSH1 0xFF PUSH1 0xB DUP3 ADD SLOAD AND ISZERO ISZERO PUSH2 0x160 DUP5 ADD MSTORE PUSH1 0xC DUP2 ADD SLOAD PUSH2 0x180 DUP5 ADD MSTORE PUSH1 0xD DUP2 ADD SLOAD PUSH2 0x1A0 DUP5 ADD MSTORE ADD SLOAD PUSH2 0x1C0 DUP3 ADD MSTORE PUSH2 0x2E6 DUP3 DUP8 PUSH2 0xF85 JUMP JUMPDEST MSTORE PUSH2 0x2F1 DUP2 DUP7 PUSH2 0xF85 JUMP JUMPDEST POP ADD PUSH2 0x103 JUMP JUMPDEST PUSH4 0x4E487B71 PUSH1 0xE0 SHL PUSH0 MSTORE PUSH1 0x11 PUSH1 0x4 MSTORE PUSH1 0x24 PUSH0 REVERT JUMPDEST PUSH1 0x20 SWAP1 PUSH1 0x40 MLOAD PUSH2 0x31B DUP2 PUSH2 0x6FB JUMP JUMPDEST PUSH0 DUP2 MSTORE PUSH0 DUP4 DUP3 ADD MSTORE PUSH1 0x60 PUSH1 0x40 DUP3 ADD MSTORE PUSH0 PUSH1 0x60 DUP3 ADD MSTORE PUSH0 PUSH1 0x80 DUP3 ADD MSTORE PUSH0 PUSH1 0xA0 DUP3 ADD MSTORE PUSH0 PUSH1 0xC0 DUP3 ADD MSTORE PUSH0 PUSH1 0xE0 DUP3 ADD MSTORE PUSH0 PUSH2 0x100 DUP3 ADD MSTORE PUSH0 PUSH2 0x120 DUP3 ADD MSTORE PUSH0 PUSH2 0x140 DUP3 ADD MSTORE PUSH0 PUSH2 0x160 DUP3 ADD MSTORE PUSH0 PUSH2 0x180 DUP3 ADD MSTORE PUSH0 PUSH2 0x1A0 DUP3 ADD MSTORE PUSH0 PUSH2 0x1C0 DUP3 ADD MSTORE DUP3 DUP3 DUP9 ADD ADD MSTORE ADD PUSH2 0xF8 JUMP JUMPDEST PUSH1 0x40 MLOAD PUSH3 0x461BCD PUSH1 0xE5 SHL DUP2 MSTORE PUSH1 0x20 PUSH1 0x4 DUP3 ADD MSTORE PUSH1 0x11 PUSH1 0x24 DUP3 ADD MSTORE PUSH17 0x92DCECC2D8D2C840CADCC840D2DCC8CAF PUSH1 0x7B SHL PUSH1 0x44 DUP3 ADD MSTORE PUSH1 0x64 SWAP1 REVERT JUMPDEST SWAP1 POP DUP3 LT PUSH0 PUSH2 0xB4 JUMP JUMPDEST PUSH1 0x40 MLOAD PUSH3 0x461BCD PUSH1 0xE5 SHL DUP2 MSTORE PUSH1 0x20 PUSH1 0x4 DUP3 ADD MSTORE PUSH1 0x13 PUSH1 0x24 DUP3 ADD MSTORE PUSH19 0x92DCECC2D8D2C840E6E8C2E4E840D2DCC8CAF PUSH1 0x6B SHL PUSH1 0x44 DUP3 ADD MSTORE PUSH1 0x64 SWAP1 REVERT JUMPDEST PUSH0 DUP1 REVERT JUMPDEST CALLVALUE PUSH2 0x403 JUMPI PUSH0 CALLDATASIZE PUSH1 0x3 NOT ADD SLT PUSH2 0x403 JUMPI PUSH1 0x1 SLOAD PUSH1 0x40 MLOAD PUSH1 0x1 PUSH1 0x1 PUSH1 0xA0 SHL SUB SWAP1 SWAP2 AND DUP2 MSTORE PUSH1 0x20 SWAP1 RETURN JUMPDEST CALLVALUE PUSH2 0x403 JUMPI PUSH1 0x20 CALLDATASIZE PUSH1 0x3 NOT ADD SLT PUSH2 0x403 JUMPI PUSH1 0x4 CALLDATALOAD PUSH8 0xFFFFFFFFFFFFFFFF DUP2 GT PUSH2 0x403 JUMPI PUSH2 0x200 PUSH1 0x3 NOT DUP3 CALLDATASIZE SUB ADD SLT PUSH2 0x403 JUMPI PUSH1 0x1 SLOAD PUSH1 0x1 PUSH1 0x1 PUSH1 0xA0 SHL SUB AND CALLER SUB PUSH2 0x48B JUMPI PUSH2 0x481 PUSH1 0x20 SWAP2 PUSH1 0x4 ADD PUSH2 0x9BE JUMP JUMPDEST PUSH1 0x40 MLOAD SWAP1 ISZERO ISZERO DUP2 MSTORE RETURN JUMPDEST PUSH1 0x40 MLOAD PUSH3 0x461BCD PUSH1 0xE5 SHL DUP2 MSTORE PUSH1 0x20 PUSH1 0x4 DUP3 ADD MSTORE PUSH1 0x23 PUSH1 0x24 DUP3 ADD MSTORE PUSH32 0x4F6E6C7920466163746F72792063616E2063616C6C20746869732066756E6374 PUSH1 0x44 DUP3 ADD MSTORE PUSH3 0x34B7B7 PUSH1 0xE9 SHL PUSH1 0x64 DUP3 ADD MSTORE PUSH1 0x84 SWAP1 REVERT JUMPDEST CALLVALUE PUSH2 0x403 JUMPI PUSH0 CALLDATASIZE PUSH1 0x3 NOT ADD SLT PUSH2 0x403 JUMPI PUSH2 0x50B PUSH2 0x4F7 PUSH2 0x74E JUMP JUMPDEST PUSH1 0x40 MLOAD SWAP2 DUP3 SWAP2 PUSH1 0x20 DUP4 MSTORE PUSH1 0x20 DUP4 ADD SWAP1 PUSH2 0x653 JUMP JUMPDEST SUB SWAP1 RETURN JUMPDEST CALLVALUE PUSH2 0x403 JUMPI PUSH0 CALLDATASIZE PUSH1 0x3 NOT ADD SLT PUSH2 0x403 JUMPI PUSH2 0x50B PUSH2 0x4F7 PUSH2 0x805 JUMP JUMPDEST CALLVALUE PUSH2 0x403 JUMPI PUSH1 0x20 CALLDATASIZE PUSH1 0x3 NOT ADD SLT PUSH2 0x403 JUMPI PUSH1 0x4 CALLDATALOAD PUSH0 SLOAD DUP2 LT ISZERO PUSH2 0x403 JUMPI PUSH2 0x550 SWAP1 PUSH2 0x677 JUMP JUMPDEST POP DUP1 SLOAD PUSH1 0x1 DUP3 ADD SLOAD SWAP1 PUSH2 0x565 PUSH1 0x2 DUP5 ADD PUSH2 0x89A JUMP JUMPDEST SWAP3 PUSH1 0x3 DUP2 ADD SLOAD SWAP1 PUSH1 0x4 DUP2 ADD SLOAD PUSH1 0x5 DUP3 ADD SLOAD PUSH1 0x6 DUP4 ADD SLOAD PUSH1 0x7 DUP5 ADD SLOAD PUSH1 0x8 DUP6 ADD SLOAD PUSH1 0x9 DUP7 ADD SLOAD SWAP2 PUSH1 0xA DUP8 ADD SLOAD SWAP4 PUSH1 0xB DUP9 ADD SLOAD PUSH1 0xFF AND SWAP6 PUSH1 0xC DUP10 ADD SLOAD SWAP8 PUSH1 0xD DUP11 ADD SLOAD SWAP10 PUSH1 0xE ADD SLOAD SWAP11 PUSH1 0x40 MLOAD SWAP15 DUP16 SWAP15 DUP16 SWAP15 DUP16 SWAP1 DUP2 MSTORE PUSH1 0x20 ADD MSTORE DUP14 PUSH1 0x40 DUP2 ADD PUSH2 0x1E0 SWAP1 MSTORE PUSH2 0x1E0 ADD PUSH2 0x5D2 SWAP2 PUSH2 0x653 JUMP JUMPDEST SWAP13 PUSH1 0x60 ADD MSTORE PUSH1 0x80 DUP14 ADD MSTORE PUSH1 0xA0 DUP13 ADD MSTORE PUSH1 0xC0 DUP12 ADD MSTORE PUSH1 0xE0 DUP11 ADD MSTORE PUSH2 0x100 DUP10 ADD MSTORE PUSH2 0x120 DUP9 ADD MSTORE PUSH2 0x140 DUP8 ADD MSTORE ISZERO ISZERO PUSH2 0x160 DUP7 ADD MSTORE PUSH2 0x180 DUP6 ADD MSTORE PUSH2 0x1A0 DUP5 ADD MSTORE PUSH2 0x1C0 DUP4 ADD MSTORE SUB SWAP1 RETURN JUMPDEST CALLVALUE PUSH2 0x403 JUMPI PUSH0 CALLDATASIZE PUSH1 0x3 NOT ADD SLT PUSH2 0x403 JUMPI PUSH1 0x20 PUSH0 SLOAD PUSH1 0x40 MLOAD SWAP1 DUP2 MSTORE RETURN JUMPDEST CALLVALUE PUSH2 0x403 JUMPI PUSH0 CALLDATASIZE PUSH1 0x3 NOT ADD SLT PUSH2 0x403 JUMPI PUSH1 0x20 PUSH1 0x40 MLOAD PUSH2 0x2710 DUP2 MSTORE RETURN JUMPDEST DUP1 MLOAD DUP1 DUP4 MSTORE PUSH1 0x20 SWAP3 SWAP2 DUP2 SWAP1 DUP5 ADD DUP5 DUP5 ADD MCOPY PUSH0 DUP3 DUP3 ADD DUP5 ADD MSTORE PUSH1 0x1F ADD PUSH1 0x1F NOT AND ADD ADD SWAP1 JUMP JUMPDEST PUSH0 SLOAD DUP2 LT ISZERO PUSH2 0x6AF JUMPI PUSH0 DUP1 DUP1 MSTORE PUSH1 0xF SWAP2 SWAP1 SWAP2 MUL PUSH32 0x290DECD9548B62A8D60345A988386FC84BA6BC95484008F6362F93160EF3E563 ADD SWAP2 JUMP JUMPDEST PUSH4 0x4E487B71 PUSH1 0xE0 SHL PUSH0 MSTORE PUSH1 0x32 PUSH1 0x4 MSTORE PUSH1 0x24 PUSH0 REVERT JUMPDEST SWAP1 PUSH1 0x1 DUP3 DUP2 SHR SWAP3 AND DUP1 ISZERO PUSH2 0x6F1 JUMPI JUMPDEST PUSH1 0x20 DUP4 LT EQ PUSH2 0x6DD JUMPI JUMP JUMPDEST PUSH4 0x4E487B71 PUSH1 0xE0 SHL PUSH0 MSTORE PUSH1 0x22 PUSH1 0x4 MSTORE PUSH1 0x24 PUSH0 REVERT JUMPDEST SWAP2 PUSH1 0x7F AND SWAP2 PUSH2 0x6D2 JUMP JUMPDEST PUSH2 0x1E0 DUP2 ADD SWAP1 DUP2 LT PUSH8 0xFFFFFFFFFFFFFFFF DUP3 GT OR PUSH2 0x718 JUMPI PUSH1 0x40 MSTORE JUMP JUMPDEST PUSH4 0x4E487B71 PUSH1 0xE0 SHL PUSH0 MSTORE PUSH1 0x41 PUSH1 0x4 MSTORE PUSH1 0x24 PUSH0 REVERT JUMPDEST SWAP1 PUSH1 0x1F DUP1 NOT SWAP2 ADD AND DUP2 ADD SWAP1 DUP2 LT PUSH8 0xFFFFFFFFFFFFFFFF DUP3 GT OR PUSH2 0x718 JUMPI PUSH1 0x40 MSTORE JUMP JUMPDEST PUSH1 0x40 MLOAD SWAP1 PUSH0 DUP3 PUSH1 0x2 SLOAD SWAP2 PUSH2 0x761 DUP4 PUSH2 0x6C3 JUMP JUMPDEST DUP1 DUP4 MSTORE SWAP3 PUSH1 0x1 DUP2 AND SWAP1 DUP2 ISZERO PUSH2 0x7E6 JUMPI POP PUSH1 0x1 EQ PUSH2 0x787 JUMPI JUMPDEST PUSH2 0x785 SWAP3 POP SUB DUP4 PUSH2 0x72C JUMP JUMPDEST JUMP JUMPDEST POP PUSH1 0x2 PUSH0 SWAP1 DUP2 MSTORE SWAP1 SWAP2 PUSH32 0x405787FA12A823E0F2B7631CC41B3BA8828B3321CA811111FA75CD3AA3BB5ACE JUMPDEST DUP2 DUP4 LT PUSH2 0x7CA JUMPI POP POP SWAP1 PUSH1 0x20 PUSH2 0x785 SWAP3 DUP3 ADD ADD PUSH2 0x779 JUMP JUMPDEST PUSH1 0x20 SWAP2 SWAP4 POP DUP1 PUSH1 0x1 SWAP2 SLOAD DUP4 DUP6 DUP10 ADD ADD MSTORE ADD SWAP2 ADD SWAP1 SWAP2 DUP5 SWAP3 PUSH2 0x7B2 JUMP JUMPDEST PUSH1 0x20 SWAP3 POP PUSH2 0x785 SWAP5 SWAP2 POP PUSH1 0xFF NOT AND DUP3 DUP5 ADD MSTORE ISZERO ISZERO PUSH1 0x5 SHL DUP3 ADD ADD PUSH2 0x779 JUMP JUMPDEST PUSH1 0x40 MLOAD SWAP1 PUSH0 DUP3 PUSH1 0x3 SLOAD SWAP2 PUSH2 0x818 DUP4 PUSH2 0x6C3 JUMP JUMPDEST DUP1 DUP4 MSTORE SWAP3 PUSH1 0x1 DUP2 AND SWAP1 DUP2 ISZERO PUSH2 0x7E6 JUMPI POP PUSH1 0x1 EQ PUSH2 0x83B JUMPI PUSH2 0x785 SWAP3 POP SUB DUP4 PUSH2 0x72C JUMP JUMPDEST POP PUSH1 0x3 PUSH0 SWAP1 DUP2 MSTORE SWAP1 SWAP2 PUSH32 0xC2575A0E9E593C00F959F8C92F12DB2869C3395A3B0502D05E2516446F71F85B JUMPDEST DUP2 DUP4 LT PUSH2 0x87E JUMPI POP POP SWAP1 PUSH1 0x20 PUSH2 0x785 SWAP3 DUP3 ADD ADD PUSH2 0x779 JUMP JUMPDEST PUSH1 0x20 SWAP2 SWAP4 POP DUP1 PUSH1 0x1 SWAP2 SLOAD DUP4 DUP6 DUP10 ADD ADD MSTORE ADD SWAP2 ADD SWAP1 SWAP2 DUP5 SWAP3 PUSH2 0x866 JUMP JUMPDEST SWAP1 PUSH1 0x40 MLOAD SWAP2 DUP3 PUSH0 DUP3 SLOAD SWAP3 PUSH2 0x8AD DUP5 PUSH2 0x6C3 JUMP JUMPDEST DUP1 DUP5 MSTORE SWAP4 PUSH1 0x1 DUP2 AND SWAP1 DUP2 ISZERO PUSH2 0x916 JUMPI POP PUSH1 0x1 EQ PUSH2 0x8D2 JUMPI JUMPDEST POP PUSH2 0x785 SWAP3 POP SUB DUP4 PUSH2 0x72C JUMP JUMPDEST SWAP1 POP PUSH0 SWAP3 SWAP2 SWAP3 MSTORE PUSH1 0x20 PUSH0 KECCAK256 SWAP1 PUSH0 SWAP2 JUMPDEST DUP2 DUP4 LT PUSH2 0x8FA JUMPI POP POP SWAP1 PUSH1 0x20 PUSH2 0x785 SWAP3 DUP3 ADD ADD PUSH0 PUSH2 0x8C5 JUMP JUMPDEST PUSH1 0x20 SWAP2 SWAP4 POP DUP1 PUSH1 0x1 SWAP2 SLOAD DUP4 DUP6 DUP10 ADD ADD MSTORE ADD SWAP2 ADD SWAP1 SWAP2 DUP5 SWAP3 PUSH2 0x8E1 JUMP JUMPDEST SWAP1 POP PUSH1 0x20 SWAP3 POP PUSH2 0x785 SWAP5 SWAP2 POP PUSH1 0xFF NOT AND DUP3 DUP5 ADD MSTORE ISZERO ISZERO PUSH1 0x5 SHL DUP3 ADD ADD PUSH0 PUSH2 0x8C5 JUMP JUMPDEST SWAP1 CALLDATALOAD SWAP1 PUSH1 0x1E NOT DUP2 CALLDATASIZE SUB ADD DUP3 SLT ISZERO PUSH2 0x403 JUMPI ADD DUP1 CALLDATALOAD SWAP1 PUSH8 0xFFFFFFFFFFFFFFFF DUP3 GT PUSH2 0x403 JUMPI PUSH1 0x20 ADD SWAP2 DUP2 CALLDATASIZE SUB DUP4 SGT PUSH2 0x403 JUMPI JUMP JUMPDEST SWAP3 SWAP2 SWAP3 PUSH8 0xFFFFFFFFFFFFFFFF DUP3 GT PUSH2 0x718 JUMPI PUSH1 0x40 MLOAD SWAP2 PUSH2 0x995 PUSH1 0x1F DUP3 ADD PUSH1 0x1F NOT AND PUSH1 0x20 ADD DUP5 PUSH2 0x72C JUMP JUMPDEST DUP3 SWAP5 DUP2 DUP5 MSTORE DUP2 DUP4 ADD GT PUSH2 0x403 JUMPI DUP3 DUP2 PUSH1 0x20 SWAP4 DUP5 PUSH0 SWAP7 ADD CALLDATACOPY ADD ADD MSTORE JUMP JUMPDEST CALLDATALOAD DUP1 ISZERO ISZERO DUP2 SUB PUSH2 0x403 JUMPI SWAP1 JUMP JUMPDEST PUSH2 0x9D5 PUSH2 0x9CE PUSH1 0x60 DUP4 ADD DUP4 PUSH2 0x938 JUMP JUMPDEST CALLDATASIZE SWAP2 PUSH2 0x96B JUMP JUMPDEST PUSH1 0x20 DUP2 MLOAD SWAP2 ADD KECCAK256 PUSH2 0x9E4 PUSH2 0x805 JUMP JUMPDEST PUSH1 0x20 DUP2 MLOAD SWAP2 ADD KECCAK256 SUB PUSH2 0xF10 JUMPI PUSH1 0x40 DUP2 ADD SWAP1 PUSH2 0xA02 PUSH2 0x9CE DUP4 DUP4 PUSH2 0x938 JUMP JUMPDEST PUSH1 0x20 DUP2 MLOAD SWAP2 ADD KECCAK256 PUSH2 0xA11 PUSH2 0x74E JUMP JUMPDEST PUSH1 0x20 DUP2 MLOAD SWAP2 ADD KECCAK256 SUB PUSH2 0xEB7 JUMPI DUP1 CALLDATALOAD SWAP2 PUSH1 0x20 DUP3 ADD CALLDATALOAD DUP4 LT ISZERO PUSH2 0xE57 JUMPI PUSH1 0xE0 DUP3 ADD CALLDATALOAD SWAP1 PUSH2 0x100 DUP4 ADD CALLDATALOAD SWAP1 DUP2 DUP4 LT PUSH2 0xE00 JUMPI PUSH1 0xC0 DUP5 ADD CALLDATALOAD SWAP1 DUP2 ISZERO ISZERO DUP1 PUSH2 0xDF2 JUMPI JUMPDEST ISZERO PUSH2 0xDAD JUMPI PUSH0 SLOAD SWAP1 PUSH2 0x2710 DUP3 LT ISZERO PUSH2 0xD78 JUMPI PUSH2 0xA6B SWAP1 DUP7 PUSH2 0x938 JUMP JUMPDEST SWAP5 SWAP1 SWAP4 PUSH2 0xA7B PUSH2 0x180 DUP9 ADD PUSH2 0x9B1 JUMP JUMPDEST SWAP2 PUSH2 0xAA2 PUSH1 0x40 MLOAD SWAP7 PUSH2 0xA8C DUP9 PUSH2 0x6FB JUMP JUMPDEST DUP11 DUP9 MSTORE PUSH1 0x20 DUP9 ADD SWAP9 PUSH1 0x20 DUP12 ADD CALLDATALOAD DUP11 MSTORE CALLDATASIZE SWAP2 PUSH2 0x96B JUMP JUMPDEST SWAP5 PUSH1 0x40 DUP8 ADD SWAP6 DUP7 MSTORE PUSH1 0x80 DUP10 ADD CALLDATALOAD PUSH1 0x60 DUP9 ADD MSTORE PUSH1 0xA0 DUP10 ADD CALLDATALOAD PUSH1 0x80 DUP9 ADD MSTORE PUSH1 0xA0 DUP8 ADD MSTORE PUSH1 0xC0 DUP7 ADD MSTORE PUSH1 0xE0 DUP6 ADD MSTORE PUSH2 0x120 DUP7 ADD CALLDATALOAD PUSH2 0x100 DUP6 ADD MSTORE PUSH2 0x140 DUP7 ADD CALLDATALOAD PUSH2 0x120 DUP6 ADD MSTORE PUSH2 0x160 DUP7 ADD CALLDATALOAD PUSH2 0x140 DUP6 ADD MSTORE ISZERO ISZERO PUSH2 0x160 DUP5 ADD MSTORE PUSH2 0x1A0 DUP6 ADD CALLDATALOAD PUSH2 0x180 DUP5 ADD MSTORE PUSH2 0x1C0 DUP6 ADD CALLDATALOAD PUSH2 0x1A0 DUP5 ADD MSTORE PUSH2 0x1E0 DUP6 ADD CALLDATALOAD PUSH2 0x1C0 DUP5 ADD MSTORE PUSH9 0x10000000000000000 DUP2 LT ISZERO PUSH2 0x718 JUMPI DUP1 PUSH1 0x1 PUSH2 0xB3D SWAP3 ADD PUSH0 SSTORE PUSH2 0x677 JUMP JUMPDEST SWAP4 SWAP1 SWAP4 PUSH2 0xD65 JUMPI DUP3 MLOAD DUP5 SSTORE MLOAD PUSH1 0x1 DUP5 ADD SSTORE MLOAD DUP1 MLOAD SWAP1 PUSH8 0xFFFFFFFFFFFFFFFF DUP3 GT PUSH2 0x718 JUMPI PUSH2 0xB6E PUSH1 0x2 DUP6 ADD SLOAD PUSH2 0x6C3 JUMP JUMPDEST PUSH1 0x1F DUP2 GT PUSH2 0xD1D JUMPI JUMPDEST POP PUSH1 0x20 SWAP1 PUSH1 0x1F DUP4 GT PUSH1 0x1 EQ PUSH2 0xC87 JUMPI PUSH32 0xDFFBB82D6BDAE68B617E97B98EA33A13389DF8392C648B01BDA036311677DA99 SWAP6 SWAP4 DUP4 PUSH1 0x40 SWAP7 SWAP5 PUSH1 0xE SWAP5 PUSH2 0x1C0 SWAP5 PUSH0 SWAP3 PUSH2 0xC7C JUMPI JUMPDEST POP POP DUP2 PUSH1 0x1 SHL SWAP2 PUSH0 NOT SWAP1 PUSH1 0x3 SHL SHR NOT AND OR PUSH1 0x2 DUP6 ADD SSTORE JUMPDEST PUSH1 0x60 DUP2 ADD MLOAD PUSH1 0x3 DUP6 ADD SSTORE PUSH1 0x80 DUP2 ADD MLOAD PUSH1 0x4 DUP6 ADD SSTORE PUSH1 0xA0 DUP2 ADD MLOAD PUSH1 0x5 DUP6 ADD SSTORE PUSH1 0xC0 DUP2 ADD MLOAD PUSH1 0x6 DUP6 ADD SSTORE PUSH1 0xE0 DUP2 ADD MLOAD PUSH1 0x7 DUP6 ADD SSTORE PUSH2 0x100 DUP2 ADD MLOAD PUSH1 0x8 DUP6 ADD SSTORE PUSH2 0x120 DUP2 ADD MLOAD PUSH1 0x9 DUP6 ADD SSTORE PUSH2 0x140 DUP2 ADD MLOAD PUSH1 0xA DUP6 ADD SSTORE PUSH1 0xB DUP5 ADD PUSH2 0x160 DUP3 ADD MLOAD ISZERO ISZERO PUSH1 0xFF DUP1 NOT DUP4 SLOAD AND SWAP2 AND OR SWAP1 SSTORE PUSH2 0x180 DUP2 ADD MLOAD PUSH1 0xC DUP6 ADD SSTORE PUSH2 0x1A0 DUP2 ADD MLOAD PUSH1 0xD DUP6 ADD SSTORE ADD MLOAD SWAP2 ADD SSTORE PUSH2 0xC66 PUSH2 0x180 DUP3 ADD PUSH2 0x9B1 JUMP JUMPDEST PUSH1 0x20 DUP4 MLOAD SWAP3 ADD CALLDATALOAD DUP3 MSTORE ISZERO ISZERO PUSH1 0x20 DUP3 ADD MSTORE LOG2 PUSH1 0x1 SWAP1 JUMP JUMPDEST ADD MLOAD SWAP1 POP PUSH0 DUP1 PUSH2 0xBBC JUMP JUMPDEST SWAP1 PUSH1 0x2 DUP6 ADD PUSH0 MSTORE DUP1 PUSH0 KECCAK256 SWAP2 PUSH0 JUMPDEST PUSH1 0x1F NOT DUP6 AND DUP2 LT PUSH2 0xD05 JUMPI POP SWAP4 PUSH1 0x1 DUP5 PUSH1 0xE SWAP5 PUSH2 0x1C0 SWAP5 PUSH32 0xDFFBB82D6BDAE68B617E97B98EA33A13389DF8392C648B01BDA036311677DA99 SWAP11 SWAP9 PUSH1 0x40 SWAP11 SWAP9 PUSH1 0x1F NOT DUP2 AND LT PUSH2 0xCED JUMPI JUMPDEST POP POP POP DUP2 SHL ADD PUSH1 0x2 DUP6 ADD SSTORE PUSH2 0xBD3 JUMP JUMPDEST ADD MLOAD PUSH0 NOT PUSH1 0xF8 DUP5 PUSH1 0x3 SHL AND SHR NOT AND SWAP1 SSTORE PUSH0 DUP1 DUP1 PUSH2 0xCDD JUMP JUMPDEST SWAP2 SWAP3 PUSH1 0x20 PUSH1 0x1 DUP2 SWAP3 DUP7 DUP6 ADD MLOAD DUP2 SSTORE ADD SWAP5 ADD SWAP3 ADD PUSH2 0xC94 JUMP JUMPDEST PUSH1 0x2 DUP6 ADD PUSH0 MSTORE PUSH1 0x20 PUSH0 KECCAK256 PUSH1 0x1F DUP5 ADD PUSH1 0x5 SHR DUP2 ADD SWAP2 PUSH1 0x20 DUP6 LT PUSH2 0xD5B JUMPI JUMPDEST PUSH1 0x1F ADD PUSH1 0x5 SHR ADD SWAP1 JUMPDEST DUP2 DUP2 LT PUSH2 0xD50 JUMPI POP PUSH2 0xB77 JUMP JUMPDEST PUSH0 DUP2 SSTORE PUSH1 0x1 ADD PUSH2 0xD43 JUMP JUMPDEST SWAP1 SWAP2 POP DUP2 SWAP1 PUSH2 0xD3A JUMP JUMPDEST PUSH4 0x4E487B71 PUSH1 0xE0 SHL PUSH0 MSTORE PUSH0 PUSH1 0x4 MSTORE PUSH1 0x24 PUSH0 REVERT JUMPDEST POP POP POP POP POP POP POP PUSH32 0xAB46F58ED46D8E5290C399FBBA8CA416A8FED3A8DFC83C30486E4A90FF0564F1 PUSH1 0x20 PUSH1 0x40 MLOAD TIMESTAMP DUP2 MSTORE LOG1 PUSH0 SWAP1 JUMP JUMPDEST PUSH1 0x40 MLOAD PUSH3 0x461BCD PUSH1 0xE5 SHL DUP2 MSTORE PUSH1 0x20 PUSH1 0x4 DUP3 ADD MSTORE PUSH1 0x1F PUSH1 0x24 DUP3 ADD MSTORE PUSH32 0x4F70656E20616E6420636C6F7365206D75737420626520706F73697469766500 PUSH1 0x44 DUP3 ADD MSTORE PUSH1 0x64 SWAP1 REVERT JUMPDEST POP PUSH2 0x120 DUP6 ADD CALLDATALOAD ISZERO ISZERO PUSH2 0xA4F JUMP JUMPDEST PUSH1 0x40 MLOAD PUSH3 0x461BCD PUSH1 0xE5 SHL DUP2 MSTORE PUSH1 0x20 PUSH1 0x4 DUP3 ADD MSTORE PUSH1 0x29 PUSH1 0x24 DUP3 ADD MSTORE PUSH32 0x48696768206D7573742062652067726561746572207468616E206F7220657175 PUSH1 0x44 DUP3 ADD MSTORE PUSH9 0x616C20746F206C6F77 PUSH1 0xB8 SHL PUSH1 0x64 DUP3 ADD MSTORE PUSH1 0x84 SWAP1 REVERT JUMPDEST PUSH1 0x40 MLOAD PUSH3 0x461BCD PUSH1 0xE5 SHL DUP2 MSTORE PUSH1 0x20 PUSH1 0x4 DUP3 ADD MSTORE PUSH1 0x32 PUSH1 0x24 DUP3 ADD MSTORE PUSH32 0x456E642074696D657374616D70206D7573742062652067726561746572207468 PUSH1 0x44 DUP3 ADD MSTORE PUSH18 0x616E2073746172742074696D657374616D7 PUSH1 0x74 SHL PUSH1 0x64 DUP3 ADD MSTORE PUSH1 0x84 SWAP1 REVERT JUMPDEST PUSH1 0x40 MLOAD PUSH3 0x461BCD PUSH1 0xE5 SHL DUP2 MSTORE PUSH1 0x20 PUSH1 0x4 DUP3 ADD MSTORE PUSH1 0x2B PUSH1 0x24 DUP3 ADD MSTORE PUSH32 0x4B6C696E652073796D626F6C20646F6573206E6F74206D6174636820636F6E74 PUSH1 0x44 DUP3 ADD MSTORE PUSH11 0x1C9858DD081CDE5B589BDB PUSH1 0xAA SHL PUSH1 0x64 DUP3 ADD MSTORE PUSH1 0x84 SWAP1 REVERT JUMPDEST PUSH1 0x40 MLOAD PUSH3 0x461BCD PUSH1 0xE5 SHL DUP2 MSTORE PUSH1 0x20 PUSH1 0x4 DUP3 ADD MSTORE PUSH1 0x2F PUSH1 0x24 DUP3 ADD MSTORE PUSH32 0x4B6C696E6520696E74657276616C20646F6573206E6F74206D6174636820636F PUSH1 0x44 DUP3 ADD MSTORE PUSH15 0x1B9D1C9858DD081A5B9D195C9D985B PUSH1 0x8A SHL PUSH1 0x64 DUP3 ADD MSTORE PUSH1 0x84 SWAP1 REVERT JUMPDEST PUSH8 0xFFFFFFFFFFFFFFFF DUP2 GT PUSH2 0x718 JUMPI PUSH1 0x5 SHL PUSH1 0x20 ADD SWAP1 JUMP JUMPDEST DUP1 MLOAD DUP3 LT ISZERO PUSH2 0x6AF JUMPI PUSH1 0x20 SWAP2 PUSH1 0x5 SHL ADD ADD SWAP1 JUMP INVALID LOG2 PUSH5 0x6970667358 0x22 SLT KECCAK256 0x2B 0x1E 0xCF COINBASE 0xED SIGNEXTEND PUSH25 0x201122462A2546AACBE5EE9E249F021E2D927D0B1EF7F6F400 PUSH5 0x736F6C6343 STOP ADDMOD 0x1E STOP CALLER "
		},
		"gasEstimates": {
			"creation": {
				"codeDepositCost": "809400",
				"executionCost": "infinite",
				"totalCost": "infinite"
			},
			"external": {
				"MAX_KLINES()": "167",
				"addKline((uint256,uint256,string,string,uint256,uint256,uint256,uint256,uint256,uint256,uint256,uint256,bool,uint256,uint256,uint256))": "infinite",
				"factory()": "2448",
				"getInterval()": "infinite",
				"getKlineCount()": "2291",
				"getKlines(uint256,uint256)": "infinite",
				"getSymbol()": "infinite",
				"interval()": "infinite",
				"klines(uint256)": "infinite",
				"symbol()": "infinite"
			}
		},
		"methodIdentifiers": {
			"MAX_KLINES()": "36b275e9",
			"addKline((uint256,uint256,string,string,uint256,uint256,uint256,uint256,uint256,uint256,uint256,uint256,bool,uint256,uint256,uint256))": "c3e3bfe5",
			"factory()": "c45a0155",
			"getInterval()": "91ad27b4",
			"getKlineCount()": "48bae592",
			"getKlines(uint256,uint256)": "fbad15dc",
			"getSymbol()": "15070401",
			"interval()": "947a36fb",
			"klines(uint256)": "6cfcdca7",
			"symbol()": "95d89b41"
		}
	},
	"abi": [
		{
			"inputs": [
				{
					"internalType": "string",
					"name": "_symbol",
					"type": "string"
				},
				{
					"internalType": "string",
					"name": "_interval",
					"type": "string"
				}
			],
			"stateMutability": "nonpayable",
			"type": "constructor"
		},
		{
			"anonymous": false,
			"inputs": [
				{
					"indexed": false,
					"internalType": "uint256",
					"name": "timestamp",
					"type": "uint256"
				}
			],
			"name": "ContractFull",
			"type": "event"
		},
		{
			"anonymous": false,
			"inputs": [
				{
					"indexed": true,
					"internalType": "uint256",
					"name": "timestamp",
					"type": "uint256"
				},
				{
					"indexed": false,
					"internalType": "uint256",
					"name": "endTimestamp",
					"type": "uint256"
				},
				{
					"indexed": false,
					"internalType": "bool",
					"name": "isClosed",
					"type": "bool"
				}
			],
			"name": "KlineAdded",
			"type": "event"
		},
		{
			"inputs": [],
			"name": "MAX_KLINES",
			"outputs": [
				{
					"internalType": "uint256",
					"name": "",
					"type": "uint256"
				}
			],
			"stateMutability": "view",
			"type": "function"
		},
		{
			"inputs": [
				{
					"components": [
						{
							"internalType": "uint256",
							"name": "timestamp",
							"type": "uint256"
						},
						{
							"internalType": "uint256",
							"name": "endTimestamp",
							"type": "uint256"
						},
						{
							"internalType": "string",
							"name": "symbol",
							"type": "string"
						},
						{
							"internalType": "string",
							"name": "interval",
							"type": "string"
						},
						{
							"internalType": "uint256",
							"name": "firstTradeId",
							"type": "uint256"
						},
						{
							"internalType": "uint256",
							"name": "lastTradeId",
							"type": "uint256"
						},
						{
							"internalType": "uint256",
							"name": "open",
							"type": "uint256"
						},
						{
							"internalType": "uint256",
							"name": "high",
							"type": "uint256"
						},
						{
							"internalType": "uint256",
							"name": "low",
							"type": "uint256"
						},
						{
							"internalType": "uint256",
							"name": "close",
							"type": "uint256"
						},
						{
							"internalType": "uint256",
							"name": "volume",
							"type": "uint256"
						},
						{
							"internalType": "uint256",
							"name": "numberOfTrades",
							"type": "uint256"
						},
						{
							"internalType": "bool",
							"name": "isClosed",
							"type": "bool"
						},
						{
							"internalType": "uint256",
							"name": "quoteVolume",
							"type": "uint256"
						},
						{
							"internalType": "uint256",
							"name": "takerBuyVolume",
							"type": "uint256"
						},
						{
							"internalType": "uint256",
							"name": "takerBuyQuoteVolume",
							"type": "uint256"
						}
					],
					"internalType": "struct IntervalContract.KlineInput",
					"name": "input",
					"type": "tuple"
				}
			],
			"name": "addKline",
			"outputs": [
				{
					"internalType": "bool",
					"name": "",
					"type": "bool"
				}
			],
			"stateMutability": "nonpayable",
			"type": "function"
		},
		{
			"inputs": [],
			"name": "factory",
			"outputs": [
				{
					"internalType": "address",
					"name": "",
					"type": "address"
				}
			],
			"stateMutability": "view",
			"type": "function"
		},
		{
			"inputs": [],
			"name": "getInterval",
			"outputs": [
				{
					"internalType": "string",
					"name": "",
					"type": "string"
				}
			],
			"stateMutability": "view",
			"type": "function"
		},
		{
			"inputs": [],
			"name": "getKlineCount",
			"outputs": [
				{
					"internalType": "uint256",
					"name": "",
					"type": "uint256"
				}
			],
			"stateMutability": "view",
			"type": "function"
		},
		{
			"inputs": [
				{
					"internalType": "uint256",
					"name": "startIndex",
					"type": "uint256"
				},
				{
					"internalType": "uint256",
					"name": "endIndex",
					"type": "uint256"
				}
			],
			"name": "getKlines",
			"outputs": [
				{
					"components": [
						{
							"internalType": "uint256",
							"name": "timestamp",
							"type": "uint256"
						},
						{
							"internalType": "uint256",
							"name": "endTimestamp",
							"type": "uint256"
						},
						{
							"internalType": "string",
							"name": "symbol",
							"type": "string"
						},
						{
							"internalType": "uint256",
							"name": "firstTradeId",
							"type": "uint256"
						},
						{
							"internalType": "uint256",
							"name": "lastTradeId",
							"type": "uint256"
						},
						{
							"internalType": "uint256",
							"name": "open",
							"type": "uint256"
						},
						{
							"internalType": "uint256",
							"name": "high",
							"type": "uint256"
						},
						{
							"internalType": "uint256",
							"name": "low",
							"type": "uint256"
						},
						{
							"internalType": "uint256",
							"name": "close",
							"type": "uint256"
						},
						{
							"internalType": "uint256",
							"name": "volume",
							"type": "uint256"
						},
						{
							"internalType": "uint256",
							"name": "numberOfTrades",
							"type": "uint256"
						},
						{
							"internalType": "bool",
							"name": "isClosed",
							"type": "bool"
						},
						{
							"internalType": "uint256",
							"name": "quoteVolume",
							"type": "uint256"
						},
						{
							"internalType": "uint256",
							"name": "takerBuyVolume",
							"type": "uint256"
						},
						{
							"internalType": "uint256",
							"name": "takerBuyQuoteVolume",
							"type": "uint256"
						}
					],
					"internalType": "struct IntervalContract.Kline[]",
					"name": "",
					"type": "tuple[]"
				}
			],
			"stateMutability": "view",
			"type": "function"
		},
		{
			"inputs": [],
			"name": "getSymbol",
			"outputs": [
				{
					"internalType": "string",
					"name": "",
					"type": "string"
				}
			],
			"stateMutability": "view",
			"type": "function"
		},
		{
			"inputs": [],
			"name": "interval",
			"outputs": [
				{
					"internalType": "string",
					"name": "",
					"type": "string"
				}
			],
			"stateMutability": "view",
			"type": "function"
		},
		{
			"inputs": [
				{
					"internalType": "uint256",
					"name": "",
					"type": "uint256"
				}
			],
			"name": "klines",
			"outputs": [
				{
					"internalType": "uint256",
					"name": "timestamp",
					"type": "uint256"
				},
				{
					"internalType": "uint256",
					"name": "endTimestamp",
					"type": "uint256"
				},
				{
					"internalType": "string",
					"name": "symbol",
					"type": "string"
				},
				{
					"internalType": "uint256",
					"name": "firstTradeId",
					"type": "uint256"
				},
				{
					"internalType": "uint256",
					"name": "lastTradeId",
					"type": "uint256"
				},
				{
					"internalType": "uint256",
					"name": "open",
					"type": "uint256"
				},
				{
					"internalType": "uint256",
					"name": "high",
					"type": "uint256"
				},
				{
					"internalType": "uint256",
					"name": "low",
					"type": "uint256"
				},
				{
					"internalType": "uint256",
					"name": "close",
					"type": "uint256"
				},
				{
					"internalType": "uint256",
					"name": "volume",
					"type": "uint256"
				},
				{
					"internalType": "uint256",
					"name": "numberOfTrades",
					"type": "uint256"
				},
				{
					"internalType": "bool",
					"name": "isClosed",
					"type": "bool"
				},
				{
					"internalType": "uint256",
					"name": "quoteVolume",
					"type": "uint256"
				},
				{
					"internalType": "uint256",
					"name": "takerBuyVolume",
					"type": "uint256"
				},
				{
					"internalType": "uint256",
					"name": "takerBuyQuoteVolume",
					"type": "uint256"
				}
			],
			"stateMutability": "view",
			"type": "function"
		},
		{
			"inputs": [],
			"name": "symbol",
			"outputs": [
				{
					"internalType": "string",
					"name": "",
					"type": "string"
				}
			],
			"stateMutability": "view",
			"type": "function"
		}
	]
}