{
	"data": {
		"bytecode": {
			"linkReferences": {},
			"object": "608060405234801561000f575f5ffd5b50604051614a86380380614a8683398101604081905261002e9161034e565b816001600160a01b03811661005d57604051631e4fbdf760e01b81525f60048201526024015b60405180910390fd5b61006681610146565b50600161007384826104a2565b506001600160a01b0381166100ca5760405162461bcd60e51b815260206004820152601d60248201527f4f7261636c6520616464726573732063616e6e6f74206265207a65726f0000006044820152606401610054565b600280546001600160a01b0319166001600160a01b0383169081179091556040517fdd82bdfc28fcc826c53263dc2a2b6083e27e92699ebfee617227e08e21c202f0905f90a25f5b600f81101561013d5761013581600f8111156101305761013061055c565b610195565b600101610112565b5050505061067d565b5f80546001600160a01b038381166001600160a01b0319831681178455604051919092169283917f8be0079c531659141344cd1fd0a4f28419497f9722a3daafe3b4186f6b6457e09190a35050565b5f60045f83600f8111156101ab576101ab61055c565b600f8111156101bc576101bc61055c565b81526020019081526020015f205460016101d69190610570565b6002546040519192506064915f916001918691859130916001600160a01b031690889061020290610312565b610211969594939291906105b5565b604051809103905ff08015801561022a573d5f5f3e3d5ffd5b50905060035f85600f8111156102425761024261055c565b600f8111156102535761025361055c565b81526020808201929092526040015f908120805460018101825590825291812090910180546001600160a01b0319166001600160a01b038416179055839060049086600f8111156102a6576102a661055c565b600f8111156102b7576102b761055c565b815260208101919091526040015f20556001600160a01b0381168385600f8111156102e4576102e461055c565b6040517f54e0098488106b5b90920ba2520684f28234fed315badb03e42df0788ba50c36905f90a450505050565b6118eb8061319b83390190565b634e487b7160e01b5f52604160045260245ffd5b80516001600160a01b0381168114610349575f5ffd5b919050565b5f5f5f60608486031215610360575f5ffd5b83516001600160401b03811115610375575f5ffd5b8401601f81018613610385575f5ffd5b80516001600160401b0381111561039e5761039e61031f565b604051601f8201601f19908116603f011681016001600160401b03811182821017156103cc576103cc61031f565b6040528181528282016020018810156103e3575f5ffd5b8160208401602083015e5f6020838301015280955050505061040760208501610333565b915061041560408501610333565b90509250925092565b600181811c9082168061043257607f821691505b60208210810361045057634e487b7160e01b5f52602260045260245ffd5b50919050565b601f82111561049d57805f5260205f20601f840160051c8101602085101561047b5750805b601f840160051c820191505b8181101561049a575f8155600101610487565b50505b505050565b81516001600160401b038111156104bb576104bb61031f565b6104cf816104c9845461041e565b84610456565b6020601f821160018114610501575f83156104ea5750848201515b5f19600385901b1c1916600184901b17845561049a565b5f84815260208120601f198516915b828110156105305787850151825560209485019460019092019101610510565b508482101561054d57868401515f19600387901b60f8161c191681555b50505050600190811b01905550565b634e487b7160e01b5f52602160045260245ffd5b8082018082111561058f57634e487b7160e01b5f52601160045260245ffd5b92915050565b601081106105b157634e487b7160e01b5f52602160045260245ffd5b9052565b60c081525f5f88546105c68161041e565b8060c0860152600182165f81146105e4576001811461060057610631565b60ff19831660e087015260e082151560051b8701019350610631565b8b5f5260205f205f5b8381101561062857815488820160e00152600190910190602001610609565b870160e0019450505b505050809150506106456020830188610595565b85604083015261066060608301866001600160a01b03169052565b6001600160a01b0393909316608082015260a00152949350505050565b612b118061068a5f395ff3fe608060405234801561000f575f5ffd5b50600436106100cb575f3560e01c80638da5cb5b11610088578063a89ae4ba11610063578063a89ae4ba146101ad578063d302bdb4146101c0578063ea1b4289146101c8578063f2fde38b146101db575f5ffd5b80638da5cb5b1461017557806395d89b411461018557806397b3326e1461018d575f5ffd5b806315070401146100cf5780632c511a7a146100ed5780632d814e8714610118578063715018a6146101455780637adbf9731461014f578063841dc8e114610162575b5f5ffd5b6100d76101ee565b6040516100e49190610c0a565b60405180910390f35b6101006100fb366004610c4b565b61027e565b6040516001600160a01b0390911681526020016100e4565b610137610126366004610c4b565b60046020525f908152604090205481565b6040519081526020016100e4565b61014d610303565b005b61014d61015d366004610c6d565b610316565b61014d610170366004610cb5565b6104a4565b5f546001600160a01b0316610100565b6100d76107d3565b6101a061019b366004610c4b565b61085f565b6040516100e49190610d3e565b600254610100906001600160a01b031681565b610137606481565b6101006101d6366004610d89565b6108f2565b61014d6101e9366004610c6d565b610926565b6060600180546101fd90610db3565b80601f016020809104026020016040519081016040528092919081815260200182805461022990610db3565b80156102745780601f1061024b57610100808354040283529160200191610274565b820191905f5260205f20905b81548152906001019060200180831161025757829003601f168201915b5050505050905090565b5f5f60035f84600f81111561029557610295610deb565b600f8111156102a6576102a6610deb565b81526020019081526020015f20905080805490505f036102c857505f92915050565b805481906102d890600190610e13565b815481106102e8576102e8610e2c565b5f918252602090912001546001600160a01b03169392505050565b61030b610963565b6103145f61098f565b565b61031e610963565b6001600160a01b0381166103725760405162461bcd60e51b8152602060048201526016602482015275496e76616c6964206f7261636c65206164647265737360501b60448201526064015b60405180910390fd5b600280546001600160a01b0319166001600160a01b0383169081179091556040517fdd82bdfc28fcc826c53263dc2a2b6083e27e92699ebfee617227e08e21c202f0905f90a25f5b600f8110156104a0575f60035f83600f8111156103d9576103d9610deb565b600f8111156103ea576103ea610deb565b600f8111156103fb576103fb610deb565b815260208101919091526040015f20805490915015610497578054819061042490600190610e13565b8154811061043457610434610e2c565b5f91825260209091200154604051637adbf97360e01b81526001600160a01b03858116600483015290911690637adbf973906024015f604051808303815f87803b158015610480575f5ffd5b505af1158015610492573d5f5f3e3d5ffd5b505050505b506001016103ba565b5050565b6002546001600160a01b0316331461050a5760405162461bcd60e51b815260206004820152602360248201527f43616c6c6572206973206e6f742074686520617574686f72697a6564206f7261604482015262636c6560e81b6064820152608401610369565b5f6105148a6109de565b90505f5f826001600160a01b0316635a9b0b896040518163ffffffff1660e01b81526004015f60405180830381865afa158015610553573d5f5f3e3d5ffd5b505050506040513d5f823e601f3d908101601f1916820160405261057a9190810190610ebf565b90955093505f9250505081831061066857604051630d1e53d560e11b8152600160048201525f906001600160a01b03861690631a3ca7aa906024015f60405180830381865afa1580156105cf573d5f5f3e3d5ffd5b505050506040513d5f823e601f3d908101601f191682016040526105f69190810190610f93565b905080515f148061063757508c67ffffffffffffffff16815f8151811061061f5761061f610e2c565b60200260200101515f015167ffffffffffffffff1614155b8061065c5750805f8151811061064f5761064f610e2c565b602002602001015160e001515b1561066657600191505b505b8015610683576106778d610a80565b6106808d6109de565b93505b604051633a499a5360e01b815267ffffffffffffffff808e1660048301528c166024820152604481018b9052606481018a90526084810189905260a4810188905260c4810187905285151560e48201526001600160a01b03851690633a499a5390610104015f604051808303815f87803b1580156106ff575f5ffd5b505af1158015610711573d5f5f3e3d5ffd5b50505050836001600160a01b03166354fd4d506040518163ffffffff1660e01b8152600401602060405180830381865afa158015610751573d5f5f3e3d5ffd5b505050506040513d601f19601f8201168201806040525081019061077591906110ba565b8d600f81111561078757610787610deb565b60405167ffffffffffffffff8f1681527f6722db1d8d597e66ebdae9702cbf3339a8b447a530a557753c1afa8a39b986fe9060200160405180910390a350505050505050505050505050565b600180546107e090610db3565b80601f016020809104026020016040519081016040528092919081815260200182805461080c90610db3565b80156108575780601f1061082e57610100808354040283529160200191610857565b820191905f5260205f20905b81548152906001019060200180831161083a57829003601f168201915b505050505081565b606060035f83600f81111561087657610876610deb565b600f81111561088757610887610deb565b81526020019081526020015f208054806020026020016040519081016040528092919081815260200182805480156108e657602002820191905f5260205f20905b81546001600160a01b031681526001909101906020018083116108c8575b50505050509050919050565b6003602052815f5260405f20818154811061090b575f80fd5b5f918252602090912001546001600160a01b03169150829050565b61092e610963565b6001600160a01b03811661095757604051631e4fbdf760e01b81525f6004820152602401610369565b6109608161098f565b50565b5f546001600160a01b031633146103145760405163118cdaa760e01b8152336004820152602401610369565b5f80546001600160a01b038381166001600160a01b0319831681178455604051919092169283917f8be0079c531659141344cd1fd0a4f28419497f9722a3daafe3b4186f6b6457e09190a35050565b5f5f60035f84600f8111156109f5576109f5610deb565b600f811115610a0657610a06610deb565b81526020019081526020015f2090505f8180549050116102c85760405162461bcd60e51b815260206004820152602f60248201527f4e6f206461746120636f6e7472616374206465706c6f79656420666f7220746860448201526e1a5cc81a5b9d195c9d985b081e595d608a1b6064820152608401610369565b5f60045f83600f811115610a9657610a96610deb565b600f811115610aa757610aa7610deb565b81526020019081526020015f20546001610ac191906110d1565b6002546040519192506064915f916001918691859130916001600160a01b0316908890610aed90610bfd565b610afc96959493929190611104565b604051809103905ff080158015610b15573d5f5f3e3d5ffd5b50905060035f85600f811115610b2d57610b2d610deb565b600f811115610b3e57610b3e610deb565b81526020808201929092526040015f908120805460018101825590825291812090910180546001600160a01b0319166001600160a01b038416179055839060049086600f811115610b9157610b91610deb565b600f811115610ba257610ba2610deb565b815260208101919091526040015f20556001600160a01b0381168385600f811115610bcf57610bcf610deb565b6040517f54e0098488106b5b90920ba2520684f28234fed315badb03e42df0788ba50c36905f90a450505050565b6118eb806111f183390190565b602081525f82518060208401528060208501604085015e5f604082850101526040601f19601f83011684010191505092915050565b60108110610960575f5ffd5b5f60208284031215610c5b575f5ffd5b8135610c6681610c3f565b9392505050565b5f60208284031215610c7d575f5ffd5b81356001600160a01b0381168114610c66575f5ffd5b67ffffffffffffffff81168114610960575f5ffd5b8015158114610960575f5ffd5b5f5f5f5f5f5f5f5f5f6101208a8c031215610cce575f5ffd5b8935610cd981610c3f565b985060208a0135610ce981610c93565b975060408a0135610cf981610c93565b965060608a0135955060808a0135945060a08a0135935060c08a0135925060e08a013591506101008a0135610d2d81610ca8565b809150509295985092959850929598565b602080825282518282018190525f918401906040840190835b81811015610d7e5783516001600160a01b0316835260209384019390920191600101610d57565b509095945050505050565b5f5f60408385031215610d9a575f5ffd5b8235610da581610c3f565b946020939093013593505050565b600181811c90821680610dc757607f821691505b602082108103610de557634e487b7160e01b5f52602260045260245ffd5b50919050565b634e487b7160e01b5f52602160045260245ffd5b634e487b7160e01b5f52601160045260245ffd5b81810381811115610e2657610e26610dff565b92915050565b634e487b7160e01b5f52603260045260245ffd5b634e487b7160e01b5f52604160045260245ffd5b604051610100810167ffffffffffffffff81118282101715610e7857610e78610e40565b60405290565b604051601f8201601f1916810167ffffffffffffffff81118282101715610ea757610ea7610e40565b604052919050565b8051610eba81610c3f565b919050565b5f5f5f5f5f60a08688031215610ed3575f5ffd5b855167ffffffffffffffff811115610ee9575f5ffd5b8601601f81018813610ef9575f5ffd5b805167ffffffffffffffff811115610f1357610f13610e40565b610f26601f8201601f1916602001610e7e565b818152896020838501011115610f3a575f5ffd5b8160208401602083015e5f60208383010152809750505050610f5e60208701610eaf565b6040870151606088015160809098015196999198509695945092505050565b8051610eba81610c93565b8051610eba81610ca8565b5f60208284031215610fa3575f5ffd5b815167ffffffffffffffff811115610fb9575f5ffd5b8201601f81018413610fc9575f5ffd5b805167ffffffffffffffff811115610fe357610fe3610e40565b610ff260208260051b01610e7e565b8082825260208201915060208360081b850101925086831115611013575f5ffd5b6020840193505b828410156110b0576101008488031215611032575f5ffd5b61103a610e54565b845161104581610c93565b815261105360208601610f7d565b602082015260408581015190820152606080860151908201526080808601519082015260a0808601519082015260c0808601519082015261109660e08601610f88565b60e08201528252610100939093019260209091019061101a565b9695505050505050565b5f602082840312156110ca575f5ffd5b5051919050565b80820180821115610e2657610e26610dff565b6010811061110057634e487b7160e01b5f52602160045260245ffd5b9052565b60c081525f5f88545f8160011c9050600182168061112357607f821691505b60208210810361114157634e487b7160e01b5f52602260045260245ffd5b60c0860182905260e086018180156111605760018114611176576111a2565b60ff198516825283151560051b820195506111a2565b5f8e8152602090205f5b8581101561119c57815484820152600190910190602001611180565b83019650505b5050505050809150506111b860208301886110e4565b8560408301526111d360608301866001600160a01b03169052565b6001600160a01b0393909316608082015260a0015294935050505056fe610100604052348015610010575f5ffd5b506040516118eb3803806118eb83398101604081905261002f916100d5565b5f61003a8782610251565b5084600f81111561004d5761004d61030b565b60a081600f8111156100615761006161030b565b9052506080939093526001600160a01b0391821660c052600480546001600160a01b0319169190921617905560e0525061031f9050565b634e487b7160e01b5f52604160045260245ffd5b8051601081106100ba575f5ffd5b919050565b80516001600160a01b03811681146100ba575f5ffd5b5f5f5f5f5f5f60c087890312156100ea575f5ffd5b86516001600160401b038111156100ff575f5ffd5b8701601f8101891361010f575f5ffd5b80516001600160401b0381111561012857610128610098565b604051601f8201601f19908116603f011681016001600160401b038111828210171561015657610156610098565b6040528181528282016020018b101561016d575f5ffd5b8160208401602083015e5f60208383010152809850505050610191602088016100ac565b604088015190955093506101a7606088016100bf565b92506101b5608088016100bf565b91505f60a08801519050809150509295509295509295565b600181811c908216806101e157607f821691505b6020821081036101ff57634e487b7160e01b5f52602260045260245ffd5b50919050565b601f82111561024c57805f5260205f20601f840160051c8101602085101561022a5750805b601f840160051c820191505b81811015610249575f8155600101610236565b50505b505050565b81516001600160401b0381111561026a5761026a610098565b61027e8161027884546101cd565b84610205565b6020601f8211600181146102b0575f83156102995750848201515b5f19600385901b1c1916600184901b178455610249565b5f84815260208120601f198516915b828110156102df57878501518255602094850194600190920191016102bf565b50848210156102fc57868401515f19600387901b60f8161c191681555b50505050600190811b01905550565b634e487b7160e01b5f52602160045260245ffd5b60805160a05160c05160e0516115296103c25f395f818161012c01528181610b500152610c1a01525f818161020e015281816106230152610ddb01525f818161026001528181610b710152610bf901525f818161029d0152818161036e0152818161048c015281816104b4015281816104d601528181610527015281816107090152818161074b015281816108ac01528181610b000152610c3e01526115295ff3fe608060405234801561000f575f5ffd5b50600436106100e5575f3560e01c80637adbf97311610088578063a89ae4ba11610063578063a89ae4ba14610248578063afb130531461025b578063b121608c1461028f578063b1af9f4c14610298575f5ffd5b80637adbf973146101e157806395d89b41146101f4578063966dae0e14610209575f5ffd5b80635a9b0b89116100c35780635a9b0b891461015c5780636297f23c146101755780636cfcdca71461017e578063718715d9146101d9575f5ffd5b80631a3ca7aa146100e95780633a499a531461011257806354fd4d5014610127575b5f5ffd5b6100fc6100f7366004610fc3565b6102bf565b6040516101099190610fda565b60405180910390f35b6101256101203660046110a3565b610618565b005b61014e7f000000000000000000000000000000000000000000000000000000000000000081565b604051908152602001610109565b610164610bf0565b60405161010995949392919061117c565b61014e60035481565b61019161018c366004610fc3565b610cf8565b604080516001600160401b03998a168152989097166020890152958701949094526060860192909252608085015260a084015260c0830152151560e082015261010001610109565b6100fc610d5f565b6101256101ef3660046111b9565b610dd0565b6101fc610ee7565b60405161010991906111df565b6102307f000000000000000000000000000000000000000000000000000000000000000081565b6040516001600160a01b039091168152602001610109565b600454610230906001600160a01b031681565b6102827f000000000000000000000000000000000000000000000000000000000000000081565b60405161010991906111f1565b61014e60025481565b61014e7f000000000000000000000000000000000000000000000000000000000000000081565b60606003545f0361030157604080515f80825260208201909252906102fa565b6102e7610f72565b8152602001906001900390816102df5790505b5092915050565b5f60035483116103115782610315565b6003545b90505f816001600160401b0381111561033057610330611205565b60405190808252806020026020018201604052801561036957816020015b610356610f72565b81526020019060019003908161034e5790505b5090507f00000000000000000000000000000000000000000000000000000000000000006003541015610487575f82600354116103a6575f6103b4565b826003546103b4919061122d565b90505f5b838110156104805760016103cc8284611240565b815481106103dc576103dc611253565b5f9182526020918290206040805161010081018252600790930290910180546001600160401b038082168552600160401b90910416938301939093526001830154908201526002820154606082015260038201546080820152600482015460a0820152600582015460c082015260069091015460ff16151560e0820152835184908390811061046d5761046d611253565b60209081029190910101526001016103b8565b5050610611565b6002547f0000000000000000000000000000000000000000000000000000000000000000831015610519577f0000000000000000000000000000000000000000000000000000000000000000837f00000000000000000000000000000000000000000000000000000000000000006002546105029190611240565b61050c919061122d565b6105169190611267565b90505b5f5b8381101561060e5760017f00000000000000000000000000000000000000000000000000000000000000006105508385611240565b61055a9190611267565b8154811061056a5761056a611253565b5f9182526020918290206040805161010081018252600790930290910180546001600160401b038082168552600160401b90910416938301939093526001830154908201526002820154606082015260038201546080820152600482015460a0820152600582015460c082015260069091015460ff16151560e082015283518490839081106105fb576105fb611253565b602090810291909101015260010161051b565b50505b9392505050565b336001600160a01b037f000000000000000000000000000000000000000000000000000000000000000016148061065957506004546001600160a01b031633145b6106aa5760405162461bcd60e51b815260206004820152601a60248201527f4b49443a204e6f7420666163746f7279206f72206f7261636c6500000000000060448201526064015b60405180910390fd5b60408051610100810182526001600160401b03808b16825289166020820152908101879052606081018690526080810185905260a0810184905260c0810183905281151560e08201526003545f90156108a2575f6002545f03610776577f00000000000000000000000000000000000000000000000000000000000000006003541461074457600160035461073f919061122d565b61076f565b61076f60017f000000000000000000000000000000000000000000000000000000000000000061122d565b9050610788565b6001600254610785919061122d565b90505b8a6001600160401b0316600182815481106107a5576107a5611253565b5f9182526020909120600790910201546001600160401b03161480156107f15750600181815481106107d9576107d9611253565b5f91825260209091206006600790920201015460ff16155b156108a057826001828154811061080a5761080a611253565b5f91825260209182902083516007909202018054928401516001600160401b03908116600160401b026001600160801b03199094169216919091179190911781556040820151600180830191909155606083015160028301556080830151600383015560a0830151600483015560c0830151600583015560e0909201516006909101805491151560ff1990921691909117905591505b505b80610b38576001547f00000000000000000000000000000000000000000000000000000000000000001115610a4e576001805480820182555f829052835160079091027fb10e2d527612073b26eecdfd717e6a320cf44b4afac2b0732d9fcbe2b7fa0cf68101805460208701516001600160401b03908116600160401b026001600160801b03199092169416939093179290921790915560408401517fb10e2d527612073b26eecdfd717e6a320cf44b4afac2b0732d9fcbe2b7fa0cf782015560608401517fb10e2d527612073b26eecdfd717e6a320cf44b4afac2b0732d9fcbe2b7fa0cf882015560808401517fb10e2d527612073b26eecdfd717e6a320cf44b4afac2b0732d9fcbe2b7fa0cf982015560a08401517fb10e2d527612073b26eecdfd717e6a320cf44b4afac2b0732d9fcbe2b7fa0cfa82015560c08401517fb10e2d527612073b26eecdfd717e6a320cf44b4afac2b0732d9fcbe2b7fa0cfb82015560e08401517fb10e2d527612073b26eecdfd717e6a320cf44b4afac2b0732d9fcbe2b7fa0cfc909101805491151560ff19909216919091179055546002819055600355610b38565b81600160025481548110610a6457610a64611253565b5f91825260209182902083516007909202018054928401516001600160401b03908116600160401b026001600160801b0319909416921691909117919091178155604082015160018083019190915560608301516002808401919091556080840151600384015560a0840151600484015560c0840151600584015560e0909301516006909201805492151560ff199093169290921790915590547f000000000000000000000000000000000000000000000000000000000000000091610b2a9190611240565b610b349190611267565b6002555b5f604051610b4691906112be565b60405180910390207f00000000000000000000000000000000000000000000000000000000000000007f0000000000000000000000000000000000000000000000000000000000000000600f811115610ba157610ba1611148565b604080516001600160401b038f16815285151560208201527f2938227ea55378ae62398d4f99af288fbab3774dab97fa96a060ea989cbc8001910160405180910390a450505050505050505050565b60605f5f5f5f5f7f00000000000000000000000000000000000000000000000000000000000000007f00000000000000000000000000000000000000000000000000000000000000006003547f0000000000000000000000000000000000000000000000000000000000000000848054610c6990611286565b80601f0160208091040260200160405190810160405280929190818152602001828054610c9590611286565b8015610ce05780601f10610cb757610100808354040283529160200191610ce0565b820191905f5260205f20905b815481529060010190602001808311610cc357829003601f168201915b50505050509450945094509450945094509091929394565b60018181548110610d07575f80fd5b5f91825260209091206007909102018054600182015460028301546003840154600485015460058601546006909601546001600160401b038087169850600160401b9096049095169593949293919290919060ff1688565b600354604051630d1e53d560e11b81526060913091631a3ca7aa91610d8a9160040190815260200190565b5f60405180830381865afa158015610da4573d5f5f3e3d5ffd5b505050506040513d5f823e601f3d908101601f19168201604052610dcb91908101906113ce565b905090565b336001600160a01b037f00000000000000000000000000000000000000000000000000000000000000001614610e485760405162461bcd60e51b815260206004820181905260248201527f4b49443a204f6e6c7920666163746f72792063616e20736574206f7261636c6560448201526064016106a1565b6001600160a01b038116610e9e5760405162461bcd60e51b815260206004820152601b60248201527f4b49443a20496e76616c6964206f7261636c652061646472657373000000000060448201526064016106a1565b600480546001600160a01b0319166001600160a01b0383169081179091556040517f107a9fafffb7ac890f780879e423760c9ffea8dcee8045681f40f542aede2cb8905f90a250565b5f8054610ef390611286565b80601f0160208091040260200160405190810160405280929190818152602001828054610f1f90611286565b8015610f6a5780601f10610f4157610100808354040283529160200191610f6a565b820191905f5260205f20905b815481529060010190602001808311610f4d57829003601f168201915b505050505081565b6040518061010001604052805f6001600160401b031681526020015f6001600160401b031681526020015f81526020015f81526020015f81526020015f81526020015f81526020015f151581525090565b5f60208284031215610fd3575f5ffd5b5035919050565b602080825282518282018190525f918401906040840190835b818110156110745783516001600160401b0381511684526001600160401b03602082015116602085015260408101516040850152606081015160608501526080810151608085015260a081015160a085015260c081015160c085015260e0810151151560e08501525061010083019250602084019350600181019050610ff3565b509095945050505050565b6001600160401b0381168114611093575f5ffd5b50565b8015158114611093575f5ffd5b5f5f5f5f5f5f5f5f610100898b0312156110bb575f5ffd5b88356110c68161107f565b975060208901356110d68161107f565b965060408901359550606089013594506080890135935060a0890135925060c0890135915060e089013561110981611096565b809150509295985092959890939650565b5f81518084528060208401602086015e5f602082860101526020601f19601f83011685010191505092915050565b634e487b7160e01b5f52602160045260245ffd5b6010811061117857634e487b7160e01b5f52602160045260245ffd5b9052565b60a081525f61118e60a083018861111a565b905061119d602083018761115c565b8460408301528360608301528260808301529695505050505050565b5f602082840312156111c9575f5ffd5b81356001600160a01b0381168114610611575f5ffd5b602081525f610611602083018461111a565b602081016111ff828461115c565b92915050565b634e487b7160e01b5f52604160045260245ffd5b634e487b7160e01b5f52601160045260245ffd5b818103818111156111ff576111ff611219565b808201808211156111ff576111ff611219565b634e487b7160e01b5f52603260045260245ffd5b5f8261128157634e487b7160e01b5f52601260045260245ffd5b500690565b600181811c9082168061129a57607f821691505b6020821081036112b857634e487b7160e01b5f52602260045260245ffd5b50919050565b5f5f83545f8160011c905060018216806112d957607f821691505b6020821081036112f757634e487b7160e01b5f52602260045260245ffd5b80801561130b57600181146113205761134e565b60ff198416875282151583028701945061134e565b5f888152602090205f5b848110156113465781548982015260019091019060200161132a565b505082870194505b50929695505050505050565b60405161010081016001600160401b038111828210171561137d5761137d611205565b60405290565b604051601f8201601f191681016001600160401b03811182821017156113ab576113ab611205565b604052919050565b80516113be8161107f565b919050565b80516113be81611096565b5f602082840312156113de575f5ffd5b81516001600160401b038111156113f3575f5ffd5b8201601f81018413611403575f5ffd5b80516001600160401b0381111561141c5761141c611205565b61142b60208260051b01611383565b8082825260208201915060208360081b85010192508683111561144c575f5ffd5b6020840193505b828410156114e957610100848803121561146b575f5ffd5b61147361135a565b845161147e8161107f565b815261148c602086016113b3565b602082015260408581015190820152606080860151908201526080808601519082015260a0808601519082015260c080860151908201526114cf60e086016113c3565b60e082015282526101009390930192602090910190611453565b969550505050505056fea2646970667358221220aabdc7245a3ce0cb07a9e069adb9a288f4b498c40c19d4450e3f18672ba804f264736f6c634300081e0033a264697066735822122050154b6b97e75d9f166b4b6902751e8c2113a2f76b549db092e87dc4811caa7764736f6c634300081e0033610100604052348015610010575f5ffd5b506040516118eb3803806118eb83398101604081905261002f916100d5565b5f61003a8782610251565b5084600f81111561004d5761004d61030b565b60a081600f8111156100615761006161030b565b9052506080939093526001600160a01b0391821660c052600480546001600160a01b0319169190921617905560e0525061031f9050565b634e487b7160e01b5f52604160045260245ffd5b8051601081106100ba575f5ffd5b919050565b80516001600160a01b03811681146100ba575f5ffd5b5f5f5f5f5f5f60c087890312156100ea575f5ffd5b86516001600160401b038111156100ff575f5ffd5b8701601f8101891361010f575f5ffd5b80516001600160401b0381111561012857610128610098565b604051601f8201601f19908116603f011681016001600160401b038111828210171561015657610156610098565b6040528181528282016020018b101561016d575f5ffd5b8160208401602083015e5f60208383010152809850505050610191602088016100ac565b604088015190955093506101a7606088016100bf565b92506101b5608088016100bf565b91505f60a08801519050809150509295509295509295565b600181811c908216806101e157607f821691505b6020821081036101ff57634e487b7160e01b5f52602260045260245ffd5b50919050565b601f82111561024c57805f5260205f20601f840160051c8101602085101561022a5750805b601f840160051c820191505b81811015610249575f8155600101610236565b50505b505050565b81516001600160401b0381111561026a5761026a610098565b61027e8161027884546101cd565b84610205565b6020601f8211600181146102b0575f83156102995750848201515b5f19600385901b1c1916600184901b178455610249565b5f84815260208120601f198516915b828110156102df57878501518255602094850194600190920191016102bf565b50848210156102fc57868401515f19600387901b60f8161c191681555b50505050600190811b01905550565b634e487b7160e01b5f52602160045260245ffd5b60805160a05160c05160e0516115296103c25f395f818161012c01528181610b500152610c1a01525f818161020e015281816106230152610ddb01525f818161026001528181610b710152610bf901525f818161029d0152818161036e0152818161048c015281816104b4015281816104d601528181610527015281816107090152818161074b015281816108ac01528181610b000152610c3e01526115295ff3fe608060405234801561000f575f5ffd5b50600436106100e5575f3560e01c80637adbf97311610088578063a89ae4ba11610063578063a89ae4ba14610248578063afb130531461025b578063b121608c1461028f578063b1af9f4c14610298575f5ffd5b80637adbf973146101e157806395d89b41146101f4578063966dae0e14610209575f5ffd5b80635a9b0b89116100c35780635a9b0b891461015c5780636297f23c146101755780636cfcdca71461017e578063718715d9146101d9575f5ffd5b80631a3ca7aa146100e95780633a499a531461011257806354fd4d5014610127575b5f5ffd5b6100fc6100f7366004610fc3565b6102bf565b6040516101099190610fda565b60405180910390f35b6101256101203660046110a3565b610618565b005b61014e7f000000000000000000000000000000000000000000000000000000000000000081565b604051908152602001610109565b610164610bf0565b60405161010995949392919061117c565b61014e60035481565b61019161018c366004610fc3565b610cf8565b604080516001600160401b03998a168152989097166020890152958701949094526060860192909252608085015260a084015260c0830152151560e082015261010001610109565b6100fc610d5f565b6101256101ef3660046111b9565b610dd0565b6101fc610ee7565b60405161010991906111df565b6102307f000000000000000000000000000000000000000000000000000000000000000081565b6040516001600160a01b039091168152602001610109565b600454610230906001600160a01b031681565b6102827f000000000000000000000000000000000000000000000000000000000000000081565b60405161010991906111f1565b61014e60025481565b61014e7f000000000000000000000000000000000000000000000000000000000000000081565b60606003545f0361030157604080515f80825260208201909252906102fa565b6102e7610f72565b8152602001906001900390816102df5790505b5092915050565b5f60035483116103115782610315565b6003545b90505f816001600160401b0381111561033057610330611205565b60405190808252806020026020018201604052801561036957816020015b610356610f72565b81526020019060019003908161034e5790505b5090507f00000000000000000000000000000000000000000000000000000000000000006003541015610487575f82600354116103a6575f6103b4565b826003546103b4919061122d565b90505f5b838110156104805760016103cc8284611240565b815481106103dc576103dc611253565b5f9182526020918290206040805161010081018252600790930290910180546001600160401b038082168552600160401b90910416938301939093526001830154908201526002820154606082015260038201546080820152600482015460a0820152600582015460c082015260069091015460ff16151560e0820152835184908390811061046d5761046d611253565b60209081029190910101526001016103b8565b5050610611565b6002547f0000000000000000000000000000000000000000000000000000000000000000831015610519577f0000000000000000000000000000000000000000000000000000000000000000837f00000000000000000000000000000000000000000000000000000000000000006002546105029190611240565b61050c919061122d565b6105169190611267565b90505b5f5b8381101561060e5760017f00000000000000000000000000000000000000000000000000000000000000006105508385611240565b61055a9190611267565b8154811061056a5761056a611253565b5f9182526020918290206040805161010081018252600790930290910180546001600160401b038082168552600160401b90910416938301939093526001830154908201526002820154606082015260038201546080820152600482015460a0820152600582015460c082015260069091015460ff16151560e082015283518490839081106105fb576105fb611253565b602090810291909101015260010161051b565b50505b9392505050565b336001600160a01b037f000000000000000000000000000000000000000000000000000000000000000016148061065957506004546001600160a01b031633145b6106aa5760405162461bcd60e51b815260206004820152601a60248201527f4b49443a204e6f7420666163746f7279206f72206f7261636c6500000000000060448201526064015b60405180910390fd5b60408051610100810182526001600160401b03808b16825289166020820152908101879052606081018690526080810185905260a0810184905260c0810183905281151560e08201526003545f90156108a2575f6002545f03610776577f00000000000000000000000000000000000000000000000000000000000000006003541461074457600160035461073f919061122d565b61076f565b61076f60017f000000000000000000000000000000000000000000000000000000000000000061122d565b9050610788565b6001600254610785919061122d565b90505b8a6001600160401b0316600182815481106107a5576107a5611253565b5f9182526020909120600790910201546001600160401b03161480156107f15750600181815481106107d9576107d9611253565b5f91825260209091206006600790920201015460ff16155b156108a057826001828154811061080a5761080a611253565b5f91825260209182902083516007909202018054928401516001600160401b03908116600160401b026001600160801b03199094169216919091179190911781556040820151600180830191909155606083015160028301556080830151600383015560a0830151600483015560c0830151600583015560e0909201516006909101805491151560ff1990921691909117905591505b505b80610b38576001547f00000000000000000000000000000000000000000000000000000000000000001115610a4e576001805480820182555f829052835160079091027fb10e2d527612073b26eecdfd717e6a320cf44b4afac2b0732d9fcbe2b7fa0cf68101805460208701516001600160401b03908116600160401b026001600160801b03199092169416939093179290921790915560408401517fb10e2d527612073b26eecdfd717e6a320cf44b4afac2b0732d9fcbe2b7fa0cf782015560608401517fb10e2d527612073b26eecdfd717e6a320cf44b4afac2b0732d9fcbe2b7fa0cf882015560808401517fb10e2d527612073b26eecdfd717e6a320cf44b4afac2b0732d9fcbe2b7fa0cf982015560a08401517fb10e2d527612073b26eecdfd717e6a320cf44b4afac2b0732d9fcbe2b7fa0cfa82015560c08401517fb10e2d527612073b26eecdfd717e6a320cf44b4afac2b0732d9fcbe2b7fa0cfb82015560e08401517fb10e2d527612073b26eecdfd717e6a320cf44b4afac2b0732d9fcbe2b7fa0cfc909101805491151560ff19909216919091179055546002819055600355610b38565b81600160025481548110610a6457610a64611253565b5f91825260209182902083516007909202018054928401516001600160401b03908116600160401b026001600160801b0319909416921691909117919091178155604082015160018083019190915560608301516002808401919091556080840151600384015560a0840151600484015560c0840151600584015560e0909301516006909201805492151560ff199093169290921790915590547f000000000000000000000000000000000000000000000000000000000000000091610b2a9190611240565b610b349190611267565b6002555b5f604051610b4691906112be565b60405180910390207f00000000000000000000000000000000000000000000000000000000000000007f0000000000000000000000000000000000000000000000000000000000000000600f811115610ba157610ba1611148565b604080516001600160401b038f16815285151560208201527f2938227ea55378ae62398d4f99af288fbab3774dab97fa96a060ea989cbc8001910160405180910390a450505050505050505050565b60605f5f5f5f5f7f00000000000000000000000000000000000000000000000000000000000000007f00000000000000000000000000000000000000000000000000000000000000006003547f0000000000000000000000000000000000000000000000000000000000000000848054610c6990611286565b80601f0160208091040260200160405190810160405280929190818152602001828054610c9590611286565b8015610ce05780601f10610cb757610100808354040283529160200191610ce0565b820191905f5260205f20905b815481529060010190602001808311610cc357829003601f168201915b50505050509450945094509450945094509091929394565b60018181548110610d07575f80fd5b5f91825260209091206007909102018054600182015460028301546003840154600485015460058601546006909601546001600160401b038087169850600160401b9096049095169593949293919290919060ff1688565b600354604051630d1e53d560e11b81526060913091631a3ca7aa91610d8a9160040190815260200190565b5f60405180830381865afa158015610da4573d5f5f3e3d5ffd5b505050506040513d5f823e601f3d908101601f19168201604052610dcb91908101906113ce565b905090565b336001600160a01b037f00000000000000000000000000000000000000000000000000000000000000001614610e485760405162461bcd60e51b815260206004820181905260248201527f4b49443a204f6e6c7920666163746f72792063616e20736574206f7261636c6560448201526064016106a1565b6001600160a01b038116610e9e5760405162461bcd60e51b815260206004820152601b60248201527f4b49443a20496e76616c6964206f7261636c652061646472657373000000000060448201526064016106a1565b600480546001600160a01b0319166001600160a01b0383169081179091556040517f107a9fafffb7ac890f780879e423760c9ffea8dcee8045681f40f542aede2cb8905f90a250565b5f8054610ef390611286565b80601f0160208091040260200160405190810160405280929190818152602001828054610f1f90611286565b8015610f6a5780601f10610f4157610100808354040283529160200191610f6a565b820191905f5260205f20905b815481529060010190602001808311610f4d57829003601f168201915b505050505081565b6040518061010001604052805f6001600160401b031681526020015f6001600160401b031681526020015f81526020015f81526020015f81526020015f81526020015f81526020015f151581525090565b5f60208284031215610fd3575f5ffd5b5035919050565b602080825282518282018190525f918401906040840190835b818110156110745783516001600160401b0381511684526001600160401b03602082015116602085015260408101516040850152606081015160608501526080810151608085015260a081015160a085015260c081015160c085015260e0810151151560e08501525061010083019250602084019350600181019050610ff3565b509095945050505050565b6001600160401b0381168114611093575f5ffd5b50565b8015158114611093575f5ffd5b5f5f5f5f5f5f5f5f610100898b0312156110bb575f5ffd5b88356110c68161107f565b975060208901356110d68161107f565b965060408901359550606089013594506080890135935060a0890135925060c0890135915060e089013561110981611096565b809150509295985092959890939650565b5f81518084528060208401602086015e5f602082860101526020601f19601f83011685010191505092915050565b634e487b7160e01b5f52602160045260245ffd5b6010811061117857634e487b7160e01b5f52602160045260245ffd5b9052565b60a081525f61118e60a083018861111a565b905061119d602083018761115c565b8460408301528360608301528260808301529695505050505050565b5f602082840312156111c9575f5ffd5b81356001600160a01b0381168114610611575f5ffd5b602081525f610611602083018461111a565b602081016111ff828461115c565b92915050565b634e487b7160e01b5f52604160045260245ffd5b634e487b7160e01b5f52601160045260245ffd5b818103818111156111ff576111ff611219565b808201808211156111ff576111ff611219565b634e487b7160e01b5f52603260045260245ffd5b5f8261128157634e487b7160e01b5f52601260045260245ffd5b500690565b600181811c9082168061129a57607f821691505b6020821081036112b857634e487b7160e01b5f52602260045260245ffd5b50919050565b5f5f83545f8160011c905060018216806112d957607f821691505b6020821081036112f757634e487b7160e01b5f52602260045260245ffd5b80801561130b57600181146113205761134e565b60ff198416875282151583028701945061134e565b5f888152602090205f5b848110156113465781548982015260019091019060200161132a565b505082870194505b50929695505050505050565b60405161010081016001600160401b038111828210171561137d5761137d611205565b60405290565b604051601f8201601f191681016001600160401b03811182821017156113ab576113ab611205565b604052919050565b80516113be8161107f565b919050565b80516113be81611096565b5f602082840312156113de575f5ffd5b81516001600160401b038111156113f3575f5ffd5b8201601f81018413611403575f5ffd5b80516001600160401b0381111561141c5761141c611205565b61142b60208260051b01611383565b8082825260208201915060208360081b85010192508683111561144c575f5ffd5b6020840193505b828410156114e957610100848803121561146b575f5ffd5b61147361135a565b845161147e8161107f565b815261148c602086016113b3565b602082015260408581015190820152606080860151908201526080808601519082015260a0808601519082015260c080860151908201526114cf60e086016113c3565b60e082015282526101009390930192602090910190611453565b969550505050505056fea2646970667358221220aabdc7245a3ce0cb07a9e069adb9a288f4b498c40c19d4450e3f18672ba804f264736f6c634300081e0033",
			"opcodes": "PUSH1 0x80 PUSH1 0x40 MSTORE CALLVALUE DUP1 ISZERO PUSH2 0xF JUMPI PUSH0 PUSH0 REVERT JUMPDEST POP PUSH1 0x40 MLOAD PUSH2 0x4A86 CODESIZE SUB DUP1 PUSH2 0x4A86 DUP4 CODECOPY DUP2 ADD PUSH1 0x40 DUP2 SWAP1 MSTORE PUSH2 0x2E SWAP2 PUSH2 0x34E JUMP JUMPDEST DUP2 PUSH1 0x1 PUSH1 0x1 PUSH1 0xA0 SHL SUB DUP2 AND PUSH2 0x5D JUMPI PUSH1 0x40 MLOAD PUSH4 0x1E4FBDF7 PUSH1 0xE0 SHL DUP2 MSTORE PUSH0 PUSH1 0x4 DUP3 ADD MSTORE PUSH1 0x24 ADD JUMPDEST PUSH1 0x40 MLOAD DUP1 SWAP2 SUB SWAP1 REVERT JUMPDEST PUSH2 0x66 DUP2 PUSH2 0x146 JUMP JUMPDEST POP PUSH1 0x1 PUSH2 0x73 DUP5 DUP3 PUSH2 0x4A2 JUMP JUMPDEST POP PUSH1 0x1 PUSH1 0x1 PUSH1 0xA0 SHL SUB DUP2 AND PUSH2 0xCA JUMPI PUSH1 0x40 MLOAD PUSH3 0x461BCD PUSH1 0xE5 SHL DUP2 MSTORE PUSH1 0x20 PUSH1 0x4 DUP3 ADD MSTORE PUSH1 0x1D PUSH1 0x24 DUP3 ADD MSTORE PUSH32 0x4F7261636C6520616464726573732063616E6E6F74206265207A65726F000000 PUSH1 0x44 DUP3 ADD MSTORE PUSH1 0x64 ADD PUSH2 0x54 JUMP JUMPDEST PUSH1 0x2 DUP1 SLOAD PUSH1 0x1 PUSH1 0x1 PUSH1 0xA0 SHL SUB NOT AND PUSH1 0x1 PUSH1 0x1 PUSH1 0xA0 SHL SUB DUP4 AND SWAP1 DUP2 OR SWAP1 SWAP2 SSTORE PUSH1 0x40 MLOAD PUSH32 0xDD82BDFC28FCC826C53263DC2A2B6083E27E92699EBFEE617227E08E21C202F0 SWAP1 PUSH0 SWAP1 LOG2 PUSH0 JUMPDEST PUSH1 0xF DUP2 LT ISZERO PUSH2 0x13D JUMPI PUSH2 0x135 DUP2 PUSH1 0xF DUP2 GT ISZERO PUSH2 0x130 JUMPI PUSH2 0x130 PUSH2 0x55C JUMP JUMPDEST PUSH2 0x195 JUMP JUMPDEST PUSH1 0x1 ADD PUSH2 0x112 JUMP JUMPDEST POP POP POP POP PUSH2 0x67D JUMP JUMPDEST PUSH0 DUP1 SLOAD PUSH1 0x1 PUSH1 0x1 PUSH1 0xA0 SHL SUB DUP4 DUP2 AND PUSH1 0x1 PUSH1 0x1 PUSH1 0xA0 SHL SUB NOT DUP4 AND DUP2 OR DUP5 SSTORE PUSH1 0x40 MLOAD SWAP2 SWAP1 SWAP3 AND SWAP3 DUP4 SWAP2 PUSH32 0x8BE0079C531659141344CD1FD0A4F28419497F9722A3DAAFE3B4186F6B6457E0 SWAP2 SWAP1 LOG3 POP POP JUMP JUMPDEST PUSH0 PUSH1 0x4 PUSH0 DUP4 PUSH1 0xF DUP2 GT ISZERO PUSH2 0x1AB JUMPI PUSH2 0x1AB PUSH2 0x55C JUMP JUMPDEST PUSH1 0xF DUP2 GT ISZERO PUSH2 0x1BC JUMPI PUSH2 0x1BC PUSH2 0x55C JUMP JUMPDEST DUP2 MSTORE PUSH1 0x20 ADD SWAP1 DUP2 MSTORE PUSH1 0x20 ADD PUSH0 KECCAK256 SLOAD PUSH1 0x1 PUSH2 0x1D6 SWAP2 SWAP1 PUSH2 0x570 JUMP JUMPDEST PUSH1 0x2 SLOAD PUSH1 0x40 MLOAD SWAP2 SWAP3 POP PUSH1 0x64 SWAP2 PUSH0 SWAP2 PUSH1 0x1 SWAP2 DUP7 SWAP2 DUP6 SWAP2 ADDRESS SWAP2 PUSH1 0x1 PUSH1 0x1 PUSH1 0xA0 SHL SUB AND SWAP1 DUP9 SWAP1 PUSH2 0x202 SWAP1 PUSH2 0x312 JUMP JUMPDEST PUSH2 0x211 SWAP7 SWAP6 SWAP5 SWAP4 SWAP3 SWAP2 SWAP1 PUSH2 0x5B5 JUMP JUMPDEST PUSH1 0x40 MLOAD DUP1 SWAP2 SUB SWAP1 PUSH0 CREATE DUP1 ISZERO DUP1 ISZERO PUSH2 0x22A JUMPI RETURNDATASIZE PUSH0 PUSH0 RETURNDATACOPY RETURNDATASIZE PUSH0 REVERT JUMPDEST POP SWAP1 POP PUSH1 0x3 PUSH0 DUP6 PUSH1 0xF DUP2 GT ISZERO PUSH2 0x242 JUMPI PUSH2 0x242 PUSH2 0x55C JUMP JUMPDEST PUSH1 0xF DUP2 GT ISZERO PUSH2 0x253 JUMPI PUSH2 0x253 PUSH2 0x55C JUMP JUMPDEST DUP2 MSTORE PUSH1 0x20 DUP1 DUP3 ADD SWAP3 SWAP1 SWAP3 MSTORE PUSH1 0x40 ADD PUSH0 SWAP1 DUP2 KECCAK256 DUP1 SLOAD PUSH1 0x1 DUP2 ADD DUP3 SSTORE SWAP1 DUP3 MSTORE SWAP2 DUP2 KECCAK256 SWAP1 SWAP2 ADD DUP1 SLOAD PUSH1 0x1 PUSH1 0x1 PUSH1 0xA0 SHL SUB NOT AND PUSH1 0x1 PUSH1 0x1 PUSH1 0xA0 SHL SUB DUP5 AND OR SWAP1 SSTORE DUP4 SWAP1 PUSH1 0x4 SWAP1 DUP7 PUSH1 0xF DUP2 GT ISZERO PUSH2 0x2A6 JUMPI PUSH2 0x2A6 PUSH2 0x55C JUMP JUMPDEST PUSH1 0xF DUP2 GT ISZERO PUSH2 0x2B7 JUMPI PUSH2 0x2B7 PUSH2 0x55C JUMP JUMPDEST DUP2 MSTORE PUSH1 0x20 DUP2 ADD SWAP2 SWAP1 SWAP2 MSTORE PUSH1 0x40 ADD PUSH0 KECCAK256 SSTORE PUSH1 0x1 PUSH1 0x1 PUSH1 0xA0 SHL SUB DUP2 AND DUP4 DUP6 PUSH1 0xF DUP2 GT ISZERO PUSH2 0x2E4 JUMPI PUSH2 0x2E4 PUSH2 0x55C JUMP JUMPDEST PUSH1 0x40 MLOAD PUSH32 0x54E0098488106B5B90920BA2520684F28234FED315BADB03E42DF0788BA50C36 SWAP1 PUSH0 SWAP1 LOG4 POP POP POP POP JUMP JUMPDEST PUSH2 0x18EB DUP1 PUSH2 0x319B DUP4 CODECOPY ADD SWAP1 JUMP JUMPDEST PUSH4 0x4E487B71 PUSH1 0xE0 SHL PUSH0 MSTORE PUSH1 0x41 PUSH1 0x4 MSTORE PUSH1 0x24 PUSH0 REVERT JUMPDEST DUP1 MLOAD PUSH1 0x1 PUSH1 0x1 PUSH1 0xA0 SHL SUB DUP2 AND DUP2 EQ PUSH2 0x349 JUMPI PUSH0 PUSH0 REVERT JUMPDEST SWAP2 SWAP1 POP JUMP JUMPDEST PUSH0 PUSH0 PUSH0 PUSH1 0x60 DUP5 DUP7 SUB SLT ISZERO PUSH2 0x360 JUMPI PUSH0 PUSH0 REVERT JUMPDEST DUP4 MLOAD PUSH1 0x1 PUSH1 0x1 PUSH1 0x40 SHL SUB DUP2 GT ISZERO PUSH2 0x375 JUMPI PUSH0 PUSH0 REVERT JUMPDEST DUP5 ADD PUSH1 0x1F DUP2 ADD DUP7 SGT PUSH2 0x385 JUMPI PUSH0 PUSH0 REVERT JUMPDEST DUP1 MLOAD PUSH1 0x1 PUSH1 0x1 PUSH1 0x40 SHL SUB DUP2 GT ISZERO PUSH2 0x39E JUMPI PUSH2 0x39E PUSH2 0x31F JUMP JUMPDEST PUSH1 0x40 MLOAD PUSH1 0x1F DUP3 ADD PUSH1 0x1F NOT SWAP1 DUP2 AND PUSH1 0x3F ADD AND DUP2 ADD PUSH1 0x1 PUSH1 0x1 PUSH1 0x40 SHL SUB DUP2 GT DUP3 DUP3 LT OR ISZERO PUSH2 0x3CC JUMPI PUSH2 0x3CC PUSH2 0x31F JUMP JUMPDEST PUSH1 0x40 MSTORE DUP2 DUP2 MSTORE DUP3 DUP3 ADD PUSH1 0x20 ADD DUP9 LT ISZERO PUSH2 0x3E3 JUMPI PUSH0 PUSH0 REVERT JUMPDEST DUP2 PUSH1 0x20 DUP5 ADD PUSH1 0x20 DUP4 ADD MCOPY PUSH0 PUSH1 0x20 DUP4 DUP4 ADD ADD MSTORE DUP1 SWAP6 POP POP POP POP PUSH2 0x407 PUSH1 0x20 DUP6 ADD PUSH2 0x333 JUMP JUMPDEST SWAP2 POP PUSH2 0x415 PUSH1 0x40 DUP6 ADD PUSH2 0x333 JUMP JUMPDEST SWAP1 POP SWAP3 POP SWAP3 POP SWAP3 JUMP JUMPDEST PUSH1 0x1 DUP2 DUP2 SHR SWAP1 DUP3 AND DUP1 PUSH2 0x432 JUMPI PUSH1 0x7F DUP3 AND SWAP2 POP JUMPDEST PUSH1 0x20 DUP3 LT DUP2 SUB PUSH2 0x450 JUMPI PUSH4 0x4E487B71 PUSH1 0xE0 SHL PUSH0 MSTORE PUSH1 0x22 PUSH1 0x4 MSTORE PUSH1 0x24 PUSH0 REVERT JUMPDEST POP SWAP2 SWAP1 POP JUMP JUMPDEST PUSH1 0x1F DUP3 GT ISZERO PUSH2 0x49D JUMPI DUP1 PUSH0 MSTORE PUSH1 0x20 PUSH0 KECCAK256 PUSH1 0x1F DUP5 ADD PUSH1 0x5 SHR DUP2 ADD PUSH1 0x20 DUP6 LT ISZERO PUSH2 0x47B JUMPI POP DUP1 JUMPDEST PUSH1 0x1F DUP5 ADD PUSH1 0x5 SHR DUP3 ADD SWAP2 POP JUMPDEST DUP2 DUP2 LT ISZERO PUSH2 0x49A JUMPI PUSH0 DUP2 SSTORE PUSH1 0x1 ADD PUSH2 0x487 JUMP JUMPDEST POP POP JUMPDEST POP POP POP JUMP JUMPDEST DUP2 MLOAD PUSH1 0x1 PUSH1 0x1 PUSH1 0x40 SHL SUB DUP2 GT ISZERO PUSH2 0x4BB JUMPI PUSH2 0x4BB PUSH2 0x31F JUMP JUMPDEST PUSH2 0x4CF DUP2 PUSH2 0x4C9 DUP5 SLOAD PUSH2 0x41E JUMP JUMPDEST DUP5 PUSH2 0x456 JUMP JUMPDEST PUSH1 0x20 PUSH1 0x1F DUP3 GT PUSH1 0x1 DUP2 EQ PUSH2 0x501 JUMPI PUSH0 DUP4 ISZERO PUSH2 0x4EA JUMPI POP DUP5 DUP3 ADD MLOAD JUMPDEST PUSH0 NOT PUSH1 0x3 DUP6 SWAP1 SHL SHR NOT AND PUSH1 0x1 DUP5 SWAP1 SHL OR DUP5 SSTORE PUSH2 0x49A JUMP JUMPDEST PUSH0 DUP5 DUP2 MSTORE PUSH1 0x20 DUP2 KECCAK256 PUSH1 0x1F NOT DUP6 AND SWAP2 JUMPDEST DUP3 DUP2 LT ISZERO PUSH2 0x530 JUMPI DUP8 DUP6 ADD MLOAD DUP3 SSTORE PUSH1 0x20 SWAP5 DUP6 ADD SWAP5 PUSH1 0x1 SWAP1 SWAP3 ADD SWAP2 ADD PUSH2 0x510 JUMP JUMPDEST POP DUP5 DUP3 LT ISZERO PUSH2 0x54D JUMPI DUP7 DUP5 ADD MLOAD PUSH0 NOT PUSH1 0x3 DUP8 SWAP1 SHL PUSH1 0xF8 AND SHR NOT AND DUP2 SSTORE JUMPDEST POP POP POP POP PUSH1 0x1 SWAP1 DUP2 SHL ADD SWAP1 SSTORE POP JUMP JUMPDEST PUSH4 0x4E487B71 PUSH1 0xE0 SHL PUSH0 MSTORE PUSH1 0x21 PUSH1 0x4 MSTORE PUSH1 0x24 PUSH0 REVERT JUMPDEST DUP1 DUP3 ADD DUP1 DUP3 GT ISZERO PUSH2 0x58F JUMPI PUSH4 0x4E487B71 PUSH1 0xE0 SHL PUSH0 MSTORE PUSH1 0x11 PUSH1 0x4 MSTORE PUSH1 0x24 PUSH0 REVERT JUMPDEST SWAP3 SWAP2 POP POP JUMP JUMPDEST PUSH1 0x10 DUP2 LT PUSH2 0x5B1 JUMPI PUSH4 0x4E487B71 PUSH1 0xE0 SHL PUSH0 MSTORE PUSH1 0x21 PUSH1 0x4 MSTORE PUSH1 0x24 PUSH0 REVERT JUMPDEST SWAP1 MSTORE JUMP JUMPDEST PUSH1 0xC0 DUP2 MSTORE PUSH0 PUSH0 DUP9 SLOAD PUSH2 0x5C6 DUP2 PUSH2 0x41E JUMP JUMPDEST DUP1 PUSH1 0xC0 DUP7 ADD MSTORE PUSH1 0x1 DUP3 AND PUSH0 DUP2 EQ PUSH2 0x5E4 JUMPI PUSH1 0x1 DUP2 EQ PUSH2 0x600 JUMPI PUSH2 0x631 JUMP JUMPDEST PUSH1 0xFF NOT DUP4 AND PUSH1 0xE0 DUP8 ADD MSTORE PUSH1 0xE0 DUP3 ISZERO ISZERO PUSH1 0x5 SHL DUP8 ADD ADD SWAP4 POP PUSH2 0x631 JUMP JUMPDEST DUP12 PUSH0 MSTORE PUSH1 0x20 PUSH0 KECCAK256 PUSH0 JUMPDEST DUP4 DUP2 LT ISZERO PUSH2 0x628 JUMPI DUP2 SLOAD DUP9 DUP3 ADD PUSH1 0xE0 ADD MSTORE PUSH1 0x1 SWAP1 SWAP2 ADD SWAP1 PUSH1 0x20 ADD PUSH2 0x609 JUMP JUMPDEST DUP8 ADD PUSH1 0xE0 ADD SWAP5 POP POP JUMPDEST POP POP POP DUP1 SWAP2 POP POP PUSH2 0x645 PUSH1 0x20 DUP4 ADD DUP9 PUSH2 0x595 JUMP JUMPDEST DUP6 PUSH1 0x40 DUP4 ADD MSTORE PUSH2 0x660 PUSH1 0x60 DUP4 ADD DUP7 PUSH1 0x1 PUSH1 0x1 PUSH1 0xA0 SHL SUB AND SWAP1 MSTORE JUMP JUMPDEST PUSH1 0x1 PUSH1 0x1 PUSH1 0xA0 SHL SUB SWAP4 SWAP1 SWAP4 AND PUSH1 0x80 DUP3 ADD MSTORE PUSH1 0xA0 ADD MSTORE SWAP5 SWAP4 POP POP POP POP JUMP JUMPDEST PUSH2 0x2B11 DUP1 PUSH2 0x68A PUSH0 CODECOPY PUSH0 RETURN INVALID PUSH1 0x80 PUSH1 0x40 MSTORE CALLVALUE DUP1 ISZERO PUSH2 0xF JUMPI PUSH0 PUSH0 REVERT JUMPDEST POP PUSH1 0x4 CALLDATASIZE LT PUSH2 0xCB JUMPI PUSH0 CALLDATALOAD PUSH1 0xE0 SHR DUP1 PUSH4 0x8DA5CB5B GT PUSH2 0x88 JUMPI DUP1 PUSH4 0xA89AE4BA GT PUSH2 0x63 JUMPI DUP1 PUSH4 0xA89AE4BA EQ PUSH2 0x1AD JUMPI DUP1 PUSH4 0xD302BDB4 EQ PUSH2 0x1C0 JUMPI DUP1 PUSH4 0xEA1B4289 EQ PUSH2 0x1C8 JUMPI DUP1 PUSH4 0xF2FDE38B EQ PUSH2 0x1DB JUMPI PUSH0 PUSH0 REVERT JUMPDEST DUP1 PUSH4 0x8DA5CB5B EQ PUSH2 0x175 JUMPI DUP1 PUSH4 0x95D89B41 EQ PUSH2 0x185 JUMPI DUP1 PUSH4 0x97B3326E EQ PUSH2 0x18D JUMPI PUSH0 PUSH0 REVERT JUMPDEST DUP1 PUSH4 0x15070401 EQ PUSH2 0xCF JUMPI DUP1 PUSH4 0x2C511A7A EQ PUSH2 0xED JUMPI DUP1 PUSH4 0x2D814E87 EQ PUSH2 0x118 JUMPI DUP1 PUSH4 0x715018A6 EQ PUSH2 0x145 JUMPI DUP1 PUSH4 0x7ADBF973 EQ PUSH2 0x14F JUMPI DUP1 PUSH4 0x841DC8E1 EQ PUSH2 0x162 JUMPI JUMPDEST PUSH0 PUSH0 REVERT JUMPDEST PUSH2 0xD7 PUSH2 0x1EE JUMP JUMPDEST PUSH1 0x40 MLOAD PUSH2 0xE4 SWAP2 SWAP1 PUSH2 0xC0A JUMP JUMPDEST PUSH1 0x40 MLOAD DUP1 SWAP2 SUB SWAP1 RETURN JUMPDEST PUSH2 0x100 PUSH2 0xFB CALLDATASIZE PUSH1 0x4 PUSH2 0xC4B JUMP JUMPDEST PUSH2 0x27E JUMP JUMPDEST PUSH1 0x40 MLOAD PUSH1 0x1 PUSH1 0x1 PUSH1 0xA0 SHL SUB SWAP1 SWAP2 AND DUP2 MSTORE PUSH1 0x20 ADD PUSH2 0xE4 JUMP JUMPDEST PUSH2 0x137 PUSH2 0x126 CALLDATASIZE PUSH1 0x4 PUSH2 0xC4B JUMP JUMPDEST PUSH1 0x4 PUSH1 0x20 MSTORE PUSH0 SWAP1 DUP2 MSTORE PUSH1 0x40 SWAP1 KECCAK256 SLOAD DUP2 JUMP JUMPDEST PUSH1 0x40 MLOAD SWAP1 DUP2 MSTORE PUSH1 0x20 ADD PUSH2 0xE4 JUMP JUMPDEST PUSH2 0x14D PUSH2 0x303 JUMP JUMPDEST STOP JUMPDEST PUSH2 0x14D PUSH2 0x15D CALLDATASIZE PUSH1 0x4 PUSH2 0xC6D JUMP JUMPDEST PUSH2 0x316 JUMP JUMPDEST PUSH2 0x14D PUSH2 0x170 CALLDATASIZE PUSH1 0x4 PUSH2 0xCB5 JUMP JUMPDEST PUSH2 0x4A4 JUMP JUMPDEST PUSH0 SLOAD PUSH1 0x1 PUSH1 0x1 PUSH1 0xA0 SHL SUB AND PUSH2 0x100 JUMP JUMPDEST PUSH2 0xD7 PUSH2 0x7D3 JUMP JUMPDEST PUSH2 0x1A0 PUSH2 0x19B CALLDATASIZE PUSH1 0x4 PUSH2 0xC4B JUMP JUMPDEST PUSH2 0x85F JUMP JUMPDEST PUSH1 0x40 MLOAD PUSH2 0xE4 SWAP2 SWAP1 PUSH2 0xD3E JUMP JUMPDEST PUSH1 0x2 SLOAD PUSH2 0x100 SWAP1 PUSH1 0x1 PUSH1 0x1 PUSH1 0xA0 SHL SUB AND DUP2 JUMP JUMPDEST PUSH2 0x137 PUSH1 0x64 DUP2 JUMP JUMPDEST PUSH2 0x100 PUSH2 0x1D6 CALLDATASIZE PUSH1 0x4 PUSH2 0xD89 JUMP JUMPDEST PUSH2 0x8F2 JUMP JUMPDEST PUSH2 0x14D PUSH2 0x1E9 CALLDATASIZE PUSH1 0x4 PUSH2 0xC6D JUMP JUMPDEST PUSH2 0x926 JUMP JUMPDEST PUSH1 0x60 PUSH1 0x1 DUP1 SLOAD PUSH2 0x1FD SWAP1 PUSH2 0xDB3 JUMP JUMPDEST DUP1 PUSH1 0x1F ADD PUSH1 0x20 DUP1 SWAP2 DIV MUL PUSH1 0x20 ADD PUSH1 0x40 MLOAD SWAP1 DUP2 ADD PUSH1 0x40 MSTORE DUP1 SWAP3 SWAP2 SWAP1 DUP2 DUP2 MSTORE PUSH1 0x20 ADD DUP3 DUP1 SLOAD PUSH2 0x229 SWAP1 PUSH2 0xDB3 JUMP JUMPDEST DUP1 ISZERO PUSH2 0x274 JUMPI DUP1 PUSH1 0x1F LT PUSH2 0x24B JUMPI PUSH2 0x100 DUP1 DUP4 SLOAD DIV MUL DUP4 MSTORE SWAP2 PUSH1 0x20 ADD SWAP2 PUSH2 0x274 JUMP JUMPDEST DUP3 ADD SWAP2 SWAP1 PUSH0 MSTORE PUSH1 0x20 PUSH0 KECCAK256 SWAP1 JUMPDEST DUP2 SLOAD DUP2 MSTORE SWAP1 PUSH1 0x1 ADD SWAP1 PUSH1 0x20 ADD DUP1 DUP4 GT PUSH2 0x257 JUMPI DUP3 SWAP1 SUB PUSH1 0x1F AND DUP3 ADD SWAP2 JUMPDEST POP POP POP POP POP SWAP1 POP SWAP1 JUMP JUMPDEST PUSH0 PUSH0 PUSH1 0x3 PUSH0 DUP5 PUSH1 0xF DUP2 GT ISZERO PUSH2 0x295 JUMPI PUSH2 0x295 PUSH2 0xDEB JUMP JUMPDEST PUSH1 0xF DUP2 GT ISZERO PUSH2 0x2A6 JUMPI PUSH2 0x2A6 PUSH2 0xDEB JUMP JUMPDEST DUP2 MSTORE PUSH1 0x20 ADD SWAP1 DUP2 MSTORE PUSH1 0x20 ADD PUSH0 KECCAK256 SWAP1 POP DUP1 DUP1 SLOAD SWAP1 POP PUSH0 SUB PUSH2 0x2C8 JUMPI POP PUSH0 SWAP3 SWAP2 POP POP JUMP JUMPDEST DUP1 SLOAD DUP2 SWAP1 PUSH2 0x2D8 SWAP1 PUSH1 0x1 SWAP1 PUSH2 0xE13 JUMP JUMPDEST DUP2 SLOAD DUP2 LT PUSH2 0x2E8 JUMPI PUSH2 0x2E8 PUSH2 0xE2C JUMP JUMPDEST PUSH0 SWAP2 DUP3 MSTORE PUSH1 0x20 SWAP1 SWAP2 KECCAK256 ADD SLOAD PUSH1 0x1 PUSH1 0x1 PUSH1 0xA0 SHL SUB AND SWAP4 SWAP3 POP POP POP JUMP JUMPDEST PUSH2 0x30B PUSH2 0x963 JUMP JUMPDEST PUSH2 0x314 PUSH0 PUSH2 0x98F JUMP JUMPDEST JUMP JUMPDEST PUSH2 0x31E PUSH2 0x963 JUMP JUMPDEST PUSH1 0x1 PUSH1 0x1 PUSH1 0xA0 SHL SUB DUP2 AND PUSH2 0x372 JUMPI PUSH1 0x40 MLOAD PUSH3 0x461BCD PUSH1 0xE5 SHL DUP2 MSTORE PUSH1 0x20 PUSH1 0x4 DUP3 ADD MSTORE PUSH1 0x16 PUSH1 0x24 DUP3 ADD MSTORE PUSH22 0x496E76616C6964206F7261636C652061646472657373 PUSH1 0x50 SHL PUSH1 0x44 DUP3 ADD MSTORE PUSH1 0x64 ADD JUMPDEST PUSH1 0x40 MLOAD DUP1 SWAP2 SUB SWAP1 REVERT JUMPDEST PUSH1 0x2 DUP1 SLOAD PUSH1 0x1 PUSH1 0x1 PUSH1 0xA0 SHL SUB NOT AND PUSH1 0x1 PUSH1 0x1 PUSH1 0xA0 SHL SUB DUP4 AND SWAP1 DUP2 OR SWAP1 SWAP2 SSTORE PUSH1 0x40 MLOAD PUSH32 0xDD82BDFC28FCC826C53263DC2A2B6083E27E92699EBFEE617227E08E21C202F0 SWAP1 PUSH0 SWAP1 LOG2 PUSH0 JUMPDEST PUSH1 0xF DUP2 LT ISZERO PUSH2 0x4A0 JUMPI PUSH0 PUSH1 0x3 PUSH0 DUP4 PUSH1 0xF DUP2 GT ISZERO PUSH2 0x3D9 JUMPI PUSH2 0x3D9 PUSH2 0xDEB JUMP JUMPDEST PUSH1 0xF DUP2 GT ISZERO PUSH2 0x3EA JUMPI PUSH2 0x3EA PUSH2 0xDEB JUMP JUMPDEST PUSH1 0xF DUP2 GT ISZERO PUSH2 0x3FB JUMPI PUSH2 0x3FB PUSH2 0xDEB JUMP JUMPDEST DUP2 MSTORE PUSH1 0x20 DUP2 ADD SWAP2 SWAP1 SWAP2 MSTORE PUSH1 0x40 ADD PUSH0 KECCAK256 DUP1 SLOAD SWAP1 SWAP2 POP ISZERO PUSH2 0x497 JUMPI DUP1 SLOAD DUP2 SWAP1 PUSH2 0x424 SWAP1 PUSH1 0x1 SWAP1 PUSH2 0xE13 JUMP JUMPDEST DUP2 SLOAD DUP2 LT PUSH2 0x434 JUMPI PUSH2 0x434 PUSH2 0xE2C JUMP JUMPDEST PUSH0 SWAP2 DUP3 MSTORE PUSH1 0x20 SWAP1 SWAP2 KECCAK256 ADD SLOAD PUSH1 0x40 MLOAD PUSH4 0x7ADBF973 PUSH1 0xE0 SHL DUP2 MSTORE PUSH1 0x1 PUSH1 0x1 PUSH1 0xA0 SHL SUB DUP6 DUP2 AND PUSH1 0x4 DUP4 ADD MSTORE SWAP1 SWAP2 AND SWAP1 PUSH4 0x7ADBF973 SWAP1 PUSH1 0x24 ADD PUSH0 PUSH1 0x40 MLOAD DUP1 DUP4 SUB DUP2 PUSH0 DUP8 DUP1 EXTCODESIZE ISZERO DUP1 ISZERO PUSH2 0x480 JUMPI PUSH0 PUSH0 REVERT JUMPDEST POP GAS CALL ISZERO DUP1 ISZERO PUSH2 0x492 JUMPI RETURNDATASIZE PUSH0 PUSH0 RETURNDATACOPY RETURNDATASIZE PUSH0 REVERT JUMPDEST POP POP POP POP JUMPDEST POP PUSH1 0x1 ADD PUSH2 0x3BA JUMP JUMPDEST POP POP JUMP JUMPDEST PUSH1 0x2 SLOAD PUSH1 0x1 PUSH1 0x1 PUSH1 0xA0 SHL SUB AND CALLER EQ PUSH2 0x50A JUMPI PUSH1 0x40 MLOAD PUSH3 0x461BCD PUSH1 0xE5 SHL DUP2 MSTORE PUSH1 0x20 PUSH1 0x4 DUP3 ADD MSTORE PUSH1 0x23 PUSH1 0x24 DUP3 ADD MSTORE PUSH32 0x43616C6C6572206973206E6F742074686520617574686F72697A6564206F7261 PUSH1 0x44 DUP3 ADD MSTORE PUSH3 0x636C65 PUSH1 0xE8 SHL PUSH1 0x64 DUP3 ADD MSTORE PUSH1 0x84 ADD PUSH2 0x369 JUMP JUMPDEST PUSH0 PUSH2 0x514 DUP11 PUSH2 0x9DE JUMP JUMPDEST SWAP1 POP PUSH0 PUSH0 DUP3 PUSH1 0x1 PUSH1 0x1 PUSH1 0xA0 SHL SUB AND PUSH4 0x5A9B0B89 PUSH1 0x40 MLOAD DUP2 PUSH4 0xFFFFFFFF AND PUSH1 0xE0 SHL DUP2 MSTORE PUSH1 0x4 ADD PUSH0 PUSH1 0x40 MLOAD DUP1 DUP4 SUB DUP2 DUP7 GAS STATICCALL ISZERO DUP1 ISZERO PUSH2 0x553 JUMPI RETURNDATASIZE PUSH0 PUSH0 RETURNDATACOPY RETURNDATASIZE PUSH0 REVERT JUMPDEST POP POP POP POP PUSH1 0x40 MLOAD RETURNDATASIZE PUSH0 DUP3 RETURNDATACOPY PUSH1 0x1F RETURNDATASIZE SWAP1 DUP2 ADD PUSH1 0x1F NOT AND DUP3 ADD PUSH1 0x40 MSTORE PUSH2 0x57A SWAP2 SWAP1 DUP2 ADD SWAP1 PUSH2 0xEBF JUMP JUMPDEST SWAP1 SWAP6 POP SWAP4 POP PUSH0 SWAP3 POP POP POP DUP2 DUP4 LT PUSH2 0x668 JUMPI PUSH1 0x40 MLOAD PUSH4 0xD1E53D5 PUSH1 0xE1 SHL DUP2 MSTORE PUSH1 0x1 PUSH1 0x4 DUP3 ADD MSTORE PUSH0 SWAP1 PUSH1 0x1 PUSH1 0x1 PUSH1 0xA0 SHL SUB DUP7 AND SWAP1 PUSH4 0x1A3CA7AA SWAP1 PUSH1 0x24 ADD PUSH0 PUSH1 0x40 MLOAD DUP1 DUP4 SUB DUP2 DUP7 GAS STATICCALL ISZERO DUP1 ISZERO PUSH2 0x5CF JUMPI RETURNDATASIZE PUSH0 PUSH0 RETURNDATACOPY RETURNDATASIZE PUSH0 REVERT JUMPDEST POP POP POP POP PUSH1 0x40 MLOAD RETURNDATASIZE PUSH0 DUP3 RETURNDATACOPY PUSH1 0x1F RETURNDATASIZE SWAP1 DUP2 ADD PUSH1 0x1F NOT AND DUP3 ADD PUSH1 0x40 MSTORE PUSH2 0x5F6 SWAP2 SWAP1 DUP2 ADD SWAP1 PUSH2 0xF93 JUMP JUMPDEST SWAP1 POP DUP1 MLOAD PUSH0 EQ DUP1 PUSH2 0x637 JUMPI POP DUP13 PUSH8 0xFFFFFFFFFFFFFFFF AND DUP2 PUSH0 DUP2 MLOAD DUP2 LT PUSH2 0x61F JUMPI PUSH2 0x61F PUSH2 0xE2C JUMP JUMPDEST PUSH1 0x20 MUL PUSH1 0x20 ADD ADD MLOAD PUSH0 ADD MLOAD PUSH8 0xFFFFFFFFFFFFFFFF AND EQ ISZERO JUMPDEST DUP1 PUSH2 0x65C JUMPI POP DUP1 PUSH0 DUP2 MLOAD DUP2 LT PUSH2 0x64F JUMPI PUSH2 0x64F PUSH2 0xE2C JUMP JUMPDEST PUSH1 0x20 MUL PUSH1 0x20 ADD ADD MLOAD PUSH1 0xE0 ADD MLOAD JUMPDEST ISZERO PUSH2 0x666 JUMPI PUSH1 0x1 SWAP2 POP JUMPDEST POP JUMPDEST DUP1 ISZERO PUSH2 0x683 JUMPI PUSH2 0x677 DUP14 PUSH2 0xA80 JUMP JUMPDEST PUSH2 0x680 DUP14 PUSH2 0x9DE JUMP JUMPDEST SWAP4 POP JUMPDEST PUSH1 0x40 MLOAD PUSH4 0x3A499A53 PUSH1 0xE0 SHL DUP2 MSTORE PUSH8 0xFFFFFFFFFFFFFFFF DUP1 DUP15 AND PUSH1 0x4 DUP4 ADD MSTORE DUP13 AND PUSH1 0x24 DUP3 ADD MSTORE PUSH1 0x44 DUP2 ADD DUP12 SWAP1 MSTORE PUSH1 0x64 DUP2 ADD DUP11 SWAP1 MSTORE PUSH1 0x84 DUP2 ADD DUP10 SWAP1 MSTORE PUSH1 0xA4 DUP2 ADD DUP9 SWAP1 MSTORE PUSH1 0xC4 DUP2 ADD DUP8 SWAP1 MSTORE DUP6 ISZERO ISZERO PUSH1 0xE4 DUP3 ADD MSTORE PUSH1 0x1 PUSH1 0x1 PUSH1 0xA0 SHL SUB DUP6 AND SWAP1 PUSH4 0x3A499A53 SWAP1 PUSH2 0x104 ADD PUSH0 PUSH1 0x40 MLOAD DUP1 DUP4 SUB DUP2 PUSH0 DUP8 DUP1 EXTCODESIZE ISZERO DUP1 ISZERO PUSH2 0x6FF JUMPI PUSH0 PUSH0 REVERT JUMPDEST POP GAS CALL ISZERO DUP1 ISZERO PUSH2 0x711 JUMPI RETURNDATASIZE PUSH0 PUSH0 RETURNDATACOPY RETURNDATASIZE PUSH0 REVERT JUMPDEST POP POP POP POP DUP4 PUSH1 0x1 PUSH1 0x1 PUSH1 0xA0 SHL SUB AND PUSH4 0x54FD4D50 PUSH1 0x40 MLOAD DUP2 PUSH4 0xFFFFFFFF AND PUSH1 0xE0 SHL DUP2 MSTORE PUSH1 0x4 ADD PUSH1 0x20 PUSH1 0x40 MLOAD DUP1 DUP4 SUB DUP2 DUP7 GAS STATICCALL ISZERO DUP1 ISZERO PUSH2 0x751 JUMPI RETURNDATASIZE PUSH0 PUSH0 RETURNDATACOPY RETURNDATASIZE PUSH0 REVERT JUMPDEST POP POP POP POP PUSH1 0x40 MLOAD RETURNDATASIZE PUSH1 0x1F NOT PUSH1 0x1F DUP3 ADD AND DUP3 ADD DUP1 PUSH1 0x40 MSTORE POP DUP2 ADD SWAP1 PUSH2 0x775 SWAP2 SWAP1 PUSH2 0x10BA JUMP JUMPDEST DUP14 PUSH1 0xF DUP2 GT ISZERO PUSH2 0x787 JUMPI PUSH2 0x787 PUSH2 0xDEB JUMP JUMPDEST PUSH1 0x40 MLOAD PUSH8 0xFFFFFFFFFFFFFFFF DUP16 AND DUP2 MSTORE PUSH32 0x6722DB1D8D597E66EBDAE9702CBF3339A8B447A530A557753C1AFA8A39B986FE SWAP1 PUSH1 0x20 ADD PUSH1 0x40 MLOAD DUP1 SWAP2 SUB SWAP1 LOG3 POP POP POP POP POP POP POP POP POP POP POP POP POP JUMP JUMPDEST PUSH1 0x1 DUP1 SLOAD PUSH2 0x7E0 SWAP1 PUSH2 0xDB3 JUMP JUMPDEST DUP1 PUSH1 0x1F ADD PUSH1 0x20 DUP1 SWAP2 DIV MUL PUSH1 0x20 ADD PUSH1 0x40 MLOAD SWAP1 DUP2 ADD PUSH1 0x40 MSTORE DUP1 SWAP3 SWAP2 SWAP1 DUP2 DUP2 MSTORE PUSH1 0x20 ADD DUP3 DUP1 SLOAD PUSH2 0x80C SWAP1 PUSH2 0xDB3 JUMP JUMPDEST DUP1 ISZERO PUSH2 0x857 JUMPI DUP1 PUSH1 0x1F LT PUSH2 0x82E JUMPI PUSH2 0x100 DUP1 DUP4 SLOAD DIV MUL DUP4 MSTORE SWAP2 PUSH1 0x20 ADD SWAP2 PUSH2 0x857 JUMP JUMPDEST DUP3 ADD SWAP2 SWAP1 PUSH0 MSTORE PUSH1 0x20 PUSH0 KECCAK256 SWAP1 JUMPDEST DUP2 SLOAD DUP2 MSTORE SWAP1 PUSH1 0x1 ADD SWAP1 PUSH1 0x20 ADD DUP1 DUP4 GT PUSH2 0x83A JUMPI DUP3 SWAP1 SUB PUSH1 0x1F AND DUP3 ADD SWAP2 JUMPDEST POP POP POP POP POP DUP2 JUMP JUMPDEST PUSH1 0x60 PUSH1 0x3 PUSH0 DUP4 PUSH1 0xF DUP2 GT ISZERO PUSH2 0x876 JUMPI PUSH2 0x876 PUSH2 0xDEB JUMP JUMPDEST PUSH1 0xF DUP2 GT ISZERO PUSH2 0x887 JUMPI PUSH2 0x887 PUSH2 0xDEB JUMP JUMPDEST DUP2 MSTORE PUSH1 0x20 ADD SWAP1 DUP2 MSTORE PUSH1 0x20 ADD PUSH0 KECCAK256 DUP1 SLOAD DUP1 PUSH1 0x20 MUL PUSH1 0x20 ADD PUSH1 0x40 MLOAD SWAP1 DUP2 ADD PUSH1 0x40 MSTORE DUP1 SWAP3 SWAP2 SWAP1 DUP2 DUP2 MSTORE PUSH1 0x20 ADD DUP3 DUP1 SLOAD DUP1 ISZERO PUSH2 0x8E6 JUMPI PUSH1 0x20 MUL DUP3 ADD SWAP2 SWAP1 PUSH0 MSTORE PUSH1 0x20 PUSH0 KECCAK256 SWAP1 JUMPDEST DUP2 SLOAD PUSH1 0x1 PUSH1 0x1 PUSH1 0xA0 SHL SUB AND DUP2 MSTORE PUSH1 0x1 SWAP1 SWAP2 ADD SWAP1 PUSH1 0x20 ADD DUP1 DUP4 GT PUSH2 0x8C8 JUMPI JUMPDEST POP POP POP POP POP SWAP1 POP SWAP2 SWAP1 POP JUMP JUMPDEST PUSH1 0x3 PUSH1 0x20 MSTORE DUP2 PUSH0 MSTORE PUSH1 0x40 PUSH0 KECCAK256 DUP2 DUP2 SLOAD DUP2 LT PUSH2 0x90B JUMPI PUSH0 DUP1 REVERT JUMPDEST PUSH0 SWAP2 DUP3 MSTORE PUSH1 0x20 SWAP1 SWAP2 KECCAK256 ADD SLOAD PUSH1 0x1 PUSH1 0x1 PUSH1 0xA0 SHL SUB AND SWAP2 POP DUP3 SWAP1 POP JUMP JUMPDEST PUSH2 0x92E PUSH2 0x963 JUMP JUMPDEST PUSH1 0x1 PUSH1 0x1 PUSH1 0xA0 SHL SUB DUP2 AND PUSH2 0x957 JUMPI PUSH1 0x40 MLOAD PUSH4 0x1E4FBDF7 PUSH1 0xE0 SHL DUP2 MSTORE PUSH0 PUSH1 0x4 DUP3 ADD MSTORE PUSH1 0x24 ADD PUSH2 0x369 JUMP JUMPDEST PUSH2 0x960 DUP2 PUSH2 0x98F JUMP JUMPDEST POP JUMP JUMPDEST PUSH0 SLOAD PUSH1 0x1 PUSH1 0x1 PUSH1 0xA0 SHL SUB AND CALLER EQ PUSH2 0x314 JUMPI PUSH1 0x40 MLOAD PUSH4 0x118CDAA7 PUSH1 0xE0 SHL DUP2 MSTORE CALLER PUSH1 0x4 DUP3 ADD MSTORE PUSH1 0x24 ADD PUSH2 0x369 JUMP JUMPDEST PUSH0 DUP1 SLOAD PUSH1 0x1 PUSH1 0x1 PUSH1 0xA0 SHL SUB DUP4 DUP2 AND PUSH1 0x1 PUSH1 0x1 PUSH1 0xA0 SHL SUB NOT DUP4 AND DUP2 OR DUP5 SSTORE PUSH1 0x40 MLOAD SWAP2 SWAP1 SWAP3 AND SWAP3 DUP4 SWAP2 PUSH32 0x8BE0079C531659141344CD1FD0A4F28419497F9722A3DAAFE3B4186F6B6457E0 SWAP2 SWAP1 LOG3 POP POP JUMP JUMPDEST PUSH0 PUSH0 PUSH1 0x3 PUSH0 DUP5 PUSH1 0xF DUP2 GT ISZERO PUSH2 0x9F5 JUMPI PUSH2 0x9F5 PUSH2 0xDEB JUMP JUMPDEST PUSH1 0xF DUP2 GT ISZERO PUSH2 0xA06 JUMPI PUSH2 0xA06 PUSH2 0xDEB JUMP JUMPDEST DUP2 MSTORE PUSH1 0x20 ADD SWAP1 DUP2 MSTORE PUSH1 0x20 ADD PUSH0 KECCAK256 SWAP1 POP PUSH0 DUP2 DUP1 SLOAD SWAP1 POP GT PUSH2 0x2C8 JUMPI PUSH1 0x40 MLOAD PUSH3 0x461BCD PUSH1 0xE5 SHL DUP2 MSTORE PUSH1 0x20 PUSH1 0x4 DUP3 ADD MSTORE PUSH1 0x2F PUSH1 0x24 DUP3 ADD MSTORE PUSH32 0x4E6F206461746120636F6E7472616374206465706C6F79656420666F72207468 PUSH1 0x44 DUP3 ADD MSTORE PUSH15 0x1A5CC81A5B9D195C9D985B081E595D PUSH1 0x8A SHL PUSH1 0x64 DUP3 ADD MSTORE PUSH1 0x84 ADD PUSH2 0x369 JUMP JUMPDEST PUSH0 PUSH1 0x4 PUSH0 DUP4 PUSH1 0xF DUP2 GT ISZERO PUSH2 0xA96 JUMPI PUSH2 0xA96 PUSH2 0xDEB JUMP JUMPDEST PUSH1 0xF DUP2 GT ISZERO PUSH2 0xAA7 JUMPI PUSH2 0xAA7 PUSH2 0xDEB JUMP JUMPDEST DUP2 MSTORE PUSH1 0x20 ADD SWAP1 DUP2 MSTORE PUSH1 0x20 ADD PUSH0 KECCAK256 SLOAD PUSH1 0x1 PUSH2 0xAC1 SWAP2 SWAP1 PUSH2 0x10D1 JUMP JUMPDEST PUSH1 0x2 SLOAD PUSH1 0x40 MLOAD SWAP2 SWAP3 POP PUSH1 0x64 SWAP2 PUSH0 SWAP2 PUSH1 0x1 SWAP2 DUP7 SWAP2 DUP6 SWAP2 ADDRESS SWAP2 PUSH1 0x1 PUSH1 0x1 PUSH1 0xA0 SHL SUB AND SWAP1 DUP9 SWAP1 PUSH2 0xAED SWAP1 PUSH2 0xBFD JUMP JUMPDEST PUSH2 0xAFC SWAP7 SWAP6 SWAP5 SWAP4 SWAP3 SWAP2 SWAP1 PUSH2 0x1104 JUMP JUMPDEST PUSH1 0x40 MLOAD DUP1 SWAP2 SUB SWAP1 PUSH0 CREATE DUP1 ISZERO DUP1 ISZERO PUSH2 0xB15 JUMPI RETURNDATASIZE PUSH0 PUSH0 RETURNDATACOPY RETURNDATASIZE PUSH0 REVERT JUMPDEST POP SWAP1 POP PUSH1 0x3 PUSH0 DUP6 PUSH1 0xF DUP2 GT ISZERO PUSH2 0xB2D JUMPI PUSH2 0xB2D PUSH2 0xDEB JUMP JUMPDEST PUSH1 0xF DUP2 GT ISZERO PUSH2 0xB3E JUMPI PUSH2 0xB3E PUSH2 0xDEB JUMP JUMPDEST DUP2 MSTORE PUSH1 0x20 DUP1 DUP3 ADD SWAP3 SWAP1 SWAP3 MSTORE PUSH1 0x40 ADD PUSH0 SWAP1 DUP2 KECCAK256 DUP1 SLOAD PUSH1 0x1 DUP2 ADD DUP3 SSTORE SWAP1 DUP3 MSTORE SWAP2 DUP2 KECCAK256 SWAP1 SWAP2 ADD DUP1 SLOAD PUSH1 0x1 PUSH1 0x1 PUSH1 0xA0 SHL SUB NOT AND PUSH1 0x1 PUSH1 0x1 PUSH1 0xA0 SHL SUB DUP5 AND OR SWAP1 SSTORE DUP4 SWAP1 PUSH1 0x4 SWAP1 DUP7 PUSH1 0xF DUP2 GT ISZERO PUSH2 0xB91 JUMPI PUSH2 0xB91 PUSH2 0xDEB JUMP JUMPDEST PUSH1 0xF DUP2 GT ISZERO PUSH2 0xBA2 JUMPI PUSH2 0xBA2 PUSH2 0xDEB JUMP JUMPDEST DUP2 MSTORE PUSH1 0x20 DUP2 ADD SWAP2 SWAP1 SWAP2 MSTORE PUSH1 0x40 ADD PUSH0 KECCAK256 SSTORE PUSH1 0x1 PUSH1 0x1 PUSH1 0xA0 SHL SUB DUP2 AND DUP4 DUP6 PUSH1 0xF DUP2 GT ISZERO PUSH2 0xBCF JUMPI PUSH2 0xBCF PUSH2 0xDEB JUMP JUMPDEST PUSH1 0x40 MLOAD PUSH32 0x54E0098488106B5B90920BA2520684F28234FED315BADB03E42DF0788BA50C36 SWAP1 PUSH0 SWAP1 LOG4 POP POP POP POP JUMP JUMPDEST PUSH2 0x18EB DUP1 PUSH2 0x11F1 DUP4 CODECOPY ADD SWAP1 JUMP JUMPDEST PUSH1 0x20 DUP2 MSTORE PUSH0 DUP3 MLOAD DUP1 PUSH1 0x20 DUP5 ADD MSTORE DUP1 PUSH1 0x20 DUP6 ADD PUSH1 0x40 DUP6 ADD MCOPY PUSH0 PUSH1 0x40 DUP3 DUP6 ADD ADD MSTORE PUSH1 0x40 PUSH1 0x1F NOT PUSH1 0x1F DUP4 ADD AND DUP5 ADD ADD SWAP2 POP POP SWAP3 SWAP2 POP POP JUMP JUMPDEST PUSH1 0x10 DUP2 LT PUSH2 0x960 JUMPI PUSH0 PUSH0 REVERT JUMPDEST PUSH0 PUSH1 0x20 DUP3 DUP5 SUB SLT ISZERO PUSH2 0xC5B JUMPI PUSH0 PUSH0 REVERT JUMPDEST DUP2 CALLDATALOAD PUSH2 0xC66 DUP2 PUSH2 0xC3F JUMP JUMPDEST SWAP4 SWAP3 POP POP POP JUMP JUMPDEST PUSH0 PUSH1 0x20 DUP3 DUP5 SUB SLT ISZERO PUSH2 0xC7D JUMPI PUSH0 PUSH0 REVERT JUMPDEST DUP2 CALLDATALOAD PUSH1 0x1 PUSH1 0x1 PUSH1 0xA0 SHL SUB DUP2 AND DUP2 EQ PUSH2 0xC66 JUMPI PUSH0 PUSH0 REVERT JUMPDEST PUSH8 0xFFFFFFFFFFFFFFFF DUP2 AND DUP2 EQ PUSH2 0x960 JUMPI PUSH0 PUSH0 REVERT JUMPDEST DUP1 ISZERO ISZERO DUP2 EQ PUSH2 0x960 JUMPI PUSH0 PUSH0 REVERT JUMPDEST PUSH0 PUSH0 PUSH0 PUSH0 PUSH0 PUSH0 PUSH0 PUSH0 PUSH0 PUSH2 0x120 DUP11 DUP13 SUB SLT ISZERO PUSH2 0xCCE JUMPI PUSH0 PUSH0 REVERT JUMPDEST DUP10 CALLDATALOAD PUSH2 0xCD9 DUP2 PUSH2 0xC3F JUMP JUMPDEST SWAP9 POP PUSH1 0x20 DUP11 ADD CALLDATALOAD PUSH2 0xCE9 DUP2 PUSH2 0xC93 JUMP JUMPDEST SWAP8 POP PUSH1 0x40 DUP11 ADD CALLDATALOAD PUSH2 0xCF9 DUP2 PUSH2 0xC93 JUMP JUMPDEST SWAP7 POP PUSH1 0x60 DUP11 ADD CALLDATALOAD SWAP6 POP PUSH1 0x80 DUP11 ADD CALLDATALOAD SWAP5 POP PUSH1 0xA0 DUP11 ADD CALLDATALOAD SWAP4 POP PUSH1 0xC0 DUP11 ADD CALLDATALOAD SWAP3 POP PUSH1 0xE0 DUP11 ADD CALLDATALOAD SWAP2 POP PUSH2 0x100 DUP11 ADD CALLDATALOAD PUSH2 0xD2D DUP2 PUSH2 0xCA8 JUMP JUMPDEST DUP1 SWAP2 POP POP SWAP3 SWAP6 SWAP9 POP SWAP3 SWAP6 SWAP9 POP SWAP3 SWAP6 SWAP9 JUMP JUMPDEST PUSH1 0x20 DUP1 DUP3 MSTORE DUP3 MLOAD DUP3 DUP3 ADD DUP2 SWAP1 MSTORE PUSH0 SWAP2 DUP5 ADD SWAP1 PUSH1 0x40 DUP5 ADD SWAP1 DUP4 JUMPDEST DUP2 DUP2 LT ISZERO PUSH2 0xD7E JUMPI DUP4 MLOAD PUSH1 0x1 PUSH1 0x1 PUSH1 0xA0 SHL SUB AND DUP4 MSTORE PUSH1 0x20 SWAP4 DUP5 ADD SWAP4 SWAP1 SWAP3 ADD SWAP2 PUSH1 0x1 ADD PUSH2 0xD57 JUMP JUMPDEST POP SWAP1 SWAP6 SWAP5 POP POP POP POP POP JUMP JUMPDEST PUSH0 PUSH0 PUSH1 0x40 DUP4 DUP6 SUB SLT ISZERO PUSH2 0xD9A JUMPI PUSH0 PUSH0 REVERT JUMPDEST DUP3 CALLDATALOAD PUSH2 0xDA5 DUP2 PUSH2 0xC3F JUMP JUMPDEST SWAP5 PUSH1 0x20 SWAP4 SWAP1 SWAP4 ADD CALLDATALOAD SWAP4 POP POP POP JUMP JUMPDEST PUSH1 0x1 DUP2 DUP2 SHR SWAP1 DUP3 AND DUP1 PUSH2 0xDC7 JUMPI PUSH1 0x7F DUP3 AND SWAP2 POP JUMPDEST PUSH1 0x20 DUP3 LT DUP2 SUB PUSH2 0xDE5 JUMPI PUSH4 0x4E487B71 PUSH1 0xE0 SHL PUSH0 MSTORE PUSH1 0x22 PUSH1 0x4 MSTORE PUSH1 0x24 PUSH0 REVERT JUMPDEST POP SWAP2 SWAP1 POP JUMP JUMPDEST PUSH4 0x4E487B71 PUSH1 0xE0 SHL PUSH0 MSTORE PUSH1 0x21 PUSH1 0x4 MSTORE PUSH1 0x24 PUSH0 REVERT JUMPDEST PUSH4 0x4E487B71 PUSH1 0xE0 SHL PUSH0 MSTORE PUSH1 0x11 PUSH1 0x4 MSTORE PUSH1 0x24 PUSH0 REVERT JUMPDEST DUP2 DUP2 SUB DUP2 DUP2 GT ISZERO PUSH2 0xE26 JUMPI PUSH2 0xE26 PUSH2 0xDFF JUMP JUMPDEST SWAP3 SWAP2 POP POP JUMP JUMPDEST PUSH4 0x4E487B71 PUSH1 0xE0 SHL PUSH0 MSTORE PUSH1 0x32 PUSH1 0x4 MSTORE PUSH1 0x24 PUSH0 REVERT JUMPDEST PUSH4 0x4E487B71 PUSH1 0xE0 SHL PUSH0 MSTORE PUSH1 0x41 PUSH1 0x4 MSTORE PUSH1 0x24 PUSH0 REVERT JUMPDEST PUSH1 0x40 MLOAD PUSH2 0x100 DUP2 ADD PUSH8 0xFFFFFFFFFFFFFFFF DUP2 GT DUP3 DUP3 LT OR ISZERO PUSH2 0xE78 JUMPI PUSH2 0xE78 PUSH2 0xE40 JUMP JUMPDEST PUSH1 0x40 MSTORE SWAP1 JUMP JUMPDEST PUSH1 0x40 MLOAD PUSH1 0x1F DUP3 ADD PUSH1 0x1F NOT AND DUP2 ADD PUSH8 0xFFFFFFFFFFFFFFFF DUP2 GT DUP3 DUP3 LT OR ISZERO PUSH2 0xEA7 JUMPI PUSH2 0xEA7 PUSH2 0xE40 JUMP JUMPDEST PUSH1 0x40 MSTORE SWAP2 SWAP1 POP JUMP JUMPDEST DUP1 MLOAD PUSH2 0xEBA DUP2 PUSH2 0xC3F JUMP JUMPDEST SWAP2 SWAP1 POP JUMP JUMPDEST PUSH0 PUSH0 PUSH0 PUSH0 PUSH0 PUSH1 0xA0 DUP7 DUP9 SUB SLT ISZERO PUSH2 0xED3 JUMPI PUSH0 PUSH0 REVERT JUMPDEST DUP6 MLOAD PUSH8 0xFFFFFFFFFFFFFFFF DUP2 GT ISZERO PUSH2 0xEE9 JUMPI PUSH0 PUSH0 REVERT JUMPDEST DUP7 ADD PUSH1 0x1F DUP2 ADD DUP9 SGT PUSH2 0xEF9 JUMPI PUSH0 PUSH0 REVERT JUMPDEST DUP1 MLOAD PUSH8 0xFFFFFFFFFFFFFFFF DUP2 GT ISZERO PUSH2 0xF13 JUMPI PUSH2 0xF13 PUSH2 0xE40 JUMP JUMPDEST PUSH2 0xF26 PUSH1 0x1F DUP3 ADD PUSH1 0x1F NOT AND PUSH1 0x20 ADD PUSH2 0xE7E JUMP JUMPDEST DUP2 DUP2 MSTORE DUP10 PUSH1 0x20 DUP4 DUP6 ADD ADD GT ISZERO PUSH2 0xF3A JUMPI PUSH0 PUSH0 REVERT JUMPDEST DUP2 PUSH1 0x20 DUP5 ADD PUSH1 0x20 DUP4 ADD MCOPY PUSH0 PUSH1 0x20 DUP4 DUP4 ADD ADD MSTORE DUP1 SWAP8 POP POP POP POP PUSH2 0xF5E PUSH1 0x20 DUP8 ADD PUSH2 0xEAF JUMP JUMPDEST PUSH1 0x40 DUP8 ADD MLOAD PUSH1 0x60 DUP9 ADD MLOAD PUSH1 0x80 SWAP1 SWAP9 ADD MLOAD SWAP7 SWAP10 SWAP2 SWAP9 POP SWAP7 SWAP6 SWAP5 POP SWAP3 POP POP POP JUMP JUMPDEST DUP1 MLOAD PUSH2 0xEBA DUP2 PUSH2 0xC93 JUMP JUMPDEST DUP1 MLOAD PUSH2 0xEBA DUP2 PUSH2 0xCA8 JUMP JUMPDEST PUSH0 PUSH1 0x20 DUP3 DUP5 SUB SLT ISZERO PUSH2 0xFA3 JUMPI PUSH0 PUSH0 REVERT JUMPDEST DUP2 MLOAD PUSH8 0xFFFFFFFFFFFFFFFF DUP2 GT ISZERO PUSH2 0xFB9 JUMPI PUSH0 PUSH0 REVERT JUMPDEST DUP3 ADD PUSH1 0x1F DUP2 ADD DUP5 SGT PUSH2 0xFC9 JUMPI PUSH0 PUSH0 REVERT JUMPDEST DUP1 MLOAD PUSH8 0xFFFFFFFFFFFFFFFF DUP2 GT ISZERO PUSH2 0xFE3 JUMPI PUSH2 0xFE3 PUSH2 0xE40 JUMP JUMPDEST PUSH2 0xFF2 PUSH1 0x20 DUP3 PUSH1 0x5 SHL ADD PUSH2 0xE7E JUMP JUMPDEST DUP1 DUP3 DUP3 MSTORE PUSH1 0x20 DUP3 ADD SWAP2 POP PUSH1 0x20 DUP4 PUSH1 0x8 SHL DUP6 ADD ADD SWAP3 POP DUP7 DUP4 GT ISZERO PUSH2 0x1013 JUMPI PUSH0 PUSH0 REVERT JUMPDEST PUSH1 0x20 DUP5 ADD SWAP4 POP JUMPDEST DUP3 DUP5 LT ISZERO PUSH2 0x10B0 JUMPI PUSH2 0x100 DUP5 DUP9 SUB SLT ISZERO PUSH2 0x1032 JUMPI PUSH0 PUSH0 REVERT JUMPDEST PUSH2 0x103A PUSH2 0xE54 JUMP JUMPDEST DUP5 MLOAD PUSH2 0x1045 DUP2 PUSH2 0xC93 JUMP JUMPDEST DUP2 MSTORE PUSH2 0x1053 PUSH1 0x20 DUP7 ADD PUSH2 0xF7D JUMP JUMPDEST PUSH1 0x20 DUP3 ADD MSTORE PUSH1 0x40 DUP6 DUP2 ADD MLOAD SWAP1 DUP3 ADD MSTORE PUSH1 0x60 DUP1 DUP7 ADD MLOAD SWAP1 DUP3 ADD MSTORE PUSH1 0x80 DUP1 DUP7 ADD MLOAD SWAP1 DUP3 ADD MSTORE PUSH1 0xA0 DUP1 DUP7 ADD MLOAD SWAP1 DUP3 ADD MSTORE PUSH1 0xC0 DUP1 DUP7 ADD MLOAD SWAP1 DUP3 ADD MSTORE PUSH2 0x1096 PUSH1 0xE0 DUP7 ADD PUSH2 0xF88 JUMP JUMPDEST PUSH1 0xE0 DUP3 ADD MSTORE DUP3 MSTORE PUSH2 0x100 SWAP4 SWAP1 SWAP4 ADD SWAP3 PUSH1 0x20 SWAP1 SWAP2 ADD SWAP1 PUSH2 0x101A JUMP JUMPDEST SWAP7 SWAP6 POP POP POP POP POP POP JUMP JUMPDEST PUSH0 PUSH1 0x20 DUP3 DUP5 SUB SLT ISZERO PUSH2 0x10CA JUMPI PUSH0 PUSH0 REVERT JUMPDEST POP MLOAD SWAP2 SWAP1 POP JUMP JUMPDEST DUP1 DUP3 ADD DUP1 DUP3 GT ISZERO PUSH2 0xE26 JUMPI PUSH2 0xE26 PUSH2 0xDFF JUMP JUMPDEST PUSH1 0x10 DUP2 LT PUSH2 0x1100 JUMPI PUSH4 0x4E487B71 PUSH1 0xE0 SHL PUSH0 MSTORE PUSH1 0x21 PUSH1 0x4 MSTORE PUSH1 0x24 PUSH0 REVERT JUMPDEST SWAP1 MSTORE JUMP JUMPDEST PUSH1 0xC0 DUP2 MSTORE PUSH0 PUSH0 DUP9 SLOAD PUSH0 DUP2 PUSH1 0x1 SHR SWAP1 POP PUSH1 0x1 DUP3 AND DUP1 PUSH2 0x1123 JUMPI PUSH1 0x7F DUP3 AND SWAP2 POP JUMPDEST PUSH1 0x20 DUP3 LT DUP2 SUB PUSH2 0x1141 JUMPI PUSH4 0x4E487B71 PUSH1 0xE0 SHL PUSH0 MSTORE PUSH1 0x22 PUSH1 0x4 MSTORE PUSH1 0x24 PUSH0 REVERT JUMPDEST PUSH1 0xC0 DUP7 ADD DUP3 SWAP1 MSTORE PUSH1 0xE0 DUP7 ADD DUP2 DUP1 ISZERO PUSH2 0x1160 JUMPI PUSH1 0x1 DUP2 EQ PUSH2 0x1176 JUMPI PUSH2 0x11A2 JUMP JUMPDEST PUSH1 0xFF NOT DUP6 AND DUP3 MSTORE DUP4 ISZERO ISZERO PUSH1 0x5 SHL DUP3 ADD SWAP6 POP PUSH2 0x11A2 JUMP JUMPDEST PUSH0 DUP15 DUP2 MSTORE PUSH1 0x20 SWAP1 KECCAK256 PUSH0 JUMPDEST DUP6 DUP2 LT ISZERO PUSH2 0x119C JUMPI DUP2 SLOAD DUP5 DUP3 ADD MSTORE PUSH1 0x1 SWAP1 SWAP2 ADD SWAP1 PUSH1 0x20 ADD PUSH2 0x1180 JUMP JUMPDEST DUP4 ADD SWAP7 POP POP JUMPDEST POP POP POP POP POP DUP1 SWAP2 POP POP PUSH2 0x11B8 PUSH1 0x20 DUP4 ADD DUP9 PUSH2 0x10E4 JUMP JUMPDEST DUP6 PUSH1 0x40 DUP4 ADD MSTORE PUSH2 0x11D3 PUSH1 0x60 DUP4 ADD DUP7 PUSH1 0x1 PUSH1 0x1 PUSH1 0xA0 SHL SUB AND SWAP1 MSTORE JUMP JUMPDEST PUSH1 0x1 PUSH1 0x1 PUSH1 0xA0 SHL SUB SWAP4 SWAP1 SWAP4 AND PUSH1 0x80 DUP3 ADD MSTORE PUSH1 0xA0 ADD MSTORE SWAP5 SWAP4 POP POP POP POP JUMP INVALID PUSH2 0x100 PUSH1 0x40 MSTORE CALLVALUE DUP1 ISZERO PUSH2 0x10 JUMPI PUSH0 PUSH0 REVERT JUMPDEST POP PUSH1 0x40 MLOAD PUSH2 0x18EB CODESIZE SUB DUP1 PUSH2 0x18EB DUP4 CODECOPY DUP2 ADD PUSH1 0x40 DUP2 SWAP1 MSTORE PUSH2 0x2F SWAP2 PUSH2 0xD5 JUMP JUMPDEST PUSH0 PUSH2 0x3A DUP8 DUP3 PUSH2 0x251 JUMP JUMPDEST POP DUP5 PUSH1 0xF DUP2 GT ISZERO PUSH2 0x4D JUMPI PUSH2 0x4D PUSH2 0x30B JUMP JUMPDEST PUSH1 0xA0 DUP2 PUSH1 0xF DUP2 GT ISZERO PUSH2 0x61 JUMPI PUSH2 0x61 PUSH2 0x30B JUMP JUMPDEST SWAP1 MSTORE POP PUSH1 0x80 SWAP4 SWAP1 SWAP4 MSTORE PUSH1 0x1 PUSH1 0x1 PUSH1 0xA0 SHL SUB SWAP2 DUP3 AND PUSH1 0xC0 MSTORE PUSH1 0x4 DUP1 SLOAD PUSH1 0x1 PUSH1 0x1 PUSH1 0xA0 SHL SUB NOT AND SWAP2 SWAP1 SWAP3 AND OR SWAP1 SSTORE PUSH1 0xE0 MSTORE POP PUSH2 0x31F SWAP1 POP JUMP JUMPDEST PUSH4 0x4E487B71 PUSH1 0xE0 SHL PUSH0 MSTORE PUSH1 0x41 PUSH1 0x4 MSTORE PUSH1 0x24 PUSH0 REVERT JUMPDEST DUP1 MLOAD PUSH1 0x10 DUP2 LT PUSH2 0xBA JUMPI PUSH0 PUSH0 REVERT JUMPDEST SWAP2 SWAP1 POP JUMP JUMPDEST DUP1 MLOAD PUSH1 0x1 PUSH1 0x1 PUSH1 0xA0 SHL SUB DUP2 AND DUP2 EQ PUSH2 0xBA JUMPI PUSH0 PUSH0 REVERT JUMPDEST PUSH0 PUSH0 PUSH0 PUSH0 PUSH0 PUSH0 PUSH1 0xC0 DUP8 DUP10 SUB SLT ISZERO PUSH2 0xEA JUMPI PUSH0 PUSH0 REVERT JUMPDEST DUP7 MLOAD PUSH1 0x1 PUSH1 0x1 PUSH1 0x40 SHL SUB DUP2 GT ISZERO PUSH2 0xFF JUMPI PUSH0 PUSH0 REVERT JUMPDEST DUP8 ADD PUSH1 0x1F DUP2 ADD DUP10 SGT PUSH2 0x10F JUMPI PUSH0 PUSH0 REVERT JUMPDEST DUP1 MLOAD PUSH1 0x1 PUSH1 0x1 PUSH1 0x40 SHL SUB DUP2 GT ISZERO PUSH2 0x128 JUMPI PUSH2 0x128 PUSH2 0x98 JUMP JUMPDEST PUSH1 0x40 MLOAD PUSH1 0x1F DUP3 ADD PUSH1 0x1F NOT SWAP1 DUP2 AND PUSH1 0x3F ADD AND DUP2 ADD PUSH1 0x1 PUSH1 0x1 PUSH1 0x40 SHL SUB DUP2 GT DUP3 DUP3 LT OR ISZERO PUSH2 0x156 JUMPI PUSH2 0x156 PUSH2 0x98 JUMP JUMPDEST PUSH1 0x40 MSTORE DUP2 DUP2 MSTORE DUP3 DUP3 ADD PUSH1 0x20 ADD DUP12 LT ISZERO PUSH2 0x16D JUMPI PUSH0 PUSH0 REVERT JUMPDEST DUP2 PUSH1 0x20 DUP5 ADD PUSH1 0x20 DUP4 ADD MCOPY PUSH0 PUSH1 0x20 DUP4 DUP4 ADD ADD MSTORE DUP1 SWAP9 POP POP POP POP PUSH2 0x191 PUSH1 0x20 DUP9 ADD PUSH2 0xAC JUMP JUMPDEST PUSH1 0x40 DUP9 ADD MLOAD SWAP1 SWAP6 POP SWAP4 POP PUSH2 0x1A7 PUSH1 0x60 DUP9 ADD PUSH2 0xBF JUMP JUMPDEST SWAP3 POP PUSH2 0x1B5 PUSH1 0x80 DUP9 ADD PUSH2 0xBF JUMP JUMPDEST SWAP2 POP PUSH0 PUSH1 0xA0 DUP9 ADD MLOAD SWAP1 POP DUP1 SWAP2 POP POP SWAP3 SWAP6 POP SWAP3 SWAP6 POP SWAP3 SWAP6 JUMP JUMPDEST PUSH1 0x1 DUP2 DUP2 SHR SWAP1 DUP3 AND DUP1 PUSH2 0x1E1 JUMPI PUSH1 0x7F DUP3 AND SWAP2 POP JUMPDEST PUSH1 0x20 DUP3 LT DUP2 SUB PUSH2 0x1FF JUMPI PUSH4 0x4E487B71 PUSH1 0xE0 SHL PUSH0 MSTORE PUSH1 0x22 PUSH1 0x4 MSTORE PUSH1 0x24 PUSH0 REVERT JUMPDEST POP SWAP2 SWAP1 POP JUMP JUMPDEST PUSH1 0x1F DUP3 GT ISZERO PUSH2 0x24C JUMPI DUP1 PUSH0 MSTORE PUSH1 0x20 PUSH0 KECCAK256 PUSH1 0x1F DUP5 ADD PUSH1 0x5 SHR DUP2 ADD PUSH1 0x20 DUP6 LT ISZERO PUSH2 0x22A JUMPI POP DUP1 JUMPDEST PUSH1 0x1F DUP5 ADD PUSH1 0x5 SHR DUP3 ADD SWAP2 POP JUMPDEST DUP2 DUP2 LT ISZERO PUSH2 0x249 JUMPI PUSH0 DUP2 SSTORE PUSH1 0x1 ADD PUSH2 0x236 JUMP JUMPDEST POP POP JUMPDEST POP POP POP JUMP JUMPDEST DUP2 MLOAD PUSH1 0x1 PUSH1 0x1 PUSH1 0x40 SHL SUB DUP2 GT ISZERO PUSH2 0x26A JUMPI PUSH2 0x26A PUSH2 0x98 JUMP JUMPDEST PUSH2 0x27E DUP2 PUSH2 0x278 DUP5 SLOAD PUSH2 0x1CD JUMP JUMPDEST DUP5 PUSH2 0x205 JUMP JUMPDEST PUSH1 0x20 PUSH1 0x1F DUP3 GT PUSH1 0x1 DUP2 EQ PUSH2 0x2B0 JUMPI PUSH0 DUP4 ISZERO PUSH2 0x299 JUMPI POP DUP5 DUP3 ADD MLOAD JUMPDEST PUSH0 NOT PUSH1 0x3 DUP6 SWAP1 SHL SHR NOT AND PUSH1 0x1 DUP5 SWAP1 SHL OR DUP5 SSTORE PUSH2 0x249 JUMP JUMPDEST PUSH0 DUP5 DUP2 MSTORE PUSH1 0x20 DUP2 KECCAK256 PUSH1 0x1F NOT DUP6 AND SWAP2 JUMPDEST DUP3 DUP2 LT ISZERO PUSH2 0x2DF JUMPI DUP8 DUP6 ADD MLOAD DUP3 SSTORE PUSH1 0x20 SWAP5 DUP6 ADD SWAP5 PUSH1 0x1 SWAP1 SWAP3 ADD SWAP2 ADD PUSH2 0x2BF JUMP JUMPDEST POP DUP5 DUP3 LT ISZERO PUSH2 0x2FC JUMPI DUP7 DUP5 ADD MLOAD PUSH0 NOT PUSH1 0x3 DUP8 SWAP1 SHL PUSH1 0xF8 AND SHR NOT AND DUP2 SSTORE JUMPDEST POP POP POP POP PUSH1 0x1 SWAP1 DUP2 SHL ADD SWAP1 SSTORE POP JUMP JUMPDEST PUSH4 0x4E487B71 PUSH1 0xE0 SHL PUSH0 MSTORE PUSH1 0x21 PUSH1 0x4 MSTORE PUSH1 0x24 PUSH0 REVERT JUMPDEST PUSH1 0x80 MLOAD PUSH1 0xA0 MLOAD PUSH1 0xC0 MLOAD PUSH1 0xE0 MLOAD PUSH2 0x1529 PUSH2 0x3C2 PUSH0 CODECOPY PUSH0 DUP2 DUP2 PUSH2 0x12C ADD MSTORE DUP2 DUP2 PUSH2 0xB50 ADD MSTORE PUSH2 0xC1A ADD MSTORE PUSH0 DUP2 DUP2 PUSH2 0x20E ADD MSTORE DUP2 DUP2 PUSH2 0x623 ADD MSTORE PUSH2 0xDDB ADD MSTORE PUSH0 DUP2 DUP2 PUSH2 0x260 ADD MSTORE DUP2 DUP2 PUSH2 0xB71 ADD MSTORE PUSH2 0xBF9 ADD MSTORE PUSH0 DUP2 DUP2 PUSH2 0x29D ADD MSTORE DUP2 DUP2 PUSH2 0x36E ADD MSTORE DUP2 DUP2 PUSH2 0x48C ADD MSTORE DUP2 DUP2 PUSH2 0x4B4 ADD MSTORE DUP2 DUP2 PUSH2 0x4D6 ADD MSTORE DUP2 DUP2 PUSH2 0x527 ADD MSTORE DUP2 DUP2 PUSH2 0x709 ADD MSTORE DUP2 DUP2 PUSH2 0x74B ADD MSTORE DUP2 DUP2 PUSH2 0x8AC ADD MSTORE DUP2 DUP2 PUSH2 0xB00 ADD MSTORE PUSH2 0xC3E ADD MSTORE PUSH2 0x1529 PUSH0 RETURN INVALID PUSH1 0x80 PUSH1 0x40 MSTORE CALLVALUE DUP1 ISZERO PUSH2 0xF JUMPI PUSH0 PUSH0 REVERT JUMPDEST POP PUSH1 0x4 CALLDATASIZE LT PUSH2 0xE5 JUMPI PUSH0 CALLDATALOAD PUSH1 0xE0 SHR DUP1 PUSH4 0x7ADBF973 GT PUSH2 0x88 JUMPI DUP1 PUSH4 0xA89AE4BA GT PUSH2 0x63 JUMPI DUP1 PUSH4 0xA89AE4BA EQ PUSH2 0x248 JUMPI DUP1 PUSH4 0xAFB13053 EQ PUSH2 0x25B JUMPI DUP1 PUSH4 0xB121608C EQ PUSH2 0x28F JUMPI DUP1 PUSH4 0xB1AF9F4C EQ PUSH2 0x298 JUMPI PUSH0 PUSH0 REVERT JUMPDEST DUP1 PUSH4 0x7ADBF973 EQ PUSH2 0x1E1 JUMPI DUP1 PUSH4 0x95D89B41 EQ PUSH2 0x1F4 JUMPI DUP1 PUSH4 0x966DAE0E EQ PUSH2 0x209 JUMPI PUSH0 PUSH0 REVERT JUMPDEST DUP1 PUSH4 0x5A9B0B89 GT PUSH2 0xC3 JUMPI DUP1 PUSH4 0x5A9B0B89 EQ PUSH2 0x15C JUMPI DUP1 PUSH4 0x6297F23C EQ PUSH2 0x175 JUMPI DUP1 PUSH4 0x6CFCDCA7 EQ PUSH2 0x17E JUMPI DUP1 PUSH4 0x718715D9 EQ PUSH2 0x1D9 JUMPI PUSH0 PUSH0 REVERT JUMPDEST DUP1 PUSH4 0x1A3CA7AA EQ PUSH2 0xE9 JUMPI DUP1 PUSH4 0x3A499A53 EQ PUSH2 0x112 JUMPI DUP1 PUSH4 0x54FD4D50 EQ PUSH2 0x127 JUMPI JUMPDEST PUSH0 PUSH0 REVERT JUMPDEST PUSH2 0xFC PUSH2 0xF7 CALLDATASIZE PUSH1 0x4 PUSH2 0xFC3 JUMP JUMPDEST PUSH2 0x2BF JUMP JUMPDEST PUSH1 0x40 MLOAD PUSH2 0x109 SWAP2 SWAP1 PUSH2 0xFDA JUMP JUMPDEST PUSH1 0x40 MLOAD DUP1 SWAP2 SUB SWAP1 RETURN JUMPDEST PUSH2 0x125 PUSH2 0x120 CALLDATASIZE PUSH1 0x4 PUSH2 0x10A3 JUMP JUMPDEST PUSH2 0x618 JUMP JUMPDEST STOP JUMPDEST PUSH2 0x14E PUSH32 0x0 DUP2 JUMP JUMPDEST PUSH1 0x40 MLOAD SWAP1 DUP2 MSTORE PUSH1 0x20 ADD PUSH2 0x109 JUMP JUMPDEST PUSH2 0x164 PUSH2 0xBF0 JUMP JUMPDEST PUSH1 0x40 MLOAD PUSH2 0x109 SWAP6 SWAP5 SWAP4 SWAP3 SWAP2 SWAP1 PUSH2 0x117C JUMP JUMPDEST PUSH2 0x14E PUSH1 0x3 SLOAD DUP2 JUMP JUMPDEST PUSH2 0x191 PUSH2 0x18C CALLDATASIZE PUSH1 0x4 PUSH2 0xFC3 JUMP JUMPDEST PUSH2 0xCF8 JUMP JUMPDEST PUSH1 0x40 DUP1 MLOAD PUSH1 0x1 PUSH1 0x1 PUSH1 0x40 SHL SUB SWAP10 DUP11 AND DUP2 MSTORE SWAP9 SWAP1 SWAP8 AND PUSH1 0x20 DUP10 ADD MSTORE SWAP6 DUP8 ADD SWAP5 SWAP1 SWAP5 MSTORE PUSH1 0x60 DUP7 ADD SWAP3 SWAP1 SWAP3 MSTORE PUSH1 0x80 DUP6 ADD MSTORE PUSH1 0xA0 DUP5 ADD MSTORE PUSH1 0xC0 DUP4 ADD MSTORE ISZERO ISZERO PUSH1 0xE0 DUP3 ADD MSTORE PUSH2 0x100 ADD PUSH2 0x109 JUMP JUMPDEST PUSH2 0xFC PUSH2 0xD5F JUMP JUMPDEST PUSH2 0x125 PUSH2 0x1EF CALLDATASIZE PUSH1 0x4 PUSH2 0x11B9 JUMP JUMPDEST PUSH2 0xDD0 JUMP JUMPDEST PUSH2 0x1FC PUSH2 0xEE7 JUMP JUMPDEST PUSH1 0x40 MLOAD PUSH2 0x109 SWAP2 SWAP1 PUSH2 0x11DF JUMP JUMPDEST PUSH2 0x230 PUSH32 0x0 DUP2 JUMP JUMPDEST PUSH1 0x40 MLOAD PUSH1 0x1 PUSH1 0x1 PUSH1 0xA0 SHL SUB SWAP1 SWAP2 AND DUP2 MSTORE PUSH1 0x20 ADD PUSH2 0x109 JUMP JUMPDEST PUSH1 0x4 SLOAD PUSH2 0x230 SWAP1 PUSH1 0x1 PUSH1 0x1 PUSH1 0xA0 SHL SUB AND DUP2 JUMP JUMPDEST PUSH2 0x282 PUSH32 0x0 DUP2 JUMP JUMPDEST PUSH1 0x40 MLOAD PUSH2 0x109 SWAP2 SWAP1 PUSH2 0x11F1 JUMP JUMPDEST PUSH2 0x14E PUSH1 0x2 SLOAD DUP2 JUMP JUMPDEST PUSH2 0x14E PUSH32 0x0 DUP2 JUMP JUMPDEST PUSH1 0x60 PUSH1 0x3 SLOAD PUSH0 SUB PUSH2 0x301 JUMPI PUSH1 0x40 DUP1 MLOAD PUSH0 DUP1 DUP3 MSTORE PUSH1 0x20 DUP3 ADD SWAP1 SWAP3 MSTORE SWAP1 PUSH2 0x2FA JUMP JUMPDEST PUSH2 0x2E7 PUSH2 0xF72 JUMP JUMPDEST DUP2 MSTORE PUSH1 0x20 ADD SWAP1 PUSH1 0x1 SWAP1 SUB SWAP1 DUP2 PUSH2 0x2DF JUMPI SWAP1 POP JUMPDEST POP SWAP3 SWAP2 POP POP JUMP JUMPDEST PUSH0 PUSH1 0x3 SLOAD DUP4 GT PUSH2 0x311 JUMPI DUP3 PUSH2 0x315 JUMP JUMPDEST PUSH1 0x3 SLOAD JUMPDEST SWAP1 POP PUSH0 DUP2 PUSH1 0x1 PUSH1 0x1 PUSH1 0x40 SHL SUB DUP2 GT ISZERO PUSH2 0x330 JUMPI PUSH2 0x330 PUSH2 0x1205 JUMP JUMPDEST PUSH1 0x40 MLOAD SWAP1 DUP1 DUP3 MSTORE DUP1 PUSH1 0x20 MUL PUSH1 0x20 ADD DUP3 ADD PUSH1 0x40 MSTORE DUP1 ISZERO PUSH2 0x369 JUMPI DUP2 PUSH1 0x20 ADD JUMPDEST PUSH2 0x356 PUSH2 0xF72 JUMP JUMPDEST DUP2 MSTORE PUSH1 0x20 ADD SWAP1 PUSH1 0x1 SWAP1 SUB SWAP1 DUP2 PUSH2 0x34E JUMPI SWAP1 POP JUMPDEST POP SWAP1 POP PUSH32 0x0 PUSH1 0x3 SLOAD LT ISZERO PUSH2 0x487 JUMPI PUSH0 DUP3 PUSH1 0x3 SLOAD GT PUSH2 0x3A6 JUMPI PUSH0 PUSH2 0x3B4 JUMP JUMPDEST DUP3 PUSH1 0x3 SLOAD PUSH2 0x3B4 SWAP2 SWAP1 PUSH2 0x122D JUMP JUMPDEST SWAP1 POP PUSH0 JUMPDEST DUP4 DUP2 LT ISZERO PUSH2 0x480 JUMPI PUSH1 0x1 PUSH2 0x3CC DUP3 DUP5 PUSH2 0x1240 JUMP JUMPDEST DUP2 SLOAD DUP2 LT PUSH2 0x3DC JUMPI PUSH2 0x3DC PUSH2 0x1253 JUMP JUMPDEST PUSH0 SWAP2 DUP3 MSTORE PUSH1 0x20 SWAP2 DUP3 SWAP1 KECCAK256 PUSH1 0x40 DUP1 MLOAD PUSH2 0x100 DUP2 ADD DUP3 MSTORE PUSH1 0x7 SWAP1 SWAP4 MUL SWAP1 SWAP2 ADD DUP1 SLOAD PUSH1 0x1 PUSH1 0x1 PUSH1 0x40 SHL SUB DUP1 DUP3 AND DUP6 MSTORE PUSH1 0x1 PUSH1 0x40 SHL SWAP1 SWAP2 DIV AND SWAP4 DUP4 ADD SWAP4 SWAP1 SWAP4 MSTORE PUSH1 0x1 DUP4 ADD SLOAD SWAP1 DUP3 ADD MSTORE PUSH1 0x2 DUP3 ADD SLOAD PUSH1 0x60 DUP3 ADD MSTORE PUSH1 0x3 DUP3 ADD SLOAD PUSH1 0x80 DUP3 ADD MSTORE PUSH1 0x4 DUP3 ADD SLOAD PUSH1 0xA0 DUP3 ADD MSTORE PUSH1 0x5 DUP3 ADD SLOAD PUSH1 0xC0 DUP3 ADD MSTORE PUSH1 0x6 SWAP1 SWAP2 ADD SLOAD PUSH1 0xFF AND ISZERO ISZERO PUSH1 0xE0 DUP3 ADD MSTORE DUP4 MLOAD DUP5 SWAP1 DUP4 SWAP1 DUP2 LT PUSH2 0x46D JUMPI PUSH2 0x46D PUSH2 0x1253 JUMP JUMPDEST PUSH1 0x20 SWAP1 DUP2 MUL SWAP2 SWAP1 SWAP2 ADD ADD MSTORE PUSH1 0x1 ADD PUSH2 0x3B8 JUMP JUMPDEST POP POP PUSH2 0x611 JUMP JUMPDEST PUSH1 0x2 SLOAD PUSH32 0x0 DUP4 LT ISZERO PUSH2 0x519 JUMPI PUSH32 0x0 DUP4 PUSH32 0x0 PUSH1 0x2 SLOAD PUSH2 0x502 SWAP2 SWAP1 PUSH2 0x1240 JUMP JUMPDEST PUSH2 0x50C SWAP2 SWAP1 PUSH2 0x122D JUMP JUMPDEST PUSH2 0x516 SWAP2 SWAP1 PUSH2 0x1267 JUMP JUMPDEST SWAP1 POP JUMPDEST PUSH0 JUMPDEST DUP4 DUP2 LT ISZERO PUSH2 0x60E JUMPI PUSH1 0x1 PUSH32 0x0 PUSH2 0x550 DUP4 DUP6 PUSH2 0x1240 JUMP JUMPDEST PUSH2 0x55A SWAP2 SWAP1 PUSH2 0x1267 JUMP JUMPDEST DUP2 SLOAD DUP2 LT PUSH2 0x56A JUMPI PUSH2 0x56A PUSH2 0x1253 JUMP JUMPDEST PUSH0 SWAP2 DUP3 MSTORE PUSH1 0x20 SWAP2 DUP3 SWAP1 KECCAK256 PUSH1 0x40 DUP1 MLOAD PUSH2 0x100 DUP2 ADD DUP3 MSTORE PUSH1 0x7 SWAP1 SWAP4 MUL SWAP1 SWAP2 ADD DUP1 SLOAD PUSH1 0x1 PUSH1 0x1 PUSH1 0x40 SHL SUB DUP1 DUP3 AND DUP6 MSTORE PUSH1 0x1 PUSH1 0x40 SHL SWAP1 SWAP2 DIV AND SWAP4 DUP4 ADD SWAP4 SWAP1 SWAP4 MSTORE PUSH1 0x1 DUP4 ADD SLOAD SWAP1 DUP3 ADD MSTORE PUSH1 0x2 DUP3 ADD SLOAD PUSH1 0x60 DUP3 ADD MSTORE PUSH1 0x3 DUP3 ADD SLOAD PUSH1 0x80 DUP3 ADD MSTORE PUSH1 0x4 DUP3 ADD SLOAD PUSH1 0xA0 DUP3 ADD MSTORE PUSH1 0x5 DUP3 ADD SLOAD PUSH1 0xC0 DUP3 ADD MSTORE PUSH1 0x6 SWAP1 SWAP2 ADD SLOAD PUSH1 0xFF AND ISZERO ISZERO PUSH1 0xE0 DUP3 ADD MSTORE DUP4 MLOAD DUP5 SWAP1 DUP4 SWAP1 DUP2 LT PUSH2 0x5FB JUMPI PUSH2 0x5FB PUSH2 0x1253 JUMP JUMPDEST PUSH1 0x20 SWAP1 DUP2 MUL SWAP2 SWAP1 SWAP2 ADD ADD MSTORE PUSH1 0x1 ADD PUSH2 0x51B JUMP JUMPDEST POP POP JUMPDEST SWAP4 SWAP3 POP POP POP JUMP JUMPDEST CALLER PUSH1 0x1 PUSH1 0x1 PUSH1 0xA0 SHL SUB PUSH32 0x0 AND EQ DUP1 PUSH2 0x659 JUMPI POP PUSH1 0x4 SLOAD PUSH1 0x1 PUSH1 0x1 PUSH1 0xA0 SHL SUB AND CALLER EQ JUMPDEST PUSH2 0x6AA JUMPI PUSH1 0x40 MLOAD PUSH3 0x461BCD PUSH1 0xE5 SHL DUP2 MSTORE PUSH1 0x20 PUSH1 0x4 DUP3 ADD MSTORE PUSH1 0x1A PUSH1 0x24 DUP3 ADD MSTORE PUSH32 0x4B49443A204E6F7420666163746F7279206F72206F7261636C65000000000000 PUSH1 0x44 DUP3 ADD MSTORE PUSH1 0x64 ADD JUMPDEST PUSH1 0x40 MLOAD DUP1 SWAP2 SUB SWAP1 REVERT JUMPDEST PUSH1 0x40 DUP1 MLOAD PUSH2 0x100 DUP2 ADD DUP3 MSTORE PUSH1 0x1 PUSH1 0x1 PUSH1 0x40 SHL SUB DUP1 DUP12 AND DUP3 MSTORE DUP10 AND PUSH1 0x20 DUP3 ADD MSTORE SWAP1 DUP2 ADD DUP8 SWAP1 MSTORE PUSH1 0x60 DUP2 ADD DUP7 SWAP1 MSTORE PUSH1 0x80 DUP2 ADD DUP6 SWAP1 MSTORE PUSH1 0xA0 DUP2 ADD DUP5 SWAP1 MSTORE PUSH1 0xC0 DUP2 ADD DUP4 SWAP1 MSTORE DUP2 ISZERO ISZERO PUSH1 0xE0 DUP3 ADD MSTORE PUSH1 0x3 SLOAD PUSH0 SWAP1 ISZERO PUSH2 0x8A2 JUMPI PUSH0 PUSH1 0x2 SLOAD PUSH0 SUB PUSH2 0x776 JUMPI PUSH32 0x0 PUSH1 0x3 SLOAD EQ PUSH2 0x744 JUMPI PUSH1 0x1 PUSH1 0x3 SLOAD PUSH2 0x73F SWAP2 SWAP1 PUSH2 0x122D JUMP JUMPDEST PUSH2 0x76F JUMP JUMPDEST PUSH2 0x76F PUSH1 0x1 PUSH32 0x0 PUSH2 0x122D JUMP JUMPDEST SWAP1 POP PUSH2 0x788 JUMP JUMPDEST PUSH1 0x1 PUSH1 0x2 SLOAD PUSH2 0x785 SWAP2 SWAP1 PUSH2 0x122D JUMP JUMPDEST SWAP1 POP JUMPDEST DUP11 PUSH1 0x1 PUSH1 0x1 PUSH1 0x40 SHL SUB AND PUSH1 0x1 DUP3 DUP2 SLOAD DUP2 LT PUSH2 0x7A5 JUMPI PUSH2 0x7A5 PUSH2 0x1253 JUMP JUMPDEST PUSH0 SWAP2 DUP3 MSTORE PUSH1 0x20 SWAP1 SWAP2 KECCAK256 PUSH1 0x7 SWAP1 SWAP2 MUL ADD SLOAD PUSH1 0x1 PUSH1 0x1 PUSH1 0x40 SHL SUB AND EQ DUP1 ISZERO PUSH2 0x7F1 JUMPI POP PUSH1 0x1 DUP2 DUP2 SLOAD DUP2 LT PUSH2 0x7D9 JUMPI PUSH2 0x7D9 PUSH2 0x1253 JUMP JUMPDEST PUSH0 SWAP2 DUP3 MSTORE PUSH1 0x20 SWAP1 SWAP2 KECCAK256 PUSH1 0x6 PUSH1 0x7 SWAP1 SWAP3 MUL ADD ADD SLOAD PUSH1 0xFF AND ISZERO JUMPDEST ISZERO PUSH2 0x8A0 JUMPI DUP3 PUSH1 0x1 DUP3 DUP2 SLOAD DUP2 LT PUSH2 0x80A JUMPI PUSH2 0x80A PUSH2 0x1253 JUMP JUMPDEST PUSH0 SWAP2 DUP3 MSTORE PUSH1 0x20 SWAP2 DUP3 SWAP1 KECCAK256 DUP4 MLOAD PUSH1 0x7 SWAP1 SWAP3 MUL ADD DUP1 SLOAD SWAP3 DUP5 ADD MLOAD PUSH1 0x1 PUSH1 0x1 PUSH1 0x40 SHL SUB SWAP1 DUP2 AND PUSH1 0x1 PUSH1 0x40 SHL MUL PUSH1 0x1 PUSH1 0x1 PUSH1 0x80 SHL SUB NOT SWAP1 SWAP5 AND SWAP3 AND SWAP2 SWAP1 SWAP2 OR SWAP2 SWAP1 SWAP2 OR DUP2 SSTORE PUSH1 0x40 DUP3 ADD MLOAD PUSH1 0x1 DUP1 DUP4 ADD SWAP2 SWAP1 SWAP2 SSTORE PUSH1 0x60 DUP4 ADD MLOAD PUSH1 0x2 DUP4 ADD SSTORE PUSH1 0x80 DUP4 ADD MLOAD PUSH1 0x3 DUP4 ADD SSTORE PUSH1 0xA0 DUP4 ADD MLOAD PUSH1 0x4 DUP4 ADD SSTORE PUSH1 0xC0 DUP4 ADD MLOAD PUSH1 0x5 DUP4 ADD SSTORE PUSH1 0xE0 SWAP1 SWAP3 ADD MLOAD PUSH1 0x6 SWAP1 SWAP2 ADD DUP1 SLOAD SWAP2 ISZERO ISZERO PUSH1 0xFF NOT SWAP1 SWAP3 AND SWAP2 SWAP1 SWAP2 OR SWAP1 SSTORE SWAP2 POP JUMPDEST POP JUMPDEST DUP1 PUSH2 0xB38 JUMPI PUSH1 0x1 SLOAD PUSH32 0x0 GT ISZERO PUSH2 0xA4E JUMPI PUSH1 0x1 DUP1 SLOAD DUP1 DUP3 ADD DUP3 SSTORE PUSH0 DUP3 SWAP1 MSTORE DUP4 MLOAD PUSH1 0x7 SWAP1 SWAP2 MUL PUSH32 0xB10E2D527612073B26EECDFD717E6A320CF44B4AFAC2B0732D9FCBE2B7FA0CF6 DUP2 ADD DUP1 SLOAD PUSH1 0x20 DUP8 ADD MLOAD PUSH1 0x1 PUSH1 0x1 PUSH1 0x40 SHL SUB SWAP1 DUP2 AND PUSH1 0x1 PUSH1 0x40 SHL MUL PUSH1 0x1 PUSH1 0x1 PUSH1 0x80 SHL SUB NOT SWAP1 SWAP3 AND SWAP5 AND SWAP4 SWAP1 SWAP4 OR SWAP3 SWAP1 SWAP3 OR SWAP1 SWAP2 SSTORE PUSH1 0x40 DUP5 ADD MLOAD PUSH32 0xB10E2D527612073B26EECDFD717E6A320CF44B4AFAC2B0732D9FCBE2B7FA0CF7 DUP3 ADD SSTORE PUSH1 0x60 DUP5 ADD MLOAD PUSH32 0xB10E2D527612073B26EECDFD717E6A320CF44B4AFAC2B0732D9FCBE2B7FA0CF8 DUP3 ADD SSTORE PUSH1 0x80 DUP5 ADD MLOAD PUSH32 0xB10E2D527612073B26EECDFD717E6A320CF44B4AFAC2B0732D9FCBE2B7FA0CF9 DUP3 ADD SSTORE PUSH1 0xA0 DUP5 ADD MLOAD PUSH32 0xB10E2D527612073B26EECDFD717E6A320CF44B4AFAC2B0732D9FCBE2B7FA0CFA DUP3 ADD SSTORE PUSH1 0xC0 DUP5 ADD MLOAD PUSH32 0xB10E2D527612073B26EECDFD717E6A320CF44B4AFAC2B0732D9FCBE2B7FA0CFB DUP3 ADD SSTORE PUSH1 0xE0 DUP5 ADD MLOAD PUSH32 0xB10E2D527612073B26EECDFD717E6A320CF44B4AFAC2B0732D9FCBE2B7FA0CFC SWAP1 SWAP2 ADD DUP1 SLOAD SWAP2 ISZERO ISZERO PUSH1 0xFF NOT SWAP1 SWAP3 AND SWAP2 SWAP1 SWAP2 OR SWAP1 SSTORE SLOAD PUSH1 0x2 DUP2 SWAP1 SSTORE PUSH1 0x3 SSTORE PUSH2 0xB38 JUMP JUMPDEST DUP2 PUSH1 0x1 PUSH1 0x2 SLOAD DUP2 SLOAD DUP2 LT PUSH2 0xA64 JUMPI PUSH2 0xA64 PUSH2 0x1253 JUMP JUMPDEST PUSH0 SWAP2 DUP3 MSTORE PUSH1 0x20 SWAP2 DUP3 SWAP1 KECCAK256 DUP4 MLOAD PUSH1 0x7 SWAP1 SWAP3 MUL ADD DUP1 SLOAD SWAP3 DUP5 ADD MLOAD PUSH1 0x1 PUSH1 0x1 PUSH1 0x40 SHL SUB SWAP1 DUP2 AND PUSH1 0x1 PUSH1 0x40 SHL MUL PUSH1 0x1 PUSH1 0x1 PUSH1 0x80 SHL SUB NOT SWAP1 SWAP5 AND SWAP3 AND SWAP2 SWAP1 SWAP2 OR SWAP2 SWAP1 SWAP2 OR DUP2 SSTORE PUSH1 0x40 DUP3 ADD MLOAD PUSH1 0x1 DUP1 DUP4 ADD SWAP2 SWAP1 SWAP2 SSTORE PUSH1 0x60 DUP4 ADD MLOAD PUSH1 0x2 DUP1 DUP5 ADD SWAP2 SWAP1 SWAP2 SSTORE PUSH1 0x80 DUP5 ADD MLOAD PUSH1 0x3 DUP5 ADD SSTORE PUSH1 0xA0 DUP5 ADD MLOAD PUSH1 0x4 DUP5 ADD SSTORE PUSH1 0xC0 DUP5 ADD MLOAD PUSH1 0x5 DUP5 ADD SSTORE PUSH1 0xE0 SWAP1 SWAP4 ADD MLOAD PUSH1 0x6 SWAP1 SWAP3 ADD DUP1 SLOAD SWAP3 ISZERO ISZERO PUSH1 0xFF NOT SWAP1 SWAP4 AND SWAP3 SWAP1 SWAP3 OR SWAP1 SWAP2 SSTORE SWAP1 SLOAD PUSH32 0x0 SWAP2 PUSH2 0xB2A SWAP2 SWAP1 PUSH2 0x1240 JUMP JUMPDEST PUSH2 0xB34 SWAP2 SWAP1 PUSH2 0x1267 JUMP JUMPDEST PUSH1 0x2 SSTORE JUMPDEST PUSH0 PUSH1 0x40 MLOAD PUSH2 0xB46 SWAP2 SWAP1 PUSH2 0x12BE JUMP JUMPDEST PUSH1 0x40 MLOAD DUP1 SWAP2 SUB SWAP1 KECCAK256 PUSH32 0x0 PUSH32 0x0 PUSH1 0xF DUP2 GT ISZERO PUSH2 0xBA1 JUMPI PUSH2 0xBA1 PUSH2 0x1148 JUMP JUMPDEST PUSH1 0x40 DUP1 MLOAD PUSH1 0x1 PUSH1 0x1 PUSH1 0x40 SHL SUB DUP16 AND DUP2 MSTORE DUP6 ISZERO ISZERO PUSH1 0x20 DUP3 ADD MSTORE PUSH32 0x2938227EA55378AE62398D4F99AF288FBAB3774DAB97FA96A060EA989CBC8001 SWAP2 ADD PUSH1 0x40 MLOAD DUP1 SWAP2 SUB SWAP1 LOG4 POP POP POP POP POP POP POP POP POP POP JUMP JUMPDEST PUSH1 0x60 PUSH0 PUSH0 PUSH0 PUSH0 PUSH0 PUSH32 0x0 PUSH32 0x0 PUSH1 0x3 SLOAD PUSH32 0x0 DUP5 DUP1 SLOAD PUSH2 0xC69 SWAP1 PUSH2 0x1286 JUMP JUMPDEST DUP1 PUSH1 0x1F ADD PUSH1 0x20 DUP1 SWAP2 DIV MUL PUSH1 0x20 ADD PUSH1 0x40 MLOAD SWAP1 DUP2 ADD PUSH1 0x40 MSTORE DUP1 SWAP3 SWAP2 SWAP1 DUP2 DUP2 MSTORE PUSH1 0x20 ADD DUP3 DUP1 SLOAD PUSH2 0xC95 SWAP1 PUSH2 0x1286 JUMP JUMPDEST DUP1 ISZERO PUSH2 0xCE0 JUMPI DUP1 PUSH1 0x1F LT PUSH2 0xCB7 JUMPI PUSH2 0x100 DUP1 DUP4 SLOAD DIV MUL DUP4 MSTORE SWAP2 PUSH1 0x20 ADD SWAP2 PUSH2 0xCE0 JUMP JUMPDEST DUP3 ADD SWAP2 SWAP1 PUSH0 MSTORE PUSH1 0x20 PUSH0 KECCAK256 SWAP1 JUMPDEST DUP2 SLOAD DUP2 MSTORE SWAP1 PUSH1 0x1 ADD SWAP1 PUSH1 0x20 ADD DUP1 DUP4 GT PUSH2 0xCC3 JUMPI DUP3 SWAP1 SUB PUSH1 0x1F AND DUP3 ADD SWAP2 JUMPDEST POP POP POP POP POP SWAP5 POP SWAP5 POP SWAP5 POP SWAP5 POP SWAP5 POP SWAP5 POP SWAP1 SWAP2 SWAP3 SWAP4 SWAP5 JUMP JUMPDEST PUSH1 0x1 DUP2 DUP2 SLOAD DUP2 LT PUSH2 0xD07 JUMPI PUSH0 DUP1 REVERT JUMPDEST PUSH0 SWAP2 DUP3 MSTORE PUSH1 0x20 SWAP1 SWAP2 KECCAK256 PUSH1 0x7 SWAP1 SWAP2 MUL ADD DUP1 SLOAD PUSH1 0x1 DUP3 ADD SLOAD PUSH1 0x2 DUP4 ADD SLOAD PUSH1 0x3 DUP5 ADD SLOAD PUSH1 0x4 DUP6 ADD SLOAD PUSH1 0x5 DUP7 ADD SLOAD PUSH1 0x6 SWAP1 SWAP7 ADD SLOAD PUSH1 0x1 PUSH1 0x1 PUSH1 0x40 SHL SUB DUP1 DUP8 AND SWAP9 POP PUSH1 0x1 PUSH1 0x40 SHL SWAP1 SWAP7 DIV SWAP1 SWAP6 AND SWAP6 SWAP4 SWAP5 SWAP3 SWAP4 SWAP2 SWAP3 SWAP1 SWAP2 SWAP1 PUSH1 0xFF AND DUP9 JUMP JUMPDEST PUSH1 0x3 SLOAD PUSH1 0x40 MLOAD PUSH4 0xD1E53D5 PUSH1 0xE1 SHL DUP2 MSTORE PUSH1 0x60 SWAP2 ADDRESS SWAP2 PUSH4 0x1A3CA7AA SWAP2 PUSH2 0xD8A SWAP2 PUSH1 0x4 ADD SWAP1 DUP2 MSTORE PUSH1 0x20 ADD SWAP1 JUMP JUMPDEST PUSH0 PUSH1 0x40 MLOAD DUP1 DUP4 SUB DUP2 DUP7 GAS STATICCALL ISZERO DUP1 ISZERO PUSH2 0xDA4 JUMPI RETURNDATASIZE PUSH0 PUSH0 RETURNDATACOPY RETURNDATASIZE PUSH0 REVERT JUMPDEST POP POP POP POP PUSH1 0x40 MLOAD RETURNDATASIZE PUSH0 DUP3 RETURNDATACOPY PUSH1 0x1F RETURNDATASIZE SWAP1 DUP2 ADD PUSH1 0x1F NOT AND DUP3 ADD PUSH1 0x40 MSTORE PUSH2 0xDCB SWAP2 SWAP1 DUP2 ADD SWAP1 PUSH2 0x13CE JUMP JUMPDEST SWAP1 POP SWAP1 JUMP JUMPDEST CALLER PUSH1 0x1 PUSH1 0x1 PUSH1 0xA0 SHL SUB PUSH32 0x0 AND EQ PUSH2 0xE48 JUMPI PUSH1 0x40 MLOAD PUSH3 0x461BCD PUSH1 0xE5 SHL DUP2 MSTORE PUSH1 0x20 PUSH1 0x4 DUP3 ADD DUP2 SWAP1 MSTORE PUSH1 0x24 DUP3 ADD MSTORE PUSH32 0x4B49443A204F6E6C7920666163746F72792063616E20736574206F7261636C65 PUSH1 0x44 DUP3 ADD MSTORE PUSH1 0x64 ADD PUSH2 0x6A1 JUMP JUMPDEST PUSH1 0x1 PUSH1 0x1 PUSH1 0xA0 SHL SUB DUP2 AND PUSH2 0xE9E JUMPI PUSH1 0x40 MLOAD PUSH3 0x461BCD PUSH1 0xE5 SHL DUP2 MSTORE PUSH1 0x20 PUSH1 0x4 DUP3 ADD MSTORE PUSH1 0x1B PUSH1 0x24 DUP3 ADD MSTORE PUSH32 0x4B49443A20496E76616C6964206F7261636C6520616464726573730000000000 PUSH1 0x44 DUP3 ADD MSTORE PUSH1 0x64 ADD PUSH2 0x6A1 JUMP JUMPDEST PUSH1 0x4 DUP1 SLOAD PUSH1 0x1 PUSH1 0x1 PUSH1 0xA0 SHL SUB NOT AND PUSH1 0x1 PUSH1 0x1 PUSH1 0xA0 SHL SUB DUP4 AND SWAP1 DUP2 OR SWAP1 SWAP2 SSTORE PUSH1 0x40 MLOAD PUSH32 0x107A9FAFFFB7AC890F780879E423760C9FFEA8DCEE8045681F40F542AEDE2CB8 SWAP1 PUSH0 SWAP1 LOG2 POP JUMP JUMPDEST PUSH0 DUP1 SLOAD PUSH2 0xEF3 SWAP1 PUSH2 0x1286 JUMP JUMPDEST DUP1 PUSH1 0x1F ADD PUSH1 0x20 DUP1 SWAP2 DIV MUL PUSH1 0x20 ADD PUSH1 0x40 MLOAD SWAP1 DUP2 ADD PUSH1 0x40 MSTORE DUP1 SWAP3 SWAP2 SWAP1 DUP2 DUP2 MSTORE PUSH1 0x20 ADD DUP3 DUP1 SLOAD PUSH2 0xF1F SWAP1 PUSH2 0x1286 JUMP JUMPDEST DUP1 ISZERO PUSH2 0xF6A JUMPI DUP1 PUSH1 0x1F LT PUSH2 0xF41 JUMPI PUSH2 0x100 DUP1 DUP4 SLOAD DIV MUL DUP4 MSTORE SWAP2 PUSH1 0x20 ADD SWAP2 PUSH2 0xF6A JUMP JUMPDEST DUP3 ADD SWAP2 SWAP1 PUSH0 MSTORE PUSH1 0x20 PUSH0 KECCAK256 SWAP1 JUMPDEST DUP2 SLOAD DUP2 MSTORE SWAP1 PUSH1 0x1 ADD SWAP1 PUSH1 0x20 ADD DUP1 DUP4 GT PUSH2 0xF4D JUMPI DUP3 SWAP1 SUB PUSH1 0x1F AND DUP3 ADD SWAP2 JUMPDEST POP POP POP POP POP DUP2 JUMP JUMPDEST PUSH1 0x40 MLOAD DUP1 PUSH2 0x100 ADD PUSH1 0x40 MSTORE DUP1 PUSH0 PUSH1 0x1 PUSH1 0x1 PUSH1 0x40 SHL SUB AND DUP2 MSTORE PUSH1 0x20 ADD PUSH0 PUSH1 0x1 PUSH1 0x1 PUSH1 0x40 SHL SUB AND DUP2 MSTORE PUSH1 0x20 ADD PUSH0 DUP2 MSTORE PUSH1 0x20 ADD PUSH0 DUP2 MSTORE PUSH1 0x20 ADD PUSH0 DUP2 MSTORE PUSH1 0x20 ADD PUSH0 DUP2 MSTORE PUSH1 0x20 ADD PUSH0 DUP2 MSTORE PUSH1 0x20 ADD PUSH0 ISZERO ISZERO DUP2 MSTORE POP SWAP1 JUMP JUMPDEST PUSH0 PUSH1 0x20 DUP3 DUP5 SUB SLT ISZERO PUSH2 0xFD3 JUMPI PUSH0 PUSH0 REVERT JUMPDEST POP CALLDATALOAD SWAP2 SWAP1 POP JUMP JUMPDEST PUSH1 0x20 DUP1 DUP3 MSTORE DUP3 MLOAD DUP3 DUP3 ADD DUP2 SWAP1 MSTORE PUSH0 SWAP2 DUP5 ADD SWAP1 PUSH1 0x40 DUP5 ADD SWAP1 DUP4 JUMPDEST DUP2 DUP2 LT ISZERO PUSH2 0x1074 JUMPI DUP4 MLOAD PUSH1 0x1 PUSH1 0x1 PUSH1 0x40 SHL SUB DUP2 MLOAD AND DUP5 MSTORE PUSH1 0x1 PUSH1 0x1 PUSH1 0x40 SHL SUB PUSH1 0x20 DUP3 ADD MLOAD AND PUSH1 0x20 DUP6 ADD MSTORE PUSH1 0x40 DUP2 ADD MLOAD PUSH1 0x40 DUP6 ADD MSTORE PUSH1 0x60 DUP2 ADD MLOAD PUSH1 0x60 DUP6 ADD MSTORE PUSH1 0x80 DUP2 ADD MLOAD PUSH1 0x80 DUP6 ADD MSTORE PUSH1 0xA0 DUP2 ADD MLOAD PUSH1 0xA0 DUP6 ADD MSTORE PUSH1 0xC0 DUP2 ADD MLOAD PUSH1 0xC0 DUP6 ADD MSTORE PUSH1 0xE0 DUP2 ADD MLOAD ISZERO ISZERO PUSH1 0xE0 DUP6 ADD MSTORE POP PUSH2 0x100 DUP4 ADD SWAP3 POP PUSH1 0x20 DUP5 ADD SWAP4 POP PUSH1 0x1 DUP2 ADD SWAP1 POP PUSH2 0xFF3 JUMP JUMPDEST POP SWAP1 SWAP6 SWAP5 POP POP POP POP POP JUMP JUMPDEST PUSH1 0x1 PUSH1 0x1 PUSH1 0x40 SHL SUB DUP2 AND DUP2 EQ PUSH2 0x1093 JUMPI PUSH0 PUSH0 REVERT JUMPDEST POP JUMP JUMPDEST DUP1 ISZERO ISZERO DUP2 EQ PUSH2 0x1093 JUMPI PUSH0 PUSH0 REVERT JUMPDEST PUSH0 PUSH0 PUSH0 PUSH0 PUSH0 PUSH0 PUSH0 PUSH0 PUSH2 0x100 DUP10 DUP12 SUB SLT ISZERO PUSH2 0x10BB JUMPI PUSH0 PUSH0 REVERT JUMPDEST DUP9 CALLDATALOAD PUSH2 0x10C6 DUP2 PUSH2 0x107F JUMP JUMPDEST SWAP8 POP PUSH1 0x20 DUP10 ADD CALLDATALOAD PUSH2 0x10D6 DUP2 PUSH2 0x107F JUMP JUMPDEST SWAP7 POP PUSH1 0x40 DUP10 ADD CALLDATALOAD SWAP6 POP PUSH1 0x60 DUP10 ADD CALLDATALOAD SWAP5 POP PUSH1 0x80 DUP10 ADD CALLDATALOAD SWAP4 POP PUSH1 0xA0 DUP10 ADD CALLDATALOAD SWAP3 POP PUSH1 0xC0 DUP10 ADD CALLDATALOAD SWAP2 POP PUSH1 0xE0 DUP10 ADD CALLDATALOAD PUSH2 0x1109 DUP2 PUSH2 0x1096 JUMP JUMPDEST DUP1 SWAP2 POP POP SWAP3 SWAP6 SWAP9 POP SWAP3 SWAP6 SWAP9 SWAP1 SWAP4 SWAP7 POP JUMP JUMPDEST PUSH0 DUP2 MLOAD DUP1 DUP5 MSTORE DUP1 PUSH1 0x20 DUP5 ADD PUSH1 0x20 DUP7 ADD MCOPY PUSH0 PUSH1 0x20 DUP3 DUP7 ADD ADD MSTORE PUSH1 0x20 PUSH1 0x1F NOT PUSH1 0x1F DUP4 ADD AND DUP6 ADD ADD SWAP2 POP POP SWAP3 SWAP2 POP POP JUMP JUMPDEST PUSH4 0x4E487B71 PUSH1 0xE0 SHL PUSH0 MSTORE PUSH1 0x21 PUSH1 0x4 MSTORE PUSH1 0x24 PUSH0 REVERT JUMPDEST PUSH1 0x10 DUP2 LT PUSH2 0x1178 JUMPI PUSH4 0x4E487B71 PUSH1 0xE0 SHL PUSH0 MSTORE PUSH1 0x21 PUSH1 0x4 MSTORE PUSH1 0x24 PUSH0 REVERT JUMPDEST SWAP1 MSTORE JUMP JUMPDEST PUSH1 0xA0 DUP2 MSTORE PUSH0 PUSH2 0x118E PUSH1 0xA0 DUP4 ADD DUP9 PUSH2 0x111A JUMP JUMPDEST SWAP1 POP PUSH2 0x119D PUSH1 0x20 DUP4 ADD DUP8 PUSH2 0x115C JUMP JUMPDEST DUP5 PUSH1 0x40 DUP4 ADD MSTORE DUP4 PUSH1 0x60 DUP4 ADD MSTORE DUP3 PUSH1 0x80 DUP4 ADD MSTORE SWAP7 SWAP6 POP POP POP POP POP POP JUMP JUMPDEST PUSH0 PUSH1 0x20 DUP3 DUP5 SUB SLT ISZERO PUSH2 0x11C9 JUMPI PUSH0 PUSH0 REVERT JUMPDEST DUP2 CALLDATALOAD PUSH1 0x1 PUSH1 0x1 PUSH1 0xA0 SHL SUB DUP2 AND DUP2 EQ PUSH2 0x611 JUMPI PUSH0 PUSH0 REVERT JUMPDEST PUSH1 0x20 DUP2 MSTORE PUSH0 PUSH2 0x611 PUSH1 0x20 DUP4 ADD DUP5 PUSH2 0x111A JUMP JUMPDEST PUSH1 0x20 DUP2 ADD PUSH2 0x11FF DUP3 DUP5 PUSH2 0x115C JUMP JUMPDEST SWAP3 SWAP2 POP POP JUMP JUMPDEST PUSH4 0x4E487B71 PUSH1 0xE0 SHL PUSH0 MSTORE PUSH1 0x41 PUSH1 0x4 MSTORE PUSH1 0x24 PUSH0 REVERT JUMPDEST PUSH4 0x4E487B71 PUSH1 0xE0 SHL PUSH0 MSTORE PUSH1 0x11 PUSH1 0x4 MSTORE PUSH1 0x24 PUSH0 REVERT JUMPDEST DUP2 DUP2 SUB DUP2 DUP2 GT ISZERO PUSH2 0x11FF JUMPI PUSH2 0x11FF PUSH2 0x1219 JUMP JUMPDEST DUP1 DUP3 ADD DUP1 DUP3 GT ISZERO PUSH2 0x11FF JUMPI PUSH2 0x11FF PUSH2 0x1219 JUMP JUMPDEST PUSH4 0x4E487B71 PUSH1 0xE0 SHL PUSH0 MSTORE PUSH1 0x32 PUSH1 0x4 MSTORE PUSH1 0x24 PUSH0 REVERT JUMPDEST PUSH0 DUP3 PUSH2 0x1281 JUMPI PUSH4 0x4E487B71 PUSH1 0xE0 SHL PUSH0 MSTORE PUSH1 0x12 PUSH1 0x4 MSTORE PUSH1 0x24 PUSH0 REVERT JUMPDEST POP MOD SWAP1 JUMP JUMPDEST PUSH1 0x1 DUP2 DUP2 SHR SWAP1 DUP3 AND DUP1 PUSH2 0x129A JUMPI PUSH1 0x7F DUP3 AND SWAP2 POP JUMPDEST PUSH1 0x20 DUP3 LT DUP2 SUB PUSH2 0x12B8 JUMPI PUSH4 0x4E487B71 PUSH1 0xE0 SHL PUSH0 MSTORE PUSH1 0x22 PUSH1 0x4 MSTORE PUSH1 0x24 PUSH0 REVERT JUMPDEST POP SWAP2 SWAP1 POP JUMP JUMPDEST PUSH0 PUSH0 DUP4 SLOAD PUSH0 DUP2 PUSH1 0x1 SHR SWAP1 POP PUSH1 0x1 DUP3 AND DUP1 PUSH2 0x12D9 JUMPI PUSH1 0x7F DUP3 AND SWAP2 POP JUMPDEST PUSH1 0x20 DUP3 LT DUP2 SUB PUSH2 0x12F7 JUMPI PUSH4 0x4E487B71 PUSH1 0xE0 SHL PUSH0 MSTORE PUSH1 0x22 PUSH1 0x4 MSTORE PUSH1 0x24 PUSH0 REVERT JUMPDEST DUP1 DUP1 ISZERO PUSH2 0x130B JUMPI PUSH1 0x1 DUP2 EQ PUSH2 0x1320 JUMPI PUSH2 0x134E JUMP JUMPDEST PUSH1 0xFF NOT DUP5 AND DUP8 MSTORE DUP3 ISZERO ISZERO DUP4 MUL DUP8 ADD SWAP5 POP PUSH2 0x134E JUMP JUMPDEST PUSH0 DUP9 DUP2 MSTORE PUSH1 0x20 SWAP1 KECCAK256 PUSH0 JUMPDEST DUP5 DUP2 LT ISZERO PUSH2 0x1346 JUMPI DUP2 SLOAD DUP10 DUP3 ADD MSTORE PUSH1 0x1 SWAP1 SWAP2 ADD SWAP1 PUSH1 0x20 ADD PUSH2 0x132A JUMP JUMPDEST POP POP DUP3 DUP8 ADD SWAP5 POP JUMPDEST POP SWAP3 SWAP7 SWAP6 POP POP POP POP POP POP JUMP JUMPDEST PUSH1 0x40 MLOAD PUSH2 0x100 DUP2 ADD PUSH1 0x1 PUSH1 0x1 PUSH1 0x40 SHL SUB DUP2 GT DUP3 DUP3 LT OR ISZERO PUSH2 0x137D JUMPI PUSH2 0x137D PUSH2 0x1205 JUMP JUMPDEST PUSH1 0x40 MSTORE SWAP1 JUMP JUMPDEST PUSH1 0x40 MLOAD PUSH1 0x1F DUP3 ADD PUSH1 0x1F NOT AND DUP2 ADD PUSH1 0x1 PUSH1 0x1 PUSH1 0x40 SHL SUB DUP2 GT DUP3 DUP3 LT OR ISZERO PUSH2 0x13AB JUMPI PUSH2 0x13AB PUSH2 0x1205 JUMP JUMPDEST PUSH1 0x40 MSTORE SWAP2 SWAP1 POP JUMP JUMPDEST DUP1 MLOAD PUSH2 0x13BE DUP2 PUSH2 0x107F JUMP JUMPDEST SWAP2 SWAP1 POP JUMP JUMPDEST DUP1 MLOAD PUSH2 0x13BE DUP2 PUSH2 0x1096 JUMP JUMPDEST PUSH0 PUSH1 0x20 DUP3 DUP5 SUB SLT ISZERO PUSH2 0x13DE JUMPI PUSH0 PUSH0 REVERT JUMPDEST DUP2 MLOAD PUSH1 0x1 PUSH1 0x1 PUSH1 0x40 SHL SUB DUP2 GT ISZERO PUSH2 0x13F3 JUMPI PUSH0 PUSH0 REVERT JUMPDEST DUP3 ADD PUSH1 0x1F DUP2 ADD DUP5 SGT PUSH2 0x1403 JUMPI PUSH0 PUSH0 REVERT JUMPDEST DUP1 MLOAD PUSH1 0x1 PUSH1 0x1 PUSH1 0x40 SHL SUB DUP2 GT ISZERO PUSH2 0x141C JUMPI PUSH2 0x141C PUSH2 0x1205 JUMP JUMPDEST PUSH2 0x142B PUSH1 0x20 DUP3 PUSH1 0x5 SHL ADD PUSH2 0x1383 JUMP JUMPDEST DUP1 DUP3 DUP3 MSTORE PUSH1 0x20 DUP3 ADD SWAP2 POP PUSH1 0x20 DUP4 PUSH1 0x8 SHL DUP6 ADD ADD SWAP3 POP DUP7 DUP4 GT ISZERO PUSH2 0x144C JUMPI PUSH0 PUSH0 REVERT JUMPDEST PUSH1 0x20 DUP5 ADD SWAP4 POP JUMPDEST DUP3 DUP5 LT ISZERO PUSH2 0x14E9 JUMPI PUSH2 0x100 DUP5 DUP9 SUB SLT ISZERO PUSH2 0x146B JUMPI PUSH0 PUSH0 REVERT JUMPDEST PUSH2 0x1473 PUSH2 0x135A JUMP JUMPDEST DUP5 MLOAD PUSH2 0x147E DUP2 PUSH2 0x107F JUMP JUMPDEST DUP2 MSTORE PUSH2 0x148C PUSH1 0x20 DUP7 ADD PUSH2 0x13B3 JUMP JUMPDEST PUSH1 0x20 DUP3 ADD MSTORE PUSH1 0x40 DUP6 DUP2 ADD MLOAD SWAP1 DUP3 ADD MSTORE PUSH1 0x60 DUP1 DUP7 ADD MLOAD SWAP1 DUP3 ADD MSTORE PUSH1 0x80 DUP1 DUP7 ADD MLOAD SWAP1 DUP3 ADD MSTORE PUSH1 0xA0 DUP1 DUP7 ADD MLOAD SWAP1 DUP3 ADD MSTORE PUSH1 0xC0 DUP1 DUP7 ADD MLOAD SWAP1 DUP3 ADD MSTORE PUSH2 0x14CF PUSH1 0xE0 DUP7 ADD PUSH2 0x13C3 JUMP JUMPDEST PUSH1 0xE0 DUP3 ADD MSTORE DUP3 MSTORE PUSH2 0x100 SWAP4 SWAP1 SWAP4 ADD SWAP3 PUSH1 0x20 SWAP1 SWAP2 ADD SWAP1 PUSH2 0x1453 JUMP JUMPDEST SWAP7 SWAP6 POP POP POP POP POP POP JUMP INVALID LOG2 PUSH5 0x6970667358 0x22 SLT KECCAK256 0xAA 0xBD 0xC7 0x24 GAS EXTCODECOPY RJUMP 0xCB07 0xA9 RJUMP 0x69AD 0xB9 LOG2 DUP9 DELEGATECALL 0xB4 SWAP9 0xC4 0xC NOT 0xD4 GASLIMIT 0xE EXTCODEHASH XOR PUSH8 0x2BA804F264736F6C PUSH4 0x4300081E STOP CALLER LOG2 PUSH5 0x6970667358 0x22 SLT KECCAK256 POP ISZERO 0x4B PUSH12 0x97E75D9F166B4B6902751E8C 0x21 SGT LOG2 0xF7 PUSH12 0x549DB092E87DC4811CAA7764 PUSH20 0x6F6C634300081E00336101006040523480156100 LT JUMPI PUSH0 PUSH0 REVERT JUMPDEST POP PUSH1 0x40 MLOAD PUSH2 0x18EB CODESIZE SUB DUP1 PUSH2 0x18EB DUP4 CODECOPY DUP2 ADD PUSH1 0x40 DUP2 SWAP1 MSTORE PUSH2 0x2F SWAP2 PUSH2 0xD5 JUMP JUMPDEST PUSH0 PUSH2 0x3A DUP8 DUP3 PUSH2 0x251 JUMP JUMPDEST POP DUP5 PUSH1 0xF DUP2 GT ISZERO PUSH2 0x4D JUMPI PUSH2 0x4D PUSH2 0x30B JUMP JUMPDEST PUSH1 0xA0 DUP2 PUSH1 0xF DUP2 GT ISZERO PUSH2 0x61 JUMPI PUSH2 0x61 PUSH2 0x30B JUMP JUMPDEST SWAP1 MSTORE POP PUSH1 0x80 SWAP4 SWAP1 SWAP4 MSTORE PUSH1 0x1 PUSH1 0x1 PUSH1 0xA0 SHL SUB SWAP2 DUP3 AND PUSH1 0xC0 MSTORE PUSH1 0x4 DUP1 SLOAD PUSH1 0x1 PUSH1 0x1 PUSH1 0xA0 SHL SUB NOT AND SWAP2 SWAP1 SWAP3 AND OR SWAP1 SSTORE PUSH1 0xE0 MSTORE POP PUSH2 0x31F SWAP1 POP JUMP JUMPDEST PUSH4 0x4E487B71 PUSH1 0xE0 SHL PUSH0 MSTORE PUSH1 0x41 PUSH1 0x4 MSTORE PUSH1 0x24 PUSH0 REVERT JUMPDEST DUP1 MLOAD PUSH1 0x10 DUP2 LT PUSH2 0xBA JUMPI PUSH0 PUSH0 REVERT JUMPDEST SWAP2 SWAP1 POP JUMP JUMPDEST DUP1 MLOAD PUSH1 0x1 PUSH1 0x1 PUSH1 0xA0 SHL SUB DUP2 AND DUP2 EQ PUSH2 0xBA JUMPI PUSH0 PUSH0 REVERT JUMPDEST PUSH0 PUSH0 PUSH0 PUSH0 PUSH0 PUSH0 PUSH1 0xC0 DUP8 DUP10 SUB SLT ISZERO PUSH2 0xEA JUMPI PUSH0 PUSH0 REVERT JUMPDEST DUP7 MLOAD PUSH1 0x1 PUSH1 0x1 PUSH1 0x40 SHL SUB DUP2 GT ISZERO PUSH2 0xFF JUMPI PUSH0 PUSH0 REVERT JUMPDEST DUP8 ADD PUSH1 0x1F DUP2 ADD DUP10 SGT PUSH2 0x10F JUMPI PUSH0 PUSH0 REVERT JUMPDEST DUP1 MLOAD PUSH1 0x1 PUSH1 0x1 PUSH1 0x40 SHL SUB DUP2 GT ISZERO PUSH2 0x128 JUMPI PUSH2 0x128 PUSH2 0x98 JUMP JUMPDEST PUSH1 0x40 MLOAD PUSH1 0x1F DUP3 ADD PUSH1 0x1F NOT SWAP1 DUP2 AND PUSH1 0x3F ADD AND DUP2 ADD PUSH1 0x1 PUSH1 0x1 PUSH1 0x40 SHL SUB DUP2 GT DUP3 DUP3 LT OR ISZERO PUSH2 0x156 JUMPI PUSH2 0x156 PUSH2 0x98 JUMP JUMPDEST PUSH1 0x40 MSTORE DUP2 DUP2 MSTORE DUP3 DUP3 ADD PUSH1 0x20 ADD DUP12 LT ISZERO PUSH2 0x16D JUMPI PUSH0 PUSH0 REVERT JUMPDEST DUP2 PUSH1 0x20 DUP5 ADD PUSH1 0x20 DUP4 ADD MCOPY PUSH0 PUSH1 0x20 DUP4 DUP4 ADD ADD MSTORE DUP1 SWAP9 POP POP POP POP PUSH2 0x191 PUSH1 0x20 DUP9 ADD PUSH2 0xAC JUMP JUMPDEST PUSH1 0x40 DUP9 ADD MLOAD SWAP1 SWAP6 POP SWAP4 POP PUSH2 0x1A7 PUSH1 0x60 DUP9 ADD PUSH2 0xBF JUMP JUMPDEST SWAP3 POP PUSH2 0x1B5 PUSH1 0x80 DUP9 ADD PUSH2 0xBF JUMP JUMPDEST SWAP2 POP PUSH0 PUSH1 0xA0 DUP9 ADD MLOAD SWAP1 POP DUP1 SWAP2 POP POP SWAP3 SWAP6 POP SWAP3 SWAP6 POP SWAP3 SWAP6 JUMP JUMPDEST PUSH1 0x1 DUP2 DUP2 SHR SWAP1 DUP3 AND DUP1 PUSH2 0x1E1 JUMPI PUSH1 0x7F DUP3 AND SWAP2 POP JUMPDEST PUSH1 0x20 DUP3 LT DUP2 SUB PUSH2 0x1FF JUMPI PUSH4 0x4E487B71 PUSH1 0xE0 SHL PUSH0 MSTORE PUSH1 0x22 PUSH1 0x4 MSTORE PUSH1 0x24 PUSH0 REVERT JUMPDEST POP SWAP2 SWAP1 POP JUMP JUMPDEST PUSH1 0x1F DUP3 GT ISZERO PUSH2 0x24C JUMPI DUP1 PUSH0 MSTORE PUSH1 0x20 PUSH0 KECCAK256 PUSH1 0x1F DUP5 ADD PUSH1 0x5 SHR DUP2 ADD PUSH1 0x20 DUP6 LT ISZERO PUSH2 0x22A JUMPI POP DUP1 JUMPDEST PUSH1 0x1F DUP5 ADD PUSH1 0x5 SHR DUP3 ADD SWAP2 POP JUMPDEST DUP2 DUP2 LT ISZERO PUSH2 0x249 JUMPI PUSH0 DUP2 SSTORE PUSH1 0x1 ADD PUSH2 0x236 JUMP JUMPDEST POP POP JUMPDEST POP POP POP JUMP JUMPDEST DUP2 MLOAD PUSH1 0x1 PUSH1 0x1 PUSH1 0x40 SHL SUB DUP2 GT ISZERO PUSH2 0x26A JUMPI PUSH2 0x26A PUSH2 0x98 JUMP JUMPDEST PUSH2 0x27E DUP2 PUSH2 0x278 DUP5 SLOAD PUSH2 0x1CD JUMP JUMPDEST DUP5 PUSH2 0x205 JUMP JUMPDEST PUSH1 0x20 PUSH1 0x1F DUP3 GT PUSH1 0x1 DUP2 EQ PUSH2 0x2B0 JUMPI PUSH0 DUP4 ISZERO PUSH2 0x299 JUMPI POP DUP5 DUP3 ADD MLOAD JUMPDEST PUSH0 NOT PUSH1 0x3 DUP6 SWAP1 SHL SHR NOT AND PUSH1 0x1 DUP5 SWAP1 SHL OR DUP5 SSTORE PUSH2 0x249 JUMP JUMPDEST PUSH0 DUP5 DUP2 MSTORE PUSH1 0x20 DUP2 KECCAK256 PUSH1 0x1F NOT DUP6 AND SWAP2 JUMPDEST DUP3 DUP2 LT ISZERO PUSH2 0x2DF JUMPI DUP8 DUP6 ADD MLOAD DUP3 SSTORE PUSH1 0x20 SWAP5 DUP6 ADD SWAP5 PUSH1 0x1 SWAP1 SWAP3 ADD SWAP2 ADD PUSH2 0x2BF JUMP JUMPDEST POP DUP5 DUP3 LT ISZERO PUSH2 0x2FC JUMPI DUP7 DUP5 ADD MLOAD PUSH0 NOT PUSH1 0x3 DUP8 SWAP1 SHL PUSH1 0xF8 AND SHR NOT AND DUP2 SSTORE JUMPDEST POP POP POP POP PUSH1 0x1 SWAP1 DUP2 SHL ADD SWAP1 SSTORE POP JUMP JUMPDEST PUSH4 0x4E487B71 PUSH1 0xE0 SHL PUSH0 MSTORE PUSH1 0x21 PUSH1 0x4 MSTORE PUSH1 0x24 PUSH0 REVERT JUMPDEST PUSH1 0x80 MLOAD PUSH1 0xA0 MLOAD PUSH1 0xC0 MLOAD PUSH1 0xE0 MLOAD PUSH2 0x1529 PUSH2 0x3C2 PUSH0 CODECOPY PUSH0 DUP2 DUP2 PUSH2 0x12C ADD MSTORE DUP2 DUP2 PUSH2 0xB50 ADD MSTORE PUSH2 0xC1A ADD MSTORE PUSH0 DUP2 DUP2 PUSH2 0x20E ADD MSTORE DUP2 DUP2 PUSH2 0x623 ADD MSTORE PUSH2 0xDDB ADD MSTORE PUSH0 DUP2 DUP2 PUSH2 0x260 ADD MSTORE DUP2 DUP2 PUSH2 0xB71 ADD MSTORE PUSH2 0xBF9 ADD MSTORE PUSH0 DUP2 DUP2 PUSH2 0x29D ADD MSTORE DUP2 DUP2 PUSH2 0x36E ADD MSTORE DUP2 DUP2 PUSH2 0x48C ADD MSTORE DUP2 DUP2 PUSH2 0x4B4 ADD MSTORE DUP2 DUP2 PUSH2 0x4D6 ADD MSTORE DUP2 DUP2 PUSH2 0x527 ADD MSTORE DUP2 DUP2 PUSH2 0x709 ADD MSTORE DUP2 DUP2 PUSH2 0x74B ADD MSTORE DUP2 DUP2 PUSH2 0x8AC ADD MSTORE DUP2 DUP2 PUSH2 0xB00 ADD MSTORE PUSH2 0xC3E ADD MSTORE PUSH2 0x1529 PUSH0 RETURN INVALID PUSH1 0x80 PUSH1 0x40 MSTORE CALLVALUE DUP1 ISZERO PUSH2 0xF JUMPI PUSH0 PUSH0 REVERT JUMPDEST POP PUSH1 0x4 CALLDATASIZE LT PUSH2 0xE5 JUMPI PUSH0 CALLDATALOAD PUSH1 0xE0 SHR DUP1 PUSH4 0x7ADBF973 GT PUSH2 0x88 JUMPI DUP1 PUSH4 0xA89AE4BA GT PUSH2 0x63 JUMPI DUP1 PUSH4 0xA89AE4BA EQ PUSH2 0x248 JUMPI DUP1 PUSH4 0xAFB13053 EQ PUSH2 0x25B JUMPI DUP1 PUSH4 0xB121608C EQ PUSH2 0x28F JUMPI DUP1 PUSH4 0xB1AF9F4C EQ PUSH2 0x298 JUMPI PUSH0 PUSH0 REVERT JUMPDEST DUP1 PUSH4 0x7ADBF973 EQ PUSH2 0x1E1 JUMPI DUP1 PUSH4 0x95D89B41 EQ PUSH2 0x1F4 JUMPI DUP1 PUSH4 0x966DAE0E EQ PUSH2 0x209 JUMPI PUSH0 PUSH0 REVERT JUMPDEST DUP1 PUSH4 0x5A9B0B89 GT PUSH2 0xC3 JUMPI DUP1 PUSH4 0x5A9B0B89 EQ PUSH2 0x15C JUMPI DUP1 PUSH4 0x6297F23C EQ PUSH2 0x175 JUMPI DUP1 PUSH4 0x6CFCDCA7 EQ PUSH2 0x17E JUMPI DUP1 PUSH4 0x718715D9 EQ PUSH2 0x1D9 JUMPI PUSH0 PUSH0 REVERT JUMPDEST DUP1 PUSH4 0x1A3CA7AA EQ PUSH2 0xE9 JUMPI DUP1 PUSH4 0x3A499A53 EQ PUSH2 0x112 JUMPI DUP1 PUSH4 0x54FD4D50 EQ PUSH2 0x127 JUMPI JUMPDEST PUSH0 PUSH0 REVERT JUMPDEST PUSH2 0xFC PUSH2 0xF7 CALLDATASIZE PUSH1 0x4 PUSH2 0xFC3 JUMP JUMPDEST PUSH2 0x2BF JUMP JUMPDEST PUSH1 0x40 MLOAD PUSH2 0x109 SWAP2 SWAP1 PUSH2 0xFDA JUMP JUMPDEST PUSH1 0x40 MLOAD DUP1 SWAP2 SUB SWAP1 RETURN JUMPDEST PUSH2 0x125 PUSH2 0x120 CALLDATASIZE PUSH1 0x4 PUSH2 0x10A3 JUMP JUMPDEST PUSH2 0x618 JUMP JUMPDEST STOP JUMPDEST PUSH2 0x14E PUSH32 0x0 DUP2 JUMP JUMPDEST PUSH1 0x40 MLOAD SWAP1 DUP2 MSTORE PUSH1 0x20 ADD PUSH2 0x109 JUMP JUMPDEST PUSH2 0x164 PUSH2 0xBF0 JUMP JUMPDEST PUSH1 0x40 MLOAD PUSH2 0x109 SWAP6 SWAP5 SWAP4 SWAP3 SWAP2 SWAP1 PUSH2 0x117C JUMP JUMPDEST PUSH2 0x14E PUSH1 0x3 SLOAD DUP2 JUMP JUMPDEST PUSH2 0x191 PUSH2 0x18C CALLDATASIZE PUSH1 0x4 PUSH2 0xFC3 JUMP JUMPDEST PUSH2 0xCF8 JUMP JUMPDEST PUSH1 0x40 DUP1 MLOAD PUSH1 0x1 PUSH1 0x1 PUSH1 0x40 SHL SUB SWAP10 DUP11 AND DUP2 MSTORE SWAP9 SWAP1 SWAP8 AND PUSH1 0x20 DUP10 ADD MSTORE SWAP6 DUP8 ADD SWAP5 SWAP1 SWAP5 MSTORE PUSH1 0x60 DUP7 ADD SWAP3 SWAP1 SWAP3 MSTORE PUSH1 0x80 DUP6 ADD MSTORE PUSH1 0xA0 DUP5 ADD MSTORE PUSH1 0xC0 DUP4 ADD MSTORE ISZERO ISZERO PUSH1 0xE0 DUP3 ADD MSTORE PUSH2 0x100 ADD PUSH2 0x109 JUMP JUMPDEST PUSH2 0xFC PUSH2 0xD5F JUMP JUMPDEST PUSH2 0x125 PUSH2 0x1EF CALLDATASIZE PUSH1 0x4 PUSH2 0x11B9 JUMP JUMPDEST PUSH2 0xDD0 JUMP JUMPDEST PUSH2 0x1FC PUSH2 0xEE7 JUMP JUMPDEST PUSH1 0x40 MLOAD PUSH2 0x109 SWAP2 SWAP1 PUSH2 0x11DF JUMP JUMPDEST PUSH2 0x230 PUSH32 0x0 DUP2 JUMP JUMPDEST PUSH1 0x40 MLOAD PUSH1 0x1 PUSH1 0x1 PUSH1 0xA0 SHL SUB SWAP1 SWAP2 AND DUP2 MSTORE PUSH1 0x20 ADD PUSH2 0x109 JUMP JUMPDEST PUSH1 0x4 SLOAD PUSH2 0x230 SWAP1 PUSH1 0x1 PUSH1 0x1 PUSH1 0xA0 SHL SUB AND DUP2 JUMP JUMPDEST PUSH2 0x282 PUSH32 0x0 DUP2 JUMP JUMPDEST PUSH1 0x40 MLOAD PUSH2 0x109 SWAP2 SWAP1 PUSH2 0x11F1 JUMP JUMPDEST PUSH2 0x14E PUSH1 0x2 SLOAD DUP2 JUMP JUMPDEST PUSH2 0x14E PUSH32 0x0 DUP2 JUMP JUMPDEST PUSH1 0x60 PUSH1 0x3 SLOAD PUSH0 SUB PUSH2 0x301 JUMPI PUSH1 0x40 DUP1 MLOAD PUSH0 DUP1 DUP3 MSTORE PUSH1 0x20 DUP3 ADD SWAP1 SWAP3 MSTORE SWAP1 PUSH2 0x2FA JUMP JUMPDEST PUSH2 0x2E7 PUSH2 0xF72 JUMP JUMPDEST DUP2 MSTORE PUSH1 0x20 ADD SWAP1 PUSH1 0x1 SWAP1 SUB SWAP1 DUP2 PUSH2 0x2DF JUMPI SWAP1 POP JUMPDEST POP SWAP3 SWAP2 POP POP JUMP JUMPDEST PUSH0 PUSH1 0x3 SLOAD DUP4 GT PUSH2 0x311 JUMPI DUP3 PUSH2 0x315 JUMP JUMPDEST PUSH1 0x3 SLOAD JUMPDEST SWAP1 POP PUSH0 DUP2 PUSH1 0x1 PUSH1 0x1 PUSH1 0x40 SHL SUB DUP2 GT ISZERO PUSH2 0x330 JUMPI PUSH2 0x330 PUSH2 0x1205 JUMP JUMPDEST PUSH1 0x40 MLOAD SWAP1 DUP1 DUP3 MSTORE DUP1 PUSH1 0x20 MUL PUSH1 0x20 ADD DUP3 ADD PUSH1 0x40 MSTORE DUP1 ISZERO PUSH2 0x369 JUMPI DUP2 PUSH1 0x20 ADD JUMPDEST PUSH2 0x356 PUSH2 0xF72 JUMP JUMPDEST DUP2 MSTORE PUSH1 0x20 ADD SWAP1 PUSH1 0x1 SWAP1 SUB SWAP1 DUP2 PUSH2 0x34E JUMPI SWAP1 POP JUMPDEST POP SWAP1 POP PUSH32 0x0 PUSH1 0x3 SLOAD LT ISZERO PUSH2 0x487 JUMPI PUSH0 DUP3 PUSH1 0x3 SLOAD GT PUSH2 0x3A6 JUMPI PUSH0 PUSH2 0x3B4 JUMP JUMPDEST DUP3 PUSH1 0x3 SLOAD PUSH2 0x3B4 SWAP2 SWAP1 PUSH2 0x122D JUMP JUMPDEST SWAP1 POP PUSH0 JUMPDEST DUP4 DUP2 LT ISZERO PUSH2 0x480 JUMPI PUSH1 0x1 PUSH2 0x3CC DUP3 DUP5 PUSH2 0x1240 JUMP JUMPDEST DUP2 SLOAD DUP2 LT PUSH2 0x3DC JUMPI PUSH2 0x3DC PUSH2 0x1253 JUMP JUMPDEST PUSH0 SWAP2 DUP3 MSTORE PUSH1 0x20 SWAP2 DUP3 SWAP1 KECCAK256 PUSH1 0x40 DUP1 MLOAD PUSH2 0x100 DUP2 ADD DUP3 MSTORE PUSH1 0x7 SWAP1 SWAP4 MUL SWAP1 SWAP2 ADD DUP1 SLOAD PUSH1 0x1 PUSH1 0x1 PUSH1 0x40 SHL SUB DUP1 DUP3 AND DUP6 MSTORE PUSH1 0x1 PUSH1 0x40 SHL SWAP1 SWAP2 DIV AND SWAP4 DUP4 ADD SWAP4 SWAP1 SWAP4 MSTORE PUSH1 0x1 DUP4 ADD SLOAD SWAP1 DUP3 ADD MSTORE PUSH1 0x2 DUP3 ADD SLOAD PUSH1 0x60 DUP3 ADD MSTORE PUSH1 0x3 DUP3 ADD SLOAD PUSH1 0x80 DUP3 ADD MSTORE PUSH1 0x4 DUP3 ADD SLOAD PUSH1 0xA0 DUP3 ADD MSTORE PUSH1 0x5 DUP3 ADD SLOAD PUSH1 0xC0 DUP3 ADD MSTORE PUSH1 0x6 SWAP1 SWAP2 ADD SLOAD PUSH1 0xFF AND ISZERO ISZERO PUSH1 0xE0 DUP3 ADD MSTORE DUP4 MLOAD DUP5 SWAP1 DUP4 SWAP1 DUP2 LT PUSH2 0x46D JUMPI PUSH2 0x46D PUSH2 0x1253 JUMP JUMPDEST PUSH1 0x20 SWAP1 DUP2 MUL SWAP2 SWAP1 SWAP2 ADD ADD MSTORE PUSH1 0x1 ADD PUSH2 0x3B8 JUMP JUMPDEST POP POP PUSH2 0x611 JUMP JUMPDEST PUSH1 0x2 SLOAD PUSH32 0x0 DUP4 LT ISZERO PUSH2 0x519 JUMPI PUSH32 0x0 DUP4 PUSH32 0x0 PUSH1 0x2 SLOAD PUSH2 0x502 SWAP2 SWAP1 PUSH2 0x1240 JUMP JUMPDEST PUSH2 0x50C SWAP2 SWAP1 PUSH2 0x122D JUMP JUMPDEST PUSH2 0x516 SWAP2 SWAP1 PUSH2 0x1267 JUMP JUMPDEST SWAP1 POP JUMPDEST PUSH0 JUMPDEST DUP4 DUP2 LT ISZERO PUSH2 0x60E JUMPI PUSH1 0x1 PUSH32 0x0 PUSH2 0x550 DUP4 DUP6 PUSH2 0x1240 JUMP JUMPDEST PUSH2 0x55A SWAP2 SWAP1 PUSH2 0x1267 JUMP JUMPDEST DUP2 SLOAD DUP2 LT PUSH2 0x56A JUMPI PUSH2 0x56A PUSH2 0x1253 JUMP JUMPDEST PUSH0 SWAP2 DUP3 MSTORE PUSH1 0x20 SWAP2 DUP3 SWAP1 KECCAK256 PUSH1 0x40 DUP1 MLOAD PUSH2 0x100 DUP2 ADD DUP3 MSTORE PUSH1 0x7 SWAP1 SWAP4 MUL SWAP1 SWAP2 ADD DUP1 SLOAD PUSH1 0x1 PUSH1 0x1 PUSH1 0x40 SHL SUB DUP1 DUP3 AND DUP6 MSTORE PUSH1 0x1 PUSH1 0x40 SHL SWAP1 SWAP2 DIV AND SWAP4 DUP4 ADD SWAP4 SWAP1 SWAP4 MSTORE PUSH1 0x1 DUP4 ADD SLOAD SWAP1 DUP3 ADD MSTORE PUSH1 0x2 DUP3 ADD SLOAD PUSH1 0x60 DUP3 ADD MSTORE PUSH1 0x3 DUP3 ADD SLOAD PUSH1 0x80 DUP3 ADD MSTORE PUSH1 0x4 DUP3 ADD SLOAD PUSH1 0xA0 DUP3 ADD MSTORE PUSH1 0x5 DUP3 ADD SLOAD PUSH1 0xC0 DUP3 ADD MSTORE PUSH1 0x6 SWAP1 SWAP2 ADD SLOAD PUSH1 0xFF AND ISZERO ISZERO PUSH1 0xE0 DUP3 ADD MSTORE DUP4 MLOAD DUP5 SWAP1 DUP4 SWAP1 DUP2 LT PUSH2 0x5FB JUMPI PUSH2 0x5FB PUSH2 0x1253 JUMP JUMPDEST PUSH1 0x20 SWAP1 DUP2 MUL SWAP2 SWAP1 SWAP2 ADD ADD MSTORE PUSH1 0x1 ADD PUSH2 0x51B JUMP JUMPDEST POP POP JUMPDEST SWAP4 SWAP3 POP POP POP JUMP JUMPDEST CALLER PUSH1 0x1 PUSH1 0x1 PUSH1 0xA0 SHL SUB PUSH32 0x0 AND EQ DUP1 PUSH2 0x659 JUMPI POP PUSH1 0x4 SLOAD PUSH1 0x1 PUSH1 0x1 PUSH1 0xA0 SHL SUB AND CALLER EQ JUMPDEST PUSH2 0x6AA JUMPI PUSH1 0x40 MLOAD PUSH3 0x461BCD PUSH1 0xE5 SHL DUP2 MSTORE PUSH1 0x20 PUSH1 0x4 DUP3 ADD MSTORE PUSH1 0x1A PUSH1 0x24 DUP3 ADD MSTORE PUSH32 0x4B49443A204E6F7420666163746F7279206F72206F7261636C65000000000000 PUSH1 0x44 DUP3 ADD MSTORE PUSH1 0x64 ADD JUMPDEST PUSH1 0x40 MLOAD DUP1 SWAP2 SUB SWAP1 REVERT JUMPDEST PUSH1 0x40 DUP1 MLOAD PUSH2 0x100 DUP2 ADD DUP3 MSTORE PUSH1 0x1 PUSH1 0x1 PUSH1 0x40 SHL SUB DUP1 DUP12 AND DUP3 MSTORE DUP10 AND PUSH1 0x20 DUP3 ADD MSTORE SWAP1 DUP2 ADD DUP8 SWAP1 MSTORE PUSH1 0x60 DUP2 ADD DUP7 SWAP1 MSTORE PUSH1 0x80 DUP2 ADD DUP6 SWAP1 MSTORE PUSH1 0xA0 DUP2 ADD DUP5 SWAP1 MSTORE PUSH1 0xC0 DUP2 ADD DUP4 SWAP1 MSTORE DUP2 ISZERO ISZERO PUSH1 0xE0 DUP3 ADD MSTORE PUSH1 0x3 SLOAD PUSH0 SWAP1 ISZERO PUSH2 0x8A2 JUMPI PUSH0 PUSH1 0x2 SLOAD PUSH0 SUB PUSH2 0x776 JUMPI PUSH32 0x0 PUSH1 0x3 SLOAD EQ PUSH2 0x744 JUMPI PUSH1 0x1 PUSH1 0x3 SLOAD PUSH2 0x73F SWAP2 SWAP1 PUSH2 0x122D JUMP JUMPDEST PUSH2 0x76F JUMP JUMPDEST PUSH2 0x76F PUSH1 0x1 PUSH32 0x0 PUSH2 0x122D JUMP JUMPDEST SWAP1 POP PUSH2 0x788 JUMP JUMPDEST PUSH1 0x1 PUSH1 0x2 SLOAD PUSH2 0x785 SWAP2 SWAP1 PUSH2 0x122D JUMP JUMPDEST SWAP1 POP JUMPDEST DUP11 PUSH1 0x1 PUSH1 0x1 PUSH1 0x40 SHL SUB AND PUSH1 0x1 DUP3 DUP2 SLOAD DUP2 LT PUSH2 0x7A5 JUMPI PUSH2 0x7A5 PUSH2 0x1253 JUMP JUMPDEST PUSH0 SWAP2 DUP3 MSTORE PUSH1 0x20 SWAP1 SWAP2 KECCAK256 PUSH1 0x7 SWAP1 SWAP2 MUL ADD SLOAD PUSH1 0x1 PUSH1 0x1 PUSH1 0x40 SHL SUB AND EQ DUP1 ISZERO PUSH2 0x7F1 JUMPI POP PUSH1 0x1 DUP2 DUP2 SLOAD DUP2 LT PUSH2 0x7D9 JUMPI PUSH2 0x7D9 PUSH2 0x1253 JUMP JUMPDEST PUSH0 SWAP2 DUP3 MSTORE PUSH1 0x20 SWAP1 SWAP2 KECCAK256 PUSH1 0x6 PUSH1 0x7 SWAP1 SWAP3 MUL ADD ADD SLOAD PUSH1 0xFF AND ISZERO JUMPDEST ISZERO PUSH2 0x8A0 JUMPI DUP3 PUSH1 0x1 DUP3 DUP2 SLOAD DUP2 LT PUSH2 0x80A JUMPI PUSH2 0x80A PUSH2 0x1253 JUMP JUMPDEST PUSH0 SWAP2 DUP3 MSTORE PUSH1 0x20 SWAP2 DUP3 SWAP1 KECCAK256 DUP4 MLOAD PUSH1 0x7 SWAP1 SWAP3 MUL ADD DUP1 SLOAD SWAP3 DUP5 ADD MLOAD PUSH1 0x1 PUSH1 0x1 PUSH1 0x40 SHL SUB SWAP1 DUP2 AND PUSH1 0x1 PUSH1 0x40 SHL MUL PUSH1 0x1 PUSH1 0x1 PUSH1 0x80 SHL SUB NOT SWAP1 SWAP5 AND SWAP3 AND SWAP2 SWAP1 SWAP2 OR SWAP2 SWAP1 SWAP2 OR DUP2 SSTORE PUSH1 0x40 DUP3 ADD MLOAD PUSH1 0x1 DUP1 DUP4 ADD SWAP2 SWAP1 SWAP2 SSTORE PUSH1 0x60 DUP4 ADD MLOAD PUSH1 0x2 DUP4 ADD SSTORE PUSH1 0x80 DUP4 ADD MLOAD PUSH1 0x3 DUP4 ADD SSTORE PUSH1 0xA0 DUP4 ADD MLOAD PUSH1 0x4 DUP4 ADD SSTORE PUSH1 0xC0 DUP4 ADD MLOAD PUSH1 0x5 DUP4 ADD SSTORE PUSH1 0xE0 SWAP1 SWAP3 ADD MLOAD PUSH1 0x6 SWAP1 SWAP2 ADD DUP1 SLOAD SWAP2 ISZERO ISZERO PUSH1 0xFF NOT SWAP1 SWAP3 AND SWAP2 SWAP1 SWAP2 OR SWAP1 SSTORE SWAP2 POP JUMPDEST POP JUMPDEST DUP1 PUSH2 0xB38 JUMPI PUSH1 0x1 SLOAD PUSH32 0x0 GT ISZERO PUSH2 0xA4E JUMPI PUSH1 0x1 DUP1 SLOAD DUP1 DUP3 ADD DUP3 SSTORE PUSH0 DUP3 SWAP1 MSTORE DUP4 MLOAD PUSH1 0x7 SWAP1 SWAP2 MUL PUSH32 0xB10E2D527612073B26EECDFD717E6A320CF44B4AFAC2B0732D9FCBE2B7FA0CF6 DUP2 ADD DUP1 SLOAD PUSH1 0x20 DUP8 ADD MLOAD PUSH1 0x1 PUSH1 0x1 PUSH1 0x40 SHL SUB SWAP1 DUP2 AND PUSH1 0x1 PUSH1 0x40 SHL MUL PUSH1 0x1 PUSH1 0x1 PUSH1 0x80 SHL SUB NOT SWAP1 SWAP3 AND SWAP5 AND SWAP4 SWAP1 SWAP4 OR SWAP3 SWAP1 SWAP3 OR SWAP1 SWAP2 SSTORE PUSH1 0x40 DUP5 ADD MLOAD PUSH32 0xB10E2D527612073B26EECDFD717E6A320CF44B4AFAC2B0732D9FCBE2B7FA0CF7 DUP3 ADD SSTORE PUSH1 0x60 DUP5 ADD MLOAD PUSH32 0xB10E2D527612073B26EECDFD717E6A320CF44B4AFAC2B0732D9FCBE2B7FA0CF8 DUP3 ADD SSTORE PUSH1 0x80 DUP5 ADD MLOAD PUSH32 0xB10E2D527612073B26EECDFD717E6A320CF44B4AFAC2B0732D9FCBE2B7FA0CF9 DUP3 ADD SSTORE PUSH1 0xA0 DUP5 ADD MLOAD PUSH32 0xB10E2D527612073B26EECDFD717E6A320CF44B4AFAC2B0732D9FCBE2B7FA0CFA DUP3 ADD SSTORE PUSH1 0xC0 DUP5 ADD MLOAD PUSH32 0xB10E2D527612073B26EECDFD717E6A320CF44B4AFAC2B0732D9FCBE2B7FA0CFB DUP3 ADD SSTORE PUSH1 0xE0 DUP5 ADD MLOAD PUSH32 0xB10E2D527612073B26EECDFD717E6A320CF44B4AFAC2B0732D9FCBE2B7FA0CFC SWAP1 SWAP2 ADD DUP1 SLOAD SWAP2 ISZERO ISZERO PUSH1 0xFF NOT SWAP1 SWAP3 AND SWAP2 SWAP1 SWAP2 OR SWAP1 SSTORE SLOAD PUSH1 0x2 DUP2 SWAP1 SSTORE PUSH1 0x3 SSTORE PUSH2 0xB38 JUMP JUMPDEST DUP2 PUSH1 0x1 PUSH1 0x2 SLOAD DUP2 SLOAD DUP2 LT PUSH2 0xA64 JUMPI PUSH2 0xA64 PUSH2 0x1253 JUMP JUMPDEST PUSH0 SWAP2 DUP3 MSTORE PUSH1 0x20 SWAP2 DUP3 SWAP1 KECCAK256 DUP4 MLOAD PUSH1 0x7 SWAP1 SWAP3 MUL ADD DUP1 SLOAD SWAP3 DUP5 ADD MLOAD PUSH1 0x1 PUSH1 0x1 PUSH1 0x40 SHL SUB SWAP1 DUP2 AND PUSH1 0x1 PUSH1 0x40 SHL MUL PUSH1 0x1 PUSH1 0x1 PUSH1 0x80 SHL SUB NOT SWAP1 SWAP5 AND SWAP3 AND SWAP2 SWAP1 SWAP2 OR SWAP2 SWAP1 SWAP2 OR DUP2 SSTORE PUSH1 0x40 DUP3 ADD MLOAD PUSH1 0x1 DUP1 DUP4 ADD SWAP2 SWAP1 SWAP2 SSTORE PUSH1 0x60 DUP4 ADD MLOAD PUSH1 0x2 DUP1 DUP5 ADD SWAP2 SWAP1 SWAP2 SSTORE PUSH1 0x80 DUP5 ADD MLOAD PUSH1 0x3 DUP5 ADD SSTORE PUSH1 0xA0 DUP5 ADD MLOAD PUSH1 0x4 DUP5 ADD SSTORE PUSH1 0xC0 DUP5 ADD MLOAD PUSH1 0x5 DUP5 ADD SSTORE PUSH1 0xE0 SWAP1 SWAP4 ADD MLOAD PUSH1 0x6 SWAP1 SWAP3 ADD DUP1 SLOAD SWAP3 ISZERO ISZERO PUSH1 0xFF NOT SWAP1 SWAP4 AND SWAP3 SWAP1 SWAP3 OR SWAP1 SWAP2 SSTORE SWAP1 SLOAD PUSH32 0x0 SWAP2 PUSH2 0xB2A SWAP2 SWAP1 PUSH2 0x1240 JUMP JUMPDEST PUSH2 0xB34 SWAP2 SWAP1 PUSH2 0x1267 JUMP JUMPDEST PUSH1 0x2 SSTORE JUMPDEST PUSH0 PUSH1 0x40 MLOAD PUSH2 0xB46 SWAP2 SWAP1 PUSH2 0x12BE JUMP JUMPDEST PUSH1 0x40 MLOAD DUP1 SWAP2 SUB SWAP1 KECCAK256 PUSH32 0x0 PUSH32 0x0 PUSH1 0xF DUP2 GT ISZERO PUSH2 0xBA1 JUMPI PUSH2 0xBA1 PUSH2 0x1148 JUMP JUMPDEST PUSH1 0x40 DUP1 MLOAD PUSH1 0x1 PUSH1 0x1 PUSH1 0x40 SHL SUB DUP16 AND DUP2 MSTORE DUP6 ISZERO ISZERO PUSH1 0x20 DUP3 ADD MSTORE PUSH32 0x2938227EA55378AE62398D4F99AF288FBAB3774DAB97FA96A060EA989CBC8001 SWAP2 ADD PUSH1 0x40 MLOAD DUP1 SWAP2 SUB SWAP1 LOG4 POP POP POP POP POP POP POP POP POP POP JUMP JUMPDEST PUSH1 0x60 PUSH0 PUSH0 PUSH0 PUSH0 PUSH0 PUSH32 0x0 PUSH32 0x0 PUSH1 0x3 SLOAD PUSH32 0x0 DUP5 DUP1 SLOAD PUSH2 0xC69 SWAP1 PUSH2 0x1286 JUMP JUMPDEST DUP1 PUSH1 0x1F ADD PUSH1 0x20 DUP1 SWAP2 DIV MUL PUSH1 0x20 ADD PUSH1 0x40 MLOAD SWAP1 DUP2 ADD PUSH1 0x40 MSTORE DUP1 SWAP3 SWAP2 SWAP1 DUP2 DUP2 MSTORE PUSH1 0x20 ADD DUP3 DUP1 SLOAD PUSH2 0xC95 SWAP1 PUSH2 0x1286 JUMP JUMPDEST DUP1 ISZERO PUSH2 0xCE0 JUMPI DUP1 PUSH1 0x1F LT PUSH2 0xCB7 JUMPI PUSH2 0x100 DUP1 DUP4 SLOAD DIV MUL DUP4 MSTORE SWAP2 PUSH1 0x20 ADD SWAP2 PUSH2 0xCE0 JUMP JUMPDEST DUP3 ADD SWAP2 SWAP1 PUSH0 MSTORE PUSH1 0x20 PUSH0 KECCAK256 SWAP1 JUMPDEST DUP2 SLOAD DUP2 MSTORE SWAP1 PUSH1 0x1 ADD SWAP1 PUSH1 0x20 ADD DUP1 DUP4 GT PUSH2 0xCC3 JUMPI DUP3 SWAP1 SUB PUSH1 0x1F AND DUP3 ADD SWAP2 JUMPDEST POP POP POP POP POP SWAP5 POP SWAP5 POP SWAP5 POP SWAP5 POP SWAP5 POP SWAP5 POP SWAP1 SWAP2 SWAP3 SWAP4 SWAP5 JUMP JUMPDEST PUSH1 0x1 DUP2 DUP2 SLOAD DUP2 LT PUSH2 0xD07 JUMPI PUSH0 DUP1 REVERT JUMPDEST PUSH0 SWAP2 DUP3 MSTORE PUSH1 0x20 SWAP1 SWAP2 KECCAK256 PUSH1 0x7 SWAP1 SWAP2 MUL ADD DUP1 SLOAD PUSH1 0x1 DUP3 ADD SLOAD PUSH1 0x2 DUP4 ADD SLOAD PUSH1 0x3 DUP5 ADD SLOAD PUSH1 0x4 DUP6 ADD SLOAD PUSH1 0x5 DUP7 ADD SLOAD PUSH1 0x6 SWAP1 SWAP7 ADD SLOAD PUSH1 0x1 PUSH1 0x1 PUSH1 0x40 SHL SUB DUP1 DUP8 AND SWAP9 POP PUSH1 0x1 PUSH1 0x40 SHL SWAP1 SWAP7 DIV SWAP1 SWAP6 AND SWAP6 SWAP4 SWAP5 SWAP3 SWAP4 SWAP2 SWAP3 SWAP1 SWAP2 SWAP1 PUSH1 0xFF AND DUP9 JUMP JUMPDEST PUSH1 0x3 SLOAD PUSH1 0x40 MLOAD PUSH4 0xD1E53D5 PUSH1 0xE1 SHL DUP2 MSTORE PUSH1 0x60 SWAP2 ADDRESS SWAP2 PUSH4 0x1A3CA7AA SWAP2 PUSH2 0xD8A SWAP2 PUSH1 0x4 ADD SWAP1 DUP2 MSTORE PUSH1 0x20 ADD SWAP1 JUMP JUMPDEST PUSH0 PUSH1 0x40 MLOAD DUP1 DUP4 SUB DUP2 DUP7 GAS STATICCALL ISZERO DUP1 ISZERO PUSH2 0xDA4 JUMPI RETURNDATASIZE PUSH0 PUSH0 RETURNDATACOPY RETURNDATASIZE PUSH0 REVERT JUMPDEST POP POP POP POP PUSH1 0x40 MLOAD RETURNDATASIZE PUSH0 DUP3 RETURNDATACOPY PUSH1 0x1F RETURNDATASIZE SWAP1 DUP2 ADD PUSH1 0x1F NOT AND DUP3 ADD PUSH1 0x40 MSTORE PUSH2 0xDCB SWAP2 SWAP1 DUP2 ADD SWAP1 PUSH2 0x13CE JUMP JUMPDEST SWAP1 POP SWAP1 JUMP JUMPDEST CALLER PUSH1 0x1 PUSH1 0x1 PUSH1 0xA0 SHL SUB PUSH32 0x0 AND EQ PUSH2 0xE48 JUMPI PUSH1 0x40 MLOAD PUSH3 0x461BCD PUSH1 0xE5 SHL DUP2 MSTORE PUSH1 0x20 PUSH1 0x4 DUP3 ADD DUP2 SWAP1 MSTORE PUSH1 0x24 DUP3 ADD MSTORE PUSH32 0x4B49443A204F6E6C7920666163746F72792063616E20736574206F7261636C65 PUSH1 0x44 DUP3 ADD MSTORE PUSH1 0x64 ADD PUSH2 0x6A1 JUMP JUMPDEST PUSH1 0x1 PUSH1 0x1 PUSH1 0xA0 SHL SUB DUP2 AND PUSH2 0xE9E JUMPI PUSH1 0x40 MLOAD PUSH3 0x461BCD PUSH1 0xE5 SHL DUP2 MSTORE PUSH1 0x20 PUSH1 0x4 DUP3 ADD MSTORE PUSH1 0x1B PUSH1 0x24 DUP3 ADD MSTORE PUSH32 0x4B49443A20496E76616C6964206F7261636C6520616464726573730000000000 PUSH1 0x44 DUP3 ADD MSTORE PUSH1 0x64 ADD PUSH2 0x6A1 JUMP JUMPDEST PUSH1 0x4 DUP1 SLOAD PUSH1 0x1 PUSH1 0x1 PUSH1 0xA0 SHL SUB NOT AND PUSH1 0x1 PUSH1 0x1 PUSH1 0xA0 SHL SUB DUP4 AND SWAP1 DUP2 OR SWAP1 SWAP2 SSTORE PUSH1 0x40 MLOAD PUSH32 0x107A9FAFFFB7AC890F780879E423760C9FFEA8DCEE8045681F40F542AEDE2CB8 SWAP1 PUSH0 SWAP1 LOG2 POP JUMP JUMPDEST PUSH0 DUP1 SLOAD PUSH2 0xEF3 SWAP1 PUSH2 0x1286 JUMP JUMPDEST DUP1 PUSH1 0x1F ADD PUSH1 0x20 DUP1 SWAP2 DIV MUL PUSH1 0x20 ADD PUSH1 0x40 MLOAD SWAP1 DUP2 ADD PUSH1 0x40 MSTORE DUP1 SWAP3 SWAP2 SWAP1 DUP2 DUP2 MSTORE PUSH1 0x20 ADD DUP3 DUP1 SLOAD PUSH2 0xF1F SWAP1 PUSH2 0x1286 JUMP JUMPDEST DUP1 ISZERO PUSH2 0xF6A JUMPI DUP1 PUSH1 0x1F LT PUSH2 0xF41 JUMPI PUSH2 0x100 DUP1 DUP4 SLOAD DIV MUL DUP4 MSTORE SWAP2 PUSH1 0x20 ADD SWAP2 PUSH2 0xF6A JUMP JUMPDEST DUP3 ADD SWAP2 SWAP1 PUSH0 MSTORE PUSH1 0x20 PUSH0 KECCAK256 SWAP1 JUMPDEST DUP2 SLOAD DUP2 MSTORE SWAP1 PUSH1 0x1 ADD SWAP1 PUSH1 0x20 ADD DUP1 DUP4 GT PUSH2 0xF4D JUMPI DUP3 SWAP1 SUB PUSH1 0x1F AND DUP3 ADD SWAP2 JUMPDEST POP POP POP POP POP DUP2 JUMP JUMPDEST PUSH1 0x40 MLOAD DUP1 PUSH2 0x100 ADD PUSH1 0x40 MSTORE DUP1 PUSH0 PUSH1 0x1 PUSH1 0x1 PUSH1 0x40 SHL SUB AND DUP2 MSTORE PUSH1 0x20 ADD PUSH0 PUSH1 0x1 PUSH1 0x1 PUSH1 0x40 SHL SUB AND DUP2 MSTORE PUSH1 0x20 ADD PUSH0 DUP2 MSTORE PUSH1 0x20 ADD PUSH0 DUP2 MSTORE PUSH1 0x20 ADD PUSH0 DUP2 MSTORE PUSH1 0x20 ADD PUSH0 DUP2 MSTORE PUSH1 0x20 ADD PUSH0 DUP2 MSTORE PUSH1 0x20 ADD PUSH0 ISZERO ISZERO DUP2 MSTORE POP SWAP1 JUMP JUMPDEST PUSH0 PUSH1 0x20 DUP3 DUP5 SUB SLT ISZERO PUSH2 0xFD3 JUMPI PUSH0 PUSH0 REVERT JUMPDEST POP CALLDATALOAD SWAP2 SWAP1 POP JUMP JUMPDEST PUSH1 0x20 DUP1 DUP3 MSTORE DUP3 MLOAD DUP3 DUP3 ADD DUP2 SWAP1 MSTORE PUSH0 SWAP2 DUP5 ADD SWAP1 PUSH1 0x40 DUP5 ADD SWAP1 DUP4 JUMPDEST DUP2 DUP2 LT ISZERO PUSH2 0x1074 JUMPI DUP4 MLOAD PUSH1 0x1 PUSH1 0x1 PUSH1 0x40 SHL SUB DUP2 MLOAD AND DUP5 MSTORE PUSH1 0x1 PUSH1 0x1 PUSH1 0x40 SHL SUB PUSH1 0x20 DUP3 ADD MLOAD AND PUSH1 0x20 DUP6 ADD MSTORE PUSH1 0x40 DUP2 ADD MLOAD PUSH1 0x40 DUP6 ADD MSTORE PUSH1 0x60 DUP2 ADD MLOAD PUSH1 0x60 DUP6 ADD MSTORE PUSH1 0x80 DUP2 ADD MLOAD PUSH1 0x80 DUP6 ADD MSTORE PUSH1 0xA0 DUP2 ADD MLOAD PUSH1 0xA0 DUP6 ADD MSTORE PUSH1 0xC0 DUP2 ADD MLOAD PUSH1 0xC0 DUP6 ADD MSTORE PUSH1 0xE0 DUP2 ADD MLOAD ISZERO ISZERO PUSH1 0xE0 DUP6 ADD MSTORE POP PUSH2 0x100 DUP4 ADD SWAP3 POP PUSH1 0x20 DUP5 ADD SWAP4 POP PUSH1 0x1 DUP2 ADD SWAP1 POP PUSH2 0xFF3 JUMP JUMPDEST POP SWAP1 SWAP6 SWAP5 POP POP POP POP POP JUMP JUMPDEST PUSH1 0x1 PUSH1 0x1 PUSH1 0x40 SHL SUB DUP2 AND DUP2 EQ PUSH2 0x1093 JUMPI PUSH0 PUSH0 REVERT JUMPDEST POP JUMP JUMPDEST DUP1 ISZERO ISZERO DUP2 EQ PUSH2 0x1093 JUMPI PUSH0 PUSH0 REVERT JUMPDEST PUSH0 PUSH0 PUSH0 PUSH0 PUSH0 PUSH0 PUSH0 PUSH0 PUSH2 0x100 DUP10 DUP12 SUB SLT ISZERO PUSH2 0x10BB JUMPI PUSH0 PUSH0 REVERT JUMPDEST DUP9 CALLDATALOAD PUSH2 0x10C6 DUP2 PUSH2 0x107F JUMP JUMPDEST SWAP8 POP PUSH1 0x20 DUP10 ADD CALLDATALOAD PUSH2 0x10D6 DUP2 PUSH2 0x107F JUMP JUMPDEST SWAP7 POP PUSH1 0x40 DUP10 ADD CALLDATALOAD SWAP6 POP PUSH1 0x60 DUP10 ADD CALLDATALOAD SWAP5 POP PUSH1 0x80 DUP10 ADD CALLDATALOAD SWAP4 POP PUSH1 0xA0 DUP10 ADD CALLDATALOAD SWAP3 POP PUSH1 0xC0 DUP10 ADD CALLDATALOAD SWAP2 POP PUSH1 0xE0 DUP10 ADD CALLDATALOAD PUSH2 0x1109 DUP2 PUSH2 0x1096 JUMP JUMPDEST DUP1 SWAP2 POP POP SWAP3 SWAP6 SWAP9 POP SWAP3 SWAP6 SWAP9 SWAP1 SWAP4 SWAP7 POP JUMP JUMPDEST PUSH0 DUP2 MLOAD DUP1 DUP5 MSTORE DUP1 PUSH1 0x20 DUP5 ADD PUSH1 0x20 DUP7 ADD MCOPY PUSH0 PUSH1 0x20 DUP3 DUP7 ADD ADD MSTORE PUSH1 0x20 PUSH1 0x1F NOT PUSH1 0x1F DUP4 ADD AND DUP6 ADD ADD SWAP2 POP POP SWAP3 SWAP2 POP POP JUMP JUMPDEST PUSH4 0x4E487B71 PUSH1 0xE0 SHL PUSH0 MSTORE PUSH1 0x21 PUSH1 0x4 MSTORE PUSH1 0x24 PUSH0 REVERT JUMPDEST PUSH1 0x10 DUP2 LT PUSH2 0x1178 JUMPI PUSH4 0x4E487B71 PUSH1 0xE0 SHL PUSH0 MSTORE PUSH1 0x21 PUSH1 0x4 MSTORE PUSH1 0x24 PUSH0 REVERT JUMPDEST SWAP1 MSTORE JUMP JUMPDEST PUSH1 0xA0 DUP2 MSTORE PUSH0 PUSH2 0x118E PUSH1 0xA0 DUP4 ADD DUP9 PUSH2 0x111A JUMP JUMPDEST SWAP1 POP PUSH2 0x119D PUSH1 0x20 DUP4 ADD DUP8 PUSH2 0x115C JUMP JUMPDEST DUP5 PUSH1 0x40 DUP4 ADD MSTORE DUP4 PUSH1 0x60 DUP4 ADD MSTORE DUP3 PUSH1 0x80 DUP4 ADD MSTORE SWAP7 SWAP6 POP POP POP POP POP POP JUMP JUMPDEST PUSH0 PUSH1 0x20 DUP3 DUP5 SUB SLT ISZERO PUSH2 0x11C9 JUMPI PUSH0 PUSH0 REVERT JUMPDEST DUP2 CALLDATALOAD PUSH1 0x1 PUSH1 0x1 PUSH1 0xA0 SHL SUB DUP2 AND DUP2 EQ PUSH2 0x611 JUMPI PUSH0 PUSH0 REVERT JUMPDEST PUSH1 0x20 DUP2 MSTORE PUSH0 PUSH2 0x611 PUSH1 0x20 DUP4 ADD DUP5 PUSH2 0x111A JUMP JUMPDEST PUSH1 0x20 DUP2 ADD PUSH2 0x11FF DUP3 DUP5 PUSH2 0x115C JUMP JUMPDEST SWAP3 SWAP2 POP POP JUMP JUMPDEST PUSH4 0x4E487B71 PUSH1 0xE0 SHL PUSH0 MSTORE PUSH1 0x41 PUSH1 0x4 MSTORE PUSH1 0x24 PUSH0 REVERT JUMPDEST PUSH4 0x4E487B71 PUSH1 0xE0 SHL PUSH0 MSTORE PUSH1 0x11 PUSH1 0x4 MSTORE PUSH1 0x24 PUSH0 REVERT JUMPDEST DUP2 DUP2 SUB DUP2 DUP2 GT ISZERO PUSH2 0x11FF JUMPI PUSH2 0x11FF PUSH2 0x1219 JUMP JUMPDEST DUP1 DUP3 ADD DUP1 DUP3 GT ISZERO PUSH2 0x11FF JUMPI PUSH2 0x11FF PUSH2 0x1219 JUMP JUMPDEST PUSH4 0x4E487B71 PUSH1 0xE0 SHL PUSH0 MSTORE PUSH1 0x32 PUSH1 0x4 MSTORE PUSH1 0x24 PUSH0 REVERT JUMPDEST PUSH0 DUP3 PUSH2 0x1281 JUMPI PUSH4 0x4E487B71 PUSH1 0xE0 SHL PUSH0 MSTORE PUSH1 0x12 PUSH1 0x4 MSTORE PUSH1 0x24 PUSH0 REVERT JUMPDEST POP MOD SWAP1 JUMP JUMPDEST PUSH1 0x1 DUP2 DUP2 SHR SWAP1 DUP3 AND DUP1 PUSH2 0x129A JUMPI PUSH1 0x7F DUP3 AND SWAP2 POP JUMPDEST PUSH1 0x20 DUP3 LT DUP2 SUB PUSH2 0x12B8 JUMPI PUSH4 0x4E487B71 PUSH1 0xE0 SHL PUSH0 MSTORE PUSH1 0x22 PUSH1 0x4 MSTORE PUSH1 0x24 PUSH0 REVERT JUMPDEST POP SWAP2 SWAP1 POP JUMP JUMPDEST PUSH0 PUSH0 DUP4 SLOAD PUSH0 DUP2 PUSH1 0x1 SHR SWAP1 POP PUSH1 0x1 DUP3 AND DUP1 PUSH2 0x12D9 JUMPI PUSH1 0x7F DUP3 AND SWAP2 POP JUMPDEST PUSH1 0x20 DUP3 LT DUP2 SUB PUSH2 0x12F7 JUMPI PUSH4 0x4E487B71 PUSH1 0xE0 SHL PUSH0 MSTORE PUSH1 0x22 PUSH1 0x4 MSTORE PUSH1 0x24 PUSH0 REVERT JUMPDEST DUP1 DUP1 ISZERO PUSH2 0x130B JUMPI PUSH1 0x1 DUP2 EQ PUSH2 0x1320 JUMPI PUSH2 0x134E JUMP JUMPDEST PUSH1 0xFF NOT DUP5 AND DUP8 MSTORE DUP3 ISZERO ISZERO DUP4 MUL DUP8 ADD SWAP5 POP PUSH2 0x134E JUMP JUMPDEST PUSH0 DUP9 DUP2 MSTORE PUSH1 0x20 SWAP1 KECCAK256 PUSH0 JUMPDEST DUP5 DUP2 LT ISZERO PUSH2 0x1346 JUMPI DUP2 SLOAD DUP10 DUP3 ADD MSTORE PUSH1 0x1 SWAP1 SWAP2 ADD SWAP1 PUSH1 0x20 ADD PUSH2 0x132A JUMP JUMPDEST POP POP DUP3 DUP8 ADD SWAP5 POP JUMPDEST POP SWAP3 SWAP7 SWAP6 POP POP POP POP POP POP JUMP JUMPDEST PUSH1 0x40 MLOAD PUSH2 0x100 DUP2 ADD PUSH1 0x1 PUSH1 0x1 PUSH1 0x40 SHL SUB DUP2 GT DUP3 DUP3 LT OR ISZERO PUSH2 0x137D JUMPI PUSH2 0x137D PUSH2 0x1205 JUMP JUMPDEST PUSH1 0x40 MSTORE SWAP1 JUMP JUMPDEST PUSH1 0x40 MLOAD PUSH1 0x1F DUP3 ADD PUSH1 0x1F NOT AND DUP2 ADD PUSH1 0x1 PUSH1 0x1 PUSH1 0x40 SHL SUB DUP2 GT DUP3 DUP3 LT OR ISZERO PUSH2 0x13AB JUMPI PUSH2 0x13AB PUSH2 0x1205 JUMP JUMPDEST PUSH1 0x40 MSTORE SWAP2 SWAP1 POP JUMP JUMPDEST DUP1 MLOAD PUSH2 0x13BE DUP2 PUSH2 0x107F JUMP JUMPDEST SWAP2 SWAP1 POP JUMP JUMPDEST DUP1 MLOAD PUSH2 0x13BE DUP2 PUSH2 0x1096 JUMP JUMPDEST PUSH0 PUSH1 0x20 DUP3 DUP5 SUB SLT ISZERO PUSH2 0x13DE JUMPI PUSH0 PUSH0 REVERT JUMPDEST DUP2 MLOAD PUSH1 0x1 PUSH1 0x1 PUSH1 0x40 SHL SUB DUP2 GT ISZERO PUSH2 0x13F3 JUMPI PUSH0 PUSH0 REVERT JUMPDEST DUP3 ADD PUSH1 0x1F DUP2 ADD DUP5 SGT PUSH2 0x1403 JUMPI PUSH0 PUSH0 REVERT JUMPDEST DUP1 MLOAD PUSH1 0x1 PUSH1 0x1 PUSH1 0x40 SHL SUB DUP2 GT ISZERO PUSH2 0x141C JUMPI PUSH2 0x141C PUSH2 0x1205 JUMP JUMPDEST PUSH2 0x142B PUSH1 0x20 DUP3 PUSH1 0x5 SHL ADD PUSH2 0x1383 JUMP JUMPDEST DUP1 DUP3 DUP3 MSTORE PUSH1 0x20 DUP3 ADD SWAP2 POP PUSH1 0x20 DUP4 PUSH1 0x8 SHL DUP6 ADD ADD SWAP3 POP DUP7 DUP4 GT ISZERO PUSH2 0x144C JUMPI PUSH0 PUSH0 REVERT JUMPDEST PUSH1 0x20 DUP5 ADD SWAP4 POP JUMPDEST DUP3 DUP5 LT ISZERO PUSH2 0x14E9 JUMPI PUSH2 0x100 DUP5 DUP9 SUB SLT ISZERO PUSH2 0x146B JUMPI PUSH0 PUSH0 REVERT JUMPDEST PUSH2 0x1473 PUSH2 0x135A JUMP JUMPDEST DUP5 MLOAD PUSH2 0x147E DUP2 PUSH2 0x107F JUMP JUMPDEST DUP2 MSTORE PUSH2 0x148C PUSH1 0x20 DUP7 ADD PUSH2 0x13B3 JUMP JUMPDEST PUSH1 0x20 DUP3 ADD MSTORE PUSH1 0x40 DUP6 DUP2 ADD MLOAD SWAP1 DUP3 ADD MSTORE PUSH1 0x60 DUP1 DUP7 ADD MLOAD SWAP1 DUP3 ADD MSTORE PUSH1 0x80 DUP1 DUP7 ADD MLOAD SWAP1 DUP3 ADD MSTORE PUSH1 0xA0 DUP1 DUP7 ADD MLOAD SWAP1 DUP3 ADD MSTORE PUSH1 0xC0 DUP1 DUP7 ADD MLOAD SWAP1 DUP3 ADD MSTORE PUSH2 0x14CF PUSH1 0xE0 DUP7 ADD PUSH2 0x13C3 JUMP JUMPDEST PUSH1 0xE0 DUP3 ADD MSTORE DUP3 MSTORE PUSH2 0x100 SWAP4 SWAP1 SWAP4 ADD SWAP3 PUSH1 0x20 SWAP1 SWAP2 ADD SWAP1 PUSH2 0x1453 JUMP JUMPDEST SWAP7 SWAP6 POP POP POP POP POP POP JUMP INVALID LOG2 PUSH5 0x6970667358 0x22 SLT KECCAK256 0xAA 0xBD 0xC7 0x24 GAS EXTCODECOPY RJUMP 0xCB07 0xA9 RJUMP 0x69AD 0xB9 LOG2 DUP9 DELEGATECALL 0xB4 SWAP9 0xC4 0xC NOT 0xD4 GASLIMIT 0xE EXTCODEHASH XOR PUSH8 0x2BA804F264736F6C PUSH4 0x4300081E STOP CALLER "
		},
		"gasEstimates": {
			"creation": {
				"codeDepositCost": "2205000",
				"executionCost": "infinite",
				"totalCost": "infinite"
			},
			"external": {
				"DEFAULT_MAX_KLINE_PER_VERSION()": "238",
				"currentVersionForInterval(uint8)": "2537",
				"getIntervalDataContractAddresses(uint8)": "infinite",
				"getLatestIntervalDataContractAddress(uint8)": "9146",
				"getSymbol()": "infinite",
				"intervalDataContracts(uint8,uint256)": "4820",
				"oracleAddress()": "2358",
				"owner()": "2352",
				"pushKlineData(uint8,uint64,uint64,uint256,uint256,uint256,uint256,uint256,bool)": "infinite",
				"renounceOwnership()": "infinite",
				"setOracle(address)": "infinite",
				"symbol()": "infinite",
				"transferOwnership(address)": "28382"
			},
			"internal": {
				"_deployNewVersionForInterval(enum KlineDataLib.Interval)": "infinite",
				"_getActiveIntervalDataContract(enum KlineDataLib.Interval)": "infinite"
			}
		},
		"methodIdentifiers": {
			"DEFAULT_MAX_KLINE_PER_VERSION()": "d302bdb4",
			"currentVersionForInterval(uint8)": "2d814e87",
			"getIntervalDataContractAddresses(uint8)": "97b3326e",
			"getLatestIntervalDataContractAddress(uint8)": "2c511a7a",
			"getSymbol()": "15070401",
			"intervalDataContracts(uint8,uint256)": "ea1b4289",
			"oracleAddress()": "a89ae4ba",
			"owner()": "8da5cb5b",
			"pushKlineData(uint8,uint64,uint64,uint256,uint256,uint256,uint256,uint256,bool)": "841dc8e1",
			"renounceOwnership()": "715018a6",
			"setOracle(address)": "7adbf973",
			"symbol()": "95d89b41",
			"transferOwnership(address)": "f2fde38b"
		}
	},
	"abi": [
		{
			"inputs": [
				{
					"internalType": "string",
					"name": "_symbol",
					"type": "string"
				},
				{
					"internalType": "address",
					"name": "_initialOwner",
					"type": "address"
				},
				{
					"internalType": "address",
					"name": "_initialOracleAddress",
					"type": "address"
				}
			],
			"stateMutability": "nonpayable",
			"type": "constructor"
		},
		{
			"inputs": [
				{
					"internalType": "address",
					"name": "owner",
					"type": "address"
				}
			],
			"name": "OwnableInvalidOwner",
			"type": "error"
		},
		{
			"inputs": [
				{
					"internalType": "address",
					"name": "account",
					"type": "address"
				}
			],
			"name": "OwnableUnauthorizedAccount",
			"type": "error"
		},
		{
			"anonymous": false,
			"inputs": [
				{
					"indexed": true,
					"internalType": "enum KlineDataLib.Interval",
					"name": "interval",
					"type": "uint8"
				},
				{
					"indexed": true,
					"internalType": "uint256",
					"name": "version",
					"type": "uint256"
				},
				{
					"indexed": false,
					"internalType": "uint64",
					"name": "startTime",
					"type": "uint64"
				}
			],
			"name": "KlineDataPushed",
			"type": "event"
		},
		{
			"anonymous": false,
			"inputs": [
				{
					"indexed": true,
					"internalType": "enum KlineDataLib.Interval",
					"name": "interval",
					"type": "uint8"
				},
				{
					"indexed": true,
					"internalType": "uint256",
					"name": "version",
					"type": "uint256"
				},
				{
					"indexed": true,
					"internalType": "address",
					"name": "contractAddress",
					"type": "address"
				}
			],
			"name": "NewIntervalDataContractDeployed",
			"type": "event"
		},
		{
			"anonymous": false,
			"inputs": [
				{
					"indexed": true,
					"internalType": "address",
					"name": "newOracleAddress",
					"type": "address"
				}
			],
			"name": "OracleAddressSet",
			"type": "event"
		},
		{
			"anonymous": false,
			"inputs": [
				{
					"indexed": true,
					"internalType": "address",
					"name": "previousOwner",
					"type": "address"
				},
				{
					"indexed": true,
					"internalType": "address",
					"name": "newOwner",
					"type": "address"
				}
			],
			"name": "OwnershipTransferred",
			"type": "event"
		},
		{
			"inputs": [],
			"name": "DEFAULT_MAX_KLINE_PER_VERSION",
			"outputs": [
				{
					"internalType": "uint256",
					"name": "",
					"type": "uint256"
				}
			],
			"stateMutability": "view",
			"type": "function"
		},
		{
			"inputs": [
				{
					"internalType": "enum KlineDataLib.Interval",
					"name": "",
					"type": "uint8"
				}
			],
			"name": "currentVersionForInterval",
			"outputs": [
				{
					"internalType": "uint256",
					"name": "",
					"type": "uint256"
				}
			],
			"stateMutability": "view",
			"type": "function"
		},
		{
			"inputs": [
				{
					"internalType": "enum KlineDataLib.Interval",
					"name": "_interval",
					"type": "uint8"
				}
			],
			"name": "getIntervalDataContractAddresses",
			"outputs": [
				{
					"internalType": "address[]",
					"name": "",
					"type": "address[]"
				}
			],
			"stateMutability": "view",
			"type": "function"
		},
		{
			"inputs": [
				{
					"internalType": "enum KlineDataLib.Interval",
					"name": "_interval",
					"type": "uint8"
				}
			],
			"name": "getLatestIntervalDataContractAddress",
			"outputs": [
				{
					"internalType": "address",
					"name": "",
					"type": "address"
				}
			],
			"stateMutability": "view",
			"type": "function"
		},
		{
			"inputs": [],
			"name": "getSymbol",
			"outputs": [
				{
					"internalType": "string",
					"name": "",
					"type": "string"
				}
			],
			"stateMutability": "view",
			"type": "function"
		},
		{
			"inputs": [
				{
					"internalType": "enum KlineDataLib.Interval",
					"name": "",
					"type": "uint8"
				},
				{
					"internalType": "uint256",
					"name": "",
					"type": "uint256"
				}
			],
			"name": "intervalDataContracts",
			"outputs": [
				{
					"internalType": "address",
					"name": "",
					"type": "address"
				}
			],
			"stateMutability": "view",
			"type": "function"
		},
		{
			"inputs": [],
			"name": "oracleAddress",
			"outputs": [
				{
					"internalType": "address",
					"name": "",
					"type": "address"
				}
			],
			"stateMutability": "view",
			"type": "function"
		},
		{
			"inputs": [],
			"name": "owner",
			"outputs": [
				{
					"internalType": "address",
					"name": "",
					"type": "address"
				}
			],
			"stateMutability": "view",
			"type": "function"
		},
		{
			"inputs": [
				{
					"internalType": "enum KlineDataLib.Interval",
					"name": "_interval",
					"type": "uint8"
				},
				{
					"internalType": "uint64",
					"name": "_startTime",
					"type": "uint64"
				},
				{
					"internalType": "uint64",
					"name": "_closeTime",
					"type": "uint64"
				},
				{
					"internalType": "uint256",
					"name": "_openPriceScaled",
					"type": "uint256"
				},
				{
					"internalType": "uint256",
					"name": "_highPriceScaled",
					"type": "uint256"
				},
				{
					"internalType": "uint256",
					"name": "_lowPriceScaled",
					"type": "uint256"
				},
				{
					"internalType": "uint256",
					"name": "_closePriceScaled",
					"type": "uint256"
				},
				{
					"internalType": "uint256",
					"name": "_volumeScaled",
					"type": "uint256"
				},
				{
					"internalType": "bool",
					"name": "_isClosed",
					"type": "bool"
				}
			],
			"name": "pushKlineData",
			"outputs": [],
			"stateMutability": "nonpayable",
			"type": "function"
		},
		{
			"inputs": [],
			"name": "renounceOwnership",
			"outputs": [],
			"stateMutability": "nonpayable",
			"type": "function"
		},
		{
			"inputs": [
				{
					"internalType": "address",
					"name": "_newOracleAddress",
					"type": "address"
				}
			],
			"name": "setOracle",
			"outputs": [],
			"stateMutability": "nonpayable",
			"type": "function"
		},
		{
			"inputs": [],
			"name": "symbol",
			"outputs": [
				{
					"internalType": "string",
					"name": "",
					"type": "string"
				}
			],
			"stateMutability": "view",
			"type": "function"
		},
		{
			"inputs": [
				{
					"internalType": "address",
					"name": "newOwner",
					"type": "address"
				}
			],
			"name": "transferOwnership",
			"outputs": [],
			"stateMutability": "nonpayable",
			"type": "function"
		}
	]
}